{
  "contractName": "ChangeGuaranteeRequest",
  "abi": [
    {
      "constant": true,
      "inputs": [],
      "name": "getGuaranteeRequestData",
      "outputs": [
        {
          "name": "_contract_id",
          "type": "address"
        },
        {
          "name": "_customer",
          "type": "address"
        },
        {
          "name": "_bank",
          "type": "address"
        },
        {
          "name": "_beneficiary",
          "type": "address"
        },
        {
          "name": "_full_name",
          "type": "bytes32"
        },
        {
          "name": "_purpose",
          "type": "bytes32"
        },
        {
          "name": "_amount",
          "type": "uint256"
        },
        {
          "name": "_startDate",
          "type": "uint256"
        },
        {
          "name": "_endDate",
          "type": "uint256"
        },
        {
          "name": "_indexType",
          "type": "uint8"
        },
        {
          "name": "_indexDate",
          "type": "uint256"
        },
        {
          "name": "_status",
          "type": "uint8"
        },
        {
          "name": "_isChangeGuarantee",
          "type": "bool"
        },
        {
          "name": "_changedGuarantee",
          "type": "address"
        }
      ],
      "payable": false,
      "type": "function"
    },
    {
      "constant": false,
      "inputs": [
        {
          "name": "comment",
          "type": "string"
        }
      ],
      "name": "reject",
      "outputs": [
        {
          "name": "result",
          "type": "bool"
        }
      ],
      "payable": false,
      "type": "function"
    },
    {
      "constant": false,
      "inputs": [
        {
          "name": "_guaranteeIPFSHash",
          "type": "bytes"
        }
      ],
      "name": "signComplite",
      "outputs": [
        {
          "name": "",
          "type": "address"
        }
      ],
      "payable": false,
      "type": "function"
    },
    {
      "constant": false,
      "inputs": [],
      "name": "accept",
      "outputs": [
        {
          "name": "result",
          "type": "bool"
        }
      ],
      "payable": false,
      "type": "function"
    },
    {
      "constant": false,
      "inputs": [
        {
          "name": "_newamount",
          "type": "uint256"
        },
        {
          "name": "_newendDate",
          "type": "uint256"
        }
      ],
      "name": "changeRequested",
      "outputs": [],
      "payable": false,
      "type": "function"
    },
    {
      "constant": true,
      "inputs": [],
      "name": "isExpired",
      "outputs": [
        {
          "name": "",
          "type": "bool"
        }
      ],
      "payable": false,
      "type": "function"
    },
    {
      "constant": false,
      "inputs": [],
      "name": "getGuaranteeAddress",
      "outputs": [
        {
          "name": "",
          "type": "address"
        }
      ],
      "payable": false,
      "type": "function"
    },
    {
      "constant": false,
      "inputs": [],
      "name": "close",
      "outputs": [],
      "payable": false,
      "type": "function"
    },
    {
      "constant": false,
      "inputs": [],
      "name": "setRegulator",
      "outputs": [],
      "payable": false,
      "type": "function"
    },
    {
      "constant": false,
      "inputs": [
        {
          "name": "comment",
          "type": "string"
        }
      ],
      "name": "withdrawal",
      "outputs": [
        {
          "name": "result",
          "type": "bool"
        }
      ],
      "payable": false,
      "type": "function"
    },
    {
      "constant": true,
      "inputs": [],
      "name": "version",
      "outputs": [
        {
          "name": "",
          "type": "string"
        }
      ],
      "payable": false,
      "type": "function"
    },
    {
      "constant": true,
      "inputs": [],
      "name": "getBeneficiary",
      "outputs": [
        {
          "name": "",
          "type": "address"
        }
      ],
      "payable": false,
      "type": "function"
    },
    {
      "constant": true,
      "inputs": [],
      "name": "getId",
      "outputs": [
        {
          "name": "_contract_id",
          "type": "address"
        }
      ],
      "payable": false,
      "type": "function"
    },
    {
      "constant": true,
      "inputs": [],
      "name": "getBank",
      "outputs": [
        {
          "name": "",
          "type": "address"
        }
      ],
      "payable": false,
      "type": "function"
    },
    {
      "constant": true,
      "inputs": [],
      "name": "getCustomer",
      "outputs": [
        {
          "name": "",
          "type": "address"
        }
      ],
      "payable": false,
      "type": "function"
    },
    {
      "constant": true,
      "inputs": [],
      "name": "getChangeRequestGuarantee",
      "outputs": [
        {
          "name": "",
          "type": "address"
        }
      ],
      "payable": false,
      "type": "function"
    },
    {
      "constant": true,
      "inputs": [],
      "name": "getOwner",
      "outputs": [
        {
          "name": "",
          "type": "address"
        }
      ],
      "payable": false,
      "type": "function"
    },
    {
      "constant": true,
      "inputs": [],
      "name": "changeRequestGuaranteeAdr",
      "outputs": [
        {
          "name": "",
          "type": "address"
        }
      ],
      "payable": false,
      "type": "function"
    },
    {
      "constant": true,
      "inputs": [],
      "name": "owner",
      "outputs": [
        {
          "name": "",
          "type": "address"
        }
      ],
      "payable": false,
      "type": "function"
    },
    {
      "constant": true,
      "inputs": [],
      "name": "getRequestState",
      "outputs": [
        {
          "name": "",
          "type": "uint8"
        }
      ],
      "payable": false,
      "type": "function"
    },
    {
      "constant": false,
      "inputs": [
        {
          "name": "_newOwner",
          "type": "address"
        }
      ],
      "name": "changeOwner",
      "outputs": [],
      "payable": false,
      "type": "function"
    },
    {
      "constant": true,
      "inputs": [],
      "name": "getEndDate",
      "outputs": [
        {
          "name": "",
          "type": "uint256"
        }
      ],
      "payable": false,
      "type": "function"
    },
    {
      "constant": true,
      "inputs": [],
      "name": "isValid",
      "outputs": [
        {
          "name": "",
          "type": "bool"
        }
      ],
      "payable": false,
      "type": "function"
    },
    {
      "constant": true,
      "inputs": [],
      "name": "getProposalIPFSHash",
      "outputs": [
        {
          "name": "_roposalIPFSHash",
          "type": "bytes"
        }
      ],
      "payable": false,
      "type": "function"
    },
    {
      "constant": false,
      "inputs": [],
      "name": "terminateGuarantee",
      "outputs": [],
      "payable": false,
      "type": "function"
    },
    {
      "constant": false,
      "inputs": [],
      "name": "isChangeRequest",
      "outputs": [
        {
          "name": "",
          "type": "bool"
        }
      ],
      "payable": false,
      "type": "function"
    },
    {
      "constant": true,
      "inputs": [],
      "name": "getAmount",
      "outputs": [
        {
          "name": "",
          "type": "uint256"
        }
      ],
      "payable": false,
      "type": "function"
    },
    {
      "constant": false,
      "inputs": [
        {
          "name": "comment",
          "type": "string"
        }
      ],
      "name": "submit",
      "outputs": [
        {
          "name": "result",
          "type": "bool"
        }
      ],
      "payable": false,
      "type": "function"
    },
    {
      "constant": false,
      "inputs": [
        {
          "name": "comment",
          "type": "string"
        },
        {
          "name": "_newState",
          "type": "uint8"
        }
      ],
      "name": "bankStateChange",
      "outputs": [
        {
          "name": "result",
          "type": "bool"
        }
      ],
      "payable": false,
      "type": "function"
    },
    {
      "constant": false,
      "inputs": [],
      "name": "getRegulator",
      "outputs": [
        {
          "name": "",
          "type": "address"
        }
      ],
      "payable": false,
      "type": "function"
    },
    {
      "inputs": [
        {
          "name": "guaranteeExtender",
          "type": "address"
        },
        {
          "name": "requestAmount",
          "type": "uint256"
        },
        {
          "name": "requestEndDate",
          "type": "uint256"
        }
      ],
      "payable": false,
      "type": "constructor"
    },
    {
      "anonymous": false,
      "inputs": [
        {
          "indexed": false,
          "name": "guaranteeExtender",
          "type": "address"
        },
        {
          "indexed": false,
          "name": "requestAmount",
          "type": "uint256"
        },
        {
          "indexed": false,
          "name": "requestEndDate",
          "type": "uint256"
        },
        {
          "indexed": false,
          "name": "curentstatus",
          "type": "uint8"
        },
        {
          "indexed": false,
          "name": "timestamp",
          "type": "uint256"
        }
      ],
      "name": "ChangeGuaranteeRequestCreated",
      "type": "event"
    },
    {
      "anonymous": false,
      "inputs": [
        {
          "indexed": true,
          "name": "requestId",
          "type": "address"
        },
        {
          "indexed": true,
          "name": "guarantieId",
          "type": "address"
        },
        {
          "indexed": false,
          "name": "newamount",
          "type": "uint256"
        },
        {
          "indexed": false,
          "name": "newendDate",
          "type": "uint256"
        },
        {
          "indexed": false,
          "name": "curentstatus",
          "type": "uint8"
        },
        {
          "indexed": false,
          "name": "timestamp",
          "type": "uint256"
        }
      ],
      "name": "GuarantieChangeRequested",
      "type": "event"
    },
    {
      "anonymous": false,
      "inputs": [
        {
          "indexed": true,
          "name": "requestId",
          "type": "address"
        },
        {
          "indexed": true,
          "name": "msgSender",
          "type": "address"
        },
        {
          "indexed": false,
          "name": "curentstatus",
          "type": "uint8"
        },
        {
          "indexed": false,
          "name": "commentline",
          "type": "string"
        },
        {
          "indexed": false,
          "name": "timestamp",
          "type": "uint256"
        }
      ],
      "name": "Submitted",
      "type": "event"
    },
    {
      "anonymous": false,
      "inputs": [
        {
          "indexed": true,
          "name": "requestId",
          "type": "address"
        },
        {
          "indexed": true,
          "name": "msgSender",
          "type": "address"
        },
        {
          "indexed": false,
          "name": "curentstatus",
          "type": "uint8"
        },
        {
          "indexed": false,
          "name": "commentline",
          "type": "string"
        },
        {
          "indexed": false,
          "name": "timestamp",
          "type": "uint256"
        }
      ],
      "name": "Withdrawal",
      "type": "event"
    },
    {
      "anonymous": false,
      "inputs": [
        {
          "indexed": true,
          "name": "requestId",
          "type": "address"
        },
        {
          "indexed": true,
          "name": "msgSender",
          "type": "address"
        },
        {
          "indexed": false,
          "name": "curentstatus",
          "type": "uint8"
        },
        {
          "indexed": false,
          "name": "timestamp",
          "type": "uint256"
        }
      ],
      "name": "Termination",
      "type": "event"
    },
    {
      "anonymous": false,
      "inputs": [
        {
          "indexed": true,
          "name": "requestId",
          "type": "address"
        },
        {
          "indexed": true,
          "name": "msgSender",
          "type": "address"
        },
        {
          "indexed": false,
          "name": "curentstatus",
          "type": "uint8"
        },
        {
          "indexed": false,
          "name": "commentline",
          "type": "string"
        },
        {
          "indexed": false,
          "name": "timestamp",
          "type": "uint256"
        }
      ],
      "name": "Rejected",
      "type": "event"
    },
    {
      "anonymous": false,
      "inputs": [
        {
          "indexed": true,
          "name": "requestId",
          "type": "address"
        },
        {
          "indexed": true,
          "name": "msgSender",
          "type": "address"
        },
        {
          "indexed": false,
          "name": "curentstatus",
          "type": "uint8"
        },
        {
          "indexed": false,
          "name": "commentline",
          "type": "string"
        },
        {
          "indexed": false,
          "name": "timestamp",
          "type": "uint256"
        }
      ],
      "name": "BankStateChange",
      "type": "event"
    },
    {
      "anonymous": false,
      "inputs": [
        {
          "indexed": true,
          "name": "requestId",
          "type": "address"
        },
        {
          "indexed": true,
          "name": "msgSender",
          "type": "address"
        },
        {
          "indexed": false,
          "name": "curentstatus",
          "type": "uint8"
        },
        {
          "indexed": false,
          "name": "timestamp",
          "type": "uint256"
        }
      ],
      "name": "Accepted",
      "type": "event"
    },
    {
      "anonymous": false,
      "inputs": [
        {
          "indexed": true,
          "name": "requestId",
          "type": "address"
        },
        {
          "indexed": true,
          "name": "guarantieId",
          "type": "address"
        },
        {
          "indexed": false,
          "name": "curentstatus",
          "type": "uint8"
        },
        {
          "indexed": false,
          "name": "timestamp",
          "type": "uint256"
        }
      ],
      "name": "GuarantieSigned",
      "type": "event"
    },
    {
      "anonymous": false,
      "inputs": [
        {
          "indexed": true,
          "name": "requestId",
          "type": "address"
        },
        {
          "indexed": true,
          "name": "guarantieId",
          "type": "address"
        },
        {
          "indexed": false,
          "name": "curentstatus",
          "type": "uint8"
        },
        {
          "indexed": false,
          "name": "timestamp",
          "type": "uint256"
        }
      ],
      "name": "GuarantieChangeSigned",
      "type": "event"
    }
  ],
  "bytecode": "0x6060604090815260008054600160a060020a03191633600160a060020a03161790558051908101604052600481527f312e3030000000000000000000000000000000000000000000000000000000006020820152600390805162000068929160200190620002eb565b5034156200007557600080fd5b60405160608062002bba8339810160405280805191906020018051919060200180519150505b82600160a060020a0381166388a22f7a6000604051602001526040518163ffffffff167c0100000000000000000000000000000000000000000000000000000000028152600401602060405180830381600087803b1515620000fc57600080fd5b6102c65a03f115156200010e57600080fd5b505050604051805160068054600160a060020a031916600160a060020a03929092169190911790555060048390556005829055600080546001919060a060020a60ff02191674010000000000000000000000000000000000000000835b02179055506006546200020790600160a060020a031663650d993b6000604051602001526040518163ffffffff167c0100000000000000000000000000000000000000000000000000000000028152600401602060405180830381600087803b1515620001d757600080fd5b6102c65a03f11515620001e957600080fd5b50505060405180519050640100000000620015a96200029982021704565b7f6668e9152381aa2ab70b4dd997e35907eff8ddc3eede437bf5fd8eec574ca770848484600060149054906101000a900460ff16426040518086600160a060020a0316600160a060020a0316815260200185815260200184815260200183600a8111156200027157fe5b60ff1681526020018281526020019550505050505060405180910390a15b5050505062000395565b60005433600160a060020a03908116911614620002b557600080fd5b600160a060020a0381161515620002cb57600080fd5b60008054600160a060020a031916600160a060020a0383161790555b5b50565b828054600181600116156101000203166002900490600052602060002090601f016020900481019282601f106200032e57805160ff19168380011785556200035e565b828001600101855582156200035e579182015b828111156200035e57825182559160200191906001019062000341565b5b506200036d92915062000371565b5090565b6200039291905b808211156200036d576000815560010162000378565b5090565b90565b61281580620003a56000396000f30060606040523615620001835763ffffffff60e060020a6000350416631c32e7af811462000188578063201c5cc114620002925780632259515b14620002fa5780632852b71c146200036a5780632beba68b14620003945780632f13b60c14620003b25780633f40d18f14620003dc57806343d726d6146200040e5780634a0b20aa14620004265780634a51c31c146200043e57806354fd4d5014620004a6578063565a2e2c14620005375780635d1ca631146200056957806360d704db146200059b578063650d993b14620005cd5780636f00817e14620005ff578063893d20e814620005cd5780638b54d0e414620006635780638da5cb5b1462000695578063a39152f214620006c7578063a6f9dae11462000702578063b13564881462000726578063bb5d40eb146200074e578063c3287ea71462000778578063c700c70d1462000809578063cded37371462000821578063d321fe29146200084b578063d99a8dc31462000873578063f40bd94a14620008db578063f7e317f41462000948575b600080fd5b34156200019457600080fd5b6200019e6200097a565b604051808f600160a060020a0316600160a060020a031681526020018e600160a060020a0316600160a060020a031681526020018d600160a060020a0316600160a060020a031681526020018c600160a060020a0316600160a060020a031681526020018b600019166000191681526020018a600019166000191681526020018981526020018881526020018781526020018660028111156200023d57fe5b60ff16815260200185815260200184600a8111156200025857fe5b60ff168152921515602084015250600160a060020a031660408083019190915260609091019c509a50505050505050505050505180910390f35b34156200029e57600080fd5b620002e660046024813581810190830135806020601f8201819004810201604051908101604052818152929190602084018383808284375094965062000b2a95505050505050565b604051901515815260200160405180910390f35b34156200030657600080fd5b6200034e60046024813581810190830135806020601f8201819004810201604051908101604052818152929190602084018383808284375094965062000c6395505050505050565b604051600160a060020a03909116815260200160405180910390f35b34156200037657600080fd5b620002e662001019565b604051901515815260200160405180910390f35b3415620003a057600080fd5b620003b06004356024356200113c565b005b3415620003be57600080fd5b620002e6620011eb565b604051901515815260200160405180910390f35b3415620003e857600080fd5b6200034e620011ff565b604051600160a060020a03909116815260200160405180910390f35b34156200041a57600080fd5b620003b06200120f565b005b34156200043257600080fd5b620003b06200123c565b005b34156200044a57600080fd5b620002e660046024813581810190830135806020601f820181900481020160405190810160405281815292919060208401838380828437509496506200126795505050505050565b604051901515815260200160405180910390f35b3415620004b257600080fd5b620004bc620013cb565b60405160208082528190810183818151815260200191508051906020019080838360005b83811015620004fb5780820151818401525b602001620004e0565b50505050905090810190601f168015620005295780820380516001836020036101000a031916815260200191505b509250505060405180910390f35b34156200054357600080fd5b6200034e6200146d565b604051600160a060020a03909116815260200160405180910390f35b34156200057557600080fd5b6200034e620014d9565b604051600160a060020a03909116815260200160405180910390f35b3415620005a757600080fd5b6200034e620014de565b604051600160a060020a03909116815260200160405180910390f35b3415620005d957600080fd5b6200034e6200154a565b604051600160a060020a03909116815260200160405180910390f35b34156200060b57600080fd5b6200034e6200155a565b604051600160a060020a03909116815260200160405180910390f35b3415620005d957600080fd5b6200034e6200154a565b604051600160a060020a03909116815260200160405180910390f35b34156200066f57600080fd5b6200034e6200157a565b604051600160a060020a03909116815260200160405180910390f35b3415620006a157600080fd5b6200034e62001589565b604051600160a060020a03909116815260200160405180910390f35b3415620006d357600080fd5b620006dd62001598565b6040518082600a811115620006ee57fe5b60ff16815260200191505060405180910390f35b34156200070e57600080fd5b620003b0600160a060020a0360043516620015a9565b005b34156200073257600080fd5b6200073c62001608565b60405190815260200160405180910390f35b34156200075a57600080fd5b620002e66200160f565b604051901515815260200160405180910390f35b34156200078457600080fd5b620004bc6200164d565b60405160208082528190810183818151815260200191508051906020019080838360005b83811015620004fb5780820151818401525b602001620004e0565b50505050905090810190601f168015620005295780820380516001836020036101000a031916815260200191505b509250505060405180910390f35b34156200081557600080fd5b620003b06200166c565b005b34156200082d57600080fd5b620002e66200172e565b604051901515815260200160405180910390f35b34156200085757600080fd5b6200073c6200174c565b60405190815260200160405180910390f35b34156200087f57600080fd5b620002e660046024813581810190830135806020601f820181900481020160405190810160405281815292919060208401838380828437509496506200175395505050505050565b604051901515815260200160405180910390f35b3415620008e757600080fd5b620002e660046024813581810190830135806020601f820181900481020160405190810160405281815292919060208401838380828437509496505050923560ff169250620018b6915050565b604051901515815260200160405180910390f35b34156200095457600080fd5b6200034e62001a88565b604051600160a060020a03909116815260200160405180910390f35b600080600080600080600080600080600080600080600660009054906101000a9004600160a060020a0316600160a060020a0316631c32e7af60006040516101c001526040518163ffffffff1660e060020a0281526004016101c060405180830381600087803b1515620009ed57600080fd5b6102c65a03f11515620009ff57600080fd5b50505060405180519060200180519060200180519060200180519060200180519060200180519060200180519060200180519060200180519060200180519060200180519060200180519060200180519060200180519050909192939495969798999a9b9c50909192939495969798999a9b50909192939495969798999a5090919293949596979899509091929394959650909192939450909150905050809850819950829b50839d50849e50505050505062000abb6200154a565b9c5062000ac76200146d565b9a5062000ad3620014de565b9b5062000adf620014d9565b9d506004549750600060149054906101000a900460ff169250600554955060019150600660009054906101000a9004600160a060020a031690505b909192939495969798999a9b9c9d565b600060065b60005460a060020a900460ff16600a81111562000b4857fe5b141562000b5457600080fd5b600080546008919060a060020a60ff02191660a060020a835b021790555033600160a060020a031662000b86620014d9565b600160a060020a03167feb463c1ffd4e2e84feaf7746bb60dd6b9471dbbf9edd2b020a53869f796cd78d600060149054906101000a900460ff1685426040518084600a81111562000bd357fe5b60ff16815260200180602001838152602001828103825284818151815260200191508051906020019080838360005b8381101562000c1d5780820151818401525b60200162000c02565b50505050905090810190601f16801562000c4b5780820380516001836020036101000a031916815260200191505b5094505050505060405180910390a35060015b919050565b600154600090819033600160a060020a0390811691161462000c8457600080fd5b60065b62000c9162001598565b600a81111562000c9d57fe5b14801562000cb1575062000cb18362001a98565b5b801562000cd9575062000cc462001a88565b600160a060020a031633600160a060020a0316145b151562000ce557600080fd5b62000cef620014d9565b62000cf962001a88565b8462000d0462001ab6565b600160a060020a0380851682528316602082015260606040820181815290820183818151815260200191508051906020019080838360005b8381101562000d575780820151818401525b60200162000d3c565b50505050905090810190601f16801562000d855780820380516001836020036101000a031916815260200191505b50945050505050604051809103906000f080151562000da357600080fd5b905080600160a060020a0316635d1ca6316000604051602001526040518163ffffffff1660e060020a028152600401602060405180830381600087803b151562000dec57600080fd5b6102c65a03f1151562000dfe57600080fd5b50505060405180516002805473ffffffffffffffffffffffffffffffffffffffff1916600160a060020a03929092169190911790555062000e3e6200172e565b1562000f265780600160a060020a0316635d1ca6316000604051602001526040518163ffffffff1660e060020a028152600401602060405180830381600087803b151562000e8b57600080fd5b6102c65a03f1151562000e9d57600080fd5b50505060405180519050600160a060020a031662000eba620014d9565b600160a060020a03167f5cf2a7101a7acad9a26aabd8c2b95e616fa3c5c8e93e3f30419151a370f4ef34600060149054906101000a900460ff16426040518083600a81111562000f0657fe5b60ff1681526020018281526020019250505060405180910390a362001003565b80600160a060020a0316635d1ca6316000604051602001526040518163ffffffff1660e060020a028152600401602060405180830381600087803b151562000f6d57600080fd5b6102c65a03f1151562000f7f57600080fd5b50505060405180519050600160a060020a031662000f9c620014d9565b600160a060020a03167f9f3a4dc4a2920969299d37a1a55dc00ce978fe5e0ac8b2a4d87fbe66fd4d283b600060149054906101000a900460ff16426040518083600a81111562000fe857fe5b60ff1681526020018281526020019250505060405180910390a35b600254600160a060020a031691505b5b50919050565b60015460009033600160a060020a039081169116146200103857600080fd5b60015b60005460a060020a900460ff16600a8111156200105457fe5b14806200107a575060025b60005460a060020a900460ff16600a8111156200107857fe5b145b8015620010905750600254600160a060020a0316155b15156200109c57600080fd5b600080546006919060a060020a60ff02191660a060020a835b021790555033600160a060020a0316620010ce620014d9565b600160a060020a03167f89e5f8cd748cff430d9087f4e0e0ef20acd32d0e6686df96c89d726e35e68ab5600060149054906101000a900460ff16426040518083600a8111156200111a57fe5b60ff1681526020018281526020019250505060405180910390a35060015b5b90565b600080546007919060a060020a60ff02191660a060020a835b0217905550600254600160a060020a031662001170620014d9565b600160a060020a03167fb42cc91db936a84b66eef34e5d2852b519032c7921629568c4589c97396a5ad28484600060149054906101000a900460ff16426040518085815260200184815260200183600a811115620011ca57fe5b60ff16815260200182815260200194505050505060405180910390a35b5050565b600042620011f862001608565b1090505b90565b600254600160a060020a03165b90565b60005433600160a060020a039081169116146200122b57600080fd5b600054600160a060020a0316ff5b5b565b6001805473ffffffffffffffffffffffffffffffffffffffff191633600160a060020a03161790555b565b6000620012736200154a565b600160a060020a031633600160a060020a03161415156200129357600080fd5b60065b60005460a060020a900460ff16600a811115620012af57fe5b1415620012bb57600080fd5b600080546005919060a060020a60ff02191660a060020a835b021790555033600160a060020a0316620012ed620014d9565b600160a060020a03167fdc36f94f1c16d61fe684e365e0c2a72b23aebb7adedf5aaa22fab76156a7efe7600060149054906101000a900460ff1685426040518084600a81111562000bd357fe5b60ff16815260200180602001838152602001828103825284818151815260200191508051906020019080838360005b8381101562000c1d5780820151818401525b60200162000c02565b50505050905090810190601f16801562000c4b5780820380516001836020036101000a031916815260200191505b5094505050505060405180910390a35060015b5b919050565b60038054600181600116156101000203166002900480601f016020809104026020016040519081016040528092919081815260200182805460018160011615610100020316600290048015620014655780601f10620014395761010080835404028352916020019162001465565b820191906000526020600020905b8154815290600101906020018083116200144757829003601f168201915b505050505081565b600654600090600160a060020a031663565a2e2c82604051602001526040518163ffffffff1660e060020a028152600401602060405180830381600087803b1515620014b857600080fd5b6102c65a03f11515620014ca57600080fd5b50505060405180519150505b90565b305b90565b600654600090600160a060020a03166360d704db82604051602001526040518163ffffffff1660e060020a028152600401602060405180830381600087803b1515620014b857600080fd5b6102c65a03f11515620014ca57600080fd5b50505060405180519150505b90565b600054600160a060020a03165b90565b600654600160a060020a03165b90565b600054600160a060020a03165b90565b600654600160a060020a031681565b600054600160a060020a031681565b60005460a060020a900460ff165b90565b60005433600160a060020a03908116911614620015c557600080fd5b600160a060020a0381161515620015db57600080fd5b6000805473ffffffffffffffffffffffffffffffffffffffff1916600160a060020a0383161790555b5b50565b6005545b90565b6000806200161c620014de565b600160a060020a03161415801562001647575060006200163b6200146d565b600160a060020a031614155b90505b90565b6200165762001ac7565b60206040519081016040526000815290505b90565b60065b60005460a060020a900460ff16600a8111156200168857fe5b146200169357600080fd5b600080546009919060a060020a60ff02191660a060020a835b021790555033600160a060020a0316620016c5620014d9565b600160a060020a03167fb045224df2b3987361a530219dd4444888d47a8e07af71c364c99fe7468f176f600060149054906101000a900460ff16426040518083600a8111156200171157fe5b60ff1681526020018281526020019250505060405180910390a35b565b6000806200163b6200155a565b600160a060020a0316141590505b90565b6004545b90565b60006200175f6200154a565b600160a060020a031633600160a060020a03161415156200177f57600080fd5b60005b60005460a060020a900460ff16600a8111156200179b57fe5b14620017a657600080fd5b600080546001919060a060020a60ff02191660a060020a835b021790555033600160a060020a0316620017d8620014d9565b600160a060020a03167fe10024035668761375cfcfe9cbd74261a7c93ffafc8059f85ba7477baf874921600060149054906101000a900460ff1685426040518084600a81111562000bd357fe5b60ff16815260200180602001838152602001828103825284818151815260200191508051906020019080838360005b8381101562000c1d5780820151818401525b60200162000c02565b50505050905090810190601f16801562000c4b5780820380516001836020036101000a031916815260200191505b5094505050505060405180910390a35060015b5b919050565b6000620018c2620014de565b600160a060020a031633600160a060020a0316141515620018e257600080fd5b60015b60005460a060020a900460ff16600a811115620018fe57fe5b148062001924575060025b60005460a060020a900460ff16600a8111156200192257fe5b145b80156200196f575060025b82600a8111156200193c57fe5b148062001956575060035b82600a8111156200195457fe5b145b806200196f575060045b82600a8111156200196d57fe5b145b5b15156200197c57600080fd5b6000805483919060a060020a60ff02191660a060020a83600a8111156200199f57fe5b021790555033600160a060020a0316620019b8620014d9565b600160a060020a03167f508c5c654e715d2dda84dde20b40b29a2b462944231ab692f10b091a38541a8d8486426040518084600a811115620019f657fe5b60ff16815260200180602001838152602001828103825284818151815260200191508051906020019080838360005b8381101562001a405780820151818401525b60200162001a25565b50505050905090810190601f16801562001a6e5780820380516001836020036101000a031916815260200191505b5094505050505060405180910390a35060015b5b92915050565b600154600160a060020a03165b90565b6000808251111562001aad5750600162000c5e565b5060005b919050565b604051610d108062001ada83390190565b602060405190810160405260008152905600606060405260008054600160a060020a03191633600160a060020a0316179055341561002a57600080fd5b604051610d10380380610d1083398101604052808051919060200180519190602001805190910190505b60018054600160a060020a03808616600160a060020a031992831617909255600280549285169290911691909117905560038180516100979291602001906101bc565b50600280546001919060a060020a60ff02191674010000000000000000000000000000000000000000835b02179055507feeb6ffd7090cc72ad3fc8b9c2879f7b97d4f9eb9b2943c50a4cbab3931db090983303384600260149054906101000a900460ff1642604051600160a060020a038088168252868116602083015285166040820152606081016080820184600481111561013057fe5b60ff168152602001838152602001828103825285818151815260200191508051906020019080838360005b838110156101745780820151818401525b60200161015b565b50505050905090810190601f1680156101a15780820380516001836020036101000a031916815260200191505b5097505050505050505060405180910390a15b50505061025c565b828054600181600116156101000203166002900490600052602060002090601f016020900481019282601f106101fd57805160ff191683800117855561022a565b8280016001018555821561022a579182015b8281111561022a57825182559160200191906001019061020f565b5b5061023792915061023b565b5090565b61025991905b808211156102375760008155600101610241565b5090565b90565b610aa58061026b6000396000f300606060405236156100b45763ffffffff60e060020a6000350416631865c57d81146100b95780632f13b60c146100f057806338e537b31461011757806343d726d6146101c9578063488523bc146101de578063565a2e2c146102695780635d1ca6311461029857806388a22f7a146102c7578063893d20e8146102f65780638da5cb5b14610325578063a6f9dae114610354578063b135648814610375578063bea14fc11461039a578063c700c70d146103b5575b600080fd5b34156100c457600080fd5b6100cc6103ca565b604051808260048111156100dc57fe5b60ff16815260200191505060405180910390f35b34156100fb57600080fd5b610103610415565b604051901515815260200160405180910390f35b341561012257600080fd5b61012a610427565b604051600160a060020a03808f1682528d811660208301528c811660408301528b811660608301528a16608082015260a0810189905260c0810188905260e0810187905261010081018690526101208101859052610140810184600281111561018f57fe5b60ff1681526020018381526020018260048111156101a957fe5b60ff1681526020019d505050505050505050505050505060405180910390f35b34156101d457600080fd5b6101dc6106bd565b005b34156101e957600080fd5b6101f16106e9565b60405160208082528190810183818151815260200191508051906020019080838360005b8381101561022e5780820151818401525b602001610215565b50505050905090810190601f16801561025b5780820380516001836020036101000a031916815260200191505b509250505060405180910390f35b341561027457600080fd5b61027c610792565b604051600160a060020a03909116815260200160405180910390f35b34156102a357600080fd5b61027c6107fe565b604051600160a060020a03909116815260200160405180910390f35b34156102d257600080fd5b61027c610803565b604051600160a060020a03909116815260200160405180910390f35b341561030157600080fd5b61027c610813565b604051600160a060020a03909116815260200160405180910390f35b341561033057600080fd5b61027c610823565b604051600160a060020a03909116815260200160405180910390f35b341561035f57600080fd5b6101dc600160a060020a0360043516610832565b005b341561038057600080fd5b61038861088f565b60405190815260200160405180910390f35b34156103a557600080fd5b6101dc6004356024356108fb565b005b34156103c057600080fd5b6101dc6109a6565b005b600060015b60025460a060020a900460ff1660048111156103e757fe5b1415610402576103f5610415565b1561040257506002610412565b5b5060025460a060020a900460ff165b90565b60004261042061088f565b1090505b90565b600080600080600080600080600080600080600080600160009054906101000a9004600160a060020a0316905080600160a060020a0316631c32e7af60006040516101c001526040518163ffffffff1660e060020a0281526004016101c060405180830381600087803b151561049c57600080fd5b6102c65a03f115156104ad57600080fd5b50505060405180519060200180519060200180519060200180519060200180519060200180519060200180519060200180519060200180519060200180519060200180519060200180519060200180519060200180519050909192939495969798999a9b9c50909192939495969798999a9b50909192939495969798999a509091929394959697989950909150905050809950819a50829b50839c50849d50859e50869f5050505050505050600160009054906101000a9004600160a060020a03169c506105796107fe565b9d5080600160a060020a031663650d993b6000604051602001526040518163ffffffff1660e060020a028152600401602060405180830381600087803b15156105c157600080fd5b6102c65a03f115156105d257600080fd5b50505060405180519c5050600160a060020a0381166360d704db6000604051602001526040518163ffffffff1660e060020a028152600401602060405180830381600087803b151561062357600080fd5b6102c65a03f1151561063457600080fd5b50505060405180519b5050600160a060020a03811663565a2e2c6000604051602001526040518163ffffffff1660e060020a028152600401602060405180830381600087803b151561068557600080fd5b6102c65a03f1151561069657600080fd5b5050506040518051905099506106aa6103ca565b91505b50909192939495969798999a9b9c565b60005433600160a060020a039081169116146106d857600080fd5b600054600160a060020a0316ff5b5b565b6106f1610a67565b60038054600181600116156101000203166002900480601f0160208091040260200160405190810160405280929190818152602001828054600181600116156101000203166002900480156107875780601f1061075c57610100808354040283529160200191610787565b820191906000526020600020905b81548152906001019060200180831161076a57829003601f168201915b505050505090505b90565b600154600090600160a060020a03168063565a2e2c83604051602001526040518163ffffffff1660e060020a028152600401602060405180830381600087803b15156107dd57600080fd5b6102c65a03f115156107ee57600080fd5b50505060405180519250505b5090565b305b90565b600154600160a060020a03165b90565b600054600160a060020a03165b90565b600054600160a060020a031681565b60005433600160a060020a0390811691161461084d57600080fd5b600160a060020a038116151561086257600080fd5b6000805473ffffffffffffffffffffffffffffffffffffffff1916600160a060020a0383161790555b5b50565b600154600090600160a060020a03168063b135648883604051602001526040518163ffffffff1660e060020a028152600401602060405180830381600087803b15156107dd57600080fd5b6102c65a03f115156107ee57600080fd5b50505060405180519250505b5090565b7f4d3c9d0e5ee7cb52dbdaaf1fe7b04b94f5d6406283723738ce2a85d0d536998a6109246107fe565b303385856109306103ca565b42604051600160a060020a038089168252878116602083015286166040820152606081018590526080810184905260a0810160c0820184600481111561097257fe5b60ff1681526020018381526020018281038252600081526020016020019850505050505050505060405180910390a15b5050565b600280546003919074ff0000000000000000000000000000000000000000191660a060020a835b02179055506001547f6518c1da158fee6a2676b0f54a238f60b8607b47ed05a8ac7108a7a866c25fdd90600160a060020a0316610a086107fe565b600254339060a060020a900460ff1642604051600160a060020a03808716825285811660208301528416604082015260608101836004811115610a4757fe5b60ff1681526020018281526020019550505050505060405180910390a15b565b602060405190810160405260008152905600a165627a7a72305820bd05cc3c7275a1b826125b72e1e39e3bb576ad2c6932b78445980e3e692439e30029a165627a7a723058202bd99661009bc565a4d6c341d55954739f729a6205862a8cfeede95c95ca21000029",
  "source": "pragma solidity ^0.4.0;\n\n\nimport \"./GuaranteeRequestExtender.sol\";\n\ncontract ChangeGuaranteeRequest is GuaranteeRequestExtender\n{\n    string public version = \"1.00\";\n\n    uint  amount;\n    uint  endDate;\n\n//    bytes  theproposalIPFSHash;\n\n    address public  changeRequestGuaranteeAdr;\n\n    event ChangeGuaranteeRequestCreated (address guaranteeExtender,uint requestAmount, uint requestEndDate,RequestState   curentstatus,uint timestamp);\n\n    function ChangeGuaranteeRequest(address guaranteeExtender,uint requestAmount, uint requestEndDate){\n        DigitalGuaranteeBNHP ge=DigitalGuaranteeBNHP(guaranteeExtender);\n\n        changeRequestGuaranteeAdr=ge.getGuaranteeRequest();\n        amount=requestAmount;\n        endDate=requestEndDate;\n        status=RequestState.waitingtobank;\n\n\n        changeOwner(GuaranteeRequestExtender(changeRequestGuaranteeAdr).getCustomer());\n        ChangeGuaranteeRequestCreated(guaranteeExtender, requestAmount,  requestEndDate,status,now);\n    }\n\n    function getId() constant public returns (address _contract_id)\n    {\n        return this;\n    }\n\n    function getAmount() constant public returns (uint )\n    {\n        return amount;\n    }\n\n\n    function getBank() constant public returns (address)\n    {\n        return GuaranteeRequestExtender(changeRequestGuaranteeAdr).getBank();\n    }\n    function getBeneficiary() constant public returns (address)\n    {\n        return GuaranteeRequestExtender(changeRequestGuaranteeAdr).getBeneficiary();\n\n    }\n\n    function getEndDate() constant public returns (uint)\n    {\n        return endDate;\n    }\n\n\n    function getGuaranteeRequestData() constant public returns (address _contract_id,address _customer,address _bank, address _beneficiary,\n    bytes32 _full_name ,bytes32 _purpose,uint _amount,uint _startDate,uint _endDate,IndexType _indexType,uint _indexDate,RequestState _status ,bool _isChangeGuarantee,address _changedGuarantee)\n    {\n\n        ( , , ,  , _full_name, _purpose , , _startDate, , _indexType, _indexDate, , , ) =GuaranteeRequestExtender(changeRequestGuaranteeAdr).getGuaranteeRequestData();\n\n        _customer=getCustomer();\n        _beneficiary=getBeneficiary();\n        _bank=getBank();\n        _contract_id=getId();\n        _amount=amount;\n        _status=status;\n        _endDate=endDate;\n        _isChangeGuarantee=true;\n        _changedGuarantee=changeRequestGuaranteeAdr;\n\n    }\n\n\n\n    function getProposalIPFSHash() constant public returns (bytes _roposalIPFSHash)\n    {\n//            _roposalIPFSHash=GuaranteeRequestExtender(getChangeRequestGuarantee()).getProposalIPFSHash();\n        return \"\";\n\n    }\n\n\n\n    function getChangeRequestGuarantee() constant public returns (address )\n    {\n        return changeRequestGuaranteeAdr;\n    }\n\n    function isValid() constant public returns (bool) {\n\n        return ( getBank()!= address(0) && getBeneficiary()!= address(0));\n    }\n\n}\n",
  "sourcePath": "/Users/dmitryshlymovich/workspace/ethereum-garanties/truffle_eth_bnhp/contracts/ChangeGuaranteeRequest.sol",
  "schemaVersion": "1.0.0",
  "updatedAt": "2017-11-21T05:24:38.756Z"
}