{
  "contractName": "ChangeGuaranteeRequest",
  "abi": [
    {
      "constant": true,
      "inputs": [],
      "name": "getGuaranteeRequestData",
      "outputs": [
        {
          "name": "_contract_id",
          "type": "address"
        },
        {
          "name": "_customer",
          "type": "address"
        },
        {
          "name": "_bank",
          "type": "address"
        },
        {
          "name": "_beneficiary",
          "type": "address"
        },
        {
          "name": "_full_name",
          "type": "bytes32"
        },
        {
          "name": "_purpose",
          "type": "bytes32"
        },
        {
          "name": "_amount",
          "type": "uint256"
        },
        {
          "name": "_startDate",
          "type": "uint256"
        },
        {
          "name": "_endDate",
          "type": "uint256"
        },
        {
          "name": "_indexType",
          "type": "uint8"
        },
        {
          "name": "_indexDate",
          "type": "uint256"
        },
        {
          "name": "_status",
          "type": "uint8"
        },
        {
          "name": "_isChangeGuarantee",
          "type": "bool"
        },
        {
          "name": "_changedGuarantee",
          "type": "address"
        }
      ],
      "payable": false,
      "stateMutability": "view",
      "type": "function"
    },
    {
      "constant": false,
      "inputs": [
        {
          "name": "comment",
          "type": "string"
        }
      ],
      "name": "reject",
      "outputs": [
        {
          "name": "result",
          "type": "bool"
        }
      ],
      "payable": false,
      "stateMutability": "nonpayable",
      "type": "function"
    },
    {
      "constant": false,
      "inputs": [
        {
          "name": "_guaranteeIPFSHash",
          "type": "bytes"
        }
      ],
      "name": "signComplite",
      "outputs": [
        {
          "name": "",
          "type": "address"
        }
      ],
      "payable": false,
      "stateMutability": "nonpayable",
      "type": "function"
    },
    {
      "constant": false,
      "inputs": [],
      "name": "accept",
      "outputs": [
        {
          "name": "result",
          "type": "bool"
        }
      ],
      "payable": false,
      "stateMutability": "nonpayable",
      "type": "function"
    },
    {
      "constant": false,
      "inputs": [
        {
          "name": "_newamount",
          "type": "uint256"
        },
        {
          "name": "_newendDate",
          "type": "uint256"
        }
      ],
      "name": "changeRequested",
      "outputs": [],
      "payable": false,
      "stateMutability": "nonpayable",
      "type": "function"
    },
    {
      "constant": true,
      "inputs": [],
      "name": "isExpired",
      "outputs": [
        {
          "name": "",
          "type": "bool"
        }
      ],
      "payable": false,
      "stateMutability": "view",
      "type": "function"
    },
    {
      "constant": false,
      "inputs": [],
      "name": "getGuaranteeAddress",
      "outputs": [
        {
          "name": "",
          "type": "address"
        }
      ],
      "payable": false,
      "stateMutability": "nonpayable",
      "type": "function"
    },
    {
      "constant": false,
      "inputs": [],
      "name": "close",
      "outputs": [],
      "payable": false,
      "stateMutability": "nonpayable",
      "type": "function"
    },
    {
      "constant": false,
      "inputs": [],
      "name": "setRegulator",
      "outputs": [],
      "payable": false,
      "stateMutability": "nonpayable",
      "type": "function"
    },
    {
      "constant": false,
      "inputs": [
        {
          "name": "comment",
          "type": "string"
        }
      ],
      "name": "withdrawal",
      "outputs": [
        {
          "name": "result",
          "type": "bool"
        }
      ],
      "payable": false,
      "stateMutability": "nonpayable",
      "type": "function"
    },
    {
      "constant": true,
      "inputs": [],
      "name": "version",
      "outputs": [
        {
          "name": "",
          "type": "string"
        }
      ],
      "payable": false,
      "stateMutability": "view",
      "type": "function"
    },
    {
      "constant": true,
      "inputs": [],
      "name": "getBeneficiary",
      "outputs": [
        {
          "name": "",
          "type": "address"
        }
      ],
      "payable": false,
      "stateMutability": "view",
      "type": "function"
    },
    {
      "constant": true,
      "inputs": [],
      "name": "getId",
      "outputs": [
        {
          "name": "_contract_id",
          "type": "address"
        }
      ],
      "payable": false,
      "stateMutability": "view",
      "type": "function"
    },
    {
      "constant": true,
      "inputs": [],
      "name": "getBank",
      "outputs": [
        {
          "name": "",
          "type": "address"
        }
      ],
      "payable": false,
      "stateMutability": "view",
      "type": "function"
    },
    {
      "constant": true,
      "inputs": [],
      "name": "getCustomer",
      "outputs": [
        {
          "name": "",
          "type": "address"
        }
      ],
      "payable": false,
      "stateMutability": "view",
      "type": "function"
    },
    {
      "constant": true,
      "inputs": [],
      "name": "getChangeRequestGuarantee",
      "outputs": [
        {
          "name": "",
          "type": "address"
        }
      ],
      "payable": false,
      "stateMutability": "view",
      "type": "function"
    },
    {
      "constant": true,
      "inputs": [],
      "name": "getOwner",
      "outputs": [
        {
          "name": "",
          "type": "address"
        }
      ],
      "payable": false,
      "stateMutability": "view",
      "type": "function"
    },
    {
      "constant": true,
      "inputs": [],
      "name": "changeRequestGuaranteeAdr",
      "outputs": [
        {
          "name": "",
          "type": "address"
        }
      ],
      "payable": false,
      "stateMutability": "view",
      "type": "function"
    },
    {
      "constant": true,
      "inputs": [],
      "name": "owner",
      "outputs": [
        {
          "name": "",
          "type": "address"
        }
      ],
      "payable": false,
      "stateMutability": "view",
      "type": "function"
    },
    {
      "constant": true,
      "inputs": [],
      "name": "getRequestState",
      "outputs": [
        {
          "name": "",
          "type": "uint8"
        }
      ],
      "payable": false,
      "stateMutability": "view",
      "type": "function"
    },
    {
      "constant": false,
      "inputs": [
        {
          "name": "_newOwner",
          "type": "address"
        }
      ],
      "name": "changeOwner",
      "outputs": [],
      "payable": false,
      "stateMutability": "nonpayable",
      "type": "function"
    },
    {
      "constant": true,
      "inputs": [],
      "name": "getEndDate",
      "outputs": [
        {
          "name": "",
          "type": "uint256"
        }
      ],
      "payable": false,
      "stateMutability": "view",
      "type": "function"
    },
    {
      "constant": true,
      "inputs": [],
      "name": "isValid",
      "outputs": [
        {
          "name": "",
          "type": "bool"
        }
      ],
      "payable": false,
      "stateMutability": "view",
      "type": "function"
    },
    {
      "constant": true,
      "inputs": [],
      "name": "getProposalIPFSHash",
      "outputs": [
        {
          "name": "_roposalIPFSHash",
          "type": "bytes"
        }
      ],
      "payable": false,
      "stateMutability": "view",
      "type": "function"
    },
    {
      "constant": false,
      "inputs": [],
      "name": "terminateGuarantee",
      "outputs": [],
      "payable": false,
      "stateMutability": "nonpayable",
      "type": "function"
    },
    {
      "constant": false,
      "inputs": [],
      "name": "isChangeRequest",
      "outputs": [
        {
          "name": "",
          "type": "bool"
        }
      ],
      "payable": false,
      "stateMutability": "nonpayable",
      "type": "function"
    },
    {
      "constant": true,
      "inputs": [],
      "name": "getAmount",
      "outputs": [
        {
          "name": "",
          "type": "uint256"
        }
      ],
      "payable": false,
      "stateMutability": "view",
      "type": "function"
    },
    {
      "constant": false,
      "inputs": [
        {
          "name": "comment",
          "type": "string"
        }
      ],
      "name": "submit",
      "outputs": [
        {
          "name": "result",
          "type": "bool"
        }
      ],
      "payable": false,
      "stateMutability": "nonpayable",
      "type": "function"
    },
    {
      "constant": false,
      "inputs": [
        {
          "name": "comment",
          "type": "string"
        },
        {
          "name": "_newState",
          "type": "uint8"
        }
      ],
      "name": "bankStateChange",
      "outputs": [
        {
          "name": "result",
          "type": "bool"
        }
      ],
      "payable": false,
      "stateMutability": "nonpayable",
      "type": "function"
    },
    {
      "constant": false,
      "inputs": [],
      "name": "getRegulator",
      "outputs": [
        {
          "name": "",
          "type": "address"
        }
      ],
      "payable": false,
      "stateMutability": "nonpayable",
      "type": "function"
    },
    {
      "inputs": [
        {
          "name": "guaranteeExtender",
          "type": "address"
        },
        {
          "name": "requestAmount",
          "type": "uint256"
        },
        {
          "name": "requestEndDate",
          "type": "uint256"
        }
      ],
      "payable": false,
      "stateMutability": "nonpayable",
      "type": "constructor"
    },
    {
      "anonymous": false,
      "inputs": [
        {
          "indexed": false,
          "name": "guaranteeExtender",
          "type": "address"
        },
        {
          "indexed": false,
          "name": "requestAmount",
          "type": "uint256"
        },
        {
          "indexed": false,
          "name": "requestEndDate",
          "type": "uint256"
        },
        {
          "indexed": false,
          "name": "curentstatus",
          "type": "uint8"
        },
        {
          "indexed": false,
          "name": "timestamp",
          "type": "uint256"
        }
      ],
      "name": "ChangeGuaranteeRequestCreated",
      "type": "event"
    },
    {
      "anonymous": false,
      "inputs": [
        {
          "indexed": true,
          "name": "requestId",
          "type": "address"
        },
        {
          "indexed": true,
          "name": "guarantieId",
          "type": "address"
        },
        {
          "indexed": false,
          "name": "newamount",
          "type": "uint256"
        },
        {
          "indexed": false,
          "name": "newendDate",
          "type": "uint256"
        },
        {
          "indexed": false,
          "name": "curentstatus",
          "type": "uint8"
        },
        {
          "indexed": false,
          "name": "timestamp",
          "type": "uint256"
        }
      ],
      "name": "GuarantieChangeRequested",
      "type": "event"
    },
    {
      "anonymous": false,
      "inputs": [
        {
          "indexed": true,
          "name": "requestId",
          "type": "address"
        },
        {
          "indexed": true,
          "name": "msgSender",
          "type": "address"
        },
        {
          "indexed": false,
          "name": "curentstatus",
          "type": "uint8"
        },
        {
          "indexed": false,
          "name": "commentline",
          "type": "string"
        },
        {
          "indexed": false,
          "name": "timestamp",
          "type": "uint256"
        }
      ],
      "name": "Submitted",
      "type": "event"
    },
    {
      "anonymous": false,
      "inputs": [
        {
          "indexed": true,
          "name": "requestId",
          "type": "address"
        },
        {
          "indexed": true,
          "name": "msgSender",
          "type": "address"
        },
        {
          "indexed": false,
          "name": "curentstatus",
          "type": "uint8"
        },
        {
          "indexed": false,
          "name": "commentline",
          "type": "string"
        },
        {
          "indexed": false,
          "name": "timestamp",
          "type": "uint256"
        }
      ],
      "name": "Withdrawal",
      "type": "event"
    },
    {
      "anonymous": false,
      "inputs": [
        {
          "indexed": true,
          "name": "requestId",
          "type": "address"
        },
        {
          "indexed": true,
          "name": "msgSender",
          "type": "address"
        },
        {
          "indexed": false,
          "name": "curentstatus",
          "type": "uint8"
        },
        {
          "indexed": false,
          "name": "timestamp",
          "type": "uint256"
        }
      ],
      "name": "Termination",
      "type": "event"
    },
    {
      "anonymous": false,
      "inputs": [
        {
          "indexed": true,
          "name": "requestId",
          "type": "address"
        },
        {
          "indexed": true,
          "name": "msgSender",
          "type": "address"
        },
        {
          "indexed": false,
          "name": "curentstatus",
          "type": "uint8"
        },
        {
          "indexed": false,
          "name": "commentline",
          "type": "string"
        },
        {
          "indexed": false,
          "name": "timestamp",
          "type": "uint256"
        }
      ],
      "name": "Rejected",
      "type": "event"
    },
    {
      "anonymous": false,
      "inputs": [
        {
          "indexed": true,
          "name": "requestId",
          "type": "address"
        },
        {
          "indexed": true,
          "name": "msgSender",
          "type": "address"
        },
        {
          "indexed": false,
          "name": "curentstatus",
          "type": "uint8"
        },
        {
          "indexed": false,
          "name": "commentline",
          "type": "string"
        },
        {
          "indexed": false,
          "name": "timestamp",
          "type": "uint256"
        }
      ],
      "name": "BankStateChange",
      "type": "event"
    },
    {
      "anonymous": false,
      "inputs": [
        {
          "indexed": true,
          "name": "requestId",
          "type": "address"
        },
        {
          "indexed": true,
          "name": "msgSender",
          "type": "address"
        },
        {
          "indexed": false,
          "name": "curentstatus",
          "type": "uint8"
        },
        {
          "indexed": false,
          "name": "timestamp",
          "type": "uint256"
        }
      ],
      "name": "Accepted",
      "type": "event"
    },
    {
      "anonymous": false,
      "inputs": [
        {
          "indexed": true,
          "name": "requestId",
          "type": "address"
        },
        {
          "indexed": true,
          "name": "guarantieId",
          "type": "address"
        },
        {
          "indexed": false,
          "name": "curentstatus",
          "type": "uint8"
        },
        {
          "indexed": false,
          "name": "timestamp",
          "type": "uint256"
        }
      ],
      "name": "GuarantieSigned",
      "type": "event"
    },
    {
      "anonymous": false,
      "inputs": [
        {
          "indexed": true,
          "name": "requestId",
          "type": "address"
        },
        {
          "indexed": true,
          "name": "guarantieId",
          "type": "address"
        },
        {
          "indexed": false,
          "name": "curentstatus",
          "type": "uint8"
        },
        {
          "indexed": false,
          "name": "timestamp",
          "type": "uint256"
        }
      ],
      "name": "GuarantieChangeSigned",
      "type": "event"
    }
  ],
  "bytecode": "0x6060604052336000806101000a81548173ffffffffffffffffffffffffffffffffffffffff021916908373ffffffffffffffffffffffffffffffffffffffff1602179055506040805190810160405280600481526020017f312e303000000000000000000000000000000000000000000000000000000000815250600390805190602001906200009192919062000406565b5034156200009e57600080fd5b60405160608062003cdb8339810160405280805190602001909190805190602001909190805190602001909190505060008390508073ffffffffffffffffffffffffffffffffffffffff166388a22f7a6000604051602001526040518163ffffffff167c0100000000000000000000000000000000000000000000000000000000028152600401602060405180830381600087803b15156200013f57600080fd5b6102c65a03f115156200015157600080fd5b50505060405180519050600660006101000a81548173ffffffffffffffffffffffffffffffffffffffff021916908373ffffffffffffffffffffffffffffffffffffffff16021790555082600481905550816005819055506001600060146101000a81548160ff0219169083600a811115620001c957fe5b021790555062000297600660009054906101000a900473ffffffffffffffffffffffffffffffffffffffff1673ffffffffffffffffffffffffffffffffffffffff1663650d993b6000604051602001526040518163ffffffff167c0100000000000000000000000000000000000000000000000000000000028152600401602060405180830381600087803b15156200026157600080fd5b6102c65a03f115156200027357600080fd5b50505060405180519050620003426401000000000262001d7b176401000000009004565b7f6668e9152381aa2ab70b4dd997e35907eff8ddc3eede437bf5fd8eec574ca770848484600060149054906101000a900460ff1642604051808673ffffffffffffffffffffffffffffffffffffffff1673ffffffffffffffffffffffffffffffffffffffff16815260200185815260200184815260200183600a8111156200031b57fe5b60ff1681526020018281526020019550505050505060405180910390a150505050620004b5565b6000809054906101000a900473ffffffffffffffffffffffffffffffffffffffff1673ffffffffffffffffffffffffffffffffffffffff163373ffffffffffffffffffffffffffffffffffffffff161415156200039e57600080fd5b60008173ffffffffffffffffffffffffffffffffffffffff161415620003c357600080fd5b806000806101000a81548173ffffffffffffffffffffffffffffffffffffffff021916908373ffffffffffffffffffffffffffffffffffffffff16021790555050565b828054600181600116156101000203166002900490600052602060002090601f016020900481019282601f106200044957805160ff19168380011785556200047a565b828001600101855582156200047a579182015b82811115620004795782518255916020019190600101906200045c565b5b5090506200048991906200048d565b5090565b620004b291905b80821115620004ae57600081600090555060010162000494565b5090565b90565b61381680620004c56000396000f3006060604052600436106200019f576000357c0100000000000000000000000000000000000000000000000000000000900463ffffffff1680631c32e7af14620001a4578063201c5cc114620003395780632259515b14620003b15780632852b71c14620004515780632beba68b14620004815780632f13b60c14620004b05780633f40d18f14620004e057806343d726d614620005385780634a0b20aa14620005505780634a51c31c146200056857806354fd4d5014620005e0578063565a2e2c14620006745780635d1ca63114620006cc57806360d704db1462000724578063650d993b146200077c5780636f00817e14620007d4578063893d20e8146200082c5780638b54d0e414620008845780638da5cb5b14620008dc578063a39152f21462000934578063a6f9dae1146200096f578063b135648814620009ab578063bb5d40eb14620009d7578063c3287ea71462000a07578063c700c70d1462000a9b578063cded37371462000ab3578063d321fe291462000ae3578063d99a8dc31462000b0f578063f40bd94a1462000b87578063f7e317f41462000c0b575b600080fd5b3415620001b057600080fd5b620001ba62000c63565b604051808f73ffffffffffffffffffffffffffffffffffffffff1673ffffffffffffffffffffffffffffffffffffffff1681526020018e73ffffffffffffffffffffffffffffffffffffffff1673ffffffffffffffffffffffffffffffffffffffff1681526020018d73ffffffffffffffffffffffffffffffffffffffff1673ffffffffffffffffffffffffffffffffffffffff1681526020018c73ffffffffffffffffffffffffffffffffffffffff1673ffffffffffffffffffffffffffffffffffffffff1681526020018b600019166000191681526020018a60001916600019168152602001898152602001888152602001878152602001866002811115620002c157fe5b60ff16815260200185815260200184600a811115620002dc57fe5b60ff168152602001831515151581526020018273ffffffffffffffffffffffffffffffffffffffff1673ffffffffffffffffffffffffffffffffffffffff1681526020019e50505050505050505050505050505060405180910390f35b34156200034557600080fd5b62000397600480803590602001908201803590602001908080601f0160208091040260200160405190810160405280939291908181526020018383808284378201915050505050509190505062000e52565b604051808215151515815260200191505060405180910390f35b3415620003bd57600080fd5b6200040f600480803590602001908201803590602001908080601f0160208091040260200160405190810160405280939291908181526020018383808284378201915050505050509190505062000fbe565b604051808273ffffffffffffffffffffffffffffffffffffffff1673ffffffffffffffffffffffffffffffffffffffff16815260200191505060405180910390f35b34156200045d57600080fd5b62000467620014f7565b604051808215151515815260200191505060405180910390f35b34156200048d57600080fd5b620004ae6004808035906020019091908035906020019091905050620016db565b005b3415620004bc57600080fd5b620004c6620017ca565b604051808215151515815260200191505060405180910390f35b3415620004ec57600080fd5b620004f6620017dd565b604051808273ffffffffffffffffffffffffffffffffffffffff1673ffffffffffffffffffffffffffffffffffffffff16815260200191505060405180910390f35b34156200054457600080fd5b6200054e62001807565b005b34156200055c57600080fd5b620005666200189d565b005b34156200057457600080fd5b620005c6600480803590602001908201803590602001908080601f01602080910402602001604051908101604052809392919081815260200183838082843782019150505050505091905050620018e0565b604051808215151515815260200191505060405180910390f35b3415620005ec57600080fd5b620005f662001a90565b6040518080602001828103825283818151815260200191508051906020019080838360005b83811015620006385780820151818401526020810190506200061b565b50505050905090810190601f168015620006665780820380516001836020036101000a031916815260200191505b509250505060405180910390f35b34156200068057600080fd5b6200068a62001b32565b604051808273ffffffffffffffffffffffffffffffffffffffff1673ffffffffffffffffffffffffffffffffffffffff16815260200191505060405180910390f35b3415620006d857600080fd5b620006e262001be4565b604051808273ffffffffffffffffffffffffffffffffffffffff1673ffffffffffffffffffffffffffffffffffffffff16815260200191505060405180910390f35b34156200073057600080fd5b6200073a62001bec565b604051808273ffffffffffffffffffffffffffffffffffffffff1673ffffffffffffffffffffffffffffffffffffffff16815260200191505060405180910390f35b34156200078857600080fd5b6200079262001c9e565b604051808273ffffffffffffffffffffffffffffffffffffffff1673ffffffffffffffffffffffffffffffffffffffff16815260200191505060405180910390f35b3415620007e057600080fd5b620007ea62001cc7565b604051808273ffffffffffffffffffffffffffffffffffffffff1673ffffffffffffffffffffffffffffffffffffffff16815260200191505060405180910390f35b34156200083857600080fd5b6200084262001cf1565b604051808273ffffffffffffffffffffffffffffffffffffffff1673ffffffffffffffffffffffffffffffffffffffff16815260200191505060405180910390f35b34156200089057600080fd5b6200089a62001d1a565b604051808273ffffffffffffffffffffffffffffffffffffffff1673ffffffffffffffffffffffffffffffffffffffff16815260200191505060405180910390f35b3415620008e857600080fd5b620008f262001d40565b604051808273ffffffffffffffffffffffffffffffffffffffff1673ffffffffffffffffffffffffffffffffffffffff16815260200191505060405180910390f35b34156200094057600080fd5b6200094a62001d65565b6040518082600a8111156200095b57fe5b60ff16815260200191505060405180910390f35b34156200097b57600080fd5b620009a9600480803573ffffffffffffffffffffffffffffffffffffffff1690602001909190505062001d7b565b005b3415620009b757600080fd5b620009c162001e3f565b6040518082815260200191505060405180910390f35b3415620009e357600080fd5b620009ed62001e49565b604051808215151515815260200191505060405180910390f35b341562000a1357600080fd5b62000a1d62001ecc565b6040518080602001828103825283818151815260200191508051906020019080838360005b8381101562000a5f57808201518184015260208101905062000a42565b50505050905090810190601f16801562000a8d5780820380516001836020036101000a031916815260200191505b509250505060405180910390f35b341562000aa757600080fd5b62000ab162001eec565b005b341562000abf57600080fd5b62000ac962001fde565b604051808215151515815260200191505060405180910390f35b341562000aef57600080fd5b62000af96200201e565b6040518082815260200191505060405180910390f35b341562000b1b57600080fd5b62000b6d600480803590602001908201803590602001908080601f0160208091040260200160405190810160405280939291908181526020018383808284378201915050505050509190505062002028565b604051808215151515815260200191505060405180910390f35b341562000b9357600080fd5b62000bf1600480803590602001908201803590602001908080601f0160208091040260200160405190810160405280939291908181526020018383808284378201915050505050509190803560ff16906020019091905050620021d7565b604051808215151515815260200191505060405180910390f35b341562000c1757600080fd5b62000c2162002417565b604051808273ffffffffffffffffffffffffffffffffffffffff1673ffffffffffffffffffffffffffffffffffffffff16815260200191505060405180910390f35b600080600080600080600080600080600080600080600660009054906101000a900473ffffffffffffffffffffffffffffffffffffffff1673ffffffffffffffffffffffffffffffffffffffff16631c32e7af60006040516101c001526040518163ffffffff167c01000000000000000000000000000000000000000000000000000000000281526004016101c060405180830381600087803b151562000d0957600080fd5b6102c65a03f1151562000d1b57600080fd5b50505060405180519060200180519060200180519060200180519060200180519060200180519060200180519060200180519060200180519060200180519060200180519060200180519060200180519060200180519050909192939495969798999a9b9c50909192939495969798999a9b50909192939495969798999a5090919293949596979899509091929394959650909192939450909150905050809850819950829b50839d50849e50505050505062000dd762001c9e565b9c5062000de362001b32565b9a5062000def62001bec565b9b5062000dfb62001be4565b9d506004549750600060149054906101000a900460ff169250600554955060019150600660009054906101000a900473ffffffffffffffffffffffffffffffffffffffff169050909192939495969798999a9b9c9d565b60006006600a81111562000e6257fe5b600060149054906101000a900460ff16600a81111562000e7e57fe5b1415151562000e8c57600080fd5b6008600060146101000a81548160ff0219169083600a81111562000eac57fe5b02179055503373ffffffffffffffffffffffffffffffffffffffff1662000ed262001be4565b73ffffffffffffffffffffffffffffffffffffffff167feb463c1ffd4e2e84feaf7746bb60dd6b9471dbbf9edd2b020a53869f796cd78d600060149054906101000a900460ff1685426040518084600a81111562000f2c57fe5b60ff16815260200180602001838152602001828103825284818151815260200191508051906020019080838360005b8381101562000f7857808201518184015260208101905062000f5b565b50505050905090810190601f16801562000fa65780820380516001836020036101000a031916815260200191505b5094505050505060405180910390a360019050919050565b600080600160009054906101000a900473ffffffffffffffffffffffffffffffffffffffff1673ffffffffffffffffffffffffffffffffffffffff163373ffffffffffffffffffffffffffffffffffffffff161415156200101e57600080fd5b6006600a8111156200102c57fe5b6200103662001d65565b600a8111156200104257fe5b148015620010575750620010568362002441565b5b80156200109857506200106962002417565b73ffffffffffffffffffffffffffffffffffffffff163373ffffffffffffffffffffffffffffffffffffffff16145b1515620010a457600080fd5b620010ae62001be4565b620010b862002417565b84620010c362002461565b808473ffffffffffffffffffffffffffffffffffffffff1673ffffffffffffffffffffffffffffffffffffffff1681526020018373ffffffffffffffffffffffffffffffffffffffff1673ffffffffffffffffffffffffffffffffffffffff16815260200180602001828103825283818151815260200191508051906020019080838360005b838110156200116657808201518184015260208101905062001149565b50505050905090810190601f168015620011945780820380516001836020036101000a031916815260200191505b50945050505050604051809103906000f0801515620011b257600080fd5b90508073ffffffffffffffffffffffffffffffffffffffff16635d1ca6316000604051602001526040518163ffffffff167c0100000000000000000000000000000000000000000000000000000000028152600401602060405180830381600087803b15156200122157600080fd5b6102c65a03f115156200123357600080fd5b50505060405180519050600260006101000a81548173ffffffffffffffffffffffffffffffffffffffff021916908373ffffffffffffffffffffffffffffffffffffffff1602179055506200128762001fde565b15620013af578073ffffffffffffffffffffffffffffffffffffffff16635d1ca6316000604051602001526040518163ffffffff167c0100000000000000000000000000000000000000000000000000000000028152600401602060405180830381600087803b1515620012fa57600080fd5b6102c65a03f115156200130c57600080fd5b5050506040518051905073ffffffffffffffffffffffffffffffffffffffff166200133662001be4565b73ffffffffffffffffffffffffffffffffffffffff167f5cf2a7101a7acad9a26aabd8c2b95e616fa3c5c8e93e3f30419151a370f4ef34600060149054906101000a900460ff16426040518083600a8111156200138f57fe5b60ff1681526020018281526020019250505060405180910390a3620014cc565b8073ffffffffffffffffffffffffffffffffffffffff16635d1ca6316000604051602001526040518163ffffffff167c0100000000000000000000000000000000000000000000000000000000028152600401602060405180830381600087803b15156200141c57600080fd5b6102c65a03f115156200142e57600080fd5b5050506040518051905073ffffffffffffffffffffffffffffffffffffffff166200145862001be4565b73ffffffffffffffffffffffffffffffffffffffff167f9f3a4dc4a2920969299d37a1a55dc00ce978fe5e0ac8b2a4d87fbe66fd4d283b600060149054906101000a900460ff16426040518083600a811115620014b157fe5b60ff1681526020018281526020019250505060405180910390a35b600260009054906101000a900473ffffffffffffffffffffffffffffffffffffffff16915050919050565b6000600160009054906101000a900473ffffffffffffffffffffffffffffffffffffffff1673ffffffffffffffffffffffffffffffffffffffff163373ffffffffffffffffffffffffffffffffffffffff161415156200155657600080fd5b6001600a8111156200156457fe5b600060149054906101000a900460ff16600a8111156200158057fe5b1480620015b457506002600a8111156200159657fe5b600060149054906101000a900460ff16600a811115620015b257fe5b145b80156200160f5750600073ffffffffffffffffffffffffffffffffffffffff16600260009054906101000a900473ffffffffffffffffffffffffffffffffffffffff1673ffffffffffffffffffffffffffffffffffffffff16145b15156200161b57600080fd5b6006600060146101000a81548160ff0219169083600a8111156200163b57fe5b02179055503373ffffffffffffffffffffffffffffffffffffffff166200166162001be4565b73ffffffffffffffffffffffffffffffffffffffff167f89e5f8cd748cff430d9087f4e0e0ef20acd32d0e6686df96c89d726e35e68ab5600060149054906101000a900460ff16426040518083600a811115620016ba57fe5b60ff1681526020018281526020019250505060405180910390a36001905090565b6007600060146101000a81548160ff0219169083600a811115620016fb57fe5b0217905550600260009054906101000a900473ffffffffffffffffffffffffffffffffffffffff1673ffffffffffffffffffffffffffffffffffffffff166200174362001be4565b73ffffffffffffffffffffffffffffffffffffffff167fb42cc91db936a84b66eef34e5d2852b519032c7921629568c4589c97396a5ad28484600060149054906101000a900460ff16426040518085815260200184815260200183600a811115620017aa57fe5b60ff16815260200182815260200194505050505060405180910390a35050565b600042620017d762001e3f565b10905090565b6000600260009054906101000a900473ffffffffffffffffffffffffffffffffffffffff16905090565b6000809054906101000a900473ffffffffffffffffffffffffffffffffffffffff1673ffffffffffffffffffffffffffffffffffffffff163373ffffffffffffffffffffffffffffffffffffffff161415156200186357600080fd5b6000809054906101000a900473ffffffffffffffffffffffffffffffffffffffff1673ffffffffffffffffffffffffffffffffffffffff16ff5b33600160006101000a81548173ffffffffffffffffffffffffffffffffffffffff021916908373ffffffffffffffffffffffffffffffffffffffff160217905550565b6000620018ec62001c9e565b73ffffffffffffffffffffffffffffffffffffffff163373ffffffffffffffffffffffffffffffffffffffff161415156200192657600080fd5b6006600a8111156200193457fe5b600060149054906101000a900460ff16600a8111156200195057fe5b141515156200195e57600080fd5b6005600060146101000a81548160ff0219169083600a8111156200197e57fe5b02179055503373ffffffffffffffffffffffffffffffffffffffff16620019a462001be4565b73ffffffffffffffffffffffffffffffffffffffff167fdc36f94f1c16d61fe684e365e0c2a72b23aebb7adedf5aaa22fab76156a7efe7600060149054906101000a900460ff1685426040518084600a811115620019fe57fe5b60ff16815260200180602001838152602001828103825284818151815260200191508051906020019080838360005b8381101562001a4a57808201518184015260208101905062001a2d565b50505050905090810190601f16801562001a785780820380516001836020036101000a031916815260200191505b5094505050505060405180910390a360019050919050565b60038054600181600116156101000203166002900480601f01602080910402602001604051908101604052809291908181526020018280546001816001161561010002031660029004801562001b2a5780601f1062001afe5761010080835404028352916020019162001b2a565b820191906000526020600020905b81548152906001019060200180831162001b0c57829003601f168201915b505050505081565b6000600660009054906101000a900473ffffffffffffffffffffffffffffffffffffffff1673ffffffffffffffffffffffffffffffffffffffff1663565a2e2c6000604051602001526040518163ffffffff167c0100000000000000000000000000000000000000000000000000000000028152600401602060405180830381600087803b151562001bc357600080fd5b6102c65a03f1151562001bd557600080fd5b50505060405180519050905090565b600030905090565b6000600660009054906101000a900473ffffffffffffffffffffffffffffffffffffffff1673ffffffffffffffffffffffffffffffffffffffff166360d704db6000604051602001526040518163ffffffff167c0100000000000000000000000000000000000000000000000000000000028152600401602060405180830381600087803b151562001c7d57600080fd5b6102c65a03f1151562001c8f57600080fd5b50505060405180519050905090565b60008060009054906101000a900473ffffffffffffffffffffffffffffffffffffffff16905090565b6000600660009054906101000a900473ffffffffffffffffffffffffffffffffffffffff16905090565b60008060009054906101000a900473ffffffffffffffffffffffffffffffffffffffff16905090565b600660009054906101000a900473ffffffffffffffffffffffffffffffffffffffff1681565b6000809054906101000a900473ffffffffffffffffffffffffffffffffffffffff1681565b60008060149054906101000a900460ff16905090565b6000809054906101000a900473ffffffffffffffffffffffffffffffffffffffff1673ffffffffffffffffffffffffffffffffffffffff163373ffffffffffffffffffffffffffffffffffffffff1614151562001dd757600080fd5b60008173ffffffffffffffffffffffffffffffffffffffff16141562001dfc57600080fd5b806000806101000a81548173ffffffffffffffffffffffffffffffffffffffff021916908373ffffffffffffffffffffffffffffffffffffffff16021790555050565b6000600554905090565b60008073ffffffffffffffffffffffffffffffffffffffff1662001e6c62001bec565b73ffffffffffffffffffffffffffffffffffffffff161415801562001ec75750600073ffffffffffffffffffffffffffffffffffffffff1662001eae62001b32565b73ffffffffffffffffffffffffffffffffffffffff1614155b905090565b62001ed662002472565b6020604051908101604052806000815250905090565b6006600a81111562001efa57fe5b600060149054906101000a900460ff16600a81111562001f1657fe5b14151562001f2357600080fd5b6009600060146101000a81548160ff0219169083600a81111562001f4357fe5b02179055503373ffffffffffffffffffffffffffffffffffffffff1662001f6962001be4565b73ffffffffffffffffffffffffffffffffffffffff167fb045224df2b3987361a530219dd4444888d47a8e07af71c364c99fe7468f176f600060149054906101000a900460ff16426040518083600a81111562001fc257fe5b60ff1681526020018281526020019250505060405180910390a3565b60008073ffffffffffffffffffffffffffffffffffffffff166200200162001cc7565b73ffffffffffffffffffffffffffffffffffffffff161415905090565b6000600454905090565b60006200203462001c9e565b73ffffffffffffffffffffffffffffffffffffffff163373ffffffffffffffffffffffffffffffffffffffff161415156200206e57600080fd5b6000600a8111156200207c57fe5b600060149054906101000a900460ff16600a8111156200209857fe5b141515620020a557600080fd5b6001600060146101000a81548160ff0219169083600a811115620020c557fe5b02179055503373ffffffffffffffffffffffffffffffffffffffff16620020eb62001be4565b73ffffffffffffffffffffffffffffffffffffffff167fe10024035668761375cfcfe9cbd74261a7c93ffafc8059f85ba7477baf874921600060149054906101000a900460ff1685426040518084600a8111156200214557fe5b60ff16815260200180602001838152602001828103825284818151815260200191508051906020019080838360005b838110156200219157808201518184015260208101905062002174565b50505050905090810190601f168015620021bf5780820380516001836020036101000a031916815260200191505b5094505050505060405180910390a360019050919050565b6000620021e362001bec565b73ffffffffffffffffffffffffffffffffffffffff163373ffffffffffffffffffffffffffffffffffffffff161415156200221d57600080fd5b6001600a8111156200222b57fe5b600060149054906101000a900460ff16600a8111156200224757fe5b14806200227b57506002600a8111156200225d57fe5b600060149054906101000a900460ff16600a8111156200227957fe5b145b8015620022e857506002600a8111156200229157fe5b82600a8111156200229e57fe5b1480620022c357506003600a811115620022b457fe5b82600a811115620022c157fe5b145b80620022e757506004600a811115620022d857fe5b82600a811115620022e557fe5b145b5b1515620022f457600080fd5b81600060146101000a81548160ff0219169083600a8111156200231357fe5b02179055503373ffffffffffffffffffffffffffffffffffffffff166200233962001be4565b73ffffffffffffffffffffffffffffffffffffffff167f508c5c654e715d2dda84dde20b40b29a2b462944231ab692f10b091a38541a8d8486426040518084600a8111156200238457fe5b60ff16815260200180602001838152602001828103825284818151815260200191508051906020019080838360005b83811015620023d0578082015181840152602081019050620023b3565b50505050905090810190601f168015620023fe5780820380516001836020036101000a031916815260200191505b5094505050505060405180910390a36001905092915050565b6000600160009054906101000a900473ffffffffffffffffffffffffffffffffffffffff16905090565b600080825111156200245757600190506200245c565b600090505b919050565b604051611364806200248783390190565b60206040519081016040528060008152509056006060604052336000806101000a81548173ffffffffffffffffffffffffffffffffffffffff021916908373ffffffffffffffffffffffffffffffffffffffff16021790555034156200005057600080fd5b60405162001364380380620013648339810160405280805190602001909190805190602001909190805182019190505082600160006101000a81548173ffffffffffffffffffffffffffffffffffffffff021916908373ffffffffffffffffffffffffffffffffffffffff16021790555081600260006101000a81548173ffffffffffffffffffffffffffffffffffffffff021916908373ffffffffffffffffffffffffffffffffffffffff16021790555080600390805190602001906200011a929190620002b2565b506001600260146101000a81548160ff021916908360048111156200013b57fe5b02179055507feeb6ffd7090cc72ad3fc8b9c2879f7b97d4f9eb9b2943c50a4cbab3931db090983303384600260149054906101000a900460ff1642604051808773ffffffffffffffffffffffffffffffffffffffff1673ffffffffffffffffffffffffffffffffffffffff1681526020018673ffffffffffffffffffffffffffffffffffffffff1673ffffffffffffffffffffffffffffffffffffffff1681526020018573ffffffffffffffffffffffffffffffffffffffff1673ffffffffffffffffffffffffffffffffffffffff168152602001806020018460048111156200022157fe5b60ff168152602001838152602001828103825285818151815260200191508051906020019080838360005b83811015620002695780820151818401526020810190506200024c565b50505050905090810190601f168015620002975780820380516001836020036101000a031916815260200191505b5097505050505050505060405180910390a150505062000361565b828054600181600116156101000203166002900490600052602060002090601f016020900481019282601f10620002f557805160ff191683800117855562000326565b8280016001018555821562000326579182015b828111156200032557825182559160200191906001019062000308565b5b50905062000335919062000339565b5090565b6200035e91905b808211156200035a57600081600090555060010162000340565b5090565b90565b610ff380620003716000396000f3006060604052600436106100d0576000357c0100000000000000000000000000000000000000000000000000000000900463ffffffff1680631865c57d146100d55780632f13b60c1461010c57806338e537b31461013957806343d726d6146102be578063488523bc146102d3578063565a2e2c146103615780635d1ca631146103b657806388a22f7a1461040b578063893d20e8146104605780638da5cb5b146104b5578063a6f9dae11461050a578063b135648814610543578063bea14fc11461056c578063c700c70d14610598575b600080fd5b34156100e057600080fd5b6100e86105ad565b604051808260048111156100f857fe5b60ff16815260200191505060405180910390f35b341561011757600080fd5b61011f61060a565b604051808215151515815260200191505060405180910390f35b341561014457600080fd5b61014c61061b565b604051808e73ffffffffffffffffffffffffffffffffffffffff1673ffffffffffffffffffffffffffffffffffffffff1681526020018d73ffffffffffffffffffffffffffffffffffffffff1673ffffffffffffffffffffffffffffffffffffffff1681526020018c73ffffffffffffffffffffffffffffffffffffffff1673ffffffffffffffffffffffffffffffffffffffff1681526020018b73ffffffffffffffffffffffffffffffffffffffff1673ffffffffffffffffffffffffffffffffffffffff1681526020018a73ffffffffffffffffffffffffffffffffffffffff1673ffffffffffffffffffffffffffffffffffffffff1681526020018960001916600019168152602001886000191660001916815260200187815260200186815260200185815260200184600281111561028457fe5b60ff16815260200183815260200182600481111561029e57fe5b60ff1681526020019d505050505050505050505050505060405180910390f35b34156102c957600080fd5b6102d1610964565b005b34156102de57600080fd5b6102e66109f9565b6040518080602001828103825283818151815260200191508051906020019080838360005b8381101561032657808201518184015260208101905061030b565b50505050905090810190601f1680156103535780820380516001836020036101000a031916815260200191505b509250505060405180910390f35b341561036c57600080fd5b610374610aa1565b604051808273ffffffffffffffffffffffffffffffffffffffff1673ffffffffffffffffffffffffffffffffffffffff16815260200191505060405180910390f35b34156103c157600080fd5b6103c9610b56565b604051808273ffffffffffffffffffffffffffffffffffffffff1673ffffffffffffffffffffffffffffffffffffffff16815260200191505060405180910390f35b341561041657600080fd5b61041e610b5e565b604051808273ffffffffffffffffffffffffffffffffffffffff1673ffffffffffffffffffffffffffffffffffffffff16815260200191505060405180910390f35b341561046b57600080fd5b610473610b88565b604051808273ffffffffffffffffffffffffffffffffffffffff1673ffffffffffffffffffffffffffffffffffffffff16815260200191505060405180910390f35b34156104c057600080fd5b6104c8610bb1565b604051808273ffffffffffffffffffffffffffffffffffffffff1673ffffffffffffffffffffffffffffffffffffffff16815260200191505060405180910390f35b341561051557600080fd5b610541600480803573ffffffffffffffffffffffffffffffffffffffff16906020019091905050610bd6565b005b341561054e57600080fd5b610556610c98565b6040518082815260200191505060405180910390f35b341561057757600080fd5b6105966004808035906020019091908035906020019091905050610d4d565b005b34156105a357600080fd5b6105ab610e6c565b005b6000600160048111156105bc57fe5b600260149054906101000a900460ff1660048111156105d757fe5b14156105f4576105e561060a565b156105f35760029050610607565b5b600260149054906101000a900460ff1690505b90565b600042610615610c98565b10905090565b600080600080600080600080600080600080600080600160009054906101000a900473ffffffffffffffffffffffffffffffffffffffff1690508073ffffffffffffffffffffffffffffffffffffffff16631c32e7af60006040516101c001526040518163ffffffff167c01000000000000000000000000000000000000000000000000000000000281526004016101c060405180830381600087803b15156106c357600080fd5b6102c65a03f115156106d457600080fd5b50505060405180519060200180519060200180519060200180519060200180519060200180519060200180519060200180519060200180519060200180519060200180519060200180519060200180519060200180519050909192939495969798999a9b9c50909192939495969798999a9b50909192939495969798999a509091929394959697989950909150905050809950819a50829b50839c50849d50859e50869f5050505050505050600160009054906101000a900473ffffffffffffffffffffffffffffffffffffffff169c506107ad610b56565b9d508073ffffffffffffffffffffffffffffffffffffffff1663650d993b6000604051602001526040518163ffffffff167c0100000000000000000000000000000000000000000000000000000000028152600401602060405180830381600087803b151561081b57600080fd5b6102c65a03f1151561082c57600080fd5b505050604051805190509b508073ffffffffffffffffffffffffffffffffffffffff166360d704db6000604051602001526040518163ffffffff167c0100000000000000000000000000000000000000000000000000000000028152600401602060405180830381600087803b15156108a457600080fd5b6102c65a03f115156108b557600080fd5b505050604051805190509a508073ffffffffffffffffffffffffffffffffffffffff1663565a2e2c6000604051602001526040518163ffffffff167c0100000000000000000000000000000000000000000000000000000000028152600401602060405180830381600087803b151561092d57600080fd5b6102c65a03f1151561093e57600080fd5b5050506040518051905099506109526105ad565b915050909192939495969798999a9b9c565b6000809054906101000a900473ffffffffffffffffffffffffffffffffffffffff1673ffffffffffffffffffffffffffffffffffffffff163373ffffffffffffffffffffffffffffffffffffffff161415156109bf57600080fd5b6000809054906101000a900473ffffffffffffffffffffffffffffffffffffffff1673ffffffffffffffffffffffffffffffffffffffff16ff5b610a01610fb3565b60038054600181600116156101000203166002900480601f016020809104026020016040519081016040528092919081815260200182805460018160011615610100020316600290048015610a975780601f10610a6c57610100808354040283529160200191610a97565b820191906000526020600020905b815481529060010190602001808311610a7a57829003601f168201915b5050505050905090565b600080600160009054906101000a900473ffffffffffffffffffffffffffffffffffffffff1690508073ffffffffffffffffffffffffffffffffffffffff1663565a2e2c6000604051602001526040518163ffffffff167c0100000000000000000000000000000000000000000000000000000000028152600401602060405180830381600087803b1515610b3557600080fd5b6102c65a03f11515610b4657600080fd5b5050506040518051905091505090565b600030905090565b6000600160009054906101000a900473ffffffffffffffffffffffffffffffffffffffff16905090565b60008060009054906101000a900473ffffffffffffffffffffffffffffffffffffffff16905090565b6000809054906101000a900473ffffffffffffffffffffffffffffffffffffffff1681565b6000809054906101000a900473ffffffffffffffffffffffffffffffffffffffff1673ffffffffffffffffffffffffffffffffffffffff163373ffffffffffffffffffffffffffffffffffffffff16141515610c3157600080fd5b60008173ffffffffffffffffffffffffffffffffffffffff161415610c5557600080fd5b806000806101000a81548173ffffffffffffffffffffffffffffffffffffffff021916908373ffffffffffffffffffffffffffffffffffffffff16021790555050565b600080600160009054906101000a900473ffffffffffffffffffffffffffffffffffffffff1690508073ffffffffffffffffffffffffffffffffffffffff1663b13564886000604051602001526040518163ffffffff167c0100000000000000000000000000000000000000000000000000000000028152600401602060405180830381600087803b1515610d2c57600080fd5b6102c65a03f11515610d3d57600080fd5b5050506040518051905091505090565b7f4d3c9d0e5ee7cb52dbdaaf1fe7b04b94f5d6406283723738ce2a85d0d536998a610d76610b56565b30338585610d826105ad565b42604051808873ffffffffffffffffffffffffffffffffffffffff1673ffffffffffffffffffffffffffffffffffffffff1681526020018773ffffffffffffffffffffffffffffffffffffffff1673ffffffffffffffffffffffffffffffffffffffff1681526020018673ffffffffffffffffffffffffffffffffffffffff1673ffffffffffffffffffffffffffffffffffffffff16815260200185815260200184815260200180602001846004811115610e3957fe5b60ff1681526020018381526020018281038252600081526020016020019850505050505050505060405180910390a15050565b6003600260146101000a81548160ff02191690836004811115610e8b57fe5b02179055507f6518c1da158fee6a2676b0f54a238f60b8607b47ed05a8ac7108a7a866c25fdd600160009054906101000a900473ffffffffffffffffffffffffffffffffffffffff16610edc610b56565b33600260149054906101000a900460ff1642604051808673ffffffffffffffffffffffffffffffffffffffff1673ffffffffffffffffffffffffffffffffffffffff1681526020018573ffffffffffffffffffffffffffffffffffffffff1673ffffffffffffffffffffffffffffffffffffffff1681526020018473ffffffffffffffffffffffffffffffffffffffff1673ffffffffffffffffffffffffffffffffffffffff168152602001836004811115610f9457fe5b60ff1681526020018281526020019550505050505060405180910390a1565b6020604051908101604052806000815250905600a165627a7a72305820e8d3b314b51cdff55f874dfc144887b9c5db9ecdd4c64eda126e0b65fda4731c0029a165627a7a723058209358d6fefb80529474b0a3e82024a69e581c306edb7947b38692705c07fa4c940029",
  "source": "pragma solidity ^0.4.0;\n\n\nimport \"./GuaranteeRequestExtender.sol\";\n\ncontract ChangeGuaranteeRequest is GuaranteeRequestExtender\n{\n    string public version = \"1.00\";\n\n    uint  amount;\n    uint  endDate;\n\n//    bytes  theproposalIPFSHash;\n\n    address public  changeRequestGuaranteeAdr;\n\n    event ChangeGuaranteeRequestCreated (address guaranteeExtender,uint requestAmount, uint requestEndDate,RequestState   curentstatus,uint timestamp);\n\n    function ChangeGuaranteeRequest(address guaranteeExtender,uint requestAmount, uint requestEndDate){\n        DigitalGuaranteeBNHP ge=DigitalGuaranteeBNHP(guaranteeExtender);\n\n        changeRequestGuaranteeAdr=ge.getGuaranteeRequest();\n        amount=requestAmount;\n        endDate=requestEndDate;\n        status=RequestState.waitingtobank;\n\n\n        changeOwner(GuaranteeRequestExtender(changeRequestGuaranteeAdr).getCustomer());\n        ChangeGuaranteeRequestCreated(guaranteeExtender, requestAmount,  requestEndDate,status,now);\n    }\n\n    function getId() constant public returns (address _contract_id)\n    {\n        return this;\n    }\n\n    function getAmount() constant public returns (uint )\n    {\n        return amount;\n    }\n\n\n    function getBank() constant public returns (address)\n    {\n        return GuaranteeRequestExtender(changeRequestGuaranteeAdr).getBank();\n    }\n    function getBeneficiary() constant public returns (address)\n    {\n        return GuaranteeRequestExtender(changeRequestGuaranteeAdr).getBeneficiary();\n\n    }\n\n    function getEndDate() constant public returns (uint)\n    {\n        return endDate;\n    }\n\n\n    function getGuaranteeRequestData() constant public returns (address _contract_id,address _customer,address _bank, address _beneficiary,\n    bytes32 _full_name ,bytes32 _purpose,uint _amount,uint _startDate,uint _endDate,IndexType _indexType,uint _indexDate,RequestState _status ,bool _isChangeGuarantee,address _changedGuarantee)\n    {\n\n        ( , , ,  , _full_name, _purpose , , _startDate, , _indexType, _indexDate, , , ) =GuaranteeRequestExtender(changeRequestGuaranteeAdr).getGuaranteeRequestData();\n\n        _customer=getCustomer();\n        _beneficiary=getBeneficiary();\n        _bank=getBank();\n        _contract_id=getId();\n        _amount=amount;\n        _status=status;\n        _endDate=endDate;\n        _isChangeGuarantee=true;\n        _changedGuarantee=changeRequestGuaranteeAdr;\n\n    }\n\n\n\n    function getProposalIPFSHash() constant public returns (bytes _roposalIPFSHash)\n    {\n//            _roposalIPFSHash=GuaranteeRequestExtender(getChangeRequestGuarantee()).getProposalIPFSHash();\n        return \"\";\n\n    }\n\n\n\n    function getChangeRequestGuarantee() constant public returns (address )\n    {\n        return changeRequestGuaranteeAdr;\n    }\n\n    function isValid() constant public returns (bool) {\n\n        return ( getBank()!= address(0) && getBeneficiary()!= address(0));\n    }\n\n}\n",
  "sourcePath": "/Users/dmitryshlymovich/workspace/ethereum-garanties/truffle_eth_bnhp/contracts/ChangeGuaranteeRequest.sol",
  "compiler": {
    "name": "solc",
    "version": "0.4.18+commit.9cf6e910.Emscripten.clang"
  },
  "schemaVersion": "1.0.1",
  "updatedAt": "2018-01-23T13:44:40.059Z"
}