{
  "contractName": "IssuerManager",
  "abi": [
    {
      "constant": true,
      "inputs": [],
      "name": "getIssuerAddressesList",
      "outputs": [
        {
          "name": "",
          "type": "address[]"
        }
      ],
      "payable": false,
      "stateMutability": "view",
      "type": "function"
    },
    {
      "constant": true,
      "inputs": [
        {
          "name": "",
          "type": "address"
        }
      ],
      "name": "issuers",
      "outputs": [
        {
          "name": "name",
          "type": "string"
        },
        {
          "name": "localAddress",
          "type": "string"
        },
        {
          "name": "addr",
          "type": "address"
        }
      ],
      "payable": false,
      "stateMutability": "view",
      "type": "function"
    },
    {
      "constant": false,
      "inputs": [],
      "name": "close",
      "outputs": [],
      "payable": false,
      "stateMutability": "nonpayable",
      "type": "function"
    },
    {
      "constant": true,
      "inputs": [],
      "name": "getIssuerCounter",
      "outputs": [
        {
          "name": "",
          "type": "uint256"
        }
      ],
      "payable": false,
      "stateMutability": "view",
      "type": "function"
    },
    {
      "constant": true,
      "inputs": [],
      "name": "getOwner",
      "outputs": [
        {
          "name": "",
          "type": "address"
        }
      ],
      "payable": false,
      "stateMutability": "view",
      "type": "function"
    },
    {
      "constant": true,
      "inputs": [],
      "name": "owner",
      "outputs": [
        {
          "name": "",
          "type": "address"
        }
      ],
      "payable": false,
      "stateMutability": "view",
      "type": "function"
    },
    {
      "constant": false,
      "inputs": [
        {
          "name": "_newOwner",
          "type": "address"
        }
      ],
      "name": "changeOwner",
      "outputs": [],
      "payable": false,
      "stateMutability": "nonpayable",
      "type": "function"
    },
    {
      "constant": true,
      "inputs": [
        {
          "name": "_id",
          "type": "uint256"
        }
      ],
      "name": "getIssuerById",
      "outputs": [
        {
          "name": "",
          "type": "string"
        },
        {
          "name": "",
          "type": "string"
        },
        {
          "name": "",
          "type": "address"
        }
      ],
      "payable": false,
      "stateMutability": "view",
      "type": "function"
    },
    {
      "constant": false,
      "inputs": [
        {
          "name": "_addr",
          "type": "address"
        },
        {
          "name": "_name",
          "type": "string"
        },
        {
          "name": "_localAddres",
          "type": "string"
        }
      ],
      "name": "submitIssuer",
      "outputs": [],
      "payable": false,
      "stateMutability": "nonpayable",
      "type": "function"
    },
    {
      "constant": true,
      "inputs": [
        {
          "name": "_addr",
          "type": "address"
        }
      ],
      "name": "getIssuer",
      "outputs": [
        {
          "name": "",
          "type": "string"
        },
        {
          "name": "",
          "type": "string"
        }
      ],
      "payable": false,
      "stateMutability": "view",
      "type": "function"
    },
    {
      "anonymous": false,
      "inputs": [
        {
          "indexed": false,
          "name": "msgSender",
          "type": "address"
        },
        {
          "indexed": false,
          "name": "issuerAdr",
          "type": "address"
        },
        {
          "indexed": false,
          "name": "msgstr",
          "type": "string"
        },
        {
          "indexed": false,
          "name": "timestamp",
          "type": "uint256"
        }
      ],
      "name": "AddIssuer",
      "type": "event"
    }
  ],
  "bytecode": "0x6060604052336000806101000a81548173ffffffffffffffffffffffffffffffffffffffff021916908373ffffffffffffffffffffffffffffffffffffffff160217905550341561004f57600080fd5b6111f48061005e6000396000f3006060604052600436106100a4576000357c0100000000000000000000000000000000000000000000000000000000900463ffffffff168063379f4484146100a957806338a7543e1461011357806343d726d61461029e57806356d58ef5146102b3578063893d20e8146102dc5780638da5cb5b14610331578063a6f9dae114610386578063b643e587146103bf578063dc198587146104fa578063fef03da3146105b9575b600080fd5b34156100b457600080fd5b6100bc6106d7565b6040518080602001828103825283818151815260200191508051906020019060200280838360005b838110156100ff5780820151818401526020810190506100e4565b505050509050019250505060405180910390f35b341561011e57600080fd5b61014a600480803573ffffffffffffffffffffffffffffffffffffffff1690602001909190505061076b565b6040518080602001806020018473ffffffffffffffffffffffffffffffffffffffff1673ffffffffffffffffffffffffffffffffffffffff1681526020018381038352868181546001816001161561010002031660029004815260200191508054600181600116156101000203166002900480156102095780601f106101de57610100808354040283529160200191610209565b820191906000526020600020905b8154815290600101906020018083116101ec57829003601f168201915b505083810382528581815460018160011615610100020316600290048152602001915080546001816001161561010002031660029004801561028c5780601f106102615761010080835404028352916020019161028c565b820191906000526020600020905b81548152906001019060200180831161026f57829003601f168201915b50509550505050505060405180910390f35b34156102a957600080fd5b6102b16107b3565b005b34156102be57600080fd5b6102c6610848565b6040518082815260200191505060405180910390f35b34156102e757600080fd5b6102ef610855565b604051808273ffffffffffffffffffffffffffffffffffffffff1673ffffffffffffffffffffffffffffffffffffffff16815260200191505060405180910390f35b341561033c57600080fd5b61034461087e565b604051808273ffffffffffffffffffffffffffffffffffffffff1673ffffffffffffffffffffffffffffffffffffffff16815260200191505060405180910390f35b341561039157600080fd5b6103bd600480803573ffffffffffffffffffffffffffffffffffffffff169060200190919050506108a3565b005b34156103ca57600080fd5b6103e06004808035906020019091905050610965565b6040518080602001806020018473ffffffffffffffffffffffffffffffffffffffff1673ffffffffffffffffffffffffffffffffffffffff168152602001838103835286818151815260200191508051906020019080838360005b8381101561045657808201518184015260208101905061043b565b50505050905090810190601f1680156104835780820380516001836020036101000a031916815260200191505b50838103825285818151815260200191508051906020019080838360005b838110156104bc5780820151818401526020810190506104a1565b50505050905090810190601f1680156104e95780820380516001836020036101000a031916815260200191505b509550505050505060405180910390f35b341561050557600080fd5b6105b7600480803573ffffffffffffffffffffffffffffffffffffffff1690602001909190803590602001908201803590602001908080601f0160208091040260200160405190810160405280939291908181526020018383808284378201915050505050509190803590602001908201803590602001908080601f01602080910402602001604051908101604052809392919081815260200183838082843782019150505050505091905050610bd6565b005b34156105c457600080fd5b6105f0600480803573ffffffffffffffffffffffffffffffffffffffff16906020019091905050610e5e565b604051808060200180602001838103835285818151815260200191508051906020019080838360005b83811015610634578082015181840152602081019050610619565b50505050905090810190601f1680156106615780820380516001836020036101000a031916815260200191505b50838103825284818151815260200191508051906020019080838360005b8381101561069a57808201518184015260208101905061067f565b50505050905090810190601f1680156106c75780820380516001836020036101000a031916815260200191505b5094505050505060405180910390f35b6106df611077565b600280548060200260200160405190810160405280929190818152602001828054801561076157602002820191906000526020600020905b8160009054906101000a900473ffffffffffffffffffffffffffffffffffffffff1673ffffffffffffffffffffffffffffffffffffffff1681526020019060010190808311610717575b5050505050905090565b6001602052806000526040600020600091509050806000019080600101908060020160009054906101000a900473ffffffffffffffffffffffffffffffffffffffff16905083565b6000809054906101000a900473ffffffffffffffffffffffffffffffffffffffff1673ffffffffffffffffffffffffffffffffffffffff163373ffffffffffffffffffffffffffffffffffffffff1614151561080e57600080fd5b6000809054906101000a900473ffffffffffffffffffffffffffffffffffffffff1673ffffffffffffffffffffffffffffffffffffffff16ff5b6000600280549050905090565b60008060009054906101000a900473ffffffffffffffffffffffffffffffffffffffff16905090565b6000809054906101000a900473ffffffffffffffffffffffffffffffffffffffff1681565b6000809054906101000a900473ffffffffffffffffffffffffffffffffffffffff1673ffffffffffffffffffffffffffffffffffffffff163373ffffffffffffffffffffffffffffffffffffffff161415156108fe57600080fd5b60008173ffffffffffffffffffffffffffffffffffffffff16141561092257600080fd5b806000806101000a81548173ffffffffffffffffffffffffffffffffffffffff021916908373ffffffffffffffffffffffffffffffffffffffff16021790555050565b61096d61108b565b61097561108b565b600061097f61109f565b6002805490508510151561099257600080fd5b600160006002878154811015156109a557fe5b906000526020600020900160009054906101000a900473ffffffffffffffffffffffffffffffffffffffff1673ffffffffffffffffffffffffffffffffffffffff1673ffffffffffffffffffffffffffffffffffffffff16815260200190815260200160002060606040519081016040529081600082018054600181600116156101000203166002900480601f016020809104026020016040519081016040528092919081815260200182805460018160011615610100020316600290048015610ab05780601f10610a8557610100808354040283529160200191610ab0565b820191906000526020600020905b815481529060010190602001808311610a9357829003601f168201915b50505050508152602001600182018054600181600116156101000203166002900480601f016020809104026020016040519081016040528092919081815260200182805460018160011615610100020316600290048015610b525780601f10610b2757610100808354040283529160200191610b52565b820191906000526020600020905b815481529060010190602001808311610b3557829003601f168201915b505050505081526020016002820160009054906101000a900473ffffffffffffffffffffffffffffffffffffffff1673ffffffffffffffffffffffffffffffffffffffff1673ffffffffffffffffffffffffffffffffffffffff16815250509050806000015181602001518260400151829250819150935093509350509193909250565b60008060009054906101000a900473ffffffffffffffffffffffffffffffffffffffff1673ffffffffffffffffffffffffffffffffffffffff163373ffffffffffffffffffffffffffffffffffffffff16141515610c3357600080fd5b600160008573ffffffffffffffffffffffffffffffffffffffff1673ffffffffffffffffffffffffffffffffffffffff168152602001908152602001600020905082816000019080519060200190610c8c9291906110e3565b5081816001019080519060200190610ca59291906110e3565b50838160020160006101000a81548173ffffffffffffffffffffffffffffffffffffffff021916908373ffffffffffffffffffffffffffffffffffffffff16021790555060028054806001018281610cfd9190611163565b9160005260206000209001600086909190916101000a81548173ffffffffffffffffffffffffffffffffffffffff021916908373ffffffffffffffffffffffffffffffffffffffff160217905550507fb3bb6454838f769878c9da3dacefc82660ff82c898c373385ad5e32c9aa4767433858542604051808573ffffffffffffffffffffffffffffffffffffffff1673ffffffffffffffffffffffffffffffffffffffff1681526020018473ffffffffffffffffffffffffffffffffffffffff1673ffffffffffffffffffffffffffffffffffffffff16815260200180602001838152602001828103825284818151815260200191508051906020019080838360005b83811015610e1b578082015181840152602081019050610e00565b50505050905090810190601f168015610e485780820380516001836020036101000a031916815260200191505b509550505050505060405180910390a150505050565b610e6661108b565b610e6e61108b565b610e7661109f565b600160008573ffffffffffffffffffffffffffffffffffffffff1673ffffffffffffffffffffffffffffffffffffffff16815260200190815260200160002060606040519081016040529081600082018054600181600116156101000203166002900480601f016020809104026020016040519081016040528092919081815260200182805460018160011615610100020316600290048015610f5a5780601f10610f2f57610100808354040283529160200191610f5a565b820191906000526020600020905b815481529060010190602001808311610f3d57829003601f168201915b50505050508152602001600182018054600181600116156101000203166002900480601f016020809104026020016040519081016040528092919081815260200182805460018160011615610100020316600290048015610ffc5780601f10610fd157610100808354040283529160200191610ffc565b820191906000526020600020905b815481529060010190602001808311610fdf57829003601f168201915b505050505081526020016002820160009054906101000a900473ffffffffffffffffffffffffffffffffffffffff1673ffffffffffffffffffffffffffffffffffffffff1673ffffffffffffffffffffffffffffffffffffffff16815250509050806000015181602001518191508090509250925050915091565b602060405190810160405280600081525090565b602060405190810160405280600081525090565b6060604051908101604052806110b361118f565b81526020016110c061118f565b8152602001600073ffffffffffffffffffffffffffffffffffffffff1681525090565b828054600181600116156101000203166002900490600052602060002090601f016020900481019282601f1061112457805160ff1916838001178555611152565b82800160010185558215611152579182015b82811115611151578251825591602001919060010190611136565b5b50905061115f91906111a3565b5090565b81548183558181151161118a5781836000526020600020918201910161118991906111a3565b5b505050565b602060405190810160405280600081525090565b6111c591905b808211156111c15760008160009055506001016111a9565b5090565b905600a165627a7a72305820b6f861007321e9556613a3e2f082e1aa6c656b89e61f1881f8da70aba0d1b5420029",
  "source": "pragma solidity ^0.4.0;\n\nimport \"./Ownable.sol\";\n\ncontract IssuerManager  is Ownable {\n    enum issuerStatus { submited,  accepted, rejected }\n\n    //describes the customer object\n    struct Issuer {\n    string name;\n    string localAddress;\n    address addr;\n//    issuerStatus status;\n//    address []   guaranteeRequests;\n    }\n    //holds all customers by their address\n    mapping (address=>Issuer) public issuers;\n    address   [] issuerList;\n\n\n    event AddIssuer (address msgSender,address issuerAdr,string msgstr,uint timestamp);\n\n    function submitIssuer(address _addr , string _name, string _localAddres) onlyOwner public {\n\n        Issuer  issuer = issuers[_addr];\n        issuer.name   = _name;\n        issuer.localAddress    = _localAddres;\n        issuer.addr = _addr;\n//        issuer.status = issuerStatus.accepted;\n        issuerList.push(_addr);\n\n        AddIssuer(msg.sender, _addr ,_name,block.timestamp);\n    }\n\n//    event UpdateIssuersStatus(address msgSender,string msgstr,uint timestamp);\n//\n//    function changeIssuerStatus(address _addr, issuerStatus _status) onlyOwner public{\n//        for(uint32 i=0; i<issuerList.length; i++) {\n//            if(issuers[i].addr == _addr) {\n//                issuers[i].status = _status;\n//                // if(issuers[i].status == issuerStatus)\n//                // {\n//                //     UpdateIssuersStatus(msg.sender,\"Approved\",block.timestamp);\n//                // }\n//                // else\n//                // {\n//                //     UpdateIssuersStatus(msg.sender,\"Rejected\",block.timestamp);\n//                // }\n//                break;\n//            }\n//        }\n//\n//    }\n\n    function getIssuerCounter() public constant returns (uint ) {\n        return issuerList.length;\n    }\n\n    function getIssuerAddressesList() public constant returns (address[] )\n    {\n        return issuerList;\n\n    }\n\n    function getIssuerById(uint _id) constant public returns(string , string , address )  {\n\n        if(_id >= issuerList.length) {\n            throw;\n        }\n        Issuer memory ci = issuers[issuerList[_id]];\n\n        return (ci.name,ci.localAddress,ci.addr);\n    }\n\n    function getIssuer(address _addr) constant public returns(string , string  )  {\n\n        Issuer memory ci = issuers[_addr];\n\n        return (ci.name,ci.localAddress);\n\n    }\n\n\n    //    modifier issuersOnly {\n    //        bool found = false;\n    //        for(uint32 i=0; i<issuers.length; i++) {\n    //            if(issuers[i].addr == msg.sender && issuers[i].status == issuerStatus.accepted) {\n    //                found = true;\n    //                break;\n    //            }\n    //        }\n    //        if(!found) throw;\n    //        _;\n    //    }\n\n\n}\n",
  "sourcePath": "/Users/dmitryshlymovich/workspace/ethereum-garanties/truffle_eth_bnhp/contracts/IssuerManager.sol",
  "compiler": {
    "name": "solc",
    "version": "0.4.18+commit.9cf6e910.Emscripten.clang"
  },
  "schemaVersion": "1.0.1",
  "updatedAt": "2018-01-23T13:44:40.063Z"
}