{
  "contractName": "CustomerManager",
  "abi": [
    {
      "constant": true,
      "inputs": [
        {
          "name": "",
          "type": "address"
        }
      ],
      "name": "customers",
      "outputs": [
        {
          "name": "name",
          "type": "string"
        },
        {
          "name": "localAddress",
          "type": "string"
        }
      ],
      "payable": false,
      "type": "function"
    },
    {
      "constant": false,
      "inputs": [],
      "name": "close",
      "outputs": [],
      "payable": false,
      "type": "function"
    },
    {
      "constant": false,
      "inputs": [
        {
          "name": "_addr",
          "type": "address"
        },
        {
          "name": "_name",
          "type": "string"
        },
        {
          "name": "_localAddres",
          "type": "string"
        }
      ],
      "name": "submitCustomer",
      "outputs": [],
      "payable": false,
      "type": "function"
    },
    {
      "constant": true,
      "inputs": [],
      "name": "getOwner",
      "outputs": [
        {
          "name": "",
          "type": "address"
        }
      ],
      "payable": false,
      "type": "function"
    },
    {
      "constant": true,
      "inputs": [],
      "name": "owner",
      "outputs": [
        {
          "name": "",
          "type": "address"
        }
      ],
      "payable": false,
      "type": "function"
    },
    {
      "constant": false,
      "inputs": [
        {
          "name": "_newOwner",
          "type": "address"
        }
      ],
      "name": "changeOwner",
      "outputs": [],
      "payable": false,
      "type": "function"
    },
    {
      "constant": true,
      "inputs": [
        {
          "name": "_addr",
          "type": "address"
        }
      ],
      "name": "getCustomer",
      "outputs": [
        {
          "name": "_name",
          "type": "string"
        },
        {
          "name": "_localAddress",
          "type": "string"
        }
      ],
      "payable": false,
      "type": "function"
    },
    {
      "anonymous": false,
      "inputs": [
        {
          "indexed": false,
          "name": "msgSender",
          "type": "address"
        },
        {
          "indexed": false,
          "name": "msgstr",
          "type": "string"
        },
        {
          "indexed": false,
          "name": "timestamp",
          "type": "uint256"
        }
      ],
      "name": "AddCustomer",
      "type": "event"
    }
  ],
  "bytecode": "0x606060405260008054600160a060020a03191633600160a060020a0316179055341561002a57600080fd5b5b6108648061003a6000396000f300606060405236156100805763ffffffff7c0100000000000000000000000000000000000000000000000000000000600035041663336989ae811461008557806343d726d6146101a75780634d93c0c3146101bc578063893d20e81461025f5780638da5cb5b1461028e578063a6f9dae1146102bd578063cb949e51146102de575b600080fd5b341561009057600080fd5b6100a4600160a060020a03600435166103e0565b6040516040808252835460026000196101006001841615020190911604908201819052819060208201906060830190869080156101225780601f106100f757610100808354040283529160200191610122565b820191906000526020600020905b81548152906001019060200180831161010557829003601f168201915b50508381038252845460026000196101006001841615020190911604808252602090910190859080156101965780601f1061016b57610100808354040283529160200191610196565b820191906000526020600020905b81548152906001019060200180831161017957829003601f168201915b505094505050505060405180910390f35b34156101b257600080fd5b6101ba6103f7565b005b34156101c757600080fd5b6101ba60048035600160a060020a03169060446024803590810190830135806020601f8201819004810201604051908101604052818152929190602084018383808284378201915050505050509190803590602001908201803590602001908080601f01602080910402602001604051908101604052818152929190602084018383808284375094965061042395505050505050565b005b341561026a57600080fd5b61027261053c565b604051600160a060020a03909116815260200160405180910390f35b341561029957600080fd5b61027261054c565b604051600160a060020a03909116815260200160405180910390f35b34156102c857600080fd5b6101ba600160a060020a036004351661055b565b005b34156102e957600080fd5b6102fd600160a060020a03600435166105b8565b604051808060200180602001838103835285818151815260200191508051906020019080838360005b8381101561033f5780820151818401525b602001610326565b50505050905090810190601f16801561036c5780820380516001836020036101000a031916815260200191505b50838103825284818151815260200191508051906020019080838360005b838110156103a35780820151818401525b60200161038a565b50505050905090810190601f1680156103d05780820380516001836020036101000a031916815260200191505b5094505050505060405180910390f35b600160208190526000918252604090912090810182565b60005433600160a060020a0390811691161461041257600080fd5b600054600160a060020a0316ff5b5b565b6000805433600160a060020a0390811691161461043f57600080fd5b50600160a060020a03831660009081526001602052604090208083805161046a92916020019061074f565b506001810182805161048092916020019061074f565b507f3cdf985955e499413107b03adc7c7db5433c87ba6fa7a1beec377bb814138b9f338442604051600160a060020a03841681526040810182905260606020820181815290820184818151815260200191508051906020019080838360005b838110156104f85780820151818401525b6020016104df565b50505050905090810190601f1680156105255780820380516001836020036101000a031916815260200191505b5094505050505060405180910390a15b5b50505050565b600054600160a060020a03165b90565b600054600160a060020a031681565b60005433600160a060020a0390811691161461057657600080fd5b600160a060020a038116151561058b57600080fd5b6000805473ffffffffffffffffffffffffffffffffffffffff1916600160a060020a0383161790555b5b50565b6105c06107ce565b6105c86107ce565b6105d06107e0565b600160a060020a038416600090815260016020526040908190209080519081016040529081600082018054600181600116156101000203166002900480601f01602080910402602001604051908101604052809291908181526020018280546001816001161561010002031660029004801561068d5780601f106106625761010080835404028352916020019161068d565b820191906000526020600020905b81548152906001019060200180831161067057829003601f168201915b50505050508152602001600182018054600181600116156101000203166002900480601f01602080910402602001604051908101604052809291908181526020018280546001816001161561010002031660029004801561072f5780601f106107045761010080835404028352916020019161072f565b820191906000526020600020905b81548152906001019060200180831161071257829003601f168201915b505050505081525050905080600001519250806020015191505b50915091565b828054600181600116156101000203166002900490600052602060002090601f016020900481019282601f1061079057805160ff19168380011785556107bd565b828001600101855582156107bd579182015b828111156107bd5782518255916020019190600101906107a2565b5b506107ca929150610805565b5090565b60206040519081016040526000815290565b60408051908101604052806107f36107ce565b81526020016108006107ce565b905290565b61054991905b808211156107ca576000815560010161080b565b5090565b90565b602060405190810160405260008152905600a165627a7a72305820829458695240ccf87dcd429f3da14240543d1a6576a585ccb1336e1a0e19fddd0029",
  "source": "pragma solidity ^0.4.0;\n\nimport \"./Ownable.sol\";\n\ncontract CustomerManager  is Ownable{\n\n\n    //describes the customer object\n    struct Customer {\n    string name;\n    string localAddress;\n//    address []   guaranteeRequests;\n    //    string id;\n    }\n    //holds all customers by their address\n    mapping (address=>Customer) public customers;\n\n\n    event AddCustomer (address msgSender,string msgstr,uint timestamp);\n    function submitCustomer(address _addr , string _name, string _localAddres ) onlyOwner public {\n        Customer  customer=customers[_addr];\n        customer.name   = _name;\n        customer.localAddress    = _localAddres;\n        //        customer.id = _id;\n\n        AddCustomer(msg.sender,_name,block.timestamp);\n    }\n\n    function getCustomer(address _addr) constant public returns(string _name, string _localAddress) //, string  _id)\n    {\n\n        Customer memory ci = customers[_addr];\n        _name = ci.name;\n        _localAddress  = ci.localAddress;\n        //        _id = ci.id;\n    }\n\n\n    //    //premissions modifier for customer functions\n    //    modifier onlyCustomer() {\n    //        if (!_checkString(customers[msg.sender].name))\n    //        {\n    //            loga(\"###ERROR-not performd by CUSTOMER address\",msg.sender);\n    //            throw;\n    //        }\n    //        loga(\"#pass CUSTOMER action check\",msg.sender);\n    //        _;\n    //    }\n\n\n}\n",
  "sourcePath": "/Users/dmitryshlymovich/workspace/ethereum-garanties/truffle_eth_bnhp/contracts/CustomerManager.sol",
  "schemaVersion": "1.0.0",
  "updatedAt": "2017-11-21T05:24:38.757Z"
}