{
  "contractName": "DigitalGuaranteeBNHP",
  "abi": [
    {
      "constant": true,
      "inputs": [],
      "name": "isExpired",
      "outputs": [
        {
          "name": "",
          "type": "bool"
        }
      ],
      "payable": false,
      "type": "function"
    },
    {
      "constant": true,
      "inputs": [],
      "name": "getGuaranteeData",
      "outputs": [
        {
          "name": "_contract_id",
          "type": "address"
        },
        {
          "name": "_guaranteeRequest",
          "type": "address"
        },
        {
          "name": "_customer",
          "type": "address"
        },
        {
          "name": "_bank",
          "type": "address"
        },
        {
          "name": "_beneficiary",
          "type": "address"
        },
        {
          "name": "_purpose",
          "type": "bytes32"
        },
        {
          "name": "_amount",
          "type": "uint256"
        },
        {
          "name": "_startDate",
          "type": "uint256"
        },
        {
          "name": "_endDate",
          "type": "uint256"
        },
        {
          "name": "_indexType",
          "type": "uint8"
        },
        {
          "name": "_indexDate",
          "type": "uint256"
        },
        {
          "name": "_guaranteeState",
          "type": "uint8"
        }
      ],
      "payable": false,
      "type": "function"
    },
    {
      "constant": true,
      "inputs": [],
      "name": "getGuaranteeState",
      "outputs": [
        {
          "name": "_guaranteeState",
          "type": "uint8"
        }
      ],
      "payable": false,
      "type": "function"
    },
    {
      "constant": false,
      "inputs": [],
      "name": "close",
      "outputs": [],
      "payable": false,
      "type": "function"
    },
    {
      "constant": true,
      "inputs": [],
      "name": "getGuaranteeIPFSHash",
      "outputs": [
        {
          "name": "",
          "type": "bytes"
        }
      ],
      "payable": false,
      "type": "function"
    },
    {
      "constant": true,
      "inputs": [],
      "name": "getBeneficiary",
      "outputs": [
        {
          "name": "_addr",
          "type": "address"
        }
      ],
      "payable": false,
      "type": "function"
    },
    {
      "constant": true,
      "inputs": [],
      "name": "getId",
      "outputs": [
        {
          "name": "_contract_id",
          "type": "address"
        }
      ],
      "payable": false,
      "type": "function"
    },
    {
      "constant": true,
      "inputs": [],
      "name": "getGuaranteeRequest",
      "outputs": [
        {
          "name": "requestExtender",
          "type": "address"
        }
      ],
      "payable": false,
      "type": "function"
    },
    {
      "constant": true,
      "inputs": [],
      "name": "getOwner",
      "outputs": [
        {
          "name": "",
          "type": "address"
        }
      ],
      "payable": false,
      "type": "function"
    },
    {
      "constant": true,
      "inputs": [],
      "name": "owner",
      "outputs": [
        {
          "name": "",
          "type": "address"
        }
      ],
      "payable": false,
      "type": "function"
    },
    {
      "constant": false,
      "inputs": [
        {
          "name": "_newOwner",
          "type": "address"
        }
      ],
      "name": "changeOwner",
      "outputs": [],
      "payable": false,
      "type": "function"
    },
    {
      "constant": true,
      "inputs": [],
      "name": "getEndDate",
      "outputs": [
        {
          "name": "_enddate",
          "type": "uint256"
        }
      ],
      "payable": false,
      "type": "function"
    },
    {
      "constant": false,
      "inputs": [],
      "name": "terminateGuarantee",
      "outputs": [],
      "payable": false,
      "type": "function"
    },
    {
      "inputs": [
        {
          "name": "_guaranteeRequestExtender",
          "type": "address"
        },
        {
          "name": "_regulator",
          "type": "address"
        },
        {
          "name": "_guaranteeIPFSHash",
          "type": "bytes"
        }
      ],
      "payable": false,
      "type": "constructor"
    },
    {
      "anonymous": false,
      "inputs": [
        {
          "indexed": false,
          "name": "_requestId",
          "type": "address"
        },
        {
          "indexed": false,
          "name": "_guaranteeId",
          "type": "address"
        },
        {
          "indexed": false,
          "name": "_msgSender",
          "type": "address"
        },
        {
          "indexed": false,
          "name": "_guaranteeIPFSHash",
          "type": "bytes"
        }
      ],
      "name": "Issued",
      "type": "event"
    },
    {
      "anonymous": false,
      "inputs": [
        {
          "indexed": false,
          "name": "_requestId",
          "type": "address"
        },
        {
          "indexed": false,
          "name": "_guaranteeId",
          "type": "address"
        },
        {
          "indexed": false,
          "name": "_msgSender",
          "type": "address"
        }
      ],
      "name": "Terminated",
      "type": "event"
    }
  ],
  "bytecode": "0x606060405260008054600160a060020a03191633600160a060020a0316179055341561002a57600080fd5b604051610b53380380610b5383398101604052808051919060200180519190602001805190910190505b60018054600160a060020a03808616600160a060020a0319928316179092556002805492851692909116919091179055600381805161009792916020019061018e565b50600280546001919060a060020a60ff02191674010000000000000000000000000000000000000000835b02179055507f2a114794accc550a527ef87653abf0f6afacf18842782ec64db725729b83aeb883303384604051600160a060020a03808616825284811660208301528316604082015260806060820181815290820183818151815260200191508051906020019080838360005b838110156101485780820151818401525b60200161012f565b50505050905090810190601f1680156101755780820380516001836020036101000a031916815260200191505b509550505050505060405180910390a15b50505061022e565b828054600181600116156101000203166002900490600052602060002090601f016020900481019282601f106101cf57805160ff19168380011785556101fc565b828001600101855582156101fc579182015b828111156101fc5782518255916020019190600101906101e1565b5b5061020992915061020d565b5090565b61022b91905b808211156102095760008155600101610213565b5090565b90565b6109168061023d6000396000f300606060405236156100a95763ffffffff60e060020a6000350416632f13b60c81146100ae57806338e537b3146100d55780633a6facad1461017e57806343d726d6146101b5578063488523bc146101ca578063565a2e2c146102555780635d1ca6311461028457806388a22f7a146102b3578063893d20e8146102e25780638da5cb5b14610311578063a6f9dae114610340578063b135648814610361578063c700c70d14610386575b600080fd5b34156100b957600080fd5b6100c161039b565b604051901515815260200160405180910390f35b34156100e057600080fd5b6100e86103ad565b604051600160a060020a03808e1682528c811660208301528b811660408301528a811660608301528916608082015260a0810188905260c0810187905260e081018690526101008101859052610120810184600281111561014557fe5b60ff16815260200183815260200182600481111561015f57fe5b60ff1681526020019c5050505050505050505050505060405180910390f35b341561018957600080fd5b6101916105b4565b604051808260048111156101a157fe5b60ff16815260200191505060405180910390f35b34156101c057600080fd5b6101c86105f3565b005b34156101d557600080fd5b6101dd61061f565b60405160208082528190810183818151815260200191508051906020019080838360005b8381101561021a5780820151818401525b602001610201565b50505050905090810190601f1680156102475780820380516001836020036101000a031916815260200191505b509250505060405180910390f35b341561026057600080fd5b6102686106c8565b604051600160a060020a03909116815260200160405180910390f35b341561028f57600080fd5b610268610734565b604051600160a060020a03909116815260200160405180910390f35b34156102be57600080fd5b610268610739565b604051600160a060020a03909116815260200160405180910390f35b34156102ed57600080fd5b610268610749565b604051600160a060020a03909116815260200160405180910390f35b341561031c57600080fd5b610268610759565b604051600160a060020a03909116815260200160405180910390f35b341561034b57600080fd5b6101c8600160a060020a0360043516610768565b005b341561036c57600080fd5b6103746107c5565b60405190815260200160405180910390f35b341561039157600080fd5b6101c8610831565b005b6000426103a66107c5565b1190505b90565b6000806000806000806000806000806000806000600160009054906101000a9004600160a060020a0316905080600160a060020a0316631c32e7af600060405161016001526040518163ffffffff1660e060020a02815260040161016060405180830381600087803b151561042157600080fd5b6102c65a03f1151561043257600080fd5b5050506040518051906020018051906020018051906020018051906020018051906020018051906020018051906020018051906020018051906020018051906020018051905090919293949596979899509091929394959697985090919293949596975050809950819a50829b50839c50849d50859e50869f5050505050505050600160009054906101000a9004600160a060020a03169b506104d3610734565b9c5080600160a060020a031663650d993b6000604051602001526040518163ffffffff1660e060020a028152600401602060405180830381600087803b151561051b57600080fd5b6102c65a03f1151561052c57600080fd5b50505060405180519b5050600160a060020a0381166360d704db6000604051602001526040518163ffffffff1660e060020a028152600401602060405180830381600087803b151561057d57600080fd5b6102c65a03f1151561058e57600080fd5b5050506040518051905099506105a26105b4565b91505b50909192939495969798999a9b565b60006105be61039b565b156105cb575060026103aa565b5060025474010000000000000000000000000000000000000000900460ff166103aa565b5b90565b60005433600160a060020a0390811691161461060e57600080fd5b600054600160a060020a0316ff5b5b565b6106276108d8565b60038054600181600116156101000203166002900480601f0160208091040260200160405190810160405280929190818152602001828054600181600116156101000203166002900480156106bd5780601f10610692576101008083540402835291602001916106bd565b820191906000526020600020905b8154815290600101906020018083116106a057829003601f168201915b505050505090505b90565b600154600090600160a060020a03168063565a2e2c83604051602001526040518163ffffffff1660e060020a028152600401602060405180830381600087803b151561071357600080fd5b6102c65a03f1151561072457600080fd5b50505060405180519250505b5090565b305b90565b600154600160a060020a03165b90565b600054600160a060020a03165b90565b600054600160a060020a031681565b60005433600160a060020a0390811691161461078357600080fd5b600160a060020a038116151561079857600080fd5b6000805473ffffffffffffffffffffffffffffffffffffffff1916600160a060020a0383161790555b5b50565b600154600090600160a060020a03168063b135648883604051602001526040518163ffffffff1660e060020a028152600401602060405180830381600087803b151561071357600080fd5b6102c65a03f1151561072457600080fd5b50505060405180519250505b5090565b600280546003919074ff0000000000000000000000000000000000000000191674010000000000000000000000000000000000000000835b02179055506001547fc96023adfc168f8f03b0a5cc6aaa47d9261d083467fb52f61a1854d5725771ca90600160a060020a03166108a4610734565b33604051600160a060020a03938416815291831660208301529091166040808301919091526060909101905180910390a15b565b602060405190810160405260008152905600a165627a7a723058200326c5f01ceae2552778def9b6f563338351466052268622966db7a95a87f8520029",
  "source": "pragma solidity ^0.4.11;\n\nimport \"./GuaranteeConst.sol\";\nimport \"./GuaranteeExtender.sol\";\nimport \"./GuaranteeRequestExtender.sol\";\n\ncontract DigitalGuaranteeBNHP is Ownable,GuaranteeExtender\n{\n    address guaranteeRequestExtender;\n    address regulator;\n\n    GuaranteeState gstate;\n    bytes guaranteeIPFSHash;\n\n    event Issued(address  _requestId,address  _guaranteeId,address _msgSender,bytes _guaranteeIPFSHash);\n    event Terminated(address  _requestId,address  _guaranteeId,address _msgSender );\n\n    function getGuaranteeRequest() constant public returns (address requestExtender)\n    {\n        return guaranteeRequestExtender;\n    }\n\n\n    function DigitalGuaranteeBNHP(address _guaranteeRequestExtender,address _regulator,bytes _guaranteeIPFSHash) {\n        guaranteeRequestExtender=_guaranteeRequestExtender;\n        regulator=_regulator;\n        guaranteeIPFSHash=_guaranteeIPFSHash;\n        gstate=GuaranteeState.Valid;\n        Issued(_guaranteeRequestExtender,this,msg.sender, _guaranteeIPFSHash);\n    }\n\n\n\n    function getId() constant public returns (address _contract_id)\n    {\n        return this;\n    }\n\n    function getBeneficiary() constant public returns (address _addr)\n    {\n        GuaranteeRequestExtender gr= GuaranteeRequestExtender(guaranteeRequestExtender);\n        return gr.getBeneficiary();\n    }\n\n    function getEndDate() constant public returns (uint _enddate)\n    {\n        GuaranteeRequestExtender gr= GuaranteeRequestExtender(guaranteeRequestExtender);\n        return gr.getEndDate();\n    }\n\n\n    function getGuaranteeData() constant public returns (address _contract_id,address _guaranteeRequest,address _customer,address _bank ,address _beneficiary, bytes32 _purpose,uint _amount,uint _startDate,uint _endDate,IndexType _indexType,uint _indexDate , GuaranteeState _guaranteeState)\n    {\n        GuaranteeRequestExtender gr= GuaranteeRequestExtender(guaranteeRequestExtender);\n\n//        ( , _customer, _bank,  _beneficiary,  _purpose, _amount, _startDate, _endDate, _indexType, _indexDate, ) =gr.getGuaranteeRequestData();\n        ( , , ,  _beneficiary, _purpose , _amount, _startDate, _endDate, _indexType, _indexDate, ) =gr.getGuaranteeRequestData();\n\n        _guaranteeRequest=guaranteeRequestExtender;\n        _contract_id=getId();\n        _customer=gr.getCustomer();\n        _bank=gr.getBank();\n        _guaranteeState=getGuaranteeState();\n\n    }\n\n    function getGuaranteeIPFSHash() constant public returns (bytes)\n    {\n        return guaranteeIPFSHash;\n    }\n\n\n\n\n    function getGuaranteeState() constant  public returns (GuaranteeState _guaranteeState)\n    {\n        if (isExpired())\n        {\n            return  GuaranteeState.Expaired;\n        }\n        else\n        {\n            return  gstate;\n        }\n\n    }\n\n//    event AAA(GuaranteeState);\n\n    function terminateGuarantee()  public\n    {\n        gstate=GuaranteeState.Terminated;\n//    AAA(gstate);\n        Terminated(guaranteeRequestExtender,getId(),msg.sender);\n\n\n    }\n\n\n\n//    event ChangeRequested(address  _requestId,address  _guaranteeId,address _msgSender,uint amount, string endDate,string comment);\n//\n//    function changeRequest(uint _amount, string _endDate, string _comment) onlyBeneficiary returns (bool)\n//    {\n//        ChangeRequested(guaranteeRequestExtender,this,msg.sender,_amount,  _endDate, _comment);\n//        throw;\n//    }\n\n\n}\n",
  "sourcePath": "/Users/dmitryshlymovich/workspace/ethereum-garanties/truffle_eth_bnhp/contracts/DigitalGuaranteeBNHP.sol",
  "schemaVersion": "1.0.0",
  "updatedAt": "2017-10-16T08:56:16.657Z"
}