{
  "contractName": "DigitalGuaranteeBNHP",
  "abi": [
    {
      "constant": true,
      "inputs": [],
      "name": "getState",
      "outputs": [
        {
          "name": "",
          "type": "uint8"
        }
      ],
      "payable": false,
      "type": "function"
    },
    {
      "constant": true,
      "inputs": [],
      "name": "isExpired",
      "outputs": [
        {
          "name": "",
          "type": "bool"
        }
      ],
      "payable": false,
      "type": "function"
    },
    {
      "constant": true,
      "inputs": [],
      "name": "getGuaranteeData",
      "outputs": [
        {
          "name": "_contract_id",
          "type": "address"
        },
        {
          "name": "_guaranteeRequest",
          "type": "address"
        },
        {
          "name": "_customer",
          "type": "address"
        },
        {
          "name": "_bank",
          "type": "address"
        },
        {
          "name": "_beneficiary",
          "type": "address"
        },
        {
          "name": "_full_name",
          "type": "bytes32"
        },
        {
          "name": "_purpose",
          "type": "bytes32"
        },
        {
          "name": "_amount",
          "type": "uint256"
        },
        {
          "name": "_startDate",
          "type": "uint256"
        },
        {
          "name": "_endDate",
          "type": "uint256"
        },
        {
          "name": "_indexType",
          "type": "uint8"
        },
        {
          "name": "_indexDate",
          "type": "uint256"
        },
        {
          "name": "_gState",
          "type": "uint8"
        }
      ],
      "payable": false,
      "type": "function"
    },
    {
      "constant": false,
      "inputs": [],
      "name": "close",
      "outputs": [],
      "payable": false,
      "type": "function"
    },
    {
      "constant": true,
      "inputs": [],
      "name": "getGuaranteeIPFSHash",
      "outputs": [
        {
          "name": "",
          "type": "bytes"
        }
      ],
      "payable": false,
      "type": "function"
    },
    {
      "constant": true,
      "inputs": [],
      "name": "getBeneficiary",
      "outputs": [
        {
          "name": "_addr",
          "type": "address"
        }
      ],
      "payable": false,
      "type": "function"
    },
    {
      "constant": true,
      "inputs": [],
      "name": "getId",
      "outputs": [
        {
          "name": "_contract_id",
          "type": "address"
        }
      ],
      "payable": false,
      "type": "function"
    },
    {
      "constant": true,
      "inputs": [],
      "name": "getGuaranteeRequest",
      "outputs": [
        {
          "name": "requestExtender",
          "type": "address"
        }
      ],
      "payable": false,
      "type": "function"
    },
    {
      "constant": true,
      "inputs": [],
      "name": "getOwner",
      "outputs": [
        {
          "name": "",
          "type": "address"
        }
      ],
      "payable": false,
      "type": "function"
    },
    {
      "constant": true,
      "inputs": [],
      "name": "owner",
      "outputs": [
        {
          "name": "",
          "type": "address"
        }
      ],
      "payable": false,
      "type": "function"
    },
    {
      "constant": false,
      "inputs": [
        {
          "name": "_newOwner",
          "type": "address"
        }
      ],
      "name": "changeOwner",
      "outputs": [],
      "payable": false,
      "type": "function"
    },
    {
      "constant": true,
      "inputs": [],
      "name": "getEndDate",
      "outputs": [
        {
          "name": "_enddate",
          "type": "uint256"
        }
      ],
      "payable": false,
      "type": "function"
    },
    {
      "constant": false,
      "inputs": [],
      "name": "terminateGuarantee",
      "outputs": [],
      "payable": false,
      "type": "function"
    },
    {
      "constant": false,
      "inputs": [
        {
          "name": "_amount",
          "type": "uint256"
        },
        {
          "name": "_endDate",
          "type": "string"
        },
        {
          "name": "_comment",
          "type": "string"
        }
      ],
      "name": "changeRequest",
      "outputs": [],
      "payable": false,
      "type": "function"
    },
    {
      "inputs": [
        {
          "name": "_guaranteeRequestExtender",
          "type": "address"
        },
        {
          "name": "_regulator",
          "type": "address"
        },
        {
          "name": "_guaranteeIPFSHash",
          "type": "bytes"
        }
      ],
      "payable": false,
      "type": "constructor"
    },
    {
      "anonymous": false,
      "inputs": [
        {
          "indexed": false,
          "name": "_requestId",
          "type": "address"
        },
        {
          "indexed": false,
          "name": "_guaranteeId",
          "type": "address"
        },
        {
          "indexed": false,
          "name": "_msgSender",
          "type": "address"
        },
        {
          "indexed": false,
          "name": "_guaranteeIPFSHash",
          "type": "bytes"
        },
        {
          "indexed": false,
          "name": "curentstatus",
          "type": "uint8"
        },
        {
          "indexed": false,
          "name": "timestamp",
          "type": "uint256"
        }
      ],
      "name": "Issued",
      "type": "event"
    },
    {
      "anonymous": false,
      "inputs": [
        {
          "indexed": false,
          "name": "_requestId",
          "type": "address"
        },
        {
          "indexed": false,
          "name": "_guaranteeId",
          "type": "address"
        },
        {
          "indexed": false,
          "name": "_msgSender",
          "type": "address"
        },
        {
          "indexed": false,
          "name": "curentstatus",
          "type": "uint8"
        },
        {
          "indexed": false,
          "name": "timestamp",
          "type": "uint256"
        }
      ],
      "name": "Terminated",
      "type": "event"
    },
    {
      "anonymous": false,
      "inputs": [
        {
          "indexed": false,
          "name": "nowtime",
          "type": "uint256"
        },
        {
          "indexed": false,
          "name": "enddate",
          "type": "uint256"
        },
        {
          "indexed": false,
          "name": "isExpired",
          "type": "bool"
        },
        {
          "indexed": false,
          "name": "state",
          "type": "uint8"
        }
      ],
      "name": "AAA",
      "type": "event"
    },
    {
      "anonymous": false,
      "inputs": [
        {
          "indexed": false,
          "name": "nowtime",
          "type": "uint256"
        },
        {
          "indexed": false,
          "name": "enddate",
          "type": "uint256"
        },
        {
          "indexed": false,
          "name": "isExpired",
          "type": "bool"
        },
        {
          "indexed": false,
          "name": "state",
          "type": "uint8"
        }
      ],
      "name": "BBB",
      "type": "event"
    },
    {
      "anonymous": false,
      "inputs": [
        {
          "indexed": false,
          "name": "nowtime",
          "type": "uint256"
        },
        {
          "indexed": false,
          "name": "enddate",
          "type": "uint256"
        },
        {
          "indexed": false,
          "name": "isExpired",
          "type": "bool"
        },
        {
          "indexed": false,
          "name": "state",
          "type": "uint8"
        }
      ],
      "name": "CCC",
      "type": "event"
    },
    {
      "anonymous": false,
      "inputs": [
        {
          "indexed": false,
          "name": "_requestId",
          "type": "address"
        },
        {
          "indexed": false,
          "name": "_guaranteeId",
          "type": "address"
        },
        {
          "indexed": false,
          "name": "_msgSender",
          "type": "address"
        },
        {
          "indexed": false,
          "name": "amount",
          "type": "uint256"
        },
        {
          "indexed": false,
          "name": "endDate",
          "type": "string"
        },
        {
          "indexed": false,
          "name": "commentline",
          "type": "string"
        },
        {
          "indexed": false,
          "name": "curentstatus",
          "type": "uint8"
        },
        {
          "indexed": false,
          "name": "timestamp",
          "type": "uint256"
        }
      ],
      "name": "ChangeRequested",
      "type": "event"
    }
  ],
  "bytecode": "0x606060405260008054600160a060020a03191633600160a060020a0316179055341561002a57600080fd5b60405162000fc038038062000fc083398101604052808051919060200180519190602001805190910190505b60018054600160a060020a03808616600160a060020a031992831617909255600280549285169290911691909117905560038180516100999291602001906101be565b50600280546001919060a060020a60ff02191674010000000000000000000000000000000000000000835b02179055507feeb6ffd7090cc72ad3fc8b9c2879f7b97d4f9eb9b2943c50a4cbab3931db090983303384600260149054906101000a900460ff1642604051600160a060020a038088168252868116602083015285166040820152606081016080820184600481111561013257fe5b60ff168152602001838152602001828103825285818151815260200191508051906020019080838360005b838110156101765780820151818401525b60200161015d565b50505050905090810190601f1680156101a35780820380516001836020036101000a031916815260200191505b5097505050505050505060405180910390a15b50505061025e565b828054600181600116156101000203166002900490600052602060002090601f016020900481019282601f106101ff57805160ff191683800117855561022c565b8280016001018555821561022c579182015b8281111561022c578251825591602001919060010190610211565b5b5061023992915061023d565b5090565b61025b91905b808211156102395760008155600101610243565b5090565b90565b610d52806200026e6000396000f300606060405236156100b45763ffffffff60e060020a6000350416631865c57d81146100b95780632f13b60c146100f057806338e537b31461011757806343d726d6146101c9578063488523bc146101de578063565a2e2c146102695780635d1ca6311461029857806388a22f7a146102c7578063893d20e8146102f65780638da5cb5b14610325578063a6f9dae114610354578063b135648814610375578063c700c70d1461039a578063cfd99c5a146103af575b600080fd5b34156100c457600080fd5b6100cc610449565b604051808260048111156100dc57fe5b60ff16815260200191505060405180910390f35b34156100fb57600080fd5b610103610611565b604051901515815260200160405180910390f35b341561012257600080fd5b61012a610623565b604051600160a060020a03808f1682528d811660208301528c811660408301528b811660608301528a16608082015260a0810189905260c0810188905260e0810187905261010081018690526101208101859052610140810184600281111561018f57fe5b60ff1681526020018381526020018260048111156101a957fe5b60ff1681526020019d505050505050505050505050505060405180910390f35b34156101d457600080fd5b6101dc6108a0565b005b34156101e957600080fd5b6101f16108cc565b60405160208082528190810183818151815260200191508051906020019080838360005b8381101561022e5780820151818401525b602001610215565b50505050905090810190601f16801561025b5780820380516001836020036101000a031916815260200191505b509250505060405180910390f35b341561027457600080fd5b61027c610975565b604051600160a060020a03909116815260200160405180910390f35b34156102a357600080fd5b61027c6109e1565b604051600160a060020a03909116815260200160405180910390f35b34156102d257600080fd5b61027c6109e6565b604051600160a060020a03909116815260200160405180910390f35b341561030157600080fd5b61027c6109f6565b604051600160a060020a03909116815260200160405180910390f35b341561033057600080fd5b61027c610a06565b604051600160a060020a03909116815260200160405180910390f35b341561035f57600080fd5b6101dc600160a060020a0360043516610a15565b005b341561038057600080fd5b610388610a72565b60405190815260200160405180910390f35b34156103a557600080fd5b6101dc610ade565b005b34156103ba57600080fd5b6101dc600480359060446024803590810190830135806020601f8201819004810201604051908101604052818152929190602084018383808284378201915050505050509190803590602001908201803590602001908080601f016020809104026020016040519081016040528181529291906020840183838082843750949650610b9f95505050505050565b005b60007fb8db624f7c54b73ab9847400c728df0d946ea57a7a09b3e8c8d7c9b4a453397d42610475610a72565b4261047e610a72565b10600260149054906101000a900460ff16604051848152602081018490528215156040820152606081018260048111156104b457fe5b60ff16815260200194505050505060405180910390a160015b60025460a060020a900460ff1660048111156104e557fe5b14156105fe577fb25a5fa6cf1ba32d4ef5af2eae5bee9e60ab07b89e225f1ab8d1d90f0183695b42610515610a72565b4261051e610a72565b10600260149054906101000a900460ff166040518481526020810184905282151560408201526060810182600481111561055457fe5b60ff16815260200194505050505060405180910390a1610572610611565b156105fe577fb224890cfa00231eeb878ff734c4a948ebb2fe64bb8b9d370eda902f40087df9426105a1610a72565b426105aa610a72565b10600260149054906101000a900460ff16604051848152602081018490528215156040820152606081018260048111156105e057fe5b60ff16815260200194505050505060405180910390a150600261060e565b5b5060025460a060020a900460ff165b90565b60004261061c610a72565b1090505b90565b600080600080600080600080600080600080600080600160009054906101000a9004600160a060020a0316905080600160a060020a0316631c32e7af600060405161018001526040518163ffffffff1660e060020a02815260040161018060405180830381600087803b151561069857600080fd5b6102c65a03f115156106a957600080fd5b50505060405180519060200180519060200180519060200180519060200180519060200180519060200180519060200180519060200180519060200180519060200180519060200180519050909192939495969798999a5090919293949596979899509091929394959697985090919293949596975050809950819a50829b50839c50849d50859e50869f5050505050505050600160009054906101000a9004600160a060020a03169c5061075c6109e1565b9d5080600160a060020a031663650d993b6000604051602001526040518163ffffffff1660e060020a028152600401602060405180830381600087803b15156107a457600080fd5b6102c65a03f115156107b557600080fd5b50505060405180519c5050600160a060020a0381166360d704db6000604051602001526040518163ffffffff1660e060020a028152600401602060405180830381600087803b151561080657600080fd5b6102c65a03f1151561081757600080fd5b50505060405180519b5050600160a060020a03811663565a2e2c6000604051602001526040518163ffffffff1660e060020a028152600401602060405180830381600087803b151561086857600080fd5b6102c65a03f1151561087957600080fd5b50505060405180519050995061088d610449565b91505b50909192939495969798999a9b9c565b60005433600160a060020a039081169116146108bb57600080fd5b600054600160a060020a0316ff5b5b565b6108d4610d14565b60038054600181600116156101000203166002900480601f01602080910402602001604051908101604052809291908181526020018280546001816001161561010002031660029004801561096a5780601f1061093f5761010080835404028352916020019161096a565b820191906000526020600020905b81548152906001019060200180831161094d57829003601f168201915b505050505090505b90565b600154600090600160a060020a03168063565a2e2c83604051602001526040518163ffffffff1660e060020a028152600401602060405180830381600087803b15156109c057600080fd5b6102c65a03f115156109d157600080fd5b50505060405180519250505b5090565b305b90565b600154600160a060020a03165b90565b600054600160a060020a03165b90565b600054600160a060020a031681565b60005433600160a060020a03908116911614610a3057600080fd5b600160a060020a0381161515610a4557600080fd5b6000805473ffffffffffffffffffffffffffffffffffffffff1916600160a060020a0383161790555b5b50565b600154600090600160a060020a03168063b135648883604051602001526040518163ffffffff1660e060020a028152600401602060405180830381600087803b15156109c057600080fd5b6102c65a03f115156109d157600080fd5b50505060405180519250505b5090565b600280546003919074ff0000000000000000000000000000000000000000191660a060020a835b02179055506001547f6518c1da158fee6a2676b0f54a238f60b8607b47ed05a8ac7108a7a866c25fdd90600160a060020a0316610b406109e1565b600254339060a060020a900460ff1642604051600160a060020a03808716825285811660208301528416604082015260608101836004811115610b7f57fe5b60ff1681526020018281526020019550505050505060405180910390a15b565b6001546002547f3796967879e67477d31c3899fe77a83a6f1ed04f788f5ad924ddaa33a78aac6d91600160a060020a0316903090339087908790879060a060020a900460ff1642604051600160a060020a03808a168252888116602083015287166040820152606081018690526080810160a0820160c08301856004811115610c2457fe5b60ff168152602001848152602001838103835287818151815260200191508051906020019080838360005b83811015610c685780820151818401525b602001610c4f565b50505050905090810190601f168015610c955780820380516001836020036101000a031916815260200191505b50838103825286818151815260200191508051906020019080838360005b83811015610ccc5780820151818401525b602001610cb3565b50505050905090810190601f168015610cf95780820380516001836020036101000a031916815260200191505b509a505050505050505050505060405180910390a15b505050565b602060405190810160405260008152905600a165627a7a7230582062d12066709f7c2e9a6d83ff9de64264d772cc7d95eac2f3d2deb7af6d73d1ee0029",
  "source": "pragma solidity ^0.4.11;\n\nimport \"./GuaranteeConst.sol\";\nimport \"./GuaranteeExtender.sol\";\nimport \"./GuaranteeRequestExtender.sol\";\nimport \"./Ownable.sol\";\n\ncontract DigitalGuaranteeBNHP is Ownable,GuaranteeExtender\n{\n    address guaranteeRequestExtender;\n    address regulator;\n\n    GuaranteeState gstate;\n    bytes guaranteeIPFSHash;\n\n    event Issued(address  _requestId,address  _guaranteeId,address _msgSender,bytes _guaranteeIPFSHash,GuaranteeState   curentstatus,uint timestamp);\n    event Terminated(address  _requestId,address  _guaranteeId,address _msgSender ,GuaranteeState   curentstatus,uint timestamp);\n\n    function getGuaranteeRequest() constant public returns (address requestExtender)\n    {\n        return guaranteeRequestExtender;\n    }\n\n\n    function DigitalGuaranteeBNHP(address _guaranteeRequestExtender,address _regulator,bytes _guaranteeIPFSHash) {\n        guaranteeRequestExtender=_guaranteeRequestExtender;\n        regulator=_regulator;\n        guaranteeIPFSHash=_guaranteeIPFSHash;\n        gstate=GuaranteeState.Valid;\n        Issued(_guaranteeRequestExtender,this,msg.sender, _guaranteeIPFSHash,gstate,now);\n    }\n\n\n\n    function getId() constant public returns (address _contract_id)\n    {\n        return this;\n    }\n\n    function getBeneficiary() constant public returns (address _addr)\n    {\n        GuaranteeRequestExtender gr= GuaranteeRequestExtender(guaranteeRequestExtender);\n        return gr.getBeneficiary();\n    }\n\n    function getEndDate() constant public returns (uint _enddate)\n    {\n        GuaranteeRequestExtender gr= GuaranteeRequestExtender(guaranteeRequestExtender);\n        return gr.getEndDate();\n    }\n\n\n    function getGuaranteeData() constant public returns (address _contract_id,address _guaranteeRequest,address _customer,address _bank ,address _beneficiary,bytes32 _full_name, bytes32 _purpose,uint _amount,uint _startDate,uint _endDate,IndexType _indexType,uint _indexDate , GuaranteeState _gState)\n    {\n        GuaranteeRequestExtender gr= GuaranteeRequestExtender(guaranteeRequestExtender);\n\n//        ( , _customer, _bank,  _beneficiary,  _purpose, _amount, _startDate, _endDate, _indexType, _indexDate, ) =gr.getGuaranteeRequestData();\n        ( , , ,  , _full_name, _purpose , _amount, _startDate, _endDate, _indexType, _indexDate, ) =gr.getGuaranteeRequestData();\n\n        _guaranteeRequest=guaranteeRequestExtender;\n        _contract_id=getId();\n        _customer=gr.getCustomer();\n        _bank=gr.getBank();\n        _beneficiary=gr.getBeneficiary();\n        _gState=getState();\n\n    }\n\n    function getGuaranteeIPFSHash() constant public returns (bytes)\n    {\n        return guaranteeIPFSHash;\n    }\n\n\n\n    event AAA (uint nowtime,uint enddate,bool isExpired,GuaranteeState state);\n    event BBB (uint nowtime,uint enddate,bool isExpired,GuaranteeState state);\n    event CCC (uint nowtime,uint enddate,bool isExpired,GuaranteeState state);\n\n\n    function getState() constant  public returns (GuaranteeState )\n    {\n        AAA(now,getEndDate(),getEndDate()<now,gstate);\n\n    if (gstate==GuaranteeState.Valid)\n        {\n            BBB(now,getEndDate(),getEndDate()<now,gstate);\n\n        if (isExpired())\n            {\n                CCC(now,getEndDate(),getEndDate()<now,gstate);\n\n            return  GuaranteeState.Expaired;\n            }\n        }\n\n            return  gstate;\n\n\n    }\n\n//    event AAA(GuaranteeState);\n\n    function terminateGuarantee()  public\n    {\n        gstate=GuaranteeState.Terminated;\n//    AAA(gstate);\n        Terminated(guaranteeRequestExtender,getId(),msg.sender,gstate,now);\n\n    }\n\n\n\n   event ChangeRequested(address  _requestId,address  _guaranteeId,address _msgSender,uint amount, string endDate,string commentline,GuaranteeState   curentstatus,uint timestamp);\n\n    function changeRequest(uint _amount, string _endDate, string _comment)\n    {\n        ChangeRequested(guaranteeRequestExtender,this,msg.sender,_amount,  _endDate, _comment,gstate,now);\n    }\n\n\n}\n",
  "sourcePath": "/Users/dmitryshlymovich/workspace/ethereum-garanties/truffle_eth_bnhp/contracts/DigitalGuaranteeBNHP.sol",
  "schemaVersion": "1.0.0",
  "updatedAt": "2017-11-05T14:40:10.554Z"
}