{
  "contractName": "DigitalGuaranteeBNHP",
  "abi": [
    {
      "constant": false,
      "inputs": [
        {
          "name": "_comment",
          "type": "string"
        }
      ],
      "name": "terminate",
      "outputs": [
        {
          "name": "",
          "type": "bool"
        }
      ],
      "payable": false,
      "type": "function"
    },
    {
      "constant": true,
      "inputs": [],
      "name": "isExpired",
      "outputs": [
        {
          "name": "",
          "type": "bool"
        }
      ],
      "payable": false,
      "type": "function"
    },
    {
      "constant": true,
      "inputs": [],
      "name": "getGuaranteeData",
      "outputs": [
        {
          "name": "_contract_id",
          "type": "address"
        },
        {
          "name": "_guaranteeRequest",
          "type": "address"
        },
        {
          "name": "_customer",
          "type": "address"
        },
        {
          "name": "_bank",
          "type": "address"
        },
        {
          "name": "_beneficiary",
          "type": "address"
        },
        {
          "name": "_purpose",
          "type": "bytes32"
        },
        {
          "name": "_amount",
          "type": "uint256"
        },
        {
          "name": "_startDate",
          "type": "uint256"
        },
        {
          "name": "_endDate",
          "type": "uint256"
        },
        {
          "name": "_indexType",
          "type": "uint8"
        },
        {
          "name": "_indexDate",
          "type": "uint256"
        },
        {
          "name": "_guaranteeState",
          "type": "uint8"
        }
      ],
      "payable": false,
      "type": "function"
    },
    {
      "constant": true,
      "inputs": [],
      "name": "getGuaranteeState",
      "outputs": [
        {
          "name": "_guaranteeState",
          "type": "uint8"
        }
      ],
      "payable": false,
      "type": "function"
    },
    {
      "constant": true,
      "inputs": [],
      "name": "getGuaranteeIPFSHash",
      "outputs": [
        {
          "name": "",
          "type": "bytes"
        }
      ],
      "payable": false,
      "type": "function"
    },
    {
      "constant": true,
      "inputs": [],
      "name": "getBeneficiary",
      "outputs": [
        {
          "name": "_addr",
          "type": "address"
        }
      ],
      "payable": false,
      "type": "function"
    },
    {
      "constant": true,
      "inputs": [],
      "name": "getId",
      "outputs": [
        {
          "name": "_contract_id",
          "type": "address"
        }
      ],
      "payable": false,
      "type": "function"
    },
    {
      "constant": true,
      "inputs": [],
      "name": "getEndDate",
      "outputs": [
        {
          "name": "_enddate",
          "type": "uint256"
        }
      ],
      "payable": false,
      "type": "function"
    },
    {
      "constant": false,
      "inputs": [
        {
          "name": "_amount",
          "type": "uint256"
        },
        {
          "name": "_endDate",
          "type": "string"
        },
        {
          "name": "_comment",
          "type": "string"
        }
      ],
      "name": "changeRequest",
      "outputs": [
        {
          "name": "",
          "type": "bool"
        }
      ],
      "payable": false,
      "type": "function"
    },
    {
      "inputs": [
        {
          "name": "_guaranteeRequestExtender",
          "type": "address"
        },
        {
          "name": "_regulator",
          "type": "address"
        },
        {
          "name": "_guaranteeIPFSHash",
          "type": "bytes"
        }
      ],
      "payable": false,
      "type": "constructor"
    },
    {
      "anonymous": false,
      "inputs": [
        {
          "indexed": false,
          "name": "_requestId",
          "type": "address"
        },
        {
          "indexed": false,
          "name": "_guaranteeId",
          "type": "address"
        },
        {
          "indexed": false,
          "name": "_msgSender",
          "type": "address"
        },
        {
          "indexed": false,
          "name": "_guaranteeIPFSHash",
          "type": "bytes"
        }
      ],
      "name": "Issued",
      "type": "event"
    },
    {
      "anonymous": false,
      "inputs": [
        {
          "indexed": false,
          "name": "_requestId",
          "type": "address"
        },
        {
          "indexed": false,
          "name": "_guaranteeId",
          "type": "address"
        },
        {
          "indexed": false,
          "name": "_msgSender",
          "type": "address"
        },
        {
          "indexed": false,
          "name": "_comment",
          "type": "string"
        }
      ],
      "name": "Terminated",
      "type": "event"
    },
    {
      "anonymous": false,
      "inputs": [
        {
          "indexed": false,
          "name": "_requestId",
          "type": "address"
        },
        {
          "indexed": false,
          "name": "_guaranteeId",
          "type": "address"
        },
        {
          "indexed": false,
          "name": "_msgSender",
          "type": "address"
        },
        {
          "indexed": false,
          "name": "amount",
          "type": "uint256"
        },
        {
          "indexed": false,
          "name": "endDate",
          "type": "string"
        },
        {
          "indexed": false,
          "name": "comment",
          "type": "string"
        }
      ],
      "name": "ChangeRequested",
      "type": "event"
    },
    {
      "anonymous": false,
      "inputs": [
        {
          "indexed": false,
          "name": "message",
          "type": "string"
        },
        {
          "indexed": false,
          "name": "logb",
          "type": "address"
        }
      ],
      "name": "loga",
      "type": "event"
    },
    {
      "anonymous": false,
      "inputs": [
        {
          "indexed": false,
          "name": "message",
          "type": "string"
        },
        {
          "indexed": false,
          "name": "logb",
          "type": "string"
        }
      ],
      "name": "log",
      "type": "event"
    }
  ],
  "bytecode": "0x6060604052341561000f57600080fd5b604051610c7c380380610c7c83398101604052808051919060200180519190602001805190910190505b60008054600160a060020a03808616600160a060020a0319928316179092556001805492851692909116919091179055600281805161007c929160200190610171565b5060018054819060a060020a60ff02191674010000000000000000000000000000000000000000825b02179055507f2a114794accc550a527ef87653abf0f6afacf18842782ec64db725729b83aeb883303384604051600160a060020a03808616825284811660208301528316604082015260806060820181815290820183818151815260200191508051906020019080838360005b8381101561012b5780820151818401525b602001610112565b50505050905090810190601f1680156101585780820380516001836020036101000a031916815260200191505b509550505050505060405180910390a15b505050610211565b828054600181600116156101000203166002900490600052602060002090601f016020900481019282601f106101b257805160ff19168380011785556101df565b828001600101855582156101df579182015b828111156101df5782518255916020019190600101906101c4565b5b506101ec9291506101f0565b5090565b61020e91905b808211156101ec57600081556001016101f6565b5090565b90565b610a5c806102206000396000f3006060604052361561007d5763ffffffff60e060020a6000350416630220a5b481146100825780632f13b60c146100e757806338e537b31461010e5780633a6facad146101b7578063488523bc146101ee578063565a2e2c146102795780635d1ca631146102a8578063b1356488146102d7578063cfd99c5a146102fc575b600080fd5b341561008d57600080fd5b6100d360046024813581810190830135806020601f820181900481020160405190810160405281815292919060208401838380828437509496506103a895505050505050565b604051901515815260200160405180910390f35b34156100f257600080fd5b6100d36104e3565b604051901515815260200160405180910390f35b341561011957600080fd5b6101216104f5565b604051600160a060020a03808e1682528c811660208301528b811660408301528a811660608301528916608082015260a0810188905260c0810187905260e081018690526101008101859052610120810184600281111561017e57fe5b60ff16815260200183815260200182600481111561019857fe5b60ff1681526020019c5050505050505050505050505060405180910390f35b34156101c257600080fd5b6101ca6106e8565b604051808260048111156101da57fe5b60ff16815260200191505060405180910390f35b34156101f957600080fd5b610201610727565b60405160208082528190810183818151815260200191508051906020019080838360005b8381101561023e5780820151818401525b602001610225565b50505050905090810190601f16801561026b5780820380516001836020036101000a031916815260200191505b509250505060405180910390f35b341561028457600080fd5b61028c6107d0565b604051600160a060020a03909116815260200160405180910390f35b34156102b357600080fd5b61028c61083a565b604051600160a060020a03909116815260200160405180910390f35b34156102e257600080fd5b6102ea61083f565b60405190815260200160405180910390f35b341561030757600080fd5b6100d3600480359060446024803590810190830135806020601f8201819004810201604051908101604052818152929190602084018383808284378201915050505050509190803590602001908201803590602001908080601f0160208091040260200160405190810160405281815292919060208401838380828437509496506108a995505050505050565b604051901515815260200160405180910390f35b60006103b26107d0565b600160a060020a031633600160a060020a03161415156103d157600080fd5b6000547ff0879a5fd76e31f1bc558d25b1a3a2a9a0244de093e991cad67476ed37a64b4b90600160a060020a0316303385604051600160a060020a03808616825284811660208301528316604082015260806060820181815290820183818151815260200191508051906020019080838360005b8381101561045e5780820151818401525b602001610445565b50505050905090810190601f16801561048b5780820380516001836020036101000a031916815260200191505b509550505050505060405180910390a1600180546003919074ff0000000000000000000000000000000000000000191674010000000000000000000000000000000000000000835b0217905550600190505b5b919050565b6000426104ee61083f565b1190505b90565b6000805481908190819081908190819081908190819081908190600160a060020a031680631c32e7af8360405161016001526040518163ffffffff1660e060020a02815260040161016060405180830381600087803b151561055657600080fd5b6102c65a03f1151561056757600080fd5b5050506040518051906020018051906020018051906020018051906020018051906020018051906020018051906020018051906020018051906020018051906020018051905090919293949596979899509091929394959697985090919293949596975050809950819a50829b50839c50849d50859e50869f50505050505050506000809054906101000a9004600160a060020a03169b5061060761083a565b9c5080600160a060020a031663650d993b6000604051602001526040518163ffffffff1660e060020a028152600401602060405180830381600087803b151561064f57600080fd5b6102c65a03f1151561066057600080fd5b50505060405180519b5050600160a060020a0381166360d704db6000604051602001526040518163ffffffff1660e060020a028152600401602060405180830381600087803b15156106b157600080fd5b6102c65a03f115156106c257600080fd5b5050506040518051905099506106d66106e8565b91505b50909192939495969798999a9b565b60006106f26104e3565b156106ff575060026104f2565b5060015474010000000000000000000000000000000000000000900460ff166104f2565b5b90565b61072f610a1e565b60028054600181600116156101000203166002900480601f0160208091040260200160405190810160405280929190818152602001828054600181600116156101000203166002900480156107c55780601f1061079a576101008083540402835291602001916107c5565b820191906000526020600020905b8154815290600101906020018083116107a857829003601f168201915b505050505090505b90565b60008054600160a060020a03168063565a2e2c83604051602001526040518163ffffffff1660e060020a028152600401602060405180830381600087803b151561081957600080fd5b6102c65a03f1151561082a57600080fd5b50505060405180519250505b5090565b305b90565b60008054600160a060020a03168063b135648883604051602001526040518163ffffffff1660e060020a028152600401602060405180830381600087803b151561081957600080fd5b6102c65a03f1151561082a57600080fd5b50505060405180519250505b5090565b60006108b36107d0565b600160a060020a031633600160a060020a03161415156108d257600080fd5b6000547faaf064632bc55f6035508b0d1f414c2667ab939abf4a2fd354e94aaf9a5fc35590600160a060020a03163033878787604051600160a060020a0380881682528681166020830152851660408201526060810184905260c0608082018181529060a0830190830185818151815260200191508051906020019080838360005b8381101561096d5780820151818401525b602001610954565b50505050905090810190601f16801561099a5780820380516001836020036101000a031916815260200191505b50838103825284818151815260200191508051906020019080838360005b838110156109d15780820151818401525b6020016109b8565b50505050905090810190601f1680156109fe5780820380516001836020036101000a031916815260200191505b509850505050505050505060405180910390a1600080fd5b5b9392505050565b602060405190810160405260008152905600a165627a7a72305820a71f12c4272fb1e3cfb3b4633809c1d899d04a5770610cbcf4fd4babbf67d9f80029",
  "source": "pragma solidity ^0.4.11;\r\n\r\nimport \"./GuaranteeConst.sol\";\r\nimport \"./GuaranteeExtender.sol\";\r\nimport \"./GuaranteeRequestExtender.sol\";\r\n\r\ncontract DigitalGuaranteeBNHP is GuaranteeExtender\r\n{\r\n    address guaranteeRequestExtender;\r\n    address regulator;\r\n\r\n    GuaranteeState state;\r\n    bytes guaranteeIPFSHash;\r\n\r\n    event Issued(address  _requestId,address  _guaranteeId,address _msgSender,bytes _guaranteeIPFSHash);\r\n    event Terminated(address  _requestId,address  _guaranteeId,address _msgSender , string _comment);\r\n\r\n\r\n\r\n    function DigitalGuaranteeBNHP(address _guaranteeRequestExtender,address _regulator,bytes _guaranteeIPFSHash) {\r\n        guaranteeRequestExtender=_guaranteeRequestExtender;\r\n        regulator=_regulator;\r\n        guaranteeIPFSHash=_guaranteeIPFSHash;\r\n        state=GuaranteeState.Valid;\r\n        Issued(_guaranteeRequestExtender,this,msg.sender, _guaranteeIPFSHash);\r\n    }\r\n\r\n\r\n\r\n    function getId() constant public returns (address _contract_id)\r\n    {\r\n        return this;\r\n    }\r\n\r\n    function getBeneficiary() constant public returns (address _addr)\r\n    {\r\n        GuaranteeRequestExtender gr= GuaranteeRequestExtender(guaranteeRequestExtender);\r\n        return gr.getBeneficiary();\r\n    }\r\n\r\n    function getEndDate() constant public returns (uint _enddate)\r\n    {\r\n        GuaranteeRequestExtender gr= GuaranteeRequestExtender(guaranteeRequestExtender);\r\n        return gr.getEndDate();\r\n    }\r\n\r\n\r\n    function getGuaranteeData() constant public returns (address _contract_id,address _guaranteeRequest,address _customer,address _bank ,address _beneficiary, bytes32 _purpose,uint _amount,uint _startDate,uint _endDate,IndexType _indexType,uint _indexDate , GuaranteeState _guaranteeState)\r\n    {\r\n        GuaranteeRequestExtender gr= GuaranteeRequestExtender(guaranteeRequestExtender);\r\n\r\n//        ( , _customer, _bank,  _beneficiary,  _purpose, _amount, _startDate, _endDate, _indexType, _indexDate, ) =gr.getGuaranteeRequestData();\r\n        ( , , ,  _beneficiary, _purpose , _amount, _startDate, _endDate, _indexType, _indexDate, ) =gr.getGuaranteeRequestData();\r\n\r\n        _guaranteeRequest=guaranteeRequestExtender;\r\n        _contract_id=getId();\r\n        _customer=gr.getCustomer();\r\n        _bank=gr.getBank();\r\n        _guaranteeState=getGuaranteeState();\r\n\r\n    }\r\n\r\n    function getGuaranteeIPFSHash() constant public returns (bytes)\r\n    {\r\n        return guaranteeIPFSHash;\r\n    }\r\n\r\n\r\n\r\n\r\n    function getGuaranteeState() constant  public returns (GuaranteeState _guaranteeState)\r\n    {\r\n        if (isExpired())\r\n        {\r\n            return  GuaranteeState.Expaired;\r\n        }\r\n        else\r\n        {\r\n            return  state;\r\n        }\r\n\r\n    }\r\n\r\n\r\n\r\n    function terminate(string _comment) onlyBeneficiary public returns (bool)\r\n    {\r\n        Terminated(guaranteeRequestExtender,this,msg.sender, _comment);\r\n        state=GuaranteeState.Terminated;\r\n        //        GuaranteeRequestExtender(guaranteeRequestExtender).\r\n        return true;\r\n    }\r\n\r\n\r\n\r\n    event ChangeRequested(address  _requestId,address  _guaranteeId,address _msgSender,uint amount, string endDate,string comment);\r\n\r\n    function changeRequest(uint _amount, string _endDate, string _comment) onlyBeneficiary returns (bool)\r\n    {\r\n        ChangeRequested(guaranteeRequestExtender,this,msg.sender,_amount,  _endDate, _comment);\r\n        throw;\r\n    }\r\n\r\n\r\n}\r\n",
  "sourcePath": "/D/Projects/Poalim-Innov/contracts/DigitalGuaranteeBNHP.sol",
  "schemaVersion": "1.0.0",
  "updatedAt": "2017-10-02T09:18:26.976Z"
}