{
  "contractName": "DigitalGuaranteeBNHP",
  "abi": [
    {
      "constant": false,
      "inputs": [],
      "name": "terminate",
      "outputs": [
        {
          "name": "",
          "type": "bool"
        }
      ],
      "payable": false,
      "type": "function"
    },
    {
      "constant": true,
      "inputs": [],
      "name": "isExpired",
      "outputs": [
        {
          "name": "",
          "type": "bool"
        }
      ],
      "payable": false,
      "type": "function"
    },
    {
      "constant": true,
      "inputs": [],
      "name": "getGuaranteeData",
      "outputs": [
        {
          "name": "_contract_id",
          "type": "address"
        },
        {
          "name": "_guaranteeRequest",
          "type": "address"
        },
        {
          "name": "_customer",
          "type": "address"
        },
        {
          "name": "_bank",
          "type": "address"
        },
        {
          "name": "_beneficiary",
          "type": "address"
        },
        {
          "name": "_purpose",
          "type": "bytes32"
        },
        {
          "name": "_amount",
          "type": "uint256"
        },
        {
          "name": "_startDate",
          "type": "uint256"
        },
        {
          "name": "_endDate",
          "type": "uint256"
        },
        {
          "name": "_indexType",
          "type": "uint8"
        },
        {
          "name": "_indexDate",
          "type": "uint256"
        },
        {
          "name": "_guaranteeState",
          "type": "uint8"
        }
      ],
      "payable": false,
      "type": "function"
    },
    {
      "constant": true,
      "inputs": [],
      "name": "getGuaranteeState",
      "outputs": [
        {
          "name": "_guaranteeState",
          "type": "uint8"
        }
      ],
      "payable": false,
      "type": "function"
    },
    {
      "constant": true,
      "inputs": [],
      "name": "getGuaranteeIPFSHash",
      "outputs": [
        {
          "name": "",
          "type": "bytes"
        }
      ],
      "payable": false,
      "type": "function"
    },
    {
      "constant": true,
      "inputs": [],
      "name": "getBeneficiary",
      "outputs": [
        {
          "name": "_addr",
          "type": "address"
        }
      ],
      "payable": false,
      "type": "function"
    },
    {
      "constant": true,
      "inputs": [],
      "name": "getId",
      "outputs": [
        {
          "name": "_contract_id",
          "type": "address"
        }
      ],
      "payable": false,
      "type": "function"
    },
    {
      "constant": true,
      "inputs": [],
      "name": "getEndDate",
      "outputs": [
        {
          "name": "_enddate",
          "type": "uint256"
        }
      ],
      "payable": false,
      "type": "function"
    },
    {
      "inputs": [
        {
          "name": "_guaranteeRequestExtender",
          "type": "address"
        },
        {
          "name": "_regulator",
          "type": "address"
        },
        {
          "name": "_guaranteeIPFSHash",
          "type": "bytes"
        }
      ],
      "payable": false,
      "type": "constructor"
    },
    {
      "anonymous": false,
      "inputs": [
        {
          "indexed": false,
          "name": "_requestId",
          "type": "address"
        },
        {
          "indexed": false,
          "name": "_guaranteeId",
          "type": "address"
        },
        {
          "indexed": false,
          "name": "_msgSender",
          "type": "address"
        },
        {
          "indexed": false,
          "name": "_guaranteeIPFSHash",
          "type": "bytes"
        }
      ],
      "name": "Issued",
      "type": "event"
    },
    {
      "anonymous": false,
      "inputs": [
        {
          "indexed": false,
          "name": "_requestId",
          "type": "address"
        },
        {
          "indexed": false,
          "name": "_guaranteeId",
          "type": "address"
        },
        {
          "indexed": false,
          "name": "_msgSender",
          "type": "address"
        }
      ],
      "name": "Terminated",
      "type": "event"
    },
    {
      "anonymous": false,
      "inputs": [
        {
          "indexed": false,
          "name": "message",
          "type": "string"
        },
        {
          "indexed": false,
          "name": "logb",
          "type": "address"
        }
      ],
      "name": "loga",
      "type": "event"
    },
    {
      "anonymous": false,
      "inputs": [
        {
          "indexed": false,
          "name": "message",
          "type": "string"
        },
        {
          "indexed": false,
          "name": "logb",
          "type": "string"
        }
      ],
      "name": "log",
      "type": "event"
    }
  ],
  "bytecode": "0x6060604052341561000f57600080fd5b6040516109a63803806109a683398101604052808051919060200180519190602001805190910190505b60008054600160a060020a03808616600160a060020a0319928316179092556001805492851692909116919091179055600281805161007c929160200190610171565b5060018054819060a060020a60ff02191674010000000000000000000000000000000000000000825b02179055507f2a114794accc550a527ef87653abf0f6afacf18842782ec64db725729b83aeb883303384604051600160a060020a03808616825284811660208301528316604082015260806060820181815290820183818151815260200191508051906020019080838360005b8381101561012b5780820151818401525b602001610112565b50505050905090810190601f1680156101585780820380516001836020036101000a031916815260200191505b509550505050505060405180910390a15b505050610211565b828054600181600116156101000203166002900490600052602060002090601f016020900481019282601f106101b257805160ff19168380011785556101df565b828001600101855582156101df579182015b828111156101df5782518255916020019190600101906101c4565b5b506101ec9291506101f0565b5090565b61020e91905b808211156101ec57600081556001016101f6565b5090565b90565b610786806102206000396000f300606060405236156100725763ffffffff60e060020a6000350416630c08bf8881146100775780632f13b60c1461009e57806338e537b3146100c55780633a6facad1461016e578063488523bc146101a5578063565a2e2c146102305780635d1ca6311461025f578063b13564881461028e575b600080fd5b341561008257600080fd5b61008a6102b3565b604051901515815260200160405180910390f35b34156100a957600080fd5b61008a610382565b604051901515815260200160405180910390f35b34156100d057600080fd5b6100d8610394565b604051600160a060020a03808e1682528c811660208301528b811660408301528a811660608301528916608082015260a0810188905260c0810187905260e081018690526101008101859052610120810184600281111561013557fe5b60ff16815260200183815260200182600481111561014f57fe5b60ff1681526020019c5050505050505050505050505060405180910390f35b341561017957600080fd5b610181610587565b6040518082600481111561019157fe5b60ff16815260200191505060405180910390f35b34156101b057600080fd5b6101b86105c6565b60405160208082528190810183818151815260200191508051906020019080838360005b838110156101f55780820151818401525b6020016101dc565b50505050905090810190601f1680156102225780820380516001836020036101000a031916815260200191505b509250505060405180910390f35b341561023b57600080fd5b61024361066f565b604051600160a060020a03909116815260200160405180910390f35b341561026a57600080fd5b6102436106d9565b604051600160a060020a03909116815260200160405180910390f35b341561029957600080fd5b6102a16106de565b60405190815260200160405180910390f35b60006102bd61066f565b600160a060020a031633600160a060020a03161415156102dc57600080fd5b6000547fc96023adfc168f8f03b0a5cc6aaa47d9261d083467fb52f61a1854d5725771ca90600160a060020a03163033604051600160a060020a03938416815291831660208301529091166040808301919091526060909101905180910390a1600180546003919074ff0000000000000000000000000000000000000000191674010000000000000000000000000000000000000000835b0217905550600190505b5b90565b60004261038d6106de565b1190505b90565b6000805481908190819081908190819081908190819081908190600160a060020a031680631c32e7af8360405161016001526040518163ffffffff1660e060020a02815260040161016060405180830381600087803b15156103f557600080fd5b6102c65a03f1151561040657600080fd5b5050506040518051906020018051906020018051906020018051906020018051906020018051906020018051906020018051906020018051906020018051906020018051905090919293949596979899509091929394959697985090919293949596975050809950819a50829b50839c50849d50859e50869f50505050505050506000809054906101000a9004600160a060020a03169b506104a66106d9565b9c5080600160a060020a031663650d993b6000604051602001526040518163ffffffff1660e060020a028152600401602060405180830381600087803b15156104ee57600080fd5b6102c65a03f115156104ff57600080fd5b50505060405180519b5050600160a060020a0381166360d704db6000604051602001526040518163ffffffff1660e060020a028152600401602060405180830381600087803b151561055057600080fd5b6102c65a03f1151561056157600080fd5b505050604051805190509950610575610587565b91505b50909192939495969798999a9b565b6000610591610382565b1561059e5750600261037e565b5060015474010000000000000000000000000000000000000000900460ff1661037e565b5b90565b6105ce610748565b60028054600181600116156101000203166002900480601f0160208091040260200160405190810160405280929190818152602001828054600181600116156101000203166002900480156106645780601f1061063957610100808354040283529160200191610664565b820191906000526020600020905b81548152906001019060200180831161064757829003601f168201915b505050505090505b90565b60008054600160a060020a03168063565a2e2c83604051602001526040518163ffffffff1660e060020a028152600401602060405180830381600087803b15156106b857600080fd5b6102c65a03f115156106c957600080fd5b50505060405180519250505b5090565b305b90565b60008054600160a060020a03168063b135648883604051602001526040518163ffffffff1660e060020a028152600401602060405180830381600087803b15156106b857600080fd5b6102c65a03f115156106c957600080fd5b50505060405180519250505b5090565b602060405190810160405260008152905600a165627a7a72305820aea1be10424ed1d68a34818d47ab8a2db7f93bfeeff49410331720ec462fdfef0029",
  "source": "pragma solidity ^0.4.11;\n\nimport \"./GuaranteeConst.sol\";\nimport \"./GuaranteeExtender.sol\";\nimport \"./GuaranteeRequestExtender.sol\";\n\ncontract DigitalGuaranteeBNHP is GuaranteeExtender\n{\n    address guaranteeRequestExtender;\n    address regulator;\n\n    GuaranteeState state;\n    bytes guaranteeIPFSHash;\n\n    event Issued(address  _requestId,address  _guaranteeId,address _msgSender,bytes _guaranteeIPFSHash);\n    event Terminated(address  _requestId,address  _guaranteeId,address _msgSender );\n\n\n\n    function DigitalGuaranteeBNHP(address _guaranteeRequestExtender,address _regulator,bytes _guaranteeIPFSHash) {\n        guaranteeRequestExtender=_guaranteeRequestExtender;\n        regulator=_regulator;\n        guaranteeIPFSHash=_guaranteeIPFSHash;\n        state=GuaranteeState.Valid;\n        Issued(_guaranteeRequestExtender,this,msg.sender, _guaranteeIPFSHash);\n    }\n\n\n\n    function getId() constant public returns (address _contract_id)\n    {\n        return this;\n    }\n\n    function getBeneficiary() constant public returns (address _addr)\n    {\n        GuaranteeRequestExtender gr= GuaranteeRequestExtender(guaranteeRequestExtender);\n        return gr.getBeneficiary();\n    }\n\n    function getEndDate() constant public returns (uint _enddate)\n    {\n        GuaranteeRequestExtender gr= GuaranteeRequestExtender(guaranteeRequestExtender);\n        return gr.getEndDate();\n    }\n\n\n    function getGuaranteeData() constant public returns (address _contract_id,address _guaranteeRequest,address _customer,address _bank ,address _beneficiary, bytes32 _purpose,uint _amount,uint _startDate,uint _endDate,IndexType _indexType,uint _indexDate , GuaranteeState _guaranteeState)\n    {\n        GuaranteeRequestExtender gr= GuaranteeRequestExtender(guaranteeRequestExtender);\n\n//        ( , _customer, _bank,  _beneficiary,  _purpose, _amount, _startDate, _endDate, _indexType, _indexDate, ) =gr.getGuaranteeRequestData();\n        ( , , ,  _beneficiary, _purpose , _amount, _startDate, _endDate, _indexType, _indexDate, ) =gr.getGuaranteeRequestData();\n\n        _guaranteeRequest=guaranteeRequestExtender;\n        _contract_id=getId();\n        _customer=gr.getCustomer();\n        _bank=gr.getBank();\n        _guaranteeState=getGuaranteeState();\n\n    }\n\n    function getGuaranteeIPFSHash() constant public returns (bytes)\n    {\n        return guaranteeIPFSHash;\n    }\n\n\n\n\n    function getGuaranteeState() constant  public returns (GuaranteeState _guaranteeState)\n    {\n        if (isExpired())\n        {\n            return  GuaranteeState.Expaired;\n        }\n        else\n        {\n            return  state;\n        }\n\n    }\n\n\n\n    function terminate() onlyBeneficiary public returns (bool)\n    {\n        Terminated(guaranteeRequestExtender,this,msg.sender);\n        state=GuaranteeState.Terminated;\n\n        return true;\n    }\n\n\n\n//    event ChangeRequested(address  _requestId,address  _guaranteeId,address _msgSender,uint amount, string endDate,string comment);\n//\n//    function changeRequest(uint _amount, string _endDate, string _comment) onlyBeneficiary returns (bool)\n//    {\n//        ChangeRequested(guaranteeRequestExtender,this,msg.sender,_amount,  _endDate, _comment);\n//        throw;\n//    }\n\n\n}\n",
  "sourcePath": "/Users/dmitryshlymovich/workspace/ethereum-garanties/truffle_eth_bnhp/contracts/DigitalGuaranteeBNHP.sol",
  "schemaVersion": "1.0.0",
  "updatedAt": "2017-10-03T08:01:28.799Z"
}