{
  "contractName": "DigitalGuaranteeBNHP",
  "abi": [
    {
      "constant": true,
      "inputs": [],
      "name": "getState",
      "outputs": [
        {
          "name": "",
          "type": "uint8"
        }
      ],
      "payable": false,
      "type": "function"
    },
    {
      "constant": true,
      "inputs": [],
      "name": "isExpired",
      "outputs": [
        {
          "name": "",
          "type": "bool"
        }
      ],
      "payable": false,
      "type": "function"
    },
    {
      "constant": true,
      "inputs": [],
      "name": "getGuaranteeData",
      "outputs": [
        {
          "name": "_contract_id",
          "type": "address"
        },
        {
          "name": "_guaranteeRequest",
          "type": "address"
        },
        {
          "name": "_customer",
          "type": "address"
        },
        {
          "name": "_bank",
          "type": "address"
        },
        {
          "name": "_beneficiary",
          "type": "address"
        },
        {
          "name": "_full_name",
          "type": "bytes32"
        },
        {
          "name": "_purpose",
          "type": "bytes32"
        },
        {
          "name": "_amount",
          "type": "uint256"
        },
        {
          "name": "_startDate",
          "type": "uint256"
        },
        {
          "name": "_endDate",
          "type": "uint256"
        },
        {
          "name": "_indexType",
          "type": "uint8"
        },
        {
          "name": "_indexDate",
          "type": "uint256"
        },
        {
          "name": "_gState",
          "type": "uint8"
        }
      ],
      "payable": false,
      "type": "function"
    },
    {
      "constant": false,
      "inputs": [],
      "name": "close",
      "outputs": [],
      "payable": false,
      "type": "function"
    },
    {
      "constant": true,
      "inputs": [],
      "name": "getGuaranteeIPFSHash",
      "outputs": [
        {
          "name": "",
          "type": "bytes"
        }
      ],
      "payable": false,
      "type": "function"
    },
    {
      "constant": true,
      "inputs": [],
      "name": "getBeneficiary",
      "outputs": [
        {
          "name": "_addr",
          "type": "address"
        }
      ],
      "payable": false,
      "type": "function"
    },
    {
      "constant": true,
      "inputs": [],
      "name": "getId",
      "outputs": [
        {
          "name": "_contract_id",
          "type": "address"
        }
      ],
      "payable": false,
      "type": "function"
    },
    {
      "constant": true,
      "inputs": [],
      "name": "getGuaranteeRequest",
      "outputs": [
        {
          "name": "requestExtender",
          "type": "address"
        }
      ],
      "payable": false,
      "type": "function"
    },
    {
      "constant": true,
      "inputs": [],
      "name": "getOwner",
      "outputs": [
        {
          "name": "",
          "type": "address"
        }
      ],
      "payable": false,
      "type": "function"
    },
    {
      "constant": true,
      "inputs": [],
      "name": "owner",
      "outputs": [
        {
          "name": "",
          "type": "address"
        }
      ],
      "payable": false,
      "type": "function"
    },
    {
      "constant": false,
      "inputs": [
        {
          "name": "_newOwner",
          "type": "address"
        }
      ],
      "name": "changeOwner",
      "outputs": [],
      "payable": false,
      "type": "function"
    },
    {
      "constant": true,
      "inputs": [],
      "name": "getEndDate",
      "outputs": [
        {
          "name": "_enddate",
          "type": "uint256"
        }
      ],
      "payable": false,
      "type": "function"
    },
    {
      "constant": false,
      "inputs": [
        {
          "name": "_amount",
          "type": "uint256"
        },
        {
          "name": "_endDate",
          "type": "uint256"
        }
      ],
      "name": "changeRequest",
      "outputs": [],
      "payable": false,
      "type": "function"
    },
    {
      "constant": false,
      "inputs": [],
      "name": "terminateGuarantee",
      "outputs": [],
      "payable": false,
      "type": "function"
    },
    {
      "inputs": [
        {
          "name": "_guaranteeRequestExtender",
          "type": "address"
        },
        {
          "name": "_regulator",
          "type": "address"
        },
        {
          "name": "_guaranteeIPFSHash",
          "type": "bytes"
        }
      ],
      "payable": false,
      "type": "constructor"
    },
    {
      "anonymous": false,
      "inputs": [
        {
          "indexed": false,
          "name": "_requestId",
          "type": "address"
        },
        {
          "indexed": false,
          "name": "_guaranteeId",
          "type": "address"
        },
        {
          "indexed": false,
          "name": "_msgSender",
          "type": "address"
        },
        {
          "indexed": false,
          "name": "_guaranteeIPFSHash",
          "type": "bytes"
        },
        {
          "indexed": false,
          "name": "curentstatus",
          "type": "uint8"
        },
        {
          "indexed": false,
          "name": "timestamp",
          "type": "uint256"
        }
      ],
      "name": "Issued",
      "type": "event"
    },
    {
      "anonymous": false,
      "inputs": [
        {
          "indexed": false,
          "name": "_requestId",
          "type": "address"
        },
        {
          "indexed": false,
          "name": "_guaranteeId",
          "type": "address"
        },
        {
          "indexed": false,
          "name": "_msgSender",
          "type": "address"
        },
        {
          "indexed": false,
          "name": "curentstatus",
          "type": "uint8"
        },
        {
          "indexed": false,
          "name": "timestamp",
          "type": "uint256"
        }
      ],
      "name": "Terminated",
      "type": "event"
    },
    {
      "anonymous": false,
      "inputs": [
        {
          "indexed": false,
          "name": "_requestId",
          "type": "address"
        },
        {
          "indexed": false,
          "name": "_guaranteeId",
          "type": "address"
        },
        {
          "indexed": false,
          "name": "_msgSender",
          "type": "address"
        },
        {
          "indexed": false,
          "name": "amount",
          "type": "uint256"
        },
        {
          "indexed": false,
          "name": "endDate",
          "type": "uint256"
        },
        {
          "indexed": false,
          "name": "commentline",
          "type": "string"
        },
        {
          "indexed": false,
          "name": "curentstatus",
          "type": "uint8"
        },
        {
          "indexed": false,
          "name": "timestamp",
          "type": "uint256"
        }
      ],
      "name": "ChangeRequested",
      "type": "event"
    }
  ],
  "bytecode": "0x606060405260008054600160a060020a03191633600160a060020a0316179055341561002a57600080fd5b604051610d10380380610d1083398101604052808051919060200180519190602001805190910190505b60018054600160a060020a03808616600160a060020a031992831617909255600280549285169290911691909117905560038180516100979291602001906101bc565b50600280546001919060a060020a60ff02191674010000000000000000000000000000000000000000835b02179055507feeb6ffd7090cc72ad3fc8b9c2879f7b97d4f9eb9b2943c50a4cbab3931db090983303384600260149054906101000a900460ff1642604051600160a060020a038088168252868116602083015285166040820152606081016080820184600481111561013057fe5b60ff168152602001838152602001828103825285818151815260200191508051906020019080838360005b838110156101745780820151818401525b60200161015b565b50505050905090810190601f1680156101a15780820380516001836020036101000a031916815260200191505b5097505050505050505060405180910390a15b50505061025c565b828054600181600116156101000203166002900490600052602060002090601f016020900481019282601f106101fd57805160ff191683800117855561022a565b8280016001018555821561022a579182015b8281111561022a57825182559160200191906001019061020f565b5b5061023792915061023b565b5090565b61025991905b808211156102375760008155600101610241565b5090565b90565b610aa58061026b6000396000f300606060405236156100b45763ffffffff60e060020a6000350416631865c57d81146100b95780632f13b60c146100f057806338e537b31461011757806343d726d6146101c9578063488523bc146101de578063565a2e2c146102695780635d1ca6311461029857806388a22f7a146102c7578063893d20e8146102f65780638da5cb5b14610325578063a6f9dae114610354578063b135648814610375578063bea14fc11461039a578063c700c70d146103b5575b600080fd5b34156100c457600080fd5b6100cc6103ca565b604051808260048111156100dc57fe5b60ff16815260200191505060405180910390f35b34156100fb57600080fd5b610103610415565b604051901515815260200160405180910390f35b341561012257600080fd5b61012a610427565b604051600160a060020a03808f1682528d811660208301528c811660408301528b811660608301528a16608082015260a0810189905260c0810188905260e0810187905261010081018690526101208101859052610140810184600281111561018f57fe5b60ff1681526020018381526020018260048111156101a957fe5b60ff1681526020019d505050505050505050505050505060405180910390f35b34156101d457600080fd5b6101dc6106bd565b005b34156101e957600080fd5b6101f16106e9565b60405160208082528190810183818151815260200191508051906020019080838360005b8381101561022e5780820151818401525b602001610215565b50505050905090810190601f16801561025b5780820380516001836020036101000a031916815260200191505b509250505060405180910390f35b341561027457600080fd5b61027c610792565b604051600160a060020a03909116815260200160405180910390f35b34156102a357600080fd5b61027c6107fe565b604051600160a060020a03909116815260200160405180910390f35b34156102d257600080fd5b61027c610803565b604051600160a060020a03909116815260200160405180910390f35b341561030157600080fd5b61027c610813565b604051600160a060020a03909116815260200160405180910390f35b341561033057600080fd5b61027c610823565b604051600160a060020a03909116815260200160405180910390f35b341561035f57600080fd5b6101dc600160a060020a0360043516610832565b005b341561038057600080fd5b61038861088f565b60405190815260200160405180910390f35b34156103a557600080fd5b6101dc6004356024356108fb565b005b34156103c057600080fd5b6101dc6109a6565b005b600060015b60025460a060020a900460ff1660048111156103e757fe5b1415610402576103f5610415565b1561040257506002610412565b5b5060025460a060020a900460ff165b90565b60004261042061088f565b1090505b90565b600080600080600080600080600080600080600080600160009054906101000a9004600160a060020a0316905080600160a060020a0316631c32e7af60006040516101c001526040518163ffffffff1660e060020a0281526004016101c060405180830381600087803b151561049c57600080fd5b6102c65a03f115156104ad57600080fd5b50505060405180519060200180519060200180519060200180519060200180519060200180519060200180519060200180519060200180519060200180519060200180519060200180519060200180519060200180519050909192939495969798999a9b9c50909192939495969798999a9b50909192939495969798999a509091929394959697989950909150905050809950819a50829b50839c50849d50859e50869f5050505050505050600160009054906101000a9004600160a060020a03169c506105796107fe565b9d5080600160a060020a031663650d993b6000604051602001526040518163ffffffff1660e060020a028152600401602060405180830381600087803b15156105c157600080fd5b6102c65a03f115156105d257600080fd5b50505060405180519c5050600160a060020a0381166360d704db6000604051602001526040518163ffffffff1660e060020a028152600401602060405180830381600087803b151561062357600080fd5b6102c65a03f1151561063457600080fd5b50505060405180519b5050600160a060020a03811663565a2e2c6000604051602001526040518163ffffffff1660e060020a028152600401602060405180830381600087803b151561068557600080fd5b6102c65a03f1151561069657600080fd5b5050506040518051905099506106aa6103ca565b91505b50909192939495969798999a9b9c565b60005433600160a060020a039081169116146106d857600080fd5b600054600160a060020a0316ff5b5b565b6106f1610a67565b60038054600181600116156101000203166002900480601f0160208091040260200160405190810160405280929190818152602001828054600181600116156101000203166002900480156107875780601f1061075c57610100808354040283529160200191610787565b820191906000526020600020905b81548152906001019060200180831161076a57829003601f168201915b505050505090505b90565b600154600090600160a060020a03168063565a2e2c83604051602001526040518163ffffffff1660e060020a028152600401602060405180830381600087803b15156107dd57600080fd5b6102c65a03f115156107ee57600080fd5b50505060405180519250505b5090565b305b90565b600154600160a060020a03165b90565b600054600160a060020a03165b90565b600054600160a060020a031681565b60005433600160a060020a0390811691161461084d57600080fd5b600160a060020a038116151561086257600080fd5b6000805473ffffffffffffffffffffffffffffffffffffffff1916600160a060020a0383161790555b5b50565b600154600090600160a060020a03168063b135648883604051602001526040518163ffffffff1660e060020a028152600401602060405180830381600087803b15156107dd57600080fd5b6102c65a03f115156107ee57600080fd5b50505060405180519250505b5090565b7f4d3c9d0e5ee7cb52dbdaaf1fe7b04b94f5d6406283723738ce2a85d0d536998a6109246107fe565b303385856109306103ca565b42604051600160a060020a038089168252878116602083015286166040820152606081018590526080810184905260a0810160c0820184600481111561097257fe5b60ff1681526020018381526020018281038252600081526020016020019850505050505050505060405180910390a15b5050565b600280546003919074ff0000000000000000000000000000000000000000191660a060020a835b02179055506001547f6518c1da158fee6a2676b0f54a238f60b8607b47ed05a8ac7108a7a866c25fdd90600160a060020a0316610a086107fe565b600254339060a060020a900460ff1642604051600160a060020a03808716825285811660208301528416604082015260608101836004811115610a4757fe5b60ff1681526020018281526020019550505050505060405180910390a15b565b602060405190810160405260008152905600a165627a7a72305820bd05cc3c7275a1b826125b72e1e39e3bb576ad2c6932b78445980e3e692439e30029",
  "source": "pragma solidity ^0.4.11;\n\nimport \"./GuaranteeConst.sol\";\nimport \"./GuaranteeExtender.sol\";\nimport \"./GuaranteeRequestExtender.sol\";\nimport \"./Ownable.sol\";\n\ncontract DigitalGuaranteeBNHP is Ownable,GuaranteeExtender\n{\n    address guaranteeRequestExtender;\n    address regulator;\n\n    GuaranteeState gstate;\n    bytes guaranteeIPFSHash;\n\n    event Issued(address  _requestId,address  _guaranteeId,address _msgSender,bytes _guaranteeIPFSHash,GuaranteeState   curentstatus,uint timestamp);\n    event Terminated(address  _requestId,address  _guaranteeId,address _msgSender ,GuaranteeState   curentstatus,uint timestamp);\n\n    function getGuaranteeRequest() constant public returns (address requestExtender)\n    {\n        return guaranteeRequestExtender;\n    }\n\n\n    function DigitalGuaranteeBNHP(address _guaranteeRequestExtender,address _regulator,bytes _guaranteeIPFSHash) {\n        guaranteeRequestExtender=_guaranteeRequestExtender;\n        regulator=_regulator;\n        guaranteeIPFSHash=_guaranteeIPFSHash;\n        gstate=GuaranteeState.Valid;\n        Issued(_guaranteeRequestExtender,this,msg.sender, _guaranteeIPFSHash,gstate,now);\n    }\n\n\n\n    function getId() constant public returns (address _contract_id)\n    {\n        return this;\n    }\n\n    function getBeneficiary() constant public returns (address _addr)\n    {\n        GuaranteeRequestExtender gr= GuaranteeRequestExtender(guaranteeRequestExtender);\n        return gr.getBeneficiary();\n    }\n\n    function getEndDate() constant public returns (uint _enddate)\n    {\n        GuaranteeRequestExtender gr= GuaranteeRequestExtender(guaranteeRequestExtender);\n        return gr.getEndDate();\n    }\n\n\n    function getGuaranteeData() constant public returns (address _contract_id,address _guaranteeRequest,address _customer,address _bank ,address _beneficiary,bytes32 _full_name, bytes32 _purpose,uint _amount,uint _startDate,uint _endDate,IndexType _indexType,uint _indexDate , GuaranteeState _gState)\n    {\n        GuaranteeRequestExtender gr= GuaranteeRequestExtender(guaranteeRequestExtender);\n\n//        ( , _customer, _bank,  _beneficiary,  _purpose, _amount, _startDate, _endDate, _indexType, _indexDate, ) =gr.getGuaranteeRequestData();\n        ( , , ,  , _full_name, _purpose , _amount, _startDate, _endDate, _indexType, _indexDate, , ,) =gr.getGuaranteeRequestData();\n\n        _guaranteeRequest=guaranteeRequestExtender;\n        _contract_id=getId();\n        _customer=gr.getCustomer();\n        _bank=gr.getBank();\n        _beneficiary=gr.getBeneficiary();\n        _gState=getState();\n\n    }\n\n    function getGuaranteeIPFSHash() constant public returns (bytes)\n    {\n        return guaranteeIPFSHash;\n    }\n\n\n\n//    event AAA (uint nowtime,uint enddate,bool isExpired,GuaranteeState state);\n//    event BBB (uint nowtime,uint enddate,bool isExpired,GuaranteeState state);\n//    event CCC (uint nowtime,uint enddate,bool isExpired,GuaranteeState state);\n\n\n    function getState() constant  public returns (GuaranteeState )\n    {\n//        AAA(now,getEndDate(),getEndDate()<now,gstate);\n\n    if (gstate==GuaranteeState.Valid)\n        {\n//            BBB(now,getEndDate(),getEndDate()<now,gstate);\n\n        if (isExpired())\n            {\n//                CCC(now,getEndDate(),getEndDate()<now,gstate);\n\n            return  GuaranteeState.Expaired;\n            }\n        }\n\n            return  gstate;\n\n\n    }\n\n//    event AAA(GuaranteeState);\n\n    function terminateGuarantee()  public\n    {\n        gstate=GuaranteeState.Terminated;\n//    AAA(gstate);\n        Terminated(guaranteeRequestExtender,getId(),msg.sender,gstate,now);\n\n    }\n\n\n\n\n\n}\n",
  "sourcePath": "/Users/dmitryshlymovich/workspace/ethereum-garanties/truffle_eth_bnhp/contracts/DigitalGuaranteeBNHP.sol",
  "schemaVersion": "1.0.0",
  "updatedAt": "2017-11-21T05:24:43.159Z"
}