{
  "contractName": "DigitalGuaranteeBNHP",
  "abi": [
    {
      "constant": true,
      "inputs": [],
      "name": "getState",
      "outputs": [
        {
          "name": "",
          "type": "uint8"
        }
      ],
      "payable": false,
      "stateMutability": "view",
      "type": "function"
    },
    {
      "constant": true,
      "inputs": [],
      "name": "isExpired",
      "outputs": [
        {
          "name": "",
          "type": "bool"
        }
      ],
      "payable": false,
      "stateMutability": "view",
      "type": "function"
    },
    {
      "constant": true,
      "inputs": [],
      "name": "getGuaranteeData",
      "outputs": [
        {
          "name": "_contract_id",
          "type": "address"
        },
        {
          "name": "_guaranteeRequest",
          "type": "address"
        },
        {
          "name": "_customer",
          "type": "address"
        },
        {
          "name": "_bank",
          "type": "address"
        },
        {
          "name": "_beneficiary",
          "type": "address"
        },
        {
          "name": "_full_name",
          "type": "bytes32"
        },
        {
          "name": "_purpose",
          "type": "bytes32"
        },
        {
          "name": "_amount",
          "type": "uint256"
        },
        {
          "name": "_startDate",
          "type": "uint256"
        },
        {
          "name": "_endDate",
          "type": "uint256"
        },
        {
          "name": "_indexType",
          "type": "uint8"
        },
        {
          "name": "_indexDate",
          "type": "uint256"
        },
        {
          "name": "_gState",
          "type": "uint8"
        }
      ],
      "payable": false,
      "stateMutability": "view",
      "type": "function"
    },
    {
      "constant": false,
      "inputs": [],
      "name": "close",
      "outputs": [],
      "payable": false,
      "stateMutability": "nonpayable",
      "type": "function"
    },
    {
      "constant": true,
      "inputs": [],
      "name": "getGuaranteeIPFSHash",
      "outputs": [
        {
          "name": "",
          "type": "bytes"
        }
      ],
      "payable": false,
      "stateMutability": "view",
      "type": "function"
    },
    {
      "constant": true,
      "inputs": [],
      "name": "getBeneficiary",
      "outputs": [
        {
          "name": "_addr",
          "type": "address"
        }
      ],
      "payable": false,
      "stateMutability": "view",
      "type": "function"
    },
    {
      "constant": true,
      "inputs": [],
      "name": "getId",
      "outputs": [
        {
          "name": "_contract_id",
          "type": "address"
        }
      ],
      "payable": false,
      "stateMutability": "view",
      "type": "function"
    },
    {
      "constant": true,
      "inputs": [],
      "name": "getGuaranteeRequest",
      "outputs": [
        {
          "name": "requestExtender",
          "type": "address"
        }
      ],
      "payable": false,
      "stateMutability": "view",
      "type": "function"
    },
    {
      "constant": true,
      "inputs": [],
      "name": "getOwner",
      "outputs": [
        {
          "name": "",
          "type": "address"
        }
      ],
      "payable": false,
      "stateMutability": "view",
      "type": "function"
    },
    {
      "constant": true,
      "inputs": [],
      "name": "owner",
      "outputs": [
        {
          "name": "",
          "type": "address"
        }
      ],
      "payable": false,
      "stateMutability": "view",
      "type": "function"
    },
    {
      "constant": false,
      "inputs": [
        {
          "name": "_newOwner",
          "type": "address"
        }
      ],
      "name": "changeOwner",
      "outputs": [],
      "payable": false,
      "stateMutability": "nonpayable",
      "type": "function"
    },
    {
      "constant": true,
      "inputs": [],
      "name": "getEndDate",
      "outputs": [
        {
          "name": "_enddate",
          "type": "uint256"
        }
      ],
      "payable": false,
      "stateMutability": "view",
      "type": "function"
    },
    {
      "constant": false,
      "inputs": [
        {
          "name": "_amount",
          "type": "uint256"
        },
        {
          "name": "_endDate",
          "type": "uint256"
        }
      ],
      "name": "changeRequest",
      "outputs": [],
      "payable": false,
      "stateMutability": "nonpayable",
      "type": "function"
    },
    {
      "constant": false,
      "inputs": [],
      "name": "terminateGuarantee",
      "outputs": [],
      "payable": false,
      "stateMutability": "nonpayable",
      "type": "function"
    },
    {
      "inputs": [
        {
          "name": "_guaranteeRequestExtender",
          "type": "address"
        },
        {
          "name": "_regulator",
          "type": "address"
        },
        {
          "name": "_guaranteeIPFSHash",
          "type": "bytes"
        }
      ],
      "payable": false,
      "stateMutability": "nonpayable",
      "type": "constructor"
    },
    {
      "anonymous": false,
      "inputs": [
        {
          "indexed": false,
          "name": "_requestId",
          "type": "address"
        },
        {
          "indexed": false,
          "name": "_guaranteeId",
          "type": "address"
        },
        {
          "indexed": false,
          "name": "_msgSender",
          "type": "address"
        },
        {
          "indexed": false,
          "name": "_guaranteeIPFSHash",
          "type": "bytes"
        },
        {
          "indexed": false,
          "name": "curentstatus",
          "type": "uint8"
        },
        {
          "indexed": false,
          "name": "timestamp",
          "type": "uint256"
        }
      ],
      "name": "Issued",
      "type": "event"
    },
    {
      "anonymous": false,
      "inputs": [
        {
          "indexed": false,
          "name": "_requestId",
          "type": "address"
        },
        {
          "indexed": false,
          "name": "_guaranteeId",
          "type": "address"
        },
        {
          "indexed": false,
          "name": "_msgSender",
          "type": "address"
        },
        {
          "indexed": false,
          "name": "curentstatus",
          "type": "uint8"
        },
        {
          "indexed": false,
          "name": "timestamp",
          "type": "uint256"
        }
      ],
      "name": "Terminated",
      "type": "event"
    },
    {
      "anonymous": false,
      "inputs": [
        {
          "indexed": false,
          "name": "_requestId",
          "type": "address"
        },
        {
          "indexed": false,
          "name": "_guaranteeId",
          "type": "address"
        },
        {
          "indexed": false,
          "name": "_msgSender",
          "type": "address"
        },
        {
          "indexed": false,
          "name": "amount",
          "type": "uint256"
        },
        {
          "indexed": false,
          "name": "endDate",
          "type": "uint256"
        },
        {
          "indexed": false,
          "name": "commentline",
          "type": "string"
        },
        {
          "indexed": false,
          "name": "curentstatus",
          "type": "uint8"
        },
        {
          "indexed": false,
          "name": "timestamp",
          "type": "uint256"
        }
      ],
      "name": "ChangeRequested",
      "type": "event"
    }
  ],
  "bytecode": "0x6060604052336000806101000a81548173ffffffffffffffffffffffffffffffffffffffff021916908373ffffffffffffffffffffffffffffffffffffffff16021790555034156200005057600080fd5b60405162001364380380620013648339810160405280805190602001909190805190602001909190805182019190505082600160006101000a81548173ffffffffffffffffffffffffffffffffffffffff021916908373ffffffffffffffffffffffffffffffffffffffff16021790555081600260006101000a81548173ffffffffffffffffffffffffffffffffffffffff021916908373ffffffffffffffffffffffffffffffffffffffff16021790555080600390805190602001906200011a929190620002b2565b506001600260146101000a81548160ff021916908360048111156200013b57fe5b02179055507feeb6ffd7090cc72ad3fc8b9c2879f7b97d4f9eb9b2943c50a4cbab3931db090983303384600260149054906101000a900460ff1642604051808773ffffffffffffffffffffffffffffffffffffffff1673ffffffffffffffffffffffffffffffffffffffff1681526020018673ffffffffffffffffffffffffffffffffffffffff1673ffffffffffffffffffffffffffffffffffffffff1681526020018573ffffffffffffffffffffffffffffffffffffffff1673ffffffffffffffffffffffffffffffffffffffff168152602001806020018460048111156200022157fe5b60ff168152602001838152602001828103825285818151815260200191508051906020019080838360005b83811015620002695780820151818401526020810190506200024c565b50505050905090810190601f168015620002975780820380516001836020036101000a031916815260200191505b5097505050505050505060405180910390a150505062000361565b828054600181600116156101000203166002900490600052602060002090601f016020900481019282601f10620002f557805160ff191683800117855562000326565b8280016001018555821562000326579182015b828111156200032557825182559160200191906001019062000308565b5b50905062000335919062000339565b5090565b6200035e91905b808211156200035a57600081600090555060010162000340565b5090565b90565b610ff380620003716000396000f3006060604052600436106100d0576000357c0100000000000000000000000000000000000000000000000000000000900463ffffffff1680631865c57d146100d55780632f13b60c1461010c57806338e537b31461013957806343d726d6146102be578063488523bc146102d3578063565a2e2c146103615780635d1ca631146103b657806388a22f7a1461040b578063893d20e8146104605780638da5cb5b146104b5578063a6f9dae11461050a578063b135648814610543578063bea14fc11461056c578063c700c70d14610598575b600080fd5b34156100e057600080fd5b6100e86105ad565b604051808260048111156100f857fe5b60ff16815260200191505060405180910390f35b341561011757600080fd5b61011f61060a565b604051808215151515815260200191505060405180910390f35b341561014457600080fd5b61014c61061b565b604051808e73ffffffffffffffffffffffffffffffffffffffff1673ffffffffffffffffffffffffffffffffffffffff1681526020018d73ffffffffffffffffffffffffffffffffffffffff1673ffffffffffffffffffffffffffffffffffffffff1681526020018c73ffffffffffffffffffffffffffffffffffffffff1673ffffffffffffffffffffffffffffffffffffffff1681526020018b73ffffffffffffffffffffffffffffffffffffffff1673ffffffffffffffffffffffffffffffffffffffff1681526020018a73ffffffffffffffffffffffffffffffffffffffff1673ffffffffffffffffffffffffffffffffffffffff1681526020018960001916600019168152602001886000191660001916815260200187815260200186815260200185815260200184600281111561028457fe5b60ff16815260200183815260200182600481111561029e57fe5b60ff1681526020019d505050505050505050505050505060405180910390f35b34156102c957600080fd5b6102d1610964565b005b34156102de57600080fd5b6102e66109f9565b6040518080602001828103825283818151815260200191508051906020019080838360005b8381101561032657808201518184015260208101905061030b565b50505050905090810190601f1680156103535780820380516001836020036101000a031916815260200191505b509250505060405180910390f35b341561036c57600080fd5b610374610aa1565b604051808273ffffffffffffffffffffffffffffffffffffffff1673ffffffffffffffffffffffffffffffffffffffff16815260200191505060405180910390f35b34156103c157600080fd5b6103c9610b56565b604051808273ffffffffffffffffffffffffffffffffffffffff1673ffffffffffffffffffffffffffffffffffffffff16815260200191505060405180910390f35b341561041657600080fd5b61041e610b5e565b604051808273ffffffffffffffffffffffffffffffffffffffff1673ffffffffffffffffffffffffffffffffffffffff16815260200191505060405180910390f35b341561046b57600080fd5b610473610b88565b604051808273ffffffffffffffffffffffffffffffffffffffff1673ffffffffffffffffffffffffffffffffffffffff16815260200191505060405180910390f35b34156104c057600080fd5b6104c8610bb1565b604051808273ffffffffffffffffffffffffffffffffffffffff1673ffffffffffffffffffffffffffffffffffffffff16815260200191505060405180910390f35b341561051557600080fd5b610541600480803573ffffffffffffffffffffffffffffffffffffffff16906020019091905050610bd6565b005b341561054e57600080fd5b610556610c98565b6040518082815260200191505060405180910390f35b341561057757600080fd5b6105966004808035906020019091908035906020019091905050610d4d565b005b34156105a357600080fd5b6105ab610e6c565b005b6000600160048111156105bc57fe5b600260149054906101000a900460ff1660048111156105d757fe5b14156105f4576105e561060a565b156105f35760029050610607565b5b600260149054906101000a900460ff1690505b90565b600042610615610c98565b10905090565b600080600080600080600080600080600080600080600160009054906101000a900473ffffffffffffffffffffffffffffffffffffffff1690508073ffffffffffffffffffffffffffffffffffffffff16631c32e7af60006040516101c001526040518163ffffffff167c01000000000000000000000000000000000000000000000000000000000281526004016101c060405180830381600087803b15156106c357600080fd5b6102c65a03f115156106d457600080fd5b50505060405180519060200180519060200180519060200180519060200180519060200180519060200180519060200180519060200180519060200180519060200180519060200180519060200180519060200180519050909192939495969798999a9b9c50909192939495969798999a9b50909192939495969798999a509091929394959697989950909150905050809950819a50829b50839c50849d50859e50869f5050505050505050600160009054906101000a900473ffffffffffffffffffffffffffffffffffffffff169c506107ad610b56565b9d508073ffffffffffffffffffffffffffffffffffffffff1663650d993b6000604051602001526040518163ffffffff167c0100000000000000000000000000000000000000000000000000000000028152600401602060405180830381600087803b151561081b57600080fd5b6102c65a03f1151561082c57600080fd5b505050604051805190509b508073ffffffffffffffffffffffffffffffffffffffff166360d704db6000604051602001526040518163ffffffff167c0100000000000000000000000000000000000000000000000000000000028152600401602060405180830381600087803b15156108a457600080fd5b6102c65a03f115156108b557600080fd5b505050604051805190509a508073ffffffffffffffffffffffffffffffffffffffff1663565a2e2c6000604051602001526040518163ffffffff167c0100000000000000000000000000000000000000000000000000000000028152600401602060405180830381600087803b151561092d57600080fd5b6102c65a03f1151561093e57600080fd5b5050506040518051905099506109526105ad565b915050909192939495969798999a9b9c565b6000809054906101000a900473ffffffffffffffffffffffffffffffffffffffff1673ffffffffffffffffffffffffffffffffffffffff163373ffffffffffffffffffffffffffffffffffffffff161415156109bf57600080fd5b6000809054906101000a900473ffffffffffffffffffffffffffffffffffffffff1673ffffffffffffffffffffffffffffffffffffffff16ff5b610a01610fb3565b60038054600181600116156101000203166002900480601f016020809104026020016040519081016040528092919081815260200182805460018160011615610100020316600290048015610a975780601f10610a6c57610100808354040283529160200191610a97565b820191906000526020600020905b815481529060010190602001808311610a7a57829003601f168201915b5050505050905090565b600080600160009054906101000a900473ffffffffffffffffffffffffffffffffffffffff1690508073ffffffffffffffffffffffffffffffffffffffff1663565a2e2c6000604051602001526040518163ffffffff167c0100000000000000000000000000000000000000000000000000000000028152600401602060405180830381600087803b1515610b3557600080fd5b6102c65a03f11515610b4657600080fd5b5050506040518051905091505090565b600030905090565b6000600160009054906101000a900473ffffffffffffffffffffffffffffffffffffffff16905090565b60008060009054906101000a900473ffffffffffffffffffffffffffffffffffffffff16905090565b6000809054906101000a900473ffffffffffffffffffffffffffffffffffffffff1681565b6000809054906101000a900473ffffffffffffffffffffffffffffffffffffffff1673ffffffffffffffffffffffffffffffffffffffff163373ffffffffffffffffffffffffffffffffffffffff16141515610c3157600080fd5b60008173ffffffffffffffffffffffffffffffffffffffff161415610c5557600080fd5b806000806101000a81548173ffffffffffffffffffffffffffffffffffffffff021916908373ffffffffffffffffffffffffffffffffffffffff16021790555050565b600080600160009054906101000a900473ffffffffffffffffffffffffffffffffffffffff1690508073ffffffffffffffffffffffffffffffffffffffff1663b13564886000604051602001526040518163ffffffff167c0100000000000000000000000000000000000000000000000000000000028152600401602060405180830381600087803b1515610d2c57600080fd5b6102c65a03f11515610d3d57600080fd5b5050506040518051905091505090565b7f4d3c9d0e5ee7cb52dbdaaf1fe7b04b94f5d6406283723738ce2a85d0d536998a610d76610b56565b30338585610d826105ad565b42604051808873ffffffffffffffffffffffffffffffffffffffff1673ffffffffffffffffffffffffffffffffffffffff1681526020018773ffffffffffffffffffffffffffffffffffffffff1673ffffffffffffffffffffffffffffffffffffffff1681526020018673ffffffffffffffffffffffffffffffffffffffff1673ffffffffffffffffffffffffffffffffffffffff16815260200185815260200184815260200180602001846004811115610e3957fe5b60ff1681526020018381526020018281038252600081526020016020019850505050505050505060405180910390a15050565b6003600260146101000a81548160ff02191690836004811115610e8b57fe5b02179055507f6518c1da158fee6a2676b0f54a238f60b8607b47ed05a8ac7108a7a866c25fdd600160009054906101000a900473ffffffffffffffffffffffffffffffffffffffff16610edc610b56565b33600260149054906101000a900460ff1642604051808673ffffffffffffffffffffffffffffffffffffffff1673ffffffffffffffffffffffffffffffffffffffff1681526020018573ffffffffffffffffffffffffffffffffffffffff1673ffffffffffffffffffffffffffffffffffffffff1681526020018473ffffffffffffffffffffffffffffffffffffffff1673ffffffffffffffffffffffffffffffffffffffff168152602001836004811115610f9457fe5b60ff1681526020018281526020019550505050505060405180910390a1565b6020604051908101604052806000815250905600a165627a7a72305820b4d2fddc5d86f7d4a4302fa23a51828abfce66638640bd2852d36e803ce610e50029",
  "source": "pragma solidity ^0.4.11;\n\nimport \"./GuaranteeConst.sol\";\nimport \"./GuaranteeExtender.sol\";\nimport \"./GuaranteeRequestExtender.sol\";\nimport \"./Ownable.sol\";\n\ncontract DigitalGuaranteeBNHP is Ownable,GuaranteeExtender\n{\n    address guaranteeRequestExtender;\n    address regulator;\n\n    GuaranteeState gstate;\n    bytes guaranteeIPFSHash;\n\n    event Issued(address  _requestId,address  _guaranteeId,address _msgSender,bytes _guaranteeIPFSHash,GuaranteeState   curentstatus,uint timestamp);\n    event Terminated(address  _requestId,address  _guaranteeId,address _msgSender ,GuaranteeState   curentstatus,uint timestamp);\n\n    function getGuaranteeRequest() constant public returns (address requestExtender)\n    {\n        return guaranteeRequestExtender;\n    }\n\n\n    function DigitalGuaranteeBNHP(address _guaranteeRequestExtender,address _regulator,bytes _guaranteeIPFSHash) {\n        guaranteeRequestExtender=_guaranteeRequestExtender;\n        regulator=_regulator;\n        guaranteeIPFSHash=_guaranteeIPFSHash;\n        gstate=GuaranteeState.Valid;\n        Issued(_guaranteeRequestExtender,this,msg.sender, _guaranteeIPFSHash,gstate,now);\n    }\n\n\n\n    function getId() constant public returns (address _contract_id)\n    {\n        return this;\n    }\n\n    function getBeneficiary() constant public returns (address _addr)\n    {\n        GuaranteeRequestExtender gr= GuaranteeRequestExtender(guaranteeRequestExtender);\n        return gr.getBeneficiary();\n    }\n\n    function getEndDate() constant public returns (uint _enddate)\n    {\n        GuaranteeRequestExtender gr= GuaranteeRequestExtender(guaranteeRequestExtender);\n        return gr.getEndDate();\n    }\n\n\n    function getGuaranteeData() constant public returns (address _contract_id,address _guaranteeRequest,address _customer,address _bank ,address _beneficiary,bytes32 _full_name, bytes32 _purpose,uint _amount,uint _startDate,uint _endDate,IndexType _indexType,uint _indexDate , GuaranteeState _gState)\n    {\n        GuaranteeRequestExtender gr= GuaranteeRequestExtender(guaranteeRequestExtender);\n\n//        ( , _customer, _bank,  _beneficiary,  _purpose, _amount, _startDate, _endDate, _indexType, _indexDate, ) =gr.getGuaranteeRequestData();\n        ( , , ,  , _full_name, _purpose , _amount, _startDate, _endDate, _indexType, _indexDate, , ,) =gr.getGuaranteeRequestData();\n\n        _guaranteeRequest=guaranteeRequestExtender;\n        _contract_id=getId();\n        _customer=gr.getCustomer();\n        _bank=gr.getBank();\n        _beneficiary=gr.getBeneficiary();\n        _gState=getState();\n\n    }\n\n    function getGuaranteeIPFSHash() constant public returns (bytes)\n    {\n        return guaranteeIPFSHash;\n    }\n\n\n\n//    event AAA (uint nowtime,uint enddate,bool isExpired,GuaranteeState state);\n//    event BBB (uint nowtime,uint enddate,bool isExpired,GuaranteeState state);\n//    event CCC (uint nowtime,uint enddate,bool isExpired,GuaranteeState state);\n\n\n    function getState() constant  public returns (GuaranteeState )\n    {\n//        AAA(now,getEndDate(),getEndDate()<now,gstate);\n\n    if (gstate==GuaranteeState.Valid)\n        {\n//            BBB(now,getEndDate(),getEndDate()<now,gstate);\n\n        if (isExpired())\n            {\n//                CCC(now,getEndDate(),getEndDate()<now,gstate);\n\n            return  GuaranteeState.Expaired;\n            }\n        }\n\n            return  gstate;\n\n\n    }\n\n//    event AAA(GuaranteeState);\n\n    function terminateGuarantee()  public\n    {\n        gstate=GuaranteeState.Terminated;\n//    AAA(gstate);\n        Terminated(guaranteeRequestExtender,getId(),msg.sender,gstate,now);\n\n    }\n\n\n\n\n\n}\n",
  "sourcePath": "/Users/dmitryshlymovich/workspace/ethereum-garanties/truffle_eth_bnhp/contracts/DigitalGuaranteeBNHP.sol",
  "compiler": {
    "name": "solc",
    "version": "0.4.18+commit.9cf6e910.Emscripten.clang"
  },
  "schemaVersion": "1.0.1",
  "updatedAt": "2018-02-21T10:58:08.206Z"
}