{
  "contractName": "GuaranteeRequest",
  "abi": [
    {
      "constant": true,
      "inputs": [],
      "name": "getGuaranteeRequestData",
      "outputs": [
        {
          "name": "_contract_id",
          "type": "address"
        },
        {
          "name": "_customer",
          "type": "address"
        },
        {
          "name": "_bank",
          "type": "address"
        },
        {
          "name": "_beneficiary",
          "type": "address"
        },
        {
          "name": "_full_name",
          "type": "bytes32"
        },
        {
          "name": "_purpose",
          "type": "bytes32"
        },
        {
          "name": "_amount",
          "type": "uint256"
        },
        {
          "name": "_startDate",
          "type": "uint256"
        },
        {
          "name": "_endDate",
          "type": "uint256"
        },
        {
          "name": "_indexType",
          "type": "uint8"
        },
        {
          "name": "_indexDate",
          "type": "uint256"
        },
        {
          "name": "_status",
          "type": "uint8"
        }
      ],
      "payable": false,
      "type": "function"
    },
    {
      "constant": false,
      "inputs": [
        {
          "name": "comment",
          "type": "string"
        }
      ],
      "name": "reject",
      "outputs": [
        {
          "name": "result",
          "type": "bool"
        }
      ],
      "payable": false,
      "type": "function"
    },
    {
      "constant": false,
      "inputs": [
        {
          "name": "_guaranteeIPFSHash",
          "type": "bytes"
        }
      ],
      "name": "signComplite",
      "outputs": [
        {
          "name": "",
          "type": "address"
        }
      ],
      "payable": false,
      "type": "function"
    },
    {
      "constant": false,
      "inputs": [],
      "name": "accept",
      "outputs": [
        {
          "name": "result",
          "type": "bool"
        }
      ],
      "payable": false,
      "type": "function"
    },
    {
      "constant": false,
      "inputs": [
        {
          "name": "_newamount",
          "type": "uint256"
        },
        {
          "name": "_newendDate",
          "type": "uint256"
        }
      ],
      "name": "changeRequested",
      "outputs": [
        {
          "name": "result",
          "type": "bool"
        }
      ],
      "payable": false,
      "type": "function"
    },
    {
      "constant": true,
      "inputs": [],
      "name": "isExpired",
      "outputs": [
        {
          "name": "",
          "type": "bool"
        }
      ],
      "payable": false,
      "type": "function"
    },
    {
      "constant": false,
      "inputs": [],
      "name": "getGuaranteeAddress",
      "outputs": [
        {
          "name": "",
          "type": "address"
        }
      ],
      "payable": false,
      "type": "function"
    },
    {
      "constant": false,
      "inputs": [],
      "name": "close",
      "outputs": [],
      "payable": false,
      "type": "function"
    },
    {
      "constant": false,
      "inputs": [],
      "name": "setRegulator",
      "outputs": [],
      "payable": false,
      "type": "function"
    },
    {
      "constant": false,
      "inputs": [
        {
          "name": "comment",
          "type": "string"
        }
      ],
      "name": "withdrawal",
      "outputs": [
        {
          "name": "result",
          "type": "bool"
        }
      ],
      "payable": false,
      "type": "function"
    },
    {
      "constant": true,
      "inputs": [],
      "name": "version",
      "outputs": [
        {
          "name": "",
          "type": "string"
        }
      ],
      "payable": false,
      "type": "function"
    },
    {
      "constant": true,
      "inputs": [],
      "name": "getBeneficiary",
      "outputs": [
        {
          "name": "_beneficiary",
          "type": "address"
        }
      ],
      "payable": false,
      "type": "function"
    },
    {
      "constant": true,
      "inputs": [],
      "name": "getId",
      "outputs": [
        {
          "name": "_contract_id",
          "type": "address"
        }
      ],
      "payable": false,
      "type": "function"
    },
    {
      "constant": true,
      "inputs": [],
      "name": "getBank",
      "outputs": [
        {
          "name": "_bank",
          "type": "address"
        }
      ],
      "payable": false,
      "type": "function"
    },
    {
      "constant": true,
      "inputs": [],
      "name": "getCustomer",
      "outputs": [
        {
          "name": "",
          "type": "address"
        }
      ],
      "payable": false,
      "type": "function"
    },
    {
      "constant": true,
      "inputs": [],
      "name": "getOwner",
      "outputs": [
        {
          "name": "",
          "type": "address"
        }
      ],
      "payable": false,
      "type": "function"
    },
    {
      "constant": true,
      "inputs": [],
      "name": "owner",
      "outputs": [
        {
          "name": "",
          "type": "address"
        }
      ],
      "payable": false,
      "type": "function"
    },
    {
      "constant": true,
      "inputs": [],
      "name": "getRequestState",
      "outputs": [
        {
          "name": "",
          "type": "uint8"
        }
      ],
      "payable": false,
      "type": "function"
    },
    {
      "constant": false,
      "inputs": [
        {
          "name": "_newOwner",
          "type": "address"
        }
      ],
      "name": "changeOwner",
      "outputs": [],
      "payable": false,
      "type": "function"
    },
    {
      "constant": true,
      "inputs": [],
      "name": "getEndDate",
      "outputs": [
        {
          "name": "_date",
          "type": "uint256"
        }
      ],
      "payable": false,
      "type": "function"
    },
    {
      "constant": true,
      "inputs": [],
      "name": "isValid",
      "outputs": [
        {
          "name": "",
          "type": "bool"
        }
      ],
      "payable": false,
      "type": "function"
    },
    {
      "constant": true,
      "inputs": [],
      "name": "getProposalIPFSHash",
      "outputs": [
        {
          "name": "_proposalIPFSHash",
          "type": "bytes"
        }
      ],
      "payable": false,
      "type": "function"
    },
    {
      "constant": false,
      "inputs": [],
      "name": "terminateGuarantee",
      "outputs": [],
      "payable": false,
      "type": "function"
    },
    {
      "constant": false,
      "inputs": [],
      "name": "isChangeRequest",
      "outputs": [
        {
          "name": "",
          "type": "bool"
        }
      ],
      "payable": false,
      "type": "function"
    },
    {
      "constant": false,
      "inputs": [
        {
          "name": "comment",
          "type": "string"
        }
      ],
      "name": "submit",
      "outputs": [
        {
          "name": "result",
          "type": "bool"
        }
      ],
      "payable": false,
      "type": "function"
    },
    {
      "constant": true,
      "inputs": [],
      "name": "addresses",
      "outputs": [
        {
          "name": "bank",
          "type": "address"
        },
        {
          "name": "beneficiary",
          "type": "address"
        }
      ],
      "payable": false,
      "type": "function"
    },
    {
      "constant": false,
      "inputs": [
        {
          "name": "comment",
          "type": "string"
        },
        {
          "name": "_newState",
          "type": "uint8"
        }
      ],
      "name": "bankStateChange",
      "outputs": [
        {
          "name": "result",
          "type": "bool"
        }
      ],
      "payable": false,
      "type": "function"
    },
    {
      "constant": false,
      "inputs": [],
      "name": "getRegulator",
      "outputs": [
        {
          "name": "",
          "type": "address"
        }
      ],
      "payable": false,
      "type": "function"
    },
    {
      "inputs": [
        {
          "name": "_bank",
          "type": "address"
        },
        {
          "name": "_beneficiary",
          "type": "address"
        },
        {
          "name": "_full_name",
          "type": "bytes32"
        },
        {
          "name": "_purpose",
          "type": "bytes32"
        },
        {
          "name": "_amount",
          "type": "uint256"
        },
        {
          "name": "_startDate",
          "type": "uint256"
        },
        {
          "name": "_endDate",
          "type": "uint256"
        },
        {
          "name": "_indexType",
          "type": "uint8"
        },
        {
          "name": "_indexDate",
          "type": "uint256"
        },
        {
          "name": "_proposalIPFSHash",
          "type": "bytes"
        }
      ],
      "payable": false,
      "type": "constructor"
    },
    {
      "anonymous": false,
      "inputs": [
        {
          "indexed": true,
          "name": "requestId",
          "type": "address"
        },
        {
          "indexed": true,
          "name": "customer",
          "type": "address"
        },
        {
          "indexed": true,
          "name": "bank",
          "type": "address"
        },
        {
          "indexed": false,
          "name": "beneficiary",
          "type": "address"
        },
        {
          "indexed": false,
          "name": "curentstatus",
          "type": "uint8"
        },
        {
          "indexed": false,
          "name": "guarantyPurpose",
          "type": "bytes32"
        },
        {
          "indexed": false,
          "name": "requestAmount",
          "type": "uint256"
        },
        {
          "indexed": false,
          "name": "requestStartDate",
          "type": "uint256"
        },
        {
          "indexed": false,
          "name": "requestEndDate",
          "type": "uint256"
        },
        {
          "indexed": false,
          "name": "requestIndexType",
          "type": "uint8"
        },
        {
          "indexed": false,
          "name": "requestIndexDate",
          "type": "uint256"
        },
        {
          "indexed": false,
          "name": "timestamp",
          "type": "uint256"
        },
        {
          "indexed": false,
          "name": "proposalIPFSHash",
          "type": "bytes"
        }
      ],
      "name": "GuaranteeRequestCreated",
      "type": "event"
    },
    {
      "anonymous": false,
      "inputs": [
        {
          "indexed": true,
          "name": "requestId",
          "type": "address"
        },
        {
          "indexed": true,
          "name": "msgSender",
          "type": "address"
        },
        {
          "indexed": false,
          "name": "curentstatus",
          "type": "uint8"
        },
        {
          "indexed": false,
          "name": "commentline",
          "type": "string"
        },
        {
          "indexed": false,
          "name": "timestamp",
          "type": "uint256"
        }
      ],
      "name": "Submitted",
      "type": "event"
    },
    {
      "anonymous": false,
      "inputs": [
        {
          "indexed": true,
          "name": "requestId",
          "type": "address"
        },
        {
          "indexed": true,
          "name": "msgSender",
          "type": "address"
        },
        {
          "indexed": false,
          "name": "curentstatus",
          "type": "uint8"
        },
        {
          "indexed": false,
          "name": "commentline",
          "type": "string"
        },
        {
          "indexed": false,
          "name": "timestamp",
          "type": "uint256"
        }
      ],
      "name": "Withdrawal",
      "type": "event"
    },
    {
      "anonymous": false,
      "inputs": [
        {
          "indexed": true,
          "name": "requestId",
          "type": "address"
        },
        {
          "indexed": true,
          "name": "msgSender",
          "type": "address"
        },
        {
          "indexed": false,
          "name": "curentstatus",
          "type": "uint8"
        },
        {
          "indexed": false,
          "name": "timestamp",
          "type": "uint256"
        }
      ],
      "name": "Termination",
      "type": "event"
    },
    {
      "anonymous": false,
      "inputs": [
        {
          "indexed": true,
          "name": "requestId",
          "type": "address"
        },
        {
          "indexed": true,
          "name": "msgSender",
          "type": "address"
        },
        {
          "indexed": false,
          "name": "curentstatus",
          "type": "uint8"
        },
        {
          "indexed": false,
          "name": "commentline",
          "type": "string"
        },
        {
          "indexed": false,
          "name": "timestamp",
          "type": "uint256"
        }
      ],
      "name": "Rejected",
      "type": "event"
    },
    {
      "anonymous": false,
      "inputs": [
        {
          "indexed": true,
          "name": "requestId",
          "type": "address"
        },
        {
          "indexed": true,
          "name": "msgSender",
          "type": "address"
        },
        {
          "indexed": false,
          "name": "curentstatus",
          "type": "uint8"
        },
        {
          "indexed": false,
          "name": "commentline",
          "type": "string"
        },
        {
          "indexed": false,
          "name": "timestamp",
          "type": "uint256"
        }
      ],
      "name": "BankStateChange",
      "type": "event"
    },
    {
      "anonymous": false,
      "inputs": [
        {
          "indexed": true,
          "name": "requestId",
          "type": "address"
        },
        {
          "indexed": true,
          "name": "msgSender",
          "type": "address"
        },
        {
          "indexed": false,
          "name": "curentstatus",
          "type": "uint8"
        },
        {
          "indexed": false,
          "name": "timestamp",
          "type": "uint256"
        }
      ],
      "name": "Accepted",
      "type": "event"
    },
    {
      "anonymous": false,
      "inputs": [
        {
          "indexed": true,
          "name": "requestId",
          "type": "address"
        },
        {
          "indexed": true,
          "name": "guarantieId",
          "type": "address"
        },
        {
          "indexed": false,
          "name": "curentstatus",
          "type": "uint8"
        },
        {
          "indexed": false,
          "name": "timestamp",
          "type": "uint256"
        }
      ],
      "name": "GuarantieSigned",
      "type": "event"
    },
    {
      "anonymous": false,
      "inputs": [
        {
          "indexed": true,
          "name": "requestId",
          "type": "address"
        },
        {
          "indexed": true,
          "name": "guarantieId",
          "type": "address"
        },
        {
          "indexed": false,
          "name": "curentstatus",
          "type": "uint8"
        },
        {
          "indexed": false,
          "name": "timestamp",
          "type": "uint256"
        }
      ],
      "name": "GuarantieChangeSigned",
      "type": "event"
    },
    {
      "anonymous": false,
      "inputs": [
        {
          "indexed": true,
          "name": "requestId",
          "type": "address"
        },
        {
          "indexed": true,
          "name": "guarantieId",
          "type": "address"
        },
        {
          "indexed": false,
          "name": "newamount",
          "type": "uint256"
        },
        {
          "indexed": false,
          "name": "newendDate",
          "type": "uint256"
        },
        {
          "indexed": false,
          "name": "curentstatus",
          "type": "uint8"
        },
        {
          "indexed": false,
          "name": "timestamp",
          "type": "uint256"
        }
      ],
      "name": "GuarantieChangeRequested",
      "type": "event"
    }
  ],
  "bytecode": "0x6060604090815260008054600160a060020a03191633600160a060020a0316179055805190810160405260048082527f312e303000000000000000000000000000000000000000000000000000000000602083015290805162000067929160200190620002f6565b5034156200007457600080fd5b60405162002917380380620029178339810160405280805191906020018051919060200180519190602001805191906020018051919060200180519190602001805191906020018051919060200180519190602001805190910190505b60058054600160a060020a03808d16600160a060020a03199283161790925560068054928c1692909116919091179055600887905560098690556007889055600a859055600b849055600c805484919060ff191660018360028111156200013457fe5b0217905550600d829055600f80546000919060ff19166001835b0217905550600e81805162000168929160200190620002f6565b50600160a060020a038a166200018b64010000000062001329620002e182021704565b600160a060020a0316620001ac64010000000062001314620002f182021704565b600f54600160a060020a0391909116907f2fa3897c0f43ce3bb4755a179f18097a212d0dd14a0b2448aa4e511517dc973b908d9060ff168c8c8c8c8c8c428d604051600160a060020a038b168152602081018a60098111156200020b57fe5b60ff168152602081018a905260408101899052606081018890526080810187905260a0018560028111156200023c57fe5b60ff16815260200184815260200183815260200180602001828103825283818151815260200191508051906020019080838360005b838110156200028c5780820151818401525b60200162000271565b50505050905090810190601f168015620002ba5780820380516001836020036101000a031916815260200191505b509b50505050505050505050505060405180910390a45b5050505050505050505062000426565b600054600160a060020a03165b90565b305b90565b828054600181600116156101000203166002900490600052602060002090601f016020900481019282601f106200033957805160ff191683800117855562000369565b8280016001018555821562000369579182015b82811115620003695782518255916020019190600101906200034c565b5b506200037892915062000402565b5090565b828054600181600116156101000203166002900490600052602060002090601f016020900481019282601f106200033957805160ff191683800117855562000369565b8280016001018555821562000369579182015b82811115620003695782518255916020019190600101906200034c565b5b506200037892915062000402565b5090565b620002ee91905b8082111562000378576000815560010162000409565b5090565b90565b6124e180620004366000396000f300606060405236156200016b5763ffffffff60e060020a6000350416631c32e7af811462000170578063201c5cc1146200021d5780632259515b14620002855780632852b71c14620002f55780632beba68b146200031f5780632f13b60c146200034f5780633f40d18f146200037957806343d726d614620003ab5780634a0b20aa14620003c35780634a51c31c14620003db57806354fd4d501462000443578063565a2e2c14620004d45780635d1ca631146200050657806360d704db1462000538578063650d993b146200056a578063893d20e8146200056a5780638da5cb5b14620005ce578063a39152f21462000600578063a6f9dae1146200063b578063b1356488146200065f578063bb5d40eb1462000687578063c3287ea714620006b1578063c700c70d1462000742578063cded3737146200075a578063d99a8dc31462000784578063da0321cd14620007ec578063f40bd94a1462000826578063f7e317f41462000893575b600080fd5b34156200017c57600080fd5b62000186620008c5565b604051600160a060020a03808e1682528c811660208301528b811660408301528a1660608201526080810189905260a0810188905260c0810187905260e0810186905261010081018590526101208101846002811115620001e357fe5b60ff168152602001838152602001826009811115620001fe57fe5b60ff1681526020019c5050505050505050505050505060405180910390f35b34156200022957600080fd5b6200027160046024813581810190830135806020601f820181900481020160405190810160405281815292919060208401838380828437509496506200095895505050505050565b604051901515815260200160405180910390f35b34156200029157600080fd5b620002d960046024813581810190830135806020601f8201819004810201604051908101604052818152929190602084018383808284375094965062000a7c95505050505050565b604051600160a060020a03909116815260200160405180910390f35b34156200030157600080fd5b6200027162000e7d565b604051901515815260200160405180910390f35b34156200032b57600080fd5b6200027160043560243562000fa2565b604051901515815260200160405180910390f35b34156200035b57600080fd5b6200027162001097565b604051901515815260200160405180910390f35b34156200038557600080fd5b620002d9620010ab565b604051600160a060020a03909116815260200160405180910390f35b3415620003b757600080fd5b620003c1620010bb565b005b3415620003cf57600080fd5b620003c1620010e8565b005b3415620003e757600080fd5b6200027160046024813581810190830135806020601f820181900481020160405190810160405281815292919060208401838380828437509496506200111395505050505050565b604051901515815260200160405180910390f35b34156200044f57600080fd5b6200045962001262565b60405160208082528190810183818151815260200191508051906020019080838360005b83811015620004985780820151818401525b6020016200047d565b50505050905090810190601f168015620004c65780820380516001836020036101000a031916815260200191505b509250505060405180910390f35b3415620004e057600080fd5b620002d962001304565b604051600160a060020a03909116815260200160405180910390f35b34156200051257600080fd5b620002d962001314565b604051600160a060020a03909116815260200160405180910390f35b34156200054457600080fd5b620002d962001319565b604051600160a060020a03909116815260200160405180910390f35b34156200057657600080fd5b620002d962001329565b604051600160a060020a03909116815260200160405180910390f35b34156200057657600080fd5b620002d962001329565b604051600160a060020a03909116815260200160405180910390f35b3415620005da57600080fd5b620002d962001349565b604051600160a060020a03909116815260200160405180910390f35b34156200060c57600080fd5b6200061662001358565b604051808260098111156200062757fe5b60ff16815260200191505060405180910390f35b34156200064757600080fd5b620003c1600160a060020a036004351662001362565b005b34156200066b57600080fd5b62000675620013c1565b60405190815260200160405180910390f35b34156200069357600080fd5b62000271620013c8565b604051901515815260200160405180910390f35b3415620006bd57600080fd5b6200045962001406565b60405160208082528190810183818151815260200191508051906020019080838360005b83811015620004985780820151818401525b6020016200047d565b50505050905090810190601f168015620004c65780820380516001836020036101000a031916815260200191505b509250505060405180910390f35b34156200074e57600080fd5b620003c1620014b5565b005b34156200076657600080fd5b6200027162001562565b604051901515815260200160405180910390f35b34156200079057600080fd5b6200027160046024813581810190830135806020601f820181900481020160405190810160405281815292919060208401838380828437509496506200157495505050505050565b604051901515815260200160405180910390f35b3415620007f857600080fd5b62000802620016c1565b604051600160a060020a039283168152911660208201526040908101905180910390f35b34156200083257600080fd5b6200027160046024813581810190830135806020601f820181900481020160405190810160405281815292919060208401838380828437509496505050923560ff169250620016d7915050565b604051901515815260200160405180910390f35b34156200089f57600080fd5b620002d962001892565b604051600160a060020a03909116815260200160405180910390f35b600080600080600080600080600080600080620008e162001314565b9b50620008ed62001329565b9a50620008f962001319565b99506200090562001304565b9850600854965060095495506007549750600a549450600b549350600c60009054906101000a900460ff169250600d549150600f60009054906101000a900460ff1690505b909192939495969798999a9b565b600060065b600f5460ff1660098111156200096f57fe5b14156200097b57600080fd5b600f80546008919060ff19166001835b021790555033600160a060020a0316620009a462001314565b600f54600160a060020a0391909116907feb463c1ffd4e2e84feaf7746bb60dd6b9471dbbf9edd2b020a53869f796cd78d9060ff16854260405180846009811115620009ec57fe5b60ff16815260200180602001838152602001828103825284818151815260200191508051906020019080838360005b8381101562000a365780820151818401525b60200162000a1b565b50505050905090810190601f16801562000a645780820380516001836020036101000a031916815260200191505b5094505050505060405180910390a35060015b919050565b600254600090819033600160a060020a0390811691161462000a9d57600080fd5b60065b62000aaa62001358565b600981111562000ab657fe5b14801562000aca575062000aca83620018a2565b5b801562000af2575062000add62001892565b600160a060020a031633600160a060020a0316145b151562000afe57600080fd5b62000b0862001314565b62000b1262001892565b8462000b1d620018c0565b600160a060020a0380851682528316602082015260606040820181815290820183818151815260200191508051906020019080838360005b8381101562000b705780820151818401525b60200162000b55565b50505050905090810190601f16801562000b9e5780820380516001836020036101000a031916815260200191505b50945050505050604051809103906000f080151562000bbc57600080fd5b905080600160a060020a0316635d1ca6316000604051602001526040518163ffffffff1660e060020a028152600401602060405180830381600087803b151562000c0557600080fd5b6102c65a03f1151562000c1757600080fd5b50505060405180516003805473ffffffffffffffffffffffffffffffffffffffff1916600160a060020a03929092169190911790555062000c5762001562565b1562000d8f5780600160a060020a0316635d1ca6316000604051602001526040518163ffffffff1660e060020a028152600401602060405180830381600087803b151562000ca457600080fd5b6102c65a03f1151562000cb657600080fd5b50505060405180519050600160a060020a031662000cd362001314565b600f54600160a060020a0391909116907f5cf2a7101a7acad9a26aabd8c2b95e616fa3c5c8e93e3f30419151a370f4ef349060ff16426040518083600981111562000d1a57fe5b60ff1681526020018281526020019250505060405180910390a3600154600160a060020a031663c700c70d6040518163ffffffff1660e060020a028152600401600060405180830381600087803b151562000d7457600080fd5b6102c65a03f1151562000d8657600080fd5b50505062000e67565b80600160a060020a0316635d1ca6316000604051602001526040518163ffffffff1660e060020a028152600401602060405180830381600087803b151562000dd657600080fd5b6102c65a03f1151562000de857600080fd5b50505060405180519050600160a060020a031662000e0562001314565b600f54600160a060020a0391909116907f9f3a4dc4a2920969299d37a1a55dc00ce978fe5e0ac8b2a4d87fbe66fd4d283b9060ff16426040518083600981111562000e4c57fe5b60ff1681526020018281526020019250505060405180910390a35b600354600160a060020a031691505b5b50919050565b60025460009033600160a060020a0390811691161462000e9c57600080fd5b60015b600f5460ff16600981111562000eb157fe5b148062000ed0575060025b600f5460ff16600981111562000ece57fe5b145b8062000eee575060075b600f5460ff16600981111562000eec57fe5b145b801562000f045750600354600160a060020a0316155b151562000f1057600080fd5b600f80546006919060ff19166001835b021790555033600160a060020a031662000f3962001314565b600f54600160a060020a0391909116907f89e5f8cd748cff430d9087f4e0e0ef20acd32d0e6686df96c89d726e35e68ab59060ff16426040518083600981111562000f8057fe5b60ff1681526020018281526020019250505060405180910390a35060015b5b90565b60025460009033600160a060020a0390811691161462000fc157600080fd5b6003546001805473ffffffffffffffffffffffffffffffffffffffff1916600160a060020a03909216919091178155600f805460ff191682805b0217905550600354600160a060020a03166200101662001314565b600160a060020a03167fb42cc91db936a84b66eef34e5d2852b519032c7921629568c4589c97396a5ad28585600f60009054906101000a900460ff1642604051808581526020018481526020018360098111156200107057fe5b60ff16815260200182815260200194505050505060405180910390a35060015b5b92915050565b600042620010a4620013c1565b1190505b90565b600354600160a060020a03165b90565b60005433600160a060020a03908116911614620010d757600080fd5b600054600160a060020a0316ff5b5b565b6002805473ffffffffffffffffffffffffffffffffffffffff191633600160a060020a03161790555b565b60006200111f62001329565b600160a060020a031633600160a060020a03161415156200113f57600080fd5b60065b600f5460ff1660098111156200115457fe5b14156200116057600080fd5b600f80546005919060ff19166001835b021790555033600160a060020a03166200118962001314565b600f54600160a060020a0391909116907fdc36f94f1c16d61fe684e365e0c2a72b23aebb7adedf5aaa22fab76156a7efe79060ff16854260405180846009811115620009ec57fe5b60ff16815260200180602001838152602001828103825284818151815260200191508051906020019080838360005b8381101562000a365780820151818401525b60200162000a1b565b50505050905090810190601f16801562000a645780820380516001836020036101000a031916815260200191505b5094505050505060405180910390a35060015b5b919050565b60048054600181600116156101000203166002900480601f016020809104026020016040519081016040528092919081815260200182805460018160011615610100020316600290048015620012fc5780601f10620012d057610100808354040283529160200191620012fc565b820191906000526020600020905b815481529060010190602001808311620012de57829003601f168201915b505050505081565b600654600160a060020a03165b90565b305b90565b600554600160a060020a03165b90565b600054600160a060020a03165b90565b600054600160a060020a03165b90565b600054600160a060020a031681565b600f5460ff165b90565b60005433600160a060020a039081169116146200137e57600080fd5b600160a060020a03811615156200139457600080fd5b6000805473ffffffffffffffffffffffffffffffffffffffff1916600160a060020a0383161790555b5b50565b600b545b90565b600080620013d562001319565b600160a060020a0316141580156200140057506000620013f462001304565b600160a060020a031614155b90505b90565b62001410620018d1565b600e8054600181600116156101000203166002900480601f016020809104026020016040519081016040528092919081815260200182805460018160011615610100020316600290048015620014aa5780601f106200147e57610100808354040283529160200191620014aa565b820191906000526020600020905b8154815290600101906020018083116200148c57829003601f168201915b505050505090505b90565b60065b600f5460ff166009811115620014ca57fe5b14620014d557600080fd5b600f80546009919060ff19166001835b021790555033600160a060020a0316620014fe62001314565b600f54600160a060020a0391909116907fb045224df2b3987361a530219dd4444888d47a8e07af71c364c99fe7468f176f9060ff1642604051808360098111156200154557fe5b60ff1681526020018281526020019250505060405180910390a35b565b600154600160a060020a031615155b90565b60006200158062001329565b600160a060020a031633600160a060020a0316141515620015a057600080fd5b60005b600f5460ff166009811115620015b557fe5b14620015c057600080fd5b600f80546001919060ff191682805b021790555033600160a060020a0316620015e862001314565b600f54600160a060020a0391909116907fe10024035668761375cfcfe9cbd74261a7c93ffafc8059f85ba7477baf8749219060ff16854260405180846009811115620009ec57fe5b60ff16815260200180602001838152602001828103825284818151815260200191508051906020019080838360005b8381101562000a365780820151818401525b60200162000a1b565b50505050905090810190601f16801562000a645780820380516001836020036101000a031916815260200191505b5094505050505060405180910390a35060015b5b919050565b600554600654600160a060020a03918216911682565b6000620016e362001319565b600160a060020a031633600160a060020a03161415156200170357600080fd5b60015b600f5460ff1660098111156200171857fe5b148062001737575060025b600f5460ff1660098111156200173557fe5b145b801562001782575060025b8260098111156200174f57fe5b148062001769575060035b8260098111156200176757fe5b145b8062001782575060045b8260098111156200178057fe5b145b5b15156200178f57600080fd5b600f805483919060ff19166001836009811115620017a957fe5b021790555033600160a060020a0316620017c262001314565b600160a060020a03167f508c5c654e715d2dda84dde20b40b29a2b462944231ab692f10b091a38541a8d848642604051808460098111156200180057fe5b60ff16815260200180602001838152602001828103825284818151815260200191508051906020019080838360005b838110156200184a5780820151818401525b6020016200182f565b50505050905090810190601f168015620018785780820380516001836020036101000a031916815260200191505b5094505050505060405180910390a35060015b5b92915050565b600254600160a060020a03165b90565b60008082511115620018b75750600162000a77565b5060005b919050565b604051610bd280620018e483390190565b602060405190810160405260008152905600606060405260008054600160a060020a03191633600160a060020a0316179055341561002a57600080fd5b604051610bd2380380610bd283398101604052808051919060200180519190602001805190910190505b60018054600160a060020a03808616600160a060020a0319928316179092556002805492851692909116919091179055600381805161009792916020019061018e565b50600280546001919060a060020a60ff02191674010000000000000000000000000000000000000000835b02179055507f2a114794accc550a527ef87653abf0f6afacf18842782ec64db725729b83aeb883303384604051600160a060020a03808616825284811660208301528316604082015260806060820181815290820183818151815260200191508051906020019080838360005b838110156101485780820151818401525b60200161012f565b50505050905090810190601f1680156101755780820380516001836020036101000a031916815260200191505b509550505050505060405180910390a15b50505061022e565b828054600181600116156101000203166002900490600052602060002090601f016020900481019282601f106101cf57805160ff19168380011785556101fc565b828001600101855582156101fc579182015b828111156101fc5782518255916020019190600101906101e1565b5b5061020992915061020d565b5090565b61022b91905b808211156102095760008155600101610213565b5090565b90565b6109958061023d6000396000f300606060405236156100a95763ffffffff60e060020a6000350416632f13b60c81146100ae57806338e537b3146100d55780633a6facad1461018757806343d726d6146101be578063488523bc146101d3578063565a2e2c1461025e5780635d1ca6311461028d57806388a22f7a146102bc578063893d20e8146102eb5780638da5cb5b1461031a578063a6f9dae114610349578063b13564881461036a578063c700c70d1461038f575b600080fd5b34156100b957600080fd5b6100c16103a4565b604051901515815260200160405180910390f35b34156100e057600080fd5b6100e86103b6565b604051600160a060020a03808f1682528d811660208301528c811660408301528b811660608301528a16608082015260a0810189905260c0810188905260e0810187905261010081018690526101208101859052610140810184600281111561014d57fe5b60ff16815260200183815260200182600481111561016757fe5b60ff1681526020019d505050505050505050505050505060405180910390f35b341561019257600080fd5b61019a610633565b604051808260048111156101aa57fe5b60ff16815260200191505060405180910390f35b34156101c957600080fd5b6101d1610672565b005b34156101de57600080fd5b6101e661069e565b60405160208082528190810183818151815260200191508051906020019080838360005b838110156102235780820151818401525b60200161020a565b50505050905090810190601f1680156102505780820380516001836020036101000a031916815260200191505b509250505060405180910390f35b341561026957600080fd5b610271610747565b604051600160a060020a03909116815260200160405180910390f35b341561029857600080fd5b6102716107b3565b604051600160a060020a03909116815260200160405180910390f35b34156102c757600080fd5b6102716107b8565b604051600160a060020a03909116815260200160405180910390f35b34156102f657600080fd5b6102716107c8565b604051600160a060020a03909116815260200160405180910390f35b341561032557600080fd5b6102716107d8565b604051600160a060020a03909116815260200160405180910390f35b341561035457600080fd5b6101d1600160a060020a03600435166107e7565b005b341561037557600080fd5b61037d610844565b60405190815260200160405180910390f35b341561039a57600080fd5b6101d16108b0565b005b6000426103af610844565b1190505b90565b600080600080600080600080600080600080600080600160009054906101000a9004600160a060020a0316905080600160a060020a0316631c32e7af600060405161018001526040518163ffffffff1660e060020a02815260040161018060405180830381600087803b151561042b57600080fd5b6102c65a03f1151561043c57600080fd5b50505060405180519060200180519060200180519060200180519060200180519060200180519060200180519060200180519060200180519060200180519060200180519060200180519050909192939495969798999a5090919293949596979899509091929394959697985090919293949596975050809950819a50829b50839c50849d50859e50869f5050505050505050600160009054906101000a9004600160a060020a03169c506104ef6107b3565b9d5080600160a060020a031663650d993b6000604051602001526040518163ffffffff1660e060020a028152600401602060405180830381600087803b151561053757600080fd5b6102c65a03f1151561054857600080fd5b50505060405180519c5050600160a060020a0381166360d704db6000604051602001526040518163ffffffff1660e060020a028152600401602060405180830381600087803b151561059957600080fd5b6102c65a03f115156105aa57600080fd5b50505060405180519b5050600160a060020a03811663565a2e2c6000604051602001526040518163ffffffff1660e060020a028152600401602060405180830381600087803b15156105fb57600080fd5b6102c65a03f1151561060c57600080fd5b505050604051805190509950610620610633565b91505b50909192939495969798999a9b9c565b600061063d6103a4565b1561064a575060026103b3565b5060025474010000000000000000000000000000000000000000900460ff166103b3565b5b90565b60005433600160a060020a0390811691161461068d57600080fd5b600054600160a060020a0316ff5b5b565b6106a6610957565b60038054600181600116156101000203166002900480601f01602080910402602001604051908101604052809291908181526020018280546001816001161561010002031660029004801561073c5780601f106107115761010080835404028352916020019161073c565b820191906000526020600020905b81548152906001019060200180831161071f57829003601f168201915b505050505090505b90565b600154600090600160a060020a03168063565a2e2c83604051602001526040518163ffffffff1660e060020a028152600401602060405180830381600087803b151561079257600080fd5b6102c65a03f115156107a357600080fd5b50505060405180519250505b5090565b305b90565b600154600160a060020a03165b90565b600054600160a060020a03165b90565b600054600160a060020a031681565b60005433600160a060020a0390811691161461080257600080fd5b600160a060020a038116151561081757600080fd5b6000805473ffffffffffffffffffffffffffffffffffffffff1916600160a060020a0383161790555b5b50565b600154600090600160a060020a03168063b135648883604051602001526040518163ffffffff1660e060020a028152600401602060405180830381600087803b151561079257600080fd5b6102c65a03f115156107a357600080fd5b50505060405180519250505b5090565b600280546003919074ff0000000000000000000000000000000000000000191674010000000000000000000000000000000000000000835b02179055506001547fc96023adfc168f8f03b0a5cc6aaa47d9261d083467fb52f61a1854d5725771ca90600160a060020a03166109236107b3565b33604051600160a060020a03938416815291831660208301529091166040808301919091526060909101905180910390a15b565b602060405190810160405260008152905600a165627a7a7230582022ab16dad4c3826d9a70575f3ba5ce80c87ea1a17c3af877ac3d339b3a685cdc0029a165627a7a7230582012e8c30bff20a6fa959f6de1bf35d191455bbcb0ea897c38118698d555a9f9940029",
  "source": "pragma solidity ^0.4.13;\n\nimport \"./GuaranteeConst.sol\";\nimport \"./GuaranteeRequestExtender.sol\";\nimport \"./GuaranteeExtender.sol\";\nimport \"./DigitalGuaranteeBNHP.sol\";\n\ncontract GuaranteeRequest is GuaranteeRequestExtender{\n    string public version = \"1.00\";\n\n    //holds the addresses of the participating parties for demo reasons\n    struct Addresses {\n\n    address bank;\n//    address customer;\n    address beneficiary;\n\n    }\n\n    Addresses public addresses;\n\n    bytes32  full_name;\n\n    bytes32  purpose;\n    uint  amount;\n    uint  startDate;\n    uint  endDate;\n\n    IndexType  indexType;\n    uint  indexDate;\n\n    bytes  proposalIPFSHash;\n//    bytes  guaranteeIPFSHash;\n\n    RequestState   status;\n\n//    int  stepNumber;\n\n\n\n//    event Comment(address indexed requestId,int  numberOfStep,RequestState requestState,string commentline,uint timestamp) ;\n\n\n    event GuaranteeRequestCreated (address indexed requestId,address indexed customer ,address indexed bank ,address  beneficiary ,RequestState   curentstatus,bytes32 guarantyPurpose,\n    uint requestAmount, uint requestStartDate,uint requestEndDate,IndexType requestIndexType,uint requestIndexDate,uint timestamp,bytes  proposalIPFSHash);\n\n//    function GuaranteeRequest(address  _regulator,address _customer ,address _bank ,address _beneficiary ,bytes32 _purpose,\n//    uint _amount, uint _startDate,uint _endDate,IndexType _indexType,uint _indexDate)\n//    {\n//        regulator=_regulator;\n//        //        Addresses memory addresses;\n//        addresses.bank=_bank;\n//        addresses.customer=_customer;\n//        addresses.beneficiary=_beneficiary;\n//        purpose=_purpose;\n//        amount=_amount;\n//        startDate=_startDate;\n//        endDate=_endDate;\n//        indexType= _indexType;\n//        indexDate= _indexDate;\n//        status=RequestState.created;\n//        stepNumber=0;\n//        GuaranteeRequestCreated(getId(),_customer , _bank,_beneficiary , _purpose,  _amount,  _startDate, _endDate, _indexType, _indexDate , now);\n//        Comment( getId(), stepNumber, status,\"\");\n//        // log(\"create request\",\"customer\"+_customer+\"bank\"+_bank+\"beneficiary\"+_beneficiary+\"amount\"+amount + \"startDate\"+startDate+\"endDate\"+endDate +\"...\");\n//\n//\n//    }\n\n    function GuaranteeRequest(address _bank ,address _beneficiary ,bytes32 _full_name ,bytes32 _purpose,\n    uint _amount, uint _startDate,uint _endDate,IndexType _indexType,uint _indexDate,bytes  _proposalIPFSHash)\n    {\n        addresses.bank=_bank;\n        addresses.beneficiary=_beneficiary;\n        purpose=_purpose;\n        amount=_amount;\n        full_name=_full_name;\n        startDate=_startDate;\n        endDate=_endDate;\n        indexType= _indexType;\n        indexDate= _indexDate;\n        status=RequestState.created;\n\n        proposalIPFSHash=  _proposalIPFSHash ;\n//        stepNumber=0;\n        GuaranteeRequestCreated(getId(),getCustomer() , _bank,_beneficiary ,   status, _purpose,  _amount,  _startDate, _endDate, _indexType, _indexDate , now ,_proposalIPFSHash);\n//        Comment( getId(), stepNumber, status,\"\");\n\n        // log(\"create request\",\"customer\"+_customer+\"bank\"+_bank+\"beneficiary\"+_beneficiary+\"amount\"+amount + \"startDate\"+startDate+\"endDate\"+endDate +\"...\");\n\n    }\n\n    function getId() constant public returns (address _contract_id)\n    {\n        return this;\n    }\n\n//    function getCustomer() constant public returns (address _customer)\n//    {\n//        return addresses.customer;\n//    }\n\n    function getBank() constant public returns (address _bank)\n    {\n        return addresses.bank;\n    }\n    function getBeneficiary() constant public returns (address _beneficiary)\n    {\n        return addresses.beneficiary;\n    }\n\n    function getEndDate() constant public returns (uint _date)\n    {\n        return endDate;\n    }\n\n\n\n    function getGuaranteeRequestData() constant public returns (address _contract_id,address _customer,address _bank, address _beneficiary,\n    bytes32 _full_name,bytes32 _purpose,uint _amount,uint _startDate,uint _endDate,IndexType _indexType,uint _indexDate,RequestState _status)\n    {\n\n        _contract_id=getId();\n        _customer=getCustomer();\n        _bank=getBank();\n        _beneficiary=getBeneficiary();\n        _purpose=purpose;\n        _amount=amount;\n        _full_name=full_name;\n        _startDate=startDate;\n        _endDate=endDate;\n        _indexType=indexType;\n        _indexDate=indexDate;\n        _status=status;\n    }\n    function getProposalIPFSHash() public constant returns (bytes _proposalIPFSHash)\n    {\n        return proposalIPFSHash;\n    }\n\n//    function setProposalIPFSHash(bytes _proposalIPFSHash) onlyCustomer public  returns (bool result)\n//    {\n//        require(status==RequestState.created);\n//        proposalIPFSHash=_proposalIPFSHash;\n//        return true;\n//    }\n\n    function getRequestState() public constant returns (RequestState)\n    {\n        return status;\n    }\n\n\n    event Submitted(address indexed requestId,address indexed msgSender,RequestState   curentstatus,string commentline ,uint timestamp);\n\n    //submit function to initiat the request\n    function submit(string comment) onlyCustomer public returns (bool result)\n\n    {\n        require(status==RequestState.created);\n//        stepNumber++;\n        status=RequestState.waitingtobank;\n\n        Submitted(getId(),msg.sender,   status,comment, now);\n        //        log(\"submitted\",getId()+\"->\"+comment);\n//        Comment( getId(),stepNumber, status,comment);\n\n        return true;\n    }\n\n\n    event Withdrawal(address indexed requestId,address indexed msgSender,RequestState   curentstatus,string commentline,uint timestamp);\n    //customer withdrawal request\n    function withdrawal(string comment) onlyCustomer public returns (bool result)\n    {\n        require(status!=RequestState.accepted);\n//        stepNumber++;\n       status=RequestState.withdrawed;\n        Withdrawal(getId(),msg.sender,   status,comment,now);\n        //        log(\"withdrawed\",getId()+\"->\"+comment);\n//        Comment(getId(), stepNumber, status,comment);\n\n        return true;\n    }\n\n    event Termination(address indexed  requestId,address indexed msgSender,RequestState   curentstatus,uint timestamp);\n    //bank reject request\n    function terminateGuarantee()  public\n    {\n        require(status==RequestState.accepted );\n//        stepNumber++;\n\n        status=RequestState.terminationRequest;\n        Termination(getId(),msg.sender,   status,now);\n//        Comment( getId(),stepNumber, status,_comment);\n        //         log(\"rejected\",getId()+\"->\"+comment);\n\n    }\n\n    event Rejected(address indexed requestId,address indexed msgSender,   RequestState   curentstatus,string commentline,uint timestamp);\n    //bank reject request\n    function reject(string comment)  public returns (bool result)\n    {\n        require(status!=RequestState.accepted);\n\n        status=RequestState.rejected;\n        Rejected(getId(),msg.sender,   status,comment,now);\n//        Comment( getId(),stepNumber, status,comment);\n\n        //         log(\"rejected\",getId()+\"->\"+comment);\n        return true;\n\n    }\n\n\n    event BankStateChange(address indexed requestId,address indexed msgSender,RequestState   curentstatus,string commentline,uint timestamp);\n    //bank reject request\n    function bankStateChange(string comment ,RequestState _newState) onlyBank public returns (bool result)\n    {\n        require((status==RequestState.waitingtobank      ||\n\n        status==RequestState.handling           ) &&\n        (_newState==RequestState.handling           ||\n        _newState==RequestState.waitingtocustomer  ||\n        _newState==RequestState.waitingtobeneficiery ));\n//        stepNumber++;\n        //        addCommentsForStep(stepNumber,comment);\n\n        status=_newState;\n        BankStateChange(getId(),msg.sender,_newState,comment,now);\n//        Comment( getId(),stepNumber, status,comment);\n\n        //         log(\"rejected\",getId()+\"->\"+comment);\n        return true;\n\n    }\n\n\n    event Accepted(address indexed requestId,address indexed msgSender ,RequestState   curentstatus,uint timestamp);\n    //bank accept request\n    function accept() onlyRegulator public returns (bool result)\n    {\n\n        require((status==RequestState.waitingtobank || status==RequestState.handling || status==RequestState.changeRequested)  && guarantee==address(0));\n\n        status=RequestState.accepted;\n        Accepted(getId(),msg.sender,   status,now);\n//        Comment( getId(),stepNumber, status,comment);\n        //        if (status!=RequestState.changeRequested)\n        //        {\n        //            GuaranteeRequest(changeRequest).\n        //            if (guarantee!= address(0))\n        //            {\n        //            GuaranteeExtender(guarantee).terminate();\n        //            }\n        //            addCommentsForStep(stepNumber,comment);\n        //            status=RequestState.terminationRequest;\n        //            Termination(getId(),msg.sender,comment);\n        //\n        //\n        //        }\n        return true;\n    }\n\n\n    event GuarantieSigned(address indexed requestId,address indexed  guarantieId,RequestState   curentstatus,uint timestamp);\n    event GuarantieChangeSigned(address indexed requestId,address indexed  guarantieId,RequestState   curentstatus,uint timestamp);\n\n    function signComplite(bytes _guaranteeIPFSHash) onlyRegulator public returns (address)\n    {\n        require( getRequestState()==RequestState.accepted && _checkArray(_guaranteeIPFSHash) && msg.sender == getRegulator());\n        GuaranteeExtender gr= new DigitalGuaranteeBNHP(getId(),getRegulator(),_guaranteeIPFSHash);\n        guarantee=gr.getId();\n        if (isChangeRequest())\n        {\n            GuarantieChangeSigned(getId(),gr.getId(),   status,now);\n            GuaranteeExtender(changeRequestGuaranteeAdr).terminateGuarantee();\n        }\n    else\n        {\n            GuarantieSigned(getId(),gr.getId(),   status,now);\n        }\n\n        return guarantee;\n    }\n\n    event GuarantieChangeRequested(address indexed requestId,address indexed  guarantieId,uint newamount, uint newendDate,RequestState   curentstatus,uint timestamp);\n\n    function changeRequested(uint _newamount, uint _newendDate) onlyRegulator returns (bool result)\n    {\n        changeRequestGuaranteeAdr=guarantee;\n        status=RequestState.waitingtobank;\n        GuarantieChangeRequested(getId(),guarantee,_newamount,_newendDate,   status,now);\n\n    return true;\n    }\n\n\n}\n",
  "sourcePath": "/Users/dmitryshlymovich/workspace/ethereum-garanties/truffle_eth_bnhp/contracts/GuaranteeRequest.sol",
  "schemaVersion": "1.0.0",
  "updatedAt": "2017-10-18T18:15:45.310Z"
}