{
  "contractName": "GuaranteeRequest",
  "abi": [
    {
      "constant": false,
      "inputs": [],
      "name": "terminate",
      "outputs": [
        {
          "name": "result",
          "type": "bool"
        }
      ],
      "payable": false,
      "type": "function"
    },
    {
      "constant": false,
      "inputs": [
        {
          "name": "comment",
          "type": "string"
        }
      ],
      "name": "accept",
      "outputs": [
        {
          "name": "result",
          "type": "bool"
        }
      ],
      "payable": false,
      "type": "function"
    },
    {
      "constant": true,
      "inputs": [],
      "name": "getGuaranteeRequestData",
      "outputs": [
        {
          "name": "_contract_id",
          "type": "address"
        },
        {
          "name": "_customer",
          "type": "address"
        },
        {
          "name": "_bank",
          "type": "address"
        },
        {
          "name": "_beneficiary",
          "type": "address"
        },
        {
          "name": "_purpose",
          "type": "bytes32"
        },
        {
          "name": "_amount",
          "type": "uint256"
        },
        {
          "name": "_startDate",
          "type": "uint256"
        },
        {
          "name": "_endDate",
          "type": "uint256"
        },
        {
          "name": "_indexType",
          "type": "uint8"
        },
        {
          "name": "_indexDate",
          "type": "uint256"
        },
        {
          "name": "_status",
          "type": "uint8"
        }
      ],
      "payable": false,
      "type": "function"
    },
    {
      "constant": false,
      "inputs": [
        {
          "name": "comment",
          "type": "string"
        }
      ],
      "name": "reject",
      "outputs": [
        {
          "name": "result",
          "type": "bool"
        }
      ],
      "payable": false,
      "type": "function"
    },
    {
      "constant": false,
      "inputs": [
        {
          "name": "_proposalIPFSHash",
          "type": "bytes"
        }
      ],
      "name": "setProposalIPFSHash",
      "outputs": [
        {
          "name": "result",
          "type": "bool"
        }
      ],
      "payable": false,
      "type": "function"
    },
    {
      "constant": true,
      "inputs": [],
      "name": "isExpired",
      "outputs": [
        {
          "name": "",
          "type": "bool"
        }
      ],
      "payable": false,
      "type": "function"
    },
    {
      "constant": false,
      "inputs": [],
      "name": "close",
      "outputs": [],
      "payable": false,
      "type": "function"
    },
    {
      "constant": false,
      "inputs": [],
      "name": "setRegulator",
      "outputs": [],
      "payable": false,
      "type": "function"
    },
    {
      "constant": false,
      "inputs": [
        {
          "name": "comment",
          "type": "string"
        }
      ],
      "name": "withdrawal",
      "outputs": [
        {
          "name": "result",
          "type": "bool"
        }
      ],
      "payable": false,
      "type": "function"
    },
    {
      "constant": true,
      "inputs": [],
      "name": "version",
      "outputs": [
        {
          "name": "",
          "type": "string"
        }
      ],
      "payable": false,
      "type": "function"
    },
    {
      "constant": true,
      "inputs": [],
      "name": "getBeneficiary",
      "outputs": [
        {
          "name": "_beneficiary",
          "type": "address"
        }
      ],
      "payable": false,
      "type": "function"
    },
    {
      "constant": true,
      "inputs": [],
      "name": "getId",
      "outputs": [
        {
          "name": "_contract_id",
          "type": "address"
        }
      ],
      "payable": false,
      "type": "function"
    },
    {
      "constant": true,
      "inputs": [],
      "name": "getBank",
      "outputs": [
        {
          "name": "_bank",
          "type": "address"
        }
      ],
      "payable": false,
      "type": "function"
    },
    {
      "constant": true,
      "inputs": [],
      "name": "getCustomer",
      "outputs": [
        {
          "name": "",
          "type": "address"
        }
      ],
      "payable": false,
      "type": "function"
    },
    {
      "constant": true,
      "inputs": [],
      "name": "getOwner",
      "outputs": [
        {
          "name": "",
          "type": "address"
        }
      ],
      "payable": false,
      "type": "function"
    },
    {
      "constant": true,
      "inputs": [],
      "name": "owner",
      "outputs": [
        {
          "name": "",
          "type": "address"
        }
      ],
      "payable": false,
      "type": "function"
    },
    {
      "constant": true,
      "inputs": [],
      "name": "getRequestState",
      "outputs": [
        {
          "name": "",
          "type": "uint8"
        }
      ],
      "payable": false,
      "type": "function"
    },
    {
      "constant": false,
      "inputs": [
        {
          "name": "_newOwner",
          "type": "address"
        }
      ],
      "name": "changeOwner",
      "outputs": [],
      "payable": false,
      "type": "function"
    },
    {
      "constant": true,
      "inputs": [],
      "name": "getEndDate",
      "outputs": [
        {
          "name": "_date",
          "type": "uint256"
        }
      ],
      "payable": false,
      "type": "function"
    },
    {
      "constant": true,
      "inputs": [],
      "name": "isValid",
      "outputs": [
        {
          "name": "",
          "type": "bool"
        }
      ],
      "payable": false,
      "type": "function"
    },
    {
      "constant": true,
      "inputs": [],
      "name": "getProposalIPFSHash",
      "outputs": [
        {
          "name": "_proposalIPFSHash",
          "type": "bytes"
        }
      ],
      "payable": false,
      "type": "function"
    },
    {
      "constant": false,
      "inputs": [
        {
          "name": "comment",
          "type": "string"
        }
      ],
      "name": "submit",
      "outputs": [
        {
          "name": "result",
          "type": "bool"
        }
      ],
      "payable": false,
      "type": "function"
    },
    {
      "constant": true,
      "inputs": [],
      "name": "addresses",
      "outputs": [
        {
          "name": "bank",
          "type": "address"
        },
        {
          "name": "beneficiary",
          "type": "address"
        }
      ],
      "payable": false,
      "type": "function"
    },
    {
      "constant": false,
      "inputs": [
        {
          "name": "comment",
          "type": "string"
        },
        {
          "name": "_newState",
          "type": "uint8"
        }
      ],
      "name": "bankStateChange",
      "outputs": [
        {
          "name": "result",
          "type": "bool"
        }
      ],
      "payable": false,
      "type": "function"
    },
    {
      "inputs": [
        {
          "name": "_bank",
          "type": "address"
        },
        {
          "name": "_beneficiary",
          "type": "address"
        },
        {
          "name": "_purpose",
          "type": "bytes32"
        },
        {
          "name": "_amount",
          "type": "uint256"
        },
        {
          "name": "_startDate",
          "type": "uint256"
        },
        {
          "name": "_endDate",
          "type": "uint256"
        },
        {
          "name": "_indexType",
          "type": "uint8"
        },
        {
          "name": "_indexDate",
          "type": "uint256"
        }
      ],
      "payable": false,
      "type": "constructor"
    },
    {
      "anonymous": false,
      "inputs": [
        {
          "indexed": true,
          "name": "requestId",
          "type": "address"
        },
        {
          "indexed": false,
          "name": "numberOfStep",
          "type": "int256"
        },
        {
          "indexed": false,
          "name": "requestState",
          "type": "uint8"
        },
        {
          "indexed": false,
          "name": "commentline",
          "type": "string"
        }
      ],
      "name": "Comment",
      "type": "event"
    },
    {
      "anonymous": false,
      "inputs": [
        {
          "indexed": true,
          "name": "requestId",
          "type": "address"
        },
        {
          "indexed": true,
          "name": "customer",
          "type": "address"
        },
        {
          "indexed": true,
          "name": "bank",
          "type": "address"
        },
        {
          "indexed": false,
          "name": "beneficiary",
          "type": "address"
        },
        {
          "indexed": false,
          "name": "guarantyPurpose",
          "type": "bytes32"
        },
        {
          "indexed": false,
          "name": "requestAmount",
          "type": "uint256"
        },
        {
          "indexed": false,
          "name": "requestStartDate",
          "type": "uint256"
        },
        {
          "indexed": false,
          "name": "requestEndDate",
          "type": "uint256"
        },
        {
          "indexed": false,
          "name": "requestIndexType",
          "type": "uint8"
        },
        {
          "indexed": false,
          "name": "requestIndexDate",
          "type": "uint256"
        },
        {
          "indexed": false,
          "name": "timestamp",
          "type": "uint256"
        }
      ],
      "name": "GuaranteeRequestCreated",
      "type": "event"
    },
    {
      "anonymous": false,
      "inputs": [
        {
          "indexed": false,
          "name": "requestId",
          "type": "address"
        },
        {
          "indexed": true,
          "name": "msgSender",
          "type": "address"
        },
        {
          "indexed": false,
          "name": "comment",
          "type": "string"
        },
        {
          "indexed": false,
          "name": "_newstate",
          "type": "uint8"
        }
      ],
      "name": "Submitted",
      "type": "event"
    },
    {
      "anonymous": false,
      "inputs": [
        {
          "indexed": true,
          "name": "requestId",
          "type": "address"
        },
        {
          "indexed": true,
          "name": "msgSender",
          "type": "address"
        },
        {
          "indexed": false,
          "name": "comment",
          "type": "string"
        }
      ],
      "name": "Withdrawal",
      "type": "event"
    },
    {
      "anonymous": false,
      "inputs": [
        {
          "indexed": true,
          "name": "requestId",
          "type": "address"
        },
        {
          "indexed": true,
          "name": "msgSender",
          "type": "address"
        }
      ],
      "name": "Termination",
      "type": "event"
    },
    {
      "anonymous": false,
      "inputs": [
        {
          "indexed": true,
          "name": "requestId",
          "type": "address"
        },
        {
          "indexed": true,
          "name": "msgSender",
          "type": "address"
        },
        {
          "indexed": false,
          "name": "comment",
          "type": "string"
        }
      ],
      "name": "Rejected",
      "type": "event"
    },
    {
      "anonymous": false,
      "inputs": [
        {
          "indexed": true,
          "name": "requestId",
          "type": "address"
        },
        {
          "indexed": true,
          "name": "msgSender",
          "type": "address"
        },
        {
          "indexed": false,
          "name": "comment",
          "type": "string"
        },
        {
          "indexed": false,
          "name": "_newStat",
          "type": "uint8"
        }
      ],
      "name": "BankStateChange",
      "type": "event"
    },
    {
      "anonymous": false,
      "inputs": [
        {
          "indexed": true,
          "name": "requestId",
          "type": "address"
        },
        {
          "indexed": true,
          "name": "msgSender",
          "type": "address"
        },
        {
          "indexed": false,
          "name": "comment",
          "type": "string"
        }
      ],
      "name": "Accepted",
      "type": "event"
    },
    {
      "anonymous": false,
      "inputs": [
        {
          "indexed": false,
          "name": "message",
          "type": "string"
        },
        {
          "indexed": false,
          "name": "logb",
          "type": "address"
        }
      ],
      "name": "loga",
      "type": "event"
    },
    {
      "anonymous": false,
      "inputs": [
        {
          "indexed": false,
          "name": "message",
          "type": "string"
        },
        {
          "indexed": false,
          "name": "logb",
          "type": "string"
        }
      ],
      "name": "log",
      "type": "event"
    }
  ],
  "bytecode": "0x6060604090815260008054600160a060020a03191633600160a060020a0316179055805190810160405260048082527f312e303000000000000000000000000000000000000000000000000000000000602083015290805162000067929160200190620002cb565b5034156200007457600080fd5b604051610100806200218183398101604052808051919060200180519190602001805191906020018051919060200180519190602001805191906020018051919060200180519150505b60058054600160a060020a03808b16600160a060020a03199283161790925560068054928a1692909116919091179055600786905560088590556009849055600a839055600b805483919060ff191660018360028111156200011c57fe5b0217905550600c819055600e80546000919060ff19166001835b02179055506000600f55600160a060020a0388166200016264010000000062001505620002b682021704565b600160a060020a031662000183640100000000620014f0620002c682021704565b600160a060020a03167f664175ac67290bd08de0c5daebd9901c346cd61ad7afa4ab5a23078389dbc6728a8a8a8a8a8a8a42604051600160a060020a03891681526020810188905260408101879052606081018690526080810185905260a08101846002811115620001f157fe5b60ff1681526020018381526020018281526020019850505050505050505060405180910390a46200022f640100000000620014f0620002c682021704565b600f54600e54600160a060020a0392909216917fb1a46393ed5af437d2873216183052bae16cf1b3fe55a659caebd503ecf6f919919060ff16604051808381526020018260098111156200027f57fe5b60ff16815260200180602001828103825260008152602001602001935050505060405180910390a25b505050505050505062000375565b600054600160a060020a03165b90565b305b90565b828054600181600116156101000203166002900490600052602060002090601f016020900481019282601f106200030e57805160ff19168380011785556200033e565b828001600101855582156200033e579182015b828111156200033e57825182559160200191906001019062000321565b5b506200034d92915062000351565b5090565b620002c391905b808211156200034d576000815560010162000358565b5090565b90565b611dfc80620003856000396000f3006060604052361561013b5763ffffffff7c01000000000000000000000000000000000000000000000000000000006000350416630c08bf8881146101405780630fba4ca1146101675780631c32e7af146101cc578063201c5cc11461026b57806320ba6b63146102d05780632f13b60c1461033557806343d726d61461035c5780634a0b20aa146103715780634a51c31c1461038657806354fd4d50146103eb578063565a2e2c146104765780635d1ca631146104a557806360d704db146104d4578063650d993b14610503578063893d20e8146105035780638da5cb5b14610561578063a39152f214610590578063a6f9dae1146105c7578063b1356488146105e8578063bb5d40eb1461060d578063c3287ea714610634578063d99a8dc3146106bf578063da0321cd14610724578063f40bd94a1461075b575b600080fd5b341561014b57600080fd5b6101536107c5565b604051901515815260200160405180910390f35b341561017257600080fd5b61015360046024813581810190830135806020601f8201819004810201604051908101604052818152929190602084018383808284375094965061095795505050505050565b604051901515815260200160405180910390f35b34156101d757600080fd5b6101df610c76565b604051600160a060020a03808d1682528b811660208301528a81166040830152891660608201526080810188905260a0810187905260c0810186905260e08101859052610100810184600281111561023357fe5b60ff16815260200183815260200182600981111561024d57fe5b60ff1681526020019b50505050505050505050505060405180910390f35b341561027657600080fd5b61015360046024813581810190830135806020601f82018190048102016040519081016040528181529291906020840183838082843750949650610ceb95505050505050565b604051901515815260200160405180910390f35b34156102db57600080fd5b61015360046024813581810190830135806020601f82018190048102016040519081016040528181529291906020840183838082843750949650610fbc95505050505050565b604051901515815260200160405180910390f35b341561034057600080fd5b610153611108565b604051901515815260200160405180910390f35b341561036757600080fd5b61036f61111a565b005b341561037c57600080fd5b61036f611146565b005b341561039157600080fd5b61015360046024813581810190830135806020601f8201819004810201604051908101604052818152929190602084018383808284375094965061117195505050505050565b604051901515815260200160405180910390f35b34156103f657600080fd5b6103fe611442565b60405160208082528190810183818151815260200191508051906020019080838360005b8381101561043b5780820151818401525b602001610422565b50505050905090810190601f1680156104685780820380516001836020036101000a031916815260200191505b509250505060405180910390f35b341561048157600080fd5b6104896114e0565b604051600160a060020a03909116815260200160405180910390f35b34156104b057600080fd5b6104896114f0565b604051600160a060020a03909116815260200160405180910390f35b34156104df57600080fd5b6104896114f5565b604051600160a060020a03909116815260200160405180910390f35b341561050e57600080fd5b610489611505565b604051600160a060020a03909116815260200160405180910390f35b341561050e57600080fd5b610489611505565b604051600160a060020a03909116815260200160405180910390f35b341561056c57600080fd5b610489611525565b604051600160a060020a03909116815260200160405180910390f35b341561059b57600080fd5b6105a3611534565b604051808260098111156105b357fe5b60ff16815260200191505060405180910390f35b34156105d257600080fd5b61036f600160a060020a036004351661153e565b005b34156105f357600080fd5b6105fb61159b565b60405190815260200160405180910390f35b341561061857600080fd5b6101536115a2565b604051901515815260200160405180910390f35b341561063f57600080fd5b6103fe6115db565b60405160208082528190810183818151815260200191508051906020019080838360005b8381101561043b5780820151818401525b602001610422565b50505050905090810190601f1680156104685780820380516001836020036101000a031916815260200191505b509250505060405180910390f35b34156106ca57600080fd5b61015360046024813581810190830135806020601f8201819004810201604051908101604052818152929190602084018383808284375094965061168495505050505050565b604051901515815260200160405180910390f35b341561072f57600080fd5b610737611973565b604051600160a060020a039283168152911660208201526040908101905180910390f35b341561076657600080fd5b61015360046024813581810190830135806020601f820181900481020160405190810160405281815292919060208401838380828437509496505050923560ff169250611989915050565b604051901515815260200160405180910390f35b60015460009033600160a060020a0390811691161461086957600080516020611db183398151915233604051600160a060020a0390911660208201526040808252602c818301527f2323234552524f522d6e6f7420706572666f726d642062792042454e4546494360608301527f4945525920616464726573730000000000000000000000000000000000000000608083015260a0909101905180910390a1600080fd5b600080516020611db183398151915233604051600160a060020a0390911660208201526040808252601e818301527f23706173732042454e454649434945525920616374696f6e20636865636b000060608301526080909101905180910390a160065b600e5460ff1660098111156108dd57fe5b146108e757600080fd5b600f80546001908101909155600e805460099260ff1990911690835b021790555033600160a060020a031661091a6114f0565b600160a060020a03167f53ed5655b39c9bfbadb61ab4b1fab93f906848fad1b60638a7c533b9166ebb1660405160405180910390a35060015b5b90565b60006109616114f5565b600160a060020a031633600160a060020a0316141515610a0657600080516020611db183398151915233604051600160a060020a03909116602082015260408082526025818301527f2323234552524f522d6e6f7420706572666f726d642062792042414e4b20616460608301527f6472657373000000000000000000000000000000000000000000000000000000608083015260a0909101905180910390a1600080fd5b600080516020611db183398151915233604051600160a060020a03909116602082015260408082526017818301527f23706173732042414e4b20616374696f6e20636865636b00000000000000000060608301526080909101905180910390a160015b600e5460ff166009811115610a7a57fe5b1480610a97575060025b600e5460ff166009811115610a9557fe5b145b80610ab3575060075b600e5460ff166009811115610ab157fe5b145b8015610ac85750600254600160a060020a0316155b1515610ad357600080fd5b600f80546001908101909155600e805460069260ff1990911690835b021790555033600160a060020a0316610b066114f0565b600160a060020a03167f441dac543d3385dd1cb197d5c6a519a526cd36a348886e91b1efec1b67c761c78460405160208082528190810183818151815260200191508051906020019080838360005b83811015610b6e5780820151818401525b602001610b55565b50505050905090810190601f168015610b9b5780820380516001836020036101000a031916815260200191505b509250505060405180910390a3610bb06114f0565b600f54600e54600160a060020a039290921691600080516020611d91833981519152919060ff168560405180848152602001836009811115610bee57fe5b60ff16815260200180602001828103825283818151815260200191508051906020019080838360005b83811015610c305780820151818401525b602001610c17565b50505050905090810190601f168015610c5d5780820380516001836020036101000a031916815260200191505b5094505050505060405180910390a25060015b5b919050565b6000806000806000806000806000806000610c8f6114f0565b9a50610c99611505565b9950610ca36114f5565b9850610cad6114e0565b600754600854600954600a54600b54600c54600e54969e50949c50929a50909850965060ff90811695509093501690505b909192939495969798999a565b6000610cf56114f5565b600160a060020a031633600160a060020a0316141515610d9a57600080516020611db183398151915233604051600160a060020a03909116602082015260408082526025818301527f2323234552524f522d6e6f7420706572666f726d642062792042414e4b20616460608301527f6472657373000000000000000000000000000000000000000000000000000000608083015260a0909101905180910390a1600080fd5b600080516020611db183398151915233604051600160a060020a03909116602082015260408082526017818301527f23706173732042414e4b20616374696f6e20636865636b00000000000000000060608301526080909101905180910390a160065b600e5460ff166009811115610e0e57fe5b1415610e1957600080fd5b600f80546001908101909155600e805460089260ff1990911690835b021790555033600160a060020a0316610e4c6114f0565b600160a060020a03167fda2f632f096bf2ad2f47a8d41586871fec8fb96b5da18022d8bcf542f5851c848460405160208082528190810183818151815260200191508051906020019080838360005b83811015610b6e5780820151818401525b602001610b55565b50505050905090810190601f168015610b9b5780820380516001836020036101000a031916815260200191505b509250505060405180910390a3610bb06114f0565b600f54600e54600160a060020a039290921691600080516020611d91833981519152919060ff168560405180848152602001836009811115610bee57fe5b60ff16815260200180602001828103825283818151815260200191508051906020019080838360005b83811015610c305780820151818401525b602001610c17565b50505050905090810190601f168015610c5d5780820380516001836020036101000a031916815260200191505b5094505050505060405180910390a25060015b5b919050565b6000610fc6611505565b600160a060020a031633600160a060020a031614151561106b57600080516020611db183398151915233604051600160a060020a03909116602082015260408082526029818301527f2323234552524f522d6e6f7420706572666f726d6420627920435553544f4d4560608301527f5220616464726573730000000000000000000000000000000000000000000000608083015260a0909101905180910390a1600080fd5b600080516020611db183398151915233604051600160a060020a0390911660208201526040808252601b818301527f237061737320435553544f4d455220616374696f6e20636865636b000000000060608301526080909101905180910390a160005b600e5460ff1660098111156110df57fe5b146110e957600080fd5b600d8280516110fc929160200190611cde565b50600190505b5b919050565b60004261111361159b565b1190505b90565b60005433600160a060020a0390811691161461113557600080fd5b600054600160a060020a0316ff5b5b565b6001805473ffffffffffffffffffffffffffffffffffffffff191633600160a060020a03161790555b565b600061117b611505565b600160a060020a031633600160a060020a031614151561122057600080516020611db183398151915233604051600160a060020a03909116602082015260408082526029818301527f2323234552524f522d6e6f7420706572666f726d6420627920435553544f4d4560608301527f5220616464726573730000000000000000000000000000000000000000000000608083015260a0909101905180910390a1600080fd5b600080516020611db183398151915233604051600160a060020a0390911660208201526040808252601b818301527f237061737320435553544f4d455220616374696f6e20636865636b000000000060608301526080909101905180910390a160065b600e5460ff16600981111561129457fe5b141561129f57600080fd5b600f80546001908101909155600e805460059260ff1990911690835b021790555033600160a060020a03166112d26114f0565b600160a060020a03167fe2da84e37586f298e21b90158a7c3d1432e48167bd48d3b07bc64554b93e09788460405160208082528190810183818151815260200191508051906020019080838360005b83811015610b6e5780820151818401525b602001610b55565b50505050905090810190601f168015610b9b5780820380516001836020036101000a031916815260200191505b509250505060405180910390a3610bb06114f0565b600f54600e54600160a060020a039290921691600080516020611d91833981519152919060ff168560405180848152602001836009811115610bee57fe5b60ff16815260200180602001828103825283818151815260200191508051906020019080838360005b83811015610c305780820151818401525b602001610c17565b50505050905090810190601f168015610c5d5780820380516001836020036101000a031916815260200191505b5094505050505060405180910390a25060015b5b919050565b60048054600181600116156101000203166002900480601f0160208091040260200160405190810160405280929190818152602001828054600181600116156101000203166002900480156114d85780601f106114ad576101008083540402835291602001916114d8565b820191906000526020600020905b8154815290600101906020018083116114bb57829003601f168201915b505050505081565b600654600160a060020a03165b90565b305b90565b600554600160a060020a03165b90565b600054600160a060020a03165b90565b600054600160a060020a03165b90565b600054600160a060020a031681565b600e5460ff165b90565b60005433600160a060020a0390811691161461155957600080fd5b600160a060020a038116151561156e57600080fd5b6000805473ffffffffffffffffffffffffffffffffffffffff1916600160a060020a0383161790555b5b50565b600a545b90565b6000806115ad6114f5565b600160a060020a0316141580156115d5575060006115c96114e0565b600160a060020a031614155b90505b90565b6115e3611d5d565b600d8054600181600116156101000203166002900480601f0160208091040260200160405190810160405280929190818152602001828054600181600116156101000203166002900480156116795780601f1061164e57610100808354040283529160200191611679565b820191906000526020600020905b81548152906001019060200180831161165c57829003601f168201915b505050505090505b90565b600061168e611505565b600160a060020a031633600160a060020a031614151561173357600080516020611db183398151915233604051600160a060020a03909116602082015260408082526029818301527f2323234552524f522d6e6f7420706572666f726d6420627920435553544f4d4560608301527f5220616464726573730000000000000000000000000000000000000000000000608083015260a0909101905180910390a1600080fd5b600080516020611db183398151915233604051600160a060020a0390911660208201526040808252601b818301527f237061737320435553544f4d455220616374696f6e20636865636b000000000060608301526080909101905180910390a160005b600e5460ff1660098111156117a757fe5b146117b157600080fd5b600f80546001908101909155600e805460ff191682805b021790555033600160a060020a03167fe77ccb4da3e61d25149366678ffe2065ed7dd8120b89a3b86cb12c0ddd67fe816118006114f0565b600e54859060ff16604051600160a060020a0384168152602081016040820183600981111561182b57fe5b60ff168152602001828103825284818151815260200191508051906020019080838360005b838110156118695780820151818401525b602001611850565b50505050905090810190601f1680156118965780820380516001836020036101000a031916815260200191505b5094505050505060405180910390a2610bb06114f0565b600f54600e54600160a060020a039290921691600080516020611d91833981519152919060ff168560405180848152602001836009811115610bee57fe5b60ff16815260200180602001828103825283818151815260200191508051906020019080838360005b83811015610c305780820151818401525b602001610c17565b50505050905090810190601f168015610c5d5780820380516001836020036101000a031916815260200191505b5094505050505060405180910390a25060015b5b919050565b600554600654600160a060020a03918216911682565b60006119936114f5565b600160a060020a031633600160a060020a0316141515611a3857600080516020611db183398151915233604051600160a060020a03909116602082015260408082526025818301527f2323234552524f522d6e6f7420706572666f726d642062792042414e4b20616460608301527f6472657373000000000000000000000000000000000000000000000000000000608083015260a0909101905180910390a1600080fd5b600080516020611db183398151915233604051600160a060020a03909116602082015260408082526017818301527f23706173732042414e4b20616374696f6e20636865636b00000000000000000060608301526080909101905180910390a160015b600e5460ff166009811115611aac57fe5b1480611ac9575060025b600e5460ff166009811115611ac757fe5b145b8015611b0e575060025b826009811115611adf57fe5b1480611af7575060035b826009811115611af557fe5b145b80611b0e575060045b826009811115611b0c57fe5b145b5b1515611b1a57600080fd5b600f80546001908101909155600e8054849260ff1990911690836009811115611b3f57fe5b021790555033600160a060020a0316611b566114f0565b600160a060020a03167f143c3d208c24afb28544f8e77a5a17d950edc91faca57929c3b6da0e120b76ce85856040518080602001836009811115611b9657fe5b60ff168152602001828103825284818151815260200191508051906020019080838360005b83811015611bd45780820151818401525b602001611bbb565b50505050905090810190601f168015611c015780820380516001836020036101000a031916815260200191505b50935050505060405180910390a3611c176114f0565b600f54600e54600160a060020a039290921691600080516020611d91833981519152919060ff168660405180848152602001836009811115611c5557fe5b60ff16815260200180602001828103825283818151815260200191508051906020019080838360005b83811015611c975780820151818401525b602001611c7e565b50505050905090810190601f168015611cc45780820380516001836020036101000a031916815260200191505b5094505050505060405180910390a25060015b5b92915050565b828054600181600116156101000203166002900490600052602060002090601f016020900481019282601f10611d1f57805160ff1916838001178555611d4c565b82800160010185558215611d4c579182015b82811115611d4c578251825591602001919060010190611d31565b5b50611d59929150611d6f565b5090565b60206040519081016040526000815290565b61095391905b80821115611d595760008155600101611d75565b5090565b905600b1a46393ed5af437d2873216183052bae16cf1b3fe55a659caebd503ecf6f919236b00348b5f63ad39b5bf19bc802c1ff4b767fb408aa44d42597a4729fa7376a165627a7a723058206bc7ca8a534cbf389043963d3cb7d4ed7737ea804fb14b49f53cfe31dc8613a80029",
  "source": "pragma solidity ^0.4.13;\n\nimport \"./GuaranteeConst.sol\";\nimport \"./GuaranteeRequestExtender.sol\";\nimport \"./GuaranteeExtender.sol\";\nimport \"./DigitalGuaranteeBNHP.sol\";\n\ncontract GuaranteeRequest is GuaranteeRequestExtender{\n    string public version = \"1.00\";\n\n    //holds the addresses of the participating parties for demo reasons\n    struct Addresses {\n    address bank;\n//    address customer;\n    address beneficiary;\n    }\n\n    Addresses public addresses;\n\n    bytes32  purpose;\n    uint  amount;\n    uint  startDate;\n    uint  endDate;\n\n    IndexType  indexType;\n    uint  indexDate;\n\n    bytes  proposalIPFSHash;\n//    bytes  guaranteeIPFSHash;\n\n    RequestState   status;\n\n    int  stepNumber;\n\n    //describes the customer object\n    //    struct Comment {\n    //        int step;\n    //        string commentline;\n    //    }\n    //    Comment [] comments;\n\n    event Comment(address indexed requestId,int  numberOfStep,RequestState requestState,string commentline) ;\n\n\n    event GuaranteeRequestCreated (address indexed requestId,address indexed customer ,address indexed bank ,address  beneficiary ,bytes32 guarantyPurpose,\n    uint requestAmount, uint requestStartDate,uint requestEndDate,IndexType requestIndexType,uint requestIndexDate,uint timestamp);\n\n//    function GuaranteeRequest(address  _regulator,address _customer ,address _bank ,address _beneficiary ,bytes32 _purpose,\n//    uint _amount, uint _startDate,uint _endDate,IndexType _indexType,uint _indexDate)\n//    {\n//        regulator=_regulator;\n//        //        Addresses memory addresses;\n//        addresses.bank=_bank;\n//        addresses.customer=_customer;\n//        addresses.beneficiary=_beneficiary;\n//        purpose=_purpose;\n//        amount=_amount;\n//        startDate=_startDate;\n//        endDate=_endDate;\n//        indexType= _indexType;\n//        indexDate= _indexDate;\n//        status=RequestState.created;\n//        stepNumber=0;\n//        GuaranteeRequestCreated(getId(),_customer , _bank,_beneficiary , _purpose,  _amount,  _startDate, _endDate, _indexType, _indexDate , now);\n//        Comment( getId(), stepNumber, status,\"\");\n//        // log(\"create request\",\"customer\"+_customer+\"bank\"+_bank+\"beneficiary\"+_beneficiary+\"amount\"+amount + \"startDate\"+startDate+\"endDate\"+endDate +\"...\");\n//\n//\n//    }\n\n    function GuaranteeRequest(address _bank ,address _beneficiary ,bytes32 _purpose,\n    uint _amount, uint _startDate,uint _endDate,IndexType _indexType,uint _indexDate)\n    {\n\n        addresses.bank=_bank;\n        addresses.beneficiary=_beneficiary;\n        purpose=_purpose;\n        amount=_amount;\n        startDate=_startDate;\n        endDate=_endDate;\n        indexType= _indexType;\n        indexDate= _indexDate;\n        status=RequestState.created;\n        stepNumber=0;\n        GuaranteeRequestCreated(getId(),getCustomer() , _bank,_beneficiary , _purpose,  _amount,  _startDate, _endDate, _indexType, _indexDate , now);\n        Comment( getId(), stepNumber, status,\"\");\n        // log(\"create request\",\"customer\"+_customer+\"bank\"+_bank+\"beneficiary\"+_beneficiary+\"amount\"+amount + \"startDate\"+startDate+\"endDate\"+endDate +\"...\");\n\n    }\n\n    function getId() constant public returns (address _contract_id)\n    {\n        return this;\n    }\n\n//    function getCustomer() constant public returns (address _customer)\n//    {\n//        return addresses.customer;\n//    }\n\n    function getBank() constant public returns (address _bank)\n    {\n        return addresses.bank;\n    }\n    function getBeneficiary() constant public returns (address _beneficiary)\n    {\n        return addresses.beneficiary;\n    }\n\n    function getEndDate() constant public returns (uint _date)\n    {\n        return endDate;\n    }\n\n\n    function getGuaranteeRequestData() constant public returns (address _contract_id,address _customer,address _bank, address _beneficiary,\n    bytes32 _purpose,uint _amount,uint _startDate,uint _endDate,IndexType _indexType,uint _indexDate,RequestState _status)\n    {\n\n        _contract_id=getId();\n        _customer=getCustomer();\n        _bank=getBank();\n        _beneficiary=getBeneficiary();\n        _purpose=purpose;\n        _amount=amount;\n        _startDate=startDate;\n        _endDate=endDate;\n        _indexType=indexType;\n        _indexDate=indexDate;\n        _status=status;\n    }\n    function getProposalIPFSHash() public constant returns (bytes _proposalIPFSHash)\n    {\n        return proposalIPFSHash;\n    }\n\n    function setProposalIPFSHash(bytes _proposalIPFSHash) onlyCustomer public  returns (bool result)\n    {\n        require(status==RequestState.created);\n        proposalIPFSHash=_proposalIPFSHash;\n        return true;\n    }\n\n    function getRequestState() public constant returns (RequestState)\n    {\n        return status;\n    }\n\n    //    event State(RequestState state);\n    //    function getRequestStateTranslated() public constant returns (uint _thestate)\n    //    {\n    //        State(status);\n    //        _thestate= uint(status);\n    //        if (_thestate==0 && status!=RequestState.created)\n    //        {\n    //            if  (status==RequestState.waitingtobank) {\n    //                return 1;\n    //            }\n    //            if  (status==RequestState.handling) {\n    //                return 2;\n    //            }\n    //            if  (status==RequestState.waitingtocustomer)\n    //            {\n    //                return 3;\n    //            }\n    //            if  (status==RequestState.withdrawed)\n    //            {\n    //                return 5;\n    //            }\n    //\n    //            if  (status==RequestState.accepted)\n    //            {\n    //                return 6;\n    //            }\n    //            if  (status==RequestState.rejected)\n    //            {\n    //                return 8;\n    //            }\n    //\n    //        //waitingtobank, handling,waitingtocustomer,waitingtobeneficiery, withdrawed, accepted,changeRequested, rejected ,terminationRequest }\n    //\n    //        }\n    //\n    //    }\n\n\n\n\n    //function getCommentsForStep(int step) constant returns (string)\n    //    {\n    //        for(uint256 i=0; i<comments.length; i++) {\n    //            if(comments[i].step == step) {\n    //                return comments[i].commentline;\n    //\n    //            }\n    //        }\n    //\n    //        return \"\";\n    //    }\n\n    //    function addCommentsForStep(int _step,string _commentline) public\n    //    {\n    //        Comment memory comment ;\n    //        comment.step   = _step;\n    //        comment.commentline    = _commentline;\n    //\n    //        comments.push(comment);\n    //\n    //    }\n\n\n\n\n    event Submitted(address  requestId,address indexed msgSender,string comment ,RequestState _newstate);\n\n    //submit function to initiat the request\n    function submit(string comment) onlyCustomer public returns (bool result)\n\n    {\n        require(status==RequestState.created);\n        stepNumber++;\n        //        addCommentsForStep(stepNumber,comment);\n        status=RequestState.waitingtobank;\n\n        Submitted(getId(),msg.sender,comment,status);\n        //        log(\"submitted\",getId()+\"->\"+comment);\n        Comment( getId(),stepNumber, status,comment);\n\n        return true;\n    }\n\n\n    event Withdrawal(address indexed requestId,address indexed msgSender,string comment);\n    //customer withdrawal request\n    function withdrawal(string comment) onlyCustomer public returns (bool result)\n    {\n        require(status!=RequestState.accepted);\n        stepNumber++;\n        //        addCommentsForStep(stepNumber,comment);\n        status=RequestState.withdrawed;\n        Withdrawal(getId(),msg.sender,comment);\n        //        log(\"withdrawed\",getId()+\"->\"+comment);\n        Comment(getId(), stepNumber, status,comment);\n\n        return true;\n    }\n\n    event Termination(address indexed  requestId,address indexed msgSender);\n    //bank reject request\n    function terminate() onlyRegulator public returns (bool result)\n    {\n        require(status==RequestState.accepted );\n        stepNumber++;\n\n        //        addCommentsForStep(stepNumber,_comment);\n        status=RequestState.terminationRequest;\n        Termination(getId(),msg.sender);\n//        Comment( getId(),stepNumber, status,_comment);\n        //         log(\"rejected\",getId()+\"->\"+comment);\n        return true;\n\n    }\n\n    event Rejected(address indexed requestId,address indexed msgSender,string comment);\n    //bank reject request\n    function reject(string comment) onlyBank public returns (bool result)\n    {\n        require(status!=RequestState.accepted);\n        stepNumber++;\n        //        addCommentsForStep(stepNumber,comment);\n        status=RequestState.rejected;\n        Rejected(getId(),msg.sender,comment);\n        Comment( getId(),stepNumber, status,comment);\n\n        //         log(\"rejected\",getId()+\"->\"+comment);\n        return true;\n\n    }\n\n\n    event BankStateChange(address indexed requestId,address indexed msgSender,string comment,RequestState _newStat);\n    //bank reject request\n    function bankStateChange(string comment ,RequestState _newState) onlyBank public returns (bool result)\n    {\n        require((status==RequestState.waitingtobank      ||\n        status==RequestState.handling           ) &&\n        (_newState==RequestState.handling           ||\n        _newState==RequestState.waitingtocustomer  ||\n        _newState==RequestState.waitingtobeneficiery ));\n        stepNumber++;\n        //        addCommentsForStep(stepNumber,comment);\n        status=_newState;\n        BankStateChange(getId(),msg.sender,comment,_newState);\n        Comment( getId(),stepNumber, status,comment);\n\n        //         log(\"rejected\",getId()+\"->\"+comment);\n        return true;\n\n    }\n\n\n    event Accepted(address indexed requestId,address indexed msgSender,string comment);\n    //bank accept request\n    function accept(string comment) onlyBank public returns (bool result)\n    {\n        require((status==RequestState.waitingtobank || status==RequestState.handling || status==RequestState.changeRequested)  && guarantee==address(0));\n        stepNumber++;\n//        guaranteeIPFSHash=_guaranteeIPFSHash;\n        //        addCommentsForStep(stepNumber,comment);\n        status=RequestState.accepted;\n        Accepted(getId(),msg.sender,comment);\n        Comment( getId(),stepNumber, status,comment);\n        //        if (status!=RequestState.changeRequested)\n        //        {\n        //            GuaranteeRequest(changeRequest).\n        //            if (guarantee!= address(0))\n        //            {\n        //            GuaranteeExtender(guarantee).terminate();\n        //            }\n        //            addCommentsForStep(stepNumber,comment);\n        //            status=RequestState.terminationRequest;\n        //            Termination(getId(),msg.sender,comment);\n        //\n        //\n        //        }\n        return true;\n    }\n\n\n\n}\n",
  "sourcePath": "/Users/dmitryshlymovich/workspace/ethereum-garanties/truffle_eth_bnhp/contracts/GuaranteeRequest.sol",
  "schemaVersion": "1.0.0",
  "updatedAt": "2017-10-03T08:01:28.827Z"
}