{
  "contractName": "GuaranteeRequest",
  "abi": [
    {
      "constant": true,
      "inputs": [],
      "name": "getGuaranteeRequestData",
      "outputs": [
        {
          "name": "_contract_id",
          "type": "address"
        },
        {
          "name": "_customer",
          "type": "address"
        },
        {
          "name": "_bank",
          "type": "address"
        },
        {
          "name": "_beneficiary",
          "type": "address"
        },
        {
          "name": "_purpose",
          "type": "bytes32"
        },
        {
          "name": "_amount",
          "type": "uint256"
        },
        {
          "name": "_startDate",
          "type": "uint256"
        },
        {
          "name": "_endDate",
          "type": "uint256"
        },
        {
          "name": "_indexType",
          "type": "uint8"
        },
        {
          "name": "_indexDate",
          "type": "uint256"
        },
        {
          "name": "_status",
          "type": "uint8"
        }
      ],
      "payable": false,
      "type": "function"
    },
    {
      "constant": false,
      "inputs": [
        {
          "name": "comment",
          "type": "string"
        }
      ],
      "name": "reject",
      "outputs": [
        {
          "name": "result",
          "type": "bool"
        }
      ],
      "payable": false,
      "type": "function"
    },
    {
      "constant": false,
      "inputs": [
        {
          "name": "_guaranteeIPFSHash",
          "type": "bytes"
        }
      ],
      "name": "signComplite",
      "outputs": [
        {
          "name": "",
          "type": "address"
        }
      ],
      "payable": false,
      "type": "function"
    },
    {
      "constant": false,
      "inputs": [],
      "name": "accept",
      "outputs": [
        {
          "name": "result",
          "type": "bool"
        }
      ],
      "payable": false,
      "type": "function"
    },
    {
      "constant": false,
      "inputs": [
        {
          "name": "_newamount",
          "type": "uint256"
        },
        {
          "name": "_newendDate",
          "type": "uint256"
        }
      ],
      "name": "changeRequested",
      "outputs": [
        {
          "name": "result",
          "type": "bool"
        }
      ],
      "payable": false,
      "type": "function"
    },
    {
      "constant": true,
      "inputs": [],
      "name": "isExpired",
      "outputs": [
        {
          "name": "",
          "type": "bool"
        }
      ],
      "payable": false,
      "type": "function"
    },
    {
      "constant": false,
      "inputs": [],
      "name": "getGuaranteeAddress",
      "outputs": [
        {
          "name": "",
          "type": "address"
        }
      ],
      "payable": false,
      "type": "function"
    },
    {
      "constant": false,
      "inputs": [],
      "name": "close",
      "outputs": [],
      "payable": false,
      "type": "function"
    },
    {
      "constant": false,
      "inputs": [],
      "name": "setRegulator",
      "outputs": [],
      "payable": false,
      "type": "function"
    },
    {
      "constant": false,
      "inputs": [
        {
          "name": "comment",
          "type": "string"
        }
      ],
      "name": "withdrawal",
      "outputs": [
        {
          "name": "result",
          "type": "bool"
        }
      ],
      "payable": false,
      "type": "function"
    },
    {
      "constant": true,
      "inputs": [],
      "name": "version",
      "outputs": [
        {
          "name": "",
          "type": "string"
        }
      ],
      "payable": false,
      "type": "function"
    },
    {
      "constant": true,
      "inputs": [],
      "name": "getBeneficiary",
      "outputs": [
        {
          "name": "_beneficiary",
          "type": "address"
        }
      ],
      "payable": false,
      "type": "function"
    },
    {
      "constant": true,
      "inputs": [],
      "name": "getId",
      "outputs": [
        {
          "name": "_contract_id",
          "type": "address"
        }
      ],
      "payable": false,
      "type": "function"
    },
    {
      "constant": true,
      "inputs": [],
      "name": "getBank",
      "outputs": [
        {
          "name": "_bank",
          "type": "address"
        }
      ],
      "payable": false,
      "type": "function"
    },
    {
      "constant": true,
      "inputs": [],
      "name": "getCustomer",
      "outputs": [
        {
          "name": "",
          "type": "address"
        }
      ],
      "payable": false,
      "type": "function"
    },
    {
      "constant": true,
      "inputs": [],
      "name": "getOwner",
      "outputs": [
        {
          "name": "",
          "type": "address"
        }
      ],
      "payable": false,
      "type": "function"
    },
    {
      "constant": true,
      "inputs": [],
      "name": "owner",
      "outputs": [
        {
          "name": "",
          "type": "address"
        }
      ],
      "payable": false,
      "type": "function"
    },
    {
      "constant": true,
      "inputs": [],
      "name": "getRequestState",
      "outputs": [
        {
          "name": "",
          "type": "uint8"
        }
      ],
      "payable": false,
      "type": "function"
    },
    {
      "constant": false,
      "inputs": [
        {
          "name": "_newOwner",
          "type": "address"
        }
      ],
      "name": "changeOwner",
      "outputs": [],
      "payable": false,
      "type": "function"
    },
    {
      "constant": true,
      "inputs": [],
      "name": "getEndDate",
      "outputs": [
        {
          "name": "_date",
          "type": "uint256"
        }
      ],
      "payable": false,
      "type": "function"
    },
    {
      "constant": true,
      "inputs": [],
      "name": "isValid",
      "outputs": [
        {
          "name": "",
          "type": "bool"
        }
      ],
      "payable": false,
      "type": "function"
    },
    {
      "constant": true,
      "inputs": [],
      "name": "getProposalIPFSHash",
      "outputs": [
        {
          "name": "_proposalIPFSHash",
          "type": "bytes"
        }
      ],
      "payable": false,
      "type": "function"
    },
    {
      "constant": false,
      "inputs": [],
      "name": "terminateGuarantee",
      "outputs": [],
      "payable": false,
      "type": "function"
    },
    {
      "constant": false,
      "inputs": [],
      "name": "isChangeRequest",
      "outputs": [
        {
          "name": "",
          "type": "bool"
        }
      ],
      "payable": false,
      "type": "function"
    },
    {
      "constant": false,
      "inputs": [
        {
          "name": "comment",
          "type": "string"
        }
      ],
      "name": "submit",
      "outputs": [
        {
          "name": "result",
          "type": "bool"
        }
      ],
      "payable": false,
      "type": "function"
    },
    {
      "constant": true,
      "inputs": [],
      "name": "addresses",
      "outputs": [
        {
          "name": "bank",
          "type": "address"
        },
        {
          "name": "beneficiary",
          "type": "address"
        }
      ],
      "payable": false,
      "type": "function"
    },
    {
      "constant": false,
      "inputs": [
        {
          "name": "comment",
          "type": "string"
        },
        {
          "name": "_newState",
          "type": "uint8"
        }
      ],
      "name": "bankStateChange",
      "outputs": [
        {
          "name": "result",
          "type": "bool"
        }
      ],
      "payable": false,
      "type": "function"
    },
    {
      "constant": false,
      "inputs": [],
      "name": "getRegulator",
      "outputs": [
        {
          "name": "",
          "type": "address"
        }
      ],
      "payable": false,
      "type": "function"
    },
    {
      "inputs": [
        {
          "name": "_bank",
          "type": "address"
        },
        {
          "name": "_beneficiary",
          "type": "address"
        },
        {
          "name": "_purpose",
          "type": "bytes32"
        },
        {
          "name": "_amount",
          "type": "uint256"
        },
        {
          "name": "_startDate",
          "type": "uint256"
        },
        {
          "name": "_endDate",
          "type": "uint256"
        },
        {
          "name": "_indexType",
          "type": "uint8"
        },
        {
          "name": "_indexDate",
          "type": "uint256"
        },
        {
          "name": "_proposalIPFSHash",
          "type": "bytes"
        }
      ],
      "payable": false,
      "type": "constructor"
    },
    {
      "anonymous": false,
      "inputs": [
        {
          "indexed": true,
          "name": "requestId",
          "type": "address"
        },
        {
          "indexed": true,
          "name": "customer",
          "type": "address"
        },
        {
          "indexed": true,
          "name": "bank",
          "type": "address"
        },
        {
          "indexed": false,
          "name": "beneficiary",
          "type": "address"
        },
        {
          "indexed": false,
          "name": "guarantyPurpose",
          "type": "bytes32"
        },
        {
          "indexed": false,
          "name": "requestAmount",
          "type": "uint256"
        },
        {
          "indexed": false,
          "name": "requestStartDate",
          "type": "uint256"
        },
        {
          "indexed": false,
          "name": "requestEndDate",
          "type": "uint256"
        },
        {
          "indexed": false,
          "name": "requestIndexType",
          "type": "uint8"
        },
        {
          "indexed": false,
          "name": "requestIndexDate",
          "type": "uint256"
        },
        {
          "indexed": false,
          "name": "timestamp",
          "type": "uint256"
        },
        {
          "indexed": false,
          "name": "proposalIPFSHash",
          "type": "bytes"
        }
      ],
      "name": "GuaranteeRequestCreated",
      "type": "event"
    },
    {
      "anonymous": false,
      "inputs": [
        {
          "indexed": true,
          "name": "requestId",
          "type": "address"
        },
        {
          "indexed": true,
          "name": "msgSender",
          "type": "address"
        },
        {
          "indexed": false,
          "name": "commentline",
          "type": "string"
        },
        {
          "indexed": false,
          "name": "_newstate",
          "type": "uint8"
        },
        {
          "indexed": false,
          "name": "timestamp",
          "type": "uint256"
        }
      ],
      "name": "Submitted",
      "type": "event"
    },
    {
      "anonymous": false,
      "inputs": [
        {
          "indexed": true,
          "name": "requestId",
          "type": "address"
        },
        {
          "indexed": true,
          "name": "msgSender",
          "type": "address"
        },
        {
          "indexed": false,
          "name": "commentline",
          "type": "string"
        },
        {
          "indexed": false,
          "name": "timestamp",
          "type": "uint256"
        }
      ],
      "name": "Withdrawal",
      "type": "event"
    },
    {
      "anonymous": false,
      "inputs": [
        {
          "indexed": true,
          "name": "requestId",
          "type": "address"
        },
        {
          "indexed": true,
          "name": "msgSender",
          "type": "address"
        },
        {
          "indexed": false,
          "name": "timestamp",
          "type": "uint256"
        }
      ],
      "name": "Termination",
      "type": "event"
    },
    {
      "anonymous": false,
      "inputs": [
        {
          "indexed": true,
          "name": "requestId",
          "type": "address"
        },
        {
          "indexed": true,
          "name": "msgSender",
          "type": "address"
        },
        {
          "indexed": false,
          "name": "commentline",
          "type": "string"
        },
        {
          "indexed": false,
          "name": "timestamp",
          "type": "uint256"
        }
      ],
      "name": "Rejected",
      "type": "event"
    },
    {
      "anonymous": false,
      "inputs": [
        {
          "indexed": true,
          "name": "requestId",
          "type": "address"
        },
        {
          "indexed": true,
          "name": "msgSender",
          "type": "address"
        },
        {
          "indexed": false,
          "name": "_newStat",
          "type": "uint8"
        },
        {
          "indexed": false,
          "name": "commentline",
          "type": "string"
        },
        {
          "indexed": false,
          "name": "timestamp",
          "type": "uint256"
        }
      ],
      "name": "BankStateChange",
      "type": "event"
    },
    {
      "anonymous": false,
      "inputs": [
        {
          "indexed": true,
          "name": "requestId",
          "type": "address"
        },
        {
          "indexed": true,
          "name": "msgSender",
          "type": "address"
        },
        {
          "indexed": false,
          "name": "commentline",
          "type": "string"
        },
        {
          "indexed": false,
          "name": "timestamp",
          "type": "uint256"
        }
      ],
      "name": "Accepted",
      "type": "event"
    },
    {
      "anonymous": false,
      "inputs": [
        {
          "indexed": true,
          "name": "requestId",
          "type": "address"
        },
        {
          "indexed": true,
          "name": "guarantieId",
          "type": "address"
        },
        {
          "indexed": false,
          "name": "timestamp",
          "type": "uint256"
        }
      ],
      "name": "GuarantieSigned",
      "type": "event"
    },
    {
      "anonymous": false,
      "inputs": [
        {
          "indexed": true,
          "name": "requestId",
          "type": "address"
        },
        {
          "indexed": true,
          "name": "guarantieId",
          "type": "address"
        },
        {
          "indexed": false,
          "name": "timestamp",
          "type": "uint256"
        }
      ],
      "name": "GuarantieChangeSigned",
      "type": "event"
    },
    {
      "anonymous": false,
      "inputs": [
        {
          "indexed": true,
          "name": "requestId",
          "type": "address"
        },
        {
          "indexed": true,
          "name": "guarantieId",
          "type": "address"
        },
        {
          "indexed": false,
          "name": "newamount",
          "type": "uint256"
        },
        {
          "indexed": false,
          "name": "newendDate",
          "type": "uint256"
        },
        {
          "indexed": false,
          "name": "timestamp",
          "type": "uint256"
        }
      ],
      "name": "GuarantieChangeRequested",
      "type": "event"
    }
  ],
  "bytecode": "0x6060604090815260008054600160a060020a03191633600160a060020a0316179055805190810160405260048082527f312e303000000000000000000000000000000000000000000000000000000000602083015290805162000067929160200190620002c7565b5034156200007457600080fd5b6040516200278b3803806200278b83398101604052808051919060200180519190602001805191906020018051919060200180519190602001805191906020018051919060200180519190602001805190910190505b60058054600160a060020a03808c16600160a060020a03199283161790925560068054928b1692909116919091179055600787905560088690556009859055600a849055600b805484919060ff191660018360028111156200012857fe5b0217905550600c829055600e80546000919060ff19166001835b0217905550600d8180516200015c929160200190620002c7565b50600160a060020a0389166200017f6401000000006200126f620002b282021704565b600160a060020a0316620001a06401000000006200125a620002c282021704565b600160a060020a03167fcfaf11a08ac1e760a53319d473a4d4c9b2b12086b5f5f7259203ffed581ab6328b8b8b8b8b8b8b428c604051600160a060020a038a1681526020810189905260408101889052606081018790526080810186905260a081018560028111156200020f57fe5b60ff16815260200184815260200183815260200180602001828103825283818151815260200191508051906020019080838360005b838110156200025f5780820151818401525b60200162000244565b50505050905090810190601f1680156200028d5780820380516001836020036101000a031916815260200191505b509a505050505050505050505060405180910390a45b505050505050505050620003f7565b600054600160a060020a03165b90565b305b90565b828054600181600116156101000203166002900490600052602060002090601f016020900481019282601f106200030a57805160ff19168380011785556200033a565b828001600101855582156200033a579182015b828111156200033a5782518255916020019190600101906200031d565b5b5062000349929150620003d3565b5090565b828054600181600116156101000203166002900490600052602060002090601f016020900481019282601f106200030a57805160ff19168380011785556200033a565b828001600101855582156200033a579182015b828111156200033a5782518255916020019190600101906200031d565b5b5062000349929150620003d3565b5090565b620002bf91905b80821115620003495760008155600101620003da565b5090565b90565b61238480620004076000396000f300606060405236156200016b5763ffffffff60e060020a6000350416631c32e7af811462000170578063201c5cc114620002145780632259515b146200027c5780632852b71c14620002ec5780632beba68b14620003165780632f13b60c14620003465780633f40d18f146200037057806343d726d614620003a25780634a0b20aa14620003ba5780634a51c31c14620003d257806354fd4d50146200043a578063565a2e2c14620004cb5780635d1ca63114620004fd57806360d704db146200052f578063650d993b1462000561578063893d20e814620005615780638da5cb5b14620005c5578063a39152f214620005f7578063a6f9dae11462000632578063b13564881462000656578063bb5d40eb146200067e578063c3287ea714620006a8578063c700c70d1462000739578063cded37371462000751578063d99a8dc3146200077b578063da0321cd14620007e3578063f40bd94a146200081d578063f7e317f4146200088a575b600080fd5b34156200017c57600080fd5b62000186620008bc565b604051600160a060020a03808d1682528b811660208301528a81166040830152891660608201526080810188905260a0810187905260c0810186905260e081018590526101008101846002811115620001db57fe5b60ff168152602001838152602001826009811115620001f657fe5b60ff1681526020019b50505050505050505050505060405180910390f35b34156200022057600080fd5b6200026860046024813581810190830135806020601f820181900481020160405190810160405281815292919060208401838380828437509496506200093995505050505050565b604051901515815260200160405180910390f35b34156200028857600080fd5b620002d060046024813581810190830135806020601f8201819004810201604051908101604052818152929190602084018383808284375094965062000a6795505050505050565b604051600160a060020a03909116815260200160405180910390f35b3415620002f857600080fd5b6200026862000e1e565b604051901515815260200160405180910390f35b34156200032257600080fd5b6200026860043560243562000f2f565b604051901515815260200160405180910390f35b34156200035257600080fd5b6200026862000ffe565b604051901515815260200160405180910390f35b34156200037c57600080fd5b620002d062001012565b604051600160a060020a03909116815260200160405180910390f35b3415620003ae57600080fd5b620003b862001022565b005b3415620003c657600080fd5b620003b86200104f565b005b3415620003de57600080fd5b6200026860046024813581810190830135806020601f820181900481020160405190810160405281815292919060208401838380828437509496506200107a95505050505050565b604051901515815260200160405180910390f35b34156200044657600080fd5b62000450620011a8565b60405160208082528190810183818151815260200191508051906020019080838360005b838110156200048f5780820151818401525b60200162000474565b50505050905090810190601f168015620004bd5780820380516001836020036101000a031916815260200191505b509250505060405180910390f35b3415620004d757600080fd5b620002d06200124a565b604051600160a060020a03909116815260200160405180910390f35b34156200050957600080fd5b620002d06200125a565b604051600160a060020a03909116815260200160405180910390f35b34156200053b57600080fd5b620002d06200125f565b604051600160a060020a03909116815260200160405180910390f35b34156200056d57600080fd5b620002d06200126f565b604051600160a060020a03909116815260200160405180910390f35b34156200056d57600080fd5b620002d06200126f565b604051600160a060020a03909116815260200160405180910390f35b3415620005d157600080fd5b620002d06200128f565b604051600160a060020a03909116815260200160405180910390f35b34156200060357600080fd5b6200060d6200129e565b604051808260098111156200061e57fe5b60ff16815260200191505060405180910390f35b34156200063e57600080fd5b620003b8600160a060020a0360043516620012a8565b005b34156200066257600080fd5b6200066c62001307565b60405190815260200160405180910390f35b34156200068a57600080fd5b620002686200130e565b604051901515815260200160405180910390f35b3415620006b457600080fd5b620004506200134c565b60405160208082528190810183818151815260200191508051906020019080838360005b838110156200048f5780820151818401525b60200162000474565b50505050905090810190601f168015620004bd5780820380516001836020036101000a031916815260200191505b509250505060405180910390f35b34156200074557600080fd5b620003b8620013fb565b005b34156200075d57600080fd5b6200026862001483565b604051901515815260200160405180910390f35b34156200078757600080fd5b6200026860046024813581810190830135806020601f820181900481020160405190810160405281815292919060208401838380828437509496506200149595505050505050565b604051901515815260200160405180910390f35b3415620007ef57600080fd5b620007f9620015e3565b604051600160a060020a039283168152911660208201526040908101905180910390f35b34156200082957600080fd5b6200026860046024813581810190830135806020601f820181900481020160405190810160405281815292919060208401838380828437509496505050923560ff169250620015f9915050565b604051901515815260200160405180910390f35b34156200089657600080fd5b620002d0620017b4565b604051600160a060020a03909116815260200160405180910390f35b6000806000806000806000806000806000620008d76200125a565b9a50620008e36200126f565b9950620008ef6200125f565b9850620008fb6200124a565b600754600854600954600a54600b54600c54600e54969e50949c50929a50909850965060ff90811695509093501690505b909192939495969798999a565b6000620009456200125f565b600160a060020a031633600160a060020a03161415156200096557600080fd5b60065b600e5460ff1660098111156200097a57fe5b14156200098657600080fd5b600e80546008919060ff19166001835b021790555033600160a060020a0316620009af6200125a565b600160a060020a03167f09a6d1312fa4a3d2b6cbe64ea19a7bc9b41d0e8f80bd29adf3d221beb28e555f84426040518080602001838152602001828103825284818151815260200191508051906020019080838360005b8381101562000a215780820151818401525b60200162000a06565b50505050905090810190601f16801562000a4f5780820380516001836020036101000a031916815260200191505b50935050505060405180910390a35060015b5b919050565b600254600090819033600160a060020a0390811691161462000a8857600080fd5b60065b62000a956200129e565b600981111562000aa157fe5b14801562000ab5575062000ab583620017c4565b5b801562000add575062000ac8620017b4565b600160a060020a031633600160a060020a0316145b151562000ae957600080fd5b62000af36200125a565b62000afd620017b4565b8462000b08620017e2565b600160a060020a0380851682528316602082015260606040820181815290820183818151815260200191508051906020019080838360005b8381101562000b5b5780820151818401525b60200162000b40565b50505050905090810190601f16801562000b895780820380516001836020036101000a031916815260200191505b50945050505050604051809103906000f080151562000ba757600080fd5b905080600160a060020a0316635d1ca6316000604051602001526040518163ffffffff1660e060020a028152600401602060405180830381600087803b151562000bf057600080fd5b6102c65a03f1151562000c0257600080fd5b50505060405180516003805473ffffffffffffffffffffffffffffffffffffffff1916600160a060020a03929092169190911790555062000c4262001483565b1562000d555780600160a060020a0316635d1ca6316000604051602001526040518163ffffffff1660e060020a028152600401602060405180830381600087803b151562000c8f57600080fd5b6102c65a03f1151562000ca157600080fd5b50505060405180519050600160a060020a031662000cbe6200125a565b600160a060020a03167f38e7867b868c4e562ab01fd58f6c084fc09fa37b51a2723456e01329666592bc4260405190815260200160405180910390a3600154600160a060020a031663c700c70d6040518163ffffffff1660e060020a028152600401600060405180830381600087803b151562000d3a57600080fd5b6102c65a03f1151562000d4c57600080fd5b50505062000e08565b80600160a060020a0316635d1ca6316000604051602001526040518163ffffffff1660e060020a028152600401602060405180830381600087803b151562000d9c57600080fd5b6102c65a03f1151562000dae57600080fd5b50505060405180519050600160a060020a031662000dcb6200125a565b600160a060020a03167fcc3ae5514080b975815cd1a7101203e058f25045d3b69fc2e0f24f1eea0c5f274260405190815260200160405180910390a35b600354600160a060020a031691505b5b50919050565b60025460009033600160a060020a0390811691161462000e3d57600080fd5b60015b600e5460ff16600981111562000e5257fe5b148062000e71575060025b600e5460ff16600981111562000e6f57fe5b145b8062000e8f575060075b600e5460ff16600981111562000e8d57fe5b145b801562000ea55750600354600160a060020a0316155b151562000eb157600080fd5b600e80546006919060ff19166001835b021790555033600160a060020a031662000eda6200125a565b600160a060020a03167f0947c52c91d0c21ff5f9cad41b243ae347c031b49c7e68240db936c0d4e4212442604051602081019190915260408082526000818301526080909101905180910390a35060015b5b90565b60025460009033600160a060020a0390811691161462000f4e57600080fd5b6003546001805473ffffffffffffffffffffffffffffffffffffffff1916600160a060020a03909216919091178155600e805460ff191682805b0217905550600354600160a060020a031662000fa36200125a565b600160a060020a03167fea525036bf090eb901030843cb94a376c853b46d12659b5ab23797332980978885854260405180848152602001838152602001828152602001935050505060405180910390a35060015b5b92915050565b6000426200100b62001307565b1190505b90565b600354600160a060020a03165b90565b60005433600160a060020a039081169116146200103e57600080fd5b600054600160a060020a0316ff5b5b565b6002805473ffffffffffffffffffffffffffffffffffffffff191633600160a060020a03161790555b565b6000620010866200126f565b600160a060020a031633600160a060020a0316141515620010a657600080fd5b60065b600e5460ff166009811115620010bb57fe5b1415620010c757600080fd5b600e80546005919060ff19166001835b021790555033600160a060020a0316620010f06200125a565b600160a060020a03167f738f79b277d16b0c1616baacbab8c93c6cd07f3d032fa25aa4423367ec0a704784426040518080602001838152602001828103825284818151815260200191508051906020019080838360005b8381101562000a215780820151818401525b60200162000a06565b50505050905090810190601f16801562000a4f5780820380516001836020036101000a031916815260200191505b50935050505060405180910390a35060015b5b919050565b60048054600181600116156101000203166002900480601f016020809104026020016040519081016040528092919081815260200182805460018160011615610100020316600290048015620012425780601f10620012165761010080835404028352916020019162001242565b820191906000526020600020905b8154815290600101906020018083116200122457829003601f168201915b505050505081565b600654600160a060020a03165b90565b305b90565b600554600160a060020a03165b90565b600054600160a060020a03165b90565b600054600160a060020a03165b90565b600054600160a060020a031681565b600e5460ff165b90565b60005433600160a060020a03908116911614620012c457600080fd5b600160a060020a0381161515620012da57600080fd5b6000805473ffffffffffffffffffffffffffffffffffffffff1916600160a060020a0383161790555b5b50565b600a545b90565b6000806200131b6200125f565b600160a060020a03161415801562001346575060006200133a6200124a565b600160a060020a031614155b90505b90565b62001356620017f3565b600d8054600181600116156101000203166002900480601f016020809104026020016040519081016040528092919081815260200182805460018160011615610100020316600290048015620013f05780601f10620013c457610100808354040283529160200191620013f0565b820191906000526020600020905b815481529060010190602001808311620013d257829003601f168201915b505050505090505b90565b60065b600e5460ff1660098111156200141057fe5b146200141b57600080fd5b600e80546009919060ff19166001835b021790555033600160a060020a0316620014446200125a565b600160a060020a03167fe8a64448bf2d786eb5e1638b4997f10e8a09652ada3afc111211b186c3f0c70b4260405190815260200160405180910390a35b565b600154600160a060020a031615155b90565b6000620014a16200126f565b600160a060020a031633600160a060020a0316141515620014c157600080fd5b60005b600e5460ff166009811115620014d657fe5b14620014e157600080fd5b600e80546001919060ff191682805b021790555033600160a060020a0316620015096200125a565b600e54600160a060020a0391909116907f19f5d512821caf015e62a8879695a8b70dac29ac5a6e7f35236c7410cedbde0b90859060ff164260405180806020018460098111156200155657fe5b60ff168152602001838152602001828103825285818151815260200191508051906020019080838360005b838110156200159c5780820151818401525b60200162001581565b50505050905090810190601f168015620015ca5780820380516001836020036101000a031916815260200191505b5094505050505060405180910390a35060015b5b919050565b600554600654600160a060020a03918216911682565b6000620016056200125f565b600160a060020a031633600160a060020a03161415156200162557600080fd5b60015b600e5460ff1660098111156200163a57fe5b148062001659575060025b600e5460ff1660098111156200165757fe5b145b8015620016a4575060025b8260098111156200167157fe5b14806200168b575060035b8260098111156200168957fe5b145b80620016a4575060045b826009811115620016a257fe5b145b5b1515620016b157600080fd5b600e805483919060ff19166001836009811115620016cb57fe5b021790555033600160a060020a0316620016e46200125a565b600160a060020a03167f508c5c654e715d2dda84dde20b40b29a2b462944231ab692f10b091a38541a8d848642604051808460098111156200172257fe5b60ff16815260200180602001838152602001828103825284818151815260200191508051906020019080838360005b838110156200176c5780820151818401525b60200162001751565b50505050905090810190601f1680156200179a5780820380516001836020036101000a031916815260200191505b5094505050505060405180910390a35060015b5b92915050565b600254600160a060020a03165b90565b60008082511115620017d95750600162000a61565b5060005b919050565b604051610b53806200180683390190565b602060405190810160405260008152905600606060405260008054600160a060020a03191633600160a060020a0316179055341561002a57600080fd5b604051610b53380380610b5383398101604052808051919060200180519190602001805190910190505b60018054600160a060020a03808616600160a060020a0319928316179092556002805492851692909116919091179055600381805161009792916020019061018e565b50600280546001919060a060020a60ff02191674010000000000000000000000000000000000000000835b02179055507f2a114794accc550a527ef87653abf0f6afacf18842782ec64db725729b83aeb883303384604051600160a060020a03808616825284811660208301528316604082015260806060820181815290820183818151815260200191508051906020019080838360005b838110156101485780820151818401525b60200161012f565b50505050905090810190601f1680156101755780820380516001836020036101000a031916815260200191505b509550505050505060405180910390a15b50505061022e565b828054600181600116156101000203166002900490600052602060002090601f016020900481019282601f106101cf57805160ff19168380011785556101fc565b828001600101855582156101fc579182015b828111156101fc5782518255916020019190600101906101e1565b5b5061020992915061020d565b5090565b61022b91905b808211156102095760008155600101610213565b5090565b90565b6109168061023d6000396000f300606060405236156100a95763ffffffff60e060020a6000350416632f13b60c81146100ae57806338e537b3146100d55780633a6facad1461017e57806343d726d6146101b5578063488523bc146101ca578063565a2e2c146102555780635d1ca6311461028457806388a22f7a146102b3578063893d20e8146102e25780638da5cb5b14610311578063a6f9dae114610340578063b135648814610361578063c700c70d14610386575b600080fd5b34156100b957600080fd5b6100c161039b565b604051901515815260200160405180910390f35b34156100e057600080fd5b6100e86103ad565b604051600160a060020a03808e1682528c811660208301528b811660408301528a811660608301528916608082015260a0810188905260c0810187905260e081018690526101008101859052610120810184600281111561014557fe5b60ff16815260200183815260200182600481111561015f57fe5b60ff1681526020019c5050505050505050505050505060405180910390f35b341561018957600080fd5b6101916105b4565b604051808260048111156101a157fe5b60ff16815260200191505060405180910390f35b34156101c057600080fd5b6101c86105f3565b005b34156101d557600080fd5b6101dd61061f565b60405160208082528190810183818151815260200191508051906020019080838360005b8381101561021a5780820151818401525b602001610201565b50505050905090810190601f1680156102475780820380516001836020036101000a031916815260200191505b509250505060405180910390f35b341561026057600080fd5b6102686106c8565b604051600160a060020a03909116815260200160405180910390f35b341561028f57600080fd5b610268610734565b604051600160a060020a03909116815260200160405180910390f35b34156102be57600080fd5b610268610739565b604051600160a060020a03909116815260200160405180910390f35b34156102ed57600080fd5b610268610749565b604051600160a060020a03909116815260200160405180910390f35b341561031c57600080fd5b610268610759565b604051600160a060020a03909116815260200160405180910390f35b341561034b57600080fd5b6101c8600160a060020a0360043516610768565b005b341561036c57600080fd5b6103746107c5565b60405190815260200160405180910390f35b341561039157600080fd5b6101c8610831565b005b6000426103a66107c5565b1190505b90565b6000806000806000806000806000806000806000600160009054906101000a9004600160a060020a0316905080600160a060020a0316631c32e7af600060405161016001526040518163ffffffff1660e060020a02815260040161016060405180830381600087803b151561042157600080fd5b6102c65a03f1151561043257600080fd5b5050506040518051906020018051906020018051906020018051906020018051906020018051906020018051906020018051906020018051906020018051906020018051905090919293949596979899509091929394959697985090919293949596975050809950819a50829b50839c50849d50859e50869f5050505050505050600160009054906101000a9004600160a060020a03169b506104d3610734565b9c5080600160a060020a031663650d993b6000604051602001526040518163ffffffff1660e060020a028152600401602060405180830381600087803b151561051b57600080fd5b6102c65a03f1151561052c57600080fd5b50505060405180519b5050600160a060020a0381166360d704db6000604051602001526040518163ffffffff1660e060020a028152600401602060405180830381600087803b151561057d57600080fd5b6102c65a03f1151561058e57600080fd5b5050506040518051905099506105a26105b4565b91505b50909192939495969798999a9b565b60006105be61039b565b156105cb575060026103aa565b5060025474010000000000000000000000000000000000000000900460ff166103aa565b5b90565b60005433600160a060020a0390811691161461060e57600080fd5b600054600160a060020a0316ff5b5b565b6106276108d8565b60038054600181600116156101000203166002900480601f0160208091040260200160405190810160405280929190818152602001828054600181600116156101000203166002900480156106bd5780601f10610692576101008083540402835291602001916106bd565b820191906000526020600020905b8154815290600101906020018083116106a057829003601f168201915b505050505090505b90565b600154600090600160a060020a03168063565a2e2c83604051602001526040518163ffffffff1660e060020a028152600401602060405180830381600087803b151561071357600080fd5b6102c65a03f1151561072457600080fd5b50505060405180519250505b5090565b305b90565b600154600160a060020a03165b90565b600054600160a060020a03165b90565b600054600160a060020a031681565b60005433600160a060020a0390811691161461078357600080fd5b600160a060020a038116151561079857600080fd5b6000805473ffffffffffffffffffffffffffffffffffffffff1916600160a060020a0383161790555b5b50565b600154600090600160a060020a03168063b135648883604051602001526040518163ffffffff1660e060020a028152600401602060405180830381600087803b151561071357600080fd5b6102c65a03f1151561072457600080fd5b50505060405180519250505b5090565b600280546003919074ff0000000000000000000000000000000000000000191674010000000000000000000000000000000000000000835b02179055506001547fc96023adfc168f8f03b0a5cc6aaa47d9261d083467fb52f61a1854d5725771ca90600160a060020a03166108a4610734565b33604051600160a060020a03938416815291831660208301529091166040808301919091526060909101905180910390a15b565b602060405190810160405260008152905600a165627a7a723058200326c5f01ceae2552778def9b6f563338351466052268622966db7a95a87f8520029a165627a7a72305820c2bae7be55d711b88f91388256cea666dec5d7781fd7bfe50fd217c8b2c3f3380029",
  "source": "pragma solidity ^0.4.13;\n\nimport \"./GuaranteeConst.sol\";\nimport \"./GuaranteeRequestExtender.sol\";\nimport \"./GuaranteeExtender.sol\";\nimport \"./DigitalGuaranteeBNHP.sol\";\n\ncontract GuaranteeRequest is GuaranteeRequestExtender{\n    string public version = \"1.00\";\n\n    //holds the addresses of the participating parties for demo reasons\n    struct Addresses {\n    address bank;\n//    address customer;\n    address beneficiary;\n    }\n\n    Addresses public addresses;\n\n\n\n    bytes32  purpose;\n    uint  amount;\n    uint  startDate;\n    uint  endDate;\n\n    IndexType  indexType;\n    uint  indexDate;\n\n    bytes  proposalIPFSHash;\n//    bytes  guaranteeIPFSHash;\n\n    RequestState   status;\n\n//    int  stepNumber;\n\n    //describes the customer object\n    //    struct Comment {\n    //        int step;\n    //        string commentline;\n    //    }\n    //    Comment [] comments;\n\n//    event Comment(address indexed requestId,int  numberOfStep,RequestState requestState,string commentline,uint timestamp) ;\n\n\n    event GuaranteeRequestCreated (address indexed requestId,address indexed customer ,address indexed bank ,address  beneficiary ,bytes32 guarantyPurpose,\n    uint requestAmount, uint requestStartDate,uint requestEndDate,IndexType requestIndexType,uint requestIndexDate,uint timestamp,bytes  proposalIPFSHash);\n\n//    function GuaranteeRequest(address  _regulator,address _customer ,address _bank ,address _beneficiary ,bytes32 _purpose,\n//    uint _amount, uint _startDate,uint _endDate,IndexType _indexType,uint _indexDate)\n//    {\n//        regulator=_regulator;\n//        //        Addresses memory addresses;\n//        addresses.bank=_bank;\n//        addresses.customer=_customer;\n//        addresses.beneficiary=_beneficiary;\n//        purpose=_purpose;\n//        amount=_amount;\n//        startDate=_startDate;\n//        endDate=_endDate;\n//        indexType= _indexType;\n//        indexDate= _indexDate;\n//        status=RequestState.created;\n//        stepNumber=0;\n//        GuaranteeRequestCreated(getId(),_customer , _bank,_beneficiary , _purpose,  _amount,  _startDate, _endDate, _indexType, _indexDate , now);\n//        Comment( getId(), stepNumber, status,\"\");\n//        // log(\"create request\",\"customer\"+_customer+\"bank\"+_bank+\"beneficiary\"+_beneficiary+\"amount\"+amount + \"startDate\"+startDate+\"endDate\"+endDate +\"...\");\n//\n//\n//    }\n\n    function GuaranteeRequest(address _bank ,address _beneficiary ,bytes32 _purpose,\n    uint _amount, uint _startDate,uint _endDate,IndexType _indexType,uint _indexDate,bytes  _proposalIPFSHash)\n    {\n        addresses.bank=_bank;\n        addresses.beneficiary=_beneficiary;\n        purpose=_purpose;\n        amount=_amount;\n        startDate=_startDate;\n        endDate=_endDate;\n        indexType= _indexType;\n        indexDate= _indexDate;\n        status=RequestState.created;\n        proposalIPFSHash=  _proposalIPFSHash ;\n//        stepNumber=0;\n        GuaranteeRequestCreated(getId(),getCustomer() , _bank,_beneficiary , _purpose,  _amount,  _startDate, _endDate, _indexType, _indexDate , now ,_proposalIPFSHash);\n//        Comment( getId(), stepNumber, status,\"\");\n        // log(\"create request\",\"customer\"+_customer+\"bank\"+_bank+\"beneficiary\"+_beneficiary+\"amount\"+amount + \"startDate\"+startDate+\"endDate\"+endDate +\"...\");\n\n    }\n\n    function getId() constant public returns (address _contract_id)\n    {\n        return this;\n    }\n\n//    function getCustomer() constant public returns (address _customer)\n//    {\n//        return addresses.customer;\n//    }\n\n    function getBank() constant public returns (address _bank)\n    {\n        return addresses.bank;\n    }\n    function getBeneficiary() constant public returns (address _beneficiary)\n    {\n        return addresses.beneficiary;\n    }\n\n    function getEndDate() constant public returns (uint _date)\n    {\n        return endDate;\n    }\n\n\n\n    function getGuaranteeRequestData() constant public returns (address _contract_id,address _customer,address _bank, address _beneficiary,\n    bytes32 _purpose,uint _amount,uint _startDate,uint _endDate,IndexType _indexType,uint _indexDate,RequestState _status)\n    {\n\n        _contract_id=getId();\n        _customer=getCustomer();\n        _bank=getBank();\n        _beneficiary=getBeneficiary();\n        _purpose=purpose;\n        _amount=amount;\n        _startDate=startDate;\n        _endDate=endDate;\n        _indexType=indexType;\n        _indexDate=indexDate;\n        _status=status;\n    }\n    function getProposalIPFSHash() public constant returns (bytes _proposalIPFSHash)\n    {\n        return proposalIPFSHash;\n    }\n\n//    function setProposalIPFSHash(bytes _proposalIPFSHash) onlyCustomer public  returns (bool result)\n//    {\n//        require(status==RequestState.created);\n//        proposalIPFSHash=_proposalIPFSHash;\n//        return true;\n//    }\n\n    function getRequestState() public constant returns (RequestState)\n    {\n        return status;\n    }\n\n    //    event State(RequestState state);\n    //    function getRequestStateTranslated() public constant returns (uint _thestate)\n    //    {\n    //        State(status);\n    //        _thestate= uint(status);\n    //        if (_thestate==0 && status!=RequestState.created)\n    //        {\n    //            if  (status==RequestState.waitingtobank) {\n    //                return 1;\n    //            }\n    //            if  (status==RequestState.handling) {\n    //                return 2;\n    //            }\n    //            if  (status==RequestState.waitingtocustomer)\n    //            {\n    //                return 3;\n    //            }\n    //            if  (status==RequestState.withdrawed)\n    //            {\n    //                return 5;\n    //            }\n    //\n    //            if  (status==RequestState.accepted)\n    //            {\n    //                return 6;\n    //            }\n    //            if  (status==RequestState.rejected)\n    //            {\n    //                return 8;\n    //            }\n    //\n    //        //waitingtobank, handling,waitingtocustomer,waitingtobeneficiery, withdrawed, accepted,changeRequested, rejected ,terminationRequest }\n    //\n    //        }\n    //\n    //    }\n\n\n\n\n    //function getCommentsForStep(int step) constant returns (string)\n    //    {\n    //        for(uint256 i=0; i<comments.length; i++) {\n    //            if(comments[i].step == step) {\n    //                return comments[i].commentline;\n    //\n    //            }\n    //        }\n    //\n    //        return \"\";\n    //    }\n\n    //    function addCommentsForStep(int _step,string _commentline) public\n    //    {\n    //        Comment memory comment ;\n    //        comment.step   = _step;\n    //        comment.commentline    = _commentline;\n    //\n    //        comments.push(comment);\n    //\n    //    }\n\n\n\n\n    event Submitted(address indexed requestId,address indexed msgSender,string commentline ,RequestState _newstate,uint timestamp);\n\n    //submit function to initiat the request\n    function submit(string comment) onlyCustomer public returns (bool result)\n\n    {\n        require(status==RequestState.created);\n//        stepNumber++;\n        //        addCommentsForStep(stepNumber,comment);\n        status=RequestState.waitingtobank;\n\n        Submitted(getId(),msg.sender,comment,status, now);\n        //        log(\"submitted\",getId()+\"->\"+comment);\n//        Comment( getId(),stepNumber, status,comment);\n\n        return true;\n    }\n\n\n    event Withdrawal(address indexed requestId,address indexed msgSender,string commentline,uint timestamp);\n    //customer withdrawal request\n    function withdrawal(string comment) onlyCustomer public returns (bool result)\n    {\n        require(status!=RequestState.accepted);\n//        stepNumber++;\n        //        addCommentsForStep(stepNumber,comment);\n        status=RequestState.withdrawed;\n        Withdrawal(getId(),msg.sender,comment,now);\n        //        log(\"withdrawed\",getId()+\"->\"+comment);\n//        Comment(getId(), stepNumber, status,comment);\n\n        return true;\n    }\n\n    event Termination(address indexed  requestId,address indexed msgSender,uint timestamp);\n    //bank reject request\n    function terminateGuarantee()  public\n    {\n        require(status==RequestState.accepted );\n//        stepNumber++;\n\n        //        addCommentsForStep(stepNumber,_comment);\n        status=RequestState.terminationRequest;\n        Termination(getId(),msg.sender,now);\n//        Comment( getId(),stepNumber, status,_comment);\n        //         log(\"rejected\",getId()+\"->\"+comment);\n\n    }\n\n    event Rejected(address indexed requestId,address indexed msgSender,string commentline,uint timestamp);\n    //bank reject request\n    function reject(string comment) onlyBank public returns (bool result)\n    {\n        require(status!=RequestState.accepted);\n//        stepNumber++;\n        //        addCommentsForStep(stepNumber,comment);\n        status=RequestState.rejected;\n        Rejected(getId(),msg.sender,comment,now);\n//        Comment( getId(),stepNumber, status,comment);\n\n        //         log(\"rejected\",getId()+\"->\"+comment);\n        return true;\n\n    }\n\n\n    event BankStateChange(address indexed requestId,address indexed msgSender,RequestState _newStat,string commentline,uint timestamp);\n    //bank reject request\n    function bankStateChange(string comment ,RequestState _newState) onlyBank public returns (bool result)\n    {\n        require((status==RequestState.waitingtobank      ||\n        status==RequestState.handling           ) &&\n        (_newState==RequestState.handling           ||\n        _newState==RequestState.waitingtocustomer  ||\n        _newState==RequestState.waitingtobeneficiery ));\n//        stepNumber++;\n        //        addCommentsForStep(stepNumber,comment);\n        status=_newState;\n        BankStateChange(getId(),msg.sender,_newState,comment,now);\n//        Comment( getId(),stepNumber, status,comment);\n\n        //         log(\"rejected\",getId()+\"->\"+comment);\n        return true;\n\n    }\n\n\n    event Accepted(address indexed requestId,address indexed msgSender ,string commentline,uint timestamp);\n    //bank accept request\n    function accept() onlyRegulator public returns (bool result)\n    {\n        require((status==RequestState.waitingtobank || status==RequestState.handling || status==RequestState.changeRequested)  && guarantee==address(0));\n        status=RequestState.accepted;\n        Accepted(getId(),msg.sender,\"\",now);\n//        Comment( getId(),stepNumber, status,comment);\n        //        if (status!=RequestState.changeRequested)\n        //        {\n        //            GuaranteeRequest(changeRequest).\n        //            if (guarantee!= address(0))\n        //            {\n        //            GuaranteeExtender(guarantee).terminate();\n        //            }\n        //            addCommentsForStep(stepNumber,comment);\n        //            status=RequestState.terminationRequest;\n        //            Termination(getId(),msg.sender,comment);\n        //\n        //\n        //        }\n        return true;\n    }\n\n    event GuarantieSigned(address indexed requestId,address indexed  guarantieId,uint timestamp);\n    event GuarantieChangeSigned(address indexed requestId,address indexed  guarantieId,uint timestamp);\n\n    function signComplite(bytes _guaranteeIPFSHash) onlyRegulator public returns (address)\n    {\n        require( getRequestState()==RequestState.accepted && _checkArray(_guaranteeIPFSHash) && msg.sender == getRegulator());\n        GuaranteeExtender gr= new DigitalGuaranteeBNHP(getId(),getRegulator(),_guaranteeIPFSHash);\n        guarantee=gr.getId();\n        if (isChangeRequest())\n        {\n            GuarantieChangeSigned(getId(),gr.getId(),now);\n            GuaranteeExtender(changeRequestGuaranteeAdr).terminateGuarantee();\n        }\n    else\n        {\n            GuarantieSigned(getId(),gr.getId(),now);\n        }\n\n        return guarantee;\n    }\n\n    event GuarantieChangeRequested(address indexed requestId,address indexed  guarantieId,uint newamount, uint newendDate,uint timestamp);\n\n    function changeRequested(uint _newamount, uint _newendDate) onlyRegulator returns (bool result)\n    {\n        changeRequestGuaranteeAdr=guarantee;\n        status=RequestState.waitingtobank;\n        GuarantieChangeRequested(getId(),guarantee,_newamount,_newendDate,now);\n\n    return true;\n    }\n\n\n}\n",
  "sourcePath": "/Users/dmitryshlymovich/workspace/ethereum-garanties/truffle_eth_bnhp/contracts/GuaranteeRequest.sol",
  "schemaVersion": "1.0.0",
  "updatedAt": "2017-10-16T08:56:16.678Z"
}