{
  "contractName": "GuaranteeRequest",
  "abi": [
    {
      "constant": true,
      "inputs": [],
      "name": "getGuaranteeRequestData",
      "outputs": [
        {
          "name": "_contract_id",
          "type": "address"
        },
        {
          "name": "_customer",
          "type": "address"
        },
        {
          "name": "_bank",
          "type": "address"
        },
        {
          "name": "_beneficiary",
          "type": "address"
        },
        {
          "name": "_full_name",
          "type": "bytes32"
        },
        {
          "name": "_purpose",
          "type": "bytes32"
        },
        {
          "name": "_amount",
          "type": "uint256"
        },
        {
          "name": "_startDate",
          "type": "uint256"
        },
        {
          "name": "_endDate",
          "type": "uint256"
        },
        {
          "name": "_indexType",
          "type": "uint8"
        },
        {
          "name": "_indexDate",
          "type": "uint256"
        },
        {
          "name": "_status",
          "type": "uint8"
        },
        {
          "name": "_isChangeGuarantee",
          "type": "bool"
        },
        {
          "name": "_changedGuarantee",
          "type": "address"
        }
      ],
      "payable": false,
      "stateMutability": "view",
      "type": "function"
    },
    {
      "constant": false,
      "inputs": [
        {
          "name": "comment",
          "type": "string"
        }
      ],
      "name": "reject",
      "outputs": [
        {
          "name": "result",
          "type": "bool"
        }
      ],
      "payable": false,
      "stateMutability": "nonpayable",
      "type": "function"
    },
    {
      "constant": false,
      "inputs": [
        {
          "name": "_guaranteeIPFSHash",
          "type": "bytes"
        }
      ],
      "name": "signComplite",
      "outputs": [
        {
          "name": "",
          "type": "address"
        }
      ],
      "payable": false,
      "stateMutability": "nonpayable",
      "type": "function"
    },
    {
      "constant": false,
      "inputs": [],
      "name": "accept",
      "outputs": [
        {
          "name": "result",
          "type": "bool"
        }
      ],
      "payable": false,
      "stateMutability": "nonpayable",
      "type": "function"
    },
    {
      "constant": false,
      "inputs": [
        {
          "name": "_newamount",
          "type": "uint256"
        },
        {
          "name": "_newendDate",
          "type": "uint256"
        }
      ],
      "name": "changeRequested",
      "outputs": [],
      "payable": false,
      "stateMutability": "nonpayable",
      "type": "function"
    },
    {
      "constant": true,
      "inputs": [],
      "name": "isExpired",
      "outputs": [
        {
          "name": "",
          "type": "bool"
        }
      ],
      "payable": false,
      "stateMutability": "view",
      "type": "function"
    },
    {
      "constant": false,
      "inputs": [],
      "name": "getGuaranteeAddress",
      "outputs": [
        {
          "name": "",
          "type": "address"
        }
      ],
      "payable": false,
      "stateMutability": "nonpayable",
      "type": "function"
    },
    {
      "constant": false,
      "inputs": [],
      "name": "close",
      "outputs": [],
      "payable": false,
      "stateMutability": "nonpayable",
      "type": "function"
    },
    {
      "constant": false,
      "inputs": [],
      "name": "setRegulator",
      "outputs": [],
      "payable": false,
      "stateMutability": "nonpayable",
      "type": "function"
    },
    {
      "constant": false,
      "inputs": [
        {
          "name": "comment",
          "type": "string"
        }
      ],
      "name": "withdrawal",
      "outputs": [
        {
          "name": "result",
          "type": "bool"
        }
      ],
      "payable": false,
      "stateMutability": "nonpayable",
      "type": "function"
    },
    {
      "constant": true,
      "inputs": [],
      "name": "version",
      "outputs": [
        {
          "name": "",
          "type": "string"
        }
      ],
      "payable": false,
      "stateMutability": "view",
      "type": "function"
    },
    {
      "constant": true,
      "inputs": [],
      "name": "getBeneficiary",
      "outputs": [
        {
          "name": "_beneficiary",
          "type": "address"
        }
      ],
      "payable": false,
      "stateMutability": "view",
      "type": "function"
    },
    {
      "constant": true,
      "inputs": [],
      "name": "getId",
      "outputs": [
        {
          "name": "_contract_id",
          "type": "address"
        }
      ],
      "payable": false,
      "stateMutability": "view",
      "type": "function"
    },
    {
      "constant": true,
      "inputs": [],
      "name": "getBank",
      "outputs": [
        {
          "name": "_bank",
          "type": "address"
        }
      ],
      "payable": false,
      "stateMutability": "view",
      "type": "function"
    },
    {
      "constant": true,
      "inputs": [],
      "name": "getCustomer",
      "outputs": [
        {
          "name": "",
          "type": "address"
        }
      ],
      "payable": false,
      "stateMutability": "view",
      "type": "function"
    },
    {
      "constant": true,
      "inputs": [],
      "name": "getChangeRequestGuarantee",
      "outputs": [
        {
          "name": "",
          "type": "address"
        }
      ],
      "payable": false,
      "stateMutability": "view",
      "type": "function"
    },
    {
      "constant": true,
      "inputs": [],
      "name": "guaranteel",
      "outputs": [
        {
          "name": "",
          "type": "address"
        }
      ],
      "payable": false,
      "stateMutability": "view",
      "type": "function"
    },
    {
      "constant": true,
      "inputs": [],
      "name": "getOwner",
      "outputs": [
        {
          "name": "",
          "type": "address"
        }
      ],
      "payable": false,
      "stateMutability": "view",
      "type": "function"
    },
    {
      "constant": true,
      "inputs": [],
      "name": "owner",
      "outputs": [
        {
          "name": "",
          "type": "address"
        }
      ],
      "payable": false,
      "stateMutability": "view",
      "type": "function"
    },
    {
      "constant": true,
      "inputs": [],
      "name": "getRequestState",
      "outputs": [
        {
          "name": "",
          "type": "uint8"
        }
      ],
      "payable": false,
      "stateMutability": "view",
      "type": "function"
    },
    {
      "constant": false,
      "inputs": [
        {
          "name": "_newOwner",
          "type": "address"
        }
      ],
      "name": "changeOwner",
      "outputs": [],
      "payable": false,
      "stateMutability": "nonpayable",
      "type": "function"
    },
    {
      "constant": true,
      "inputs": [],
      "name": "getEndDate",
      "outputs": [
        {
          "name": "_date",
          "type": "uint256"
        }
      ],
      "payable": false,
      "stateMutability": "view",
      "type": "function"
    },
    {
      "constant": true,
      "inputs": [],
      "name": "isValid",
      "outputs": [
        {
          "name": "",
          "type": "bool"
        }
      ],
      "payable": false,
      "stateMutability": "view",
      "type": "function"
    },
    {
      "constant": true,
      "inputs": [],
      "name": "getProposalIPFSHash",
      "outputs": [
        {
          "name": "",
          "type": "bytes"
        }
      ],
      "payable": false,
      "stateMutability": "view",
      "type": "function"
    },
    {
      "constant": false,
      "inputs": [],
      "name": "terminateGuarantee",
      "outputs": [],
      "payable": false,
      "stateMutability": "nonpayable",
      "type": "function"
    },
    {
      "constant": false,
      "inputs": [],
      "name": "isChangeRequest",
      "outputs": [
        {
          "name": "",
          "type": "bool"
        }
      ],
      "payable": false,
      "stateMutability": "nonpayable",
      "type": "function"
    },
    {
      "constant": false,
      "inputs": [
        {
          "name": "comment",
          "type": "string"
        }
      ],
      "name": "submit",
      "outputs": [
        {
          "name": "result",
          "type": "bool"
        }
      ],
      "payable": false,
      "stateMutability": "nonpayable",
      "type": "function"
    },
    {
      "constant": true,
      "inputs": [],
      "name": "addresses",
      "outputs": [
        {
          "name": "bank",
          "type": "address"
        },
        {
          "name": "beneficiary",
          "type": "address"
        }
      ],
      "payable": false,
      "stateMutability": "view",
      "type": "function"
    },
    {
      "constant": true,
      "inputs": [],
      "name": "regulator",
      "outputs": [
        {
          "name": "",
          "type": "address"
        }
      ],
      "payable": false,
      "stateMutability": "view",
      "type": "function"
    },
    {
      "constant": false,
      "inputs": [
        {
          "name": "comment",
          "type": "string"
        },
        {
          "name": "_newState",
          "type": "uint8"
        }
      ],
      "name": "bankStateChange",
      "outputs": [
        {
          "name": "result",
          "type": "bool"
        }
      ],
      "payable": false,
      "stateMutability": "nonpayable",
      "type": "function"
    },
    {
      "constant": false,
      "inputs": [],
      "name": "getRegulator",
      "outputs": [
        {
          "name": "",
          "type": "address"
        }
      ],
      "payable": false,
      "stateMutability": "nonpayable",
      "type": "function"
    },
    {
      "inputs": [
        {
          "name": "_bank",
          "type": "address"
        },
        {
          "name": "_beneficiary",
          "type": "address"
        },
        {
          "name": "_full_name",
          "type": "bytes32"
        },
        {
          "name": "_purpose",
          "type": "bytes32"
        },
        {
          "name": "_amount",
          "type": "uint256"
        },
        {
          "name": "_startDate",
          "type": "uint256"
        },
        {
          "name": "_endDate",
          "type": "uint256"
        },
        {
          "name": "_indexType",
          "type": "uint8"
        },
        {
          "name": "_indexDate",
          "type": "uint256"
        },
        {
          "name": "_proposalIPFSHash",
          "type": "bytes"
        }
      ],
      "payable": false,
      "stateMutability": "nonpayable",
      "type": "constructor"
    },
    {
      "anonymous": false,
      "inputs": [
        {
          "indexed": true,
          "name": "requestId",
          "type": "address"
        },
        {
          "indexed": true,
          "name": "customer",
          "type": "address"
        },
        {
          "indexed": true,
          "name": "bank",
          "type": "address"
        },
        {
          "indexed": false,
          "name": "beneficiary",
          "type": "address"
        },
        {
          "indexed": false,
          "name": "curentstatus",
          "type": "uint8"
        },
        {
          "indexed": false,
          "name": "guarantyPurpose",
          "type": "bytes32"
        },
        {
          "indexed": false,
          "name": "requestAmount",
          "type": "uint256"
        },
        {
          "indexed": false,
          "name": "requestStartDate",
          "type": "uint256"
        },
        {
          "indexed": false,
          "name": "requestEndDate",
          "type": "uint256"
        },
        {
          "indexed": false,
          "name": "requestIndexType",
          "type": "uint8"
        },
        {
          "indexed": false,
          "name": "requestIndexDate",
          "type": "uint256"
        },
        {
          "indexed": false,
          "name": "timestamp",
          "type": "uint256"
        },
        {
          "indexed": false,
          "name": "proposalIPFSHash",
          "type": "bytes"
        }
      ],
      "name": "GuaranteeRequestCreated",
      "type": "event"
    },
    {
      "anonymous": false,
      "inputs": [
        {
          "indexed": true,
          "name": "requestId",
          "type": "address"
        },
        {
          "indexed": true,
          "name": "guarantieId",
          "type": "address"
        },
        {
          "indexed": false,
          "name": "newamount",
          "type": "uint256"
        },
        {
          "indexed": false,
          "name": "newendDate",
          "type": "uint256"
        },
        {
          "indexed": false,
          "name": "curentstatus",
          "type": "uint8"
        },
        {
          "indexed": false,
          "name": "timestamp",
          "type": "uint256"
        }
      ],
      "name": "GuarantieChangeRequested",
      "type": "event"
    },
    {
      "anonymous": false,
      "inputs": [
        {
          "indexed": true,
          "name": "requestId",
          "type": "address"
        },
        {
          "indexed": true,
          "name": "msgSender",
          "type": "address"
        },
        {
          "indexed": false,
          "name": "curentstatus",
          "type": "uint8"
        },
        {
          "indexed": false,
          "name": "commentline",
          "type": "string"
        },
        {
          "indexed": false,
          "name": "timestamp",
          "type": "uint256"
        }
      ],
      "name": "Submitted",
      "type": "event"
    },
    {
      "anonymous": false,
      "inputs": [
        {
          "indexed": true,
          "name": "requestId",
          "type": "address"
        },
        {
          "indexed": true,
          "name": "msgSender",
          "type": "address"
        },
        {
          "indexed": false,
          "name": "curentstatus",
          "type": "uint8"
        },
        {
          "indexed": false,
          "name": "commentline",
          "type": "string"
        },
        {
          "indexed": false,
          "name": "timestamp",
          "type": "uint256"
        }
      ],
      "name": "Withdrawal",
      "type": "event"
    },
    {
      "anonymous": false,
      "inputs": [
        {
          "indexed": true,
          "name": "requestId",
          "type": "address"
        },
        {
          "indexed": true,
          "name": "msgSender",
          "type": "address"
        },
        {
          "indexed": false,
          "name": "curentstatus",
          "type": "uint8"
        },
        {
          "indexed": false,
          "name": "timestamp",
          "type": "uint256"
        }
      ],
      "name": "Termination",
      "type": "event"
    },
    {
      "anonymous": false,
      "inputs": [
        {
          "indexed": true,
          "name": "requestId",
          "type": "address"
        },
        {
          "indexed": true,
          "name": "msgSender",
          "type": "address"
        },
        {
          "indexed": false,
          "name": "curentstatus",
          "type": "uint8"
        },
        {
          "indexed": false,
          "name": "commentline",
          "type": "string"
        },
        {
          "indexed": false,
          "name": "timestamp",
          "type": "uint256"
        }
      ],
      "name": "Rejected",
      "type": "event"
    },
    {
      "anonymous": false,
      "inputs": [
        {
          "indexed": true,
          "name": "requestId",
          "type": "address"
        },
        {
          "indexed": true,
          "name": "msgSender",
          "type": "address"
        },
        {
          "indexed": false,
          "name": "curentstatus",
          "type": "uint8"
        },
        {
          "indexed": false,
          "name": "commentline",
          "type": "string"
        },
        {
          "indexed": false,
          "name": "timestamp",
          "type": "uint256"
        }
      ],
      "name": "BankStateChange",
      "type": "event"
    },
    {
      "anonymous": false,
      "inputs": [
        {
          "indexed": true,
          "name": "requestId",
          "type": "address"
        },
        {
          "indexed": true,
          "name": "msgSender",
          "type": "address"
        },
        {
          "indexed": false,
          "name": "curentstatus",
          "type": "uint8"
        },
        {
          "indexed": false,
          "name": "timestamp",
          "type": "uint256"
        }
      ],
      "name": "Accepted",
      "type": "event"
    },
    {
      "anonymous": false,
      "inputs": [
        {
          "indexed": true,
          "name": "requestId",
          "type": "address"
        },
        {
          "indexed": true,
          "name": "guarantieId",
          "type": "address"
        },
        {
          "indexed": false,
          "name": "curentstatus",
          "type": "uint8"
        },
        {
          "indexed": false,
          "name": "timestamp",
          "type": "uint256"
        }
      ],
      "name": "GuarantieSigned",
      "type": "event"
    },
    {
      "anonymous": false,
      "inputs": [
        {
          "indexed": true,
          "name": "requestId",
          "type": "address"
        },
        {
          "indexed": true,
          "name": "guarantieId",
          "type": "address"
        },
        {
          "indexed": false,
          "name": "curentstatus",
          "type": "uint8"
        },
        {
          "indexed": false,
          "name": "timestamp",
          "type": "uint256"
        }
      ],
      "name": "GuarantieChangeSigned",
      "type": "event"
    }
  ],
  "bytecode": "0x6060604052336000806101000a81548173ffffffffffffffffffffffffffffffffffffffff021916908373ffffffffffffffffffffffffffffffffffffffff1602179055506040805190810160405280600481526020017f312e303000000000000000000000000000000000000000000000000000000000815250600390805190602001906200009192919062000430565b5034156200009e57600080fd5b60405162003b1338038062003b138339810160405280805190602001909190805190602001909190805190602001909190805190602001909190805190602001909190805190602001909190805190602001909190805190602001909190805190602001909190805182019190505089600460000160006101000a81548173ffffffffffffffffffffffffffffffffffffffff021916908373ffffffffffffffffffffffffffffffffffffffff16021790555088600460010160006101000a81548173ffffffffffffffffffffffffffffffffffffffff021916908373ffffffffffffffffffffffffffffffffffffffff16021790555086600781600019169055508560088190555087600681600019169055508460098190555083600a8190555082600b60006101000a81548160ff02191690836002811115620001df57fe5b021790555081600c8190555060008060146101000a81548160ff0219169083600a8111156200020a57fe5b021790555080600d908051906020019062000227929190620004b7565b508973ffffffffffffffffffffffffffffffffffffffff166200025d620003ff640100000000026200194b176401000000009004565b73ffffffffffffffffffffffffffffffffffffffff1662000291620004286401000000000262001916176401000000009004565b73ffffffffffffffffffffffffffffffffffffffff167f2fa3897c0f43ce3bb4755a179f18097a212d0dd14a0b2448aa4e511517dc973b8c600060149054906101000a900460ff168c8c8c8c8c8c428d604051808b73ffffffffffffffffffffffffffffffffffffffff1673ffffffffffffffffffffffffffffffffffffffff1681526020018a600a8111156200032457fe5b60ff16815260200189600019166000191681526020018881526020018781526020018681526020018560028111156200035957fe5b60ff16815260200184815260200183815260200180602001828103825283818151815260200191508051906020019080838360005b83811015620003ab5780820151818401526020810190506200038e565b50505050905090810190601f168015620003d95780820380516001836020036101000a031916815260200191505b509b50505050505050505050505060405180910390a45050505050505050505062000566565b60008060009054906101000a900473ffffffffffffffffffffffffffffffffffffffff16905090565b600030905090565b828054600181600116156101000203166002900490600052602060002090601f016020900481019282601f106200047357805160ff1916838001178555620004a4565b82800160010185558215620004a4579182015b82811115620004a357825182559160200191906001019062000486565b5b509050620004b391906200053e565b5090565b828054600181600116156101000203166002900490600052602060002090601f016020900481019282601f10620004fa57805160ff19168380011785556200052b565b828001600101855582156200052b579182015b828111156200052a5782518255916020019190600101906200050d565b5b5090506200053a91906200053e565b5090565b6200056391905b808211156200055f57600081600090555060010162000545565b5090565b90565b61359d80620005766000396000f300606060405260043610620001ab576000357c0100000000000000000000000000000000000000000000000000000000900463ffffffff1680631c32e7af14620001b0578063201c5cc114620003455780632259515b14620003bd5780632852b71c146200045d5780632beba68b146200048d5780632f13b60c14620004bc5780633f40d18f14620004ec57806343d726d614620005445780634a0b20aa146200055c5780634a51c31c146200057457806354fd4d5014620005ec578063565a2e2c14620006805780635d1ca63114620006d857806360d704db1462000730578063650d993b14620007885780636f00817e14620007e057806379d259f41462000838578063893d20e814620008905780638da5cb5b14620008e8578063a39152f21462000940578063a6f9dae1146200097b578063b135648814620009b7578063bb5d40eb14620009e3578063c3287ea71462000a13578063c700c70d1462000aa7578063cded37371462000abf578063d99a8dc31462000aef578063da0321cd1462000b67578063dd8fee141462000bf2578063f40bd94a1462000c4a578063f7e317f41462000cce575b600080fd5b3415620001bc57600080fd5b620001c662000d26565b604051808f73ffffffffffffffffffffffffffffffffffffffff1673ffffffffffffffffffffffffffffffffffffffff1681526020018e73ffffffffffffffffffffffffffffffffffffffff1673ffffffffffffffffffffffffffffffffffffffff1681526020018d73ffffffffffffffffffffffffffffffffffffffff1673ffffffffffffffffffffffffffffffffffffffff1681526020018c73ffffffffffffffffffffffffffffffffffffffff1673ffffffffffffffffffffffffffffffffffffffff1681526020018b600019166000191681526020018a60001916600019168152602001898152602001888152602001878152602001866002811115620002cd57fe5b60ff16815260200185815260200184600a811115620002e857fe5b60ff168152602001831515151581526020018273ffffffffffffffffffffffffffffffffffffffff1673ffffffffffffffffffffffffffffffffffffffff1681526020019e50505050505050505050505050505060405180910390f35b34156200035157600080fd5b620003a3600480803590602001908201803590602001908080601f0160208091040260200160405190810160405280939291908181526020018383808284378201915050505050509190505062000dd5565b604051808215151515815260200191505060405180910390f35b3415620003c957600080fd5b6200041b600480803590602001908201803590602001908080601f0160208091040260200160405190810160405280939291908181526020018383808284378201915050505050509190505062000f41565b604051808273ffffffffffffffffffffffffffffffffffffffff1673ffffffffffffffffffffffffffffffffffffffff16815260200191505060405180910390f35b34156200046957600080fd5b62000473620012ae565b604051808215151515815260200191505060405180910390f35b34156200049957600080fd5b620004ba600480803590602001909190803590602001909190505062001492565b005b3415620004c857600080fd5b620004d262001581565b604051808215151515815260200191505060405180910390f35b3415620004f857600080fd5b6200050262001594565b604051808273ffffffffffffffffffffffffffffffffffffffff1673ffffffffffffffffffffffffffffffffffffffff16815260200191505060405180910390f35b34156200055057600080fd5b6200055a620015be565b005b34156200056857600080fd5b6200057262001654565b005b34156200058057600080fd5b620005d2600480803590602001908201803590602001908080601f0160208091040260200160405190810160405280939291908181526020018383808284378201915050505050509190505062001697565b604051808215151515815260200191505060405180910390f35b3415620005f857600080fd5b6200060262001847565b6040518080602001828103825283818151815260200191508051906020019080838360005b838110156200064457808201518184015260208101905062000627565b50505050905090810190601f168015620006725780820380516001836020036101000a031916815260200191505b509250505060405180910390f35b34156200068c57600080fd5b62000696620018e9565b604051808273ffffffffffffffffffffffffffffffffffffffff1673ffffffffffffffffffffffffffffffffffffffff16815260200191505060405180910390f35b3415620006e457600080fd5b620006ee62001916565b604051808273ffffffffffffffffffffffffffffffffffffffff1673ffffffffffffffffffffffffffffffffffffffff16815260200191505060405180910390f35b34156200073c57600080fd5b620007466200191e565b604051808273ffffffffffffffffffffffffffffffffffffffff1673ffffffffffffffffffffffffffffffffffffffff16815260200191505060405180910390f35b34156200079457600080fd5b6200079e6200194b565b604051808273ffffffffffffffffffffffffffffffffffffffff1673ffffffffffffffffffffffffffffffffffffffff16815260200191505060405180910390f35b3415620007ec57600080fd5b620007f662001974565b604051808273ffffffffffffffffffffffffffffffffffffffff1673ffffffffffffffffffffffffffffffffffffffff16815260200191505060405180910390f35b34156200084457600080fd5b6200084e6200197c565b604051808273ffffffffffffffffffffffffffffffffffffffff1673ffffffffffffffffffffffffffffffffffffffff16815260200191505060405180910390f35b34156200089c57600080fd5b620008a6620019a2565b604051808273ffffffffffffffffffffffffffffffffffffffff1673ffffffffffffffffffffffffffffffffffffffff16815260200191505060405180910390f35b3415620008f457600080fd5b620008fe620019cb565b604051808273ffffffffffffffffffffffffffffffffffffffff1673ffffffffffffffffffffffffffffffffffffffff16815260200191505060405180910390f35b34156200094c57600080fd5b62000956620019f0565b6040518082600a8111156200096757fe5b60ff16815260200191505060405180910390f35b34156200098757600080fd5b620009b5600480803573ffffffffffffffffffffffffffffffffffffffff1690602001909190505062001a06565b005b3415620009c357600080fd5b620009cd62001aca565b6040518082815260200191505060405180910390f35b3415620009ef57600080fd5b620009f962001ad4565b604051808215151515815260200191505060405180910390f35b341562000a1f57600080fd5b62000a2962001b57565b6040518080602001828103825283818151815260200191508051906020019080838360005b8381101562000a6b57808201518184015260208101905062000a4e565b50505050905090810190601f16801562000a995780820380516001836020036101000a031916815260200191505b509250505060405180910390f35b341562000ab357600080fd5b62000abd62001c05565b005b341562000acb57600080fd5b62000ad562001cf7565b604051808215151515815260200191505060405180910390f35b341562000afb57600080fd5b62000b4d600480803590602001908201803590602001908080601f0160208091040260200160405190810160405280939291908181526020018383808284378201915050505050509190505062001d37565b604051808215151515815260200191505060405180910390f35b341562000b7357600080fd5b62000b7d62001ee6565b604051808373ffffffffffffffffffffffffffffffffffffffff1673ffffffffffffffffffffffffffffffffffffffff1681526020018273ffffffffffffffffffffffffffffffffffffffff1673ffffffffffffffffffffffffffffffffffffffff1681526020019250505060405180910390f35b341562000bfe57600080fd5b62000c0862001f38565b604051808273ffffffffffffffffffffffffffffffffffffffff1673ffffffffffffffffffffffffffffffffffffffff16815260200191505060405180910390f35b341562000c5657600080fd5b62000cb4600480803590602001908201803590602001908080601f0160208091040260200160405190810160405280939291908181526020018383808284378201915050505050509190803560ff1690602001909190505062001f5e565b604051808215151515815260200191505060405180910390f35b341562000cda57600080fd5b62000ce46200219e565b604051808273ffffffffffffffffffffffffffffffffffffffff1673ffffffffffffffffffffffffffffffffffffffff16815260200191505060405180910390f35b60008060008060008060008060008060008060008062000d4562001916565b9d5062000d516200194b565b9c5062000d5d6200191e565b9b5062000d69620018e9565b9a506007549850600854975060065499506009549650600a549550600b60009054906101000a900460ff169450600c549350600060149054906101000a900460ff16925062000db762001cf7565b915062000dc362001974565b9050909192939495969798999a9b9c9d565b60006006600a81111562000de557fe5b600060149054906101000a900460ff16600a81111562000e0157fe5b1415151562000e0f57600080fd5b6008600060146101000a81548160ff0219169083600a81111562000e2f57fe5b02179055503373ffffffffffffffffffffffffffffffffffffffff1662000e5562001916565b73ffffffffffffffffffffffffffffffffffffffff167feb463c1ffd4e2e84feaf7746bb60dd6b9471dbbf9edd2b020a53869f796cd78d600060149054906101000a900460ff1685426040518084600a81111562000eaf57fe5b60ff16815260200180602001838152602001828103825284818151815260200191508051906020019080838360005b8381101562000efb57808201518184015260208101905062000ede565b50505050905090810190601f16801562000f295780820380516001836020036101000a031916815260200191505b5094505050505060405180910390a360019050919050565b6000806006600a81111562000f5257fe5b62000f5c620019f0565b600a81111562000f6857fe5b14801562000f7d575062000f7c83620021c8565b5b801562000fbe575062000f8f6200219e565b73ffffffffffffffffffffffffffffffffffffffff163373ffffffffffffffffffffffffffffffffffffffff16145b151562000fca57600080fd5b3062000fd56200219e565b8462000fe0620021e8565b808473ffffffffffffffffffffffffffffffffffffffff1673ffffffffffffffffffffffffffffffffffffffff1681526020018373ffffffffffffffffffffffffffffffffffffffff1673ffffffffffffffffffffffffffffffffffffffff16815260200180602001828103825283818151815260200191508051906020019080838360005b838110156200108357808201518184015260208101905062001066565b50505050905090810190601f168015620010b15780820380516001836020036101000a031916815260200191505b50945050505050604051809103906000f0801515620010cf57600080fd5b905080600260006101000a81548173ffffffffffffffffffffffffffffffffffffffff021916908373ffffffffffffffffffffffffffffffffffffffff1602179055506200111c62001cf7565b15620011d557600260009054906101000a900473ffffffffffffffffffffffffffffffffffffffff1673ffffffffffffffffffffffffffffffffffffffff163073ffffffffffffffffffffffffffffffffffffffff167f5cf2a7101a7acad9a26aabd8c2b95e616fa3c5c8e93e3f30419151a370f4ef34600060149054906101000a900460ff16426040518083600a811115620011b557fe5b60ff1681526020018281526020019250505060405180910390a362001283565b600260009054906101000a900473ffffffffffffffffffffffffffffffffffffffff1673ffffffffffffffffffffffffffffffffffffffff163073ffffffffffffffffffffffffffffffffffffffff167f9f3a4dc4a2920969299d37a1a55dc00ce978fe5e0ac8b2a4d87fbe66fd4d283b600060149054906101000a900460ff16426040518083600a8111156200126857fe5b60ff1681526020018281526020019250505060405180910390a35b600260009054906101000a900473ffffffffffffffffffffffffffffffffffffffff16915050919050565b6000600160009054906101000a900473ffffffffffffffffffffffffffffffffffffffff1673ffffffffffffffffffffffffffffffffffffffff163373ffffffffffffffffffffffffffffffffffffffff161415156200130d57600080fd5b6001600a8111156200131b57fe5b600060149054906101000a900460ff16600a8111156200133757fe5b14806200136b57506002600a8111156200134d57fe5b600060149054906101000a900460ff16600a8111156200136957fe5b145b8015620013c65750600073ffffffffffffffffffffffffffffffffffffffff16600260009054906101000a900473ffffffffffffffffffffffffffffffffffffffff1673ffffffffffffffffffffffffffffffffffffffff16145b1515620013d257600080fd5b6006600060146101000a81548160ff0219169083600a811115620013f257fe5b02179055503373ffffffffffffffffffffffffffffffffffffffff166200141862001916565b73ffffffffffffffffffffffffffffffffffffffff167f89e5f8cd748cff430d9087f4e0e0ef20acd32d0e6686df96c89d726e35e68ab5600060149054906101000a900460ff16426040518083600a8111156200147157fe5b60ff1681526020018281526020019250505060405180910390a36001905090565b6007600060146101000a81548160ff0219169083600a811115620014b257fe5b0217905550600260009054906101000a900473ffffffffffffffffffffffffffffffffffffffff1673ffffffffffffffffffffffffffffffffffffffff16620014fa62001916565b73ffffffffffffffffffffffffffffffffffffffff167fb42cc91db936a84b66eef34e5d2852b519032c7921629568c4589c97396a5ad28484600060149054906101000a900460ff16426040518085815260200184815260200183600a8111156200156157fe5b60ff16815260200182815260200194505050505060405180910390a35050565b6000426200158e62001aca565b10905090565b6000600260009054906101000a900473ffffffffffffffffffffffffffffffffffffffff16905090565b6000809054906101000a900473ffffffffffffffffffffffffffffffffffffffff1673ffffffffffffffffffffffffffffffffffffffff163373ffffffffffffffffffffffffffffffffffffffff161415156200161a57600080fd5b6000809054906101000a900473ffffffffffffffffffffffffffffffffffffffff1673ffffffffffffffffffffffffffffffffffffffff16ff5b33600160006101000a81548173ffffffffffffffffffffffffffffffffffffffff021916908373ffffffffffffffffffffffffffffffffffffffff160217905550565b6000620016a36200194b565b73ffffffffffffffffffffffffffffffffffffffff163373ffffffffffffffffffffffffffffffffffffffff16141515620016dd57600080fd5b6006600a811115620016eb57fe5b600060149054906101000a900460ff16600a8111156200170757fe5b141515156200171557600080fd5b6005600060146101000a81548160ff0219169083600a8111156200173557fe5b02179055503373ffffffffffffffffffffffffffffffffffffffff166200175b62001916565b73ffffffffffffffffffffffffffffffffffffffff167fdc36f94f1c16d61fe684e365e0c2a72b23aebb7adedf5aaa22fab76156a7efe7600060149054906101000a900460ff1685426040518084600a811115620017b557fe5b60ff16815260200180602001838152602001828103825284818151815260200191508051906020019080838360005b8381101562001801578082015181840152602081019050620017e4565b50505050905090810190601f1680156200182f5780820380516001836020036101000a031916815260200191505b5094505050505060405180910390a360019050919050565b60038054600181600116156101000203166002900480601f016020809104026020016040519081016040528092919081815260200182805460018160011615610100020316600290048015620018e15780601f10620018b557610100808354040283529160200191620018e1565b820191906000526020600020905b815481529060010190602001808311620018c357829003601f168201915b505050505081565b6000600460010160009054906101000a900473ffffffffffffffffffffffffffffffffffffffff16905090565b600030905090565b6000600460000160009054906101000a900473ffffffffffffffffffffffffffffffffffffffff16905090565b60008060009054906101000a900473ffffffffffffffffffffffffffffffffffffffff16905090565b600080905090565b600260009054906101000a900473ffffffffffffffffffffffffffffffffffffffff1681565b60008060009054906101000a900473ffffffffffffffffffffffffffffffffffffffff16905090565b6000809054906101000a900473ffffffffffffffffffffffffffffffffffffffff1681565b60008060149054906101000a900460ff16905090565b6000809054906101000a900473ffffffffffffffffffffffffffffffffffffffff1673ffffffffffffffffffffffffffffffffffffffff163373ffffffffffffffffffffffffffffffffffffffff1614151562001a6257600080fd5b60008173ffffffffffffffffffffffffffffffffffffffff16141562001a8757600080fd5b806000806101000a81548173ffffffffffffffffffffffffffffffffffffffff021916908373ffffffffffffffffffffffffffffffffffffffff16021790555050565b6000600a54905090565b60008073ffffffffffffffffffffffffffffffffffffffff1662001af76200191e565b73ffffffffffffffffffffffffffffffffffffffff161415801562001b525750600073ffffffffffffffffffffffffffffffffffffffff1662001b39620018e9565b73ffffffffffffffffffffffffffffffffffffffff1614155b905090565b62001b61620021f9565b600d8054600181600116156101000203166002900480601f01602080910402602001604051908101604052809291908181526020018280546001816001161561010002031660029004801562001bfb5780601f1062001bcf5761010080835404028352916020019162001bfb565b820191906000526020600020905b81548152906001019060200180831162001bdd57829003601f168201915b5050505050905090565b6006600a81111562001c1357fe5b600060149054906101000a900460ff16600a81111562001c2f57fe5b14151562001c3c57600080fd5b6009600060146101000a81548160ff0219169083600a81111562001c5c57fe5b02179055503373ffffffffffffffffffffffffffffffffffffffff1662001c8262001916565b73ffffffffffffffffffffffffffffffffffffffff167fb045224df2b3987361a530219dd4444888d47a8e07af71c364c99fe7468f176f600060149054906101000a900460ff16426040518083600a81111562001cdb57fe5b60ff1681526020018281526020019250505060405180910390a3565b60008073ffffffffffffffffffffffffffffffffffffffff1662001d1a62001974565b73ffffffffffffffffffffffffffffffffffffffff161415905090565b600062001d436200194b565b73ffffffffffffffffffffffffffffffffffffffff163373ffffffffffffffffffffffffffffffffffffffff1614151562001d7d57600080fd5b6000600a81111562001d8b57fe5b600060149054906101000a900460ff16600a81111562001da757fe5b14151562001db457600080fd5b6001600060146101000a81548160ff0219169083600a81111562001dd457fe5b02179055503373ffffffffffffffffffffffffffffffffffffffff1662001dfa62001916565b73ffffffffffffffffffffffffffffffffffffffff167fe10024035668761375cfcfe9cbd74261a7c93ffafc8059f85ba7477baf874921600060149054906101000a900460ff1685426040518084600a81111562001e5457fe5b60ff16815260200180602001838152602001828103825284818151815260200191508051906020019080838360005b8381101562001ea057808201518184015260208101905062001e83565b50505050905090810190601f16801562001ece5780820380516001836020036101000a031916815260200191505b5094505050505060405180910390a360019050919050565b60048060000160009054906101000a900473ffffffffffffffffffffffffffffffffffffffff16908060010160009054906101000a900473ffffffffffffffffffffffffffffffffffffffff16905082565b600160009054906101000a900473ffffffffffffffffffffffffffffffffffffffff1681565b600062001f6a6200191e565b73ffffffffffffffffffffffffffffffffffffffff163373ffffffffffffffffffffffffffffffffffffffff1614151562001fa457600080fd5b6001600a81111562001fb257fe5b600060149054906101000a900460ff16600a81111562001fce57fe5b14806200200257506002600a81111562001fe457fe5b600060149054906101000a900460ff16600a8111156200200057fe5b145b80156200206f57506002600a8111156200201857fe5b82600a8111156200202557fe5b14806200204a57506003600a8111156200203b57fe5b82600a8111156200204857fe5b145b806200206e57506004600a8111156200205f57fe5b82600a8111156200206c57fe5b145b5b15156200207b57600080fd5b81600060146101000a81548160ff0219169083600a8111156200209a57fe5b02179055503373ffffffffffffffffffffffffffffffffffffffff16620020c062001916565b73ffffffffffffffffffffffffffffffffffffffff167f508c5c654e715d2dda84dde20b40b29a2b462944231ab692f10b091a38541a8d8486426040518084600a8111156200210b57fe5b60ff16815260200180602001838152602001828103825284818151815260200191508051906020019080838360005b83811015620021575780820151818401526020810190506200213a565b50505050905090810190601f168015620021855780820380516001836020036101000a031916815260200191505b5094505050505060405180910390a36001905092915050565b6000600160009054906101000a900473ffffffffffffffffffffffffffffffffffffffff16905090565b60008082511115620021de5760019050620021e3565b600090505b919050565b604051611364806200220e83390190565b60206040519081016040528060008152509056006060604052336000806101000a81548173ffffffffffffffffffffffffffffffffffffffff021916908373ffffffffffffffffffffffffffffffffffffffff16021790555034156200005057600080fd5b60405162001364380380620013648339810160405280805190602001909190805190602001909190805182019190505082600160006101000a81548173ffffffffffffffffffffffffffffffffffffffff021916908373ffffffffffffffffffffffffffffffffffffffff16021790555081600260006101000a81548173ffffffffffffffffffffffffffffffffffffffff021916908373ffffffffffffffffffffffffffffffffffffffff16021790555080600390805190602001906200011a929190620002b2565b506001600260146101000a81548160ff021916908360048111156200013b57fe5b02179055507feeb6ffd7090cc72ad3fc8b9c2879f7b97d4f9eb9b2943c50a4cbab3931db090983303384600260149054906101000a900460ff1642604051808773ffffffffffffffffffffffffffffffffffffffff1673ffffffffffffffffffffffffffffffffffffffff1681526020018673ffffffffffffffffffffffffffffffffffffffff1673ffffffffffffffffffffffffffffffffffffffff1681526020018573ffffffffffffffffffffffffffffffffffffffff1673ffffffffffffffffffffffffffffffffffffffff168152602001806020018460048111156200022157fe5b60ff168152602001838152602001828103825285818151815260200191508051906020019080838360005b83811015620002695780820151818401526020810190506200024c565b50505050905090810190601f168015620002975780820380516001836020036101000a031916815260200191505b5097505050505050505060405180910390a150505062000361565b828054600181600116156101000203166002900490600052602060002090601f016020900481019282601f10620002f557805160ff191683800117855562000326565b8280016001018555821562000326579182015b828111156200032557825182559160200191906001019062000308565b5b50905062000335919062000339565b5090565b6200035e91905b808211156200035a57600081600090555060010162000340565b5090565b90565b610ff380620003716000396000f3006060604052600436106100d0576000357c0100000000000000000000000000000000000000000000000000000000900463ffffffff1680631865c57d146100d55780632f13b60c1461010c57806338e537b31461013957806343d726d6146102be578063488523bc146102d3578063565a2e2c146103615780635d1ca631146103b657806388a22f7a1461040b578063893d20e8146104605780638da5cb5b146104b5578063a6f9dae11461050a578063b135648814610543578063bea14fc11461056c578063c700c70d14610598575b600080fd5b34156100e057600080fd5b6100e86105ad565b604051808260048111156100f857fe5b60ff16815260200191505060405180910390f35b341561011757600080fd5b61011f61060a565b604051808215151515815260200191505060405180910390f35b341561014457600080fd5b61014c61061b565b604051808e73ffffffffffffffffffffffffffffffffffffffff1673ffffffffffffffffffffffffffffffffffffffff1681526020018d73ffffffffffffffffffffffffffffffffffffffff1673ffffffffffffffffffffffffffffffffffffffff1681526020018c73ffffffffffffffffffffffffffffffffffffffff1673ffffffffffffffffffffffffffffffffffffffff1681526020018b73ffffffffffffffffffffffffffffffffffffffff1673ffffffffffffffffffffffffffffffffffffffff1681526020018a73ffffffffffffffffffffffffffffffffffffffff1673ffffffffffffffffffffffffffffffffffffffff1681526020018960001916600019168152602001886000191660001916815260200187815260200186815260200185815260200184600281111561028457fe5b60ff16815260200183815260200182600481111561029e57fe5b60ff1681526020019d505050505050505050505050505060405180910390f35b34156102c957600080fd5b6102d1610964565b005b34156102de57600080fd5b6102e66109f9565b6040518080602001828103825283818151815260200191508051906020019080838360005b8381101561032657808201518184015260208101905061030b565b50505050905090810190601f1680156103535780820380516001836020036101000a031916815260200191505b509250505060405180910390f35b341561036c57600080fd5b610374610aa1565b604051808273ffffffffffffffffffffffffffffffffffffffff1673ffffffffffffffffffffffffffffffffffffffff16815260200191505060405180910390f35b34156103c157600080fd5b6103c9610b56565b604051808273ffffffffffffffffffffffffffffffffffffffff1673ffffffffffffffffffffffffffffffffffffffff16815260200191505060405180910390f35b341561041657600080fd5b61041e610b5e565b604051808273ffffffffffffffffffffffffffffffffffffffff1673ffffffffffffffffffffffffffffffffffffffff16815260200191505060405180910390f35b341561046b57600080fd5b610473610b88565b604051808273ffffffffffffffffffffffffffffffffffffffff1673ffffffffffffffffffffffffffffffffffffffff16815260200191505060405180910390f35b34156104c057600080fd5b6104c8610bb1565b604051808273ffffffffffffffffffffffffffffffffffffffff1673ffffffffffffffffffffffffffffffffffffffff16815260200191505060405180910390f35b341561051557600080fd5b610541600480803573ffffffffffffffffffffffffffffffffffffffff16906020019091905050610bd6565b005b341561054e57600080fd5b610556610c98565b6040518082815260200191505060405180910390f35b341561057757600080fd5b6105966004808035906020019091908035906020019091905050610d4d565b005b34156105a357600080fd5b6105ab610e6c565b005b6000600160048111156105bc57fe5b600260149054906101000a900460ff1660048111156105d757fe5b14156105f4576105e561060a565b156105f35760029050610607565b5b600260149054906101000a900460ff1690505b90565b600042610615610c98565b10905090565b600080600080600080600080600080600080600080600160009054906101000a900473ffffffffffffffffffffffffffffffffffffffff1690508073ffffffffffffffffffffffffffffffffffffffff16631c32e7af60006040516101c001526040518163ffffffff167c01000000000000000000000000000000000000000000000000000000000281526004016101c060405180830381600087803b15156106c357600080fd5b6102c65a03f115156106d457600080fd5b50505060405180519060200180519060200180519060200180519060200180519060200180519060200180519060200180519060200180519060200180519060200180519060200180519060200180519060200180519050909192939495969798999a9b9c50909192939495969798999a9b50909192939495969798999a509091929394959697989950909150905050809950819a50829b50839c50849d50859e50869f5050505050505050600160009054906101000a900473ffffffffffffffffffffffffffffffffffffffff169c506107ad610b56565b9d508073ffffffffffffffffffffffffffffffffffffffff1663650d993b6000604051602001526040518163ffffffff167c0100000000000000000000000000000000000000000000000000000000028152600401602060405180830381600087803b151561081b57600080fd5b6102c65a03f1151561082c57600080fd5b505050604051805190509b508073ffffffffffffffffffffffffffffffffffffffff166360d704db6000604051602001526040518163ffffffff167c0100000000000000000000000000000000000000000000000000000000028152600401602060405180830381600087803b15156108a457600080fd5b6102c65a03f115156108b557600080fd5b505050604051805190509a508073ffffffffffffffffffffffffffffffffffffffff1663565a2e2c6000604051602001526040518163ffffffff167c0100000000000000000000000000000000000000000000000000000000028152600401602060405180830381600087803b151561092d57600080fd5b6102c65a03f1151561093e57600080fd5b5050506040518051905099506109526105ad565b915050909192939495969798999a9b9c565b6000809054906101000a900473ffffffffffffffffffffffffffffffffffffffff1673ffffffffffffffffffffffffffffffffffffffff163373ffffffffffffffffffffffffffffffffffffffff161415156109bf57600080fd5b6000809054906101000a900473ffffffffffffffffffffffffffffffffffffffff1673ffffffffffffffffffffffffffffffffffffffff16ff5b610a01610fb3565b60038054600181600116156101000203166002900480601f016020809104026020016040519081016040528092919081815260200182805460018160011615610100020316600290048015610a975780601f10610a6c57610100808354040283529160200191610a97565b820191906000526020600020905b815481529060010190602001808311610a7a57829003601f168201915b5050505050905090565b600080600160009054906101000a900473ffffffffffffffffffffffffffffffffffffffff1690508073ffffffffffffffffffffffffffffffffffffffff1663565a2e2c6000604051602001526040518163ffffffff167c0100000000000000000000000000000000000000000000000000000000028152600401602060405180830381600087803b1515610b3557600080fd5b6102c65a03f11515610b4657600080fd5b5050506040518051905091505090565b600030905090565b6000600160009054906101000a900473ffffffffffffffffffffffffffffffffffffffff16905090565b60008060009054906101000a900473ffffffffffffffffffffffffffffffffffffffff16905090565b6000809054906101000a900473ffffffffffffffffffffffffffffffffffffffff1681565b6000809054906101000a900473ffffffffffffffffffffffffffffffffffffffff1673ffffffffffffffffffffffffffffffffffffffff163373ffffffffffffffffffffffffffffffffffffffff16141515610c3157600080fd5b60008173ffffffffffffffffffffffffffffffffffffffff161415610c5557600080fd5b806000806101000a81548173ffffffffffffffffffffffffffffffffffffffff021916908373ffffffffffffffffffffffffffffffffffffffff16021790555050565b600080600160009054906101000a900473ffffffffffffffffffffffffffffffffffffffff1690508073ffffffffffffffffffffffffffffffffffffffff1663b13564886000604051602001526040518163ffffffff167c0100000000000000000000000000000000000000000000000000000000028152600401602060405180830381600087803b1515610d2c57600080fd5b6102c65a03f11515610d3d57600080fd5b5050506040518051905091505090565b7f4d3c9d0e5ee7cb52dbdaaf1fe7b04b94f5d6406283723738ce2a85d0d536998a610d76610b56565b30338585610d826105ad565b42604051808873ffffffffffffffffffffffffffffffffffffffff1673ffffffffffffffffffffffffffffffffffffffff1681526020018773ffffffffffffffffffffffffffffffffffffffff1673ffffffffffffffffffffffffffffffffffffffff1681526020018673ffffffffffffffffffffffffffffffffffffffff1673ffffffffffffffffffffffffffffffffffffffff16815260200185815260200184815260200180602001846004811115610e3957fe5b60ff1681526020018381526020018281038252600081526020016020019850505050505050505060405180910390a15050565b6003600260146101000a81548160ff02191690836004811115610e8b57fe5b02179055507f6518c1da158fee6a2676b0f54a238f60b8607b47ed05a8ac7108a7a866c25fdd600160009054906101000a900473ffffffffffffffffffffffffffffffffffffffff16610edc610b56565b33600260149054906101000a900460ff1642604051808673ffffffffffffffffffffffffffffffffffffffff1673ffffffffffffffffffffffffffffffffffffffff1681526020018573ffffffffffffffffffffffffffffffffffffffff1673ffffffffffffffffffffffffffffffffffffffff1681526020018473ffffffffffffffffffffffffffffffffffffffff1673ffffffffffffffffffffffffffffffffffffffff168152602001836004811115610f9457fe5b60ff1681526020018281526020019550505050505060405180910390a1565b6020604051908101604052806000815250905600a165627a7a72305820b4d2fddc5d86f7d4a4302fa23a51828abfce66638640bd2852d36e803ce610e50029a165627a7a723058203fe106cb788788c1a3f25ccea127ac611bd6ba09281983581035757ccea07c3b0029",
  "source": "pragma solidity ^0.4.13;\n\nimport \"./GuaranteeConst.sol\";\nimport \"./GuaranteeRequestExtender.sol\";\nimport \"./GuaranteeExtender.sol\";\nimport \"./DigitalGuaranteeBNHP.sol\";\n\ncontract GuaranteeRequest is GuaranteeRequestExtender{\n    string public version = \"1.00\";\n\n    //holds the addresses of the participating parties for demo reasons\n    struct Addresses {\n    address bank;\n//    address customer;\n    address beneficiary;\n    }\n\n    Addresses public addresses;\n\n    bytes32  full_name;\n\n    bytes32  purpose;\n    uint  amount;\n    uint  startDate;\n    uint  endDate;\n\n    IndexType  indexType;\n    uint  indexDate;\n\n    bytes  theproposalIPFSHash;\n//    bytes  guaranteeIPFSHash;\n\n//    RequestState   status;\n\n//    int  stepNumber;\n\n\n\n//    event Comment(address indexed requestId,int  numberOfStep,RequestState requestState,string commentline,uint timestamp) ;\n\n\n    event GuaranteeRequestCreated (address indexed requestId,address indexed customer ,address indexed bank ,address  beneficiary ,RequestState   curentstatus,bytes32 guarantyPurpose,\n    uint requestAmount, uint requestStartDate,uint requestEndDate,IndexType requestIndexType,uint requestIndexDate,uint timestamp,bytes  proposalIPFSHash);\n\n\n\n    function GuaranteeRequest(address _bank ,address _beneficiary ,bytes32 _full_name ,bytes32 _purpose,\n    uint _amount, uint _startDate,uint _endDate,IndexType _indexType,uint _indexDate,bytes  _proposalIPFSHash)\n    {\n        addresses.bank=_bank;\n        addresses.beneficiary=_beneficiary;\n        purpose=_purpose;\n        amount=_amount;\n        full_name=_full_name;\n        startDate=_startDate;\n        endDate=_endDate;\n        indexType= _indexType;\n        indexDate= _indexDate;\n        status=RequestState.created;\n\n        theproposalIPFSHash=  _proposalIPFSHash ;\n        GuaranteeRequestCreated(getId(),getCustomer() , _bank,_beneficiary ,   status, _purpose,  _amount,  _startDate, _endDate, _indexType, _indexDate , now ,_proposalIPFSHash);\n\n    }\n\n    function getId() constant public returns (address _contract_id)\n    {\n        _contract_id=this;\n//        return this;\n    }\n\n\n\n    function getBank() constant public returns (address _bank)\n    {\n        return addresses.bank;\n    }\n    function getBeneficiary() constant public returns (address _beneficiary)\n    {\n        return addresses.beneficiary;\n    }\n\n    function getEndDate() constant public returns (uint _date)\n    {\n        return endDate;\n    }\n\n\n\n    function getGuaranteeRequestData() constant public returns (address _contract_id,address _customer,address _bank, address _beneficiary,\n    bytes32 _full_name,bytes32 _purpose,uint _amount,uint _startDate,uint _endDate,IndexType _indexType,uint _indexDate,RequestState _status ,bool _isChangeGuarantee,address _changedGuarantee)\n    {\n\n        _contract_id=getId();\n        _customer=getCustomer();\n        _bank=getBank();\n        _beneficiary=getBeneficiary();\n        _purpose=purpose;\n        _amount=amount;\n        _full_name=full_name;\n        _startDate=startDate;\n        _endDate=endDate;\n        _indexType=indexType;\n        _indexDate=indexDate;\n        _status=status;\n        _isChangeGuarantee=isChangeRequest();\n        _changedGuarantee=getChangeRequestGuarantee();\n\n\n    }\n    function getProposalIPFSHash() public constant returns (bytes )\n    {\n        return theproposalIPFSHash;\n    }\n\n//    function setProposalIPFSHash(bytes _proposalIPFSHash) onlyCustomer public  returns (bool result)\n//    {\n//        require(status==RequestState.created);\n//        proposalIPFSHash=_proposalIPFSHash;\n//        return true;\n//    }\n\n\n\n\n//    event Submitted(address indexed requestId,address indexed msgSender,RequestState   curentstatus,string commentline ,uint timestamp);\n//\n//    //submit function to initiat the request\n//    function submit(string comment) onlyCustomer public returns (bool result)\n//\n//    {\n//        require(status==RequestState.created);\n////        stepNumber++;\n//        status=RequestState.waitingtobank;\n//\n//        Submitted(getId(),msg.sender,   status,comment, now);\n//        //        log(\"submitted\",getId()+\"->\"+comment);\n////        Comment( getId(),stepNumber, status,comment);\n//\n//        return true;\n//    }\n//\n//\n//    event Withdrawal(address indexed requestId,address indexed msgSender,RequestState   curentstatus,string commentline,uint timestamp);\n//    //customer withdrawal request\n//    function withdrawal(string comment) onlyCustomer public returns (bool result)\n//    {\n//        require(status!=RequestState.accepted);\n////        stepNumber++;\n//       status=RequestState.withdrawed;\n//        Withdrawal(getId(),msg.sender,   status,comment,now);\n//        //        log(\"withdrawed\",getId()+\"->\"+comment);\n////        Comment(getId(), stepNumber, status,comment);\n//\n//        return true;\n//    }\n//\n//    event Termination(address indexed  requestId,address indexed msgSender,RequestState   curentstatus,uint timestamp);\n//    //bank reject request\n//    function terminateGuarantee()  public\n//    {\n//        require(status==RequestState.accepted );\n////        stepNumber++;\n//\n//        status=RequestState.terminationRequest;\n//        Termination(getId(),msg.sender,   status,now);\n////        Comment( getId(),stepNumber, status,_comment);\n//        //         log(\"rejected\",getId()+\"->\"+comment);\n//\n//    }\n//\n//    event Rejected(address indexed requestId,address indexed msgSender,   RequestState   curentstatus,string commentline,uint timestamp);\n//    //bank reject request\n//    function reject(string comment)  public returns (bool result)\n//    {\n//        require(status!=RequestState.accepted);\n//\n//        status=RequestState.rejected;\n//        Rejected(getId(),msg.sender,   status,comment,now);\n////        Comment( getId(),stepNumber, status,comment);\n//\n//        //         log(\"rejected\",getId()+\"->\"+comment);\n//        return true;\n//\n//    }\n//\n//\n//    event BankStateChange(address indexed requestId,address indexed msgSender,RequestState   curentstatus,string commentline,uint timestamp);\n//    //bank reject request\n//    function bankStateChange(string comment ,RequestState _newState) onlyBank public returns (bool result)\n//    {\n//        require((status==RequestState.waitingtobank      ||\n//\n//        status==RequestState.handling           ) &&\n//        (_newState==RequestState.handling           ||\n//        _newState==RequestState.waitingtocustomer  ||\n//        _newState==RequestState.waitingtobeneficiery ));\n////        stepNumber++;\n//        //        addCommentsForStep(stepNumber,comment);\n//\n//        status=_newState;\n//        BankStateChange(getId(),msg.sender,_newState,comment,now);\n////        Comment( getId(),stepNumber, status,comment);\n//\n//        //         log(\"rejected\",getId()+\"->\"+comment);\n//        return true;\n//\n//    }\n//\n//\n//    event Accepted(address indexed requestId,address indexed msgSender ,RequestState   curentstatus,uint timestamp);\n//    //bank accept request\n//    function accept() onlyRegulator public returns (bool result)\n//    {\n//\n//        require((status==RequestState.waitingtobank || status==RequestState.handling || status==RequestState.changeRequested)  && guarantee==address(0));\n//\n//        status=RequestState.accepted;\n//        Accepted(getId(),msg.sender,   status,now);\n////        Comment( getId(),stepNumber, status,comment);\n//        //        if (status!=RequestState.changeRequested)\n//        //        {\n//        //            GuaranteeRequest(changeRequest).\n//        //            if (guarantee!= address(0))\n//        //            {\n//        //            GuaranteeExtender(guarantee).terminate();\n//        //            }\n//        //            addCommentsForStep(stepNumber,comment);\n//        //            status=RequestState.terminationRequest;\n//        //            Termination(getId(),msg.sender,comment);\n//        //\n//        //\n//        //        }\n//        return true;\n//    }\n//\n//\n//    event GuarantieSigned(address indexed requestId,address indexed  guarantieId,RequestState   curentstatus,uint timestamp);\n//    event GuarantieChangeSigned(address indexed requestId,address indexed  guarantieId,RequestState   curentstatus,uint timestamp);\n//\n//    function signComplite(bytes _guaranteeIPFSHash) onlyRegulator public returns (address)\n//    {\n//        require( getRequestState()==RequestState.accepted && _checkArray(_guaranteeIPFSHash) && msg.sender == getRegulator());\n//        GuaranteeExtender gr= new DigitalGuaranteeBNHP(getId(),getRegulator(),_guaranteeIPFSHash);\n//        guarantee=gr.getId();\n//        if (isChangeRequest())\n//        {\n//            GuarantieChangeSigned(getId(),gr.getId(),   status,now);\n//            GuaranteeExtender(changeRequestGuaranteeAdr).terminateGuarantee();\n//        }\n//    else\n//        {\n//            GuarantieSigned(getId(),gr.getId(),   status,now);\n//        }\n//\n//        return guarantee;\n//    }\n\n    function getChangeRequestGuarantee() constant public returns (address )\n    {\n        return address(0);\n    }\n\n\n\n}\n",
  "sourcePath": "/Users/dmitryshlymovich/workspace/ethereum-garanties/truffle_eth_bnhp/contracts/GuaranteeRequest.sol",
  "compiler": {
    "name": "solc",
    "version": "0.4.18+commit.9cf6e910.Emscripten.clang"
  },
  "schemaVersion": "1.0.1",
  "updatedAt": "2018-02-13T13:05:40.890Z"
}