{
  "contractName": "GuaranteeRequest",
  "abi": [
    {
      "constant": true,
      "inputs": [],
      "name": "getGuaranteeRequestData",
      "outputs": [
        {
          "name": "_contract_id",
          "type": "address"
        },
        {
          "name": "_customer",
          "type": "address"
        },
        {
          "name": "_bank",
          "type": "address"
        },
        {
          "name": "_beneficiary",
          "type": "address"
        },
        {
          "name": "_purpose",
          "type": "bytes32"
        },
        {
          "name": "_amount",
          "type": "uint256"
        },
        {
          "name": "_startDate",
          "type": "uint256"
        },
        {
          "name": "_endDate",
          "type": "uint256"
        },
        {
          "name": "_indexType",
          "type": "uint8"
        },
        {
          "name": "_indexDate",
          "type": "uint256"
        },
        {
          "name": "_status",
          "type": "uint8"
        }
      ],
      "payable": false,
      "type": "function"
    },
    {
      "constant": false,
      "inputs": [
        {
          "name": "comment",
          "type": "string"
        }
      ],
      "name": "reject",
      "outputs": [
        {
          "name": "result",
          "type": "bool"
        }
      ],
      "payable": false,
      "type": "function"
    },
    {
      "constant": false,
      "inputs": [
        {
          "name": "_proposalIPFSHash",
          "type": "bytes"
        }
      ],
      "name": "setProposalIPFSHash",
      "outputs": [
        {
          "name": "result",
          "type": "bool"
        }
      ],
      "payable": false,
      "type": "function"
    },
    {
      "constant": true,
      "inputs": [],
      "name": "isExpired",
      "outputs": [
        {
          "name": "",
          "type": "bool"
        }
      ],
      "payable": false,
      "type": "function"
    },
    {
      "constant": false,
      "inputs": [
        {
          "name": "comment",
          "type": "string"
        }
      ],
      "name": "withdrawal",
      "outputs": [
        {
          "name": "result",
          "type": "bool"
        }
      ],
      "payable": false,
      "type": "function"
    },
    {
      "constant": true,
      "inputs": [],
      "name": "version",
      "outputs": [
        {
          "name": "",
          "type": "string"
        }
      ],
      "payable": false,
      "type": "function"
    },
    {
      "constant": true,
      "inputs": [],
      "name": "getBeneficiary",
      "outputs": [
        {
          "name": "_beneficiary",
          "type": "address"
        }
      ],
      "payable": false,
      "type": "function"
    },
    {
      "constant": true,
      "inputs": [],
      "name": "getId",
      "outputs": [
        {
          "name": "_contract_id",
          "type": "address"
        }
      ],
      "payable": false,
      "type": "function"
    },
    {
      "constant": true,
      "inputs": [],
      "name": "getBank",
      "outputs": [
        {
          "name": "_bank",
          "type": "address"
        }
      ],
      "payable": false,
      "type": "function"
    },
    {
      "constant": true,
      "inputs": [],
      "name": "getCustomer",
      "outputs": [
        {
          "name": "_customer",
          "type": "address"
        }
      ],
      "payable": false,
      "type": "function"
    },
    {
      "constant": false,
      "inputs": [
        {
          "name": "comment",
          "type": "string"
        },
        {
          "name": "_guaranteeIPFSHash",
          "type": "bytes"
        }
      ],
      "name": "accept",
      "outputs": [
        {
          "name": "result",
          "type": "bool"
        }
      ],
      "payable": false,
      "type": "function"
    },
    {
      "constant": false,
      "inputs": [
        {
          "name": "_comment",
          "type": "string"
        }
      ],
      "name": "termination",
      "outputs": [
        {
          "name": "result",
          "type": "bool"
        }
      ],
      "payable": false,
      "type": "function"
    },
    {
      "constant": true,
      "inputs": [],
      "name": "getRequestState",
      "outputs": [
        {
          "name": "",
          "type": "uint8"
        }
      ],
      "payable": false,
      "type": "function"
    },
    {
      "constant": true,
      "inputs": [],
      "name": "getEndDate",
      "outputs": [
        {
          "name": "_date",
          "type": "uint256"
        }
      ],
      "payable": false,
      "type": "function"
    },
    {
      "constant": true,
      "inputs": [],
      "name": "getProposalIPFSHash",
      "outputs": [
        {
          "name": "_proposalIPFSHash",
          "type": "bytes"
        }
      ],
      "payable": false,
      "type": "function"
    },
    {
      "constant": false,
      "inputs": [
        {
          "name": "comment",
          "type": "string"
        }
      ],
      "name": "submit",
      "outputs": [
        {
          "name": "result",
          "type": "bool"
        }
      ],
      "payable": false,
      "type": "function"
    },
    {
      "constant": true,
      "inputs": [],
      "name": "addresses",
      "outputs": [
        {
          "name": "bank",
          "type": "address"
        },
        {
          "name": "customer",
          "type": "address"
        },
        {
          "name": "beneficiary",
          "type": "address"
        }
      ],
      "payable": false,
      "type": "function"
    },
    {
      "constant": false,
      "inputs": [
        {
          "name": "comment",
          "type": "string"
        },
        {
          "name": "_newState",
          "type": "uint8"
        }
      ],
      "name": "bankStateChange",
      "outputs": [
        {
          "name": "result",
          "type": "bool"
        }
      ],
      "payable": false,
      "type": "function"
    },
    {
      "inputs": [
        {
          "name": "_regulator",
          "type": "address"
        },
        {
          "name": "_customer",
          "type": "address"
        },
        {
          "name": "_bank",
          "type": "address"
        },
        {
          "name": "_beneficiary",
          "type": "address"
        },
        {
          "name": "_purpose",
          "type": "bytes32"
        },
        {
          "name": "_amount",
          "type": "uint256"
        },
        {
          "name": "_startDate",
          "type": "uint256"
        },
        {
          "name": "_endDate",
          "type": "uint256"
        },
        {
          "name": "_indexType",
          "type": "uint8"
        },
        {
          "name": "_indexDate",
          "type": "uint256"
        }
      ],
      "payable": false,
      "type": "constructor"
    },
    {
      "anonymous": false,
      "inputs": [
        {
          "indexed": true,
          "name": "requestId",
          "type": "address"
        },
        {
          "indexed": false,
          "name": "numberOfStep",
          "type": "int256"
        },
        {
          "indexed": false,
          "name": "requestState",
          "type": "uint8"
        },
        {
          "indexed": false,
          "name": "commentline",
          "type": "string"
        }
      ],
      "name": "Comment",
      "type": "event"
    },
    {
      "anonymous": false,
      "inputs": [
        {
          "indexed": true,
          "name": "requestId",
          "type": "address"
        },
        {
          "indexed": true,
          "name": "customer",
          "type": "address"
        },
        {
          "indexed": true,
          "name": "bank",
          "type": "address"
        },
        {
          "indexed": false,
          "name": "beneficiary",
          "type": "address"
        },
        {
          "indexed": false,
          "name": "guarantyPurpose",
          "type": "bytes32"
        },
        {
          "indexed": false,
          "name": "requestAmount",
          "type": "uint256"
        },
        {
          "indexed": false,
          "name": "requestStartDate",
          "type": "uint256"
        },
        {
          "indexed": false,
          "name": "requestEndDate",
          "type": "uint256"
        },
        {
          "indexed": false,
          "name": "requestIndexType",
          "type": "uint8"
        },
        {
          "indexed": false,
          "name": "requestIndexDate",
          "type": "uint256"
        },
        {
          "indexed": false,
          "name": "timestamp",
          "type": "uint256"
        }
      ],
      "name": "GuaranteeRequestCreated",
      "type": "event"
    },
    {
      "anonymous": false,
      "inputs": [
        {
          "indexed": false,
          "name": "requestId",
          "type": "address"
        },
        {
          "indexed": true,
          "name": "msgSender",
          "type": "address"
        },
        {
          "indexed": false,
          "name": "comment",
          "type": "string"
        },
        {
          "indexed": false,
          "name": "_newstate",
          "type": "uint8"
        }
      ],
      "name": "Submitted",
      "type": "event"
    },
    {
      "anonymous": false,
      "inputs": [
        {
          "indexed": true,
          "name": "requestId",
          "type": "address"
        },
        {
          "indexed": true,
          "name": "msgSender",
          "type": "address"
        },
        {
          "indexed": false,
          "name": "comment",
          "type": "string"
        }
      ],
      "name": "Withdrawal",
      "type": "event"
    },
    {
      "anonymous": false,
      "inputs": [
        {
          "indexed": true,
          "name": "requestId",
          "type": "address"
        },
        {
          "indexed": true,
          "name": "msgSender",
          "type": "address"
        },
        {
          "indexed": false,
          "name": "comment",
          "type": "string"
        }
      ],
      "name": "Termination",
      "type": "event"
    },
    {
      "anonymous": false,
      "inputs": [
        {
          "indexed": true,
          "name": "requestId",
          "type": "address"
        },
        {
          "indexed": true,
          "name": "msgSender",
          "type": "address"
        },
        {
          "indexed": false,
          "name": "comment",
          "type": "string"
        }
      ],
      "name": "Rejected",
      "type": "event"
    },
    {
      "anonymous": false,
      "inputs": [
        {
          "indexed": true,
          "name": "requestId",
          "type": "address"
        },
        {
          "indexed": true,
          "name": "msgSender",
          "type": "address"
        },
        {
          "indexed": false,
          "name": "comment",
          "type": "string"
        },
        {
          "indexed": false,
          "name": "_newStat",
          "type": "uint8"
        }
      ],
      "name": "BankStateChange",
      "type": "event"
    },
    {
      "anonymous": false,
      "inputs": [
        {
          "indexed": true,
          "name": "requestId",
          "type": "address"
        },
        {
          "indexed": true,
          "name": "msgSender",
          "type": "address"
        },
        {
          "indexed": false,
          "name": "comment",
          "type": "string"
        },
        {
          "indexed": false,
          "name": "_guaranteeIPFSHash",
          "type": "bytes"
        }
      ],
      "name": "Accepted",
      "type": "event"
    },
    {
      "anonymous": false,
      "inputs": [
        {
          "indexed": false,
          "name": "message",
          "type": "string"
        },
        {
          "indexed": false,
          "name": "logb",
          "type": "address"
        }
      ],
      "name": "loga",
      "type": "event"
    },
    {
      "anonymous": false,
      "inputs": [
        {
          "indexed": false,
          "name": "message",
          "type": "string"
        },
        {
          "indexed": false,
          "name": "logb",
          "type": "string"
        }
      ],
      "name": "log",
      "type": "event"
    }
  ],
  "bytecode": "0x606060405260408051908101604052600481527f312e303000000000000000000000000000000000000000000000000000000000602082015260009080516200004d929160200190620002aa565b5034156200005a57600080fd5b6040516101408062003159833981016040528080519190602001805191906020018051919060200180519190602001805191906020018051919060200180519190602001805191906020018051919060200180519150505b60018054600160a060020a03808d16600160a060020a0319928316178355600480548c8316908416179055600580548d831690841617905560068054918b1691909216179055600787905560088690556009859055600a849055600b8054849260ff19909116908360028111156200012657fe5b0217905550600c819055600f80546000919060ff19166001835b02179055506000601055600160a060020a03808916908a166200017064010000000062000ff2620002a582021704565b600160a060020a03167f664175ac67290bd08de0c5daebd9901c346cd61ad7afa4ab5a23078389dbc6728a8a8a8a8a8a8a42604051600160a060020a03891681526020810188905260408101879052606081018690526080810185905260a08101846002811115620001de57fe5b60ff1681526020018381526020018281526020019850505050505050505060405180910390a46200021c64010000000062000ff2620002a582021704565b601054600f54600160a060020a0392909216917fb1a46393ed5af437d2873216183052bae16cf1b3fe55a659caebd503ecf6f919919060ff16604051808381526020018260098111156200026c57fe5b60ff16815260200180602001828103825260008152602001602001935050505060405180910390a25b5050505050505050505062000354565b305b90565b828054600181600116156101000203166002900490600052602060002090601f016020900481019282601f10620002ed57805160ff19168380011785556200031d565b828001600101855582156200031d579182015b828111156200031d57825182559160200191906001019062000300565b5b506200032c92915062000330565b5090565b620002a791905b808211156200032c576000815560010162000337565b5090565b90565b612df580620003646000396000f300606060405236156200010c5763ffffffff7c01000000000000000000000000000000000000000000000000000000006000350416631c32e7af811462000111578063201c5cc114620001b557806320ba6b63146200021d5780632f13b60c14620002855780634a51c31c14620002af57806354fd4d501462000317578063565a2e2c14620003a85780635d1ca63114620003da57806360d704db146200040c578063650d993b146200043e578063941e9bfb14620004705780639733b2b8146200051a578063a39152f21462000582578063b135648814620005bd578063c3287ea714620005e5578063d99a8dc31462000676578063da0321cd14620006de578063f40bd94a1462000725575b600080fd5b34156200011d57600080fd5b6200012762000792565b604051600160a060020a03808d1682528b811660208301528a81166040830152891660608201526080810188905260a0810187905260c0810186905260e0810185905261010081018460028111156200017c57fe5b60ff1681526020018381526020018260098111156200019757fe5b60ff1681526020019b50505050505050505050505060405180910390f35b3415620001c157600080fd5b6200020960046024813581810190830135806020601f820181900481020160405190810160405281815292919060208401838380828437509496506200080f95505050505050565b604051901515815260200160405180910390f35b34156200022957600080fd5b6200020960046024813581810190830135806020601f8201819004810201604051908101604052818152929190602084018383808284375094965062000af395505050505050565b604051901515815260200160405180910390f35b34156200029157600080fd5b6200020962000c48565b604051901515815260200160405180910390f35b3415620002bb57600080fd5b6200020960046024813581810190830135806020601f8201819004810201604051908101604052818152929190602084018383808284375094965062000c5c95505050505050565b604051901515815260200160405180910390f35b34156200032357600080fd5b6200032d62000f40565b60405160208082528190810183818151815260200191508051906020019080838360005b838110156200036c5780820151818401525b60200162000351565b50505050905090810190601f1680156200039a5780820380516001836020036101000a031916815260200191505b509250505060405180910390f35b3415620003b457600080fd5b620003be62000fe2565b604051600160a060020a03909116815260200160405180910390f35b3415620003e657600080fd5b620003be62000ff2565b604051600160a060020a03909116815260200160405180910390f35b34156200041857600080fd5b620003be62000ff7565b604051600160a060020a03909116815260200160405180910390f35b34156200044a57600080fd5b620003be62001007565b604051600160a060020a03909116815260200160405180910390f35b34156200047c57600080fd5b6200020960046024813581810190830135806020601f8201819004810201604051908101604052818152929190602084018383808284378201915050505050509190803590602001908201803590602001908080601f0160208091040260200160405190810160405281815292919060208401838380828437509496506200101795505050505050565b604051901515815260200160405180910390f35b34156200052657600080fd5b6200020960046024813581810190830135806020601f82018190048102016040519081016040528181529291906020840183838082843750949650620014ee95505050505050565b604051901515815260200160405180910390f35b34156200058e57600080fd5b62000598620018d0565b60405180826009811115620005a957fe5b60ff16815260200191505060405180910390f35b3415620005c957600080fd5b620005d3620018da565b60405190815260200160405180910390f35b3415620005f157600080fd5b6200032d620018e1565b60405160208082528190810183818151815260200191508051906020019080838360005b838110156200036c5780820151818401525b60200162000351565b50505050905090810190601f1680156200039a5780820380516001836020036101000a031916815260200191505b509250505060405180910390f35b34156200068257600080fd5b6200020960046024813581810190830135806020601f820181900481020160405190810160405281815292919060208401838380828437509496506200199095505050505050565b604051901515815260200160405180910390f35b3415620006ea57600080fd5b620006f462001c93565b604051600160a060020a03938416815291831660208301529091166040808301919091526060909101905180910390f35b34156200073157600080fd5b6200020960046024813581810190830135806020601f820181900481020160405190810160405281815292919060208401838380828437509496505050923560ff16925062001cb0915050565b604051901515815260200160405180910390f35b6000806000806000806000806000806000620007ad62000ff2565b9a50620007b962001007565b9950620007c562000ff7565b9850620007d162000fe2565b600754600854600954600a54600b54600c54600f54969e50949c50929a50909850965060ff90811695509093501690505b909192939495969798999a565b60006200081b62000ff7565b600160a060020a031633600160a060020a0316141515620008c25760008051602062002daa83398151915233604051600160a060020a03909116602082015260408082526025818301527f2323234552524f522d6e6f7420706572666f726d642062792042414e4b20616460608301527f6472657373000000000000000000000000000000000000000000000000000000608083015260a0909101905180910390a1600080fd5b60008051602062002daa83398151915233604051600160a060020a03909116602082015260408082526017818301527f23706173732042414e4b20616374696f6e20636865636b00000000000000000060608301526080909101905180910390a160065b600f5460ff1660098111156200093857fe5b14156200094457600080fd5b601080546001908101909155600f805460089260ff1990911690835b021790555033600160a060020a03166200097962000ff2565b600160a060020a03167fda2f632f096bf2ad2f47a8d41586871fec8fb96b5da18022d8bcf542f5851c848460405160208082528190810183818151815260200191508051906020019080838360005b83811015620009e35780820151818401525b602001620009c8565b50505050905090810190601f16801562000a115780820380516001836020036101000a031916815260200191505b509250505060405180910390a362000a2862000ff2565b601054600f54600160a060020a03929092169160008051602062002d8a833981519152919060ff16856040518084815260200183600981111562000a6857fe5b60ff16815260200180602001828103825283818151815260200191508051906020019080838360005b8381101562000aac5780820151818401525b60200162000a91565b50505050905090810190601f16801562000ada5780820380516001836020036101000a031916815260200191505b5094505050505060405180910390a25060015b5b919050565b600062000aff62001007565b600160a060020a031633600160a060020a031614151562000ba65760008051602062002daa83398151915233604051600160a060020a03909116602082015260408082526029818301527f2323234552524f522d6e6f7420706572666f726d6420627920435553544f4d4560608301527f5220616464726573730000000000000000000000000000000000000000000000608083015260a0909101905180910390a1600080fd5b60008051602062002daa83398151915233604051600160a060020a0390911660208201526040808252601b818301527f237061737320435553544f4d455220616374696f6e20636865636b000000000060608301526080909101905180910390a160005b600f5460ff16600981111562000c1c57fe5b1462000c2757600080fd5b600d82805162000c3c92916020019062002040565b50600190505b5b919050565b60004262000c55620018da565b1190505b90565b600062000c6862001007565b600160a060020a031633600160a060020a031614151562000d0f5760008051602062002daa83398151915233604051600160a060020a03909116602082015260408082526029818301527f2323234552524f522d6e6f7420706572666f726d6420627920435553544f4d4560608301527f5220616464726573730000000000000000000000000000000000000000000000608083015260a0909101905180910390a1600080fd5b60008051602062002daa83398151915233604051600160a060020a0390911660208201526040808252601b818301527f237061737320435553544f4d455220616374696f6e20636865636b000000000060608301526080909101905180910390a160065b600f5460ff16600981111562000d8557fe5b141562000d9157600080fd5b601080546001908101909155600f805460059260ff1990911690835b021790555033600160a060020a031662000dc662000ff2565b600160a060020a03167fe2da84e37586f298e21b90158a7c3d1432e48167bd48d3b07bc64554b93e09788460405160208082528190810183818151815260200191508051906020019080838360005b83811015620009e35780820151818401525b602001620009c8565b50505050905090810190601f16801562000a115780820380516001836020036101000a031916815260200191505b509250505060405180910390a362000a2862000ff2565b601054600f54600160a060020a03929092169160008051602062002d8a833981519152919060ff16856040518084815260200183600981111562000a6857fe5b60ff16815260200180602001828103825283818151815260200191508051906020019080838360005b8381101562000aac5780820151818401525b60200162000a91565b50505050905090810190601f16801562000ada5780820380516001836020036101000a031916815260200191505b5094505050505060405180910390a25060015b5b919050565b60008054600181600116156101000203166002900480601f01602080910402602001604051908101604052809291908181526020018280546001816001161561010002031660029004801562000fda5780601f1062000fae5761010080835404028352916020019162000fda565b820191906000526020600020905b81548152906001019060200180831162000fbc57829003601f168201915b505050505081565b600654600160a060020a03165b90565b305b90565b600454600160a060020a03165b90565b600554600160a060020a03165b90565b60006200102362000ff7565b600160a060020a031633600160a060020a0316141515620010ca5760008051602062002daa83398151915233604051600160a060020a03909116602082015260408082526025818301527f2323234552524f522d6e6f7420706572666f726d642062792042414e4b20616460608301527f6472657373000000000000000000000000000000000000000000000000000000608083015260a0909101905180910390a1600080fd5b60008051602062002daa83398151915233604051600160a060020a03909116602082015260408082526017818301527f23706173732042414e4b20616374696f6e20636865636b00000000000000000060608301526080909101905180910390a160015b600f5460ff1660098111156200114057fe5b14806200115f575060025b600f5460ff1660098111156200115d57fe5b145b806200117d575060075b600f5460ff1660098111156200117b57fe5b145b8015620011905750620011908262002022565b5b8015620011a75750600254600160a060020a0316155b1515620011b357600080fd5b601080546001019055600e828051620011d192916020019062002040565b50600f80546006919060ff19166001835b021790555033600160a060020a0316620011fb62000ff2565b600160a060020a03167f6b1486856e2a775b0ef3d5a82b9fe7797ca354730215a91a7a360df52ba4c82685600e604051808060200180602001838103835285818151815260200191508051906020019080838360005b838110156200126c5780820151818401525b60200162001251565b50505050905090810190601f1680156200129a5780820380516001836020036101000a031916815260200191505b50838103825284546002600019610100600184161502019091160480825260209091019085908015620013115780601f10620012e55761010080835404028352916020019162001311565b820191906000526020600020905b815481529060010190602001808311620012f357829003601f168201915b505094505050505060405180910390a36200132b62000ff2565b601054600f54600160a060020a03929092169160008051602062002d8a833981519152919060ff1686604051808481526020018360098111156200136b57fe5b60ff16815260200180602001828103825283818151815260200191508051906020019080838360005b83811015620013af5780820151818401525b60200162001394565b50505050905090810190601f168015620013dd5780820380516001836020036101000a031916815260200191505b5094505050505060405180910390a26001543090600160a060020a0316600e62001406620020c6565b600160a060020a0380851682528316602082015260606040820181815283546002600019610100600184161502019091160491830182905290608083019084908015620014975780601f106200146b5761010080835404028352916020019162001497565b820191906000526020600020905b8154815290600101906020018083116200147957829003601f168201915b5050945050505050604051809103906000f0801515620014b657600080fd5b6002805473ffffffffffffffffffffffffffffffffffffffff1916600160a060020a03929092169190911790555060015b5b92915050565b6000620014fa62000fe2565b600160a060020a031633600160a060020a0316141515620015a15760008051602062002daa83398151915233604051600160a060020a0390911660208201526040808252602c818301527f2323234552524f522d6e6f7420706572666f726d642062792042454e4546494360608301527f4945525920616464726573730000000000000000000000000000000000000000608083015260a0909101905180910390a1600080fd5b60008051602062002daa83398151915233604051600160a060020a0390911660208201526040808252601e818301527f23706173732042454e454649434945525920616374696f6e20636865636b000060608301526080909101905180910390a160065b600f5460ff1660098111156200161757fe5b146200162257600080fd5b601080546001019055600254600160a060020a0316156200172d57600254600160a060020a0316630220a5b4836000604051602001526040518263ffffffff167c01000000000000000000000000000000000000000000000000000000000281526004018080602001828103825283818151815260200191508051906020019080838360005b83811015620016c35780820151818401525b602001620016a8565b50505050905090810190601f168015620016f15780820380516001836020036101000a031916815260200191505b5092505050602060405180830381600087803b15156200171057600080fd5b6102c65a03f115156200172257600080fd5b505050604051805150505b600f80546009919060ff19166001835b021790555033600160a060020a03166200175662000ff2565b600160a060020a03167f513475860be7c4b777aed08e9cea8e93747234fde0591b15491aef3033f5beef8460405160208082528190810183818151815260200191508051906020019080838360005b83811015620009e35780820151818401525b602001620009c8565b50505050905090810190601f16801562000a115780820380516001836020036101000a031916815260200191505b509250505060405180910390a362000a2862000ff2565b601054600f54600160a060020a03929092169160008051602062002d8a833981519152919060ff16856040518084815260200183600981111562000a6857fe5b60ff16815260200180602001828103825283818151815260200191508051906020019080838360005b8381101562000aac5780820151818401525b60200162000a91565b50505050905090810190601f16801562000ada5780820380516001836020036101000a031916815260200191505b5094505050505060405180910390a25060015b5b919050565b600f5460ff165b90565b600a545b90565b620018eb620020d7565b600d8054600181600116156101000203166002900480601f016020809104026020016040519081016040528092919081815260200182805460018160011615610100020316600290048015620019855780601f10620019595761010080835404028352916020019162001985565b820191906000526020600020905b8154815290600101906020018083116200196757829003601f168201915b505050505090505b90565b60006200199c62001007565b600160a060020a031633600160a060020a031614151562001a435760008051602062002daa83398151915233604051600160a060020a03909116602082015260408082526029818301527f2323234552524f522d6e6f7420706572666f726d6420627920435553544f4d4560608301527f5220616464726573730000000000000000000000000000000000000000000000608083015260a0909101905180910390a1600080fd5b60008051602062002daa83398151915233604051600160a060020a0390911660208201526040808252601b818301527f237061737320435553544f4d455220616374696f6e20636865636b000000000060608301526080909101905180910390a160005b600f5460ff16600981111562001ab957fe5b1462001ac457600080fd5b601080546001908101909155600f805460ff191682805b021790555033600160a060020a03167fe77ccb4da3e61d25149366678ffe2065ed7dd8120b89a3b86cb12c0ddd67fe8162001b1562000ff2565b600f54859060ff16604051600160a060020a0384168152602081016040820183600981111562001b4157fe5b60ff168152602001828103825284818151815260200191508051906020019080838360005b8381101562001b815780820151818401525b60200162001b66565b50505050905090810190601f16801562001baf5780820380516001836020036101000a031916815260200191505b5094505050505060405180910390a262000a2862000ff2565b601054600f54600160a060020a03929092169160008051602062002d8a833981519152919060ff16856040518084815260200183600981111562000a6857fe5b60ff16815260200180602001828103825283818151815260200191508051906020019080838360005b8381101562000aac5780820151818401525b60200162000a91565b50505050905090810190601f16801562000ada5780820380516001836020036101000a031916815260200191505b5094505050505060405180910390a25060015b5b919050565b600454600554600654600160a060020a0392831692918216911683565b600062001cbc62000ff7565b600160a060020a031633600160a060020a031614151562001d635760008051602062002daa83398151915233604051600160a060020a03909116602082015260408082526025818301527f2323234552524f522d6e6f7420706572666f726d642062792042414e4b20616460608301527f6472657373000000000000000000000000000000000000000000000000000000608083015260a0909101905180910390a1600080fd5b60008051602062002daa83398151915233604051600160a060020a03909116602082015260408082526017818301527f23706173732042414e4b20616374696f6e20636865636b00000000000000000060608301526080909101905180910390a160015b600f5460ff16600981111562001dd957fe5b148062001df8575060025b600f5460ff16600981111562001df657fe5b145b801562001e43575060025b82600981111562001e1057fe5b148062001e2a575060035b82600981111562001e2857fe5b145b8062001e43575060045b82600981111562001e4157fe5b145b5b151562001e5057600080fd5b601080546001908101909155600f8054849260ff199091169083600981111562001e7657fe5b021790555033600160a060020a031662001e8f62000ff2565b600160a060020a03167f143c3d208c24afb28544f8e77a5a17d950edc91faca57929c3b6da0e120b76ce8585604051808060200183600981111562001ed057fe5b60ff168152602001828103825284818151815260200191508051906020019080838360005b8381101562001f105780820151818401525b60200162001ef5565b50505050905090810190601f16801562001f3e5780820380516001836020036101000a031916815260200191505b50935050505060405180910390a362001f5662000ff2565b601054600f54600160a060020a03929092169160008051602062002d8a833981519152919060ff16866040518084815260200183600981111562001f9657fe5b60ff16815260200180602001828103825283818151815260200191508051906020019080838360005b8381101562001fda5780820151818401525b60200162001fbf565b50505050905090810190601f168015620020085780820380516001836020036101000a031916815260200191505b5094505050505060405180910390a25060015b5b92915050565b60008082511115620020375750600162000aed565b5060005b919050565b828054600181600116156101000203166002900490600052602060002090601f016020900481019282601f106200208357805160ff1916838001178555620020b3565b82800160010185558215620020b3579182015b82811115620020b357825182559160200191906001019062002096565b5b50620020c2929150620020e9565b5090565b604051610c7c806200210e83390190565b60206040519081016040526000815290565b62000c5991905b80821115620020c25760008155600101620020f0565b5090565b9056006060604052341561000f57600080fd5b604051610c7c380380610c7c83398101604052808051919060200180519190602001805190910190505b60008054600160a060020a03808616600160a060020a0319928316179092556001805492851692909116919091179055600281805161007c929160200190610171565b5060018054819060a060020a60ff02191674010000000000000000000000000000000000000000825b02179055507f2a114794accc550a527ef87653abf0f6afacf18842782ec64db725729b83aeb883303384604051600160a060020a03808616825284811660208301528316604082015260806060820181815290820183818151815260200191508051906020019080838360005b8381101561012b5780820151818401525b602001610112565b50505050905090810190601f1680156101585780820380516001836020036101000a031916815260200191505b509550505050505060405180910390a15b505050610211565b828054600181600116156101000203166002900490600052602060002090601f016020900481019282601f106101b257805160ff19168380011785556101df565b828001600101855582156101df579182015b828111156101df5782518255916020019190600101906101c4565b5b506101ec9291506101f0565b5090565b61020e91905b808211156101ec57600081556001016101f6565b5090565b90565b610a5c806102206000396000f3006060604052361561007d5763ffffffff60e060020a6000350416630220a5b481146100825780632f13b60c146100e757806338e537b31461010e5780633a6facad146101b7578063488523bc146101ee578063565a2e2c146102795780635d1ca631146102a8578063b1356488146102d7578063cfd99c5a146102fc575b600080fd5b341561008d57600080fd5b6100d360046024813581810190830135806020601f820181900481020160405190810160405281815292919060208401838380828437509496506103a895505050505050565b604051901515815260200160405180910390f35b34156100f257600080fd5b6100d36104e3565b604051901515815260200160405180910390f35b341561011957600080fd5b6101216104f5565b604051600160a060020a03808e1682528c811660208301528b811660408301528a811660608301528916608082015260a0810188905260c0810187905260e081018690526101008101859052610120810184600281111561017e57fe5b60ff16815260200183815260200182600481111561019857fe5b60ff1681526020019c5050505050505050505050505060405180910390f35b34156101c257600080fd5b6101ca6106e8565b604051808260048111156101da57fe5b60ff16815260200191505060405180910390f35b34156101f957600080fd5b610201610727565b60405160208082528190810183818151815260200191508051906020019080838360005b8381101561023e5780820151818401525b602001610225565b50505050905090810190601f16801561026b5780820380516001836020036101000a031916815260200191505b509250505060405180910390f35b341561028457600080fd5b61028c6107d0565b604051600160a060020a03909116815260200160405180910390f35b34156102b357600080fd5b61028c61083a565b604051600160a060020a03909116815260200160405180910390f35b34156102e257600080fd5b6102ea61083f565b60405190815260200160405180910390f35b341561030757600080fd5b6100d3600480359060446024803590810190830135806020601f8201819004810201604051908101604052818152929190602084018383808284378201915050505050509190803590602001908201803590602001908080601f0160208091040260200160405190810160405281815292919060208401838380828437509496506108a995505050505050565b604051901515815260200160405180910390f35b60006103b26107d0565b600160a060020a031633600160a060020a03161415156103d157600080fd5b6000547ff0879a5fd76e31f1bc558d25b1a3a2a9a0244de093e991cad67476ed37a64b4b90600160a060020a0316303385604051600160a060020a03808616825284811660208301528316604082015260806060820181815290820183818151815260200191508051906020019080838360005b8381101561045e5780820151818401525b602001610445565b50505050905090810190601f16801561048b5780820380516001836020036101000a031916815260200191505b509550505050505060405180910390a1600180546003919074ff0000000000000000000000000000000000000000191674010000000000000000000000000000000000000000835b0217905550600190505b5b919050565b6000426104ee61083f565b1190505b90565b6000805481908190819081908190819081908190819081908190600160a060020a031680631c32e7af8360405161016001526040518163ffffffff1660e060020a02815260040161016060405180830381600087803b151561055657600080fd5b6102c65a03f1151561056757600080fd5b5050506040518051906020018051906020018051906020018051906020018051906020018051906020018051906020018051906020018051906020018051906020018051905090919293949596979899509091929394959697985090919293949596975050809950819a50829b50839c50849d50859e50869f50505050505050506000809054906101000a9004600160a060020a03169b5061060761083a565b9c5080600160a060020a031663650d993b6000604051602001526040518163ffffffff1660e060020a028152600401602060405180830381600087803b151561064f57600080fd5b6102c65a03f1151561066057600080fd5b50505060405180519b5050600160a060020a0381166360d704db6000604051602001526040518163ffffffff1660e060020a028152600401602060405180830381600087803b15156106b157600080fd5b6102c65a03f115156106c257600080fd5b5050506040518051905099506106d66106e8565b91505b50909192939495969798999a9b565b60006106f26104e3565b156106ff575060026104f2565b5060015474010000000000000000000000000000000000000000900460ff166104f2565b5b90565b61072f610a1e565b60028054600181600116156101000203166002900480601f0160208091040260200160405190810160405280929190818152602001828054600181600116156101000203166002900480156107c55780601f1061079a576101008083540402835291602001916107c5565b820191906000526020600020905b8154815290600101906020018083116107a857829003601f168201915b505050505090505b90565b60008054600160a060020a03168063565a2e2c83604051602001526040518163ffffffff1660e060020a028152600401602060405180830381600087803b151561081957600080fd5b6102c65a03f1151561082a57600080fd5b50505060405180519250505b5090565b305b90565b60008054600160a060020a03168063b135648883604051602001526040518163ffffffff1660e060020a028152600401602060405180830381600087803b151561081957600080fd5b6102c65a03f1151561082a57600080fd5b50505060405180519250505b5090565b60006108b36107d0565b600160a060020a031633600160a060020a03161415156108d257600080fd5b6000547faaf064632bc55f6035508b0d1f414c2667ab939abf4a2fd354e94aaf9a5fc35590600160a060020a03163033878787604051600160a060020a0380881682528681166020830152851660408201526060810184905260c0608082018181529060a0830190830185818151815260200191508051906020019080838360005b8381101561096d5780820151818401525b602001610954565b50505050905090810190601f16801561099a5780820380516001836020036101000a031916815260200191505b50838103825284818151815260200191508051906020019080838360005b838110156109d15780820151818401525b6020016109b8565b50505050905090810190601f1680156109fe5780820380516001836020036101000a031916815260200191505b509850505050505050505060405180910390a1600080fd5b5b9392505050565b602060405190810160405260008152905600a165627a7a72305820a71f12c4272fb1e3cfb3b4633809c1d899d04a5770610cbcf4fd4babbf67d9f80029b1a46393ed5af437d2873216183052bae16cf1b3fe55a659caebd503ecf6f919236b00348b5f63ad39b5bf19bc802c1ff4b767fb408aa44d42597a4729fa7376a165627a7a72305820dbbc8b0e87d896e21ca9b767d1f42293de8237f9c1653415d67a307b5c7ccc9a0029",
  "source": "pragma solidity ^0.4.13;\r\n\r\nimport \"./GuaranteeConst.sol\";\r\nimport \"./GuaranteeRequestExtender.sol\";\r\nimport \"./GuaranteeExtender.sol\";\r\nimport \"./DigitalGuaranteeBNHP.sol\";\r\n\r\ncontract GuaranteeRequest is GuaranteeRequestExtender{\r\n    string public version = \"1.00\";\r\n\r\n    address  regulator;\r\n    address  guarantee;\r\n    address  changeRequest;\r\n\r\n    //holds the addresses of the participating parties for demo reasons\r\n    struct Addresses {\r\n    address bank;\r\n    address customer;\r\n    address beneficiary;\r\n    }\r\n\r\n    Addresses public addresses;\r\n\r\n    bytes32  purpose;\r\n    uint  amount;\r\n    uint  startDate;\r\n    uint  endDate;\r\n\r\n    IndexType  indexType;\r\n    uint  indexDate;\r\n\r\n    bytes  proposalIPFSHash;\r\n    bytes  guaranteeIPFSHash;\r\n\r\n    RequestState   status;\r\n\r\n    int  stepNumber;\r\n\r\n    //describes the customer object\r\n    //    struct Comment {\r\n    //        int step;\r\n    //        string commentline;\r\n    //    }\r\n    //    Comment [] comments;\r\n\r\n    event Comment(address indexed requestId,int  numberOfStep,RequestState requestState,string commentline) ;\r\n\r\n\r\n    event GuaranteeRequestCreated (address indexed requestId,address indexed customer ,address indexed bank ,address  beneficiary ,bytes32 guarantyPurpose,\r\n    uint requestAmount, uint requestStartDate,uint requestEndDate,IndexType requestIndexType,uint requestIndexDate,uint timestamp);\r\n\r\n    function GuaranteeRequest(address  _regulator,address _customer ,address _bank ,address _beneficiary ,bytes32 _purpose,\r\n    uint _amount, uint _startDate,uint _endDate,IndexType _indexType,uint _indexDate)\r\n    {\r\n        regulator=_regulator;\r\n        //        Addresses memory addresses;\r\n        addresses.bank=_bank;\r\n        addresses.customer=_customer;\r\n        addresses.beneficiary=_beneficiary;\r\n        purpose=_purpose;\r\n        amount=_amount;\r\n        startDate=_startDate;\r\n        endDate=_endDate;\r\n        indexType= _indexType;\r\n        indexDate= _indexDate;\r\n        status=RequestState.created;\r\n        stepNumber=0;\r\n        GuaranteeRequestCreated(getId(),_customer , _bank,_beneficiary , _purpose,  _amount,  _startDate, _endDate, _indexType, _indexDate , now);\r\n        Comment( getId(), stepNumber, status,\"\");\r\n        // log(\"create request\",\"customer\"+_customer+\"bank\"+_bank+\"beneficiary\"+_beneficiary+\"amount\"+amount + \"startDate\"+startDate+\"endDate\"+endDate +\"...\");\r\n\r\n\r\n    }\r\n\r\n    function getId() constant public returns (address _contract_id)\r\n    {\r\n        return this;\r\n    }\r\n\r\n    function getCustomer() constant public returns (address _customer)\r\n    {\r\n        return addresses.customer;\r\n    }\r\n\r\n    function getBank() constant public returns (address _bank)\r\n    {\r\n        return addresses.bank;\r\n    }\r\n    function getBeneficiary() constant public returns (address _beneficiary)\r\n    {\r\n        return addresses.beneficiary;\r\n    }\r\n\r\n    function getEndDate() constant public returns (uint _date)\r\n    {\r\n        return endDate;\r\n    }\r\n\r\n\r\n    function getGuaranteeRequestData() constant public returns (address _contract_id,address _customer,address _bank, address _beneficiary,\r\n    bytes32 _purpose,uint _amount,uint _startDate,uint _endDate,IndexType _indexType,uint _indexDate,RequestState _status)\r\n    {\r\n\r\n        _contract_id=getId();\r\n        _customer=getCustomer();\r\n        _bank=getBank();\r\n        _beneficiary=getBeneficiary();\r\n        _purpose=purpose;\r\n        _amount=amount;\r\n        _startDate=startDate;\r\n        _endDate=endDate;\r\n        _indexType=indexType;\r\n        _indexDate=indexDate;\r\n        _status=status;\r\n    }\r\n    function getProposalIPFSHash() public constant returns (bytes _proposalIPFSHash)\r\n    {\r\n        return proposalIPFSHash;\r\n    }\r\n\r\n    function setProposalIPFSHash(bytes _proposalIPFSHash) onlyCustomer public  returns (bool result)\r\n    {\r\n        require(status==RequestState.created);\r\n        proposalIPFSHash=_proposalIPFSHash;\r\n        return true;\r\n    }\r\n\r\n    function getRequestState() public constant returns (RequestState)\r\n    {\r\n        return status;\r\n    }\r\n\r\n    //    event State(RequestState state);\r\n    //    function getRequestStateTranslated() public constant returns (uint _thestate)\r\n    //    {\r\n    //        State(status);\r\n    //        _thestate= uint(status);\r\n    //        if (_thestate==0 && status!=RequestState.created)\r\n    //        {\r\n    //            if  (status==RequestState.waitingtobank) {\r\n    //                return 1;\r\n    //            }\r\n    //            if  (status==RequestState.handling) {\r\n    //                return 2;\r\n    //            }\r\n    //            if  (status==RequestState.waitingtocustomer)\r\n    //            {\r\n    //                return 3;\r\n    //            }\r\n    //            if  (status==RequestState.withdrawed)\r\n    //            {\r\n    //                return 5;\r\n    //            }\r\n    //\r\n    //            if  (status==RequestState.accepted)\r\n    //            {\r\n    //                return 6;\r\n    //            }\r\n    //            if  (status==RequestState.rejected)\r\n    //            {\r\n    //                return 8;\r\n    //            }\r\n    //\r\n    //        //waitingtobank, handling,waitingtocustomer,waitingtobeneficiery, withdrawed, accepted,changeRequested, rejected ,terminationRequest }\r\n    //\r\n    //        }\r\n    //\r\n    //    }\r\n\r\n\r\n\r\n\r\n    //function getCommentsForStep(int step) constant returns (string)\r\n    //    {\r\n    //        for(uint256 i=0; i<comments.length; i++) {\r\n    //            if(comments[i].step == step) {\r\n    //                return comments[i].commentline;\r\n    //\r\n    //            }\r\n    //        }\r\n    //\r\n    //        return \"\";\r\n    //    }\r\n\r\n    //    function addCommentsForStep(int _step,string _commentline) public\r\n    //    {\r\n    //        Comment memory comment ;\r\n    //        comment.step   = _step;\r\n    //        comment.commentline    = _commentline;\r\n    //\r\n    //        comments.push(comment);\r\n    //\r\n    //    }\r\n\r\n\r\n\r\n\r\n    event Submitted(address  requestId,address indexed msgSender,string comment ,RequestState _newstate);\r\n\r\n    //submit function to initiat the request\r\n    function submit(string comment) onlyCustomer public returns (bool result)\r\n\r\n    {\r\n        require(status==RequestState.created);\r\n        stepNumber++;\r\n        //        addCommentsForStep(stepNumber,comment);\r\n        status=RequestState.waitingtobank;\r\n\r\n        Submitted(getId(),msg.sender,comment,status);\r\n        //        log(\"submitted\",getId()+\"->\"+comment);\r\n        Comment( getId(),stepNumber, status,comment);\r\n\r\n        return true;\r\n    }\r\n\r\n\r\n    event Withdrawal(address indexed requestId,address indexed msgSender,string comment);\r\n    //customer withdrawal request\r\n    function withdrawal(string comment) onlyCustomer public returns (bool result)\r\n    {\r\n        require(status!=RequestState.accepted);\r\n        stepNumber++;\r\n        //        addCommentsForStep(stepNumber,comment);\r\n        status=RequestState.withdrawed;\r\n        Withdrawal(getId(),msg.sender,comment);\r\n        //        log(\"withdrawed\",getId()+\"->\"+comment);\r\n        Comment(getId(), stepNumber, status,comment);\r\n\r\n        return true;\r\n    }\r\n\r\n    event Termination(address indexed  requestId,address indexed msgSender,string comment);\r\n    //bank reject request\r\n    function termination(string _comment) onlyBeneficiary public returns (bool result)\r\n    {\r\n        require(status==RequestState.accepted );\r\n        stepNumber++;\r\n        if (guarantee!= address(0))\r\n        {\r\n            GuaranteeExtender(guarantee).terminate(_comment);\r\n        }\r\n        //        addCommentsForStep(stepNumber,_comment);\r\n        status=RequestState.terminationRequest;\r\n        Termination(getId(),msg.sender,_comment);\r\n        Comment( getId(),stepNumber, status,_comment);\r\n        //         log(\"rejected\",getId()+\"->\"+comment);\r\n        return true;\r\n\r\n    }\r\n\r\n    event Rejected(address indexed requestId,address indexed msgSender,string comment);\r\n    //bank reject request\r\n    function reject(string comment) onlyBank public returns (bool result)\r\n    {\r\n        require(status!=RequestState.accepted);\r\n        stepNumber++;\r\n        //        addCommentsForStep(stepNumber,comment);\r\n        status=RequestState.rejected;\r\n        Rejected(getId(),msg.sender,comment);\r\n        Comment( getId(),stepNumber, status,comment);\r\n\r\n        //         log(\"rejected\",getId()+\"->\"+comment);\r\n        return true;\r\n\r\n    }\r\n\r\n\r\n    event BankStateChange(address indexed requestId,address indexed msgSender,string comment,RequestState _newStat);\r\n    //bank reject request\r\n    function bankStateChange(string comment ,RequestState _newState) onlyBank public returns (bool result)\r\n    {\r\n        require((status==RequestState.waitingtobank      ||\r\n        status==RequestState.handling           ) &&\r\n        (_newState==RequestState.handling           ||\r\n        _newState==RequestState.waitingtocustomer  ||\r\n        _newState==RequestState.waitingtobeneficiery ));\r\n        stepNumber++;\r\n        //        addCommentsForStep(stepNumber,comment);\r\n        status=_newState;\r\n        BankStateChange(getId(),msg.sender,comment,_newState);\r\n        Comment( getId(),stepNumber, status,comment);\r\n\r\n        //         log(\"rejected\",getId()+\"->\"+comment);\r\n        return true;\r\n\r\n    }\r\n\r\n\r\n    event Accepted(address indexed requestId,address indexed msgSender,string comment,bytes _guaranteeIPFSHash);\r\n    //bank accept request\r\n    function accept(string comment,bytes _guaranteeIPFSHash) onlyBank public returns (bool result)\r\n    {\r\n        require((status==RequestState.waitingtobank || status==RequestState.handling || status==RequestState.changeRequested) && _checkArray(_guaranteeIPFSHash) && guarantee==address(0));\r\n        stepNumber++;\r\n        guaranteeIPFSHash=_guaranteeIPFSHash;\r\n        //        addCommentsForStep(stepNumber,comment);\r\n        status=RequestState.accepted;\r\n        Accepted(getId(),msg.sender,comment,guaranteeIPFSHash);\r\n        Comment( getId(),stepNumber, status,comment);\r\n        guarantee= new DigitalGuaranteeBNHP(this,regulator,guaranteeIPFSHash);\r\n        //        if (status!=RequestState.changeRequested)\r\n        //        {\r\n        //            GuaranteeRequest(changeRequest).\r\n        //            if (guarantee!= address(0))\r\n        //            {\r\n        //            GuaranteeExtender(guarantee).terminate();\r\n        //            }\r\n        //            addCommentsForStep(stepNumber,comment);\r\n        //            status=RequestState.terminationRequest;\r\n        //            Termination(getId(),msg.sender,comment);\r\n        //\r\n        //\r\n        //        }\r\n        return true;\r\n    }\r\n\r\n    //    event ChangeRequested(address  requestId,address  oldrequestId,address msgSender);\r\n    //    function changeRequested(address _old_request) onlyBank returns (bool result)\r\n    //    {\r\n    //        require((status==RequestState.created ) );\r\n    //        stepNumber++;\r\n    //        status=RequestState.changeRequested;\r\n    //        changeRequest=_old_request;\r\n    //        ChangeRequested(getId(),oldrequestId,msg.sender);\r\n    //        return true;\r\n    //    }\r\n\r\n\r\n}\r\n",
  "sourcePath": "/D/Projects/Poalim-Innov/contracts/GuaranteeRequest.sol",
  "schemaVersion": "1.0.0",
  "updatedAt": "2017-10-02T09:18:27.040Z"
}