{
  "contractName": "GuaranteeRequest",
  "abi": [
    {
      "constant": true,
      "inputs": [],
      "name": "getGuaranteeRequestData",
      "outputs": [
        {
          "name": "_contract_id",
          "type": "address"
        },
        {
          "name": "_customer",
          "type": "address"
        },
        {
          "name": "_bank",
          "type": "address"
        },
        {
          "name": "_beneficiary",
          "type": "address"
        },
        {
          "name": "_full_name",
          "type": "bytes32"
        },
        {
          "name": "_purpose",
          "type": "bytes32"
        },
        {
          "name": "_amount",
          "type": "uint256"
        },
        {
          "name": "_startDate",
          "type": "uint256"
        },
        {
          "name": "_endDate",
          "type": "uint256"
        },
        {
          "name": "_indexType",
          "type": "uint8"
        },
        {
          "name": "_indexDate",
          "type": "uint256"
        },
        {
          "name": "_status",
          "type": "uint8"
        }
      ],
      "payable": false,
      "type": "function"
    },
    {
      "constant": false,
      "inputs": [
        {
          "name": "comment",
          "type": "string"
        }
      ],
      "name": "reject",
      "outputs": [
        {
          "name": "result",
          "type": "bool"
        }
      ],
      "payable": false,
      "type": "function"
    },
    {
      "constant": false,
      "inputs": [
        {
          "name": "_guaranteeIPFSHash",
          "type": "bytes"
        }
      ],
      "name": "signComplite",
      "outputs": [
        {
          "name": "",
          "type": "address"
        }
      ],
      "payable": false,
      "type": "function"
    },
    {
      "constant": false,
      "inputs": [],
      "name": "accept",
      "outputs": [
        {
          "name": "result",
          "type": "bool"
        }
      ],
      "payable": false,
      "type": "function"
    },
    {
      "constant": false,
      "inputs": [
        {
          "name": "_newamount",
          "type": "uint256"
        },
        {
          "name": "_newendDate",
          "type": "uint256"
        }
      ],
      "name": "changeRequested",
      "outputs": [],
      "payable": false,
      "type": "function"
    },
    {
      "constant": true,
      "inputs": [],
      "name": "isExpired",
      "outputs": [
        {
          "name": "",
          "type": "bool"
        }
      ],
      "payable": false,
      "type": "function"
    },
    {
      "constant": false,
      "inputs": [],
      "name": "getGuaranteeAddress",
      "outputs": [
        {
          "name": "",
          "type": "address"
        }
      ],
      "payable": false,
      "type": "function"
    },
    {
      "constant": false,
      "inputs": [],
      "name": "close",
      "outputs": [],
      "payable": false,
      "type": "function"
    },
    {
      "constant": false,
      "inputs": [],
      "name": "setRegulator",
      "outputs": [],
      "payable": false,
      "type": "function"
    },
    {
      "constant": false,
      "inputs": [
        {
          "name": "comment",
          "type": "string"
        }
      ],
      "name": "withdrawal",
      "outputs": [
        {
          "name": "result",
          "type": "bool"
        }
      ],
      "payable": false,
      "type": "function"
    },
    {
      "constant": true,
      "inputs": [],
      "name": "version",
      "outputs": [
        {
          "name": "",
          "type": "string"
        }
      ],
      "payable": false,
      "type": "function"
    },
    {
      "constant": true,
      "inputs": [],
      "name": "getBeneficiary",
      "outputs": [
        {
          "name": "_beneficiary",
          "type": "address"
        }
      ],
      "payable": false,
      "type": "function"
    },
    {
      "constant": true,
      "inputs": [],
      "name": "getId",
      "outputs": [
        {
          "name": "_contract_id",
          "type": "address"
        }
      ],
      "payable": false,
      "type": "function"
    },
    {
      "constant": true,
      "inputs": [],
      "name": "getBank",
      "outputs": [
        {
          "name": "_bank",
          "type": "address"
        }
      ],
      "payable": false,
      "type": "function"
    },
    {
      "constant": true,
      "inputs": [],
      "name": "getCustomer",
      "outputs": [
        {
          "name": "",
          "type": "address"
        }
      ],
      "payable": false,
      "type": "function"
    },
    {
      "constant": true,
      "inputs": [],
      "name": "getChangeRequestGuarantee",
      "outputs": [
        {
          "name": "",
          "type": "address"
        }
      ],
      "payable": false,
      "type": "function"
    },
    {
      "constant": true,
      "inputs": [],
      "name": "getOwner",
      "outputs": [
        {
          "name": "",
          "type": "address"
        }
      ],
      "payable": false,
      "type": "function"
    },
    {
      "constant": true,
      "inputs": [],
      "name": "owner",
      "outputs": [
        {
          "name": "",
          "type": "address"
        }
      ],
      "payable": false,
      "type": "function"
    },
    {
      "constant": true,
      "inputs": [],
      "name": "getRequestState",
      "outputs": [
        {
          "name": "",
          "type": "uint8"
        }
      ],
      "payable": false,
      "type": "function"
    },
    {
      "constant": false,
      "inputs": [
        {
          "name": "_newOwner",
          "type": "address"
        }
      ],
      "name": "changeOwner",
      "outputs": [],
      "payable": false,
      "type": "function"
    },
    {
      "constant": true,
      "inputs": [],
      "name": "getEndDate",
      "outputs": [
        {
          "name": "_date",
          "type": "uint256"
        }
      ],
      "payable": false,
      "type": "function"
    },
    {
      "constant": true,
      "inputs": [],
      "name": "isValid",
      "outputs": [
        {
          "name": "",
          "type": "bool"
        }
      ],
      "payable": false,
      "type": "function"
    },
    {
      "constant": true,
      "inputs": [],
      "name": "getProposalIPFSHash",
      "outputs": [
        {
          "name": "",
          "type": "bytes"
        }
      ],
      "payable": false,
      "type": "function"
    },
    {
      "constant": false,
      "inputs": [],
      "name": "terminateGuarantee",
      "outputs": [],
      "payable": false,
      "type": "function"
    },
    {
      "constant": false,
      "inputs": [],
      "name": "isChangeRequest",
      "outputs": [
        {
          "name": "",
          "type": "bool"
        }
      ],
      "payable": false,
      "type": "function"
    },
    {
      "constant": false,
      "inputs": [
        {
          "name": "comment",
          "type": "string"
        }
      ],
      "name": "submit",
      "outputs": [
        {
          "name": "result",
          "type": "bool"
        }
      ],
      "payable": false,
      "type": "function"
    },
    {
      "constant": true,
      "inputs": [],
      "name": "addresses",
      "outputs": [
        {
          "name": "bank",
          "type": "address"
        },
        {
          "name": "beneficiary",
          "type": "address"
        }
      ],
      "payable": false,
      "type": "function"
    },
    {
      "constant": false,
      "inputs": [
        {
          "name": "comment",
          "type": "string"
        },
        {
          "name": "_newState",
          "type": "uint8"
        }
      ],
      "name": "bankStateChange",
      "outputs": [
        {
          "name": "result",
          "type": "bool"
        }
      ],
      "payable": false,
      "type": "function"
    },
    {
      "constant": false,
      "inputs": [],
      "name": "getRegulator",
      "outputs": [
        {
          "name": "",
          "type": "address"
        }
      ],
      "payable": false,
      "type": "function"
    },
    {
      "inputs": [
        {
          "name": "_bank",
          "type": "address"
        },
        {
          "name": "_beneficiary",
          "type": "address"
        },
        {
          "name": "_full_name",
          "type": "bytes32"
        },
        {
          "name": "_purpose",
          "type": "bytes32"
        },
        {
          "name": "_amount",
          "type": "uint256"
        },
        {
          "name": "_startDate",
          "type": "uint256"
        },
        {
          "name": "_endDate",
          "type": "uint256"
        },
        {
          "name": "_indexType",
          "type": "uint8"
        },
        {
          "name": "_indexDate",
          "type": "uint256"
        },
        {
          "name": "_proposalIPFSHash",
          "type": "bytes"
        }
      ],
      "payable": false,
      "type": "constructor"
    },
    {
      "anonymous": false,
      "inputs": [
        {
          "indexed": true,
          "name": "requestId",
          "type": "address"
        },
        {
          "indexed": true,
          "name": "customer",
          "type": "address"
        },
        {
          "indexed": true,
          "name": "bank",
          "type": "address"
        },
        {
          "indexed": false,
          "name": "beneficiary",
          "type": "address"
        },
        {
          "indexed": false,
          "name": "curentstatus",
          "type": "uint8"
        },
        {
          "indexed": false,
          "name": "guarantyPurpose",
          "type": "bytes32"
        },
        {
          "indexed": false,
          "name": "requestAmount",
          "type": "uint256"
        },
        {
          "indexed": false,
          "name": "requestStartDate",
          "type": "uint256"
        },
        {
          "indexed": false,
          "name": "requestEndDate",
          "type": "uint256"
        },
        {
          "indexed": false,
          "name": "requestIndexType",
          "type": "uint8"
        },
        {
          "indexed": false,
          "name": "requestIndexDate",
          "type": "uint256"
        },
        {
          "indexed": false,
          "name": "timestamp",
          "type": "uint256"
        },
        {
          "indexed": false,
          "name": "proposalIPFSHash",
          "type": "bytes"
        }
      ],
      "name": "GuaranteeRequestCreated",
      "type": "event"
    },
    {
      "anonymous": false,
      "inputs": [
        {
          "indexed": true,
          "name": "requestId",
          "type": "address"
        },
        {
          "indexed": true,
          "name": "guarantieId",
          "type": "address"
        },
        {
          "indexed": false,
          "name": "newamount",
          "type": "uint256"
        },
        {
          "indexed": false,
          "name": "newendDate",
          "type": "uint256"
        },
        {
          "indexed": false,
          "name": "curentstatus",
          "type": "uint8"
        },
        {
          "indexed": false,
          "name": "timestamp",
          "type": "uint256"
        }
      ],
      "name": "GuarantieChangeRequested",
      "type": "event"
    },
    {
      "anonymous": false,
      "inputs": [
        {
          "indexed": true,
          "name": "requestId",
          "type": "address"
        },
        {
          "indexed": true,
          "name": "msgSender",
          "type": "address"
        },
        {
          "indexed": false,
          "name": "curentstatus",
          "type": "uint8"
        },
        {
          "indexed": false,
          "name": "commentline",
          "type": "string"
        },
        {
          "indexed": false,
          "name": "timestamp",
          "type": "uint256"
        }
      ],
      "name": "Submitted",
      "type": "event"
    },
    {
      "anonymous": false,
      "inputs": [
        {
          "indexed": true,
          "name": "requestId",
          "type": "address"
        },
        {
          "indexed": true,
          "name": "msgSender",
          "type": "address"
        },
        {
          "indexed": false,
          "name": "curentstatus",
          "type": "uint8"
        },
        {
          "indexed": false,
          "name": "commentline",
          "type": "string"
        },
        {
          "indexed": false,
          "name": "timestamp",
          "type": "uint256"
        }
      ],
      "name": "Withdrawal",
      "type": "event"
    },
    {
      "anonymous": false,
      "inputs": [
        {
          "indexed": true,
          "name": "requestId",
          "type": "address"
        },
        {
          "indexed": true,
          "name": "msgSender",
          "type": "address"
        },
        {
          "indexed": false,
          "name": "curentstatus",
          "type": "uint8"
        },
        {
          "indexed": false,
          "name": "timestamp",
          "type": "uint256"
        }
      ],
      "name": "Termination",
      "type": "event"
    },
    {
      "anonymous": false,
      "inputs": [
        {
          "indexed": true,
          "name": "requestId",
          "type": "address"
        },
        {
          "indexed": true,
          "name": "msgSender",
          "type": "address"
        },
        {
          "indexed": false,
          "name": "curentstatus",
          "type": "uint8"
        },
        {
          "indexed": false,
          "name": "commentline",
          "type": "string"
        },
        {
          "indexed": false,
          "name": "timestamp",
          "type": "uint256"
        }
      ],
      "name": "Rejected",
      "type": "event"
    },
    {
      "anonymous": false,
      "inputs": [
        {
          "indexed": true,
          "name": "requestId",
          "type": "address"
        },
        {
          "indexed": true,
          "name": "msgSender",
          "type": "address"
        },
        {
          "indexed": false,
          "name": "curentstatus",
          "type": "uint8"
        },
        {
          "indexed": false,
          "name": "commentline",
          "type": "string"
        },
        {
          "indexed": false,
          "name": "timestamp",
          "type": "uint256"
        }
      ],
      "name": "BankStateChange",
      "type": "event"
    },
    {
      "anonymous": false,
      "inputs": [
        {
          "indexed": true,
          "name": "requestId",
          "type": "address"
        },
        {
          "indexed": true,
          "name": "msgSender",
          "type": "address"
        },
        {
          "indexed": false,
          "name": "curentstatus",
          "type": "uint8"
        },
        {
          "indexed": false,
          "name": "timestamp",
          "type": "uint256"
        }
      ],
      "name": "Accepted",
      "type": "event"
    },
    {
      "anonymous": false,
      "inputs": [
        {
          "indexed": true,
          "name": "requestId",
          "type": "address"
        },
        {
          "indexed": true,
          "name": "guarantieId",
          "type": "address"
        },
        {
          "indexed": false,
          "name": "curentstatus",
          "type": "uint8"
        },
        {
          "indexed": false,
          "name": "timestamp",
          "type": "uint256"
        }
      ],
      "name": "GuarantieSigned",
      "type": "event"
    },
    {
      "anonymous": false,
      "inputs": [
        {
          "indexed": true,
          "name": "requestId",
          "type": "address"
        },
        {
          "indexed": true,
          "name": "guarantieId",
          "type": "address"
        },
        {
          "indexed": false,
          "name": "curentstatus",
          "type": "uint8"
        },
        {
          "indexed": false,
          "name": "timestamp",
          "type": "uint256"
        }
      ],
      "name": "GuarantieChangeSigned",
      "type": "event"
    }
  ],
  "bytecode": "0x6060604090815260008054600160a060020a03191633600160a060020a03161790558051908101604052600481527f312e303000000000000000000000000000000000000000000000000000000000602082015260039080516200006892916020019062000313565b5034156200007557600080fd5b60405162002dc138038062002dc18339810160405280805191906020018051919060200180519190602001805191906020018051919060200180519190602001805191906020018051919060200180519190602001805190910190505b60048054600160a060020a03808d16600160a060020a03199283161790925560058054928c16929091169190911790556007879055600886905560068890556009859055600a849055600b805484919060ff191660018360028111156200013557fe5b0217905550600c82905560008054819060a060020a60ff02191674010000000000000000000000000000000000000000825b0217905550600d8180516200018192916020019062000313565b50600160a060020a038a16620001a46401000000006200136d620002fe82021704565b600160a060020a0316620001c5640100000000620013586200030e82021704565b600160a060020a03167f2fa3897c0f43ce3bb4755a179f18097a212d0dd14a0b2448aa4e511517dc973b8c600060149054906101000a900460ff168c8c8c8c8c8c428d604051600160a060020a038b168152602081018a600a8111156200022857fe5b60ff168152602081018a905260408101899052606081018890526080810187905260a0018560028111156200025957fe5b60ff16815260200184815260200183815260200180602001828103825283818151815260200191508051906020019080838360005b83811015620002a95780820151818401525b6020016200028e565b50505050905090810190601f168015620002d75780820380516001836020036101000a031916815260200191505b509b50505050505050505050505060405180910390a45b5050505050505050505062000443565b600054600160a060020a03165b90565b305b90565b828054600181600116156101000203166002900490600052602060002090601f016020900481019282601f106200035657805160ff191683800117855562000386565b8280016001018555821562000386579182015b828111156200038657825182559160200191906001019062000369565b5b50620003959291506200041f565b5090565b828054600181600116156101000203166002900490600052602060002090601f016020900481019282601f106200035657805160ff191683800117855562000386565b8280016001018555821562000386579182015b828111156200038657825182559160200191906001019062000369565b5b50620003959291506200041f565b5090565b6200030b91905b8082111562000395576000815560010162000426565b5090565b90565b61296e80620004536000396000f30060606040523615620001775763ffffffff60e060020a6000350416631c32e7af81146200017c578063201c5cc114620002295780632259515b14620002915780632852b71c14620003015780632beba68b146200032b5780632f13b60c14620003495780633f40d18f146200037357806343d726d614620003a55780634a0b20aa14620003bd5780634a51c31c14620003d557806354fd4d50146200043d578063565a2e2c14620004ce5780635d1ca631146200050057806360d704db1462000532578063650d993b14620005645780636f00817e1462000596578063893d20e814620005645780638da5cb5b14620005fa578063a39152f2146200062c578063a6f9dae11462000667578063b1356488146200068b578063bb5d40eb14620006b3578063c3287ea714620006dd578063c700c70d146200076e578063cded37371462000786578063d99a8dc314620007b0578063da0321cd1462000818578063f40bd94a1462000852578063f7e317f414620008bf575b600080fd5b34156200018857600080fd5b62000192620008f1565b604051600160a060020a03808e1682528c811660208301528b811660408301528a1660608201526080810189905260a0810188905260c0810187905260e0810186905261010081018590526101208101846002811115620001ef57fe5b60ff16815260200183815260200182600a8111156200020a57fe5b60ff1681526020019c5050505050505050505050505060405180910390f35b34156200023557600080fd5b6200027d60046024813581810190830135806020601f820181900481020160405190810160405281815292919060208401838380828437509496506200098495505050505050565b604051901515815260200160405180910390f35b34156200029d57600080fd5b620002e560046024813581810190830135806020601f8201819004810201604051908101604052818152929190602084018383808284375094965062000abd95505050505050565b604051600160a060020a03909116815260200160405180910390f35b34156200030d57600080fd5b6200027d62000ecf565b604051901515815260200160405180910390f35b34156200033757600080fd5b6200034760043560243562001017565b005b34156200035557600080fd5b6200027d620010c6565b604051901515815260200160405180910390f35b34156200037f57600080fd5b620002e5620010da565b604051600160a060020a03909116815260200160405180910390f35b3415620003b157600080fd5b62000347620010ea565b005b3415620003c957600080fd5b6200034762001117565b005b3415620003e157600080fd5b6200027d60046024813581810190830135806020601f820181900481020160405190810160405281815292919060208401838380828437509496506200114295505050505050565b604051901515815260200160405180910390f35b34156200044957600080fd5b62000453620012a6565b60405160208082528190810183818151815260200191508051906020019080838360005b83811015620004925780820151818401525b60200162000477565b50505050905090810190601f168015620004c05780820380516001836020036101000a031916815260200191505b509250505060405180910390f35b3415620004da57600080fd5b620002e562001348565b604051600160a060020a03909116815260200160405180910390f35b34156200050c57600080fd5b620002e562001358565b604051600160a060020a03909116815260200160405180910390f35b34156200053e57600080fd5b620002e56200135d565b604051600160a060020a03909116815260200160405180910390f35b34156200057057600080fd5b620002e56200136d565b604051600160a060020a03909116815260200160405180910390f35b3415620005a257600080fd5b620002e56200137d565b604051600160a060020a03909116815260200160405180910390f35b34156200057057600080fd5b620002e56200136d565b604051600160a060020a03909116815260200160405180910390f35b34156200060657600080fd5b620002e562001393565b604051600160a060020a03909116815260200160405180910390f35b34156200063857600080fd5b62000642620013a2565b6040518082600a8111156200065357fe5b60ff16815260200191505060405180910390f35b34156200067357600080fd5b62000347600160a060020a0360043516620013b3565b005b34156200069757600080fd5b620006a162001412565b60405190815260200160405180910390f35b3415620006bf57600080fd5b6200027d62001419565b604051901515815260200160405180910390f35b3415620006e957600080fd5b6200045362001457565b60405160208082528190810183818151815260200191508051906020019080838360005b83811015620004925780820151818401525b60200162000477565b50505050905090810190601f168015620004c05780820380516001836020036101000a031916815260200191505b509250505060405180910390f35b34156200077a57600080fd5b6200034762001506565b005b34156200079257600080fd5b6200027d620015c8565b604051901515815260200160405180910390f35b3415620007bc57600080fd5b6200027d60046024813581810190830135806020601f82018190048102016040519081016040528181529291906020840183838082843750949650620015e695505050505050565b604051901515815260200160405180910390f35b34156200082457600080fd5b6200082e62001749565b604051600160a060020a039283168152911660208201526040908101905180910390f35b34156200085e57600080fd5b6200027d60046024813581810190830135806020601f820181900481020160405190810160405281815292919060208401838380828437509496505050923560ff1692506200175f915050565b604051901515815260200160405180910390f35b3415620008cb57600080fd5b620002e562001931565b604051600160a060020a03909116815260200160405180910390f35b6000806000806000806000806000806000806200090d62001358565b9b50620009196200136d565b9a50620009256200135d565b99506200093162001348565b98506007549650600854955060065497506009549450600a549350600b60009054906101000a900460ff169250600c549150600060149054906101000a900460ff1690505b909192939495969798999a9b565b600060065b60005460a060020a900460ff16600a811115620009a257fe5b1415620009ae57600080fd5b600080546008919060a060020a60ff02191660a060020a835b021790555033600160a060020a0316620009e062001358565b600160a060020a03167feb463c1ffd4e2e84feaf7746bb60dd6b9471dbbf9edd2b020a53869f796cd78d600060149054906101000a900460ff1685426040518084600a81111562000a2d57fe5b60ff16815260200180602001838152602001828103825284818151815260200191508051906020019080838360005b8381101562000a775780820151818401525b60200162000a5c565b50505050905090810190601f16801562000aa55780820380516001836020036101000a031916815260200191505b5094505050505060405180910390a35060015b919050565b600154600090819033600160a060020a0390811691161462000ade57600080fd5b60065b62000aeb620013a2565b600a81111562000af757fe5b14801562000b0b575062000b0b8362001941565b5b801562000b33575062000b1e62001931565b600160a060020a031633600160a060020a0316145b151562000b3f57600080fd5b62000b4962001358565b62000b5362001931565b8462000b5e6200195f565b600160a060020a0380851682528316602082015260606040820181815290820183818151815260200191508051906020019080838360005b8381101562000bb15780820151818401525b60200162000b96565b50505050905090810190601f16801562000bdf5780820380516001836020036101000a031916815260200191505b50945050505050604051809103906000f080151562000bfd57600080fd5b905080600160a060020a0316635d1ca6316000604051602001526040518163ffffffff1660e060020a028152600401602060405180830381600087803b151562000c4657600080fd5b6102c65a03f1151562000c5857600080fd5b50505060405180516002805473ffffffffffffffffffffffffffffffffffffffff1916600160a060020a03929092169190911790555062000c98620015c8565b1562000ddc5780600160a060020a0316635d1ca6316000604051602001526040518163ffffffff1660e060020a028152600401602060405180830381600087803b151562000ce557600080fd5b6102c65a03f1151562000cf757600080fd5b50505060405180519050600160a060020a031662000d1462001358565b600160a060020a03167f5cf2a7101a7acad9a26aabd8c2b95e616fa3c5c8e93e3f30419151a370f4ef34600060149054906101000a900460ff16426040518083600a81111562000d6057fe5b60ff1681526020018281526020019250505060405180910390a362000d846200137d565b600160a060020a031663c700c70d6040518163ffffffff1660e060020a028152600401600060405180830381600087803b151562000dc157600080fd5b6102c65a03f1151562000dd357600080fd5b50505062000eb9565b80600160a060020a0316635d1ca6316000604051602001526040518163ffffffff1660e060020a028152600401602060405180830381600087803b151562000e2357600080fd5b6102c65a03f1151562000e3557600080fd5b50505060405180519050600160a060020a031662000e5262001358565b600160a060020a03167f9f3a4dc4a2920969299d37a1a55dc00ce978fe5e0ac8b2a4d87fbe66fd4d283b600060149054906101000a900460ff16426040518083600a81111562000e9e57fe5b60ff1681526020018281526020019250505060405180910390a35b600254600160a060020a031691505b5b50919050565b60015460009033600160a060020a0390811691161462000eee57600080fd5b60015b60005460a060020a900460ff16600a81111562000f0a57fe5b148062000f30575060025b60005460a060020a900460ff16600a81111562000f2e57fe5b145b8062000f55575060075b60005460a060020a900460ff16600a81111562000f5357fe5b145b801562000f6b5750600254600160a060020a0316155b151562000f7757600080fd5b600080546006919060a060020a60ff02191660a060020a835b021790555033600160a060020a031662000fa962001358565b600160a060020a03167f89e5f8cd748cff430d9087f4e0e0ef20acd32d0e6686df96c89d726e35e68ab5600060149054906101000a900460ff16426040518083600a81111562000ff557fe5b60ff1681526020018281526020019250505060405180910390a35060015b5b90565b600080546007919060a060020a60ff02191660a060020a835b0217905550600254600160a060020a03166200104b62001358565b600160a060020a03167fb42cc91db936a84b66eef34e5d2852b519032c7921629568c4589c97396a5ad28484600060149054906101000a900460ff16426040518085815260200184815260200183600a811115620010a557fe5b60ff16815260200182815260200194505050505060405180910390a35b5050565b600042620010d362001412565b1190505b90565b600254600160a060020a03165b90565b60005433600160a060020a039081169116146200110657600080fd5b600054600160a060020a0316ff5b5b565b6001805473ffffffffffffffffffffffffffffffffffffffff191633600160a060020a03161790555b565b60006200114e6200136d565b600160a060020a031633600160a060020a03161415156200116e57600080fd5b60065b60005460a060020a900460ff16600a8111156200118a57fe5b14156200119657600080fd5b600080546005919060a060020a60ff02191660a060020a835b021790555033600160a060020a0316620011c862001358565b600160a060020a03167fdc36f94f1c16d61fe684e365e0c2a72b23aebb7adedf5aaa22fab76156a7efe7600060149054906101000a900460ff1685426040518084600a81111562000a2d57fe5b60ff16815260200180602001838152602001828103825284818151815260200191508051906020019080838360005b8381101562000a775780820151818401525b60200162000a5c565b50505050905090810190601f16801562000aa55780820380516001836020036101000a031916815260200191505b5094505050505060405180910390a35060015b5b919050565b60038054600181600116156101000203166002900480601f016020809104026020016040519081016040528092919081815260200182805460018160011615610100020316600290048015620013405780601f10620013145761010080835404028352916020019162001340565b820191906000526020600020905b8154815290600101906020018083116200132257829003601f168201915b505050505081565b600554600160a060020a03165b90565b305b90565b600454600160a060020a03165b90565b600054600160a060020a03165b90565b60005b90565b600054600160a060020a03165b90565b600054600160a060020a031681565b60005460a060020a900460ff165b90565b60005433600160a060020a03908116911614620013cf57600080fd5b600160a060020a0381161515620013e557600080fd5b6000805473ffffffffffffffffffffffffffffffffffffffff1916600160a060020a0383161790555b5b50565b600a545b90565b600080620014266200135d565b600160a060020a03161415801562001451575060006200144562001348565b600160a060020a031614155b90505b90565b6200146162001970565b600d8054600181600116156101000203166002900480601f016020809104026020016040519081016040528092919081815260200182805460018160011615610100020316600290048015620014fb5780601f10620014cf57610100808354040283529160200191620014fb565b820191906000526020600020905b815481529060010190602001808311620014dd57829003601f168201915b505050505090505b90565b60065b60005460a060020a900460ff16600a8111156200152257fe5b146200152d57600080fd5b600080546009919060a060020a60ff02191660a060020a835b021790555033600160a060020a03166200155f62001358565b600160a060020a03167fb045224df2b3987361a530219dd4444888d47a8e07af71c364c99fe7468f176f600060149054906101000a900460ff16426040518083600a811115620015ab57fe5b60ff1681526020018281526020019250505060405180910390a35b565b600080620014456200137d565b600160a060020a0316141590505b90565b6000620015f26200136d565b600160a060020a031633600160a060020a03161415156200161257600080fd5b60005b60005460a060020a900460ff16600a8111156200162e57fe5b146200163957600080fd5b600080546001919060a060020a60ff02191660a060020a835b021790555033600160a060020a03166200166b62001358565b600160a060020a03167fe10024035668761375cfcfe9cbd74261a7c93ffafc8059f85ba7477baf874921600060149054906101000a900460ff1685426040518084600a81111562000a2d57fe5b60ff16815260200180602001838152602001828103825284818151815260200191508051906020019080838360005b8381101562000a775780820151818401525b60200162000a5c565b50505050905090810190601f16801562000aa55780820380516001836020036101000a031916815260200191505b5094505050505060405180910390a35060015b5b919050565b600454600554600160a060020a03918216911682565b60006200176b6200135d565b600160a060020a031633600160a060020a03161415156200178b57600080fd5b60015b60005460a060020a900460ff16600a811115620017a757fe5b1480620017cd575060025b60005460a060020a900460ff16600a811115620017cb57fe5b145b801562001818575060025b82600a811115620017e557fe5b1480620017ff575060035b82600a811115620017fd57fe5b145b8062001818575060045b82600a8111156200181657fe5b145b5b15156200182557600080fd5b6000805483919060a060020a60ff02191660a060020a83600a8111156200184857fe5b021790555033600160a060020a03166200186162001358565b600160a060020a03167f508c5c654e715d2dda84dde20b40b29a2b462944231ab692f10b091a38541a8d8486426040518084600a8111156200189f57fe5b60ff16815260200180602001838152602001828103825284818151815260200191508051906020019080838360005b83811015620018e95780820151818401525b602001620018ce565b50505050905090810190601f168015620019175780820380516001836020036101000a031916815260200191505b5094505050505060405180910390a35060015b5b92915050565b600154600160a060020a03165b90565b60008082511115620019565750600162000ab8565b5060005b919050565b604051610fc0806200198383390190565b602060405190810160405260008152905600606060405260008054600160a060020a03191633600160a060020a0316179055341561002a57600080fd5b60405162000fc038038062000fc083398101604052808051919060200180519190602001805190910190505b60018054600160a060020a03808616600160a060020a031992831617909255600280549285169290911691909117905560038180516100999291602001906101be565b50600280546001919060a060020a60ff02191674010000000000000000000000000000000000000000835b02179055507feeb6ffd7090cc72ad3fc8b9c2879f7b97d4f9eb9b2943c50a4cbab3931db090983303384600260149054906101000a900460ff1642604051600160a060020a038088168252868116602083015285166040820152606081016080820184600481111561013257fe5b60ff168152602001838152602001828103825285818151815260200191508051906020019080838360005b838110156101765780820151818401525b60200161015d565b50505050905090810190601f1680156101a35780820380516001836020036101000a031916815260200191505b5097505050505050505060405180910390a15b50505061025e565b828054600181600116156101000203166002900490600052602060002090601f016020900481019282601f106101ff57805160ff191683800117855561022c565b8280016001018555821561022c579182015b8281111561022c578251825591602001919060010190610211565b5b5061023992915061023d565b5090565b61025b91905b808211156102395760008155600101610243565b5090565b90565b610d52806200026e6000396000f300606060405236156100b45763ffffffff60e060020a6000350416631865c57d81146100b95780632f13b60c146100f057806338e537b31461011757806343d726d6146101c9578063488523bc146101de578063565a2e2c146102695780635d1ca6311461029857806388a22f7a146102c7578063893d20e8146102f65780638da5cb5b14610325578063a6f9dae114610354578063b135648814610375578063c700c70d1461039a578063cfd99c5a146103af575b600080fd5b34156100c457600080fd5b6100cc610449565b604051808260048111156100dc57fe5b60ff16815260200191505060405180910390f35b34156100fb57600080fd5b610103610611565b604051901515815260200160405180910390f35b341561012257600080fd5b61012a610623565b604051600160a060020a03808f1682528d811660208301528c811660408301528b811660608301528a16608082015260a0810189905260c0810188905260e0810187905261010081018690526101208101859052610140810184600281111561018f57fe5b60ff1681526020018381526020018260048111156101a957fe5b60ff1681526020019d505050505050505050505050505060405180910390f35b34156101d457600080fd5b6101dc6108a0565b005b34156101e957600080fd5b6101f16108cc565b60405160208082528190810183818151815260200191508051906020019080838360005b8381101561022e5780820151818401525b602001610215565b50505050905090810190601f16801561025b5780820380516001836020036101000a031916815260200191505b509250505060405180910390f35b341561027457600080fd5b61027c610975565b604051600160a060020a03909116815260200160405180910390f35b34156102a357600080fd5b61027c6109e1565b604051600160a060020a03909116815260200160405180910390f35b34156102d257600080fd5b61027c6109e6565b604051600160a060020a03909116815260200160405180910390f35b341561030157600080fd5b61027c6109f6565b604051600160a060020a03909116815260200160405180910390f35b341561033057600080fd5b61027c610a06565b604051600160a060020a03909116815260200160405180910390f35b341561035f57600080fd5b6101dc600160a060020a0360043516610a15565b005b341561038057600080fd5b610388610a72565b60405190815260200160405180910390f35b34156103a557600080fd5b6101dc610ade565b005b34156103ba57600080fd5b6101dc600480359060446024803590810190830135806020601f8201819004810201604051908101604052818152929190602084018383808284378201915050505050509190803590602001908201803590602001908080601f016020809104026020016040519081016040528181529291906020840183838082843750949650610b9f95505050505050565b005b60007fb8db624f7c54b73ab9847400c728df0d946ea57a7a09b3e8c8d7c9b4a453397d42610475610a72565b4261047e610a72565b10600260149054906101000a900460ff16604051848152602081018490528215156040820152606081018260048111156104b457fe5b60ff16815260200194505050505060405180910390a160015b60025460a060020a900460ff1660048111156104e557fe5b14156105fe577fb25a5fa6cf1ba32d4ef5af2eae5bee9e60ab07b89e225f1ab8d1d90f0183695b42610515610a72565b4261051e610a72565b10600260149054906101000a900460ff166040518481526020810184905282151560408201526060810182600481111561055457fe5b60ff16815260200194505050505060405180910390a1610572610611565b156105fe577fb224890cfa00231eeb878ff734c4a948ebb2fe64bb8b9d370eda902f40087df9426105a1610a72565b426105aa610a72565b10600260149054906101000a900460ff16604051848152602081018490528215156040820152606081018260048111156105e057fe5b60ff16815260200194505050505060405180910390a150600261060e565b5b5060025460a060020a900460ff165b90565b60004261061c610a72565b1090505b90565b600080600080600080600080600080600080600080600160009054906101000a9004600160a060020a0316905080600160a060020a0316631c32e7af600060405161018001526040518163ffffffff1660e060020a02815260040161018060405180830381600087803b151561069857600080fd5b6102c65a03f115156106a957600080fd5b50505060405180519060200180519060200180519060200180519060200180519060200180519060200180519060200180519060200180519060200180519060200180519060200180519050909192939495969798999a5090919293949596979899509091929394959697985090919293949596975050809950819a50829b50839c50849d50859e50869f5050505050505050600160009054906101000a9004600160a060020a03169c5061075c6109e1565b9d5080600160a060020a031663650d993b6000604051602001526040518163ffffffff1660e060020a028152600401602060405180830381600087803b15156107a457600080fd5b6102c65a03f115156107b557600080fd5b50505060405180519c5050600160a060020a0381166360d704db6000604051602001526040518163ffffffff1660e060020a028152600401602060405180830381600087803b151561080657600080fd5b6102c65a03f1151561081757600080fd5b50505060405180519b5050600160a060020a03811663565a2e2c6000604051602001526040518163ffffffff1660e060020a028152600401602060405180830381600087803b151561086857600080fd5b6102c65a03f1151561087957600080fd5b50505060405180519050995061088d610449565b91505b50909192939495969798999a9b9c565b60005433600160a060020a039081169116146108bb57600080fd5b600054600160a060020a0316ff5b5b565b6108d4610d14565b60038054600181600116156101000203166002900480601f01602080910402602001604051908101604052809291908181526020018280546001816001161561010002031660029004801561096a5780601f1061093f5761010080835404028352916020019161096a565b820191906000526020600020905b81548152906001019060200180831161094d57829003601f168201915b505050505090505b90565b600154600090600160a060020a03168063565a2e2c83604051602001526040518163ffffffff1660e060020a028152600401602060405180830381600087803b15156109c057600080fd5b6102c65a03f115156109d157600080fd5b50505060405180519250505b5090565b305b90565b600154600160a060020a03165b90565b600054600160a060020a03165b90565b600054600160a060020a031681565b60005433600160a060020a03908116911614610a3057600080fd5b600160a060020a0381161515610a4557600080fd5b6000805473ffffffffffffffffffffffffffffffffffffffff1916600160a060020a0383161790555b5b50565b600154600090600160a060020a03168063b135648883604051602001526040518163ffffffff1660e060020a028152600401602060405180830381600087803b15156109c057600080fd5b6102c65a03f115156109d157600080fd5b50505060405180519250505b5090565b600280546003919074ff0000000000000000000000000000000000000000191660a060020a835b02179055506001547f6518c1da158fee6a2676b0f54a238f60b8607b47ed05a8ac7108a7a866c25fdd90600160a060020a0316610b406109e1565b600254339060a060020a900460ff1642604051600160a060020a03808716825285811660208301528416604082015260608101836004811115610b7f57fe5b60ff1681526020018281526020019550505050505060405180910390a15b565b6001546002547f3796967879e67477d31c3899fe77a83a6f1ed04f788f5ad924ddaa33a78aac6d91600160a060020a0316903090339087908790879060a060020a900460ff1642604051600160a060020a03808a168252888116602083015287166040820152606081018690526080810160a0820160c08301856004811115610c2457fe5b60ff168152602001848152602001838103835287818151815260200191508051906020019080838360005b83811015610c685780820151818401525b602001610c4f565b50505050905090810190601f168015610c955780820380516001836020036101000a031916815260200191505b50838103825286818151815260200191508051906020019080838360005b83811015610ccc5780820151818401525b602001610cb3565b50505050905090810190601f168015610cf95780820380516001836020036101000a031916815260200191505b509a505050505050505050505060405180910390a15b505050565b602060405190810160405260008152905600a165627a7a7230582062d12066709f7c2e9a6d83ff9de64264d772cc7d95eac2f3d2deb7af6d73d1ee0029a165627a7a723058200af654b1505877d7ae46613baefc605b9786a0a82bfc32b11fadfcbc25ec4b9e0029",
  "source": "pragma solidity ^0.4.13;\n\nimport \"./GuaranteeConst.sol\";\nimport \"./GuaranteeRequestExtender.sol\";\nimport \"./GuaranteeExtender.sol\";\nimport \"./DigitalGuaranteeBNHP.sol\";\n\ncontract GuaranteeRequest is GuaranteeRequestExtender{\n    string public version = \"1.00\";\n\n    //holds the addresses of the participating parties for demo reasons\n    struct Addresses {\n    address bank;\n//    address customer;\n    address beneficiary;\n    }\n\n    Addresses public addresses;\n\n    bytes32  full_name;\n\n    bytes32  purpose;\n    uint  amount;\n    uint  startDate;\n    uint  endDate;\n\n    IndexType  indexType;\n    uint  indexDate;\n\n    bytes  theproposalIPFSHash;\n//    bytes  guaranteeIPFSHash;\n\n//    RequestState   status;\n\n//    int  stepNumber;\n\n\n\n//    event Comment(address indexed requestId,int  numberOfStep,RequestState requestState,string commentline,uint timestamp) ;\n\n\n    event GuaranteeRequestCreated (address indexed requestId,address indexed customer ,address indexed bank ,address  beneficiary ,RequestState   curentstatus,bytes32 guarantyPurpose,\n    uint requestAmount, uint requestStartDate,uint requestEndDate,IndexType requestIndexType,uint requestIndexDate,uint timestamp,bytes  proposalIPFSHash);\n\n\n\n    function GuaranteeRequest(address _bank ,address _beneficiary ,bytes32 _full_name ,bytes32 _purpose,\n    uint _amount, uint _startDate,uint _endDate,IndexType _indexType,uint _indexDate,bytes  _proposalIPFSHash)\n    {\n        addresses.bank=_bank;\n        addresses.beneficiary=_beneficiary;\n        purpose=_purpose;\n        amount=_amount;\n        full_name=_full_name;\n        startDate=_startDate;\n        endDate=_endDate;\n        indexType= _indexType;\n        indexDate= _indexDate;\n        status=RequestState.created;\n\n        theproposalIPFSHash=  _proposalIPFSHash ;\n        GuaranteeRequestCreated(getId(),getCustomer() , _bank,_beneficiary ,   status, _purpose,  _amount,  _startDate, _endDate, _indexType, _indexDate , now ,_proposalIPFSHash);\n\n    }\n\n    function getId() constant public returns (address _contract_id)\n    {\n        return this;\n    }\n\n\n\n    function getBank() constant public returns (address _bank)\n    {\n        return addresses.bank;\n    }\n    function getBeneficiary() constant public returns (address _beneficiary)\n    {\n        return addresses.beneficiary;\n    }\n\n    function getEndDate() constant public returns (uint _date)\n    {\n        return endDate;\n    }\n\n\n\n    function getGuaranteeRequestData() constant public returns (address _contract_id,address _customer,address _bank, address _beneficiary,\n    bytes32 _full_name,bytes32 _purpose,uint _amount,uint _startDate,uint _endDate,IndexType _indexType,uint _indexDate,RequestState _status)\n    {\n\n        _contract_id=getId();\n        _customer=getCustomer();\n        _bank=getBank();\n        _beneficiary=getBeneficiary();\n        _purpose=purpose;\n        _amount=amount;\n        _full_name=full_name;\n        _startDate=startDate;\n        _endDate=endDate;\n        _indexType=indexType;\n        _indexDate=indexDate;\n        _status=status;\n    }\n    function getProposalIPFSHash() public constant returns (bytes )\n    {\n        return theproposalIPFSHash;\n    }\n\n//    function setProposalIPFSHash(bytes _proposalIPFSHash) onlyCustomer public  returns (bool result)\n//    {\n//        require(status==RequestState.created);\n//        proposalIPFSHash=_proposalIPFSHash;\n//        return true;\n//    }\n\n\n\n\n//    event Submitted(address indexed requestId,address indexed msgSender,RequestState   curentstatus,string commentline ,uint timestamp);\n//\n//    //submit function to initiat the request\n//    function submit(string comment) onlyCustomer public returns (bool result)\n//\n//    {\n//        require(status==RequestState.created);\n////        stepNumber++;\n//        status=RequestState.waitingtobank;\n//\n//        Submitted(getId(),msg.sender,   status,comment, now);\n//        //        log(\"submitted\",getId()+\"->\"+comment);\n////        Comment( getId(),stepNumber, status,comment);\n//\n//        return true;\n//    }\n//\n//\n//    event Withdrawal(address indexed requestId,address indexed msgSender,RequestState   curentstatus,string commentline,uint timestamp);\n//    //customer withdrawal request\n//    function withdrawal(string comment) onlyCustomer public returns (bool result)\n//    {\n//        require(status!=RequestState.accepted);\n////        stepNumber++;\n//       status=RequestState.withdrawed;\n//        Withdrawal(getId(),msg.sender,   status,comment,now);\n//        //        log(\"withdrawed\",getId()+\"->\"+comment);\n////        Comment(getId(), stepNumber, status,comment);\n//\n//        return true;\n//    }\n//\n//    event Termination(address indexed  requestId,address indexed msgSender,RequestState   curentstatus,uint timestamp);\n//    //bank reject request\n//    function terminateGuarantee()  public\n//    {\n//        require(status==RequestState.accepted );\n////        stepNumber++;\n//\n//        status=RequestState.terminationRequest;\n//        Termination(getId(),msg.sender,   status,now);\n////        Comment( getId(),stepNumber, status,_comment);\n//        //         log(\"rejected\",getId()+\"->\"+comment);\n//\n//    }\n//\n//    event Rejected(address indexed requestId,address indexed msgSender,   RequestState   curentstatus,string commentline,uint timestamp);\n//    //bank reject request\n//    function reject(string comment)  public returns (bool result)\n//    {\n//        require(status!=RequestState.accepted);\n//\n//        status=RequestState.rejected;\n//        Rejected(getId(),msg.sender,   status,comment,now);\n////        Comment( getId(),stepNumber, status,comment);\n//\n//        //         log(\"rejected\",getId()+\"->\"+comment);\n//        return true;\n//\n//    }\n//\n//\n//    event BankStateChange(address indexed requestId,address indexed msgSender,RequestState   curentstatus,string commentline,uint timestamp);\n//    //bank reject request\n//    function bankStateChange(string comment ,RequestState _newState) onlyBank public returns (bool result)\n//    {\n//        require((status==RequestState.waitingtobank      ||\n//\n//        status==RequestState.handling           ) &&\n//        (_newState==RequestState.handling           ||\n//        _newState==RequestState.waitingtocustomer  ||\n//        _newState==RequestState.waitingtobeneficiery ));\n////        stepNumber++;\n//        //        addCommentsForStep(stepNumber,comment);\n//\n//        status=_newState;\n//        BankStateChange(getId(),msg.sender,_newState,comment,now);\n////        Comment( getId(),stepNumber, status,comment);\n//\n//        //         log(\"rejected\",getId()+\"->\"+comment);\n//        return true;\n//\n//    }\n//\n//\n//    event Accepted(address indexed requestId,address indexed msgSender ,RequestState   curentstatus,uint timestamp);\n//    //bank accept request\n//    function accept() onlyRegulator public returns (bool result)\n//    {\n//\n//        require((status==RequestState.waitingtobank || status==RequestState.handling || status==RequestState.changeRequested)  && guarantee==address(0));\n//\n//        status=RequestState.accepted;\n//        Accepted(getId(),msg.sender,   status,now);\n////        Comment( getId(),stepNumber, status,comment);\n//        //        if (status!=RequestState.changeRequested)\n//        //        {\n//        //            GuaranteeRequest(changeRequest).\n//        //            if (guarantee!= address(0))\n//        //            {\n//        //            GuaranteeExtender(guarantee).terminate();\n//        //            }\n//        //            addCommentsForStep(stepNumber,comment);\n//        //            status=RequestState.terminationRequest;\n//        //            Termination(getId(),msg.sender,comment);\n//        //\n//        //\n//        //        }\n//        return true;\n//    }\n//\n//\n//    event GuarantieSigned(address indexed requestId,address indexed  guarantieId,RequestState   curentstatus,uint timestamp);\n//    event GuarantieChangeSigned(address indexed requestId,address indexed  guarantieId,RequestState   curentstatus,uint timestamp);\n//\n//    function signComplite(bytes _guaranteeIPFSHash) onlyRegulator public returns (address)\n//    {\n//        require( getRequestState()==RequestState.accepted && _checkArray(_guaranteeIPFSHash) && msg.sender == getRegulator());\n//        GuaranteeExtender gr= new DigitalGuaranteeBNHP(getId(),getRegulator(),_guaranteeIPFSHash);\n//        guarantee=gr.getId();\n//        if (isChangeRequest())\n//        {\n//            GuarantieChangeSigned(getId(),gr.getId(),   status,now);\n//            GuaranteeExtender(changeRequestGuaranteeAdr).terminateGuarantee();\n//        }\n//    else\n//        {\n//            GuarantieSigned(getId(),gr.getId(),   status,now);\n//        }\n//\n//        return guarantee;\n//    }\n\n    function getChangeRequestGuarantee() constant public returns (address )\n    {\n        return address(0);\n    }\n\n\n\n}\n",
  "sourcePath": "/Users/dmitryshlymovich/workspace/ethereum-garanties/truffle_eth_bnhp/contracts/GuaranteeRequest.sol",
  "schemaVersion": "1.0.0",
  "updatedAt": "2017-11-05T14:40:10.558Z"
}