{
  "contractName": "GuaranteeRequest",
  "abi": [
    {
      "constant": true,
      "inputs": [],
      "name": "getGuaranteeRequestData",
      "outputs": [
        {
          "name": "_contract_id",
          "type": "address"
        },
        {
          "name": "_customer",
          "type": "address"
        },
        {
          "name": "_bank",
          "type": "address"
        },
        {
          "name": "_beneficiary",
          "type": "address"
        },
        {
          "name": "_full_name",
          "type": "bytes32"
        },
        {
          "name": "_purpose",
          "type": "bytes32"
        },
        {
          "name": "_amount",
          "type": "uint256"
        },
        {
          "name": "_startDate",
          "type": "uint256"
        },
        {
          "name": "_endDate",
          "type": "uint256"
        },
        {
          "name": "_indexType",
          "type": "uint8"
        },
        {
          "name": "_indexDate",
          "type": "uint256"
        },
        {
          "name": "_status",
          "type": "uint8"
        },
        {
          "name": "_isChangeGuarantee",
          "type": "bool"
        },
        {
          "name": "_changedGuarantee",
          "type": "address"
        }
      ],
      "payable": false,
      "stateMutability": "view",
      "type": "function"
    },
    {
      "constant": false,
      "inputs": [
        {
          "name": "comment",
          "type": "string"
        }
      ],
      "name": "reject",
      "outputs": [
        {
          "name": "result",
          "type": "bool"
        }
      ],
      "payable": false,
      "stateMutability": "nonpayable",
      "type": "function"
    },
    {
      "constant": false,
      "inputs": [
        {
          "name": "_guaranteeIPFSHash",
          "type": "bytes"
        }
      ],
      "name": "signComplite",
      "outputs": [
        {
          "name": "",
          "type": "address"
        }
      ],
      "payable": false,
      "stateMutability": "nonpayable",
      "type": "function"
    },
    {
      "constant": false,
      "inputs": [],
      "name": "accept",
      "outputs": [
        {
          "name": "result",
          "type": "bool"
        }
      ],
      "payable": false,
      "stateMutability": "nonpayable",
      "type": "function"
    },
    {
      "constant": false,
      "inputs": [
        {
          "name": "_newamount",
          "type": "uint256"
        },
        {
          "name": "_newendDate",
          "type": "uint256"
        }
      ],
      "name": "changeRequested",
      "outputs": [],
      "payable": false,
      "stateMutability": "nonpayable",
      "type": "function"
    },
    {
      "constant": true,
      "inputs": [],
      "name": "isExpired",
      "outputs": [
        {
          "name": "",
          "type": "bool"
        }
      ],
      "payable": false,
      "stateMutability": "view",
      "type": "function"
    },
    {
      "constant": false,
      "inputs": [],
      "name": "getGuaranteeAddress",
      "outputs": [
        {
          "name": "",
          "type": "address"
        }
      ],
      "payable": false,
      "stateMutability": "nonpayable",
      "type": "function"
    },
    {
      "constant": false,
      "inputs": [],
      "name": "close",
      "outputs": [],
      "payable": false,
      "stateMutability": "nonpayable",
      "type": "function"
    },
    {
      "constant": false,
      "inputs": [],
      "name": "setRegulator",
      "outputs": [],
      "payable": false,
      "stateMutability": "nonpayable",
      "type": "function"
    },
    {
      "constant": false,
      "inputs": [
        {
          "name": "comment",
          "type": "string"
        }
      ],
      "name": "withdrawal",
      "outputs": [
        {
          "name": "result",
          "type": "bool"
        }
      ],
      "payable": false,
      "stateMutability": "nonpayable",
      "type": "function"
    },
    {
      "constant": true,
      "inputs": [],
      "name": "version",
      "outputs": [
        {
          "name": "",
          "type": "string"
        }
      ],
      "payable": false,
      "stateMutability": "view",
      "type": "function"
    },
    {
      "constant": true,
      "inputs": [],
      "name": "getBeneficiary",
      "outputs": [
        {
          "name": "_beneficiary",
          "type": "address"
        }
      ],
      "payable": false,
      "stateMutability": "view",
      "type": "function"
    },
    {
      "constant": true,
      "inputs": [],
      "name": "getId",
      "outputs": [
        {
          "name": "_contract_id",
          "type": "address"
        }
      ],
      "payable": false,
      "stateMutability": "view",
      "type": "function"
    },
    {
      "constant": true,
      "inputs": [],
      "name": "getBank",
      "outputs": [
        {
          "name": "_bank",
          "type": "address"
        }
      ],
      "payable": false,
      "stateMutability": "view",
      "type": "function"
    },
    {
      "constant": true,
      "inputs": [],
      "name": "getCustomer",
      "outputs": [
        {
          "name": "",
          "type": "address"
        }
      ],
      "payable": false,
      "stateMutability": "view",
      "type": "function"
    },
    {
      "constant": true,
      "inputs": [],
      "name": "getChangeRequestGuarantee",
      "outputs": [
        {
          "name": "",
          "type": "address"
        }
      ],
      "payable": false,
      "stateMutability": "view",
      "type": "function"
    },
    {
      "constant": true,
      "inputs": [],
      "name": "getOwner",
      "outputs": [
        {
          "name": "",
          "type": "address"
        }
      ],
      "payable": false,
      "stateMutability": "view",
      "type": "function"
    },
    {
      "constant": true,
      "inputs": [],
      "name": "owner",
      "outputs": [
        {
          "name": "",
          "type": "address"
        }
      ],
      "payable": false,
      "stateMutability": "view",
      "type": "function"
    },
    {
      "constant": true,
      "inputs": [],
      "name": "getRequestState",
      "outputs": [
        {
          "name": "",
          "type": "uint8"
        }
      ],
      "payable": false,
      "stateMutability": "view",
      "type": "function"
    },
    {
      "constant": false,
      "inputs": [
        {
          "name": "_newOwner",
          "type": "address"
        }
      ],
      "name": "changeOwner",
      "outputs": [],
      "payable": false,
      "stateMutability": "nonpayable",
      "type": "function"
    },
    {
      "constant": true,
      "inputs": [],
      "name": "getEndDate",
      "outputs": [
        {
          "name": "_date",
          "type": "uint256"
        }
      ],
      "payable": false,
      "stateMutability": "view",
      "type": "function"
    },
    {
      "constant": true,
      "inputs": [],
      "name": "isValid",
      "outputs": [
        {
          "name": "",
          "type": "bool"
        }
      ],
      "payable": false,
      "stateMutability": "view",
      "type": "function"
    },
    {
      "constant": true,
      "inputs": [],
      "name": "getProposalIPFSHash",
      "outputs": [
        {
          "name": "",
          "type": "bytes"
        }
      ],
      "payable": false,
      "stateMutability": "view",
      "type": "function"
    },
    {
      "constant": false,
      "inputs": [],
      "name": "terminateGuarantee",
      "outputs": [],
      "payable": false,
      "stateMutability": "nonpayable",
      "type": "function"
    },
    {
      "constant": false,
      "inputs": [],
      "name": "isChangeRequest",
      "outputs": [
        {
          "name": "",
          "type": "bool"
        }
      ],
      "payable": false,
      "stateMutability": "nonpayable",
      "type": "function"
    },
    {
      "constant": false,
      "inputs": [
        {
          "name": "comment",
          "type": "string"
        }
      ],
      "name": "submit",
      "outputs": [
        {
          "name": "result",
          "type": "bool"
        }
      ],
      "payable": false,
      "stateMutability": "nonpayable",
      "type": "function"
    },
    {
      "constant": true,
      "inputs": [],
      "name": "addresses",
      "outputs": [
        {
          "name": "bank",
          "type": "address"
        },
        {
          "name": "beneficiary",
          "type": "address"
        }
      ],
      "payable": false,
      "stateMutability": "view",
      "type": "function"
    },
    {
      "constant": false,
      "inputs": [
        {
          "name": "comment",
          "type": "string"
        },
        {
          "name": "_newState",
          "type": "uint8"
        }
      ],
      "name": "bankStateChange",
      "outputs": [
        {
          "name": "result",
          "type": "bool"
        }
      ],
      "payable": false,
      "stateMutability": "nonpayable",
      "type": "function"
    },
    {
      "constant": false,
      "inputs": [],
      "name": "getRegulator",
      "outputs": [
        {
          "name": "",
          "type": "address"
        }
      ],
      "payable": false,
      "stateMutability": "nonpayable",
      "type": "function"
    },
    {
      "inputs": [
        {
          "name": "_bank",
          "type": "address"
        },
        {
          "name": "_beneficiary",
          "type": "address"
        },
        {
          "name": "_full_name",
          "type": "bytes32"
        },
        {
          "name": "_purpose",
          "type": "bytes32"
        },
        {
          "name": "_amount",
          "type": "uint256"
        },
        {
          "name": "_startDate",
          "type": "uint256"
        },
        {
          "name": "_endDate",
          "type": "uint256"
        },
        {
          "name": "_indexType",
          "type": "uint8"
        },
        {
          "name": "_indexDate",
          "type": "uint256"
        },
        {
          "name": "_proposalIPFSHash",
          "type": "bytes"
        }
      ],
      "payable": false,
      "stateMutability": "nonpayable",
      "type": "constructor"
    },
    {
      "anonymous": false,
      "inputs": [
        {
          "indexed": true,
          "name": "requestId",
          "type": "address"
        },
        {
          "indexed": true,
          "name": "customer",
          "type": "address"
        },
        {
          "indexed": true,
          "name": "bank",
          "type": "address"
        },
        {
          "indexed": false,
          "name": "beneficiary",
          "type": "address"
        },
        {
          "indexed": false,
          "name": "curentstatus",
          "type": "uint8"
        },
        {
          "indexed": false,
          "name": "guarantyPurpose",
          "type": "bytes32"
        },
        {
          "indexed": false,
          "name": "requestAmount",
          "type": "uint256"
        },
        {
          "indexed": false,
          "name": "requestStartDate",
          "type": "uint256"
        },
        {
          "indexed": false,
          "name": "requestEndDate",
          "type": "uint256"
        },
        {
          "indexed": false,
          "name": "requestIndexType",
          "type": "uint8"
        },
        {
          "indexed": false,
          "name": "requestIndexDate",
          "type": "uint256"
        },
        {
          "indexed": false,
          "name": "timestamp",
          "type": "uint256"
        },
        {
          "indexed": false,
          "name": "proposalIPFSHash",
          "type": "bytes"
        }
      ],
      "name": "GuaranteeRequestCreated",
      "type": "event"
    },
    {
      "anonymous": false,
      "inputs": [
        {
          "indexed": true,
          "name": "requestId",
          "type": "address"
        },
        {
          "indexed": true,
          "name": "guarantieId",
          "type": "address"
        },
        {
          "indexed": false,
          "name": "newamount",
          "type": "uint256"
        },
        {
          "indexed": false,
          "name": "newendDate",
          "type": "uint256"
        },
        {
          "indexed": false,
          "name": "curentstatus",
          "type": "uint8"
        },
        {
          "indexed": false,
          "name": "timestamp",
          "type": "uint256"
        }
      ],
      "name": "GuarantieChangeRequested",
      "type": "event"
    },
    {
      "anonymous": false,
      "inputs": [
        {
          "indexed": true,
          "name": "requestId",
          "type": "address"
        },
        {
          "indexed": true,
          "name": "msgSender",
          "type": "address"
        },
        {
          "indexed": false,
          "name": "curentstatus",
          "type": "uint8"
        },
        {
          "indexed": false,
          "name": "commentline",
          "type": "string"
        },
        {
          "indexed": false,
          "name": "timestamp",
          "type": "uint256"
        }
      ],
      "name": "Submitted",
      "type": "event"
    },
    {
      "anonymous": false,
      "inputs": [
        {
          "indexed": true,
          "name": "requestId",
          "type": "address"
        },
        {
          "indexed": true,
          "name": "msgSender",
          "type": "address"
        },
        {
          "indexed": false,
          "name": "curentstatus",
          "type": "uint8"
        },
        {
          "indexed": false,
          "name": "commentline",
          "type": "string"
        },
        {
          "indexed": false,
          "name": "timestamp",
          "type": "uint256"
        }
      ],
      "name": "Withdrawal",
      "type": "event"
    },
    {
      "anonymous": false,
      "inputs": [
        {
          "indexed": true,
          "name": "requestId",
          "type": "address"
        },
        {
          "indexed": true,
          "name": "msgSender",
          "type": "address"
        },
        {
          "indexed": false,
          "name": "curentstatus",
          "type": "uint8"
        },
        {
          "indexed": false,
          "name": "timestamp",
          "type": "uint256"
        }
      ],
      "name": "Termination",
      "type": "event"
    },
    {
      "anonymous": false,
      "inputs": [
        {
          "indexed": true,
          "name": "requestId",
          "type": "address"
        },
        {
          "indexed": true,
          "name": "msgSender",
          "type": "address"
        },
        {
          "indexed": false,
          "name": "curentstatus",
          "type": "uint8"
        },
        {
          "indexed": false,
          "name": "commentline",
          "type": "string"
        },
        {
          "indexed": false,
          "name": "timestamp",
          "type": "uint256"
        }
      ],
      "name": "Rejected",
      "type": "event"
    },
    {
      "anonymous": false,
      "inputs": [
        {
          "indexed": true,
          "name": "requestId",
          "type": "address"
        },
        {
          "indexed": true,
          "name": "msgSender",
          "type": "address"
        },
        {
          "indexed": false,
          "name": "curentstatus",
          "type": "uint8"
        },
        {
          "indexed": false,
          "name": "commentline",
          "type": "string"
        },
        {
          "indexed": false,
          "name": "timestamp",
          "type": "uint256"
        }
      ],
      "name": "BankStateChange",
      "type": "event"
    },
    {
      "anonymous": false,
      "inputs": [
        {
          "indexed": true,
          "name": "requestId",
          "type": "address"
        },
        {
          "indexed": true,
          "name": "msgSender",
          "type": "address"
        },
        {
          "indexed": false,
          "name": "curentstatus",
          "type": "uint8"
        },
        {
          "indexed": false,
          "name": "timestamp",
          "type": "uint256"
        }
      ],
      "name": "Accepted",
      "type": "event"
    },
    {
      "anonymous": false,
      "inputs": [
        {
          "indexed": true,
          "name": "requestId",
          "type": "address"
        },
        {
          "indexed": true,
          "name": "guarantieId",
          "type": "address"
        },
        {
          "indexed": false,
          "name": "curentstatus",
          "type": "uint8"
        },
        {
          "indexed": false,
          "name": "timestamp",
          "type": "uint256"
        }
      ],
      "name": "GuarantieSigned",
      "type": "event"
    },
    {
      "anonymous": false,
      "inputs": [
        {
          "indexed": true,
          "name": "requestId",
          "type": "address"
        },
        {
          "indexed": true,
          "name": "guarantieId",
          "type": "address"
        },
        {
          "indexed": false,
          "name": "curentstatus",
          "type": "uint8"
        },
        {
          "indexed": false,
          "name": "timestamp",
          "type": "uint256"
        }
      ],
      "name": "GuarantieChangeSigned",
      "type": "event"
    }
  ],
  "bytecode": "0x6060604052336000806101000a81548173ffffffffffffffffffffffffffffffffffffffff021916908373ffffffffffffffffffffffffffffffffffffffff1602179055506040805190810160405280600481526020017f312e303000000000000000000000000000000000000000000000000000000000815250600390805190602001906200009192919062000430565b5034156200009e57600080fd5b60405162003bcb38038062003bcb8339810160405280805190602001909190805190602001909190805190602001909190805190602001909190805190602001909190805190602001909190805190602001909190805190602001909190805190602001909190805182019190505089600460000160006101000a81548173ffffffffffffffffffffffffffffffffffffffff021916908373ffffffffffffffffffffffffffffffffffffffff16021790555088600460010160006101000a81548173ffffffffffffffffffffffffffffffffffffffff021916908373ffffffffffffffffffffffffffffffffffffffff16021790555086600781600019169055508560088190555087600681600019169055508460098190555083600a8190555082600b60006101000a81548160ff02191690836002811115620001df57fe5b021790555081600c8190555060008060146101000a81548160ff0219169083600a8111156200020a57fe5b021790555080600d908051906020019062000227929190620004b7565b508973ffffffffffffffffffffffffffffffffffffffff166200025d620003ff6401000000000262001a4f176401000000009004565b73ffffffffffffffffffffffffffffffffffffffff1662000291620004286401000000000262001a1a176401000000009004565b73ffffffffffffffffffffffffffffffffffffffff167f2fa3897c0f43ce3bb4755a179f18097a212d0dd14a0b2448aa4e511517dc973b8c600060149054906101000a900460ff168c8c8c8c8c8c428d604051808b73ffffffffffffffffffffffffffffffffffffffff1673ffffffffffffffffffffffffffffffffffffffff1681526020018a600a8111156200032457fe5b60ff16815260200189600019166000191681526020018881526020018781526020018681526020018560028111156200035957fe5b60ff16815260200184815260200183815260200180602001828103825283818151815260200191508051906020019080838360005b83811015620003ab5780820151818401526020810190506200038e565b50505050905090810190601f168015620003d95780820380516001836020036101000a031916815260200191505b509b50505050505050505050505060405180910390a45050505050505050505062000566565b60008060009054906101000a900473ffffffffffffffffffffffffffffffffffffffff16905090565b600030905090565b828054600181600116156101000203166002900490600052602060002090601f016020900481019282601f106200047357805160ff1916838001178555620004a4565b82800160010185558215620004a4579182015b82811115620004a357825182559160200191906001019062000486565b5b509050620004b391906200053e565b5090565b828054600181600116156101000203166002900490600052602060002090601f016020900481019282601f10620004fa57805160ff19168380011785556200052b565b828001600101855582156200052b579182015b828111156200052a5782518255916020019190600101906200050d565b5b5090506200053a91906200053e565b5090565b6200056391905b808211156200055f57600081600090555060010162000545565b5090565b90565b61365580620005766000396000f30060606040526004361062000193576000357c0100000000000000000000000000000000000000000000000000000000900463ffffffff1680631c32e7af1462000198578063201c5cc1146200032d5780632259515b14620003a55780632852b71c14620004455780632beba68b14620004755780632f13b60c14620004a45780633f40d18f14620004d457806343d726d6146200052c5780634a0b20aa14620005445780634a51c31c146200055c57806354fd4d5014620005d4578063565a2e2c14620006685780635d1ca63114620006c057806360d704db1462000718578063650d993b14620007705780636f00817e14620007c8578063893d20e814620008205780638da5cb5b1462000878578063a39152f214620008d0578063a6f9dae1146200090b578063b13564881462000947578063bb5d40eb1462000973578063c3287ea714620009a3578063c700c70d1462000a37578063cded37371462000a4f578063d99a8dc31462000a7f578063da0321cd1462000af7578063f40bd94a1462000b82578063f7e317f41462000c06575b600080fd5b3415620001a457600080fd5b620001ae62000c5e565b604051808f73ffffffffffffffffffffffffffffffffffffffff1673ffffffffffffffffffffffffffffffffffffffff1681526020018e73ffffffffffffffffffffffffffffffffffffffff1673ffffffffffffffffffffffffffffffffffffffff1681526020018d73ffffffffffffffffffffffffffffffffffffffff1673ffffffffffffffffffffffffffffffffffffffff1681526020018c73ffffffffffffffffffffffffffffffffffffffff1673ffffffffffffffffffffffffffffffffffffffff1681526020018b600019166000191681526020018a60001916600019168152602001898152602001888152602001878152602001866002811115620002b557fe5b60ff16815260200185815260200184600a811115620002d057fe5b60ff168152602001831515151581526020018273ffffffffffffffffffffffffffffffffffffffff1673ffffffffffffffffffffffffffffffffffffffff1681526020019e50505050505050505050505050505060405180910390f35b34156200033957600080fd5b6200038b600480803590602001908201803590602001908080601f0160208091040260200160405190810160405280939291908181526020018383808284378201915050505050509190505062000d0d565b604051808215151515815260200191505060405180910390f35b3415620003b157600080fd5b62000403600480803590602001908201803590602001908080601f0160208091040260200160405190810160405280939291908181526020018383808284378201915050505050509190505062000e79565b604051808273ffffffffffffffffffffffffffffffffffffffff1673ffffffffffffffffffffffffffffffffffffffff16815260200191505060405180910390f35b34156200045157600080fd5b6200045b620013b2565b604051808215151515815260200191505060405180910390f35b34156200048157600080fd5b620004a2600480803590602001909190803590602001909190505062001596565b005b3415620004b057600080fd5b620004ba62001685565b604051808215151515815260200191505060405180910390f35b3415620004e057600080fd5b620004ea62001698565b604051808273ffffffffffffffffffffffffffffffffffffffff1673ffffffffffffffffffffffffffffffffffffffff16815260200191505060405180910390f35b34156200053857600080fd5b62000542620016c2565b005b34156200055057600080fd5b6200055a62001758565b005b34156200056857600080fd5b620005ba600480803590602001908201803590602001908080601f016020809104026020016040519081016040528093929190818152602001838380828437820191505050505050919050506200179b565b604051808215151515815260200191505060405180910390f35b3415620005e057600080fd5b620005ea6200194b565b6040518080602001828103825283818151815260200191508051906020019080838360005b838110156200062c5780820151818401526020810190506200060f565b50505050905090810190601f1680156200065a5780820380516001836020036101000a031916815260200191505b509250505060405180910390f35b34156200067457600080fd5b6200067e620019ed565b604051808273ffffffffffffffffffffffffffffffffffffffff1673ffffffffffffffffffffffffffffffffffffffff16815260200191505060405180910390f35b3415620006cc57600080fd5b620006d662001a1a565b604051808273ffffffffffffffffffffffffffffffffffffffff1673ffffffffffffffffffffffffffffffffffffffff16815260200191505060405180910390f35b34156200072457600080fd5b6200072e62001a22565b604051808273ffffffffffffffffffffffffffffffffffffffff1673ffffffffffffffffffffffffffffffffffffffff16815260200191505060405180910390f35b34156200077c57600080fd5b6200078662001a4f565b604051808273ffffffffffffffffffffffffffffffffffffffff1673ffffffffffffffffffffffffffffffffffffffff16815260200191505060405180910390f35b3415620007d457600080fd5b620007de62001a78565b604051808273ffffffffffffffffffffffffffffffffffffffff1673ffffffffffffffffffffffffffffffffffffffff16815260200191505060405180910390f35b34156200082c57600080fd5b6200083662001a80565b604051808273ffffffffffffffffffffffffffffffffffffffff1673ffffffffffffffffffffffffffffffffffffffff16815260200191505060405180910390f35b34156200088457600080fd5b6200088e62001aa9565b604051808273ffffffffffffffffffffffffffffffffffffffff1673ffffffffffffffffffffffffffffffffffffffff16815260200191505060405180910390f35b3415620008dc57600080fd5b620008e662001ace565b6040518082600a811115620008f757fe5b60ff16815260200191505060405180910390f35b34156200091757600080fd5b62000945600480803573ffffffffffffffffffffffffffffffffffffffff1690602001909190505062001ae4565b005b34156200095357600080fd5b6200095d62001ba8565b6040518082815260200191505060405180910390f35b34156200097f57600080fd5b6200098962001bb2565b604051808215151515815260200191505060405180910390f35b3415620009af57600080fd5b620009b962001c35565b6040518080602001828103825283818151815260200191508051906020019080838360005b83811015620009fb578082015181840152602081019050620009de565b50505050905090810190601f16801562000a295780820380516001836020036101000a031916815260200191505b509250505060405180910390f35b341562000a4357600080fd5b62000a4d62001ce3565b005b341562000a5b57600080fd5b62000a6562001dd5565b604051808215151515815260200191505060405180910390f35b341562000a8b57600080fd5b62000add600480803590602001908201803590602001908080601f0160208091040260200160405190810160405280939291908181526020018383808284378201915050505050509190505062001e15565b604051808215151515815260200191505060405180910390f35b341562000b0357600080fd5b62000b0d62001fc4565b604051808373ffffffffffffffffffffffffffffffffffffffff1673ffffffffffffffffffffffffffffffffffffffff1681526020018273ffffffffffffffffffffffffffffffffffffffff1673ffffffffffffffffffffffffffffffffffffffff1681526020019250505060405180910390f35b341562000b8e57600080fd5b62000bec600480803590602001908201803590602001908080601f0160208091040260200160405190810160405280939291908181526020018383808284378201915050505050509190803560ff1690602001909190505062002016565b604051808215151515815260200191505060405180910390f35b341562000c1257600080fd5b62000c1c62002256565b604051808273ffffffffffffffffffffffffffffffffffffffff1673ffffffffffffffffffffffffffffffffffffffff16815260200191505060405180910390f35b60008060008060008060008060008060008060008062000c7d62001a1a565b9d5062000c8962001a4f565b9c5062000c9562001a22565b9b5062000ca1620019ed565b9a506007549850600854975060065499506009549650600a549550600b60009054906101000a900460ff169450600c549350600060149054906101000a900460ff16925062000cef62001dd5565b915062000cfb62001a78565b9050909192939495969798999a9b9c9d565b60006006600a81111562000d1d57fe5b600060149054906101000a900460ff16600a81111562000d3957fe5b1415151562000d4757600080fd5b6008600060146101000a81548160ff0219169083600a81111562000d6757fe5b02179055503373ffffffffffffffffffffffffffffffffffffffff1662000d8d62001a1a565b73ffffffffffffffffffffffffffffffffffffffff167feb463c1ffd4e2e84feaf7746bb60dd6b9471dbbf9edd2b020a53869f796cd78d600060149054906101000a900460ff1685426040518084600a81111562000de757fe5b60ff16815260200180602001838152602001828103825284818151815260200191508051906020019080838360005b8381101562000e3357808201518184015260208101905062000e16565b50505050905090810190601f16801562000e615780820380516001836020036101000a031916815260200191505b5094505050505060405180910390a360019050919050565b600080600160009054906101000a900473ffffffffffffffffffffffffffffffffffffffff1673ffffffffffffffffffffffffffffffffffffffff163373ffffffffffffffffffffffffffffffffffffffff1614151562000ed957600080fd5b6006600a81111562000ee757fe5b62000ef162001ace565b600a81111562000efd57fe5b14801562000f12575062000f118362002280565b5b801562000f53575062000f2462002256565b73ffffffffffffffffffffffffffffffffffffffff163373ffffffffffffffffffffffffffffffffffffffff16145b151562000f5f57600080fd5b62000f6962001a1a565b62000f7362002256565b8462000f7e620022a0565b808473ffffffffffffffffffffffffffffffffffffffff1673ffffffffffffffffffffffffffffffffffffffff1681526020018373ffffffffffffffffffffffffffffffffffffffff1673ffffffffffffffffffffffffffffffffffffffff16815260200180602001828103825283818151815260200191508051906020019080838360005b838110156200102157808201518184015260208101905062001004565b50505050905090810190601f1680156200104f5780820380516001836020036101000a031916815260200191505b50945050505050604051809103906000f08015156200106d57600080fd5b90508073ffffffffffffffffffffffffffffffffffffffff16635d1ca6316000604051602001526040518163ffffffff167c0100000000000000000000000000000000000000000000000000000000028152600401602060405180830381600087803b1515620010dc57600080fd5b6102c65a03f11515620010ee57600080fd5b50505060405180519050600260006101000a81548173ffffffffffffffffffffffffffffffffffffffff021916908373ffffffffffffffffffffffffffffffffffffffff1602179055506200114262001dd5565b156200126a578073ffffffffffffffffffffffffffffffffffffffff16635d1ca6316000604051602001526040518163ffffffff167c0100000000000000000000000000000000000000000000000000000000028152600401602060405180830381600087803b1515620011b557600080fd5b6102c65a03f11515620011c757600080fd5b5050506040518051905073ffffffffffffffffffffffffffffffffffffffff16620011f162001a1a565b73ffffffffffffffffffffffffffffffffffffffff167f5cf2a7101a7acad9a26aabd8c2b95e616fa3c5c8e93e3f30419151a370f4ef34600060149054906101000a900460ff16426040518083600a8111156200124a57fe5b60ff1681526020018281526020019250505060405180910390a362001387565b8073ffffffffffffffffffffffffffffffffffffffff16635d1ca6316000604051602001526040518163ffffffff167c0100000000000000000000000000000000000000000000000000000000028152600401602060405180830381600087803b1515620012d757600080fd5b6102c65a03f11515620012e957600080fd5b5050506040518051905073ffffffffffffffffffffffffffffffffffffffff166200131362001a1a565b73ffffffffffffffffffffffffffffffffffffffff167f9f3a4dc4a2920969299d37a1a55dc00ce978fe5e0ac8b2a4d87fbe66fd4d283b600060149054906101000a900460ff16426040518083600a8111156200136c57fe5b60ff1681526020018281526020019250505060405180910390a35b600260009054906101000a900473ffffffffffffffffffffffffffffffffffffffff16915050919050565b6000600160009054906101000a900473ffffffffffffffffffffffffffffffffffffffff1673ffffffffffffffffffffffffffffffffffffffff163373ffffffffffffffffffffffffffffffffffffffff161415156200141157600080fd5b6001600a8111156200141f57fe5b600060149054906101000a900460ff16600a8111156200143b57fe5b14806200146f57506002600a8111156200145157fe5b600060149054906101000a900460ff16600a8111156200146d57fe5b145b8015620014ca5750600073ffffffffffffffffffffffffffffffffffffffff16600260009054906101000a900473ffffffffffffffffffffffffffffffffffffffff1673ffffffffffffffffffffffffffffffffffffffff16145b1515620014d657600080fd5b6006600060146101000a81548160ff0219169083600a811115620014f657fe5b02179055503373ffffffffffffffffffffffffffffffffffffffff166200151c62001a1a565b73ffffffffffffffffffffffffffffffffffffffff167f89e5f8cd748cff430d9087f4e0e0ef20acd32d0e6686df96c89d726e35e68ab5600060149054906101000a900460ff16426040518083600a8111156200157557fe5b60ff1681526020018281526020019250505060405180910390a36001905090565b6007600060146101000a81548160ff0219169083600a811115620015b657fe5b0217905550600260009054906101000a900473ffffffffffffffffffffffffffffffffffffffff1673ffffffffffffffffffffffffffffffffffffffff16620015fe62001a1a565b73ffffffffffffffffffffffffffffffffffffffff167fb42cc91db936a84b66eef34e5d2852b519032c7921629568c4589c97396a5ad28484600060149054906101000a900460ff16426040518085815260200184815260200183600a8111156200166557fe5b60ff16815260200182815260200194505050505060405180910390a35050565b6000426200169262001ba8565b10905090565b6000600260009054906101000a900473ffffffffffffffffffffffffffffffffffffffff16905090565b6000809054906101000a900473ffffffffffffffffffffffffffffffffffffffff1673ffffffffffffffffffffffffffffffffffffffff163373ffffffffffffffffffffffffffffffffffffffff161415156200171e57600080fd5b6000809054906101000a900473ffffffffffffffffffffffffffffffffffffffff1673ffffffffffffffffffffffffffffffffffffffff16ff5b33600160006101000a81548173ffffffffffffffffffffffffffffffffffffffff021916908373ffffffffffffffffffffffffffffffffffffffff160217905550565b6000620017a762001a4f565b73ffffffffffffffffffffffffffffffffffffffff163373ffffffffffffffffffffffffffffffffffffffff16141515620017e157600080fd5b6006600a811115620017ef57fe5b600060149054906101000a900460ff16600a8111156200180b57fe5b141515156200181957600080fd5b6005600060146101000a81548160ff0219169083600a8111156200183957fe5b02179055503373ffffffffffffffffffffffffffffffffffffffff166200185f62001a1a565b73ffffffffffffffffffffffffffffffffffffffff167fdc36f94f1c16d61fe684e365e0c2a72b23aebb7adedf5aaa22fab76156a7efe7600060149054906101000a900460ff1685426040518084600a811115620018b957fe5b60ff16815260200180602001838152602001828103825284818151815260200191508051906020019080838360005b8381101562001905578082015181840152602081019050620018e8565b50505050905090810190601f168015620019335780820380516001836020036101000a031916815260200191505b5094505050505060405180910390a360019050919050565b60038054600181600116156101000203166002900480601f016020809104026020016040519081016040528092919081815260200182805460018160011615610100020316600290048015620019e55780601f10620019b957610100808354040283529160200191620019e5565b820191906000526020600020905b815481529060010190602001808311620019c757829003601f168201915b505050505081565b6000600460010160009054906101000a900473ffffffffffffffffffffffffffffffffffffffff16905090565b600030905090565b6000600460000160009054906101000a900473ffffffffffffffffffffffffffffffffffffffff16905090565b60008060009054906101000a900473ffffffffffffffffffffffffffffffffffffffff16905090565b600080905090565b60008060009054906101000a900473ffffffffffffffffffffffffffffffffffffffff16905090565b6000809054906101000a900473ffffffffffffffffffffffffffffffffffffffff1681565b60008060149054906101000a900460ff16905090565b6000809054906101000a900473ffffffffffffffffffffffffffffffffffffffff1673ffffffffffffffffffffffffffffffffffffffff163373ffffffffffffffffffffffffffffffffffffffff1614151562001b4057600080fd5b60008173ffffffffffffffffffffffffffffffffffffffff16141562001b6557600080fd5b806000806101000a81548173ffffffffffffffffffffffffffffffffffffffff021916908373ffffffffffffffffffffffffffffffffffffffff16021790555050565b6000600a54905090565b60008073ffffffffffffffffffffffffffffffffffffffff1662001bd562001a22565b73ffffffffffffffffffffffffffffffffffffffff161415801562001c305750600073ffffffffffffffffffffffffffffffffffffffff1662001c17620019ed565b73ffffffffffffffffffffffffffffffffffffffff1614155b905090565b62001c3f620022b1565b600d8054600181600116156101000203166002900480601f01602080910402602001604051908101604052809291908181526020018280546001816001161561010002031660029004801562001cd95780601f1062001cad5761010080835404028352916020019162001cd9565b820191906000526020600020905b81548152906001019060200180831162001cbb57829003601f168201915b5050505050905090565b6006600a81111562001cf157fe5b600060149054906101000a900460ff16600a81111562001d0d57fe5b14151562001d1a57600080fd5b6009600060146101000a81548160ff0219169083600a81111562001d3a57fe5b02179055503373ffffffffffffffffffffffffffffffffffffffff1662001d6062001a1a565b73ffffffffffffffffffffffffffffffffffffffff167fb045224df2b3987361a530219dd4444888d47a8e07af71c364c99fe7468f176f600060149054906101000a900460ff16426040518083600a81111562001db957fe5b60ff1681526020018281526020019250505060405180910390a3565b60008073ffffffffffffffffffffffffffffffffffffffff1662001df862001a78565b73ffffffffffffffffffffffffffffffffffffffff161415905090565b600062001e2162001a4f565b73ffffffffffffffffffffffffffffffffffffffff163373ffffffffffffffffffffffffffffffffffffffff1614151562001e5b57600080fd5b6000600a81111562001e6957fe5b600060149054906101000a900460ff16600a81111562001e8557fe5b14151562001e9257600080fd5b6001600060146101000a81548160ff0219169083600a81111562001eb257fe5b02179055503373ffffffffffffffffffffffffffffffffffffffff1662001ed862001a1a565b73ffffffffffffffffffffffffffffffffffffffff167fe10024035668761375cfcfe9cbd74261a7c93ffafc8059f85ba7477baf874921600060149054906101000a900460ff1685426040518084600a81111562001f3257fe5b60ff16815260200180602001838152602001828103825284818151815260200191508051906020019080838360005b8381101562001f7e57808201518184015260208101905062001f61565b50505050905090810190601f16801562001fac5780820380516001836020036101000a031916815260200191505b5094505050505060405180910390a360019050919050565b60048060000160009054906101000a900473ffffffffffffffffffffffffffffffffffffffff16908060010160009054906101000a900473ffffffffffffffffffffffffffffffffffffffff16905082565b60006200202262001a22565b73ffffffffffffffffffffffffffffffffffffffff163373ffffffffffffffffffffffffffffffffffffffff161415156200205c57600080fd5b6001600a8111156200206a57fe5b600060149054906101000a900460ff16600a8111156200208657fe5b1480620020ba57506002600a8111156200209c57fe5b600060149054906101000a900460ff16600a811115620020b857fe5b145b80156200212757506002600a811115620020d057fe5b82600a811115620020dd57fe5b14806200210257506003600a811115620020f357fe5b82600a8111156200210057fe5b145b806200212657506004600a8111156200211757fe5b82600a8111156200212457fe5b145b5b15156200213357600080fd5b81600060146101000a81548160ff0219169083600a8111156200215257fe5b02179055503373ffffffffffffffffffffffffffffffffffffffff166200217862001a1a565b73ffffffffffffffffffffffffffffffffffffffff167f508c5c654e715d2dda84dde20b40b29a2b462944231ab692f10b091a38541a8d8486426040518084600a811115620021c357fe5b60ff16815260200180602001838152602001828103825284818151815260200191508051906020019080838360005b838110156200220f578082015181840152602081019050620021f2565b50505050905090810190601f1680156200223d5780820380516001836020036101000a031916815260200191505b5094505050505060405180910390a36001905092915050565b6000600160009054906101000a900473ffffffffffffffffffffffffffffffffffffffff16905090565b600080825111156200229657600190506200229b565b600090505b919050565b60405161136480620022c683390190565b60206040519081016040528060008152509056006060604052336000806101000a81548173ffffffffffffffffffffffffffffffffffffffff021916908373ffffffffffffffffffffffffffffffffffffffff16021790555034156200005057600080fd5b60405162001364380380620013648339810160405280805190602001909190805190602001909190805182019190505082600160006101000a81548173ffffffffffffffffffffffffffffffffffffffff021916908373ffffffffffffffffffffffffffffffffffffffff16021790555081600260006101000a81548173ffffffffffffffffffffffffffffffffffffffff021916908373ffffffffffffffffffffffffffffffffffffffff16021790555080600390805190602001906200011a929190620002b2565b506001600260146101000a81548160ff021916908360048111156200013b57fe5b02179055507feeb6ffd7090cc72ad3fc8b9c2879f7b97d4f9eb9b2943c50a4cbab3931db090983303384600260149054906101000a900460ff1642604051808773ffffffffffffffffffffffffffffffffffffffff1673ffffffffffffffffffffffffffffffffffffffff1681526020018673ffffffffffffffffffffffffffffffffffffffff1673ffffffffffffffffffffffffffffffffffffffff1681526020018573ffffffffffffffffffffffffffffffffffffffff1673ffffffffffffffffffffffffffffffffffffffff168152602001806020018460048111156200022157fe5b60ff168152602001838152602001828103825285818151815260200191508051906020019080838360005b83811015620002695780820151818401526020810190506200024c565b50505050905090810190601f168015620002975780820380516001836020036101000a031916815260200191505b5097505050505050505060405180910390a150505062000361565b828054600181600116156101000203166002900490600052602060002090601f016020900481019282601f10620002f557805160ff191683800117855562000326565b8280016001018555821562000326579182015b828111156200032557825182559160200191906001019062000308565b5b50905062000335919062000339565b5090565b6200035e91905b808211156200035a57600081600090555060010162000340565b5090565b90565b610ff380620003716000396000f3006060604052600436106100d0576000357c0100000000000000000000000000000000000000000000000000000000900463ffffffff1680631865c57d146100d55780632f13b60c1461010c57806338e537b31461013957806343d726d6146102be578063488523bc146102d3578063565a2e2c146103615780635d1ca631146103b657806388a22f7a1461040b578063893d20e8146104605780638da5cb5b146104b5578063a6f9dae11461050a578063b135648814610543578063bea14fc11461056c578063c700c70d14610598575b600080fd5b34156100e057600080fd5b6100e86105ad565b604051808260048111156100f857fe5b60ff16815260200191505060405180910390f35b341561011757600080fd5b61011f61060a565b604051808215151515815260200191505060405180910390f35b341561014457600080fd5b61014c61061b565b604051808e73ffffffffffffffffffffffffffffffffffffffff1673ffffffffffffffffffffffffffffffffffffffff1681526020018d73ffffffffffffffffffffffffffffffffffffffff1673ffffffffffffffffffffffffffffffffffffffff1681526020018c73ffffffffffffffffffffffffffffffffffffffff1673ffffffffffffffffffffffffffffffffffffffff1681526020018b73ffffffffffffffffffffffffffffffffffffffff1673ffffffffffffffffffffffffffffffffffffffff1681526020018a73ffffffffffffffffffffffffffffffffffffffff1673ffffffffffffffffffffffffffffffffffffffff1681526020018960001916600019168152602001886000191660001916815260200187815260200186815260200185815260200184600281111561028457fe5b60ff16815260200183815260200182600481111561029e57fe5b60ff1681526020019d505050505050505050505050505060405180910390f35b34156102c957600080fd5b6102d1610964565b005b34156102de57600080fd5b6102e66109f9565b6040518080602001828103825283818151815260200191508051906020019080838360005b8381101561032657808201518184015260208101905061030b565b50505050905090810190601f1680156103535780820380516001836020036101000a031916815260200191505b509250505060405180910390f35b341561036c57600080fd5b610374610aa1565b604051808273ffffffffffffffffffffffffffffffffffffffff1673ffffffffffffffffffffffffffffffffffffffff16815260200191505060405180910390f35b34156103c157600080fd5b6103c9610b56565b604051808273ffffffffffffffffffffffffffffffffffffffff1673ffffffffffffffffffffffffffffffffffffffff16815260200191505060405180910390f35b341561041657600080fd5b61041e610b5e565b604051808273ffffffffffffffffffffffffffffffffffffffff1673ffffffffffffffffffffffffffffffffffffffff16815260200191505060405180910390f35b341561046b57600080fd5b610473610b88565b604051808273ffffffffffffffffffffffffffffffffffffffff1673ffffffffffffffffffffffffffffffffffffffff16815260200191505060405180910390f35b34156104c057600080fd5b6104c8610bb1565b604051808273ffffffffffffffffffffffffffffffffffffffff1673ffffffffffffffffffffffffffffffffffffffff16815260200191505060405180910390f35b341561051557600080fd5b610541600480803573ffffffffffffffffffffffffffffffffffffffff16906020019091905050610bd6565b005b341561054e57600080fd5b610556610c98565b6040518082815260200191505060405180910390f35b341561057757600080fd5b6105966004808035906020019091908035906020019091905050610d4d565b005b34156105a357600080fd5b6105ab610e6c565b005b6000600160048111156105bc57fe5b600260149054906101000a900460ff1660048111156105d757fe5b14156105f4576105e561060a565b156105f35760029050610607565b5b600260149054906101000a900460ff1690505b90565b600042610615610c98565b10905090565b600080600080600080600080600080600080600080600160009054906101000a900473ffffffffffffffffffffffffffffffffffffffff1690508073ffffffffffffffffffffffffffffffffffffffff16631c32e7af60006040516101c001526040518163ffffffff167c01000000000000000000000000000000000000000000000000000000000281526004016101c060405180830381600087803b15156106c357600080fd5b6102c65a03f115156106d457600080fd5b50505060405180519060200180519060200180519060200180519060200180519060200180519060200180519060200180519060200180519060200180519060200180519060200180519060200180519060200180519050909192939495969798999a9b9c50909192939495969798999a9b50909192939495969798999a509091929394959697989950909150905050809950819a50829b50839c50849d50859e50869f5050505050505050600160009054906101000a900473ffffffffffffffffffffffffffffffffffffffff169c506107ad610b56565b9d508073ffffffffffffffffffffffffffffffffffffffff1663650d993b6000604051602001526040518163ffffffff167c0100000000000000000000000000000000000000000000000000000000028152600401602060405180830381600087803b151561081b57600080fd5b6102c65a03f1151561082c57600080fd5b505050604051805190509b508073ffffffffffffffffffffffffffffffffffffffff166360d704db6000604051602001526040518163ffffffff167c0100000000000000000000000000000000000000000000000000000000028152600401602060405180830381600087803b15156108a457600080fd5b6102c65a03f115156108b557600080fd5b505050604051805190509a508073ffffffffffffffffffffffffffffffffffffffff1663565a2e2c6000604051602001526040518163ffffffff167c0100000000000000000000000000000000000000000000000000000000028152600401602060405180830381600087803b151561092d57600080fd5b6102c65a03f1151561093e57600080fd5b5050506040518051905099506109526105ad565b915050909192939495969798999a9b9c565b6000809054906101000a900473ffffffffffffffffffffffffffffffffffffffff1673ffffffffffffffffffffffffffffffffffffffff163373ffffffffffffffffffffffffffffffffffffffff161415156109bf57600080fd5b6000809054906101000a900473ffffffffffffffffffffffffffffffffffffffff1673ffffffffffffffffffffffffffffffffffffffff16ff5b610a01610fb3565b60038054600181600116156101000203166002900480601f016020809104026020016040519081016040528092919081815260200182805460018160011615610100020316600290048015610a975780601f10610a6c57610100808354040283529160200191610a97565b820191906000526020600020905b815481529060010190602001808311610a7a57829003601f168201915b5050505050905090565b600080600160009054906101000a900473ffffffffffffffffffffffffffffffffffffffff1690508073ffffffffffffffffffffffffffffffffffffffff1663565a2e2c6000604051602001526040518163ffffffff167c0100000000000000000000000000000000000000000000000000000000028152600401602060405180830381600087803b1515610b3557600080fd5b6102c65a03f11515610b4657600080fd5b5050506040518051905091505090565b600030905090565b6000600160009054906101000a900473ffffffffffffffffffffffffffffffffffffffff16905090565b60008060009054906101000a900473ffffffffffffffffffffffffffffffffffffffff16905090565b6000809054906101000a900473ffffffffffffffffffffffffffffffffffffffff1681565b6000809054906101000a900473ffffffffffffffffffffffffffffffffffffffff1673ffffffffffffffffffffffffffffffffffffffff163373ffffffffffffffffffffffffffffffffffffffff16141515610c3157600080fd5b60008173ffffffffffffffffffffffffffffffffffffffff161415610c5557600080fd5b806000806101000a81548173ffffffffffffffffffffffffffffffffffffffff021916908373ffffffffffffffffffffffffffffffffffffffff16021790555050565b600080600160009054906101000a900473ffffffffffffffffffffffffffffffffffffffff1690508073ffffffffffffffffffffffffffffffffffffffff1663b13564886000604051602001526040518163ffffffff167c0100000000000000000000000000000000000000000000000000000000028152600401602060405180830381600087803b1515610d2c57600080fd5b6102c65a03f11515610d3d57600080fd5b5050506040518051905091505090565b7f4d3c9d0e5ee7cb52dbdaaf1fe7b04b94f5d6406283723738ce2a85d0d536998a610d76610b56565b30338585610d826105ad565b42604051808873ffffffffffffffffffffffffffffffffffffffff1673ffffffffffffffffffffffffffffffffffffffff1681526020018773ffffffffffffffffffffffffffffffffffffffff1673ffffffffffffffffffffffffffffffffffffffff1681526020018673ffffffffffffffffffffffffffffffffffffffff1673ffffffffffffffffffffffffffffffffffffffff16815260200185815260200184815260200180602001846004811115610e3957fe5b60ff1681526020018381526020018281038252600081526020016020019850505050505050505060405180910390a15050565b6003600260146101000a81548160ff02191690836004811115610e8b57fe5b02179055507f6518c1da158fee6a2676b0f54a238f60b8607b47ed05a8ac7108a7a866c25fdd600160009054906101000a900473ffffffffffffffffffffffffffffffffffffffff16610edc610b56565b33600260149054906101000a900460ff1642604051808673ffffffffffffffffffffffffffffffffffffffff1673ffffffffffffffffffffffffffffffffffffffff1681526020018573ffffffffffffffffffffffffffffffffffffffff1673ffffffffffffffffffffffffffffffffffffffff1681526020018473ffffffffffffffffffffffffffffffffffffffff1673ffffffffffffffffffffffffffffffffffffffff168152602001836004811115610f9457fe5b60ff1681526020018281526020019550505050505060405180910390a1565b6020604051908101604052806000815250905600a165627a7a7230582044ba0933b0cdc678ccedc329a456c66694e456e694e4759ae63fb984535ab6950029a165627a7a723058202bdf051f2a16d41aeba7da15b783f81ed58c1e88f165cca1a2ff8041907f85180029",
  "source": "pragma solidity ^0.4.13;\n\nimport \"./GuaranteeConst.sol\";\nimport \"./GuaranteeRequestExtender.sol\";\nimport \"./GuaranteeExtender.sol\";\nimport \"./DigitalGuaranteeBNHP.sol\";\n\ncontract GuaranteeRequest is GuaranteeRequestExtender{\n    string public version = \"1.00\";\n\n    //holds the addresses of the participating parties for demo reasons\n    struct Addresses {\n    address bank;\n//    address customer;\n    address beneficiary;\n    }\n\n    Addresses public addresses;\n\n    bytes32  full_name;\n\n    bytes32  purpose;\n    uint  amount;\n    uint  startDate;\n    uint  endDate;\n\n    IndexType  indexType;\n    uint  indexDate;\n\n    bytes  theproposalIPFSHash;\n//    bytes  guaranteeIPFSHash;\n\n//    RequestState   status;\n\n//    int  stepNumber;\n\n\n\n//    event Comment(address indexed requestId,int  numberOfStep,RequestState requestState,string commentline,uint timestamp) ;\n\n\n    event GuaranteeRequestCreated (address indexed requestId,address indexed customer ,address indexed bank ,address  beneficiary ,RequestState   curentstatus,bytes32 guarantyPurpose,\n    uint requestAmount, uint requestStartDate,uint requestEndDate,IndexType requestIndexType,uint requestIndexDate,uint timestamp,bytes  proposalIPFSHash);\n\n\n\n    function GuaranteeRequest(address _bank ,address _beneficiary ,bytes32 _full_name ,bytes32 _purpose,\n    uint _amount, uint _startDate,uint _endDate,IndexType _indexType,uint _indexDate,bytes  _proposalIPFSHash)\n    {\n        addresses.bank=_bank;\n        addresses.beneficiary=_beneficiary;\n        purpose=_purpose;\n        amount=_amount;\n        full_name=_full_name;\n        startDate=_startDate;\n        endDate=_endDate;\n        indexType= _indexType;\n        indexDate= _indexDate;\n        status=RequestState.created;\n\n        theproposalIPFSHash=  _proposalIPFSHash ;\n        GuaranteeRequestCreated(getId(),getCustomer() , _bank,_beneficiary ,   status, _purpose,  _amount,  _startDate, _endDate, _indexType, _indexDate , now ,_proposalIPFSHash);\n\n    }\n\n    function getId() constant public returns (address _contract_id)\n    {\n        return this;\n    }\n\n\n\n    function getBank() constant public returns (address _bank)\n    {\n        return addresses.bank;\n    }\n    function getBeneficiary() constant public returns (address _beneficiary)\n    {\n        return addresses.beneficiary;\n    }\n\n    function getEndDate() constant public returns (uint _date)\n    {\n        return endDate;\n    }\n\n\n\n    function getGuaranteeRequestData() constant public returns (address _contract_id,address _customer,address _bank, address _beneficiary,\n    bytes32 _full_name,bytes32 _purpose,uint _amount,uint _startDate,uint _endDate,IndexType _indexType,uint _indexDate,RequestState _status ,bool _isChangeGuarantee,address _changedGuarantee)\n    {\n\n        _contract_id=getId();\n        _customer=getCustomer();\n        _bank=getBank();\n        _beneficiary=getBeneficiary();\n        _purpose=purpose;\n        _amount=amount;\n        _full_name=full_name;\n        _startDate=startDate;\n        _endDate=endDate;\n        _indexType=indexType;\n        _indexDate=indexDate;\n        _status=status;\n        _isChangeGuarantee=isChangeRequest();\n        _changedGuarantee=getChangeRequestGuarantee();\n\n\n    }\n    function getProposalIPFSHash() public constant returns (bytes )\n    {\n        return theproposalIPFSHash;\n    }\n\n//    function setProposalIPFSHash(bytes _proposalIPFSHash) onlyCustomer public  returns (bool result)\n//    {\n//        require(status==RequestState.created);\n//        proposalIPFSHash=_proposalIPFSHash;\n//        return true;\n//    }\n\n\n\n\n//    event Submitted(address indexed requestId,address indexed msgSender,RequestState   curentstatus,string commentline ,uint timestamp);\n//\n//    //submit function to initiat the request\n//    function submit(string comment) onlyCustomer public returns (bool result)\n//\n//    {\n//        require(status==RequestState.created);\n////        stepNumber++;\n//        status=RequestState.waitingtobank;\n//\n//        Submitted(getId(),msg.sender,   status,comment, now);\n//        //        log(\"submitted\",getId()+\"->\"+comment);\n////        Comment( getId(),stepNumber, status,comment);\n//\n//        return true;\n//    }\n//\n//\n//    event Withdrawal(address indexed requestId,address indexed msgSender,RequestState   curentstatus,string commentline,uint timestamp);\n//    //customer withdrawal request\n//    function withdrawal(string comment) onlyCustomer public returns (bool result)\n//    {\n//        require(status!=RequestState.accepted);\n////        stepNumber++;\n//       status=RequestState.withdrawed;\n//        Withdrawal(getId(),msg.sender,   status,comment,now);\n//        //        log(\"withdrawed\",getId()+\"->\"+comment);\n////        Comment(getId(), stepNumber, status,comment);\n//\n//        return true;\n//    }\n//\n//    event Termination(address indexed  requestId,address indexed msgSender,RequestState   curentstatus,uint timestamp);\n//    //bank reject request\n//    function terminateGuarantee()  public\n//    {\n//        require(status==RequestState.accepted );\n////        stepNumber++;\n//\n//        status=RequestState.terminationRequest;\n//        Termination(getId(),msg.sender,   status,now);\n////        Comment( getId(),stepNumber, status,_comment);\n//        //         log(\"rejected\",getId()+\"->\"+comment);\n//\n//    }\n//\n//    event Rejected(address indexed requestId,address indexed msgSender,   RequestState   curentstatus,string commentline,uint timestamp);\n//    //bank reject request\n//    function reject(string comment)  public returns (bool result)\n//    {\n//        require(status!=RequestState.accepted);\n//\n//        status=RequestState.rejected;\n//        Rejected(getId(),msg.sender,   status,comment,now);\n////        Comment( getId(),stepNumber, status,comment);\n//\n//        //         log(\"rejected\",getId()+\"->\"+comment);\n//        return true;\n//\n//    }\n//\n//\n//    event BankStateChange(address indexed requestId,address indexed msgSender,RequestState   curentstatus,string commentline,uint timestamp);\n//    //bank reject request\n//    function bankStateChange(string comment ,RequestState _newState) onlyBank public returns (bool result)\n//    {\n//        require((status==RequestState.waitingtobank      ||\n//\n//        status==RequestState.handling           ) &&\n//        (_newState==RequestState.handling           ||\n//        _newState==RequestState.waitingtocustomer  ||\n//        _newState==RequestState.waitingtobeneficiery ));\n////        stepNumber++;\n//        //        addCommentsForStep(stepNumber,comment);\n//\n//        status=_newState;\n//        BankStateChange(getId(),msg.sender,_newState,comment,now);\n////        Comment( getId(),stepNumber, status,comment);\n//\n//        //         log(\"rejected\",getId()+\"->\"+comment);\n//        return true;\n//\n//    }\n//\n//\n//    event Accepted(address indexed requestId,address indexed msgSender ,RequestState   curentstatus,uint timestamp);\n//    //bank accept request\n//    function accept() onlyRegulator public returns (bool result)\n//    {\n//\n//        require((status==RequestState.waitingtobank || status==RequestState.handling || status==RequestState.changeRequested)  && guarantee==address(0));\n//\n//        status=RequestState.accepted;\n//        Accepted(getId(),msg.sender,   status,now);\n////        Comment( getId(),stepNumber, status,comment);\n//        //        if (status!=RequestState.changeRequested)\n//        //        {\n//        //            GuaranteeRequest(changeRequest).\n//        //            if (guarantee!= address(0))\n//        //            {\n//        //            GuaranteeExtender(guarantee).terminate();\n//        //            }\n//        //            addCommentsForStep(stepNumber,comment);\n//        //            status=RequestState.terminationRequest;\n//        //            Termination(getId(),msg.sender,comment);\n//        //\n//        //\n//        //        }\n//        return true;\n//    }\n//\n//\n//    event GuarantieSigned(address indexed requestId,address indexed  guarantieId,RequestState   curentstatus,uint timestamp);\n//    event GuarantieChangeSigned(address indexed requestId,address indexed  guarantieId,RequestState   curentstatus,uint timestamp);\n//\n//    function signComplite(bytes _guaranteeIPFSHash) onlyRegulator public returns (address)\n//    {\n//        require( getRequestState()==RequestState.accepted && _checkArray(_guaranteeIPFSHash) && msg.sender == getRegulator());\n//        GuaranteeExtender gr= new DigitalGuaranteeBNHP(getId(),getRegulator(),_guaranteeIPFSHash);\n//        guarantee=gr.getId();\n//        if (isChangeRequest())\n//        {\n//            GuarantieChangeSigned(getId(),gr.getId(),   status,now);\n//            GuaranteeExtender(changeRequestGuaranteeAdr).terminateGuarantee();\n//        }\n//    else\n//        {\n//            GuarantieSigned(getId(),gr.getId(),   status,now);\n//        }\n//\n//        return guarantee;\n//    }\n\n    function getChangeRequestGuarantee() constant public returns (address )\n    {\n        return address(0);\n    }\n\n\n\n}\n",
  "sourcePath": "/Users/dmitryshlymovich/Downloads/truffle_eth_bnhp/contracts/GuaranteeRequest.sol",
  "compiler": {
    "name": "solc",
    "version": "0.4.18+commit.9cf6e910.Emscripten.clang"
  },
  "schemaVersion": "1.0.1",
  "updatedAt": "2018-02-01T11:50:56.871Z"
}