{
  "contractName": "IssuerManager",
  "abi": [
    {
      "constant": true,
      "inputs": [],
      "name": "getIssuerAddressesList",
      "outputs": [
        {
          "name": "",
          "type": "address[]"
        }
      ],
      "payable": false,
      "type": "function"
    },
    {
      "constant": true,
      "inputs": [
        {
          "name": "",
          "type": "address"
        }
      ],
      "name": "issuers",
      "outputs": [
        {
          "name": "name",
          "type": "string"
        },
        {
          "name": "localAddress",
          "type": "string"
        },
        {
          "name": "addr",
          "type": "address"
        }
      ],
      "payable": false,
      "type": "function"
    },
    {
      "constant": false,
      "inputs": [],
      "name": "close",
      "outputs": [],
      "payable": false,
      "type": "function"
    },
    {
      "constant": true,
      "inputs": [],
      "name": "getIssuerCounter",
      "outputs": [
        {
          "name": "",
          "type": "uint256"
        }
      ],
      "payable": false,
      "type": "function"
    },
    {
      "constant": true,
      "inputs": [],
      "name": "getOwner",
      "outputs": [
        {
          "name": "",
          "type": "address"
        }
      ],
      "payable": false,
      "type": "function"
    },
    {
      "constant": true,
      "inputs": [],
      "name": "owner",
      "outputs": [
        {
          "name": "",
          "type": "address"
        }
      ],
      "payable": false,
      "type": "function"
    },
    {
      "constant": false,
      "inputs": [
        {
          "name": "_newOwner",
          "type": "address"
        }
      ],
      "name": "changeOwner",
      "outputs": [],
      "payable": false,
      "type": "function"
    },
    {
      "constant": true,
      "inputs": [
        {
          "name": "_id",
          "type": "uint256"
        }
      ],
      "name": "getIssuerById",
      "outputs": [
        {
          "name": "",
          "type": "string"
        },
        {
          "name": "",
          "type": "string"
        },
        {
          "name": "",
          "type": "address"
        }
      ],
      "payable": false,
      "type": "function"
    },
    {
      "constant": false,
      "inputs": [
        {
          "name": "_addr",
          "type": "address"
        },
        {
          "name": "_name",
          "type": "string"
        },
        {
          "name": "_localAddres",
          "type": "string"
        }
      ],
      "name": "submitIssuer",
      "outputs": [],
      "payable": false,
      "type": "function"
    },
    {
      "constant": true,
      "inputs": [
        {
          "name": "_addr",
          "type": "address"
        }
      ],
      "name": "getIssuer",
      "outputs": [
        {
          "name": "",
          "type": "string"
        },
        {
          "name": "",
          "type": "string"
        }
      ],
      "payable": false,
      "type": "function"
    },
    {
      "anonymous": false,
      "inputs": [
        {
          "indexed": false,
          "name": "msgSender",
          "type": "address"
        },
        {
          "indexed": false,
          "name": "issuerAdr",
          "type": "address"
        },
        {
          "indexed": false,
          "name": "msgstr",
          "type": "string"
        },
        {
          "indexed": false,
          "name": "timestamp",
          "type": "uint256"
        }
      ],
      "name": "AddIssuer",
      "type": "event"
    }
  ],
  "bytecode": "0x606060405260008054600160a060020a03191633600160a060020a0316179055341561002a57600080fd5b5b610d748061003a6000396000f300606060405236156100a15763ffffffff7c0100000000000000000000000000000000000000000000000000000000600035041663379f448481146100a657806338a7543e1461010d57806343d726d61461023f57806356d58ef514610254578063893d20e8146102795780638da5cb5b146102a8578063a6f9dae1146102d7578063b643e587146102f8578063dc19858714610401578063fef03da3146104a4575b600080fd5b34156100b157600080fd5b6100b96105a6565b60405160208082528190810183818151815260200191508051906020019060200280838360005b838110156100f95780820151818401525b6020016100e0565b505050509050019250505060405180910390f35b341561011857600080fd5b61012c600160a060020a036004351661060f565b604051600160a060020a03821660408201526060808252845460026000196101006001841615020190911604908201819052819060208201906080830190879080156101b95780601f1061018e576101008083540402835291602001916101b9565b820191906000526020600020905b81548152906001019060200180831161019c57829003601f168201915b505083810382528554600260001961010060018416150201909116048082526020909101908690801561022d5780601f106102025761010080835404028352916020019161022d565b820191906000526020600020905b81548152906001019060200180831161021057829003601f168201915b50509550505050505060405180910390f35b341561024a57600080fd5b610252610636565b005b341561025f57600080fd5b610267610662565b60405190815260200160405180910390f35b341561028457600080fd5b61028c610669565b604051600160a060020a03909116815260200160405180910390f35b34156102b357600080fd5b61028c610679565b604051600160a060020a03909116815260200160405180910390f35b34156102e257600080fd5b610252600160a060020a0360043516610688565b005b341561030357600080fd5b61030e6004356106e5565b604051600160a060020a0382166040820152606080825281906020820190820186818151815260200191508051906020019080838360005b8381101561035f5780820151818401525b602001610346565b50505050905090810190601f16801561038c5780820380516001836020036101000a031916815260200191505b50838103825285818151815260200191508051906020019080838360005b838110156103c35780820151818401525b6020016103aa565b50505050905090810190601f1680156103f05780820380516001836020036101000a031916815260200191505b509550505050505060405180910390f35b341561040c57600080fd5b61025260048035600160a060020a03169060446024803590810190830135806020601f8201819004810201604051908101604052818152929190602084018383808284378201915050505050509190803590602001908201803590602001908080601f0160208091040260200160405190810160405281815292919060208401838380828437509496506108e395505050505050565b005b34156104af57600080fd5b6104c3600160a060020a0360043516610a6e565b604051808060200180602001838103835285818151815260200191508051906020019080838360005b838110156105055780820151818401525b6020016104ec565b50505050905090810190601f1680156105325780820380516001836020036101000a031916815260200191505b50838103825284818151815260200191508051906020019080838360005b838110156105695780820151818401525b602001610550565b50505050905090810190601f1680156105965780820380516001836020036101000a031916815260200191505b5094505050505060405180910390f35b6105ae610c1a565b600280548060200260200160405190810160405280929190818152602001828054801561060457602002820191906000526020600020905b8154600160a060020a031681526001909101906020018083116105e6575b505050505090505b90565b600160208190526000918252604090912060028101549091820190600160a060020a031683565b60005433600160a060020a0390811691161461065157600080fd5b600054600160a060020a0316ff5b5b565b6002545b90565b600054600160a060020a03165b90565b600054600160a060020a031681565b60005433600160a060020a039081169116146106a357600080fd5b600160a060020a03811615156106b857600080fd5b6000805473ffffffffffffffffffffffffffffffffffffffff1916600160a060020a0383161790555b5b50565b6106ed610c1a565b6106f5610c1a565b60006106ff610c3e565b600254851061070d57600080fd5b6001600060028781548110151561072057fe5b906000526020600020900160005b9054906101000a9004600160a060020a0316600160a060020a0316600160a060020a0316815260200190815260200160002060606040519081016040529081600082018054600181600116156101000203166002900480601f0160208091040260200160405190810160405280929190818152602001828054600181600116156101000203166002900480156108055780601f106107da57610100808354040283529160200191610805565b820191906000526020600020905b8154815290600101906020018083116107e857829003601f168201915b50505050508152602001600182018054600181600116156101000203166002900480601f0160208091040260200160405190810160405280929190818152602001828054600181600116156101000203166002900480156108a75780601f1061087c576101008083540402835291602001916108a7565b820191906000526020600020905b81548152906001019060200180831161088a57829003601f168201915b505050918352505060029190910154600160a060020a03166020909101529050805181602001518260400151919550935091505b509193909250565b6000805433600160a060020a039081169116146108ff57600080fd5b50600160a060020a03831660009081526001602052604090208083805161092a929160200190610c6c565b5060018101828051610940929160200190610c6c565b506002818101805473ffffffffffffffffffffffffffffffffffffffff1916600160a060020a03871617905580546001810161097c8382610ceb565b916000526020600020900160005b8154600160a060020a038089166101009390930a92830292021916179055507fb3bb6454838f769878c9da3dacefc82660ff82c898c373385ad5e32c9aa4767433858542604051600160a060020a038086168252841660208201526060810182905260806040820181815290820184818151815260200191508051906020019080838360005b83811015610a295780820151818401525b602001610a10565b50505050905090810190601f168015610a565780820380516001836020036101000a031916815260200191505b509550505050505060405180910390a15b5b50505050565b610a76610c1a565b610a7e610c1a565b610a86610c3e565b600160a060020a0384166000908152600160205260409081902090606090519081016040529081600082018054600181600116156101000203166002900480601f016020809104026020016040519081016040528092919081815260200182805460018160011615610100020316600290048015610b455780601f10610b1a57610100808354040283529160200191610b45565b820191906000526020600020905b815481529060010190602001808311610b2857829003601f168201915b50505050508152602001600182018054600181600116156101000203166002900480601f016020809104026020016040519081016040528092919081815260200182805460018160011615610100020316600290048015610be75780601f10610bbc57610100808354040283529160200191610be7565b820191906000526020600020905b815481529060010190602001808311610bca57829003601f168201915b505050918352505060029190910154600160a060020a031660209091015290508051816020015190935091505b50915091565b60206040519081016040526000815290565b60206040519081016040526000815290565b606060405190810160405280610c52610c1a565b8152602001610c5f610c1a565b8152600060209091015290565b828054600181600116156101000203166002900490600052602060002090601f016020900481019282601f10610cad57805160ff1916838001178555610cda565b82800160010185558215610cda579182015b82811115610cda578251825591602001919060010190610cbf565b5b50610ce7929150610d27565b5090565b815481835581811511610d0f57600083815260209020610d0f918101908301610d27565b5b505050565b60206040519081016040526000815290565b61060c91905b80821115610ce75760008155600101610d2d565b5090565b905600a165627a7a72305820823b5228d35f72e25c9ad0ed72e3e041dae9de34d000eb15f0649d0de0a0b0c60029",
  "source": "pragma solidity ^0.4.0;\n\nimport \"./Ownable.sol\";\n\ncontract IssuerManager  is Ownable {\n    enum issuerStatus { submited,  accepted, rejected }\n\n    //describes the customer object\n    struct Issuer {\n    string name;\n    string localAddress;\n    address addr;\n//    issuerStatus status;\n//    address []   guaranteeRequests;\n    }\n    //holds all customers by their address\n    mapping (address=>Issuer) public issuers;\n    address   [] issuerList;\n\n\n    event AddIssuer (address msgSender,address issuerAdr,string msgstr,uint timestamp);\n\n    function submitIssuer(address _addr , string _name, string _localAddres) onlyOwner public {\n\n        Issuer  issuer = issuers[_addr];\n        issuer.name   = _name;\n        issuer.localAddress    = _localAddres;\n        issuer.addr = _addr;\n//        issuer.status = issuerStatus.accepted;\n        issuerList.push(_addr);\n\n        AddIssuer(msg.sender, _addr ,_name,block.timestamp);\n    }\n\n//    event UpdateIssuersStatus(address msgSender,string msgstr,uint timestamp);\n//\n//    function changeIssuerStatus(address _addr, issuerStatus _status) onlyOwner public{\n//        for(uint32 i=0; i<issuerList.length; i++) {\n//            if(issuers[i].addr == _addr) {\n//                issuers[i].status = _status;\n//                // if(issuers[i].status == issuerStatus)\n//                // {\n//                //     UpdateIssuersStatus(msg.sender,\"Approved\",block.timestamp);\n//                // }\n//                // else\n//                // {\n//                //     UpdateIssuersStatus(msg.sender,\"Rejected\",block.timestamp);\n//                // }\n//                break;\n//            }\n//        }\n//\n//    }\n\n    function getIssuerCounter() public constant returns (uint ) {\n        return issuerList.length;\n    }\n\n    function getIssuerAddressesList() public constant returns (address[] )\n    {\n        return issuerList;\n\n    }\n\n    function getIssuerById(uint _id) constant public returns(string , string , address )  {\n\n        if(_id >= issuerList.length) {\n            throw;\n        }\n        Issuer memory ci = issuers[issuerList[_id]];\n\n        return (ci.name,ci.localAddress,ci.addr);\n    }\n\n    function getIssuer(address _addr) constant public returns(string , string  )  {\n\n        Issuer memory ci = issuers[_addr];\n\n        return (ci.name,ci.localAddress);\n\n    }\n\n\n    //    modifier issuersOnly {\n    //        bool found = false;\n    //        for(uint32 i=0; i<issuers.length; i++) {\n    //            if(issuers[i].addr == msg.sender && issuers[i].status == issuerStatus.accepted) {\n    //                found = true;\n    //                break;\n    //            }\n    //        }\n    //        if(!found) throw;\n    //        _;\n    //    }\n\n\n}\n",
  "sourcePath": "/Users/dmitryshlymovich/workspace/ethereum-garanties/truffle_eth_bnhp/contracts/IssuerManager.sol",
  "schemaVersion": "1.0.0",
  "updatedAt": "2017-11-19T12:25:36.985Z"
}