{
  "contractName": "IssuerManager",
  "abi": [
    {
      "constant": true,
      "inputs": [
        {
          "name": "",
          "type": "address"
        }
      ],
      "name": "issuers",
      "outputs": [
        {
          "name": "name",
          "type": "string"
        },
        {
          "name": "localAddress",
          "type": "string"
        },
        {
          "name": "addr",
          "type": "address"
        }
      ],
      "payable": false,
      "type": "function"
    },
    {
      "constant": false,
      "inputs": [],
      "name": "close",
      "outputs": [],
      "payable": false,
      "type": "function"
    },
    {
      "constant": true,
      "inputs": [],
      "name": "getIssuerCounter",
      "outputs": [
        {
          "name": "",
          "type": "uint256"
        }
      ],
      "payable": false,
      "type": "function"
    },
    {
      "constant": true,
      "inputs": [],
      "name": "getOwner",
      "outputs": [
        {
          "name": "",
          "type": "address"
        }
      ],
      "payable": false,
      "type": "function"
    },
    {
      "constant": true,
      "inputs": [],
      "name": "owner",
      "outputs": [
        {
          "name": "",
          "type": "address"
        }
      ],
      "payable": false,
      "type": "function"
    },
    {
      "constant": false,
      "inputs": [
        {
          "name": "_newOwner",
          "type": "address"
        }
      ],
      "name": "changeOwner",
      "outputs": [],
      "payable": false,
      "type": "function"
    },
    {
      "constant": true,
      "inputs": [
        {
          "name": "_id",
          "type": "uint256"
        }
      ],
      "name": "getIssuerById",
      "outputs": [
        {
          "name": "",
          "type": "string"
        },
        {
          "name": "",
          "type": "string"
        },
        {
          "name": "",
          "type": "address"
        }
      ],
      "payable": false,
      "type": "function"
    },
    {
      "constant": false,
      "inputs": [
        {
          "name": "_addr",
          "type": "address"
        },
        {
          "name": "_name",
          "type": "string"
        },
        {
          "name": "_localAddres",
          "type": "string"
        }
      ],
      "name": "submitIssuer",
      "outputs": [],
      "payable": false,
      "type": "function"
    },
    {
      "constant": true,
      "inputs": [
        {
          "name": "_addr",
          "type": "address"
        }
      ],
      "name": "getIssuer",
      "outputs": [
        {
          "name": "",
          "type": "string"
        },
        {
          "name": "",
          "type": "string"
        }
      ],
      "payable": false,
      "type": "function"
    },
    {
      "anonymous": false,
      "inputs": [
        {
          "indexed": false,
          "name": "msgSender",
          "type": "address"
        },
        {
          "indexed": false,
          "name": "issuerAdr",
          "type": "address"
        },
        {
          "indexed": false,
          "name": "msgstr",
          "type": "string"
        },
        {
          "indexed": false,
          "name": "timestamp",
          "type": "uint256"
        }
      ],
      "name": "AddIssuer",
      "type": "event"
    }
  ],
  "bytecode": "0x606060405260008054600160a060020a03191633600160a060020a0316179055341561002a57600080fd5b5b610c878061003a6000396000f300606060405236156100965763ffffffff7c010000000000000000000000000000000000000000000000000000000060003504166338a7543e811461009b57806343d726d6146101cd57806356d58ef5146101e2578063893d20e8146102075780638da5cb5b14610236578063a6f9dae114610265578063b643e58714610286578063dc1985871461038f578063fef03da314610432575b600080fd5b34156100a657600080fd5b6100ba600160a060020a0360043516610534565b604051600160a060020a03821660408201526060808252845460026000196101006001841615020190911604908201819052819060208201906080830190879080156101475780601f1061011c57610100808354040283529160200191610147565b820191906000526020600020905b81548152906001019060200180831161012a57829003601f168201915b50508381038252855460026000196101006001841615020190911604808252602090910190869080156101bb5780601f10610190576101008083540402835291602001916101bb565b820191906000526020600020905b81548152906001019060200180831161019e57829003601f168201915b50509550505050505060405180910390f35b34156101d857600080fd5b6101e061055b565b005b34156101ed57600080fd5b6101f5610587565b60405190815260200160405180910390f35b341561021257600080fd5b61021a61058e565b604051600160a060020a03909116815260200160405180910390f35b341561024157600080fd5b61021a61059e565b604051600160a060020a03909116815260200160405180910390f35b341561027057600080fd5b6101e0600160a060020a03600435166105ad565b005b341561029157600080fd5b61029c60043561060a565b604051600160a060020a0382166040820152606080825281906020820190820186818151815260200191508051906020019080838360005b838110156102ed5780820151818401525b6020016102d4565b50505050905090810190601f16801561031a5780820380516001836020036101000a031916815260200191505b50838103825285818151815260200191508051906020019080838360005b838110156103515780820151818401525b602001610338565b50505050905090810190601f16801561037e5780820380516001836020036101000a031916815260200191505b509550505050505060405180910390f35b341561039a57600080fd5b6101e060048035600160a060020a03169060446024803590810190830135806020601f8201819004810201604051908101604052818152929190602084018383808284378201915050505050509190803590602001908201803590602001908080601f01602080910402602001604051908101604052818152929190602084018383808284375094965061080895505050505050565b005b341561043d57600080fd5b610451600160a060020a0360043516610993565b604051808060200180602001838103835285818151815260200191508051906020019080838360005b838110156104935780820151818401525b60200161047a565b50505050905090810190601f1680156104c05780820380516001836020036101000a031916815260200191505b50838103825284818151815260200191508051906020019080838360005b838110156104f75780820151818401525b6020016104de565b50505050905090810190601f1680156105245780820380516001836020036101000a031916815260200191505b5094505050505060405180910390f35b600160208190526000918252604090912060028101549091820190600160a060020a031683565b60005433600160a060020a0390811691161461057657600080fd5b600054600160a060020a0316ff5b5b565b6002545b90565b600054600160a060020a03165b90565b600054600160a060020a031681565b60005433600160a060020a039081169116146105c857600080fd5b600160a060020a03811615156105dd57600080fd5b6000805473ffffffffffffffffffffffffffffffffffffffff1916600160a060020a0383161790555b5b50565b610612610b3f565b61061a610b3f565b6000610624610b51565b600254851061063257600080fd5b6001600060028781548110151561064557fe5b906000526020600020900160005b9054906101000a9004600160a060020a0316600160a060020a0316600160a060020a0316815260200190815260200160002060606040519081016040529081600082018054600181600116156101000203166002900480601f01602080910402602001604051908101604052809291908181526020018280546001816001161561010002031660029004801561072a5780601f106106ff5761010080835404028352916020019161072a565b820191906000526020600020905b81548152906001019060200180831161070d57829003601f168201915b50505050508152602001600182018054600181600116156101000203166002900480601f0160208091040260200160405190810160405280929190818152602001828054600181600116156101000203166002900480156107cc5780601f106107a1576101008083540402835291602001916107cc565b820191906000526020600020905b8154815290600101906020018083116107af57829003601f168201915b505050918352505060029190910154600160a060020a03166020909101529050805181602001518260400151919550935091505b509193909250565b6000805433600160a060020a0390811691161461082457600080fd5b50600160a060020a03831660009081526001602052604090208083805161084f929160200190610b7f565b5060018101828051610865929160200190610b7f565b506002818101805473ffffffffffffffffffffffffffffffffffffffff1916600160a060020a0387161790558054600181016108a18382610bfe565b916000526020600020900160005b8154600160a060020a038089166101009390930a92830292021916179055507fb3bb6454838f769878c9da3dacefc82660ff82c898c373385ad5e32c9aa4767433858542604051600160a060020a038086168252841660208201526060810182905260806040820181815290820184818151815260200191508051906020019080838360005b8381101561094e5780820151818401525b602001610935565b50505050905090810190601f16801561097b5780820380516001836020036101000a031916815260200191505b509550505050505060405180910390a15b5b50505050565b61099b610b3f565b6109a3610b3f565b6109ab610b51565b600160a060020a0384166000908152600160205260409081902090606090519081016040529081600082018054600181600116156101000203166002900480601f016020809104026020016040519081016040528092919081815260200182805460018160011615610100020316600290048015610a6a5780601f10610a3f57610100808354040283529160200191610a6a565b820191906000526020600020905b815481529060010190602001808311610a4d57829003601f168201915b50505050508152602001600182018054600181600116156101000203166002900480601f016020809104026020016040519081016040528092919081815260200182805460018160011615610100020316600290048015610b0c5780601f10610ae157610100808354040283529160200191610b0c565b820191906000526020600020905b815481529060010190602001808311610aef57829003601f168201915b505050918352505060029190910154600160a060020a031660209091015290508051816020015190935091505b50915091565b60206040519081016040526000815290565b606060405190810160405280610b65610b3f565b8152602001610b72610b3f565b8152600060209091015290565b828054600181600116156101000203166002900490600052602060002090601f016020900481019282601f10610bc057805160ff1916838001178555610bed565b82800160010185558215610bed579182015b82811115610bed578251825591602001919060010190610bd2565b5b50610bfa929150610c3a565b5090565b815481835581811511610c2257600083815260209020610c22918101908301610c3a565b5b505050565b60206040519081016040526000815290565b61058b91905b80821115610bfa5760008155600101610c40565b5090565b905600a165627a7a7230582086ed6f748b78018f59fbcb2fa53f52bef83611a8427e1b47749cb9ee2ab54cc40029",
  "source": "pragma solidity ^0.4.0;\r\n\r\nimport \"./Ownable.sol\";\r\n\r\ncontract IssuerManager  is Ownable {\r\n    enum issuerStatus { submited,  accepted, rejected }\r\n\r\n    //describes the customer object\r\n    struct Issuer {\r\n    string name;\r\n    string localAddress;\r\n    address addr;\r\n//    issuerStatus status;\r\n//    address []   guaranteeRequests;\r\n    }\r\n    //holds all customers by their address\r\n    mapping (address=>Issuer) public issuers;\r\n    address   [] issuerList;\r\n\r\n\r\n    event AddIssuer (address msgSender,address issuerAdr,string msgstr,uint timestamp);\r\n\r\n    function submitIssuer(address _addr , string _name, string _localAddres) onlyOwner public {\r\n\r\n        Issuer  issuer = issuers[_addr];\r\n        issuer.name   = _name;\r\n        issuer.localAddress    = _localAddres;\r\n        issuer.addr = _addr;\r\n//        issuer.status = issuerStatus.accepted;\r\n        issuerList.push(_addr);\r\n\r\n        AddIssuer(msg.sender, _addr ,_name,block.timestamp);\r\n    }\r\n\r\n//    event UpdateIssuersStatus(address msgSender,string msgstr,uint timestamp);\r\n//\r\n//    function changeIssuerStatus(address _addr, issuerStatus _status) onlyOwner public{\r\n//        for(uint32 i=0; i<issuerList.length; i++) {\r\n//            if(issuers[i].addr == _addr) {\r\n//                issuers[i].status = _status;\r\n//                // if(issuers[i].status == issuerStatus)\r\n//                // {\r\n//                //     UpdateIssuersStatus(msg.sender,\"Approved\",block.timestamp);\r\n//                // }\r\n//                // else\r\n//                // {\r\n//                //     UpdateIssuersStatus(msg.sender,\"Rejected\",block.timestamp);\r\n//                // }\r\n//                break;\r\n//            }\r\n//        }\r\n//\r\n//    }\r\n\r\n    function getIssuerCounter() public constant returns (uint ) {\r\n        return issuerList.length;\r\n    }\r\n\r\n    function getIssuerById(uint _id) constant public returns(string , string , address )  {\r\n\r\n        if(_id >= issuerList.length) {\r\n            throw;\r\n        }\r\n        Issuer memory ci = issuers[issuerList[_id]];\r\n\r\n        return (ci.name,ci.localAddress,ci.addr);\r\n    }\r\n\r\n    function getIssuer(address _addr) constant public returns(string , string  )  {\r\n\r\n        Issuer memory ci = issuers[_addr];\r\n\r\n        return (ci.name,ci.localAddress);\r\n\r\n    }\r\n\r\n\r\n    //    modifier issuersOnly {\r\n    //        bool found = false;\r\n    //        for(uint32 i=0; i<issuers.length; i++) {\r\n    //            if(issuers[i].addr == msg.sender && issuers[i].status == issuerStatus.accepted) {\r\n    //                found = true;\r\n    //                break;\r\n    //            }\r\n    //        }\r\n    //        if(!found) throw;\r\n    //        _;\r\n    //    }\r\n\r\n\r\n}\r\n",
  "sourcePath": "/D/Projects/Poalim-Innov/contracts/IssuerManager.sol",
  "schemaVersion": "1.0.0",
  "updatedAt": "2017-10-02T09:18:26.555Z"
}