{
  "contractName": "Ownable",
  "abi": [
    {
      "constant": false,
      "inputs": [],
      "name": "close",
      "outputs": [],
      "payable": false,
      "type": "function"
    },
    {
      "constant": true,
      "inputs": [],
      "name": "getOwner",
      "outputs": [
        {
          "name": "",
          "type": "address"
        }
      ],
      "payable": false,
      "type": "function"
    },
    {
      "constant": true,
      "inputs": [],
      "name": "owner",
      "outputs": [
        {
          "name": "",
          "type": "address"
        }
      ],
      "payable": false,
      "type": "function"
    },
    {
      "constant": false,
      "inputs": [
        {
          "name": "_newOwner",
          "type": "address"
        }
      ],
      "name": "changeOwner",
      "outputs": [],
      "payable": false,
      "type": "function"
    }
  ],
  "bytecode": "0x606060405260008054600160a060020a03191633600160a060020a0316179055341561002a57600080fd5b5b6101c68061003a6000396000f300606060405263ffffffff7c010000000000000000000000000000000000000000000000000000000060003504166343d726d6811461005e578063893d20e8146100735780638da5cb5b146100a2578063a6f9dae1146100d1575b600080fd5b341561006957600080fd5b6100716100f2565b005b341561007e57600080fd5b61008661011e565b604051600160a060020a03909116815260200160405180910390f35b34156100ad57600080fd5b61008661012e565b604051600160a060020a03909116815260200160405180910390f35b34156100dc57600080fd5b610071600160a060020a036004351661013d565b005b60005433600160a060020a0390811691161461010d57600080fd5b600054600160a060020a0316ff5b5b565b600054600160a060020a03165b90565b600054600160a060020a031681565b60005433600160a060020a0390811691161461015857600080fd5b600160a060020a038116151561016d57600080fd5b6000805473ffffffffffffffffffffffffffffffffffffffff1916600160a060020a0383161790555b5b505600a165627a7a72305820841502bbba1a4875f692f777bf12fed3d501720b77b85d5cc9c343dacd4bbe1f0029",
  "source": "pragma solidity ^0.4.0;\r\n\r\n\r\n\r\ncontract Ownable {\r\n    address public owner = msg.sender;\r\n\r\n    /// @notice check if the caller is the owner of the contract\r\n    modifier onlyOwner {\r\n        if (msg.sender != owner) throw;\r\n    _;\r\n    }\r\n\r\n    /// @notice change the owner of the contract\r\n    /// @param _newOwner the address of the new owner of the contract.\r\n    function changeOwner(address _newOwner)\r\n    onlyOwner\r\n    {\r\n        if(_newOwner == 0x0) throw;\r\n        owner = _newOwner;\r\n    }\r\n\r\n    //contract distruction by owner only\r\n    function close() onlyOwner {\r\n        //        log(\"##contract closed by owner=\",owner);\r\n        selfdestruct(owner);\r\n    }\r\n\r\n    //constractor to verify real owner assignment\r\n    function getOwner() constant returns (address){\r\n        return owner ;\r\n    }\r\n}\r\n\r\n",
  "sourcePath": "/D/Projects/Poalim-Innov/contracts/Ownable.sol",
  "schemaVersion": "1.0.0",
  "updatedAt": "2017-10-02T09:18:26.601Z"
}