{
  "contractName": "Regulator",
  "abi": [
    {
      "constant": true,
      "inputs": [
        {
          "name": "",
          "type": "address"
        }
      ],
      "name": "getGuaranteeAddresses",
      "outputs": [
        {
          "name": "",
          "type": "address[]"
        },
        {
          "name": "localAddress",
          "type": "string"
        }
      ],
      "payable": false,
      "type": "function"
    },
    {
      "constant": true,
      "inputs": [
        {
          "name": "",
          "type": "address"
        }
      ],
      "name": "beneficiaries",
      "outputs": [
        {
          "name": "name",
          "type": "string"
        },
        {
          "name": "localAddress",
          "type": "string"
        }
      ],
      "payable": false,
      "type": "function"
    },
    {
      "constant": true,
      "inputs": [
        {
          "name": "",
          "type": "address"
        }
      ],
      "name": "customers",
      "outputs": [
        {
          "name": "name",
          "type": "string"
        },
        {
          "name": "localAddress",
          "type": "string"
        },
        {
          "name": "addr",
          "type": "address"
        }
      ],
      "payable": false,
      "type": "function"
    },
    {
      "constant": true,
      "inputs": [
        {
          "name": "",
          "type": "address"
        }
      ],
      "name": "issuers",
      "outputs": [
        {
          "name": "name",
          "type": "string"
        },
        {
          "name": "localAddress",
          "type": "string"
        },
        {
          "name": "addr",
          "type": "address"
        }
      ],
      "payable": false,
      "type": "function"
    },
    {
      "constant": false,
      "inputs": [
        {
          "name": "_guaranteeRequest",
          "type": "address"
        },
        {
          "name": "comment",
          "type": "string"
        },
        {
          "name": "_localAddres",
          "type": "string"
        }
      ],
      "name": "terminateGuarantee",
      "outputs": [
        {
          "name": "",
          "type": "bool"
        }
      ],
      "payable": false,
      "type": "function"
    },
    {
      "constant": false,
      "inputs": [
        {
          "name": "_addr",
          "type": "address"
        },
        {
          "name": "_name",
          "type": "string"
        },
        {
          "name": "_localAddres",
          "type": "string"
        }
      ],
      "name": "close",
      "outputs": [
        {
          "name": "_name",
          "type": "string"
        },
        {
          "name": "_localAddress",
          "type": "string"
        }
      ],
      "payable": false,
      "type": "function"
    },
    {
      "constant": false,
      "inputs": [
        {
          "name": "_addr",
          "type": "address"
        },
        {
          "name": "_name",
          "type": "string"
        },
        {
          "name": "_localAddres",
          "type": "string"
        }
      ],
      "name": "submitCustomer",
      "outputs": [
        {
          "name": "_name",
          "type": "string"
        },
        {
          "name": "_localAddress",
          "type": "string"
        }
      ],
      "payable": false,
      "type": "function"
    },
    {
      "constant": true,
      "inputs": [
        {
          "name": "_addr",
          "type": "address"
        }
      ],
      "name": "getBeneficiary",
      "outputs": [
        {
          "name": "_name",
          "type": "string"
        },
        {
          "name": "_localAddress",
          "type": "string"
        }
      ],
      "payable": false,
      "type": "function"
    },
    {
      "constant": true,
      "inputs": [
        {
          "name": "_addr",
          "type": "address"
        },
        {
          "name": "_name",
          "type": "string"
        },
        {
          "name": "_localAddres",
          "type": "string"
        }
      ],
      "name": "getIssuerCounter",
      "outputs": [
        {
          "name": "",
          "type": "uint256"
        }
      ],
      "payable": false,
      "type": "function"
    },
    {
      "constant": true,
      "inputs": [
        {
          "name": "_addr",
          "type": "address"
        },
        {
          "name": "_name",
          "type": "string"
        },
        {
          "name": "_localAddres",
          "type": "string"
        },
        {
          "name": "_comment",
          "type": "string"
        }
      ],
      "name": "getBeneficiaryAddresses",
      "outputs": [
        {
          "name": "",
          "type": "address[]"
        }
      ],
      "payable": false,
      "type": "function"
    },
    {
      "constant": false,
      "inputs": [
        {
          "name": "_addr",
          "type": "address"
        },
        {
          "name": "_name",
          "type": "string"
        },
        {
          "name": "_localAddres",
          "type": "string"
        }
      ],
      "name": "submitBeneficiary",
      "outputs": [
        {
          "name": "",
          "type": "address"
        }
      ],
      "payable": false,
      "type": "function"
    },
    {
      "constant": true,
      "inputs": [
        {
          "name": "",
          "type": "uint256"
        },
        {
          "name": "_bank",
          "type": "address"
        },
        {
          "name": "_beneficiary",
          "type": "address"
        },
        {
          "name": "_purpose",
          "type": "bytes32"
        },
        {
          "name": "_amount",
          "type": "uint256"
        },
        {
          "name": "_startDate",
          "type": "uint256"
        },
        {
          "name": "_endDate",
          "type": "uint256"
        },
        {
          "name": "_indexType",
          "type": "uint8"
        },
        {
          "name": "_indexDate",
          "type": "uint256"
        }
      ],
      "name": "getOwner",
      "outputs": [
        {
          "name": "",
          "type": "address"
        }
      ],
      "payable": false,
      "type": "function"
    },
    {
      "constant": true,
      "inputs": [
        {
          "name": "",
          "type": "uint256"
        },
        {
          "name": "_bank",
          "type": "address"
        },
        {
          "name": "_beneficiary",
          "type": "address"
        },
        {
          "name": "_purpose",
          "type": "bytes32"
        },
        {
          "name": "_amount",
          "type": "uint256"
        },
        {
          "name": "_startDate",
          "type": "uint256"
        },
        {
          "name": "_endDate",
          "type": "uint256"
        },
        {
          "name": "_indexType",
          "type": "uint8"
        },
        {
          "name": "_indexDate",
          "type": "uint256"
        }
      ],
      "name": "owner",
      "outputs": [
        {
          "name": "",
          "type": "address"
        },
        {
          "name": "_localAddress",
          "type": "string"
        }
      ],
      "payable": false,
      "type": "function"
    },
    {
      "constant": true,
      "inputs": [
        {
          "name": "",
          "type": "uint256"
        },
        {
          "name": "_bank",
          "type": "address"
        },
        {
          "name": "_beneficiary",
          "type": "address"
        },
        {
          "name": "_purpose",
          "type": "bytes32"
        },
        {
          "name": "_amount",
          "type": "uint256"
        },
        {
          "name": "_startDate",
          "type": "uint256"
        },
        {
          "name": "_endDate",
          "type": "uint256"
        },
        {
          "name": "_indexType",
          "type": "uint8"
        },
        {
          "name": "_indexDate",
          "type": "uint256"
        }
      ],
      "name": "guaranteeRequests",
      "outputs": [
        {
          "name": "",
          "type": "address"
        },
        {
          "name": "",
          "type": "string"
        },
        {
          "name": "",
          "type": "address"
        }
      ],
      "payable": false,
      "type": "function"
    },
    {
      "constant": true,
      "inputs": [
        {
          "name": "_newOwner",
          "type": "address"
        },
        {
          "name": "_bank",
          "type": "address"
        },
        {
          "name": "_beneficiary",
          "type": "address"
        },
        {
          "name": "_purpose",
          "type": "bytes32"
        },
        {
          "name": "_amount",
          "type": "uint256"
        },
        {
          "name": "_startDate",
          "type": "uint256"
        },
        {
          "name": "_endDate",
          "type": "uint256"
        },
        {
          "name": "_indexType",
          "type": "uint8"
        },
        {
          "name": "_indexDate",
          "type": "uint256"
        }
      ],
      "name": "getRequestAddresses",
      "outputs": [
        {
          "name": "",
          "type": "address[]"
        },
        {
          "name": "_localAddress",
          "type": "string"
        }
      ],
      "payable": false,
      "type": "function"
    },
    {
      "constant": false,
      "inputs": [
        {
          "name": "_newOwner",
          "type": "address"
        },
        {
          "name": "_name",
          "type": "string"
        },
        {
          "name": "_localAddres",
          "type": "string"
        }
      ],
      "name": "changeOwner",
      "outputs": [
        {
          "name": "_name",
          "type": "string"
        },
        {
          "name": "_localAddress",
          "type": "string"
        },
        {
          "name": "",
          "type": "address"
        }
      ],
      "payable": false,
      "type": "function"
    },
    {
      "constant": true,
      "inputs": [
        {
          "name": "_id",
          "type": "uint256"
        }
      ],
      "name": "getBeneficiaryById",
      "outputs": [
        {
          "name": "_name",
          "type": "string"
        },
        {
          "name": "_localAddress",
          "type": "string"
        },
        {
          "name": "",
          "type": "address"
        }
      ],
      "payable": false,
      "type": "function"
    },
    {
      "constant": false,
      "inputs": [
        {
          "name": "_guaranteeRequest",
          "type": "address",
          "indexed": false
        },
        {
          "indexed": false,
          "name": "comment",
          "type": "string"
        },
        {
          "name": "_guaranteeIPFSHash",
          "type": "bytes"
        }
      ],
      "name": "accept",
      "outputs": [
        {
          "name": "",
          "type": "bool"
        },
        {
          "name": "_localAddress",
          "type": "string"
        },
        {
          "name": "",
          "type": "address"
        }
      ],
      "payable": false,
      "type": "function",
      "anonymous": false
    },
    {
      "constant": true,
      "inputs": [
        {
          "name": "_id",
          "type": "uint256",
          "indexed": false
        },
        {
          "name": "_name",
          "type": "string",
          "indexed": false
        },
        {
          "name": "_localAddres",
          "type": "string"
        }
      ],
      "name": "getIssuerById",
      "outputs": [
        {
          "name": "",
          "type": "string"
        },
        {
          "name": "",
          "type": "string"
        },
        {
          "name": "",
          "type": "address"
        }
      ],
      "payable": false,
      "type": "function",
      "anonymous": false
    },
    {
      "constant": true,
      "inputs": [
        {
          "name": "_addr",
          "type": "address",
          "indexed": false
        },
        {
          "name": "logb",
          "type": "address",
          "indexed": false
        },
        {
          "name": "_localAddres",
          "type": "string",
          "indexed": false
        }
      ],
      "name": "getCustomer",
      "outputs": [
        {
          "name": "_name",
          "type": "string"
        },
        {
          "name": "_localAddress",
          "type": "string"
        },
        {
          "name": "",
          "type": "address"
        }
      ],
      "payable": false,
      "type": "function",
      "anonymous": false
    },
    {
      "constant": false,
      "inputs": [
        {
          "name": "_addr",
          "type": "address",
          "indexed": false
        },
        {
          "name": "_name",
          "type": "string",
          "indexed": false
        },
        {
          "name": "_localAddres",
          "type": "string",
          "indexed": false
        }
      ],
      "name": "submitIssuer",
      "outputs": [
        {
          "name": "",
          "type": "string"
        },
        {
          "name": "",
          "type": "string"
        },
        {
          "name": "",
          "type": "address"
        }
      ],
      "payable": false,
      "type": "function",
      "anonymous": false
    },
    {
      "constant": true,
      "inputs": [
        {
          "name": "",
          "type": "uint256",
          "indexed": false
        },
        {
          "indexed": false,
          "name": "logb",
          "type": "address"
        },
        {
          "indexed": false,
          "name": "timestamp",
          "type": "uint256"
        },
        {
          "indexed": false,
          "name": "timestamp",
          "type": "uint256"
        }
      ],
      "name": "guarantees",
      "outputs": [
        {
          "name": "",
          "type": "address"
        },
        {
          "name": "",
          "type": "string"
        }
      ],
      "payable": false,
      "type": "function",
      "anonymous": false
    },
    {
      "constant": true,
      "inputs": [
        {
          "name": "_addr",
          "type": "address",
          "indexed": false
        },
        {
          "name": "msgstr",
          "type": "string",
          "indexed": false
        },
        {
          "name": "timestamp",
          "type": "uint256",
          "indexed": false
        }
      ],
      "name": "getIssuer",
      "outputs": [
        {
          "name": "",
          "type": "string"
        },
        {
          "name": "",
          "type": "string"
        }
      ],
      "payable": false,
      "type": "function",
      "anonymous": false
    },
    {
      "constant": true,
      "inputs": [
        {
          "name": "message",
          "type": "string",
          "indexed": false
        },
        {
          "indexed": false,
          "name": "logb",
          "type": "address"
        },
        {
          "indexed": false,
          "name": "timestamp",
          "type": "uint256"
        },
        {
          "indexed": false,
          "name": "timestamp",
          "type": "uint256"
        }
      ],
      "name": "loga",
      "outputs": [
        {
          "name": "",
          "type": "string"
        },
        {
          "name": "",
          "type": "string"
        }
      ],
      "payable": false,
      "type": "constructor",
      "anonymous": false
    },
    {
      "constant": true,
      "inputs": [
        {
          "name": "msgSender",
          "type": "address",
          "indexed": false
        },
        {
          "indexed": false,
          "name": "msgstr",
          "type": "string"
        },
        {
          "indexed": false,
          "name": "timestamp",
          "type": "uint256"
        },
        {
          "indexed": false,
          "name": "timestamp",
          "type": "uint256"
        }
      ],
      "name": "RegulatoryContractDeployed",
      "outputs": [
        {
          "name": "",
          "type": "string"
        },
        {
          "name": "",
          "type": "string"
        }
      ],
      "payable": false,
      "type": "event",
      "anonymous": false
    },
    {
      "inputs": [
        {
          "indexed": false,
          "name": "message",
          "type": "string"
        },
        {
          "indexed": false,
          "name": "logb",
          "type": "address"
        },
        {
          "indexed": false,
          "name": "timestamp",
          "type": "uint256"
        },
        {
          "indexed": false,
          "name": "timestamp",
          "type": "uint256"
        }
      ],
      "payable": false,
      "type": "event",
      "anonymous": false,
      "name": "loga"
    },
    {
      "anonymous": false,
      "inputs": [
        {
          "indexed": false,
          "name": "message",
          "type": "string"
        },
        {
          "indexed": false,
          "name": "logb",
          "type": "string"
        },
        {
          "indexed": false,
          "name": "timestamp",
          "type": "uint256"
        },
        {
          "indexed": false,
          "name": "timestamp",
          "type": "uint256"
        }
      ],
      "name": "log",
      "type": "event"
    },
    {
      "anonymous": false,
      "inputs": [
        {
          "indexed": false,
          "name": "msgSender",
          "type": "address"
        },
        {
          "indexed": false,
          "name": "msgstr",
          "type": "string"
        },
        {
          "indexed": false,
          "name": "timestamp",
          "type": "uint256"
        },
        {
          "indexed": false,
          "name": "timestamp",
          "type": "uint256"
        }
      ],
      "name": "AddCustomer",
      "type": "event"
    },
    {
      "anonymous": false,
      "inputs": [
        {
          "indexed": false,
          "name": "msgSender",
          "type": "address"
        },
        {
          "indexed": false,
          "name": "_name",
          "type": "string"
        },
        {
          "indexed": false,
          "name": "timestamp",
          "type": "uint256"
        },
        {
          "indexed": false,
          "name": "timestamp",
          "type": "uint256"
        }
      ],
      "name": "AddBeneficiary",
      "type": "event"
    },
    {
      "anonymous": false,
      "inputs": [
        {
          "indexed": false,
          "name": "msgSender",
          "type": "address"
        },
        {
          "indexed": false,
          "name": "issuerAdr",
          "type": "address"
        },
        {
          "indexed": false,
          "name": "msgstr",
          "type": "string"
        },
        {
          "indexed": false,
          "name": "timestamp",
          "type": "uint256"
        }
      ],
      "name": "AddIssuer",
      "type": "event"
    },
    {
      "anonymous": false,
      "inputs": [
        {
          "indexed": false,
          "name": "msgSender",
          "type": "address"
        },
        {
          "indexed": false,
          "name": "issuerAdr",
          "type": "address"
        },
        {
          "indexed": false,
          "name": "msgstr",
          "type": "string"
        },
        {
          "indexed": false,
          "name": "timestamp",
          "type": "uint256"
        }
      ],
      "name": "AddIssuer",
      "type": "event"
    },
    {
      "anonymous": false,
      "inputs": [
        {
          "indexed": false,
          "name": "message",
          "type": "string"
        },
        {
          "indexed": false,
          "name": "logb",
          "type": "string"
        }
      ],
      "name": "log",
      "type": "event"
    }
  ],
  "bytecode": "0x606060405260008054600160a060020a03191633600160a060020a0316179055341561002a57600080fd5b5b7f6c5cfd2de0086551b837a725d5f6a57e13b35c87eb326858461381e854a3a5a13342604051600160a060020a0390921682526040808301919091526060602083018190526005908301527f4d696e6564000000000000000000000000000000000000000000000000000000608083015260a0909101905180910390a15b5b61230d806100b96000396000f300606060405236156101175763ffffffff60e060020a600035041663010bd067811461011c5780630156773914610183578063336989ae146102a557806338a7543e146103c75780633c772eb4146104f957806343d726d61461056c5780634d93c0c314610581578063505a1b311461062457806356d58ef5146107265780637cb306701461074b57806383a2d050146107b2578063893d20e8146108555780638da5cb5b146108845780639c5a88d4146108b3578063a4f2c2ce146108e5578063a6f9dae11461094c578063aa0a57ab1461096d578063af086e4a14610a66578063b643e58714610b1b578063cb949e5114610c24578063dc19858714610d26578063df754f1114610dc9578063fef03da314610dfb575b600080fd5b341561012757600080fd5b61012f610efd565b60405160208082528190810183818151815260200191508051906020019060200280838360005b8381101561016f5780820151818401525b602001610156565b505050509050019250505060405180910390f35b341561018e57600080fd5b6101a2600160a060020a0360043516610f66565b6040516040808252835460026000196101006001841615020190911604908201819052819060208201906060830190869080156102205780601f106101f557610100808354040283529160200191610220565b820191906000526020600020905b81548152906001019060200180831161020357829003601f168201915b50508381038252845460026000196101006001841615020190911604808252602090910190859080156102945780601f1061026957610100808354040283529160200191610294565b820191906000526020600020905b81548152906001019060200180831161027757829003601f168201915b505094505050505060405180910390f35b34156102b057600080fd5b6101a2600160a060020a0360043516610f7b565b6040516040808252835460026000196101006001841615020190911604908201819052819060208201906060830190869080156102205780601f106101f557610100808354040283529160200191610220565b820191906000526020600020905b81548152906001019060200180831161020357829003601f168201915b50508381038252845460026000196101006001841615020190911604808252602090910190859080156102945780601f1061026957610100808354040283529160200191610294565b820191906000526020600020905b81548152906001019060200180831161027757829003601f168201915b505094505050505060405180910390f35b34156103d257600080fd5b6103e6600160a060020a0360043516610f90565b604051600160a060020a03821660408201526060808252845460026000196101006001841615020190911604908201819052819060208201906080830190879080156104735780601f1061044857610100808354040283529160200191610473565b820191906000526020600020905b81548152906001019060200180831161045657829003601f168201915b50508381038252855460026000196101006001841615020190911604808252602090910190869080156104e75780601f106104bc576101008083540402835291602001916104e7565b820191906000526020600020905b8154815290600101906020018083116104ca57829003601f168201915b50509550505050505060405180910390f35b341561050457600080fd5b61055860048035600160a060020a03169060446024803590810190830135806020601f82018190048102016040519081016040528181529291906020840183838082843750949650610fb795505050505050565b604051901515815260200160405180910390f35b341561057757600080fd5b61057f61110d565b005b341561058c57600080fd5b61057f60048035600160a060020a03169060446024803590810190830135806020601f8201819004810201604051908101604052818152929190602084018383808284378201915050505050509190803590602001908201803590602001908080601f01602080910402602001604051908101604052818152929190602084018383808284375094965061113995505050505050565b005b341561062f57600080fd5b610643600160a060020a0360043516611252565b604051808060200180602001838103835285818151815260200191508051906020019080838360005b838110156106855780820151818401525b60200161066c565b50505050905090810190601f1680156106b25780820380516001836020036101000a031916815260200191505b50838103825284818151815260200191508051906020019080838360005b838110156106e95780820151818401525b6020016106d0565b50505050905090810190601f1680156107165780820380516001836020036101000a031916815260200191505b5094505050505060405180910390f35b341561073157600080fd5b6107396113e9565b60405190815260200160405180910390f35b341561075657600080fd5b61012f6113f0565b60405160208082528190810183818151815260200191508051906020019060200280838360005b8381101561016f5780820151818401525b602001610156565b505050509050019250505060405180910390f35b34156107bd57600080fd5b61057f60048035600160a060020a03169060446024803590810190830135806020601f8201819004810201604051908101604052818152929190602084018383808284378201915050505050509190803590602001908201803590602001908080601f01602080910402602001604051908101604052818152929190602084018383808284375094965061145995505050505050565b005b341561086057600080fd5b6108686115b1565b604051600160a060020a03909116815260200160405180910390f35b341561088f57600080fd5b6108686115c1565b604051600160a060020a03909116815260200160405180910390f35b34156108be57600080fd5b6108686004356115d0565b604051600160a060020a03909116815260200160405180910390f35b34156108f057600080fd5b61012f611602565b60405160208082528190810183818151815260200191508051906020019060200280838360005b8381101561016f5780820151818401525b602001610156565b505050509050019250505060405180910390f35b341561095757600080fd5b61057f600160a060020a036004351661166b565b005b341561097857600080fd5b6106436004356116c8565b604051808060200180602001838103835285818151815260200191508051906020019080838360005b838110156106855780820151818401525b60200161066c565b50505050905090810190601f1680156106b25780820380516001836020036101000a031916815260200191505b50838103825284818151815260200191508051906020019080838360005b838110156106e95780820151818401525b6020016106d0565b50505050905090810190601f1680156107165780820380516001836020036101000a031916815260200191505b5094505050505060405180910390f35b3415610a7157600080fd5b61055860048035600160a060020a03169060446024803590810190830135806020601f8201819004810201604051908101604052818152929190602084018383808284378201915050505050509190803590602001908201803590602001908080601f0160208091040260200160405190810160405281815292919060208401838380828437509496506118a995505050505050565b604051901515815260200160405180910390f35b3415610b2657600080fd5b610b31600435611a6b565b604051600160a060020a0382166040820152606080825281906020820190820186818151815260200191508051906020019080838360005b83811015610b825780820151818401525b602001610b69565b50505050905090810190601f168015610baf5780820380516001836020036101000a031916815260200191505b50838103825285818151815260200191508051906020019080838360005b83811015610be65780820151818401525b602001610bcd565b50505050905090810190601f168015610c135780820380516001836020036101000a031916815260200191505b509550505050505060405180910390f35b3415610c2f57600080fd5b610643600160a060020a0360043516611c69565b604051808060200180602001838103835285818151815260200191508051906020019080838360005b838110156106855780820151818401525b60200161066c565b50505050905090810190601f1680156106b25780820380516001836020036101000a031916815260200191505b50838103825284818151815260200191508051906020019080838360005b838110156106e95780820151818401525b6020016106d0565b50505050905090810190601f1680156107165780820380516001836020036101000a031916815260200191505b5094505050505060405180910390f35b3415610d3157600080fd5b61057f60048035600160a060020a03169060446024803590810190830135806020601f8201819004810201604051908101604052818152929190602084018383808284378201915050505050509190803590602001908201803590602001908080601f016020809104026020016040519081016040528181529291906020840183838082843750949650611e0095505050505050565b005b3415610dd457600080fd5b610868600435611f8b565b604051600160a060020a03909116815260200160405180910390f35b3415610e0657600080fd5b610643600160a060020a0360043516611fbd565b604051808060200180602001838103835285818151815260200191508051906020019080838360005b838110156106855780820151818401525b60200161066c565b50505050905090810190601f1680156106b25780820380516001836020036101000a031916815260200191505b50838103825284818151815260200191508051906020019080838360005b838110156106e95780820151818401525b6020016106d0565b50505050905090810190601f1680156107165780820380516001836020036101000a031916815260200191505b5094505050505060405180910390f35b610f05612169565b6007805480602002602001604051908101604052809291908181526020018280548015610f5b57602002820191906000526020600020905b8154600160a060020a03168152600190910190602001808311610f3d575b505050505090505b90565b60036020526000908152604090206001810182565b60056020526000908152604090206001810182565b600160208190526000918252604090912060028101549091820190600160a060020a031683565b6000808063565a2e2c81604051602001526040518163ffffffff1660e060020a028152600401602060405180830381600087803b1515610ff657600080fd5b6102c65a03f1151561100757600080fd5b50505060405180519050600160a060020a031633600160a060020a031614151561103057600080fd5b5082600160a060020a038116639733b2b8846000604051602001526040518263ffffffff1660e060020a0281526004018080602001828103825283818151815260200191508051906020019080838360005b8381101561109b5780820151818401525b602001611082565b50505050905090810190601f1680156110c85780820380516001836020036101000a031916815260200191505b5092505050602060405180830381600087803b15156110e657600080fd5b6102c65a03f115156110f757600080fd5b50505060405180515060019250505b5092915050565b60005433600160a060020a0390811691161461112857600080fd5b600054600160a060020a0316ff5b5b565b6000805433600160a060020a0390811691161461115557600080fd5b50600160a060020a03831660009081526005602052604090208083805161118092916020019061217b565b506001810182805161119692916020019061217b565b507f3cdf985955e499413107b03adc7c7db5433c87ba6fa7a1beec377bb814138b9f338442604051600160a060020a03841681526040810182905260606020820181815290820184818151815260200191508051906020019080838360005b8381101561120e5780820151818401525b6020016111f5565b50505050905090810190601f16801561123b5780820380516001836020036101000a031916815260200191505b5094505050505060405180910390a15b5b50505050565b61125a612169565b611262612169565b61126a61220c565b600160a060020a038416600090815260036020526040908190209080519081016040529081600082018054600181600116156101000203166002900480601f0160208091040260200160405190810160405280929190818152602001828054600181600116156101000203166002900480156113275780601f106112fc57610100808354040283529160200191611327565b820191906000526020600020905b81548152906001019060200180831161130a57829003601f168201915b50505050508152602001600182018054600181600116156101000203166002900480601f0160208091040260200160405190810160405280929190818152602001828054600181600116156101000203166002900480156113c95780601f1061139e576101008083540402835291602001916113c9565b820191906000526020600020905b8154815290600101906020018083116113ac57829003601f168201915b505050505081525050905080600001519250806020015191505b50915091565b6002545b90565b6113f8612169565b6004805480602002602001604051908101604052809291908181526020018280548015610f5b57602002820191906000526020600020905b8154600160a060020a03168152600190910190602001808311610f3d575b505050505090505b90565b6000805433600160a060020a0390811691161461147557600080fd5b50600160a060020a0383166000908152600360205260409020808380516114a092916020019061217b565b50600181018280516114b692916020019061217b565b5060048054600181016114c98382612231565b916000526020600020900160005b8154600160a060020a038089166101009390930a92830292021916179055507f783e5f858212246618c02751dfbc4e502a48ca372a20f94a46d8e99fe70c998c848442604051600160a060020a03841681526040810182905260606020820181815290820184818151815260200191508051906020019080838360005b8381101561120e5780820151818401525b6020016111f5565b50505050905090810190601f16801561123b5780820380516001836020036101000a031916815260200191505b5094505050505060405180910390a15b5b50505050565b600054600160a060020a03165b90565b600054600160a060020a031681565b60068054829081106115de57fe5b906000526020600020900160005b915054906101000a9004600160a060020a031681565b61160a612169565b6006805480602002602001604051908101604052809291908181526020018280548015610f5b57602002820191906000526020600020905b8154600160a060020a03168152600190910190602001808311610f3d575b505050505090505b90565b60005433600160a060020a0390811691161461168657600080fd5b600160a060020a038116151561169b57600080fd5b6000805473ffffffffffffffffffffffffffffffffffffffff1916600160a060020a0383161790555b5b50565b6116d0612169565b6116d8612169565b6116e061220c565b6004548411156116ef57600080fd5b6003600060048681548110151561170257fe5b906000526020600020900160005b9054906101000a9004600160a060020a0316600160a060020a0316600160a060020a03168152602001908152602001600020604080519081016040529081600082018054600181600116156101000203166002900480601f0160208091040260200160405190810160405280929190818152602001828054600181600116156101000203166002900480156117e65780601f106117bb576101008083540402835291602001916117e6565b820191906000526020600020905b8154815290600101906020018083116117c957829003601f168201915b50505050508152602001600182018054600181600116156101000203166002900480601f0160208091040260200160405190810160405280929190818152602001828054600181600116156101000203166002900480156118885780601f1061185d57610100808354040283529160200191611888565b820191906000526020600020905b81548152906001019060200180831161186b57829003601f168201915b50505050508152505090508060000151816020015190935091505b50915091565b600080806360d704db81604051602001526040518163ffffffff1660e060020a028152600401602060405180830381600087803b15156118e857600080fd5b6102c65a03f115156118f957600080fd5b50505060405180519050600160a060020a031633600160a060020a031614151561192257600080fd5b5083600160a060020a03811663941e9bfb85856000604051602001526040518363ffffffff1660e060020a028152600401808060200180602001838103835285818151815260200191508051906020019080838360005b838110156119925780820151818401525b602001611979565b50505050905090810190601f1680156119bf5780820380516001836020036101000a031916815260200191505b50838103825284818151815260200191508051906020019080838360005b838110156119f65780820151818401525b6020016119dd565b50505050905090810190601f168015611a235780820380516001836020036101000a031916815260200191505b50945050505050602060405180830381600087803b1515611a4357600080fd5b6102c65a03f11515611a5457600080fd5b50505060405180515060019250505b509392505050565b611a73612169565b611a7b612169565b6000611a8561225b565b6002548510611a9357600080fd5b60016000600287815481101515611aa657fe5b906000526020600020900160005b9054906101000a9004600160a060020a0316600160a060020a0316600160a060020a0316815260200190815260200160002060606040519081016040529081600082018054600181600116156101000203166002900480601f016020809104026020016040519081016040528092919081815260200182805460018160011615610100020316600290048015611b8b5780601f10611b6057610100808354040283529160200191611b8b565b820191906000526020600020905b815481529060010190602001808311611b6e57829003601f168201915b50505050508152602001600182018054600181600116156101000203166002900480601f016020809104026020016040519081016040528092919081815260200182805460018160011615610100020316600290048015611c2d5780601f10611c0257610100808354040283529160200191611c2d565b820191906000526020600020905b815481529060010190602001808311611c1057829003601f168201915b505050918352505060029190910154600160a060020a03166020909101529050805181602001518260400151919550935091505b509193909250565b611c71612169565b611c79612169565b611c8161220c565b600160a060020a038416600090815260056020526040908190209080519081016040529081600082018054600181600116156101000203166002900480601f0160208091040260200160405190810160405280929190818152602001828054600181600116156101000203166002900480156113275780601f106112fc57610100808354040283529160200191611327565b820191906000526020600020905b81548152906001019060200180831161130a57829003601f168201915b50505050508152602001600182018054600181600116156101000203166002900480601f0160208091040260200160405190810160405280929190818152602001828054600181600116156101000203166002900480156113c95780601f1061139e576101008083540402835291602001916113c9565b820191906000526020600020905b8154815290600101906020018083116113ac57829003601f168201915b505050505081525050905080600001519250806020015191505b50915091565b6000805433600160a060020a03908116911614611e1c57600080fd5b50600160a060020a038316600090815260016020526040902080838051611e4792916020019061217b565b5060018101828051611e5d92916020019061217b565b506002818101805473ffffffffffffffffffffffffffffffffffffffff1916600160a060020a038716179055805460018101611e998382612231565b916000526020600020900160005b8154600160a060020a038089166101009390930a92830292021916179055507fb3bb6454838f769878c9da3dacefc82660ff82c898c373385ad5e32c9aa4767433858542604051600160a060020a038086168252841660208201526060810182905260806040820181815290820184818151815260200191508051906020019080838360005b83811015611f465780820151818401525b602001611f2d565b50505050905090810190601f168015611f735780820380516001836020036101000a031916815260200191505b509550505050505060405180910390a15b5b50505050565b60078054829081106115de57fe5b906000526020600020900160005b915054906101000a9004600160a060020a031681565b611fc5612169565b611fcd612169565b611fd561225b565b600160a060020a0384166000908152600160205260409081902090606090519081016040529081600082018054600181600116156101000203166002900480601f0160208091040260200160405190810160405280929190818152602001828054600181600116156101000203166002900480156120945780601f1061206957610100808354040283529160200191612094565b820191906000526020600020905b81548152906001019060200180831161207757829003601f168201915b50505050508152602001600182018054600181600116156101000203166002900480601f0160208091040260200160405190810160405280929190818152602001828054600181600116156101000203166002900480156121365780601f1061210b57610100808354040283529160200191612136565b820191906000526020600020905b81548152906001019060200180831161211957829003601f168201915b505050918352505060029190910154600160a060020a031660209091015290508051816020015190935091505b50915091565b60206040519081016040526000815290565b828054600181600116156101000203166002900490600052602060002090601f016020900481019282601f106121bc57805160ff19168380011785556121e9565b828001600101855582156121e9579182015b828111156121e95782518255916020019190600101906121ce565b5b506121f69291506122ae565b5090565b60206040519081016040526000815290565b604080519081016040528061221f612169565b815260200161222c612169565b905290565b815481835581811511612255576000838152602090206122559181019083016122ae565b5b505050565b60606040519081016040528061226f612169565b815260200161227c612169565b8152600060209091015290565b604080519081016040528061221f612169565b815260200161222c612169565b905290565b610f6391905b808211156121f657600081556001016122b4565b5090565b90565b602060405190810160405260008152905600a165627a7a7230582020a9a82aa371b5ad922ab238276d67b2b13921cf414ff42d76c60989fcd670830029",
  "source": "pragma solidity ^0.4.13;\r\n\r\nimport \"./Ownable.sol\";\r\nimport \"./GuaranteeConst.sol\";\r\nimport \"./IssuerManager.sol\";\r\nimport \"./BeneficiaryManager.sol\";\r\nimport \"./CustomerManager.sol\";\r\nimport \"./GuaranteeRequest.sol\";\r\n//\r\n////###\r\n//// general contract for better operations of the system\r\n////###\r\n//contract owned {\r\n//    //owner address for ownership validation\r\n//    address owner;\r\n//\r\n//    //constractor to verify real owner assignment\r\n//    function owned() {\r\n//        owner = msg.sender;\r\n//        log(\"owner=\",owner);\r\n//    }\r\n//\r\n//    //owner check modifier\r\n//    modifier onlyOwner {\r\n//        require(msg.sender == owner);\r\n//        _;\r\n//    }\r\n//\r\n//    //contract distruction by owner only\r\n//    function close() onlyOwner {\r\n//        log(\"##contract closed by owner=\",owner);\r\n//        selfdestruct(owner);\r\n//    }\r\n//\r\n//    //constractor to verify real owner assignment\r\n//    function getOwner() constant returns (address){\r\n//        return owner ;\r\n//    }\r\n//    //log event for debug purposes\r\n//    event log(string loga, address logb);\r\n//}\r\n\r\n\r\ncontract Regulator is Ownable,IssuerManager,BeneficiaryManager,CustomerManager,GuaranteeConst {\r\n//is Ownable,IssuerManager,BeneficiaryManager,CustomerManager,GuaranteeConst{\r\n\r\n    //guarantee request states\r\n    address [] public  guaranteeRequests;\r\n    address [] public  guarantees;\r\n\r\n\r\n    event RegulatoryContractDeployed (address msgSender,string msgstr,uint timestamp);\r\n    function Regulator(){\r\n//        owner = msg.sender;\r\n//\r\n\r\n//        submitBeneficiary(msg.sender,\"  -\",\"  69  -\");\r\n//        submitCustomer(msg.sender,\" \",\" 11  \");\r\n//        submitIssuer(msg.sender,\" \",\" 11  \");\r\n        RegulatoryContractDeployed(msg.sender,\"Mined\",now);\r\n    }\r\n\r\n\r\n    function getRequestAddresses() public constant returns (address[])\r\n    {\r\n        return guaranteeRequests;\r\n\r\n    }\r\n\r\n    function getGuaranteeAddresses() public constant returns (address[])\r\n    {\r\n        return guarantees;\r\n\r\n    }\r\n\r\n\r\n\r\n\r\n//    function getRequestsAddressForCustomer() public constant returns (address[])\r\n//    {\r\n//        return customers[msg.sender].guaranteeRequests;\r\n//\r\n//    }\r\n//\r\n//    function getRequestsAddressForIssuer() public constant returns (address[])\r\n//    {\r\n//        return issuers[msg.sender].guaranteeRequests;\r\n//\r\n//    }\r\n//\r\n//  function getGuarantieAddressForBeneficiary() public constant returns (address[])\r\n//  {\r\n//    return issuers[msg.sender].guaranteeRequests;\r\n//\r\n//  }\r\n\r\n\r\n//    function getActiveGuaranteesAddress() constant returns (string[])\r\n//    {\r\n//        string[] memory _guarantees = new string();\r\n//\r\n//                for(uint32 i=0; i<guaranteeRequests.length; i++) {\r\n//                    if(GuaranteeRequestExtender(guaranteeRequests[i]).getRequestState()==RequestState.accepted)\r\n//                    _guarantees.push(guaranteeRequests[i]);\r\n//                }\r\n//                return _guarantees;\r\n//\r\n//    }\r\n\r\n\r\n//    function createGuaranteeRequest(address _customer ,address _bank ,address _beneficiary ,bytes32 _purpose,\r\n//    uint _amount, uint _startDate,uint _endDate,IndexType _indexType,uint _indexDate)  public returns (address)\r\n//    {\r\n//        GuaranteeRequest greq=new  GuaranteeRequest(this,_customer,_bank ,_beneficiary,_purpose,_amount,_startDate,_endDate,_indexType ,_indexDate);\r\n//        guaranteeRequests.push(address(greq));\r\n//\r\n//        return address(greq);\r\n//    }\r\n\r\n\r\n    function terminateGuarantee(address  _guaranteeRequest,string comment)  returns (bool)\r\n    {\r\n        require(msg.sender == ge.getBeneficiary());\r\n\r\n        GuaranteeRequestExtender ge=GuaranteeRequestExtender(_guaranteeRequest);\r\n\r\n        ge.termination(comment) ;\r\n        return true;\r\n\r\n\r\n    }\r\n\r\n    function accept(address  _guaranteeRequest,string comment,bytes _guaranteeIPFSHash)  returns (bool)\r\n    {\r\n        require(msg.sender == ge.getBank());\r\n\r\n        GuaranteeRequestExtender ge=GuaranteeRequestExtender(_guaranteeRequest);\r\n        ge.accept(comment,_guaranteeIPFSHash) ;\r\n\r\n        return true;\r\n\r\n    }\r\n\r\n\r\n\r\n//    function changeGuarantee(address  _guaranteeRequest ,uint _newamount, uint _newendDate, string _comment)  returns (bool)  //onlyBeneficiary\r\n//    {\r\n//        if (ge.getBeneficiary()!=msg.sender) throw;\r\n//            GuaranteeExtender ge=GuaranteeExtender(_guaranteeRequest);\r\n//\r\n//        {\r\n//            ( address _contract_id,address _customer,address _bank, address _beneficiary,\r\n//            string _purpose,uint _amount,uint _startDate,uint _endDate,IndexType _indexType,\r\n//            uint _indexDate,RequestState _status) = ge.getGuaranteeRequestData();\r\n//            if (_status==RequestState.accepted && _amount>=_newamount && _newendDate<=_endDate)\r\n//            {\r\n//                address addr=new GuaranteeRequest(this,_customer,_bank ,_beneficiary,_purpose,_amount,_startDate,_endDate,_indexType ,_indexDate);\r\n//                ge.\r\n//                guaranteeRequests.push(addr);\r\n//                return addr;\r\n//            }\r\n//\r\n//        }\r\n//\r\n//\r\n//\r\n//    .endRequest(_comment)\r\n//        guaranteeRequests.push(addr);\r\n//        return addr;\r\n//\r\n//        return true;\r\n//    }\r\n\r\n//    function submit(string comment) onlyCustomer public returns (bool result) ;\r\n//    function termination(string comment) onlyBeneficiary public returns (bool result);\r\n//    function reject(string comment) onlyBank public returns (bool result);\r\n//    function withdrawal(string comment) onlyCustomer public returns (bool result);\r\n//    function bankStateChange(string comment ,RequestState _newState) onlyBank public returns (bool result);\r\n\r\n\r\n\r\n\r\n}\r\n",
  "sourcePath": "/D/Projects/Poalim-Innov/contracts/Regulator.sol",
  "schemaVersion": "1.0.0",
  "updatedAt": "2017-10-02T09:18:27.003Z"
}