{
  "contractName": "Regulator",
  "abi": [
    {
      "constant": true,
      "inputs": [
        {
          "name": "",
          "type": "address"
        }
      ],
      "name": "beneficiaries",
      "outputs": [
        {
          "name": "name",
          "type": "string"
        },
        {
          "name": "localAddress",
          "type": "string"
        }
      ],
      "payable": false,
      "type": "function"
    },
    {
      "constant": false,
      "inputs": [
        {
          "name": "_guaranteeRequest",
          "type": "address"
        }
      ],
      "name": "requestGuaranteeSign",
      "outputs": [],
      "payable": false,
      "type": "function"
    },
    {
      "constant": false,
      "inputs": [
        {
          "name": "_guaranteeRequest",
          "type": "address"
        },
        {
          "name": "_guaranteeIPFSHash",
          "type": "bytes"
        }
      ],
      "name": "GuaranteeSignComplite",
      "outputs": [
        {
          "name": "",
          "type": "address"
        }
      ],
      "payable": false,
      "type": "function"
    },
    {
      "constant": true,
      "inputs": [
        {
          "name": "",
          "type": "address"
        }
      ],
      "name": "customers",
      "outputs": [
        {
          "name": "name",
          "type": "string"
        },
        {
          "name": "localAddress",
          "type": "string"
        }
      ],
      "payable": false,
      "type": "function"
    },
    {
      "constant": true,
      "inputs": [
        {
          "name": "",
          "type": "address"
        }
      ],
      "name": "issuers",
      "outputs": [
        {
          "name": "name",
          "type": "string"
        },
        {
          "name": "localAddress",
          "type": "string"
        },
        {
          "name": "addr",
          "type": "address"
        }
      ],
      "payable": false,
      "type": "function"
    },
    {
      "constant": true,
      "inputs": [],
      "name": "getRequestAddressList",
      "outputs": [
        {
          "name": "",
          "type": "address[]"
        }
      ],
      "payable": false,
      "type": "function"
    },
    {
      "constant": false,
      "inputs": [],
      "name": "close",
      "outputs": [],
      "payable": false,
      "type": "function"
    },
    {
      "constant": false,
      "inputs": [
        {
          "name": "_addr",
          "type": "address"
        },
        {
          "name": "_name",
          "type": "string"
        },
        {
          "name": "_localAddres",
          "type": "string"
        }
      ],
      "name": "submitCustomer",
      "outputs": [],
      "payable": false,
      "type": "function"
    },
    {
      "constant": true,
      "inputs": [
        {
          "name": "_addr",
          "type": "address"
        }
      ],
      "name": "getBeneficiary",
      "outputs": [
        {
          "name": "_name",
          "type": "string"
        },
        {
          "name": "_localAddress",
          "type": "string"
        }
      ],
      "payable": false,
      "type": "function"
    },
    {
      "constant": true,
      "inputs": [],
      "name": "getIssuerCounter",
      "outputs": [
        {
          "name": "",
          "type": "uint256"
        }
      ],
      "payable": false,
      "type": "function"
    },
    {
      "constant": false,
      "inputs": [
        {
          "name": "_guaranteeRequest",
          "type": "address"
        }
      ],
      "name": "addGuaranteeRequest",
      "outputs": [],
      "payable": false,
      "type": "function"
    },
    {
      "constant": true,
      "inputs": [],
      "name": "getBeneficiaryAddresses",
      "outputs": [
        {
          "name": "",
          "type": "address[]"
        }
      ],
      "payable": false,
      "type": "function"
    },
    {
      "constant": false,
      "inputs": [
        {
          "name": "_addr",
          "type": "address"
        },
        {
          "name": "_name",
          "type": "string"
        },
        {
          "name": "_localAddres",
          "type": "string"
        }
      ],
      "name": "submitBeneficiary",
      "outputs": [],
      "payable": false,
      "type": "function"
    },
    {
      "constant": true,
      "inputs": [],
      "name": "getOwner",
      "outputs": [
        {
          "name": "",
          "type": "address"
        }
      ],
      "payable": false,
      "type": "function"
    },
    {
      "constant": true,
      "inputs": [],
      "name": "owner",
      "outputs": [
        {
          "name": "",
          "type": "address"
        }
      ],
      "payable": false,
      "type": "function"
    },
    {
      "constant": true,
      "inputs": [
        {
          "name": "",
          "type": "uint256"
        }
      ],
      "name": "guaranteeRequests",
      "outputs": [
        {
          "name": "",
          "type": "address"
        }
      ],
      "payable": false,
      "type": "function"
    },
    {
      "constant": false,
      "inputs": [
        {
          "name": "_newOwner",
          "type": "address"
        }
      ],
      "name": "changeOwner",
      "outputs": [],
      "payable": false,
      "type": "function"
    },
    {
      "constant": true,
      "inputs": [
        {
          "name": "_id",
          "type": "uint256"
        }
      ],
      "name": "getBeneficiaryById",
      "outputs": [
        {
          "name": "_name",
          "type": "string"
        },
        {
          "name": "_localAddress",
          "type": "string"
        }
      ],
      "payable": false,
      "type": "function"
    },
    {
      "constant": false,
      "inputs": [
        {
          "name": "_guaranteeRequest",
          "type": "address"
        },
        {
          "name": "_guarantee",
          "type": "address"
        }
      ],
      "name": "terminateGuarantee",
      "outputs": [],
      "payable": false,
      "type": "function"
    },
    {
      "constant": true,
      "inputs": [
        {
          "name": "_id",
          "type": "uint256"
        }
      ],
      "name": "getIssuerById",
      "outputs": [
        {
          "name": "",
          "type": "string"
        },
        {
          "name": "",
          "type": "string"
        },
        {
          "name": "",
          "type": "address"
        }
      ],
      "payable": false,
      "type": "function"
    },
    {
      "constant": true,
      "inputs": [],
      "name": "getGuaranteeAddressesList",
      "outputs": [
        {
          "name": "",
          "type": "address[]"
        }
      ],
      "payable": false,
      "type": "function"
    },
    {
      "constant": true,
      "inputs": [
        {
          "name": "_addr",
          "type": "address"
        }
      ],
      "name": "getCustomer",
      "outputs": [
        {
          "name": "_name",
          "type": "string"
        },
        {
          "name": "_localAddress",
          "type": "string"
        }
      ],
      "payable": false,
      "type": "function"
    },
    {
      "constant": false,
      "inputs": [
        {
          "name": "_guaranteeRequest",
          "type": "address"
        },
        {
          "name": "_guarantee",
          "type": "address"
        },
        {
          "name": "_newamount",
          "type": "uint256"
        },
        {
          "name": "_newendDate",
          "type": "uint256"
        },
        {
          "name": "_comment",
          "type": "string"
        }
      ],
      "name": "changeGuarantee",
      "outputs": [
        {
          "name": "",
          "type": "bool"
        }
      ],
      "payable": false,
      "type": "function"
    },
    {
      "constant": false,
      "inputs": [
        {
          "name": "_addr",
          "type": "address"
        },
        {
          "name": "_name",
          "type": "string"
        },
        {
          "name": "_localAddres",
          "type": "string"
        }
      ],
      "name": "submitIssuer",
      "outputs": [],
      "payable": false,
      "type": "function"
    },
    {
      "constant": true,
      "inputs": [
        {
          "name": "",
          "type": "uint256"
        }
      ],
      "name": "guarantees",
      "outputs": [
        {
          "name": "",
          "type": "address"
        }
      ],
      "payable": false,
      "type": "function"
    },
    {
      "constant": true,
      "inputs": [
        {
          "name": "_addr",
          "type": "address"
        }
      ],
      "name": "getIssuer",
      "outputs": [
        {
          "name": "",
          "type": "string"
        },
        {
          "name": "",
          "type": "string"
        }
      ],
      "payable": false,
      "type": "function"
    },
    {
      "inputs": [],
      "payable": false,
      "type": "constructor"
    },
    {
      "anonymous": false,
      "inputs": [
        {
          "indexed": false,
          "name": "msgSender",
          "type": "address"
        },
        {
          "indexed": false,
          "name": "msgstr",
          "type": "string"
        },
        {
          "indexed": false,
          "name": "timestamp",
          "type": "uint256"
        }
      ],
      "name": "RegulatoryContractDeployed",
      "type": "event"
    },
    {
      "anonymous": false,
      "inputs": [
        {
          "indexed": false,
          "name": "_guaranteeRequest",
          "type": "address"
        },
        {
          "indexed": false,
          "name": "path",
          "type": "string"
        }
      ],
      "name": "RequestGuaranteeSign",
      "type": "event"
    },
    {
      "anonymous": false,
      "inputs": [
        {
          "indexed": false,
          "name": "message",
          "type": "string"
        },
        {
          "indexed": false,
          "name": "logb",
          "type": "address"
        }
      ],
      "name": "loga",
      "type": "event"
    },
    {
      "anonymous": false,
      "inputs": [
        {
          "indexed": false,
          "name": "message",
          "type": "string"
        },
        {
          "indexed": false,
          "name": "logb",
          "type": "string"
        }
      ],
      "name": "log",
      "type": "event"
    },
    {
      "anonymous": false,
      "inputs": [
        {
          "indexed": false,
          "name": "msgSender",
          "type": "address"
        },
        {
          "indexed": false,
          "name": "msgstr",
          "type": "string"
        },
        {
          "indexed": false,
          "name": "timestamp",
          "type": "uint256"
        }
      ],
      "name": "AddCustomer",
      "type": "event"
    },
    {
      "anonymous": false,
      "inputs": [
        {
          "indexed": false,
          "name": "msgSender",
          "type": "address"
        },
        {
          "indexed": false,
          "name": "_name",
          "type": "string"
        },
        {
          "indexed": false,
          "name": "timestamp",
          "type": "uint256"
        }
      ],
      "name": "AddBeneficiary",
      "type": "event"
    },
    {
      "anonymous": false,
      "inputs": [
        {
          "indexed": false,
          "name": "msgSender",
          "type": "address"
        },
        {
          "indexed": false,
          "name": "issuerAdr",
          "type": "address"
        },
        {
          "indexed": false,
          "name": "msgstr",
          "type": "string"
        },
        {
          "indexed": false,
          "name": "timestamp",
          "type": "uint256"
        }
      ],
      "name": "AddIssuer",
      "type": "event"
    }
  ],
  "bytecode": "0x606060405260008054600160a060020a03191633600160a060020a0316179055341561002a57600080fd5b5b7f6c5cfd2de0086551b837a725d5f6a57e13b35c87eb326858461381e854a3a5a13342604051600160a060020a0390921682526040808301919091526060602083018190526005908301527f4d696e6564000000000000000000000000000000000000000000000000000000608083015260a0909101905180910390a15b5b61313d806100b96000396000f30060606040523615620001535763ffffffff60e060020a600035041663015677398114620001585780631b5baf89146200028557806323e2e3f914620002a9578063336989ae146200032757806338a7543e14620004545780633dce5fdb146200059157806343d726d614620005fd5780634d93c0c31462000615578063505a1b3114620006bb57806356d58ef514620007c6578063666d507014620007ee5780637cb30670146200081257806383a2d050146200087e578063893d20e814620009245780638da5cb5b14620009565780639c5a88d41462000988578063a6f9dae114620009bd578063aa0a57ab14620009e1578063b084ab4e1462000ae3578063b643e5871462000b0d578063c1e927861462000c1f578063cb949e511462000c8b578063d1dea1f31462000d96578063dc1985871462000e1e578063df754f111462000ec4578063fef03da31462000ef9575b600080fd5b34156200016457600080fd5b6200017a600160a060020a036004351662001004565b604051604080825283546002600019610100600184161502019091160490820181905281906020820190606083019086908015620001fc5780601f10620001d057610100808354040283529160200191620001fc565b820191906000526020600020905b815481529060010190602001808311620001de57829003601f168201915b5050838103825284546002600019610100600184161502019091160480825260209091019085908015620002745780601f10620002485761010080835404028352916020019162000274565b820191906000526020600020905b8154815290600101906020018083116200025657829003601f168201915b505094505050505060405180910390f35b34156200029157600080fd5b620002a7600160a060020a036004351662001019565b005b3415620002b557600080fd5b6200030b60048035600160a060020a03169060446024803590810190830135806020601f82018190048102016040519081016040528181529291906020840183838082843750949650620010e995505050505050565b604051600160a060020a03909116815260200160405180910390f35b34156200033357600080fd5b6200017a600160a060020a03600435166200127d565b604051604080825283546002600019610100600184161502019091160490820181905281906020820190606083019086908015620001fc5780601f10620001d057610100808354040283529160200191620001fc565b820191906000526020600020905b815481529060010190602001808311620001de57829003601f168201915b5050838103825284546002600019610100600184161502019091160480825260209091019085908015620002745780601f10620002485761010080835404028352916020019162000274565b820191906000526020600020905b8154815290600101906020018083116200025657829003601f168201915b505094505050505060405180910390f35b34156200046057600080fd5b62000476600160a060020a036004351662001292565b604051600160a060020a0382166040820152606080825284546002600019610100600184161502019091160490820181905281906020820190608083019087908015620005075780601f10620004db5761010080835404028352916020019162000507565b820191906000526020600020905b815481529060010190602001808311620004e957829003601f168201915b50508381038252855460026000196101006001841615020190911604808252602090910190869080156200057f5780601f1062000553576101008083540402835291602001916200057f565b820191906000526020600020905b8154815290600101906020018083116200056157829003601f168201915b50509550505050505060405180910390f35b34156200059d57600080fd5b620005a7620012b9565b60405160208082528190810183818151815260200191508051906020019060200280838360005b83811015620005e95780820151818401525b602001620005ce565b505050509050019250505060405180910390f35b34156200060957600080fd5b620002a762001326565b005b34156200062157600080fd5b620002a760048035600160a060020a03169060446024803590810190830135806020601f8201819004810201604051908101604052818152929190602084018383808284378201915050505050509190803590602001908201803590602001908080601f0160208091040260200160405190810160405281815292919060208401838380828437509496506200135395505050505050565b005b3415620006c757600080fd5b620006dd600160a060020a036004351662001474565b604051808060200180602001838103835285818151815260200191508051906020019080838360005b83811015620007215780820151818401525b60200162000706565b50505050905090810190601f1680156200074f5780820380516001836020036101000a031916815260200191505b50838103825284818151815260200191508051906020019080838360005b83811015620007885780820151818401525b6020016200076d565b50505050905090810190601f168015620007b65780820380516001836020036101000a031916815260200191505b5094505050505060405180910390f35b3415620007d257600080fd5b620007dc62001619565b60405190815260200160405180910390f35b3415620007fa57600080fd5b620002a7600160a060020a036004351662001620565b005b34156200081e57600080fd5b620005a7620017ab565b60405160208082528190810183818151815260200191508051906020019060200280838360005b83811015620005e95780820151818401525b602001620005ce565b505050509050019250505060405180910390f35b34156200088a57600080fd5b620002a760048035600160a060020a03169060446024803590810190830135806020601f8201819004810201604051908101604052818152929190602084018383808284378201915050505050509190803590602001908201803590602001908080601f0160208091040260200160405190810160405281815292919060208401838380828437509496506200181895505050505050565b005b34156200093057600080fd5b6200030b6200197a565b604051600160a060020a03909116815260200160405180910390f35b34156200096257600080fd5b6200030b6200198a565b604051600160a060020a03909116815260200160405180910390f35b34156200099457600080fd5b6200030b60043562001999565b604051600160a060020a03909116815260200160405180910390f35b3415620009c957600080fd5b620002a7600160a060020a0360043516620019cc565b005b3415620009ed57600080fd5b620006dd60043562001a2b565b604051808060200180602001838103835285818151815260200191508051906020019080838360005b83811015620007215780820151818401525b60200162000706565b50505050905090810190601f1680156200074f5780820380516001836020036101000a031916815260200191505b50838103825284818151815260200191508051906020019080838360005b83811015620007885780820151818401525b6020016200076d565b50505050905090810190601f168015620007b65780820380516001836020036101000a031916815260200191505b5094505050505060405180910390f35b341562000aef57600080fd5b620002a7600160a060020a036004358116906024351662001c1c565b005b341562000b1957600080fd5b62000b2660043562001dfd565b604051600160a060020a0382166040820152606080825281906020820190820186818151815260200191508051906020019080838360005b8381101562000b795780820151818401525b60200162000b5e565b50505050905090810190601f16801562000ba75780820380516001836020036101000a031916815260200191505b50838103825285818151815260200191508051906020019080838360005b8381101562000be05780820151818401525b60200162000bc5565b50505050905090810190601f16801562000c0e5780820380516001836020036101000a031916815260200191505b509550505050505060405180910390f35b341562000c2b57600080fd5b620005a76200200b565b60405160208082528190810183818151815260200191508051906020019060200280838360005b83811015620005e95780820151818401525b602001620005ce565b505050509050019250505060405180910390f35b341562000c9757600080fd5b620006dd600160a060020a036004351662002078565b604051808060200180602001838103835285818151815260200191508051906020019080838360005b83811015620007215780820151818401525b60200162000706565b50505050905090810190601f1680156200074f5780820380516001836020036101000a031916815260200191505b50838103825284818151815260200191508051906020019080838360005b83811015620007885780820151818401525b6020016200076d565b50505050905090810190601f168015620007b65780820380516001836020036101000a031916815260200191505b5094505050505060405180910390f35b341562000da257600080fd5b62000e0a600160a060020a0360048035821691602480359091169160443591606435919060a49060843590810190830135806020601f820181900481020160405190810160405281815292919060208401838380828437509496506200221d95505050505050565b604051901515815260200160405180910390f35b341562000e2a57600080fd5b620002a760048035600160a060020a03169060446024803590810190830135806020601f8201819004810201604051908101604052818152929190602084018383808284378201915050505050509190803590602001908201803590602001908080601f0160208091040260200160405190810160405281815292919060208401838380828437509496506200222995505050505050565b005b341562000ed057600080fd5b6200030b600435620023be565b604051600160a060020a03909116815260200160405180910390f35b341562000f0557600080fd5b620006dd600160a060020a0360043516620023f1565b604051808060200180602001838103835285818151815260200191508051906020019080838360005b83811015620007215780820151818401525b60200162000706565b50505050905090810190601f1680156200074f5780820380516001836020036101000a031916815260200191505b50838103825284818151815260200191508051906020019080838360005b83811015620007885780820151818401525b6020016200076d565b50505050905090810190601f168015620007b65780820380516001836020036101000a031916815260200191505b5094505050505060405180910390f35b60036020526000908152604090206001810182565b8060065b81600160a060020a031663a39152f26000604051602001526040518163ffffffff1660e060020a028152600401602060405180830381600087803b15156200106457600080fd5b6102c65a03f115156200107657600080fd5b5050506040518051905060098111156200108c57fe5b146200109757600080fd5b7f0fcc7a2bd6bb0e467bc2d214a4846ecbcf937dff278f5d4cb96ca6530ed889bb82604051600160a060020a0390911681526040602082018190526000818301526080909101905180910390a15b5050565b6000828160065b82600160a060020a031663a39152f26000604051602001526040518163ffffffff1660e060020a028152600401602060405180830381600087803b15156200113757600080fd5b6102c65a03f115156200114957600080fd5b5050506040518051905060098111156200115f57fe5b1480156200117357506200117384620025ab565b5b15156200118057600080fd5b8430856200118d620025c9565b600160a060020a0380851682528316602082015260606040820181815290820183818151815260200191508051906020019080838360005b83811015620011e05780820151818401525b602001620011c5565b50505050905090810190601f1680156200120e5780820380516001836020036101000a031916815260200191505b50945050505050604051809103906000f08015156200122c57600080fd5b905060078054806001018281620012449190620025da565b916000526020600020900160005b8154600160a060020a038086166101009390930a92830292021916179055509150815b505092915050565b60056020526000908152604090206001810182565b600160208190526000918252604090912060028101549091820190600160a060020a031683565b620012c362002607565b60068054806020026020016040519081016040528092919081815260200182805480156200131b57602002820191906000526020600020905b8154600160a060020a03168152600190910190602001808311620012fc575b505050505090505b90565b60005433600160a060020a039081169116146200134257600080fd5b600054600160a060020a0316ff5b5b565b6000805433600160a060020a039081169116146200137057600080fd5b50600160a060020a0383166000908152600560205260409020808380516200139d92916020019062002619565b5060018101828051620013b592916020019062002619565b507f3cdf985955e499413107b03adc7c7db5433c87ba6fa7a1beec377bb814138b9f338442604051600160a060020a03841681526040810182905260606020820181815290820184818151815260200191508051906020019080838360005b838110156200142f5780820151818401525b60200162001414565b50505050905090810190601f1680156200145d5780820380516001836020036101000a031916815260200191505b5094505050505060405180910390a15b5b50505050565b6200147e62002607565b6200148862002607565b62001492620026b1565b600160a060020a038416600090815260036020526040908190209080519081016040529081600082018054600181600116156101000203166002900480601f016020809104026020016040519081016040528092919081815260200182805460018160011615610100020316600290048015620015535780601f10620015275761010080835404028352916020019162001553565b820191906000526020600020905b8154815290600101906020018083116200153557829003601f168201915b50505050508152602001600182018054600181600116156101000203166002900480601f016020809104026020016040519081016040528092919081815260200182805460018160011615610100020316600290048015620015f95780601f10620015cd57610100808354040283529160200191620015f9565b820191906000526020600020905b815481529060010190602001808311620015db57829003601f168201915b505050505081525050905080600001519250806020015191505b50915091565b6002545b90565b80600160a060020a03811663650d993b6000604051602001526040518163ffffffff1660e060020a028152600401602060405180830381600087803b15156200166857600080fd5b6102c65a03f115156200167a57600080fd5b50505060405180519050600160a060020a031633600160a060020a031614801562001704575080600160a060020a031663bb5d40eb6000604051602001526040518163ffffffff1660e060020a028152600401602060405180830381600087803b1515620016e757600080fd5b6102c65a03f11515620016f957600080fd5b505050604051805190505b15156200171057600080fd5b80600160a060020a0316634a0b20aa6040518163ffffffff1660e060020a028152600401600060405180830381600087803b15156200174e57600080fd5b6102c65a03f115156200176057600080fd5b50505060068054806001018281620017799190620025da565b916000526020600020900160005b8154600160a060020a038087166101009390930a92830292021916179055505b5050565b620017b562002607565b60048054806020026020016040519081016040528092919081815260200182805480156200131b57602002820191906000526020600020905b8154600160a060020a03168152600190910190602001808311620012fc575b505050505090505b90565b6000805433600160a060020a039081169116146200183557600080fd5b50600160a060020a0383166000908152600360205260409020808380516200186292916020019062002619565b50600181018280516200187a92916020019062002619565b5060048054600181016200188f8382620025da565b916000526020600020900160005b8154600160a060020a038089166101009390930a92830292021916179055507f783e5f858212246618c02751dfbc4e502a48ca372a20f94a46d8e99fe70c998c848442604051600160a060020a03841681526040810182905260606020820181815290820184818151815260200191508051906020019080838360005b838110156200142f5780820151818401525b60200162001414565b50505050905090810190601f1680156200145d5780820380516001836020036101000a031916815260200191505b5094505050505060405180910390a15b5b50505050565b600054600160a060020a03165b90565b600054600160a060020a031681565b6006805482908110620019a857fe5b906000526020600020900160005b915054906101000a9004600160a060020a031681565b60005433600160a060020a03908116911614620019e857600080fd5b600160a060020a0381161515620019fe57600080fd5b6000805473ffffffffffffffffffffffffffffffffffffffff1916600160a060020a0383161790555b5b50565b62001a3562002607565b62001a3f62002607565b62001a49620026b1565b60045484111562001a5957600080fd5b6003600060048681548110151562001a6d57fe5b906000526020600020900160005b9054906101000a9004600160a060020a0316600160a060020a0316600160a060020a03168152602001908152602001600020604080519081016040529081600082018054600181600116156101000203166002900480601f01602080910402602001604051908101604052809291908181526020018280546001816001161561010002031660029004801562001b555780601f1062001b295761010080835404028352916020019162001b55565b820191906000526020600020905b81548152906001019060200180831162001b3757829003601f168201915b50505050508152602001600182018054600181600116156101000203166002900480601f01602080910402602001604051908101604052809291908181526020018280546001816001161561010002031660029004801562001bfb5780601f1062001bcf5761010080835404028352916020019162001bfb565b820191906000526020600020905b81548152906001019060200180831162001bdd57829003601f168201915b50505050508152505090508060000151816020015190935091505b50915091565b8160065b81600160a060020a031663a39152f26000604051602001526040518163ffffffff1660e060020a028152600401602060405180830381600087803b151562001c6757600080fd5b6102c65a03f1151562001c7957600080fd5b50505060405180519050600981111562001c8f57fe5b14801562001d10575080600160a060020a031663565a2e2c6000604051602001526040518163ffffffff1660e060020a028152600401602060405180830381600087803b151562001cdf57600080fd5b6102c65a03f1151562001cf157600080fd5b50505060405180519050600160a060020a031633600160a060020a0316145b801562001d255750600160a060020a03821615155b151562001d3157600080fd5b80600160a060020a0316630c08bf886000604051602001526040518163ffffffff1660e060020a028152600401602060405180830381600087803b151562001d7857600080fd5b6102c65a03f1151562001d8a57600080fd5b50505060405180515050600160a060020a038216630c08bf886000604051602001526040518163ffffffff1660e060020a028152600401602060405180830381600087803b151562001ddb57600080fd5b6102c65a03f1151562001ded57600080fd5b505050604051805150505b505050565b62001e0762002607565b62001e1162002607565b600062001e1d620026da565b600254851062001e2c57600080fd5b6001600060028781548110151562001e4057fe5b906000526020600020900160005b9054906101000a9004600160a060020a0316600160a060020a0316600160a060020a0316815260200190815260200160002060606040519081016040529081600082018054600181600116156101000203166002900480601f01602080910402602001604051908101604052809291908181526020018280546001816001161561010002031660029004801562001f295780601f1062001efd5761010080835404028352916020019162001f29565b820191906000526020600020905b81548152906001019060200180831162001f0b57829003601f168201915b50505050508152602001600182018054600181600116156101000203166002900480601f01602080910402602001604051908101604052809291908181526020018280546001816001161561010002031660029004801562001fcf5780601f1062001fa35761010080835404028352916020019162001fcf565b820191906000526020600020905b81548152906001019060200180831162001fb157829003601f168201915b505050918352505060029190910154600160a060020a03166020909101529050805181602001518260400151919550935091505b509193909250565b6200201562002607565b60078054806020026020016040519081016040528092919081815260200182805480156200131b57602002820191906000526020600020905b8154600160a060020a03168152600190910190602001808311620012fc575b505050505090505b90565b6200208262002607565b6200208c62002607565b62002096620026b1565b600160a060020a038416600090815260056020526040908190209080519081016040529081600082018054600181600116156101000203166002900480601f016020809104026020016040519081016040528092919081815260200182805460018160011615610100020316600290048015620015535780601f10620015275761010080835404028352916020019162001553565b820191906000526020600020905b8154815290600101906020018083116200153557829003601f168201915b50505050508152602001600182018054600181600116156101000203166002900480601f016020809104026020016040519081016040528092919081815260200182805460018160011615610100020316600290048015620015f95780601f10620015cd57610100808354040283529160200191620015f9565b820191906000526020600020905b815481529060010190602001808311620015db57829003601f168201915b505050505081525050905080600001519250806020015191505b50915091565b60015b95945050505050565b6000805433600160a060020a039081169116146200224657600080fd5b50600160a060020a0383166000908152600160205260409020808380516200227392916020019062002619565b50600181018280516200228b92916020019062002619565b506002818101805473ffffffffffffffffffffffffffffffffffffffff1916600160a060020a038716179055805460018101620022c98382620025da565b916000526020600020900160005b8154600160a060020a038089166101009390930a92830292021916179055507fb3bb6454838f769878c9da3dacefc82660ff82c898c373385ad5e32c9aa4767433858542604051600160a060020a038086168252841660208201526060810182905260806040820181815290820184818151815260200191508051906020019080838360005b83811015620023785780820151818401525b6020016200235d565b50505050905090810190601f168015620023a65780820380516001836020036101000a031916815260200191505b509550505050505060405180910390a15b5b50505050565b6007805482908110620019a857fe5b906000526020600020900160005b915054906101000a9004600160a060020a031681565b620023fb62002607565b6200240562002607565b6200240f620026da565b600160a060020a0384166000908152600160205260409081902090606090519081016040529081600082018054600181600116156101000203166002900480601f016020809104026020016040519081016040528092919081815260200182805460018160011615610100020316600290048015620024d25780601f10620024a657610100808354040283529160200191620024d2565b820191906000526020600020905b815481529060010190602001808311620024b457829003601f168201915b50505050508152602001600182018054600181600116156101000203166002900480601f016020809104026020016040519081016040528092919081815260200182805460018160011615610100020316600290048015620025785780601f106200254c5761010080835404028352916020019162002578565b820191906000526020600020905b8154815290600101906020018083116200255a57829003601f168201915b505050918352505060029190910154600160a060020a031660209091015290508051816020015190935091505b50915091565b60008082511115620025c057506001620025c4565b5060005b919050565b6040516109a6806200276c83390190565b81548183558181151162001df85760008381526020902062001df891810190830162002735565b5b505050565b60206040519081016040526000815290565b828054600181600116156101000203166002900490600052602060002090601f016020900481019282601f106200265c57805160ff19168380011785556200268c565b828001600101855582156200268c579182015b828111156200268c5782518255916020019190600101906200266f565b5b506200269b92915062002735565b5090565b60206040519081016040526000815290565b6040805190810160405280620026c662002607565b8152602001620026d562002607565b905290565b606060405190810160405280620026f062002607565b8152602001620026ff62002607565b8152600060209091015290565b6040805190810160405280620026c662002607565b8152602001620026d562002607565b905290565b6200132391905b808211156200269b57600081556001016200273c565b5090565b90565b6020604051908101604052600081529056006060604052341561000f57600080fd5b6040516109a63803806109a683398101604052808051919060200180519190602001805190910190505b60008054600160a060020a03808616600160a060020a0319928316179092556001805492851692909116919091179055600281805161007c929160200190610171565b5060018054819060a060020a60ff02191674010000000000000000000000000000000000000000825b02179055507f2a114794accc550a527ef87653abf0f6afacf18842782ec64db725729b83aeb883303384604051600160a060020a03808616825284811660208301528316604082015260806060820181815290820183818151815260200191508051906020019080838360005b8381101561012b5780820151818401525b602001610112565b50505050905090810190601f1680156101585780820380516001836020036101000a031916815260200191505b509550505050505060405180910390a15b505050610211565b828054600181600116156101000203166002900490600052602060002090601f016020900481019282601f106101b257805160ff19168380011785556101df565b828001600101855582156101df579182015b828111156101df5782518255916020019190600101906101c4565b5b506101ec9291506101f0565b5090565b61020e91905b808211156101ec57600081556001016101f6565b5090565b90565b610786806102206000396000f300606060405236156100725763ffffffff60e060020a6000350416630c08bf8881146100775780632f13b60c1461009e57806338e537b3146100c55780633a6facad1461016e578063488523bc146101a5578063565a2e2c146102305780635d1ca6311461025f578063b13564881461028e575b600080fd5b341561008257600080fd5b61008a6102b3565b604051901515815260200160405180910390f35b34156100a957600080fd5b61008a610382565b604051901515815260200160405180910390f35b34156100d057600080fd5b6100d8610394565b604051600160a060020a03808e1682528c811660208301528b811660408301528a811660608301528916608082015260a0810188905260c0810187905260e081018690526101008101859052610120810184600281111561013557fe5b60ff16815260200183815260200182600481111561014f57fe5b60ff1681526020019c5050505050505050505050505060405180910390f35b341561017957600080fd5b610181610587565b6040518082600481111561019157fe5b60ff16815260200191505060405180910390f35b34156101b057600080fd5b6101b86105c6565b60405160208082528190810183818151815260200191508051906020019080838360005b838110156101f55780820151818401525b6020016101dc565b50505050905090810190601f1680156102225780820380516001836020036101000a031916815260200191505b509250505060405180910390f35b341561023b57600080fd5b61024361066f565b604051600160a060020a03909116815260200160405180910390f35b341561026a57600080fd5b6102436106d9565b604051600160a060020a03909116815260200160405180910390f35b341561029957600080fd5b6102a16106de565b60405190815260200160405180910390f35b60006102bd61066f565b600160a060020a031633600160a060020a03161415156102dc57600080fd5b6000547fc96023adfc168f8f03b0a5cc6aaa47d9261d083467fb52f61a1854d5725771ca90600160a060020a03163033604051600160a060020a03938416815291831660208301529091166040808301919091526060909101905180910390a1600180546003919074ff0000000000000000000000000000000000000000191674010000000000000000000000000000000000000000835b0217905550600190505b5b90565b60004261038d6106de565b1190505b90565b6000805481908190819081908190819081908190819081908190600160a060020a031680631c32e7af8360405161016001526040518163ffffffff1660e060020a02815260040161016060405180830381600087803b15156103f557600080fd5b6102c65a03f1151561040657600080fd5b5050506040518051906020018051906020018051906020018051906020018051906020018051906020018051906020018051906020018051906020018051906020018051905090919293949596979899509091929394959697985090919293949596975050809950819a50829b50839c50849d50859e50869f50505050505050506000809054906101000a9004600160a060020a03169b506104a66106d9565b9c5080600160a060020a031663650d993b6000604051602001526040518163ffffffff1660e060020a028152600401602060405180830381600087803b15156104ee57600080fd5b6102c65a03f115156104ff57600080fd5b50505060405180519b5050600160a060020a0381166360d704db6000604051602001526040518163ffffffff1660e060020a028152600401602060405180830381600087803b151561055057600080fd5b6102c65a03f1151561056157600080fd5b505050604051805190509950610575610587565b91505b50909192939495969798999a9b565b6000610591610382565b1561059e5750600261037e565b5060015474010000000000000000000000000000000000000000900460ff1661037e565b5b90565b6105ce610748565b60028054600181600116156101000203166002900480601f0160208091040260200160405190810160405280929190818152602001828054600181600116156101000203166002900480156106645780601f1061063957610100808354040283529160200191610664565b820191906000526020600020905b81548152906001019060200180831161064757829003601f168201915b505050505090505b90565b60008054600160a060020a03168063565a2e2c83604051602001526040518163ffffffff1660e060020a028152600401602060405180830381600087803b15156106b857600080fd5b6102c65a03f115156106c957600080fd5b50505060405180519250505b5090565b305b90565b60008054600160a060020a03168063b135648883604051602001526040518163ffffffff1660e060020a028152600401602060405180830381600087803b15156106b857600080fd5b6102c65a03f115156106c957600080fd5b50505060405180519250505b5090565b602060405190810160405260008152905600a165627a7a723058200229186cc7b54f9cd18e3ed502bd5edfe93f185bf77d4a8dff2ceb4c4ffc59300029a165627a7a723058209eb63975ff082af042991bed4501764f2e7b2466eb4fc860e5d0f11621394fa00029",
  "source": "pragma solidity ^0.4.13;\n\nimport \"./Ownable.sol\";\nimport \"./GuaranteeConst.sol\";\nimport \"./IssuerManager.sol\";\nimport \"./BeneficiaryManager.sol\";\nimport \"./CustomerManager.sol\";\nimport \"./GuaranteeRequest.sol\";\n//\n////###\n//// general contract for better operations of the system\n////###\n//contract owned {\n//    //owner address for ownership validation\n//    address owner;\n//\n//    //constractor to verify real owner assignment\n//    function owned() {\n//        owner = msg.sender;\n//        log(\"owner=\",owner);\n//    }\n//\n//    //owner check modifier\n//    modifier onlyOwner {\n//        require(msg.sender == owner);\n//        _;\n//    }\n//\n//    //contract distruction by owner only\n//    function close() onlyOwner {\n//        log(\"##contract closed by owner=\",owner);\n//        selfdestruct(owner);\n//    }\n//\n//    //constractor to verify real owner assignment\n//    function getOwner() constant returns (address){\n//        return owner ;\n//    }\n//    //log event for debug purposes\n//    event log(string loga, address logb);\n//}\n\n\ncontract Regulator is Ownable,IssuerManager,BeneficiaryManager,CustomerManager,GuaranteeConst{\n\n    //guarantee request states\n    address [] public  guaranteeRequests;\n    address [] public  guarantees;\n\n\n    event RegulatoryContractDeployed (address msgSender,string msgstr,uint timestamp);\n    function Regulator(){\n//        owner = msg.sender;\n//\n\n//        submitBeneficiary(msg.sender,\"  -\",\"  69  -\");\n//        submitCustomer(msg.sender,\" \",\" 11  \");\n//        submitIssuer(msg.sender,\" \",\" 11  \");\n        RegulatoryContractDeployed(msg.sender,\"Mined\",now);\n    }\n\n\n    function getRequestAddressList() public constant returns (address[] )\n    {\n//         AAA(guaranteeRequests.length);\n        return guaranteeRequests;\n\n    }\n\n    function getGuaranteeAddressesList() public constant returns (address[] )\n    {\n        return guarantees;\n\n    }\n\n\n\n\n//    event AAA(uint length);\n\n    function addGuaranteeRequest(address  _guaranteeRequest)  public\n    {\n        GuaranteeRequestExtender ge=GuaranteeRequestExtender(_guaranteeRequest);\n        require(msg.sender == ge.getCustomer() && ge.isValid());\n        ge.setRegulator();\n        guaranteeRequests.push(_guaranteeRequest);\n\n    }\n\n    event RequestGuaranteeSign(address  _guaranteeRequest,string path);\n    function requestGuaranteeSign(address  _guaranteeRequest)  public\n    {\n        GuaranteeRequestExtender ge=GuaranteeRequestExtender(_guaranteeRequest);\n        require(ge.getRequestState()==RequestState.accepted);\n        RequestGuaranteeSign(_guaranteeRequest,\"\");\n    }\n\n    function GuaranteeSignComplite(address  _guaranteeRequest,bytes _guaranteeIPFSHash)  public  returns (address)\n    {\n        GuaranteeRequestExtender ger=GuaranteeRequestExtender(_guaranteeRequest);\n        require( ger.getRequestState()==RequestState.accepted && _checkArray(_guaranteeIPFSHash));\n\n        GuaranteeExtender gr= new DigitalGuaranteeBNHP(_guaranteeRequest,this,_guaranteeIPFSHash);\n        guarantees.push(address(gr));\n        return address(gr);\n    }\n\n\n    function terminateGuarantee(address  _guaranteeRequest,address  _guarantee)  public\n    {\n\n        GuaranteeRequestExtender ger=GuaranteeRequestExtender(_guaranteeRequest);\n        require( ger.getRequestState()==RequestState.accepted && msg.sender == ger.getBeneficiary() && _guarantee!= address(0));\n\n        ger.terminate() ;\n\n        GuaranteeExtender(_guarantee).terminate();\n\n\n\n    }\n\n\n\n\n\n\n\n    function changeGuarantee(address  _guaranteeRequest,address  _guarantee ,uint _newamount, uint _newendDate, string _comment)  returns (bool)  //onlyBeneficiary\n    {\n//        if (ge.getBeneficiary()!=msg.sender) throw;\n//            GuaranteeExtender ge=GuaranteeExtender(_guaranteeRequest);\n//\n//        {\n//            ( address _contract_id,address _customer,address _bank, address _beneficiary,\n//            string _purpose,uint _amount,uint _startDate,uint _endDate,IndexType _indexType,\n//            uint _indexDate,RequestState _status) = ge.getGuaranteeRequestData();\n//            if (_status==RequestState.accepted && _amount>=_newamount && _newendDate<=_endDate)\n//            {\n//                address addr=new GuaranteeRequest(this,_customer,_bank ,_beneficiary,_purpose,_amount,_startDate,_endDate,_indexType ,_indexDate);\n//                ge.\n//                guaranteeRequests.push(addr);\n//                return addr;\n//            }\n//\n//        }\n//\n//\n//\n//    .endRequest(_comment)\n//        guaranteeRequests.push(addr);\n//        return addr;\n//\n        return true;\n    }\n\n//    function submit(string comment) onlyCustomer public returns (bool result) ;\n//    function termination(string comment) onlyBeneficiary public returns (bool result);\n//    function reject(string comment) onlyBank public returns (bool result);\n//    function withdrawal(string comment) onlyCustomer public returns (bool result);\n//    function bankStateChange(string comment ,RequestState _newState) onlyBank public returns (bool result);\n\n\n\n\n}\n",
  "sourcePath": "/Users/dmitryshlymovich/workspace/ethereum-garanties/truffle_eth_bnhp/contracts/Regulator.sol",
  "schemaVersion": "1.0.0",
  "updatedAt": "2017-10-03T08:01:28.808Z"
}