{
  "contractName": "Regulator",
  "abi": [
    {
      "constant": true,
      "inputs": [
        {
          "name": "",
          "type": "address"
        }
      ],
      "name": "beneficiaries",
      "outputs": [
        {
          "name": "name",
          "type": "string"
        },
        {
          "name": "localAddress",
          "type": "string"
        }
      ],
      "payable": false,
      "type": "function"
    },
    {
      "constant": false,
      "inputs": [
        {
          "name": "_guarantee",
          "type": "address"
        },
        {
          "name": "_newamount",
          "type": "uint256"
        },
        {
          "name": "_newendDate",
          "type": "uint256"
        }
      ],
      "name": "changeGuarantee",
      "outputs": [
        {
          "name": "",
          "type": "bool"
        }
      ],
      "payable": false,
      "type": "function"
    },
    {
      "constant": false,
      "inputs": [
        {
          "name": "_guaranteeRequest",
          "type": "address"
        },
        {
          "name": "_guaranteeIPFSHash",
          "type": "bytes"
        }
      ],
      "name": "GuaranteeSignComplite",
      "outputs": [
        {
          "name": "",
          "type": "address"
        }
      ],
      "payable": false,
      "type": "function"
    },
    {
      "constant": true,
      "inputs": [
        {
          "name": "",
          "type": "address"
        }
      ],
      "name": "customers",
      "outputs": [
        {
          "name": "name",
          "type": "string"
        },
        {
          "name": "localAddress",
          "type": "string"
        }
      ],
      "payable": false,
      "type": "function"
    },
    {
      "constant": true,
      "inputs": [],
      "name": "getIssuerAddressesList",
      "outputs": [
        {
          "name": "",
          "type": "address[]"
        }
      ],
      "payable": false,
      "type": "function"
    },
    {
      "constant": true,
      "inputs": [
        {
          "name": "",
          "type": "address"
        }
      ],
      "name": "issuers",
      "outputs": [
        {
          "name": "name",
          "type": "string"
        },
        {
          "name": "localAddress",
          "type": "string"
        },
        {
          "name": "addr",
          "type": "address"
        }
      ],
      "payable": false,
      "type": "function"
    },
    {
      "constant": true,
      "inputs": [],
      "name": "getRequestAddressList",
      "outputs": [
        {
          "name": "",
          "type": "address[]"
        }
      ],
      "payable": false,
      "type": "function"
    },
    {
      "constant": false,
      "inputs": [],
      "name": "close",
      "outputs": [],
      "payable": false,
      "type": "function"
    },
    {
      "constant": false,
      "inputs": [
        {
          "name": "_addr",
          "type": "address"
        },
        {
          "name": "_name",
          "type": "string"
        },
        {
          "name": "_localAddres",
          "type": "string"
        }
      ],
      "name": "submitCustomer",
      "outputs": [],
      "payable": false,
      "type": "function"
    },
    {
      "constant": true,
      "inputs": [
        {
          "name": "_addr",
          "type": "address"
        }
      ],
      "name": "getBeneficiary",
      "outputs": [
        {
          "name": "_name",
          "type": "string"
        },
        {
          "name": "_localAddress",
          "type": "string"
        }
      ],
      "payable": false,
      "type": "function"
    },
    {
      "constant": true,
      "inputs": [],
      "name": "getIssuerCounter",
      "outputs": [
        {
          "name": "",
          "type": "uint256"
        }
      ],
      "payable": false,
      "type": "function"
    },
    {
      "constant": false,
      "inputs": [
        {
          "name": "_changeGuaranteeRequest",
          "type": "address"
        }
      ],
      "name": "changeGuaranteeM",
      "outputs": [
        {
          "name": "",
          "type": "address"
        }
      ],
      "payable": false,
      "type": "function"
    },
    {
      "constant": false,
      "inputs": [
        {
          "name": "_guaranteeRequest",
          "type": "address"
        }
      ],
      "name": "addGuaranteeRequest",
      "outputs": [],
      "payable": false,
      "type": "function"
    },
    {
      "constant": true,
      "inputs": [],
      "name": "getBeneficiaryAddresses",
      "outputs": [
        {
          "name": "",
          "type": "address[]"
        }
      ],
      "payable": false,
      "type": "function"
    },
    {
      "constant": false,
      "inputs": [
        {
          "name": "_addr",
          "type": "address"
        },
        {
          "name": "_name",
          "type": "string"
        },
        {
          "name": "_localAddres",
          "type": "string"
        }
      ],
      "name": "submitBeneficiary",
      "outputs": [],
      "payable": false,
      "type": "function"
    },
    {
      "constant": true,
      "inputs": [],
      "name": "getOwner",
      "outputs": [
        {
          "name": "",
          "type": "address"
        }
      ],
      "payable": false,
      "type": "function"
    },
    {
      "constant": true,
      "inputs": [],
      "name": "owner",
      "outputs": [
        {
          "name": "",
          "type": "address"
        }
      ],
      "payable": false,
      "type": "function"
    },
    {
      "constant": true,
      "inputs": [
        {
          "name": "",
          "type": "uint256"
        }
      ],
      "name": "guaranteeRequests",
      "outputs": [
        {
          "name": "",
          "type": "address"
        }
      ],
      "payable": false,
      "type": "function"
    },
    {
      "constant": false,
      "inputs": [
        {
          "name": "_newOwner",
          "type": "address"
        }
      ],
      "name": "changeOwner",
      "outputs": [],
      "payable": false,
      "type": "function"
    },
    {
      "constant": true,
      "inputs": [
        {
          "name": "_id",
          "type": "uint256"
        }
      ],
      "name": "getBeneficiaryById",
      "outputs": [
        {
          "name": "_name",
          "type": "string"
        },
        {
          "name": "_localAddress",
          "type": "string"
        }
      ],
      "payable": false,
      "type": "function"
    },
    {
      "constant": false,
      "inputs": [
        {
          "name": "_guaranteeRequest",
          "type": "address"
        }
      ],
      "name": "acceptGuaranteeRequest",
      "outputs": [],
      "payable": false,
      "type": "function"
    },
    {
      "constant": true,
      "inputs": [
        {
          "name": "_id",
          "type": "uint256"
        }
      ],
      "name": "getIssuerById",
      "outputs": [
        {
          "name": "",
          "type": "string"
        },
        {
          "name": "",
          "type": "string"
        },
        {
          "name": "",
          "type": "address"
        }
      ],
      "payable": false,
      "type": "function"
    },
    {
      "constant": true,
      "inputs": [],
      "name": "getGuaranteeAddressesList",
      "outputs": [
        {
          "name": "",
          "type": "address[]"
        }
      ],
      "payable": false,
      "type": "function"
    },
    {
      "constant": true,
      "inputs": [
        {
          "name": "_addr",
          "type": "address"
        }
      ],
      "name": "getCustomer",
      "outputs": [
        {
          "name": "_name",
          "type": "string"
        },
        {
          "name": "_localAddress",
          "type": "string"
        }
      ],
      "payable": false,
      "type": "function"
    },
    {
      "constant": false,
      "inputs": [
        {
          "name": "_addr",
          "type": "address"
        },
        {
          "name": "_name",
          "type": "string"
        },
        {
          "name": "_localAddres",
          "type": "string"
        }
      ],
      "name": "submitIssuer",
      "outputs": [],
      "payable": false,
      "type": "function"
    },
    {
      "constant": true,
      "inputs": [
        {
          "name": "",
          "type": "uint256"
        }
      ],
      "name": "guarantees",
      "outputs": [
        {
          "name": "",
          "type": "address"
        }
      ],
      "payable": false,
      "type": "function"
    },
    {
      "constant": false,
      "inputs": [
        {
          "name": "_guarantee",
          "type": "address"
        }
      ],
      "name": "terminateGuarantee",
      "outputs": [],
      "payable": false,
      "type": "function"
    },
    {
      "constant": true,
      "inputs": [
        {
          "name": "_addr",
          "type": "address"
        }
      ],
      "name": "getIssuer",
      "outputs": [
        {
          "name": "",
          "type": "string"
        },
        {
          "name": "",
          "type": "string"
        }
      ],
      "payable": false,
      "type": "function"
    },
    {
      "inputs": [],
      "payable": false,
      "type": "constructor"
    },
    {
      "anonymous": false,
      "inputs": [
        {
          "indexed": false,
          "name": "msgSender",
          "type": "address"
        },
        {
          "indexed": false,
          "name": "msgstr",
          "type": "string"
        },
        {
          "indexed": false,
          "name": "timestamp",
          "type": "uint256"
        }
      ],
      "name": "RegulatoryContractDeployed",
      "type": "event"
    },
    {
      "anonymous": false,
      "inputs": [
        {
          "indexed": false,
          "name": "_guaranteeRequest",
          "type": "address"
        }
      ],
      "name": "GuaranteeSign",
      "type": "event"
    },
    {
      "anonymous": false,
      "inputs": [
        {
          "indexed": false,
          "name": "msgSender",
          "type": "address"
        },
        {
          "indexed": false,
          "name": "msgstr",
          "type": "string"
        },
        {
          "indexed": false,
          "name": "timestamp",
          "type": "uint256"
        }
      ],
      "name": "AddCustomer",
      "type": "event"
    },
    {
      "anonymous": false,
      "inputs": [
        {
          "indexed": false,
          "name": "msgSender",
          "type": "address"
        },
        {
          "indexed": false,
          "name": "_name",
          "type": "string"
        },
        {
          "indexed": false,
          "name": "timestamp",
          "type": "uint256"
        }
      ],
      "name": "AddBeneficiary",
      "type": "event"
    },
    {
      "anonymous": false,
      "inputs": [
        {
          "indexed": false,
          "name": "msgSender",
          "type": "address"
        },
        {
          "indexed": false,
          "name": "issuerAdr",
          "type": "address"
        },
        {
          "indexed": false,
          "name": "msgstr",
          "type": "string"
        },
        {
          "indexed": false,
          "name": "timestamp",
          "type": "uint256"
        }
      ],
      "name": "AddIssuer",
      "type": "event"
    }
  ],
  "bytecode": "0x606060405260008054600160a060020a03191633600160a060020a031617905534156200002b57600080fd5b5b620000fe33606060405190810160405280602281526020017fd7a2d799d7a8d799d799d7aa20d7a8d790d7a9d795d79f20d79cd7a6d799d79581526020017fd79f00000000000000000000000000000000000000000000000000000000000081525060606040519081016040908152602482527fd794d79bd7a8d79ed79c2032302c20d7a8d790d7a9d795d79f20d79cd7a6d79960208301527fd795d79f0000000000000000000000000000000000000000000000000000000090820152640100000000620019d9620002ae82021704565b620001a9336040805190810160405280601781526020017fd799d7a9d7a8d790d79c20d799d7a9d7a8d790d79cd79900000000000000000081525060606040519081016040908152602182527fd794d7a8d7a6d79c20313120d7a8d790d7a9d795d79f20d79cd7a6d799d795d760208301527f9f0000000000000000000000000000000000000000000000000000000000000090820152640100000000620013486200041082021704565b6200022a33604080519081016040908152601582527fd791d7a0d7a720d794d7a4d795d7a2d79cd799d79d000000000000000000000060208301528051908101604052601981527fd794d7a0d792d79120313120d7aad79c20d790d791d799d7910000000000000060208201526401000000006200248a6200053182021704565b7f6c5cfd2de0086551b837a725d5f6a57e13b35c87eb326858461381e854a3a5a13342604051600160a060020a0390921682526040808301919091526060602083018190526005908301527f4d696e6564000000000000000000000000000000000000000000000000000000608083015260a0909101905180910390a15b62000790565b6000805433600160a060020a03908116911614620002cb57600080fd5b50600160a060020a038316600090815260036020526040902080838051620002f8929160200190620006b9565b506001810182805162000310929160200190620006b9565b5060048054600181016200032583826200073f565b916000526020600020900160005b8154600160a060020a038089166101009390930a92830292021916179055507f783e5f858212246618c02751dfbc4e502a48ca372a20f94a46d8e99fe70c998c848442604051600160a060020a03841681526040810182905260606020820181815290820184818151815260200191508051906020019080838360005b83811015620003cb5780820151818401525b602001620003b0565b50505050905090810190601f168015620003f95780820380516001836020036101000a031916815260200191505b5094505050505060405180910390a15b5b50505050565b6000805433600160a060020a039081169116146200042d57600080fd5b50600160a060020a0383166000908152600560205260409020808380516200045a929160200190620006b9565b506001810182805162000472929160200190620006b9565b507f3cdf985955e499413107b03adc7c7db5433c87ba6fa7a1beec377bb814138b9f338442604051600160a060020a03841681526040810182905260606020820181815290820184818151815260200191508051906020019080838360005b83811015620003cb5780820151818401525b602001620003b0565b50505050905090810190601f168015620003f95780820380516001836020036101000a031916815260200191505b5094505050505060405180910390a15b5b50505050565b6000805433600160a060020a039081169116146200054e57600080fd5b50600160a060020a0383166000908152600160205260409020808380516200057b929160200190620006b9565b506001810182805162000593929160200190620006b9565b5060028181018054600160a060020a031916600160a060020a038716179055805460018101620005c483826200073f565b916000526020600020900160005b8154600160a060020a038089166101009390930a92830292021916179055507fb3bb6454838f769878c9da3dacefc82660ff82c898c373385ad5e32c9aa4767433858542604051600160a060020a038086168252841660208201526060810182905260806040820181815290820184818151815260200191508051906020019080838360005b83811015620006735780820151818401525b60200162000658565b50505050905090810190601f168015620006a15780820380516001836020036101000a031916815260200191505b509550505050505060405180910390a15b5b50505050565b828054600181600116156101000203166002900490600052602060002090601f016020900481019282601f10620006fc57805160ff19168380011785556200072c565b828001600101855582156200072c579182015b828111156200072c5782518255916020019190600101906200070f565b5b506200073b9291506200076c565b5090565b8154818355818115116200076657600083815260209020620007669181019083016200076c565b5b505050565b6200078d91905b808211156200073b576000815560010162000773565b5090565b90565b612bc880620007a06000396000f3006060604052361561014e5763ffffffff60e060020a6000350416630156773981146101535780631116a1821461027557806323e2e3f9146102ae578063336989ae14610329578063379f44841461044b57806338a7543e146104b25780633dce5fdb146105e457806343d726d61461064b5780634d93c0c314610660578063505a1b311461070357806356d58ef5146108055780635cea239e1461082a578063666d5070146108655780637cb306701461088657806383a2d050146108ed578063893d20e8146109905780638da5cb5b146109bf5780639c5a88d4146109ee578063a6f9dae114610a20578063aa0a57ab14610a41578063b0f6c74a14610b3a578063b643e58714610b5b578063c1e9278614610c64578063cb949e5114610ccb578063dc19858714610dcd578063df754f1114610e70578063f813bf8c14610ea2578063fef03da314610ec3575b600080fd5b341561015e57600080fd5b610172600160a060020a0360043516610fc5565b6040516040808252835460026000196101006001841615020190911604908201819052819060208201906060830190869080156101f05780601f106101c5576101008083540402835291602001916101f0565b820191906000526020600020905b8154815290600101906020018083116101d357829003601f168201915b50508381038252845460026000196101006001841615020190911604808252602090910190859080156102645780601f1061023957610100808354040283529160200191610264565b820191906000526020600020905b81548152906001019060200180831161024757829003601f168201915b505094505050505060405180910390f35b341561028057600080fd5b61029a600160a060020a0360043516602435604435610fda565b604051901515815260200160405180910390f35b34156102b957600080fd5b61030d60048035600160a060020a03169060446024803590810190830135806020601f82018190048102016040519081016040528181529291906020840183838082843750949650610fe495505050505050565b604051600160a060020a03909116815260200160405180910390f35b341561033457600080fd5b610172600160a060020a036004351661120e565b6040516040808252835460026000196101006001841615020190911604908201819052819060208201906060830190869080156101f05780601f106101c5576101008083540402835291602001916101f0565b820191906000526020600020905b8154815290600101906020018083116101d357829003601f168201915b50508381038252845460026000196101006001841615020190911604808252602090910190859080156102645780601f1061023957610100808354040283529160200191610264565b820191906000526020600020905b81548152906001019060200180831161024757829003601f168201915b505094505050505060405180910390f35b341561045657600080fd5b61045e611223565b60405160208082528190810183818151815260200191508051906020019060200280838360005b8381101561049e5780820151818401525b602001610485565b505050509050019250505060405180910390f35b34156104bd57600080fd5b6104d1600160a060020a036004351661128c565b604051600160a060020a038216604082015260608082528454600260001961010060018416150201909116049082018190528190602082019060808301908790801561055e5780601f106105335761010080835404028352916020019161055e565b820191906000526020600020905b81548152906001019060200180831161054157829003601f168201915b50508381038252855460026000196101006001841615020190911604808252602090910190869080156105d25780601f106105a7576101008083540402835291602001916105d2565b820191906000526020600020905b8154815290600101906020018083116105b557829003601f168201915b50509550505050505060405180910390f35b34156105ef57600080fd5b61045e6112b3565b60405160208082528190810183818151815260200191508051906020019060200280838360005b8381101561049e5780820151818401525b602001610485565b505050509050019250505060405180910390f35b341561065657600080fd5b61065e61131c565b005b341561066b57600080fd5b61065e60048035600160a060020a03169060446024803590810190830135806020601f8201819004810201604051908101604052818152929190602084018383808284378201915050505050509190803590602001908201803590602001908080601f01602080910402602001604051908101604052818152929190602084018383808284375094965061134895505050505050565b005b341561070e57600080fd5b610722600160a060020a0360043516611461565b604051808060200180602001838103835285818151815260200191508051906020019080838360005b838110156107645780820151818401525b60200161074b565b50505050905090810190601f1680156107915780820380516001836020036101000a031916815260200191505b50838103825284818151815260200191508051906020019080838360005b838110156107c85780820151818401525b6020016107af565b50505050905090810190601f1680156107f55780820380516001836020036101000a031916815260200191505b5094505050505060405180910390f35b341561081057600080fd5b6108186115f8565b60405190815260200160405180910390f35b341561083557600080fd5b61030d600160a060020a03600435166115ff565b604051600160a060020a03909116815260200160405180910390f35b341561087057600080fd5b61065e600160a060020a03600435166117ef565b005b341561089157600080fd5b61045e611970565b60405160208082528190810183818151815260200191508051906020019060200280838360005b8381101561049e5780820151818401525b602001610485565b505050509050019250505060405180910390f35b34156108f857600080fd5b61065e60048035600160a060020a03169060446024803590810190830135806020601f8201819004810201604051908101604052818152929190602084018383808284378201915050505050509190803590602001908201803590602001908080601f0160208091040260200160405190810160405281815292919060208401838380828437509496506119d995505050505050565b005b341561099b57600080fd5b61030d611b31565b604051600160a060020a03909116815260200160405180910390f35b34156109ca57600080fd5b61030d611b41565b604051600160a060020a03909116815260200160405180910390f35b34156109f957600080fd5b61030d600435611b50565b604051600160a060020a03909116815260200160405180910390f35b3415610a2b57600080fd5b61065e600160a060020a0360043516611b82565b005b3415610a4c57600080fd5b610722600435611bdf565b604051808060200180602001838103835285818151815260200191508051906020019080838360005b838110156107645780820151818401525b60200161074b565b50505050905090810190601f1680156107915780820380516001836020036101000a031916815260200191505b50838103825284818151815260200191508051906020019080838360005b838110156107c85780820151818401525b6020016107af565b50505050905090810190601f1680156107f55780820380516001836020036101000a031916815260200191505b5094505050505060405180910390f35b3415610b4557600080fd5b61065e600160a060020a0360043516611dc0565b005b3415610b6657600080fd5b610b7160043561208c565b604051600160a060020a0382166040820152606080825281906020820190820186818151815260200191508051906020019080838360005b83811015610bc25780820151818401525b602001610ba9565b50505050905090810190601f168015610bef5780820380516001836020036101000a031916815260200191505b50838103825285818151815260200191508051906020019080838360005b83811015610c265780820151818401525b602001610c0d565b50505050905090810190601f168015610c535780820380516001836020036101000a031916815260200191505b509550505050505060405180910390f35b3415610c6f57600080fd5b61045e61228a565b60405160208082528190810183818151815260200191508051906020019060200280838360005b8381101561049e5780820151818401525b602001610485565b505050509050019250505060405180910390f35b3415610cd657600080fd5b610722600160a060020a03600435166122f3565b604051808060200180602001838103835285818151815260200191508051906020019080838360005b838110156107645780820151818401525b60200161074b565b50505050905090810190601f1680156107915780820380516001836020036101000a031916815260200191505b50838103825284818151815260200191508051906020019080838360005b838110156107c85780820151818401525b6020016107af565b50505050905090810190601f1680156107f55780820380516001836020036101000a031916815260200191505b5094505050505060405180910390f35b3415610dd857600080fd5b61065e60048035600160a060020a03169060446024803590810190830135806020601f8201819004810201604051908101604052818152929190602084018383808284378201915050505050509190803590602001908201803590602001908080601f01602080910402602001604051908101604052818152929190602084018383808284375094965061248a95505050505050565b005b3415610e7b57600080fd5b61030d600435612615565b604051600160a060020a03909116815260200160405180910390f35b3415610ead57600080fd5b61065e600160a060020a0360043516612647565b005b3415610ece57600080fd5b610722600160a060020a036004351661285c565b604051808060200180602001838103835285818151815260200191508051906020019080838360005b838110156107645780820151818401525b60200161074b565b50505050905090810190601f1680156107915780820380516001836020036101000a031916815260200191505b50838103825284818151815260200191508051906020019080838360005b838110156107c85780820151818401525b6020016107af565b50505050905090810190601f1680156107f55780820380516001836020036101000a031916815260200191505b5094505050505060405180910390f35b60036020526000908152604090206001810182565b60005b9392505050565b6000828160065b82600160a060020a031663a39152f26000604051602001526040518163ffffffff1660e060020a028152600401602060405180830381600087803b151561103157600080fd5b6102c65a03f1151561104257600080fd5b50505060405180519050600a81111561105757fe5b148015611068575061106884612a08565b5b80156110e6575081600160a060020a03166360d704db6000604051602001526040518163ffffffff1660e060020a028152600401602060405180830381600087803b15156110b657600080fd5b6102c65a03f115156110c757600080fd5b50505060405180519050600160a060020a031633600160a060020a0316145b15156110f157600080fd5b81600160a060020a0316632259515b856000604051602001526040518263ffffffff1660e060020a0281526004018080602001828103825283818151815260200191508051906020019080838360005b8381101561115a5780820151818401525b602001611141565b50505050905090810190601f1680156111875780820380516001836020036101000a031916815260200191505b5092505050602060405180830381600087803b15156111a557600080fd5b6102c65a03f115156111b657600080fd5b5050506040518051600780549193509150600181016111d58382612a24565b916000526020600020900160005b8154600160a060020a038086166101009390930a92830292021916179055509150815b505092915050565b60056020526000908152604090206001810182565b61122b612a4e565b600280548060200260200160405190810160405280929190818152602001828054801561128157602002820191906000526020600020905b8154600160a060020a03168152600190910190602001808311611263575b505050505090505b90565b600160208190526000918252604090912060028101549091820190600160a060020a031683565b6112bb612a4e565b600680548060200260200160405190810160405280929190818152602001828054801561128157602002820191906000526020600020905b8154600160a060020a03168152600190910190602001808311611263575b505050505090505b90565b60005433600160a060020a0390811691161461133757600080fd5b600054600160a060020a0316ff5b5b565b6000805433600160a060020a0390811691161461136457600080fd5b50600160a060020a03831660009081526005602052604090208083805161138f929160200190612a60565b50600181018280516113a5929160200190612a60565b507f3cdf985955e499413107b03adc7c7db5433c87ba6fa7a1beec377bb814138b9f338442604051600160a060020a03841681526040810182905260606020820181815290820184818151815260200191508051906020019080838360005b8381101561141d5780820151818401525b602001611404565b50505050905090810190601f16801561144a5780820380516001836020036101000a031916815260200191505b5094505050505060405180910390a15b5b50505050565b611469612a4e565b611471612a4e565b611479612af1565b600160a060020a038416600090815260036020526040908190209080519081016040529081600082018054600181600116156101000203166002900480601f0160208091040260200160405190810160405280929190818152602001828054600181600116156101000203166002900480156115365780601f1061150b57610100808354040283529160200191611536565b820191906000526020600020905b81548152906001019060200180831161151957829003601f168201915b50505050508152602001600182018054600181600116156101000203166002900480601f0160208091040260200160405190810160405280929190818152602001828054600181600116156101000203166002900480156115d85780601f106115ad576101008083540402835291602001916115d8565b820191906000526020600020905b8154815290600101906020018083116115bb57829003601f168201915b505050505081525050905080600001519250806020015191505b50915091565b6002545b90565b600081600160a060020a03811663565a2e2c83604051602001526040518163ffffffff1660e060020a028152600401602060405180830381600087803b151561164757600080fd5b6102c65a03f1151561165857600080fd5b50505060405180519050600160a060020a031633600160a060020a03161480156116df575080600160a060020a031663bb5d40eb6000604051602001526040518163ffffffff1660e060020a028152600401602060405180830381600087803b15156116c357600080fd5b6102c65a03f115156116d457600080fd5b505050604051805190505b8015611748575080600160a060020a031663cded37376000604051602001526040518163ffffffff1660e060020a028152600401602060405180830381600087803b151561172c57600080fd5b6102c65a03f1151561173d57600080fd5b505050604051805190505b151561175357600080fd5b80600160a060020a0316634a0b20aa6040518163ffffffff1660e060020a028152600401600060405180830381600087803b151561179057600080fd5b6102c65a03f115156117a157600080fd5b505050600680548060010182816117b89190612a24565b916000526020600020900160005b8154600160a060020a038088166101009390930a92830292021916179055508291505b50919050565b80600160a060020a03811663650d993b6000604051602001526040518163ffffffff1660e060020a028152600401602060405180830381600087803b151561183657600080fd5b6102c65a03f1151561184757600080fd5b50505060405180519050600160a060020a031633600160a060020a03161480156118ce575080600160a060020a031663bb5d40eb6000604051602001526040518163ffffffff1660e060020a028152600401602060405180830381600087803b15156118b257600080fd5b6102c65a03f115156118c357600080fd5b505050604051805190505b15156118d957600080fd5b80600160a060020a0316634a0b20aa6040518163ffffffff1660e060020a028152600401600060405180830381600087803b151561191657600080fd5b6102c65a03f1151561192757600080fd5b5050506006805480600101828161193e9190612a24565b916000526020600020900160005b8154600160a060020a038087166101009390930a92830292021916179055505b5050565b611978612a4e565b600480548060200260200160405190810160405280929190818152602001828054801561128157602002820191906000526020600020905b8154600160a060020a03168152600190910190602001808311611263575b505050505090505b90565b6000805433600160a060020a039081169116146119f557600080fd5b50600160a060020a038316600090815260036020526040902080838051611a20929160200190612a60565b5060018101828051611a36929160200190612a60565b506004805460018101611a498382612a24565b916000526020600020900160005b8154600160a060020a038089166101009390930a92830292021916179055507f783e5f858212246618c02751dfbc4e502a48ca372a20f94a46d8e99fe70c998c848442604051600160a060020a03841681526040810182905260606020820181815290820184818151815260200191508051906020019080838360005b8381101561141d5780820151818401525b602001611404565b50505050905090810190601f16801561144a5780820380516001836020036101000a031916815260200191505b5094505050505060405180910390a15b5b50505050565b600054600160a060020a03165b90565b600054600160a060020a031681565b6006805482908110611b5e57fe5b906000526020600020900160005b915054906101000a9004600160a060020a031681565b60005433600160a060020a03908116911614611b9d57600080fd5b600160a060020a0381161515611bb257600080fd5b6000805473ffffffffffffffffffffffffffffffffffffffff1916600160a060020a0383161790555b5b50565b611be7612a4e565b611bef612a4e565b611bf7612af1565b600454841115611c0657600080fd5b60036000600486815481101515611c1957fe5b906000526020600020900160005b9054906101000a9004600160a060020a0316600160a060020a0316600160a060020a03168152602001908152602001600020604080519081016040529081600082018054600181600116156101000203166002900480601f016020809104026020016040519081016040528092919081815260200182805460018160011615610100020316600290048015611cfd5780601f10611cd257610100808354040283529160200191611cfd565b820191906000526020600020905b815481529060010190602001808311611ce057829003601f168201915b50505050508152602001600182018054600181600116156101000203166002900480601f016020809104026020016040519081016040528092919081815260200182805460018160011615610100020316600290048015611d9f5780601f10611d7457610100808354040283529160200191611d9f565b820191906000526020600020905b815481529060010190602001808311611d8257829003601f168201915b50505050508152505090508060000151816020015190935091505b50915091565b80600160a060020a0381166360d704db6000604051602001526040518163ffffffff1660e060020a028152600401602060405180830381600087803b1515611e0757600080fd5b6102c65a03f11515611e1857600080fd5b50505060405180519050600160a060020a031633600160a060020a0316148015611e9f575080600160a060020a031663bb5d40eb6000604051602001526040518163ffffffff1660e060020a028152600401602060405180830381600087803b1515611e8357600080fd5b6102c65a03f11515611e9457600080fd5b505050604051805190505b1515611eaa57600080fd5b80600160a060020a0316632852b71c6000604051602001526040518163ffffffff1660e060020a028152600401602060405180830381600087803b1515611ef057600080fd5b6102c65a03f11515611f0157600080fd5b505050604051805190501561014e5780600160a060020a031663cded37376000604051602001526040518163ffffffff1660e060020a028152600401602060405180830381600087803b1515611f5657600080fd5b6102c65a03f11515611f6757600080fd5b505050604051805190501561203f5761203f81600160a060020a0316636f00817e6000604051602001526040518163ffffffff1660e060020a028152600401602060405180830381600087803b1515611fbf57600080fd5b6102c65a03f11515611fd057600080fd5b50505060405180519050600160a060020a0316633f40d18f6000604051602001526040518163ffffffff1660e060020a028152600401602060405180830381600087803b151561201f57600080fd5b6102c65a03f1151561203057600080fd5b50505060405180519050612647565b5b7f1457a9baaa8780bd74ceb2f0317119ca2bd8fc94db0895f9d641400b8571459082604051600160a060020a03909116815260200160405180910390a161196c565b600080fd5b5b5050565b612094612a4e565b61209c612a4e565b60006120a6612b16565b60025485106120b457600080fd5b600160006002878154811015156120c757fe5b906000526020600020900160005b9054906101000a9004600160a060020a0316600160a060020a0316600160a060020a0316815260200190815260200160002060606040519081016040529081600082018054600181600116156101000203166002900480601f0160208091040260200160405190810160405280929190818152602001828054600181600116156101000203166002900480156121ac5780601f10612181576101008083540402835291602001916121ac565b820191906000526020600020905b81548152906001019060200180831161218f57829003601f168201915b50505050508152602001600182018054600181600116156101000203166002900480601f01602080910402602001604051908101604052809291908181526020018280546001816001161561010002031660029004801561224e5780601f106122235761010080835404028352916020019161224e565b820191906000526020600020905b81548152906001019060200180831161223157829003601f168201915b505050918352505060029190910154600160a060020a03166020909101529050805181602001518260400151919550935091505b509193909250565b612292612a4e565b600780548060200260200160405190810160405280929190818152602001828054801561128157602002820191906000526020600020905b8154600160a060020a03168152600190910190602001808311611263575b505050505090505b90565b6122fb612a4e565b612303612a4e565b61230b612af1565b600160a060020a038416600090815260056020526040908190209080519081016040529081600082018054600181600116156101000203166002900480601f0160208091040260200160405190810160405280929190818152602001828054600181600116156101000203166002900480156115365780601f1061150b57610100808354040283529160200191611536565b820191906000526020600020905b81548152906001019060200180831161151957829003601f168201915b50505050508152602001600182018054600181600116156101000203166002900480601f0160208091040260200160405190810160405280929190818152602001828054600181600116156101000203166002900480156115d85780601f106115ad576101008083540402835291602001916115d8565b820191906000526020600020905b8154815290600101906020018083116115bb57829003601f168201915b505050505081525050905080600001519250806020015191505b50915091565b6000805433600160a060020a039081169116146124a657600080fd5b50600160a060020a0383166000908152600160205260409020808380516124d1929160200190612a60565b50600181018280516124e7929160200190612a60565b506002818101805473ffffffffffffffffffffffffffffffffffffffff1916600160a060020a0387161790558054600181016125238382612a24565b916000526020600020900160005b8154600160a060020a038089166101009390930a92830292021916179055507fb3bb6454838f769878c9da3dacefc82660ff82c898c373385ad5e32c9aa4767433858542604051600160a060020a038086168252841660208201526060810182905260806040820181815290820184818151815260200191508051906020019080838360005b838110156125d05780820151818401525b6020016125b7565b50505050905090810190601f1680156125fd5780820380516001836020036101000a031916815260200191505b509550505050505060405180910390a15b5b50505050565b6007805482908110611b5e57fe5b906000526020600020900160005b915054906101000a9004600160a060020a031681565b806000600160a060020a0382166388a22f7a82604051602001526040518163ffffffff1660e060020a028152600401602060405180830381600087803b151561268f57600080fd5b6102c65a03f115156126a057600080fd5b5050506040518051915050600160a060020a0383161580159061272c57506000600160a060020a038216633f40d18f82604051602001526040518163ffffffff1660e060020a028152600401602060405180830381600087803b151561270557600080fd5b6102c65a03f1151561271657600080fd5b50505060405180519050600160a060020a031614155b80156127a9575080600160a060020a031663565a2e2c6000604051602001526040518163ffffffff1660e060020a028152600401602060405180830381600087803b151561277957600080fd5b6102c65a03f1151561278a57600080fd5b50505060405180519050600160a060020a031633600160a060020a0316145b15156127b457600080fd5b81600160a060020a031663c700c70d6040518163ffffffff1660e060020a028152600401600060405180830381600087803b15156127f157600080fd5b6102c65a03f1151561280257600080fd5b50505080600160a060020a031663c700c70d6040518163ffffffff1660e060020a028152600401600060405180830381600087803b151561284257600080fd5b6102c65a03f1151561285357600080fd5b5050505b505050565b612864612a4e565b61286c612a4e565b612874612b16565b600160a060020a0384166000908152600160205260409081902090606090519081016040529081600082018054600181600116156101000203166002900480601f0160208091040260200160405190810160405280929190818152602001828054600181600116156101000203166002900480156129335780601f1061290857610100808354040283529160200191612933565b820191906000526020600020905b81548152906001019060200180831161291657829003601f168201915b50505050508152602001600182018054600181600116156101000203166002900480601f0160208091040260200160405190810160405280929190818152602001828054600181600116156101000203166002900480156129d55780601f106129aa576101008083540402835291602001916129d5565b820191906000526020600020905b8154815290600101906020018083116129b857829003601f168201915b505050918352505060029190910154600160a060020a031660209091015290508051816020015190935091505b50915091565b60008082511115612a1b57506001612a1f565b5060005b919050565b81548183558181151161285757600083815260209020612857918101908301612b69565b5b505050565b60206040519081016040526000815290565b828054600181600116156101000203166002900490600052602060002090601f016020900481019282601f10612aa157805160ff1916838001178555612ace565b82800160010185558215612ace579182015b82811115612ace578251825591602001919060010190612ab3565b5b50612adb929150612b69565b5090565b60206040519081016040526000815290565b6040805190810160405280612b04612a4e565b8152602001612b11612a4e565b905290565b606060405190810160405280612b2a612a4e565b8152602001612b37612a4e565b8152600060209091015290565b6040805190810160405280612b04612a4e565b8152602001612b11612a4e565b905290565b61128991905b80821115612adb5760008155600101612b6f565b5090565b90565b602060405190810160405260008152905600a165627a7a72305820831a68daabc79b084f3acc0c81798892b7a75a6fd2423ad0488475604df1b86c0029",
  "source": "pragma solidity ^0.4.13;\n\nimport \"./Ownable.sol\";\nimport \"./GuaranteeConst.sol\";\nimport \"./IssuerManager.sol\";\nimport \"./BeneficiaryManager.sol\";\nimport \"./CustomerManager.sol\";\nimport \"./GuaranteeRequest.sol\";\nimport \"./ChangeGuaranteeRequest.sol\";\n\n//\n////###\n//// general contract for better operations of the system\n////###\n//contract owned {\n//    //owner address for ownership validation\n//    address owner;\n//\n//    //constractor to verify real owner assignment\n//    function owned() {\n//        owner = msg.sender;\n//        log(\"owner=\",owner);\n//    }\n//\n//    //owner check modifier\n//    modifier onlyOwner {\n//        require(msg.sender == owner);\n//        _;\n//    }\n//\n//    //contract distruction by owner only\n//    function close() onlyOwner {\n//        log(\"##contract closed by owner=\",owner);\n//        selfdestruct(owner);\n//    }\n//\n//    //constractor to verify real owner assignment\n//    function getOwner() constant returns (address){\n//        return owner ;\n//    }\n//    //log event for debug purposes\n//    event log(string loga, address logb);\n//}\n\n\ncontract Regulator is Ownable,IssuerManager,BeneficiaryManager,CustomerManager,GuaranteeConst{\n\n    //guarantee request states\n    address [] public  guaranteeRequests;\n    address [] public  guarantees;\n\n\n\n\n    event RegulatoryContractDeployed (address msgSender,string msgstr,uint timestamp);\n    function Regulator(){\n//        owner = msg.sender;\n\n\n\n        submitBeneficiary(msg.sender,\"  \",\" 20,  \");\n        submitCustomer(msg.sender,\" \",\" 11  \");\n        submitIssuer(msg.sender,\" \",\" 11  \");\n        RegulatoryContractDeployed(msg.sender,\"Mined\",now);\n    }\n\n\n    function getRequestAddressList() public constant returns (address[] )\n\n    {\n//         AAA(guaranteeRequests.length);\n        return guaranteeRequests;\n\n\n    }\n\n    function getGuaranteeAddressesList() public constant returns (address[] )\n    {\n\n        return guarantees;\n\n    }\n\n\n\n\n\n//    event AAA(uint length);\n\n    function addGuaranteeRequest(address  _guaranteeRequest)  public\n    {\n\n        GuaranteeRequestExtender ge=GuaranteeRequestExtender(_guaranteeRequest);\n        require(msg.sender == ge.getCustomer() && ge.isValid());\n        ge.setRegulator();\n        guaranteeRequests.push(_guaranteeRequest);\n//        AAA(1);\n\n    }\n\n    event GuaranteeSign(address  _guaranteeRequest);\n    function acceptGuaranteeRequest(address  _guaranteeRequest)  public\n    {\n        GuaranteeRequestExtender ge=GuaranteeRequestExtender(_guaranteeRequest);\n        require(msg.sender == ge.getBank() && ge.isValid());\n\n\n        if (ge.accept()) {\n            if (ge.isChangeRequest())\n            {\n                terminateGuarantee(GuaranteeRequestExtender(ge.getChangeRequestGuarantee()).getGuaranteeAddress());\n            }\n            GuaranteeSign(_guaranteeRequest);\n        }\n        else\n            throw;\n    }\n\n    function GuaranteeSignComplite(address  _guaranteeRequest,bytes _guaranteeIPFSHash)  public  returns (address)\n    {\n        GuaranteeRequestExtender ge=GuaranteeRequestExtender(_guaranteeRequest);\n        require( ge.getRequestState()==RequestState.accepted && _checkArray(_guaranteeIPFSHash) && msg.sender == ge.getBank());\n\n\n        address gra=ge.signComplite(_guaranteeIPFSHash);\n        guarantees.push(gra);\n\n        return gra;\n\n    }\n\n\n\n\n\n    function terminateGuarantee(address  _guarantee)  public\n    {\n\n\n\n        GuaranteeExtender ge= GuaranteeExtender(_guarantee);\n        GuaranteeRequestExtender ger=GuaranteeRequestExtender(ge.getGuaranteeRequest());\n        require( _guarantee!= address(0) && ger.getGuaranteeAddress()!= address(0) && msg.sender == ger.getBeneficiary() );\n\n        ge.terminateGuarantee() ;\n        ger.terminateGuarantee();\n\n\n    }\n\n\n\n\n\n    function changeGuarantee(address  _guarantee ,uint _newamount, uint _newendDate)  returns (bool)  //onlyBeneficiary\n    {\n//        GuaranteeExtender ge= GuaranteeExtender(_guarantee);\n//        GuaranteeRequestExtender ger=GuaranteeRequestExtender(ge.getGuaranteeRequest());\n//        require( ger.getRequestState()==RequestState.accepted && msg.sender == ger.getBeneficiary() && _guarantee!= address(0));\n//\n//        ger.changeRequested( _newamount,  _newendDate);\n//        ChangeGuaranteeRequest newger=new ChangeGuaranteeRequest(ge.getGuaranteeRequest(),_newamount, _newendDate);\n//        guaranteeRequests.push(newger.getId());\n\n//        guaranteeRequests.push( new ChangeGuaranteeRequest(ge.getGuaranteeRequest(),_newamount, _newendDate).getId());\n//        return true;\n    }\n\n    function changeGuaranteeM(address  _changeGuaranteeRequest )  public  returns (address)//onlyBeneficiary\n    {\n        ChangeGuaranteeRequest newger=ChangeGuaranteeRequest(_changeGuaranteeRequest);\n        require(msg.sender == newger.getBeneficiary() && newger.isValid() && newger.isChangeRequest());\n//        GuaranteeExtender(GuaranteeExtender(newger.getChangeRequestGuarantee())\n//            .getChangeRequestGuarantee()).\n        newger.setRegulator();\n        guaranteeRequests.push(_changeGuaranteeRequest);\n        return _changeGuaranteeRequest;\n    }\n\n\n\n}\n",
  "sourcePath": "/Users/dmitryshlymovich/workspace/ethereum-garanties/truffle_eth_bnhp/contracts/Regulator.sol",
  "schemaVersion": "1.0.0",
  "updatedAt": "2017-11-19T18:53:30.070Z"
}