{
  "contractName": "Regulator",
  "abi": [
    {
      "constant": true,
      "inputs": [
        {
          "name": "",
          "type": "address"
        }
      ],
      "name": "beneficiaries",
      "outputs": [
        {
          "name": "name",
          "type": "string"
        },
        {
          "name": "localAddress",
          "type": "string"
        }
      ],
      "payable": false,
      "stateMutability": "view",
      "type": "function"
    },
    {
      "constant": false,
      "inputs": [
        {
          "name": "_guaranteeRequest",
          "type": "address"
        },
        {
          "name": "_guaranteeIPFSHash",
          "type": "bytes"
        }
      ],
      "name": "GuaranteeSignComplite",
      "outputs": [
        {
          "name": "",
          "type": "address"
        }
      ],
      "payable": false,
      "stateMutability": "nonpayable",
      "type": "function"
    },
    {
      "constant": true,
      "inputs": [
        {
          "name": "",
          "type": "address"
        }
      ],
      "name": "customers",
      "outputs": [
        {
          "name": "name",
          "type": "string"
        },
        {
          "name": "localAddress",
          "type": "string"
        }
      ],
      "payable": false,
      "stateMutability": "view",
      "type": "function"
    },
    {
      "constant": true,
      "inputs": [],
      "name": "getIssuerAddressesList",
      "outputs": [
        {
          "name": "",
          "type": "address[]"
        }
      ],
      "payable": false,
      "stateMutability": "view",
      "type": "function"
    },
    {
      "constant": true,
      "inputs": [
        {
          "name": "",
          "type": "address"
        }
      ],
      "name": "issuers",
      "outputs": [
        {
          "name": "name",
          "type": "string"
        },
        {
          "name": "localAddress",
          "type": "string"
        },
        {
          "name": "addr",
          "type": "address"
        }
      ],
      "payable": false,
      "stateMutability": "view",
      "type": "function"
    },
    {
      "constant": true,
      "inputs": [],
      "name": "getRequestAddressList",
      "outputs": [
        {
          "name": "",
          "type": "address[]"
        }
      ],
      "payable": false,
      "stateMutability": "view",
      "type": "function"
    },
    {
      "constant": false,
      "inputs": [],
      "name": "close",
      "outputs": [],
      "payable": false,
      "stateMutability": "nonpayable",
      "type": "function"
    },
    {
      "constant": false,
      "inputs": [
        {
          "name": "_addr",
          "type": "address"
        },
        {
          "name": "_name",
          "type": "string"
        },
        {
          "name": "_localAddres",
          "type": "string"
        }
      ],
      "name": "submitCustomer",
      "outputs": [],
      "payable": false,
      "stateMutability": "nonpayable",
      "type": "function"
    },
    {
      "constant": true,
      "inputs": [
        {
          "name": "_addr",
          "type": "address"
        }
      ],
      "name": "getBeneficiary",
      "outputs": [
        {
          "name": "_name",
          "type": "string"
        },
        {
          "name": "_localAddress",
          "type": "string"
        }
      ],
      "payable": false,
      "stateMutability": "view",
      "type": "function"
    },
    {
      "constant": true,
      "inputs": [],
      "name": "getIssuerCounter",
      "outputs": [
        {
          "name": "",
          "type": "uint256"
        }
      ],
      "payable": false,
      "stateMutability": "view",
      "type": "function"
    },
    {
      "constant": false,
      "inputs": [
        {
          "name": "_guaranteeRequest",
          "type": "address"
        }
      ],
      "name": "addGuaranteeRequest",
      "outputs": [],
      "payable": false,
      "stateMutability": "nonpayable",
      "type": "function"
    },
    {
      "constant": true,
      "inputs": [],
      "name": "getBeneficiaryAddresses",
      "outputs": [
        {
          "name": "",
          "type": "address[]"
        }
      ],
      "payable": false,
      "stateMutability": "view",
      "type": "function"
    },
    {
      "constant": false,
      "inputs": [
        {
          "name": "_addr",
          "type": "address"
        },
        {
          "name": "_name",
          "type": "string"
        },
        {
          "name": "_localAddres",
          "type": "string"
        }
      ],
      "name": "submitBeneficiary",
      "outputs": [],
      "payable": false,
      "stateMutability": "nonpayable",
      "type": "function"
    },
    {
      "constant": true,
      "inputs": [],
      "name": "getOwner",
      "outputs": [
        {
          "name": "",
          "type": "address"
        }
      ],
      "payable": false,
      "stateMutability": "view",
      "type": "function"
    },
    {
      "constant": false,
      "inputs": [
        {
          "name": "_changeGuaranteeRequest",
          "type": "address"
        },
        {
          "name": "guarantie",
          "type": "address"
        }
      ],
      "name": "changeGuarantee",
      "outputs": [
        {
          "name": "",
          "type": "address"
        }
      ],
      "payable": false,
      "stateMutability": "nonpayable",
      "type": "function"
    },
    {
      "constant": true,
      "inputs": [],
      "name": "owner",
      "outputs": [
        {
          "name": "",
          "type": "address"
        }
      ],
      "payable": false,
      "stateMutability": "view",
      "type": "function"
    },
    {
      "constant": true,
      "inputs": [
        {
          "name": "",
          "type": "uint256"
        }
      ],
      "name": "guaranteeRequests",
      "outputs": [
        {
          "name": "",
          "type": "address"
        }
      ],
      "payable": false,
      "stateMutability": "view",
      "type": "function"
    },
    {
      "constant": false,
      "inputs": [
        {
          "name": "_newOwner",
          "type": "address"
        }
      ],
      "name": "changeOwner",
      "outputs": [],
      "payable": false,
      "stateMutability": "nonpayable",
      "type": "function"
    },
    {
      "constant": true,
      "inputs": [
        {
          "name": "_id",
          "type": "uint256"
        }
      ],
      "name": "getBeneficiaryById",
      "outputs": [
        {
          "name": "_name",
          "type": "string"
        },
        {
          "name": "_localAddress",
          "type": "string"
        }
      ],
      "payable": false,
      "stateMutability": "view",
      "type": "function"
    },
    {
      "constant": false,
      "inputs": [
        {
          "name": "_guaranteeRequest",
          "type": "address"
        }
      ],
      "name": "acceptGuaranteeRequest",
      "outputs": [],
      "payable": false,
      "stateMutability": "nonpayable",
      "type": "function"
    },
    {
      "constant": true,
      "inputs": [
        {
          "name": "_id",
          "type": "uint256"
        }
      ],
      "name": "getIssuerById",
      "outputs": [
        {
          "name": "",
          "type": "string"
        },
        {
          "name": "",
          "type": "string"
        },
        {
          "name": "",
          "type": "address"
        }
      ],
      "payable": false,
      "stateMutability": "view",
      "type": "function"
    },
    {
      "constant": true,
      "inputs": [],
      "name": "getGuaranteeAddressesList",
      "outputs": [
        {
          "name": "",
          "type": "address[]"
        }
      ],
      "payable": false,
      "stateMutability": "view",
      "type": "function"
    },
    {
      "constant": true,
      "inputs": [
        {
          "name": "_addr",
          "type": "address"
        }
      ],
      "name": "getCustomer",
      "outputs": [
        {
          "name": "_name",
          "type": "string"
        },
        {
          "name": "_localAddress",
          "type": "string"
        }
      ],
      "payable": false,
      "stateMutability": "view",
      "type": "function"
    },
    {
      "constant": false,
      "inputs": [
        {
          "name": "_addr",
          "type": "address"
        },
        {
          "name": "_name",
          "type": "string"
        },
        {
          "name": "_localAddres",
          "type": "string"
        }
      ],
      "name": "submitIssuer",
      "outputs": [],
      "payable": false,
      "stateMutability": "nonpayable",
      "type": "function"
    },
    {
      "constant": true,
      "inputs": [
        {
          "name": "",
          "type": "uint256"
        }
      ],
      "name": "guarantees",
      "outputs": [
        {
          "name": "",
          "type": "address"
        }
      ],
      "payable": false,
      "stateMutability": "view",
      "type": "function"
    },
    {
      "constant": false,
      "inputs": [
        {
          "name": "_guarantee",
          "type": "address"
        }
      ],
      "name": "terminateGuarantee",
      "outputs": [],
      "payable": false,
      "stateMutability": "nonpayable",
      "type": "function"
    },
    {
      "constant": true,
      "inputs": [
        {
          "name": "_addr",
          "type": "address"
        }
      ],
      "name": "getIssuer",
      "outputs": [
        {
          "name": "",
          "type": "string"
        },
        {
          "name": "",
          "type": "string"
        }
      ],
      "payable": false,
      "stateMutability": "view",
      "type": "function"
    },
    {
      "inputs": [],
      "payable": false,
      "stateMutability": "nonpayable",
      "type": "constructor"
    },
    {
      "anonymous": false,
      "inputs": [
        {
          "indexed": false,
          "name": "msgSender",
          "type": "address"
        },
        {
          "indexed": false,
          "name": "msgstr",
          "type": "string"
        },
        {
          "indexed": false,
          "name": "timestamp",
          "type": "uint256"
        }
      ],
      "name": "RegulatoryContractDeployed",
      "type": "event"
    },
    {
      "anonymous": false,
      "inputs": [
        {
          "indexed": false,
          "name": "length",
          "type": "uint256"
        }
      ],
      "name": "AAA",
      "type": "event"
    },
    {
      "anonymous": false,
      "inputs": [
        {
          "indexed": false,
          "name": "_guaranteeRequest",
          "type": "address"
        }
      ],
      "name": "GuaranteeSign",
      "type": "event"
    },
    {
      "anonymous": false,
      "inputs": [
        {
          "indexed": false,
          "name": "msgSender",
          "type": "address"
        },
        {
          "indexed": false,
          "name": "msgstr",
          "type": "string"
        },
        {
          "indexed": false,
          "name": "timestamp",
          "type": "uint256"
        }
      ],
      "name": "AddCustomer",
      "type": "event"
    },
    {
      "anonymous": false,
      "inputs": [
        {
          "indexed": false,
          "name": "msgSender",
          "type": "address"
        },
        {
          "indexed": false,
          "name": "_name",
          "type": "string"
        },
        {
          "indexed": false,
          "name": "timestamp",
          "type": "uint256"
        }
      ],
      "name": "AddBeneficiary",
      "type": "event"
    },
    {
      "anonymous": false,
      "inputs": [
        {
          "indexed": false,
          "name": "msgSender",
          "type": "address"
        },
        {
          "indexed": false,
          "name": "issuerAdr",
          "type": "address"
        },
        {
          "indexed": false,
          "name": "msgstr",
          "type": "string"
        },
        {
          "indexed": false,
          "name": "timestamp",
          "type": "uint256"
        }
      ],
      "name": "AddIssuer",
      "type": "event"
    }
  ],
  "bytecode": "0x6060604052336000806101000a81548173ffffffffffffffffffffffffffffffffffffffff021916908373ffffffffffffffffffffffffffffffffffffffff16021790555034156200005057600080fd5b6200012933606060405190810160405280602281526020017fd7a2d799d7a8d799d799d7aa20d7a8d790d7a9d795d79f20d79cd7a6d799d79581526020017fd79f000000000000000000000000000000000000000000000000000000000000815250606060405190810160405280602481526020017fd794d79bd7a8d79ed79c2032302c20d7a8d790d7a9d795d79f20d79cd7a6d79981526020017fd795d79f00000000000000000000000000000000000000000000000000000000815250620003106401000000000262001ead176401000000009004565b620001db336040805190810160405280601781526020017fd799d7a9d7a8d790d79c20d799d7a9d7a8d790d79cd799000000000000000000815250606060405190810160405280602181526020017fd794d7a8d7a6d79c20313120d7a8d790d7a9d795d79f20d79cd7a6d799d795d781526020017f9f000000000000000000000000000000000000000000000000000000000000008152506200052b6401000000000262001838176401000000009004565b62000266336040805190810160405280601581526020017fd791d7a0d7a720d794d7a4d795d7a2d79cd799d79d00000000000000000000008152506040805190810160405280601981526020017fd794d7a0d792d79120313120d7aad79c20d790d791d799d79100000000000000815250620006e1640100000000026200312f176401000000009004565b7f6c5cfd2de0086551b837a725d5f6a57e13b35c87eb326858461381e854a3a5a13342604051808373ffffffffffffffffffffffffffffffffffffffff1673ffffffffffffffffffffffffffffffffffffffff16815260200180602001838152602001828103825260058152602001807f4d696e6564000000000000000000000000000000000000000000000000000000815250602001935050505060405180910390a162000a51565b60008060009054906101000a900473ffffffffffffffffffffffffffffffffffffffff1673ffffffffffffffffffffffffffffffffffffffff163373ffffffffffffffffffffffffffffffffffffffff161415156200036e57600080fd5b600360008573ffffffffffffffffffffffffffffffffffffffff1673ffffffffffffffffffffffffffffffffffffffff168152602001908152602001600020905082816000019080519060200190620003c992919062000973565b5081816001019080519060200190620003e492919062000973565b5060048054806001018281620003fb9190620009fa565b9160005260206000209001600086909190916101000a81548173ffffffffffffffffffffffffffffffffffffffff021916908373ffffffffffffffffffffffffffffffffffffffff160217905550507f783e5f858212246618c02751dfbc4e502a48ca372a20f94a46d8e99fe70c998c848442604051808473ffffffffffffffffffffffffffffffffffffffff1673ffffffffffffffffffffffffffffffffffffffff16815260200180602001838152602001828103825284818151815260200191508051906020019080838360005b83811015620004e8578082015181840152602081019050620004cb565b50505050905090810190601f168015620005165780820380516001836020036101000a031916815260200191505b5094505050505060405180910390a150505050565b60008060009054906101000a900473ffffffffffffffffffffffffffffffffffffffff1673ffffffffffffffffffffffffffffffffffffffff163373ffffffffffffffffffffffffffffffffffffffff161415156200058957600080fd5b600560008573ffffffffffffffffffffffffffffffffffffffff1673ffffffffffffffffffffffffffffffffffffffff168152602001908152602001600020905082816000019080519060200190620005e492919062000973565b5081816001019080519060200190620005ff92919062000973565b507f3cdf985955e499413107b03adc7c7db5433c87ba6fa7a1beec377bb814138b9f338442604051808473ffffffffffffffffffffffffffffffffffffffff1673ffffffffffffffffffffffffffffffffffffffff16815260200180602001838152602001828103825284818151815260200191508051906020019080838360005b838110156200069e57808201518184015260208101905062000681565b50505050905090810190601f168015620006cc5780820380516001836020036101000a031916815260200191505b5094505050505060405180910390a150505050565b60008060009054906101000a900473ffffffffffffffffffffffffffffffffffffffff1673ffffffffffffffffffffffffffffffffffffffff163373ffffffffffffffffffffffffffffffffffffffff161415156200073f57600080fd5b600160008573ffffffffffffffffffffffffffffffffffffffff1673ffffffffffffffffffffffffffffffffffffffff1681526020019081526020016000209050828160000190805190602001906200079a92919062000973565b5081816001019080519060200190620007b592919062000973565b50838160020160006101000a81548173ffffffffffffffffffffffffffffffffffffffff021916908373ffffffffffffffffffffffffffffffffffffffff160217905550600280548060010182816200080f9190620009fa565b9160005260206000209001600086909190916101000a81548173ffffffffffffffffffffffffffffffffffffffff021916908373ffffffffffffffffffffffffffffffffffffffff160217905550507fb3bb6454838f769878c9da3dacefc82660ff82c898c373385ad5e32c9aa4767433858542604051808573ffffffffffffffffffffffffffffffffffffffff1673ffffffffffffffffffffffffffffffffffffffff1681526020018473ffffffffffffffffffffffffffffffffffffffff1673ffffffffffffffffffffffffffffffffffffffff16815260200180602001838152602001828103825284818151815260200191508051906020019080838360005b838110156200092f57808201518184015260208101905062000912565b50505050905090810190601f1680156200095d5780820380516001836020036101000a031916815260200191505b509550505050505060405180910390a150505050565b828054600181600116156101000203166002900490600052602060002090601f016020900481019282601f10620009b657805160ff1916838001178555620009e7565b82800160010185558215620009e7579182015b82811115620009e6578251825591602001919060010190620009c9565b5b509050620009f6919062000a29565b5090565b81548183558181151162000a245781836000526020600020918201910162000a23919062000a29565b5b505050565b62000a4e91905b8082111562000a4a57600081600090555060010162000a30565b5090565b90565b613b308062000a616000396000f30060606040526004361061015f576000357c0100000000000000000000000000000000000000000000000000000000900463ffffffff168063015677391461016457806323e2e3f9146102bc578063336989ae14610378578063379f4484146104d057806338a7543e1461053a5780633dce5fdb146106c557806343d726d61461072f5780634d93c0c314610744578063505a1b311461080357806356d58ef514610921578063666d50701461094a5780637cb306701461098357806383a2d050146109ed578063893d20e814610aac5780638b4329e514610b015780638da5cb5b14610b995780639c5a88d414610bee578063a6f9dae114610c51578063aa0a57ab14610c8a578063b0f6c74a14610d92578063b643e58714610dcb578063c1e9278614610f06578063cb949e5114610f70578063dc1985871461108e578063df754f111461114d578063f813bf8c146111b0578063fef03da3146111e9575b600080fd5b341561016f57600080fd5b61019b600480803573ffffffffffffffffffffffffffffffffffffffff16906020019091905050611307565b6040518080602001806020018381038352858181546001816001161561010002031660029004815260200191508054600181600116156101000203166002900480156102285780601f106101fd57610100808354040283529160200191610228565b820191906000526020600020905b81548152906001019060200180831161020b57829003601f168201915b50508381038252848181546001816001161561010002031660029004815260200191508054600181600116156101000203166002900480156102ab5780601f10610280576101008083540402835291602001916102ab565b820191906000526020600020905b81548152906001019060200180831161028e57829003601f168201915b505094505050505060405180910390f35b34156102c757600080fd5b610336600480803573ffffffffffffffffffffffffffffffffffffffff1690602001909190803590602001908201803590602001908080601f01602080910402602001604051908101604052809392919081815260200183838082843782019150505050505091905050611329565b604051808273ffffffffffffffffffffffffffffffffffffffff1673ffffffffffffffffffffffffffffffffffffffff16815260200191505060405180910390f35b341561038357600080fd5b6103af600480803573ffffffffffffffffffffffffffffffffffffffff16906020019091905050611611565b60405180806020018060200183810383528581815460018160011615610100020316600290048152602001915080546001816001161561010002031660029004801561043c5780601f106104115761010080835404028352916020019161043c565b820191906000526020600020905b81548152906001019060200180831161041f57829003601f168201915b50508381038252848181546001816001161561010002031660029004815260200191508054600181600116156101000203166002900480156104bf5780601f10610494576101008083540402835291602001916104bf565b820191906000526020600020905b8154815290600101906020018083116104a257829003601f168201915b505094505050505060405180910390f35b34156104db57600080fd5b6104e3611633565b6040518080602001828103825283818151815260200191508051906020019060200280838360005b8381101561052657808201518184015260208101905061050b565b505050509050019250505060405180910390f35b341561054557600080fd5b610571600480803573ffffffffffffffffffffffffffffffffffffffff169060200190919050506116c7565b6040518080602001806020018473ffffffffffffffffffffffffffffffffffffffff1673ffffffffffffffffffffffffffffffffffffffff1681526020018381038352868181546001816001161561010002031660029004815260200191508054600181600116156101000203166002900480156106305780601f1061060557610100808354040283529160200191610630565b820191906000526020600020905b81548152906001019060200180831161061357829003601f168201915b50508381038252858181546001816001161561010002031660029004815260200191508054600181600116156101000203166002900480156106b35780601f10610688576101008083540402835291602001916106b3565b820191906000526020600020905b81548152906001019060200180831161069657829003601f168201915b50509550505050505060405180910390f35b34156106d057600080fd5b6106d861170f565b6040518080602001828103825283818151815260200191508051906020019060200280838360005b8381101561071b578082015181840152602081019050610700565b505050509050019250505060405180910390f35b341561073a57600080fd5b6107426117a3565b005b341561074f57600080fd5b610801600480803573ffffffffffffffffffffffffffffffffffffffff1690602001909190803590602001908201803590602001908080601f0160208091040260200160405190810160405280939291908181526020018383808284378201915050505050509190803590602001908201803590602001908080601f01602080910402602001604051908101604052809392919081815260200183838082843782019150505050505091905050611838565b005b341561080e57600080fd5b61083a600480803573ffffffffffffffffffffffffffffffffffffffff169060200190919050506119e6565b604051808060200180602001838103835285818151815260200191508051906020019080838360005b8381101561087e578082015181840152602081019050610863565b50505050905090810190601f1680156108ab5780820380516001836020036101000a031916815260200191505b50838103825284818151815260200191508051906020019080838360005b838110156108e45780820151818401526020810190506108c9565b50505050905090810190601f1680156109115780820380516001836020036101000a031916815260200191505b5094505050505060405180910390f35b341561092c57600080fd5b610934611ba2565b6040518082815260200191505060405180910390f35b341561095557600080fd5b610981600480803573ffffffffffffffffffffffffffffffffffffffff16906020019091905050611baf565b005b341561098e57600080fd5b610996611e19565b6040518080602001828103825283818151815260200191508051906020019060200280838360005b838110156109d95780820151818401526020810190506109be565b505050509050019250505060405180910390f35b34156109f857600080fd5b610aaa600480803573ffffffffffffffffffffffffffffffffffffffff1690602001909190803590602001908201803590602001908080601f0160208091040260200160405190810160405280939291908181526020018383808284378201915050505050509190803590602001908201803590602001908080601f01602080910402602001604051908101604052809392919081815260200183838082843782019150505050505091905050611ead565b005b3415610ab757600080fd5b610abf6120be565b604051808273ffffffffffffffffffffffffffffffffffffffff1673ffffffffffffffffffffffffffffffffffffffff16815260200191505060405180910390f35b3415610b0c57600080fd5b610b57600480803573ffffffffffffffffffffffffffffffffffffffff1690602001909190803573ffffffffffffffffffffffffffffffffffffffff169060200190919050506120e7565b604051808273ffffffffffffffffffffffffffffffffffffffff1673ffffffffffffffffffffffffffffffffffffffff16815260200191505060405180910390f35b3415610ba457600080fd5b610bac612545565b604051808273ffffffffffffffffffffffffffffffffffffffff1673ffffffffffffffffffffffffffffffffffffffff16815260200191505060405180910390f35b3415610bf957600080fd5b610c0f600480803590602001909190505061256a565b604051808273ffffffffffffffffffffffffffffffffffffffff1673ffffffffffffffffffffffffffffffffffffffff16815260200191505060405180910390f35b3415610c5c57600080fd5b610c88600480803573ffffffffffffffffffffffffffffffffffffffff169060200190919050506125a9565b005b3415610c9557600080fd5b610cab600480803590602001909190505061266b565b604051808060200180602001838103835285818151815260200191508051906020019080838360005b83811015610cef578082015181840152602081019050610cd4565b50505050905090810190601f168015610d1c5780820380516001836020036101000a031916815260200191505b50838103825284818151815260200191508051906020019080838360005b83811015610d55578082015181840152602081019050610d3a565b50505050905090810190601f168015610d825780820380516001836020036101000a031916815260200191505b5094505050505060405180910390f35b3415610d9d57600080fd5b610dc9600480803573ffffffffffffffffffffffffffffffffffffffff1690602001909190505061287b565b005b3415610dd657600080fd5b610dec6004808035906020019091905050612c6e565b6040518080602001806020018473ffffffffffffffffffffffffffffffffffffffff1673ffffffffffffffffffffffffffffffffffffffff168152602001838103835286818151815260200191508051906020019080838360005b83811015610e62578082015181840152602081019050610e47565b50505050905090810190601f168015610e8f5780820380516001836020036101000a031916815260200191505b50838103825285818151815260200191508051906020019080838360005b83811015610ec8578082015181840152602081019050610ead565b50505050905090810190601f168015610ef55780820380516001836020036101000a031916815260200191505b509550505050505060405180910390f35b3415610f1157600080fd5b610f19612edf565b6040518080602001828103825283818151815260200191508051906020019060200280838360005b83811015610f5c578082015181840152602081019050610f41565b505050509050019250505060405180910390f35b3415610f7b57600080fd5b610fa7600480803573ffffffffffffffffffffffffffffffffffffffff16906020019091905050612f73565b604051808060200180602001838103835285818151815260200191508051906020019080838360005b83811015610feb578082015181840152602081019050610fd0565b50505050905090810190601f1680156110185780820380516001836020036101000a031916815260200191505b50838103825284818151815260200191508051906020019080838360005b83811015611051578082015181840152602081019050611036565b50505050905090810190601f16801561107e5780820380516001836020036101000a031916815260200191505b5094505050505060405180910390f35b341561109957600080fd5b61114b600480803573ffffffffffffffffffffffffffffffffffffffff1690602001909190803590602001908201803590602001908080601f0160208091040260200160405190810160405280939291908181526020018383808284378201915050505050509190803590602001908201803590602001908080601f0160208091040260200160405190810160405280939291908181526020018383808284378201915050505050509190505061312f565b005b341561115857600080fd5b61116e60048080359060200190919050506133b7565b604051808273ffffffffffffffffffffffffffffffffffffffff1673ffffffffffffffffffffffffffffffffffffffff16815260200191505060405180910390f35b34156111bb57600080fd5b6111e7600480803573ffffffffffffffffffffffffffffffffffffffff169060200190919050506133f6565b005b34156111f457600080fd5b611220600480803573ffffffffffffffffffffffffffffffffffffffff16906020019091905050613730565b604051808060200180602001838103835285818151815260200191508051906020019080838360005b83811015611264578082015181840152602081019050611249565b50505050905090810190601f1680156112915780820380516001836020036101000a031916815260200191505b50838103825284818151815260200191508051906020019080838360005b838110156112ca5780820151818401526020810190506112af565b50505050905090810190601f1680156112f75780820380516001836020036101000a031916815260200191505b5094505050505060405180910390f35b6003602052806000526040600020600091509050806000019080600101905082565b60008060008491506006600a81111561133e57fe5b8273ffffffffffffffffffffffffffffffffffffffff1663a39152f26000604051602001526040518163ffffffff167c0100000000000000000000000000000000000000000000000000000000028152600401602060405180830381600087803b15156113aa57600080fd5b6102c65a03f115156113bb57600080fd5b50505060405180519050600a8111156113d057fe5b1480156113e257506113e184613949565b5b801561149f57508173ffffffffffffffffffffffffffffffffffffffff166360d704db6000604051602001526040518163ffffffff167c0100000000000000000000000000000000000000000000000000000000028152600401602060405180830381600087803b151561145557600080fd5b6102c65a03f1151561146657600080fd5b5050506040518051905073ffffffffffffffffffffffffffffffffffffffff163373ffffffffffffffffffffffffffffffffffffffff16145b15156114aa57600080fd5b8173ffffffffffffffffffffffffffffffffffffffff16632259515b856000604051602001526040518263ffffffff167c01000000000000000000000000000000000000000000000000000000000281526004018080602001828103825283818151815260200191508051906020019080838360005b8381101561153b578082015181840152602081019050611520565b50505050905090810190601f1680156115685780820380516001836020036101000a031916815260200191505b5092505050602060405180830381600087803b151561158657600080fd5b6102c65a03f1151561159757600080fd5b505050604051805190509050600780548060010182816115b79190613967565b9160005260206000209001600083909190916101000a81548173ffffffffffffffffffffffffffffffffffffffff021916908373ffffffffffffffffffffffffffffffffffffffff16021790555050809250505092915050565b6005602052806000526040600020600091509050806000019080600101905082565b61163b613993565b60028054806020026020016040519081016040528092919081815260200182805480156116bd57602002820191906000526020600020905b8160009054906101000a900473ffffffffffffffffffffffffffffffffffffffff1673ffffffffffffffffffffffffffffffffffffffff1681526020019060010190808311611673575b5050505050905090565b6001602052806000526040600020600091509050806000019080600101908060020160009054906101000a900473ffffffffffffffffffffffffffffffffffffffff16905083565b611717613993565b600680548060200260200160405190810160405280929190818152602001828054801561179957602002820191906000526020600020905b8160009054906101000a900473ffffffffffffffffffffffffffffffffffffffff1673ffffffffffffffffffffffffffffffffffffffff168152602001906001019080831161174f575b5050505050905090565b6000809054906101000a900473ffffffffffffffffffffffffffffffffffffffff1673ffffffffffffffffffffffffffffffffffffffff163373ffffffffffffffffffffffffffffffffffffffff161415156117fe57600080fd5b6000809054906101000a900473ffffffffffffffffffffffffffffffffffffffff1673ffffffffffffffffffffffffffffffffffffffff16ff5b60008060009054906101000a900473ffffffffffffffffffffffffffffffffffffffff1673ffffffffffffffffffffffffffffffffffffffff163373ffffffffffffffffffffffffffffffffffffffff1614151561189557600080fd5b600560008573ffffffffffffffffffffffffffffffffffffffff1673ffffffffffffffffffffffffffffffffffffffff1681526020019081526020016000209050828160000190805190602001906118ee9291906139a7565b50818160010190805190602001906119079291906139a7565b507f3cdf985955e499413107b03adc7c7db5433c87ba6fa7a1beec377bb814138b9f338442604051808473ffffffffffffffffffffffffffffffffffffffff1673ffffffffffffffffffffffffffffffffffffffff16815260200180602001838152602001828103825284818151815260200191508051906020019080838360005b838110156119a4578082015181840152602081019050611989565b50505050905090810190601f1680156119d15780820380516001836020036101000a031916815260200191505b5094505050505060405180910390a150505050565b6119ee613a27565b6119f6613a27565b6119fe613a3b565b600360008573ffffffffffffffffffffffffffffffffffffffff1673ffffffffffffffffffffffffffffffffffffffff168152602001908152602001600020604080519081016040529081600082018054600181600116156101000203166002900480601f016020809104026020016040519081016040528092919081815260200182805460018160011615610100020316600290048015611ae15780601f10611ab657610100808354040283529160200191611ae1565b820191906000526020600020905b815481529060010190602001808311611ac457829003601f168201915b50505050508152602001600182018054600181600116156101000203166002900480601f016020809104026020016040519081016040528092919081815260200182805460018160011615610100020316600290048015611b835780601f10611b5857610100808354040283529160200191611b83565b820191906000526020600020905b815481529060010190602001808311611b6657829003601f168201915b5050505050815250509050806000015192508060200151915050915091565b6000600280549050905090565b60008190508073ffffffffffffffffffffffffffffffffffffffff1663650d993b6000604051602001526040518163ffffffff167c0100000000000000000000000000000000000000000000000000000000028152600401602060405180830381600087803b1515611c2057600080fd5b6102c65a03f11515611c3157600080fd5b5050506040518051905073ffffffffffffffffffffffffffffffffffffffff163373ffffffffffffffffffffffffffffffffffffffff16148015611cf857508073ffffffffffffffffffffffffffffffffffffffff1663bb5d40eb6000604051602001526040518163ffffffff167c0100000000000000000000000000000000000000000000000000000000028152600401602060405180830381600087803b1515611cdc57600080fd5b6102c65a03f11515611ced57600080fd5b505050604051805190505b1515611d0357600080fd5b8073ffffffffffffffffffffffffffffffffffffffff16634a0b20aa6040518163ffffffff167c0100000000000000000000000000000000000000000000000000000000028152600401600060405180830381600087803b1515611d6657600080fd5b6102c65a03f11515611d7757600080fd5b50505060068054806001018281611d8e9190613967565b9160005260206000209001600084909190916101000a81548173ffffffffffffffffffffffffffffffffffffffff021916908373ffffffffffffffffffffffffffffffffffffffff160217905550507f57143a848ca1934f8edbced05c3d8b6b0bc036184a381189d94cc7a7b8e263cb60016040518082815260200191505060405180910390a15050565b611e21613993565b6004805480602002602001604051908101604052809291908181526020018280548015611ea357602002820191906000526020600020905b8160009054906101000a900473ffffffffffffffffffffffffffffffffffffffff1673ffffffffffffffffffffffffffffffffffffffff1681526020019060010190808311611e59575b5050505050905090565b60008060009054906101000a900473ffffffffffffffffffffffffffffffffffffffff1673ffffffffffffffffffffffffffffffffffffffff163373ffffffffffffffffffffffffffffffffffffffff16141515611f0a57600080fd5b600360008573ffffffffffffffffffffffffffffffffffffffff1673ffffffffffffffffffffffffffffffffffffffff168152602001908152602001600020905082816000019080519060200190611f639291906139a7565b5081816001019080519060200190611f7c9291906139a7565b5060048054806001018281611f919190613967565b9160005260206000209001600086909190916101000a81548173ffffffffffffffffffffffffffffffffffffffff021916908373ffffffffffffffffffffffffffffffffffffffff160217905550507f783e5f858212246618c02751dfbc4e502a48ca372a20f94a46d8e99fe70c998c848442604051808473ffffffffffffffffffffffffffffffffffffffff1673ffffffffffffffffffffffffffffffffffffffff16815260200180602001838152602001828103825284818151815260200191508051906020019080838360005b8381101561207c578082015181840152602081019050612061565b50505050905090810190601f1680156120a95780820380516001836020036101000a031916815260200191505b5094505050505060405180910390a150505050565b60008060009054906101000a900473ffffffffffffffffffffffffffffffffffffffff16905090565b6000808390508073ffffffffffffffffffffffffffffffffffffffff1663565a2e2c6000604051602001526040518163ffffffff167c0100000000000000000000000000000000000000000000000000000000028152600401602060405180830381600087803b151561215957600080fd5b6102c65a03f1151561216a57600080fd5b5050506040518051905073ffffffffffffffffffffffffffffffffffffffff163373ffffffffffffffffffffffffffffffffffffffff1614801561223157508073ffffffffffffffffffffffffffffffffffffffff1663bb5d40eb6000604051602001526040518163ffffffff167c0100000000000000000000000000000000000000000000000000000000028152600401602060405180830381600087803b151561221557600080fd5b6102c65a03f1151561222657600080fd5b505050604051805190505b80156122c057508073ffffffffffffffffffffffffffffffffffffffff1663cded37376000604051602001526040518163ffffffff167c0100000000000000000000000000000000000000000000000000000000028152600401602060405180830381600087803b15156122a457600080fd5b6102c65a03f115156122b557600080fd5b505050604051805190505b15156122cb57600080fd5b8273ffffffffffffffffffffffffffffffffffffffff1663bea14fc18273ffffffffffffffffffffffffffffffffffffffff1663d321fe296000604051602001526040518163ffffffff167c0100000000000000000000000000000000000000000000000000000000028152600401602060405180830381600087803b151561235357600080fd5b6102c65a03f1151561236457600080fd5b505050604051805190508373ffffffffffffffffffffffffffffffffffffffff1663b13564886000604051602001526040518163ffffffff167c0100000000000000000000000000000000000000000000000000000000028152600401602060405180830381600087803b15156123da57600080fd5b6102c65a03f115156123eb57600080fd5b505050604051805190506040518363ffffffff167c01000000000000000000000000000000000000000000000000000000000281526004018083815260200182815260200192505050600060405180830381600087803b151561244d57600080fd5b6102c65a03f1151561245e57600080fd5b5050508073ffffffffffffffffffffffffffffffffffffffff16634a0b20aa6040518163ffffffff167c0100000000000000000000000000000000000000000000000000000000028152600401600060405180830381600087803b15156124c457600080fd5b6102c65a03f115156124d557600080fd5b505050600680548060010182816124ec9190613967565b9160005260206000209001600086909190916101000a81548173ffffffffffffffffffffffffffffffffffffffff021916908373ffffffffffffffffffffffffffffffffffffffff160217905550508391505092915050565b6000809054906101000a900473ffffffffffffffffffffffffffffffffffffffff1681565b60068181548110151561257957fe5b90600052602060002090016000915054906101000a900473ffffffffffffffffffffffffffffffffffffffff1681565b6000809054906101000a900473ffffffffffffffffffffffffffffffffffffffff1673ffffffffffffffffffffffffffffffffffffffff163373ffffffffffffffffffffffffffffffffffffffff1614151561260457600080fd5b60008173ffffffffffffffffffffffffffffffffffffffff16141561262857600080fd5b806000806101000a81548173ffffffffffffffffffffffffffffffffffffffff021916908373ffffffffffffffffffffffffffffffffffffffff16021790555050565b612673613a27565b61267b613a27565b612683613a3b565b600480549050841115151561269757600080fd5b600360006004868154811015156126aa57fe5b906000526020600020900160009054906101000a900473ffffffffffffffffffffffffffffffffffffffff1673ffffffffffffffffffffffffffffffffffffffff1673ffffffffffffffffffffffffffffffffffffffff168152602001908152602001600020604080519081016040529081600082018054600181600116156101000203166002900480601f0160208091040260200160405190810160405280929190818152602001828054600181600116156101000203166002900480156127b45780601f10612789576101008083540402835291602001916127b4565b820191906000526020600020905b81548152906001019060200180831161279757829003601f168201915b50505050508152602001600182018054600181600116156101000203166002900480601f0160208091040260200160405190810160405280929190818152602001828054600181600116156101000203166002900480156128565780601f1061282b57610100808354040283529160200191612856565b820191906000526020600020905b81548152906001019060200180831161283957829003601f168201915b5050505050815250509050806000015181602001518191508090509250925050915091565b60008190508073ffffffffffffffffffffffffffffffffffffffff166360d704db6000604051602001526040518163ffffffff167c0100000000000000000000000000000000000000000000000000000000028152600401602060405180830381600087803b15156128ec57600080fd5b6102c65a03f115156128fd57600080fd5b5050506040518051905073ffffffffffffffffffffffffffffffffffffffff163373ffffffffffffffffffffffffffffffffffffffff161480156129c457508073ffffffffffffffffffffffffffffffffffffffff1663bb5d40eb6000604051602001526040518163ffffffff167c0100000000000000000000000000000000000000000000000000000000028152600401602060405180830381600087803b15156129a857600080fd5b6102c65a03f115156129b957600080fd5b505050604051805190505b15156129cf57600080fd5b8073ffffffffffffffffffffffffffffffffffffffff16632852b71c6000604051602001526040518163ffffffff167c0100000000000000000000000000000000000000000000000000000000028152600401602060405180830381600087803b1515612a3b57600080fd5b6102c65a03f11515612a4c57600080fd5b5050506040518051905015612c65578073ffffffffffffffffffffffffffffffffffffffff1663cded37376000604051602001526040518163ffffffff167c0100000000000000000000000000000000000000000000000000000000028152600401602060405180830381600087803b1515612ac757600080fd5b6102c65a03f11515612ad857600080fd5b5050506040518051905015612bfd57612bfc8173ffffffffffffffffffffffffffffffffffffffff16636f00817e6000604051602001526040518163ffffffff167c0100000000000000000000000000000000000000000000000000000000028152600401602060405180830381600087803b1515612b5657600080fd5b6102c65a03f11515612b6757600080fd5b5050506040518051905073ffffffffffffffffffffffffffffffffffffffff16633f40d18f6000604051602001526040518163ffffffff167c0100000000000000000000000000000000000000000000000000000000028152600401602060405180830381600087803b1515612bdc57600080fd5b6102c65a03f11515612bed57600080fd5b505050604051805190506133f6565b5b7f1457a9baaa8780bd74ceb2f0317119ca2bd8fc94db0895f9d641400b8571459082604051808273ffffffffffffffffffffffffffffffffffffffff1673ffffffffffffffffffffffffffffffffffffffff16815260200191505060405180910390a1612c6a565b600080fd5b5050565b612c76613a27565b612c7e613a27565b6000612c88613a61565b60028054905085101515612c9b57600080fd5b60016000600287815481101515612cae57fe5b906000526020600020900160009054906101000a900473ffffffffffffffffffffffffffffffffffffffff1673ffffffffffffffffffffffffffffffffffffffff1673ffffffffffffffffffffffffffffffffffffffff16815260200190815260200160002060606040519081016040529081600082018054600181600116156101000203166002900480601f016020809104026020016040519081016040528092919081815260200182805460018160011615610100020316600290048015612db95780601f10612d8e57610100808354040283529160200191612db9565b820191906000526020600020905b815481529060010190602001808311612d9c57829003601f168201915b50505050508152602001600182018054600181600116156101000203166002900480601f016020809104026020016040519081016040528092919081815260200182805460018160011615610100020316600290048015612e5b5780601f10612e3057610100808354040283529160200191612e5b565b820191906000526020600020905b815481529060010190602001808311612e3e57829003601f168201915b505050505081526020016002820160009054906101000a900473ffffffffffffffffffffffffffffffffffffffff1673ffffffffffffffffffffffffffffffffffffffff1673ffffffffffffffffffffffffffffffffffffffff16815250509050806000015181602001518260400151829250819150935093509350509193909250565b612ee7613993565b6007805480602002602001604051908101604052809291908181526020018280548015612f6957602002820191906000526020600020905b8160009054906101000a900473ffffffffffffffffffffffffffffffffffffffff1673ffffffffffffffffffffffffffffffffffffffff1681526020019060010190808311612f1f575b5050505050905090565b612f7b613a27565b612f83613a27565b612f8b613aa5565b600560008573ffffffffffffffffffffffffffffffffffffffff1673ffffffffffffffffffffffffffffffffffffffff168152602001908152602001600020604080519081016040529081600082018054600181600116156101000203166002900480601f01602080910402602001604051908101604052809291908181526020018280546001816001161561010002031660029004801561306e5780601f106130435761010080835404028352916020019161306e565b820191906000526020600020905b81548152906001019060200180831161305157829003601f168201915b50505050508152602001600182018054600181600116156101000203166002900480601f0160208091040260200160405190810160405280929190818152602001828054600181600116156101000203166002900480156131105780601f106130e557610100808354040283529160200191613110565b820191906000526020600020905b8154815290600101906020018083116130f357829003601f168201915b5050505050815250509050806000015192508060200151915050915091565b60008060009054906101000a900473ffffffffffffffffffffffffffffffffffffffff1673ffffffffffffffffffffffffffffffffffffffff163373ffffffffffffffffffffffffffffffffffffffff1614151561318c57600080fd5b600160008573ffffffffffffffffffffffffffffffffffffffff1673ffffffffffffffffffffffffffffffffffffffff1681526020019081526020016000209050828160000190805190602001906131e59291906139a7565b50818160010190805190602001906131fe9291906139a7565b50838160020160006101000a81548173ffffffffffffffffffffffffffffffffffffffff021916908373ffffffffffffffffffffffffffffffffffffffff160217905550600280548060010182816132569190613967565b9160005260206000209001600086909190916101000a81548173ffffffffffffffffffffffffffffffffffffffff021916908373ffffffffffffffffffffffffffffffffffffffff160217905550507fb3bb6454838f769878c9da3dacefc82660ff82c898c373385ad5e32c9aa4767433858542604051808573ffffffffffffffffffffffffffffffffffffffff1673ffffffffffffffffffffffffffffffffffffffff1681526020018473ffffffffffffffffffffffffffffffffffffffff1673ffffffffffffffffffffffffffffffffffffffff16815260200180602001838152602001828103825284818151815260200191508051906020019080838360005b83811015613374578082015181840152602081019050613359565b50505050905090810190601f1680156133a15780820380516001836020036101000a031916815260200191505b509550505050505060405180910390a150505050565b6007818154811015156133c657fe5b90600052602060002090016000915054906101000a900473ffffffffffffffffffffffffffffffffffffffff1681565b6000808291508173ffffffffffffffffffffffffffffffffffffffff166388a22f7a6000604051602001526040518163ffffffff167c0100000000000000000000000000000000000000000000000000000000028152600401602060405180830381600087803b151561346857600080fd5b6102c65a03f1151561347957600080fd5b505050604051805190509050600073ffffffffffffffffffffffffffffffffffffffff168373ffffffffffffffffffffffffffffffffffffffff16141580156135755750600073ffffffffffffffffffffffffffffffffffffffff168173ffffffffffffffffffffffffffffffffffffffff16633f40d18f6000604051602001526040518163ffffffff167c0100000000000000000000000000000000000000000000000000000000028152600401602060405180830381600087803b151561354157600080fd5b6102c65a03f1151561355257600080fd5b5050506040518051905073ffffffffffffffffffffffffffffffffffffffff1614155b801561363257508073ffffffffffffffffffffffffffffffffffffffff1663565a2e2c6000604051602001526040518163ffffffff167c0100000000000000000000000000000000000000000000000000000000028152600401602060405180830381600087803b15156135e857600080fd5b6102c65a03f115156135f957600080fd5b5050506040518051905073ffffffffffffffffffffffffffffffffffffffff163373ffffffffffffffffffffffffffffffffffffffff16145b151561363d57600080fd5b8173ffffffffffffffffffffffffffffffffffffffff1663c700c70d6040518163ffffffff167c0100000000000000000000000000000000000000000000000000000000028152600401600060405180830381600087803b15156136a057600080fd5b6102c65a03f115156136b157600080fd5b5050508073ffffffffffffffffffffffffffffffffffffffff1663c700c70d6040518163ffffffff167c0100000000000000000000000000000000000000000000000000000000028152600401600060405180830381600087803b151561371757600080fd5b6102c65a03f1151561372857600080fd5b505050505050565b613738613a27565b613740613a27565b613748613a61565b600160008573ffffffffffffffffffffffffffffffffffffffff1673ffffffffffffffffffffffffffffffffffffffff16815260200190815260200160002060606040519081016040529081600082018054600181600116156101000203166002900480601f01602080910402602001604051908101604052809291908181526020018280546001816001161561010002031660029004801561382c5780601f106138015761010080835404028352916020019161382c565b820191906000526020600020905b81548152906001019060200180831161380f57829003601f168201915b50505050508152602001600182018054600181600116156101000203166002900480601f0160208091040260200160405190810160405280929190818152602001828054600181600116156101000203166002900480156138ce5780601f106138a3576101008083540402835291602001916138ce565b820191906000526020600020905b8154815290600101906020018083116138b157829003601f168201915b505050505081526020016002820160009054906101000a900473ffffffffffffffffffffffffffffffffffffffff1673ffffffffffffffffffffffffffffffffffffffff1673ffffffffffffffffffffffffffffffffffffffff16815250509050806000015181602001518191508090509250925050915091565b6000808251111561395d5760019050613962565b600090505b919050565b81548183558181151161398e5781836000526020600020918201910161398d9190613acb565b5b505050565b602060405190810160405280600081525090565b828054600181600116156101000203166002900490600052602060002090601f016020900481019282601f106139e857805160ff1916838001178555613a16565b82800160010185558215613a16579182015b82811115613a155782518255916020019190600101906139fa565b5b509050613a239190613acb565b5090565b602060405190810160405280600081525090565b6040805190810160405280613a4e613af0565b8152602001613a5b613af0565b81525090565b606060405190810160405280613a75613af0565b8152602001613a82613af0565b8152602001600073ffffffffffffffffffffffffffffffffffffffff1681525090565b6040805190810160405280613ab8613af0565b8152602001613ac5613af0565b81525090565b613aed91905b80821115613ae9576000816000905550600101613ad1565b5090565b90565b6020604051908101604052806000815250905600a165627a7a723058203c6407ff9a1ee3780a8f9bc0959a46b8bd68bc0f132602e589f63a3e4e19dca70029",
  "source": "pragma solidity ^0.4.13;\n\nimport \"./Ownable.sol\";\nimport \"./GuaranteeConst.sol\";\nimport \"./IssuerManager.sol\";\nimport \"./BeneficiaryManager.sol\";\nimport \"./CustomerManager.sol\";\nimport \"./GuaranteeRequest.sol\";\nimport \"./ChangeGuaranteeRequest.sol\";\n\n//\n////###\n//// general contract for better operations of the system\n////###\n//contract owned {\n//    //owner address for ownership validation\n//    address owner;\n//\n//    //constractor to verify real owner assignment\n//    function owned() {\n//        owner = msg.sender;\n//        log(\"owner=\",owner);\n//    }\n//\n//    //owner check modifier\n//    modifier onlyOwner {\n//        require(msg.sender == owner);\n//        _;\n//    }\n//\n//    //contract distruction by owner only\n//    function close() onlyOwner {\n//        log(\"##contract closed by owner=\",owner);\n//        selfdestruct(owner);\n//    }\n//\n//    //constractor to verify real owner assignment\n//    function getOwner() constant returns (address){\n//        return owner ;\n//    }\n//    //log event for debug purposes\n//    event log(string loga, address logb);\n//}\n\n\ncontract Regulator is Ownable,IssuerManager,BeneficiaryManager,CustomerManager,GuaranteeConst{\n\n    //guarantee request states\n    address [] public  guaranteeRequests;\n    address [] public  guarantees;\n\n\n\n\n    event RegulatoryContractDeployed (address msgSender,string msgstr,uint timestamp);\n    function Regulator(){\n//        owner = msg.sender;\n\n\n\n        submitBeneficiary(msg.sender,\"  \",\" 20,  \");\n        submitCustomer(msg.sender,\" \",\" 11  \");\n        submitIssuer(msg.sender,\" \",\" 11  \");\n        RegulatoryContractDeployed(msg.sender,\"Mined\",now);\n    }\n\n\n    function getRequestAddressList() public constant returns (address[] )\n\n    {\n//         AAA(guaranteeRequests.length);\n        return guaranteeRequests;\n\n\n    }\n\n    function getGuaranteeAddressesList() public constant returns (address[] )\n    {\n\n        return guarantees;\n\n    }\n\n\n\n\n\n    event AAA(uint length);\n\n    function addGuaranteeRequest(address  _guaranteeRequest)  public\n    {\n\n        GuaranteeRequestExtender ge=GuaranteeRequestExtender(_guaranteeRequest);\n        require(msg.sender == ge.getCustomer() && ge.isValid());\n        ge.setRegulator();\n        guaranteeRequests.push(_guaranteeRequest);\n        AAA(1);\n\n    }\n\n    event GuaranteeSign(address  _guaranteeRequest);\n    function acceptGuaranteeRequest(address  _guaranteeRequest)  public\n    {\n        GuaranteeRequestExtender ge=GuaranteeRequestExtender(_guaranteeRequest);\n        require(msg.sender == ge.getBank() && ge.isValid());\n\n\n        if (ge.accept()) {\n            if (ge.isChangeRequest())\n            {\n                terminateGuarantee(GuaranteeRequestExtender(ge.getChangeRequestGuarantee()).getGuaranteeAddress());\n            }\n            GuaranteeSign(_guaranteeRequest);\n        }\n        else\n            throw;\n    }\n\n    function GuaranteeSignComplite(address  _guaranteeRequest,bytes _guaranteeIPFSHash)  public  returns (address)\n    {\n        GuaranteeRequestExtender ge=GuaranteeRequestExtender(_guaranteeRequest);\n        require( ge.getRequestState()==RequestState.accepted && _checkArray(_guaranteeIPFSHash) && msg.sender == ge.getBank());\n\n\n        address gra=ge.signComplite(_guaranteeIPFSHash);\n        guarantees.push(gra);\n\n        return gra;\n\n    }\n\n\n\n\n\n    function terminateGuarantee(address  _guarantee)  public\n    {\n\n\n\n        GuaranteeExtender ge= GuaranteeExtender(_guarantee);\n        GuaranteeRequestExtender ger=GuaranteeRequestExtender(ge.getGuaranteeRequest());\n        require( _guarantee!= address(0) && ger.getGuaranteeAddress()!= address(0) && msg.sender == ger.getBeneficiary() );\n\n        ge.terminateGuarantee() ;\n        ger.terminateGuarantee();\n\n\n    }\n\n\n\n\n\n//    function changeGuarantee(address  _guarantee ,uint _newamount, uint _newendDate)  returns (bool)  //onlyBeneficiary\n//    {\n////        GuaranteeExtender ge= GuaranteeExtender(_guarantee);\n////        GuaranteeRequestExtender ger=GuaranteeRequestExtender(ge.getGuaranteeRequest());\n////        require( ger.getRequestState()==RequestState.accepted && msg.sender == ger.getBeneficiary() && _guarantee!= address(0));\n////\n////        ger.changeRequested( _newamount,  _newendDate);\n////        ChangeGuaranteeRequest newger=new ChangeGuaranteeRequest(ge.getGuaranteeRequest(),_newamount, _newendDate);\n////        guaranteeRequests.push(newger.getId());\n//\n////        guaranteeRequests.push( new ChangeGuaranteeRequest(ge.getGuaranteeRequest(),_newamount, _newendDate).getId());\n////        return true;\n//    }\n\n    function changeGuarantee(address  _changeGuaranteeRequest,address guarantie )  public  returns (address)//onlyBeneficiary\n    {\n        ChangeGuaranteeRequest newger=ChangeGuaranteeRequest(_changeGuaranteeRequest);\n        require(msg.sender == newger.getBeneficiary() && newger.isValid() && newger.isChangeRequest());\n        GuaranteeExtender(guarantie).changeRequest(newger.getAmount(),newger.getEndDate());\n//            .getChangeRequestGuarantee()).\n        newger.setRegulator();\n        guaranteeRequests.push(_changeGuaranteeRequest);\n        return _changeGuaranteeRequest;\n    }\n\n\n\n}\n",
  "sourcePath": "/Users/dmitryshlymovich/workspace/ethereum-garanties/truffle_eth_bnhp/contracts/Regulator.sol",
  "compiler": {
    "name": "solc",
    "version": "0.4.18+commit.9cf6e910.Emscripten.clang"
  },
  "schemaVersion": "1.0.1",
  "updatedAt": "2018-01-23T13:45:14.077Z"
}