{
  "contractName": "Regulator",
  "abi": [
    {
      "constant": true,
      "inputs": [
        {
          "name": "",
          "type": "address"
        }
      ],
      "name": "beneficiaries",
      "outputs": [
        {
          "name": "name",
          "type": "string"
        },
        {
          "name": "localAddress",
          "type": "string"
        },
        {
          "name": "isdefined",
          "type": "bool"
        }
      ],
      "payable": false,
      "stateMutability": "view",
      "type": "function"
    },
    {
      "constant": false,
      "inputs": [
        {
          "name": "_guaranteeRequest",
          "type": "address"
        },
        {
          "name": "_guaranteeIPFSHash",
          "type": "bytes"
        }
      ],
      "name": "GuaranteeSignComplite",
      "outputs": [
        {
          "name": "",
          "type": "address"
        }
      ],
      "payable": false,
      "stateMutability": "nonpayable",
      "type": "function"
    },
    {
      "constant": true,
      "inputs": [
        {
          "name": "",
          "type": "address"
        }
      ],
      "name": "customers",
      "outputs": [
        {
          "name": "name",
          "type": "string"
        },
        {
          "name": "localAddress",
          "type": "string"
        },
        {
          "name": "isdefined",
          "type": "bool"
        }
      ],
      "payable": false,
      "stateMutability": "view",
      "type": "function"
    },
    {
      "constant": true,
      "inputs": [],
      "name": "getIssuerAddressesList",
      "outputs": [
        {
          "name": "",
          "type": "address[]"
        }
      ],
      "payable": false,
      "stateMutability": "view",
      "type": "function"
    },
    {
      "constant": true,
      "inputs": [
        {
          "name": "",
          "type": "address"
        }
      ],
      "name": "issuers",
      "outputs": [
        {
          "name": "name",
          "type": "string"
        },
        {
          "name": "localAddress",
          "type": "string"
        },
        {
          "name": "addr",
          "type": "address"
        },
        {
          "name": "isdefined",
          "type": "bool"
        }
      ],
      "payable": false,
      "stateMutability": "view",
      "type": "function"
    },
    {
      "constant": true,
      "inputs": [],
      "name": "getRequestAddressList",
      "outputs": [
        {
          "name": "",
          "type": "address[]"
        }
      ],
      "payable": false,
      "stateMutability": "view",
      "type": "function"
    },
    {
      "constant": false,
      "inputs": [],
      "name": "close",
      "outputs": [],
      "payable": false,
      "stateMutability": "nonpayable",
      "type": "function"
    },
    {
      "constant": false,
      "inputs": [
        {
          "name": "_addr",
          "type": "address"
        },
        {
          "name": "_name",
          "type": "string"
        },
        {
          "name": "_localAddres",
          "type": "string"
        }
      ],
      "name": "submitCustomer",
      "outputs": [],
      "payable": false,
      "stateMutability": "nonpayable",
      "type": "function"
    },
    {
      "constant": true,
      "inputs": [
        {
          "name": "_addr",
          "type": "address"
        }
      ],
      "name": "getBeneficiary",
      "outputs": [
        {
          "name": "_name",
          "type": "string"
        },
        {
          "name": "_localAddress",
          "type": "string"
        }
      ],
      "payable": false,
      "stateMutability": "view",
      "type": "function"
    },
    {
      "constant": true,
      "inputs": [],
      "name": "getIssuerCounter",
      "outputs": [
        {
          "name": "",
          "type": "uint256"
        }
      ],
      "payable": false,
      "stateMutability": "view",
      "type": "function"
    },
    {
      "constant": false,
      "inputs": [
        {
          "name": "_guaranteeRequest",
          "type": "address"
        }
      ],
      "name": "addGuaranteeRequest",
      "outputs": [],
      "payable": false,
      "stateMutability": "nonpayable",
      "type": "function"
    },
    {
      "constant": true,
      "inputs": [],
      "name": "getBeneficiaryAddresses",
      "outputs": [
        {
          "name": "",
          "type": "address[]"
        }
      ],
      "payable": false,
      "stateMutability": "view",
      "type": "function"
    },
    {
      "constant": false,
      "inputs": [
        {
          "name": "_addr",
          "type": "address"
        },
        {
          "name": "_name",
          "type": "string"
        },
        {
          "name": "_localAddres",
          "type": "string"
        }
      ],
      "name": "submitBeneficiary",
      "outputs": [],
      "payable": false,
      "stateMutability": "nonpayable",
      "type": "function"
    },
    {
      "constant": true,
      "inputs": [],
      "name": "getOwner",
      "outputs": [
        {
          "name": "",
          "type": "address"
        }
      ],
      "payable": false,
      "stateMutability": "view",
      "type": "function"
    },
    {
      "constant": false,
      "inputs": [
        {
          "name": "_changeGuaranteeRequest",
          "type": "address"
        },
        {
          "name": "guarantie",
          "type": "address"
        }
      ],
      "name": "changeGuarantee",
      "outputs": [
        {
          "name": "",
          "type": "address"
        }
      ],
      "payable": false,
      "stateMutability": "nonpayable",
      "type": "function"
    },
    {
      "constant": true,
      "inputs": [],
      "name": "owner",
      "outputs": [
        {
          "name": "",
          "type": "address"
        }
      ],
      "payable": false,
      "stateMutability": "view",
      "type": "function"
    },
    {
      "constant": true,
      "inputs": [
        {
          "name": "",
          "type": "uint256"
        }
      ],
      "name": "guaranteeRequests",
      "outputs": [
        {
          "name": "",
          "type": "address"
        }
      ],
      "payable": false,
      "stateMutability": "view",
      "type": "function"
    },
    {
      "constant": false,
      "inputs": [
        {
          "name": "_newOwner",
          "type": "address"
        }
      ],
      "name": "changeOwner",
      "outputs": [],
      "payable": false,
      "stateMutability": "nonpayable",
      "type": "function"
    },
    {
      "constant": true,
      "inputs": [
        {
          "name": "_id",
          "type": "uint256"
        }
      ],
      "name": "getBeneficiaryById",
      "outputs": [
        {
          "name": "_name",
          "type": "string"
        },
        {
          "name": "_localAddress",
          "type": "string"
        }
      ],
      "payable": false,
      "stateMutability": "view",
      "type": "function"
    },
    {
      "constant": false,
      "inputs": [
        {
          "name": "_guaranteeRequest",
          "type": "address"
        }
      ],
      "name": "acceptGuaranteeRequest",
      "outputs": [],
      "payable": false,
      "stateMutability": "nonpayable",
      "type": "function"
    },
    {
      "constant": true,
      "inputs": [
        {
          "name": "_id",
          "type": "uint256"
        }
      ],
      "name": "getIssuerById",
      "outputs": [
        {
          "name": "",
          "type": "string"
        },
        {
          "name": "",
          "type": "string"
        },
        {
          "name": "",
          "type": "address"
        }
      ],
      "payable": false,
      "stateMutability": "view",
      "type": "function"
    },
    {
      "constant": true,
      "inputs": [],
      "name": "getGuaranteeAddressesList",
      "outputs": [
        {
          "name": "",
          "type": "address[]"
        }
      ],
      "payable": false,
      "stateMutability": "view",
      "type": "function"
    },
    {
      "constant": true,
      "inputs": [
        {
          "name": "_addr",
          "type": "address"
        }
      ],
      "name": "getCustomer",
      "outputs": [
        {
          "name": "_name",
          "type": "string"
        },
        {
          "name": "_localAddress",
          "type": "string"
        }
      ],
      "payable": false,
      "stateMutability": "view",
      "type": "function"
    },
    {
      "constant": false,
      "inputs": [
        {
          "name": "_addr",
          "type": "address"
        },
        {
          "name": "_name",
          "type": "string"
        },
        {
          "name": "_localAddres",
          "type": "string"
        }
      ],
      "name": "submitIssuer",
      "outputs": [],
      "payable": false,
      "stateMutability": "nonpayable",
      "type": "function"
    },
    {
      "constant": true,
      "inputs": [
        {
          "name": "",
          "type": "uint256"
        }
      ],
      "name": "guarantees",
      "outputs": [
        {
          "name": "",
          "type": "address"
        }
      ],
      "payable": false,
      "stateMutability": "view",
      "type": "function"
    },
    {
      "constant": false,
      "inputs": [
        {
          "name": "_guarantee",
          "type": "address"
        }
      ],
      "name": "terminateGuarantee",
      "outputs": [],
      "payable": false,
      "stateMutability": "nonpayable",
      "type": "function"
    },
    {
      "constant": true,
      "inputs": [
        {
          "name": "_addr",
          "type": "address"
        }
      ],
      "name": "getIssuer",
      "outputs": [
        {
          "name": "",
          "type": "string"
        },
        {
          "name": "",
          "type": "string"
        }
      ],
      "payable": false,
      "stateMutability": "view",
      "type": "function"
    },
    {
      "inputs": [],
      "payable": false,
      "stateMutability": "nonpayable",
      "type": "constructor"
    },
    {
      "anonymous": false,
      "inputs": [
        {
          "indexed": false,
          "name": "msgSender",
          "type": "address"
        },
        {
          "indexed": false,
          "name": "msgstr",
          "type": "string"
        },
        {
          "indexed": false,
          "name": "timestamp",
          "type": "uint256"
        }
      ],
      "name": "RegulatoryContractDeployed",
      "type": "event"
    },
    {
      "anonymous": false,
      "inputs": [
        {
          "indexed": false,
          "name": "_guaranteeRequest",
          "type": "address"
        }
      ],
      "name": "GuaranteeSign",
      "type": "event"
    },
    {
      "anonymous": false,
      "inputs": [
        {
          "indexed": false,
          "name": "msgSender",
          "type": "address"
        },
        {
          "indexed": false,
          "name": "msgstr",
          "type": "string"
        },
        {
          "indexed": false,
          "name": "timestamp",
          "type": "uint256"
        }
      ],
      "name": "AddCustomer",
      "type": "event"
    },
    {
      "anonymous": false,
      "inputs": [
        {
          "indexed": false,
          "name": "msgSender",
          "type": "address"
        },
        {
          "indexed": false,
          "name": "_name",
          "type": "string"
        },
        {
          "indexed": false,
          "name": "timestamp",
          "type": "uint256"
        }
      ],
      "name": "AddBeneficiary",
      "type": "event"
    },
    {
      "anonymous": false,
      "inputs": [
        {
          "indexed": false,
          "name": "msgSender",
          "type": "address"
        },
        {
          "indexed": false,
          "name": "issuerAdr",
          "type": "address"
        },
        {
          "indexed": false,
          "name": "msgstr",
          "type": "string"
        },
        {
          "indexed": false,
          "name": "timestamp",
          "type": "uint256"
        }
      ],
      "name": "AddIssuer",
      "type": "event"
    }
  ],
  "bytecode": "0x6060604052336000806101000a81548173ffffffffffffffffffffffffffffffffffffffff021916908373ffffffffffffffffffffffffffffffffffffffff16021790555034156200005057600080fd5b6200011673d0f2997b8e503f80ba4bd907cd2daf16a23f036c6040805190810160405280601e81526020017fd7a2d7a8d799d7aa20d7a8d790d7a9d795d79f20d79cd7a6d799d795d79f0000815250606060405190810160405280602481526020017fd794d79bd7a8d79ed79c2032302c20d7a8d790d7a9d795d79f20d79cd7a6d79981526020017fd795d79f00000000000000000000000000000000000000000000000000000000815250620003886401000000000262001dae176401000000009004565b620001a1336040805190810160405280601a81526020017fd7a2d799d7a8d799d799d7aa20d7aad79c2dd790d791d799d7910000000000008152506040805190810160405280601681526020017fd790d791d79f20d792d791d799d7a8d795d79c20363900000000000000000000815250620003886401000000000262001dae176401000000009004565b62000253336040805190810160405280601781526020017fd799d7a9d7a8d790d79c20d799d7a9d7a8d790d79cd799000000000000000000815250606060405190810160405280602181526020017fd794d7a8d7a6d79c20313120d7a8d790d7a9d795d79f20d79cd7a6d799d795d781526020017f9f00000000000000000000000000000000000000000000000000000000000000815250620005e06401000000000262001719176401000000009004565b620002de336040805190810160405280601581526020017fd791d7a0d7a720d794d7a4d795d7a2d79cd799d79d00000000000000000000008152506040805190810160405280601981526020017fd794d7a0d792d79120313120d7aad79c20d790d791d799d79100000000000000815250620007d364010000000002620030bf176401000000009004565b7f6c5cfd2de0086551b837a725d5f6a57e13b35c87eb326858461381e854a3a5a13342604051808373ffffffffffffffffffffffffffffffffffffffff1673ffffffffffffffffffffffffffffffffffffffff16815260200180602001838152602001828103825260058152602001807f4d696e6564000000000000000000000000000000000000000000000000000000815250602001935050505060405180910390a162000b80565b60008060009054906101000a900473ffffffffffffffffffffffffffffffffffffffff1673ffffffffffffffffffffffffffffffffffffffff163373ffffffffffffffffffffffffffffffffffffffff16141515620003e657600080fd5b600360008573ffffffffffffffffffffffffffffffffffffffff1673ffffffffffffffffffffffffffffffffffffffff1681526020019081526020016000209050600015158160020160009054906101000a900460ff1615151415620005a457600480548060010182816200045c919062000aa2565b9160005260206000209001600086909190916101000a81548173ffffffffffffffffffffffffffffffffffffffff021916908373ffffffffffffffffffffffffffffffffffffffff160217905550507f783e5f858212246618c02751dfbc4e502a48ca372a20f94a46d8e99fe70c998c848442604051808473ffffffffffffffffffffffffffffffffffffffff1673ffffffffffffffffffffffffffffffffffffffff16815260200180602001838152602001828103825284818151815260200191508051906020019080838360005b83811015620005495780820151818401526020810190506200052c565b50505050905090810190601f168015620005775780820380516001836020036101000a031916815260200191505b5094505050505060405180910390a160018160020160006101000a81548160ff0219169083151502179055505b82816000019080519060200190620005be92919062000ad1565b5081816001019080519060200190620005d992919062000ad1565b5050505050565b60008060009054906101000a900473ffffffffffffffffffffffffffffffffffffffff1673ffffffffffffffffffffffffffffffffffffffff163373ffffffffffffffffffffffffffffffffffffffff161415156200063e57600080fd5b600560008573ffffffffffffffffffffffffffffffffffffffff1673ffffffffffffffffffffffffffffffffffffffff1681526020019081526020016000209050600015158160020160009054906101000a900460ff161515141562000797577f3cdf985955e499413107b03adc7c7db5433c87ba6fa7a1beec377bb814138b9f338442604051808473ffffffffffffffffffffffffffffffffffffffff1673ffffffffffffffffffffffffffffffffffffffff16815260200180602001838152602001828103825284818151815260200191508051906020019080838360005b838110156200073c5780820151818401526020810190506200071f565b50505050905090810190601f1680156200076a5780820380516001836020036101000a031916815260200191505b5094505050505060405180910390a160018160020160006101000a81548160ff0219169083151502179055505b82816000019080519060200190620007b192919062000ad1565b5081816001019080519060200190620007cc92919062000ad1565b5050505050565b60008060009054906101000a900473ffffffffffffffffffffffffffffffffffffffff1673ffffffffffffffffffffffffffffffffffffffff163373ffffffffffffffffffffffffffffffffffffffff161415156200083157600080fd5b600160008573ffffffffffffffffffffffffffffffffffffffff1673ffffffffffffffffffffffffffffffffffffffff1681526020019081526020016000209050600015158160020160149054906101000a900460ff161515141562000a235760028054806001018281620008a7919062000aa2565b9160005260206000209001600086909190916101000a81548173ffffffffffffffffffffffffffffffffffffffff021916908373ffffffffffffffffffffffffffffffffffffffff160217905550507fb3bb6454838f769878c9da3dacefc82660ff82c898c373385ad5e32c9aa4767433858542604051808573ffffffffffffffffffffffffffffffffffffffff1673ffffffffffffffffffffffffffffffffffffffff1681526020018473ffffffffffffffffffffffffffffffffffffffff1673ffffffffffffffffffffffffffffffffffffffff16815260200180602001838152602001828103825284818151815260200191508051906020019080838360005b83811015620009c7578082015181840152602081019050620009aa565b50505050905090810190601f168015620009f55780820380516001836020036101000a031916815260200191505b509550505050505060405180910390a160018160020160146101000a81548160ff0219169083151502179055505b8281600001908051906020019062000a3d92919062000ad1565b508181600101908051906020019062000a5892919062000ad1565b50838160020160006101000a81548173ffffffffffffffffffffffffffffffffffffffff021916908373ffffffffffffffffffffffffffffffffffffffff16021790555050505050565b81548183558181151162000acc5781836000526020600020918201910162000acb919062000b58565b5b505050565b828054600181600116156101000203166002900490600052602060002090601f016020900481019282601f1062000b1457805160ff191683800117855562000b45565b8280016001018555821562000b45579182015b8281111562000b4457825182559160200191906001019062000b27565b5b50905062000b54919062000b58565b5090565b62000b7d91905b8082111562000b7957600081600090555060010162000b5f565b5090565b90565b613b168062000b906000396000f30060606040526004361061015f576000357c0100000000000000000000000000000000000000000000000000000000900463ffffffff168063015677391461016457806323e2e3f9146102c7578063336989ae14610383578063379f4484146104e657806338a7543e146105505780633dce5fdb146106e657806343d726d6146107505780634d93c0c314610765578063505a1b311461082457806356d58ef514610942578063666d50701461096b5780637cb30670146109a457806383a2d05014610a0e578063893d20e814610acd5780638b4329e514610b225780638da5cb5b14610bba5780639c5a88d414610c0f578063a6f9dae114610c72578063aa0a57ab14610cab578063b0f6c74a14610db3578063b643e58714610dec578063c1e9278614610f27578063cb949e5114610f91578063dc198587146110af578063df754f111461116e578063f813bf8c146111d1578063fef03da31461120a575b600080fd5b341561016f57600080fd5b61019b600480803573ffffffffffffffffffffffffffffffffffffffff16906020019091905050611328565b604051808060200180602001841515151581526020018381038352868181546001816001161561010002031660029004815260200191508054600181600116156101000203166002900480156102325780601f1061020757610100808354040283529160200191610232565b820191906000526020600020905b81548152906001019060200180831161021557829003601f168201915b50508381038252858181546001816001161561010002031660029004815260200191508054600181600116156101000203166002900480156102b55780601f1061028a576101008083540402835291602001916102b5565b820191906000526020600020905b81548152906001019060200180831161029857829003601f168201915b50509550505050505060405180910390f35b34156102d257600080fd5b610341600480803573ffffffffffffffffffffffffffffffffffffffff1690602001909190803590602001908201803590602001908080601f0160208091040260200160405190810160405280939291908181526020018383808284378201915050505050509190505061135d565b604051808273ffffffffffffffffffffffffffffffffffffffff1673ffffffffffffffffffffffffffffffffffffffff16815260200191505060405180910390f35b341561038e57600080fd5b6103ba600480803573ffffffffffffffffffffffffffffffffffffffff169060200190919050506114cc565b604051808060200180602001841515151581526020018381038352868181546001816001161561010002031660029004815260200191508054600181600116156101000203166002900480156104515780601f1061042657610100808354040283529160200191610451565b820191906000526020600020905b81548152906001019060200180831161043457829003601f168201915b50508381038252858181546001816001161561010002031660029004815260200191508054600181600116156101000203166002900480156104d45780601f106104a9576101008083540402835291602001916104d4565b820191906000526020600020905b8154815290600101906020018083116104b757829003601f168201915b50509550505050505060405180910390f35b34156104f157600080fd5b6104f9611501565b6040518080602001828103825283818151815260200191508051906020019060200280838360005b8381101561053c578082015181840152602081019050610521565b505050509050019250505060405180910390f35b341561055b57600080fd5b610587600480803573ffffffffffffffffffffffffffffffffffffffff16906020019091905050611595565b6040518080602001806020018573ffffffffffffffffffffffffffffffffffffffff1673ffffffffffffffffffffffffffffffffffffffff168152602001841515151581526020018381038352878181546001816001161561010002031660029004815260200191508054600181600116156101000203166002900480156106505780601f1061062557610100808354040283529160200191610650565b820191906000526020600020905b81548152906001019060200180831161063357829003601f168201915b50508381038252868181546001816001161561010002031660029004815260200191508054600181600116156101000203166002900480156106d35780601f106106a8576101008083540402835291602001916106d3565b820191906000526020600020905b8154815290600101906020018083116106b657829003601f168201915b5050965050505050505060405180910390f35b34156106f157600080fd5b6106f96115f0565b6040518080602001828103825283818151815260200191508051906020019060200280838360005b8381101561073c578082015181840152602081019050610721565b505050509050019250505060405180910390f35b341561075b57600080fd5b610763611684565b005b341561077057600080fd5b610822600480803573ffffffffffffffffffffffffffffffffffffffff1690602001909190803590602001908201803590602001908080601f0160208091040260200160405190810160405280939291908181526020018383808284378201915050505050509190803590602001908201803590602001908080601f01602080910402602001604051908101604052809392919081815260200183838082843782019150505050505091905050611719565b005b341561082f57600080fd5b61085b600480803573ffffffffffffffffffffffffffffffffffffffff16906020019091905050611903565b604051808060200180602001838103835285818151815260200191508051906020019080838360005b8381101561089f578082015181840152602081019050610884565b50505050905090810190601f1680156108cc5780820380516001836020036101000a031916815260200191505b50838103825284818151815260200191508051906020019080838360005b838110156109055780820151818401526020810190506108ea565b50505050905090810190601f1680156109325780820380516001836020036101000a031916815260200191505b5094505050505060405180910390f35b341561094d57600080fd5b610955611adb565b6040518082815260200191505060405180910390f35b341561097657600080fd5b6109a2600480803573ffffffffffffffffffffffffffffffffffffffff16906020019091905050611ae8565b005b34156109af57600080fd5b6109b7611d1a565b6040518080602001828103825283818151815260200191508051906020019060200280838360005b838110156109fa5780820151818401526020810190506109df565b505050509050019250505060405180910390f35b3415610a1957600080fd5b610acb600480803573ffffffffffffffffffffffffffffffffffffffff1690602001909190803590602001908201803590602001908080601f0160208091040260200160405190810160405280939291908181526020018383808284378201915050505050509190803590602001908201803590602001908080601f01602080910402602001604051908101604052809392919081815260200183838082843782019150505050505091905050611dae565b005b3415610ad857600080fd5b610ae0611ffb565b604051808273ffffffffffffffffffffffffffffffffffffffff1673ffffffffffffffffffffffffffffffffffffffff16815260200191505060405180910390f35b3415610b2d57600080fd5b610b78600480803573ffffffffffffffffffffffffffffffffffffffff1690602001909190803573ffffffffffffffffffffffffffffffffffffffff16906020019091905050612024565b604051808273ffffffffffffffffffffffffffffffffffffffff1673ffffffffffffffffffffffffffffffffffffffff16815260200191505060405180910390f35b3415610bc557600080fd5b610bcd612482565b604051808273ffffffffffffffffffffffffffffffffffffffff1673ffffffffffffffffffffffffffffffffffffffff16815260200191505060405180910390f35b3415610c1a57600080fd5b610c3060048080359060200190919050506124a7565b604051808273ffffffffffffffffffffffffffffffffffffffff1673ffffffffffffffffffffffffffffffffffffffff16815260200191505060405180910390f35b3415610c7d57600080fd5b610ca9600480803573ffffffffffffffffffffffffffffffffffffffff169060200190919050506124e6565b005b3415610cb657600080fd5b610ccc60048080359060200190919050506125a8565b604051808060200180602001838103835285818151815260200191508051906020019080838360005b83811015610d10578082015181840152602081019050610cf5565b50505050905090810190601f168015610d3d5780820380516001836020036101000a031916815260200191505b50838103825284818151815260200191508051906020019080838360005b83811015610d76578082015181840152602081019050610d5b565b50505050905090810190601f168015610da35780820380516001836020036101000a031916815260200191505b5094505050505060405180910390f35b3415610dbe57600080fd5b610dea600480803573ffffffffffffffffffffffffffffffffffffffff169060200190919050506127d4565b005b3415610df757600080fd5b610e0d6004808035906020019091905050612bc7565b6040518080602001806020018473ffffffffffffffffffffffffffffffffffffffff1673ffffffffffffffffffffffffffffffffffffffff168152602001838103835286818151815260200191508051906020019080838360005b83811015610e83578082015181840152602081019050610e68565b50505050905090810190601f168015610eb05780820380516001836020036101000a031916815260200191505b50838103825285818151815260200191508051906020019080838360005b83811015610ee9578082015181840152602081019050610ece565b50505050905090810190601f168015610f165780820380516001836020036101000a031916815260200191505b509550505050505060405180910390f35b3415610f3257600080fd5b610f3a612e53565b6040518080602001828103825283818151815260200191508051906020019060200280838360005b83811015610f7d578082015181840152602081019050610f62565b505050509050019250505060405180910390f35b3415610f9c57600080fd5b610fc8600480803573ffffffffffffffffffffffffffffffffffffffff16906020019091905050612ee7565b604051808060200180602001838103835285818151815260200191508051906020019080838360005b8381101561100c578082015181840152602081019050610ff1565b50505050905090810190601f1680156110395780820380516001836020036101000a031916815260200191505b50838103825284818151815260200191508051906020019080838360005b83811015611072578082015181840152602081019050611057565b50505050905090810190601f16801561109f5780820380516001836020036101000a031916815260200191505b5094505050505060405180910390f35b34156110ba57600080fd5b61116c600480803573ffffffffffffffffffffffffffffffffffffffff1690602001909190803590602001908201803590602001908080601f0160208091040260200160405190810160405280939291908181526020018383808284378201915050505050509190803590602001908201803590602001908080601f016020809104026020016040519081016040528093929190818152602001838380828437820191505050505050919050506130bf565b005b341561117957600080fd5b61118f6004808035906020019091905050613383565b604051808273ffffffffffffffffffffffffffffffffffffffff1673ffffffffffffffffffffffffffffffffffffffff16815260200191505060405180910390f35b34156111dc57600080fd5b611208600480803573ffffffffffffffffffffffffffffffffffffffff169060200190919050506133c2565b005b341561121557600080fd5b611241600480803573ffffffffffffffffffffffffffffffffffffffff169060200190919050506136fc565b604051808060200180602001838103835285818151815260200191508051906020019080838360005b8381101561128557808201518184015260208101905061126a565b50505050905090810190601f1680156112b25780820380516001836020036101000a031916815260200191505b50838103825284818151815260200191508051906020019080838360005b838110156112eb5780820151818401526020810190506112d0565b50505050905090810190601f1680156113185780820380516001836020036101000a031916815260200191505b5094505050505060405180910390f35b6003602052806000526040600020600091509050806000019080600101908060020160009054906101000a900460ff16905083565b60008060008491508173ffffffffffffffffffffffffffffffffffffffff16632259515b856000604051602001526040518263ffffffff167c01000000000000000000000000000000000000000000000000000000000281526004018080602001828103825283818151815260200191508051906020019080838360005b838110156113f65780820151818401526020810190506113db565b50505050905090810190601f1680156114235780820380516001836020036101000a031916815260200191505b5092505050602060405180830381600087803b151561144157600080fd5b6102c65a03f1151561145257600080fd5b505050604051805190509050600780548060010182816114729190613930565b9160005260206000209001600083909190916101000a81548173ffffffffffffffffffffffffffffffffffffffff021916908373ffffffffffffffffffffffffffffffffffffffff16021790555050809250505092915050565b6005602052806000526040600020600091509050806000019080600101908060020160009054906101000a900460ff16905083565b61150961395c565b600280548060200260200160405190810160405280929190818152602001828054801561158b57602002820191906000526020600020905b8160009054906101000a900473ffffffffffffffffffffffffffffffffffffffff1673ffffffffffffffffffffffffffffffffffffffff1681526020019060010190808311611541575b5050505050905090565b6001602052806000526040600020600091509050806000019080600101908060020160009054906101000a900473ffffffffffffffffffffffffffffffffffffffff16908060020160149054906101000a900460ff16905084565b6115f861395c565b600680548060200260200160405190810160405280929190818152602001828054801561167a57602002820191906000526020600020905b8160009054906101000a900473ffffffffffffffffffffffffffffffffffffffff1673ffffffffffffffffffffffffffffffffffffffff1681526020019060010190808311611630575b5050505050905090565b6000809054906101000a900473ffffffffffffffffffffffffffffffffffffffff1673ffffffffffffffffffffffffffffffffffffffff163373ffffffffffffffffffffffffffffffffffffffff161415156116df57600080fd5b6000809054906101000a900473ffffffffffffffffffffffffffffffffffffffff1673ffffffffffffffffffffffffffffffffffffffff16ff5b60008060009054906101000a900473ffffffffffffffffffffffffffffffffffffffff1673ffffffffffffffffffffffffffffffffffffffff163373ffffffffffffffffffffffffffffffffffffffff1614151561177657600080fd5b600560008573ffffffffffffffffffffffffffffffffffffffff1673ffffffffffffffffffffffffffffffffffffffff1681526020019081526020016000209050600015158160020160009054906101000a900460ff16151514156118cb577f3cdf985955e499413107b03adc7c7db5433c87ba6fa7a1beec377bb814138b9f338442604051808473ffffffffffffffffffffffffffffffffffffffff1673ffffffffffffffffffffffffffffffffffffffff16815260200180602001838152602001828103825284818151815260200191508051906020019080838360005b83811015611871578082015181840152602081019050611856565b50505050905090810190601f16801561189e5780820380516001836020036101000a031916815260200191505b5094505050505060405180910390a160018160020160006101000a81548160ff0219169083151502179055505b828160000190805190602001906118e3929190613970565b50818160010190805190602001906118fc929190613970565b5050505050565b61190b6139f0565b6119136139f0565b61191b613a04565b600360008573ffffffffffffffffffffffffffffffffffffffff1673ffffffffffffffffffffffffffffffffffffffff16815260200190815260200160002060606040519081016040529081600082018054600181600116156101000203166002900480601f0160208091040260200160405190810160405280929190818152602001828054600181600116156101000203166002900480156119ff5780601f106119d4576101008083540402835291602001916119ff565b820191906000526020600020905b8154815290600101906020018083116119e257829003601f168201915b50505050508152602001600182018054600181600116156101000203166002900480601f016020809104026020016040519081016040528092919081815260200182805460018160011615610100020316600290048015611aa15780601f10611a7657610100808354040283529160200191611aa1565b820191906000526020600020905b815481529060010190602001808311611a8457829003601f168201915b505050505081526020016002820160009054906101000a900460ff1615151515815250509050806000015192508060200151915050915091565b6000600280549050905090565b60008190508073ffffffffffffffffffffffffffffffffffffffff1663650d993b6000604051602001526040518163ffffffff167c0100000000000000000000000000000000000000000000000000000000028152600401602060405180830381600087803b1515611b5957600080fd5b6102c65a03f11515611b6a57600080fd5b5050506040518051905073ffffffffffffffffffffffffffffffffffffffff163373ffffffffffffffffffffffffffffffffffffffff16148015611c3157508073ffffffffffffffffffffffffffffffffffffffff1663bb5d40eb6000604051602001526040518163ffffffff167c0100000000000000000000000000000000000000000000000000000000028152600401602060405180830381600087803b1515611c1557600080fd5b6102c65a03f11515611c2657600080fd5b505050604051805190505b1515611c3c57600080fd5b8073ffffffffffffffffffffffffffffffffffffffff16634a0b20aa6040518163ffffffff167c0100000000000000000000000000000000000000000000000000000000028152600401600060405180830381600087803b1515611c9f57600080fd5b6102c65a03f11515611cb057600080fd5b50505060068054806001018281611cc79190613930565b9160005260206000209001600084909190916101000a81548173ffffffffffffffffffffffffffffffffffffffff021916908373ffffffffffffffffffffffffffffffffffffffff160217905550505050565b611d2261395c565b6004805480602002602001604051908101604052809291908181526020018280548015611da457602002820191906000526020600020905b8160009054906101000a900473ffffffffffffffffffffffffffffffffffffffff1673ffffffffffffffffffffffffffffffffffffffff1681526020019060010190808311611d5a575b5050505050905090565b60008060009054906101000a900473ffffffffffffffffffffffffffffffffffffffff1673ffffffffffffffffffffffffffffffffffffffff163373ffffffffffffffffffffffffffffffffffffffff16141515611e0b57600080fd5b600360008573ffffffffffffffffffffffffffffffffffffffff1673ffffffffffffffffffffffffffffffffffffffff1681526020019081526020016000209050600015158160020160009054906101000a900460ff1615151415611fc35760048054806001018281611e7e9190613930565b9160005260206000209001600086909190916101000a81548173ffffffffffffffffffffffffffffffffffffffff021916908373ffffffffffffffffffffffffffffffffffffffff160217905550507f783e5f858212246618c02751dfbc4e502a48ca372a20f94a46d8e99fe70c998c848442604051808473ffffffffffffffffffffffffffffffffffffffff1673ffffffffffffffffffffffffffffffffffffffff16815260200180602001838152602001828103825284818151815260200191508051906020019080838360005b83811015611f69578082015181840152602081019050611f4e565b50505050905090810190601f168015611f965780820380516001836020036101000a031916815260200191505b5094505050505060405180910390a160018160020160006101000a81548160ff0219169083151502179055505b82816000019080519060200190611fdb929190613970565b5081816001019080519060200190611ff4929190613970565b5050505050565b60008060009054906101000a900473ffffffffffffffffffffffffffffffffffffffff16905090565b6000808390508073ffffffffffffffffffffffffffffffffffffffff1663565a2e2c6000604051602001526040518163ffffffff167c0100000000000000000000000000000000000000000000000000000000028152600401602060405180830381600087803b151561209657600080fd5b6102c65a03f115156120a757600080fd5b5050506040518051905073ffffffffffffffffffffffffffffffffffffffff163373ffffffffffffffffffffffffffffffffffffffff1614801561216e57508073ffffffffffffffffffffffffffffffffffffffff1663bb5d40eb6000604051602001526040518163ffffffff167c0100000000000000000000000000000000000000000000000000000000028152600401602060405180830381600087803b151561215257600080fd5b6102c65a03f1151561216357600080fd5b505050604051805190505b80156121fd57508073ffffffffffffffffffffffffffffffffffffffff1663cded37376000604051602001526040518163ffffffff167c0100000000000000000000000000000000000000000000000000000000028152600401602060405180830381600087803b15156121e157600080fd5b6102c65a03f115156121f257600080fd5b505050604051805190505b151561220857600080fd5b8273ffffffffffffffffffffffffffffffffffffffff1663bea14fc18273ffffffffffffffffffffffffffffffffffffffff1663d321fe296000604051602001526040518163ffffffff167c0100000000000000000000000000000000000000000000000000000000028152600401602060405180830381600087803b151561229057600080fd5b6102c65a03f115156122a157600080fd5b505050604051805190508373ffffffffffffffffffffffffffffffffffffffff1663b13564886000604051602001526040518163ffffffff167c0100000000000000000000000000000000000000000000000000000000028152600401602060405180830381600087803b151561231757600080fd5b6102c65a03f1151561232857600080fd5b505050604051805190506040518363ffffffff167c01000000000000000000000000000000000000000000000000000000000281526004018083815260200182815260200192505050600060405180830381600087803b151561238a57600080fd5b6102c65a03f1151561239b57600080fd5b5050508073ffffffffffffffffffffffffffffffffffffffff16634a0b20aa6040518163ffffffff167c0100000000000000000000000000000000000000000000000000000000028152600401600060405180830381600087803b151561240157600080fd5b6102c65a03f1151561241257600080fd5b505050600680548060010182816124299190613930565b9160005260206000209001600086909190916101000a81548173ffffffffffffffffffffffffffffffffffffffff021916908373ffffffffffffffffffffffffffffffffffffffff160217905550508391505092915050565b6000809054906101000a900473ffffffffffffffffffffffffffffffffffffffff1681565b6006818154811015156124b657fe5b90600052602060002090016000915054906101000a900473ffffffffffffffffffffffffffffffffffffffff1681565b6000809054906101000a900473ffffffffffffffffffffffffffffffffffffffff1673ffffffffffffffffffffffffffffffffffffffff163373ffffffffffffffffffffffffffffffffffffffff1614151561254157600080fd5b60008173ffffffffffffffffffffffffffffffffffffffff16141561256557600080fd5b806000806101000a81548173ffffffffffffffffffffffffffffffffffffffff021916908373ffffffffffffffffffffffffffffffffffffffff16021790555050565b6125b06139f0565b6125b86139f0565b6125c0613a04565b60048054905084111515156125d457600080fd5b600360006004868154811015156125e757fe5b906000526020600020900160009054906101000a900473ffffffffffffffffffffffffffffffffffffffff1673ffffffffffffffffffffffffffffffffffffffff1673ffffffffffffffffffffffffffffffffffffffff16815260200190815260200160002060606040519081016040529081600082018054600181600116156101000203166002900480601f0160208091040260200160405190810160405280929190818152602001828054600181600116156101000203166002900480156126f25780601f106126c7576101008083540402835291602001916126f2565b820191906000526020600020905b8154815290600101906020018083116126d557829003601f168201915b50505050508152602001600182018054600181600116156101000203166002900480601f0160208091040260200160405190810160405280929190818152602001828054600181600116156101000203166002900480156127945780601f1061276957610100808354040283529160200191612794565b820191906000526020600020905b81548152906001019060200180831161277757829003601f168201915b505050505081526020016002820160009054906101000a900460ff1615151515815250509050806000015181602001518191508090509250925050915091565b60008190508073ffffffffffffffffffffffffffffffffffffffff166360d704db6000604051602001526040518163ffffffff167c0100000000000000000000000000000000000000000000000000000000028152600401602060405180830381600087803b151561284557600080fd5b6102c65a03f1151561285657600080fd5b5050506040518051905073ffffffffffffffffffffffffffffffffffffffff163373ffffffffffffffffffffffffffffffffffffffff1614801561291d57508073ffffffffffffffffffffffffffffffffffffffff1663bb5d40eb6000604051602001526040518163ffffffff167c0100000000000000000000000000000000000000000000000000000000028152600401602060405180830381600087803b151561290157600080fd5b6102c65a03f1151561291257600080fd5b505050604051805190505b151561292857600080fd5b8073ffffffffffffffffffffffffffffffffffffffff16632852b71c6000604051602001526040518163ffffffff167c0100000000000000000000000000000000000000000000000000000000028152600401602060405180830381600087803b151561299457600080fd5b6102c65a03f115156129a557600080fd5b5050506040518051905015612bbe578073ffffffffffffffffffffffffffffffffffffffff1663cded37376000604051602001526040518163ffffffff167c0100000000000000000000000000000000000000000000000000000000028152600401602060405180830381600087803b1515612a2057600080fd5b6102c65a03f11515612a3157600080fd5b5050506040518051905015612b5657612b558173ffffffffffffffffffffffffffffffffffffffff16636f00817e6000604051602001526040518163ffffffff167c0100000000000000000000000000000000000000000000000000000000028152600401602060405180830381600087803b1515612aaf57600080fd5b6102c65a03f11515612ac057600080fd5b5050506040518051905073ffffffffffffffffffffffffffffffffffffffff16633f40d18f6000604051602001526040518163ffffffff167c0100000000000000000000000000000000000000000000000000000000028152600401602060405180830381600087803b1515612b3557600080fd5b6102c65a03f11515612b4657600080fd5b505050604051805190506133c2565b5b7f1457a9baaa8780bd74ceb2f0317119ca2bd8fc94db0895f9d641400b8571459082604051808273ffffffffffffffffffffffffffffffffffffffff1673ffffffffffffffffffffffffffffffffffffffff16815260200191505060405180910390a1612bc3565b600080fd5b5050565b612bcf6139f0565b612bd76139f0565b6000612be1613a34565b60028054905085101515612bf457600080fd5b60016000600287815481101515612c0757fe5b906000526020600020900160009054906101000a900473ffffffffffffffffffffffffffffffffffffffff1673ffffffffffffffffffffffffffffffffffffffff1673ffffffffffffffffffffffffffffffffffffffff16815260200190815260200160002060806040519081016040529081600082018054600181600116156101000203166002900480601f016020809104026020016040519081016040528092919081815260200182805460018160011615610100020316600290048015612d125780601f10612ce757610100808354040283529160200191612d12565b820191906000526020600020905b815481529060010190602001808311612cf557829003601f168201915b50505050508152602001600182018054600181600116156101000203166002900480601f016020809104026020016040519081016040528092919081815260200182805460018160011615610100020316600290048015612db45780601f10612d8957610100808354040283529160200191612db4565b820191906000526020600020905b815481529060010190602001808311612d9757829003601f168201915b505050505081526020016002820160009054906101000a900473ffffffffffffffffffffffffffffffffffffffff1673ffffffffffffffffffffffffffffffffffffffff1673ffffffffffffffffffffffffffffffffffffffff1681526020016002820160149054906101000a900460ff1615151515815250509050806000015181602001518260400151829250819150935093509350509193909250565b612e5b61395c565b6007805480602002602001604051908101604052809291908181526020018280548015612edd57602002820191906000526020600020905b8160009054906101000a900473ffffffffffffffffffffffffffffffffffffffff1673ffffffffffffffffffffffffffffffffffffffff1681526020019060010190808311612e93575b5050505050905090565b612eef6139f0565b612ef76139f0565b612eff613a81565b600560008573ffffffffffffffffffffffffffffffffffffffff1673ffffffffffffffffffffffffffffffffffffffff16815260200190815260200160002060606040519081016040529081600082018054600181600116156101000203166002900480601f016020809104026020016040519081016040528092919081815260200182805460018160011615610100020316600290048015612fe35780601f10612fb857610100808354040283529160200191612fe3565b820191906000526020600020905b815481529060010190602001808311612fc657829003601f168201915b50505050508152602001600182018054600181600116156101000203166002900480601f0160208091040260200160405190810160405280929190818152602001828054600181600116156101000203166002900480156130855780601f1061305a57610100808354040283529160200191613085565b820191906000526020600020905b81548152906001019060200180831161306857829003601f168201915b505050505081526020016002820160009054906101000a900460ff1615151515815250509050806000015192508060200151915050915091565b60008060009054906101000a900473ffffffffffffffffffffffffffffffffffffffff1673ffffffffffffffffffffffffffffffffffffffff163373ffffffffffffffffffffffffffffffffffffffff1614151561311c57600080fd5b600160008573ffffffffffffffffffffffffffffffffffffffff1673ffffffffffffffffffffffffffffffffffffffff1681526020019081526020016000209050600015158160020160149054906101000a900460ff1615151415613308576002805480600101828161318f9190613930565b9160005260206000209001600086909190916101000a81548173ffffffffffffffffffffffffffffffffffffffff021916908373ffffffffffffffffffffffffffffffffffffffff160217905550507fb3bb6454838f769878c9da3dacefc82660ff82c898c373385ad5e32c9aa4767433858542604051808573ffffffffffffffffffffffffffffffffffffffff1673ffffffffffffffffffffffffffffffffffffffff1681526020018473ffffffffffffffffffffffffffffffffffffffff1673ffffffffffffffffffffffffffffffffffffffff16815260200180602001838152602001828103825284818151815260200191508051906020019080838360005b838110156132ad578082015181840152602081019050613292565b50505050905090810190601f1680156132da5780820380516001836020036101000a031916815260200191505b509550505050505060405180910390a160018160020160146101000a81548160ff0219169083151502179055505b82816000019080519060200190613320929190613970565b5081816001019080519060200190613339929190613970565b50838160020160006101000a81548173ffffffffffffffffffffffffffffffffffffffff021916908373ffffffffffffffffffffffffffffffffffffffff16021790555050505050565b60078181548110151561339257fe5b90600052602060002090016000915054906101000a900473ffffffffffffffffffffffffffffffffffffffff1681565b6000808291508173ffffffffffffffffffffffffffffffffffffffff166388a22f7a6000604051602001526040518163ffffffff167c0100000000000000000000000000000000000000000000000000000000028152600401602060405180830381600087803b151561343457600080fd5b6102c65a03f1151561344557600080fd5b505050604051805190509050600073ffffffffffffffffffffffffffffffffffffffff168373ffffffffffffffffffffffffffffffffffffffff16141580156135415750600073ffffffffffffffffffffffffffffffffffffffff168173ffffffffffffffffffffffffffffffffffffffff16633f40d18f6000604051602001526040518163ffffffff167c0100000000000000000000000000000000000000000000000000000000028152600401602060405180830381600087803b151561350d57600080fd5b6102c65a03f1151561351e57600080fd5b5050506040518051905073ffffffffffffffffffffffffffffffffffffffff1614155b80156135fe57508073ffffffffffffffffffffffffffffffffffffffff1663565a2e2c6000604051602001526040518163ffffffff167c0100000000000000000000000000000000000000000000000000000000028152600401602060405180830381600087803b15156135b457600080fd5b6102c65a03f115156135c557600080fd5b5050506040518051905073ffffffffffffffffffffffffffffffffffffffff163373ffffffffffffffffffffffffffffffffffffffff16145b151561360957600080fd5b8173ffffffffffffffffffffffffffffffffffffffff1663c700c70d6040518163ffffffff167c0100000000000000000000000000000000000000000000000000000000028152600401600060405180830381600087803b151561366c57600080fd5b6102c65a03f1151561367d57600080fd5b5050508073ffffffffffffffffffffffffffffffffffffffff1663c700c70d6040518163ffffffff167c0100000000000000000000000000000000000000000000000000000000028152600401600060405180830381600087803b15156136e357600080fd5b6102c65a03f115156136f457600080fd5b505050505050565b6137046139f0565b61370c6139f0565b613714613a34565b600160008573ffffffffffffffffffffffffffffffffffffffff1673ffffffffffffffffffffffffffffffffffffffff16815260200190815260200160002060806040519081016040529081600082018054600181600116156101000203166002900480601f0160208091040260200160405190810160405280929190818152602001828054600181600116156101000203166002900480156137f85780601f106137cd576101008083540402835291602001916137f8565b820191906000526020600020905b8154815290600101906020018083116137db57829003601f168201915b50505050508152602001600182018054600181600116156101000203166002900480601f01602080910402602001604051908101604052809291908181526020018280546001816001161561010002031660029004801561389a5780601f1061386f5761010080835404028352916020019161389a565b820191906000526020600020905b81548152906001019060200180831161387d57829003601f168201915b505050505081526020016002820160009054906101000a900473ffffffffffffffffffffffffffffffffffffffff1673ffffffffffffffffffffffffffffffffffffffff1673ffffffffffffffffffffffffffffffffffffffff1681526020016002820160149054906101000a900460ff1615151515815250509050806000015181602001518191508090509250925050915091565b815481835581811511613957578183600052602060002091820191016139569190613ab1565b5b505050565b602060405190810160405280600081525090565b828054600181600116156101000203166002900490600052602060002090601f016020900481019282601f106139b157805160ff19168380011785556139df565b828001600101855582156139df579182015b828111156139de5782518255916020019190600101906139c3565b5b5090506139ec9190613ab1565b5090565b602060405190810160405280600081525090565b606060405190810160405280613a18613ad6565b8152602001613a25613ad6565b81526020016000151581525090565b608060405190810160405280613a48613ad6565b8152602001613a55613ad6565b8152602001600073ffffffffffffffffffffffffffffffffffffffff1681526020016000151581525090565b606060405190810160405280613a95613ad6565b8152602001613aa2613ad6565b81526020016000151581525090565b613ad391905b80821115613acf576000816000905550600101613ab7565b5090565b90565b6020604051908101604052806000815250905600a165627a7a72305820e23f621d7153bd933ed4d9e7f78d9cd179048b8bb3b54829dffcd1023a9c1b520029",
  "source": "pragma solidity ^0.4.18;\n\nimport \"./Ownable.sol\";\nimport \"./GuaranteeConst.sol\";\nimport \"./IssuerManager.sol\";\nimport \"./BeneficiaryManager.sol\";\nimport \"./CustomerManager.sol\";\nimport \"./GuaranteeRequest.sol\";\nimport \"./ChangeGuaranteeRequest.sol\";\n\n//\n////###\n//// general contract for better operations of the system\n////###\n//contract owned {\n//    //owner address for ownership validation\n//    address owner;\n//\n//    //constractor to verify real owner assignment\n//    function owned() {\n//        owner = msg.sender;\n//        log(\"owner=\",owner);\n//    }\n//\n//    //owner check modifier\n//    modifier onlyOwner {\n//        require(msg.sender == owner);\n//        _;\n//    }\n//\n//    //contract distruction by owner only\n//    function close() onlyOwner {\n//        log(\"##contract closed by owner=\",owner);\n//        selfdestruct(owner);\n//    }\n//\n//    //constractor to verify real owner assignment\n//    function getOwner() constant returns (address){\n//        return owner ;\n//    }\n//    //log event for debug purposes\n//    event log(string loga, address logb);\n//}\n\n\ncontract Regulator is Ownable,IssuerManager,BeneficiaryManager,CustomerManager,GuaranteeConst{\n\n    //guarantee request states\n    address [] public  guaranteeRequests;\n    address [] public  guarantees;\n\n\n\n\n    event RegulatoryContractDeployed (address msgSender,string msgstr,uint timestamp);\n    function Regulator(){\n//        owner = msg.sender;\n\n\n        submitBeneficiary(0xd0f2997b8e503f80ba4bd907cd2daf16a23f036c,\"  \",\" 20,  \");\n        submitBeneficiary(msg.sender,\" -\",\"  69\");\n        submitCustomer(msg.sender,\" \",\" 11  \");\n        submitIssuer(msg.sender,\" \",\" 11  \");\n        RegulatoryContractDeployed(msg.sender,\"Mined\",now);\n    }\n\n\n    function getRequestAddressList() public constant returns (address[] )\n\n    {\n//         AAA(guaranteeRequests.length);\n        return guaranteeRequests;\n\n\n    }\n\n    function getGuaranteeAddressesList() public constant returns (address[] )\n    {\n\n        return guarantees;\n\n    }\n\n\n\n\n\n//    event AAA(uint length);\n\n    function addGuaranteeRequest(address  _guaranteeRequest)  public\n    {\n\n        GuaranteeRequestExtender ge=GuaranteeRequestExtender(_guaranteeRequest);\n        require(msg.sender == ge.getCustomer() && ge.isValid());\n        ge.setRegulator();\n        guaranteeRequests.push(_guaranteeRequest);\n\n\n    }\n\n    event GuaranteeSign(address  _guaranteeRequest);\n    function acceptGuaranteeRequest(address  _guaranteeRequest)  public\n    {\n        GuaranteeRequestExtender ge=GuaranteeRequestExtender(_guaranteeRequest);\n        require(msg.sender == ge.getBank() && ge.isValid());\n\n\n        if (ge.accept()) {\n            if (ge.isChangeRequest())\n            {\n                terminateGuarantee(GuaranteeRequestExtender(ge.getChangeRequestGuarantee()).getGuaranteeAddress());\n            }\n            GuaranteeSign(_guaranteeRequest);\n        }\n        else\n            throw;\n    }\n\n    function GuaranteeSignComplite(address  _guaranteeRequest,bytes _guaranteeIPFSHash)  public  returns (address)\n    {\n        GuaranteeRequestExtender ge=GuaranteeRequestExtender(_guaranteeRequest);\n//        require( ge.getRequestState()==RequestState.accepted &&  msg.sender == ge.getBank());\n\n        address gra=ge.signComplite(_guaranteeIPFSHash);\n//        address gra=this;\n//        AAA(1);\n        guarantees.push(gra);\n\n        return gra;\n\n    }\n\n\n\n\n\n    function terminateGuarantee(address  _guarantee)  public\n    {\n\n\n\n        GuaranteeExtender ge= GuaranteeExtender(_guarantee);\n        GuaranteeRequestExtender ger=GuaranteeRequestExtender(ge.getGuaranteeRequest());\n        require( _guarantee!= address(0) && ger.getGuaranteeAddress()!= address(0) && msg.sender == ger.getBeneficiary() );\n\n        ge.terminateGuarantee() ;\n        ger.terminateGuarantee();\n\n\n    }\n\n\n\n\n\n//    function changeGuarantee(address  _guarantee ,uint _newamount, uint _newendDate)  returns (bool)  //onlyBeneficiary\n//    {\n////        GuaranteeExtender ge= GuaranteeExtender(_guarantee);\n////        GuaranteeRequestExtender ger=GuaranteeRequestExtender(ge.getGuaranteeRequest());\n////        require( ger.getRequestState()==RequestState.accepted && msg.sender == ger.getBeneficiary() && _guarantee!= address(0));\n////\n////        ger.changeRequested( _newamount,  _newendDate);\n////        ChangeGuaranteeRequest newger=new ChangeGuaranteeRequest(ge.getGuaranteeRequest(),_newamount, _newendDate);\n////        guaranteeRequests.push(newger.getId());\n//\n////        guaranteeRequests.push( new ChangeGuaranteeRequest(ge.getGuaranteeRequest(),_newamount, _newendDate).getId());\n////        return true;\n//    }\n\n    function changeGuarantee(address  _changeGuaranteeRequest,address guarantie )  public  returns (address)//onlyBeneficiary\n    {\n        ChangeGuaranteeRequest newger=ChangeGuaranteeRequest(_changeGuaranteeRequest);\n        require(msg.sender == newger.getBeneficiary() && newger.isValid() && newger.isChangeRequest());\n        GuaranteeExtender(guarantie).changeRequest(newger.getAmount(),newger.getEndDate());\n//            .getChangeRequestGuarantee()).\n        newger.setRegulator();\n        guaranteeRequests.push(_changeGuaranteeRequest);\n        return _changeGuaranteeRequest;\n    }\n\n\n\n}\n",
  "sourcePath": "/Users/dmitryshlymovich/workspace/ethereum-garanties/truffle_eth_bnhp/contracts/Regulator.sol",
  "compiler": {
    "name": "solc",
    "version": "0.4.18+commit.9cf6e910.Emscripten.clang"
  },
  "schemaVersion": "1.0.1",
  "updatedAt": "2018-02-21T10:58:08.217Z"
}