{
  "contractName": "Regulator",
  "abi": [
    {
      "constant": true,
      "inputs": [],
      "name": "getGuaranteeAddresses",
      "outputs": [
        {
          "name": "",
          "type": "address[]"
        }
      ],
      "payable": false,
      "type": "function"
    },
    {
      "constant": true,
      "inputs": [
        {
          "name": "",
          "type": "address"
        }
      ],
      "name": "beneficiaries",
      "outputs": [
        {
          "name": "name",
          "type": "string"
        },
        {
          "name": "localAddress",
          "type": "string"
        }
      ],
      "payable": false,
      "type": "function"
    },
    {
      "constant": true,
      "inputs": [
        {
          "name": "",
          "type": "address"
        }
      ],
      "name": "customers",
      "outputs": [
        {
          "name": "name",
          "type": "string"
        },
        {
          "name": "localAddress",
          "type": "string"
        }
      ],
      "payable": false,
      "type": "function"
    },
    {
      "constant": true,
      "inputs": [
        {
          "name": "",
          "type": "address"
        }
      ],
      "name": "issuers",
      "outputs": [
        {
          "name": "name",
          "type": "string"
        },
        {
          "name": "localAddress",
          "type": "string"
        },
        {
          "name": "addr",
          "type": "address"
        }
      ],
      "payable": false,
      "type": "function"
    },
    {
      "constant": false,
      "inputs": [
        {
          "name": "_guaranteeRequest",
          "type": "address"
        },
        {
          "name": "comment",
          "type": "string"
        }
      ],
      "name": "terminateGuarantee",
      "outputs": [
        {
          "name": "",
          "type": "bool"
        }
      ],
      "payable": false,
      "type": "function"
    },
    {
      "constant": false,
      "inputs": [],
      "name": "close",
      "outputs": [],
      "payable": false,
      "type": "function"
    },
    {
      "constant": false,
      "inputs": [
        {
          "name": "_addr",
          "type": "address"
        },
        {
          "name": "_name",
          "type": "string"
        },
        {
          "name": "_localAddres",
          "type": "string"
        }
      ],
      "name": "submitCustomer",
      "outputs": [],
      "payable": false,
      "type": "function"
    },
    {
      "constant": true,
      "inputs": [
        {
          "name": "_addr",
          "type": "address"
        }
      ],
      "name": "getBeneficiary",
      "outputs": [
        {
          "name": "_name",
          "type": "string"
        },
        {
          "name": "_localAddress",
          "type": "string"
        }
      ],
      "payable": false,
      "type": "function"
    },
    {
      "constant": true,
      "inputs": [],
      "name": "getIssuerCounter",
      "outputs": [
        {
          "name": "",
          "type": "uint256"
        }
      ],
      "payable": false,
      "type": "function"
    },
    {
      "constant": false,
      "inputs": [
        {
          "name": "_guaranteeRequest",
          "type": "address"
        },
        {
          "name": "_newamount",
          "type": "uint256"
        },
        {
          "name": "_newendDate",
          "type": "uint256"
        },
        {
          "name": "_comment",
          "type": "string"
        }
      ],
      "name": "changeGuarantee",
      "outputs": [
        {
          "name": "",
          "type": "bool"
        }
      ],
      "payable": false,
      "type": "function"
    },
    {
      "constant": true,
      "inputs": [],
      "name": "getBeneficiaryAddresses",
      "outputs": [
        {
          "name": "",
          "type": "address[]"
        }
      ],
      "payable": false,
      "type": "function"
    },
    {
      "constant": false,
      "inputs": [
        {
          "name": "_addr",
          "type": "address"
        },
        {
          "name": "_name",
          "type": "string"
        },
        {
          "name": "_localAddres",
          "type": "string"
        }
      ],
      "name": "submitBeneficiary",
      "outputs": [],
      "payable": false,
      "type": "function"
    },
    {
      "constant": true,
      "inputs": [],
      "name": "getOwner",
      "outputs": [
        {
          "name": "",
          "type": "address"
        }
      ],
      "payable": false,
      "type": "function"
    },
    {
      "constant": true,
      "inputs": [],
      "name": "owner",
      "outputs": [
        {
          "name": "",
          "type": "address"
        }
      ],
      "payable": false,
      "type": "function"
    },
    {
      "constant": false,
      "inputs": [
        {
          "name": "_customer",
          "type": "address"
        },
        {
          "name": "_bank",
          "type": "address"
        },
        {
          "name": "_beneficiary",
          "type": "address"
        },
        {
          "name": "_purpose",
          "type": "bytes32"
        },
        {
          "name": "_amount",
          "type": "uint256"
        },
        {
          "name": "_startDate",
          "type": "uint256"
        },
        {
          "name": "_endDate",
          "type": "uint256"
        },
        {
          "name": "_indexType",
          "type": "uint8"
        },
        {
          "name": "_indexDate",
          "type": "uint256"
        }
      ],
      "name": "createGuaranteeRequest",
      "outputs": [
        {
          "name": "",
          "type": "address"
        }
      ],
      "payable": false,
      "type": "function"
    },
    {
      "constant": true,
      "inputs": [
        {
          "name": "",
          "type": "uint256"
        }
      ],
      "name": "guaranteeRequests",
      "outputs": [
        {
          "name": "",
          "type": "address"
        }
      ],
      "payable": false,
      "type": "function"
    },
    {
      "constant": true,
      "inputs": [],
      "name": "getRequestAddresses",
      "outputs": [
        {
          "name": "",
          "type": "address[]"
        }
      ],
      "payable": false,
      "type": "function"
    },
    {
      "constant": false,
      "inputs": [
        {
          "name": "_newOwner",
          "type": "address"
        }
      ],
      "name": "changeOwner",
      "outputs": [],
      "payable": false,
      "type": "function"
    },
    {
      "constant": true,
      "inputs": [
        {
          "name": "_id",
          "type": "uint256"
        }
      ],
      "name": "getBeneficiaryById",
      "outputs": [
        {
          "name": "_name",
          "type": "string"
        },
        {
          "name": "_localAddress",
          "type": "string"
        }
      ],
      "payable": false,
      "type": "function"
    },
    {
      "constant": false,
      "inputs": [
        {
          "name": "_guaranteeRequest",
          "type": "address"
        },
        {
          "name": "comment",
          "type": "string"
        },
        {
          "name": "_guaranteeIPFSHash",
          "type": "bytes"
        }
      ],
      "name": "accept",
      "outputs": [
        {
          "name": "result",
          "type": "bool"
        }
      ],
      "payable": false,
      "type": "function"
    },
    {
      "constant": true,
      "inputs": [
        {
          "name": "_id",
          "type": "uint256"
        }
      ],
      "name": "getIssuerById",
      "outputs": [
        {
          "name": "",
          "type": "string"
        },
        {
          "name": "",
          "type": "string"
        },
        {
          "name": "",
          "type": "address"
        }
      ],
      "payable": false,
      "type": "function"
    },
    {
      "constant": true,
      "inputs": [
        {
          "name": "_addr",
          "type": "address"
        }
      ],
      "name": "getCustomer",
      "outputs": [
        {
          "name": "_name",
          "type": "string"
        },
        {
          "name": "_localAddress",
          "type": "string"
        }
      ],
      "payable": false,
      "type": "function"
    },
    {
      "constant": false,
      "inputs": [
        {
          "name": "_addr",
          "type": "address"
        },
        {
          "name": "_name",
          "type": "string"
        },
        {
          "name": "_localAddres",
          "type": "string"
        }
      ],
      "name": "submitIssuer",
      "outputs": [],
      "payable": false,
      "type": "function"
    },
    {
      "constant": true,
      "inputs": [
        {
          "name": "",
          "type": "uint256"
        }
      ],
      "name": "guarantees",
      "outputs": [
        {
          "name": "",
          "type": "address"
        }
      ],
      "payable": false,
      "type": "function"
    },
    {
      "constant": true,
      "inputs": [
        {
          "name": "_addr",
          "type": "address"
        }
      ],
      "name": "getIssuer",
      "outputs": [
        {
          "name": "",
          "type": "string"
        },
        {
          "name": "",
          "type": "string"
        }
      ],
      "payable": false,
      "type": "function"
    },
    {
      "inputs": [],
      "payable": false,
      "type": "constructor"
    },
    {
      "anonymous": false,
      "inputs": [
        {
          "indexed": false,
          "name": "msgSender",
          "type": "address"
        },
        {
          "indexed": false,
          "name": "msgstr",
          "type": "string"
        },
        {
          "indexed": false,
          "name": "timestamp",
          "type": "uint256"
        }
      ],
      "name": "RegulatoryContractDeployed",
      "type": "event"
    },
    {
      "anonymous": false,
      "inputs": [
        {
          "indexed": false,
          "name": "msgSender",
          "type": "address"
        },
        {
          "indexed": false,
          "name": "msgstr",
          "type": "string"
        },
        {
          "indexed": false,
          "name": "timestamp",
          "type": "uint256"
        }
      ],
      "name": "AddCustomer",
      "type": "event"
    },
    {
      "anonymous": false,
      "inputs": [
        {
          "indexed": false,
          "name": "msgSender",
          "type": "address"
        },
        {
          "indexed": false,
          "name": "_name",
          "type": "string"
        },
        {
          "indexed": false,
          "name": "timestamp",
          "type": "uint256"
        }
      ],
      "name": "AddBeneficiary",
      "type": "event"
    },
    {
      "anonymous": false,
      "inputs": [
        {
          "indexed": false,
          "name": "msgSender",
          "type": "address"
        },
        {
          "indexed": false,
          "name": "issuerAdr",
          "type": "address"
        },
        {
          "indexed": false,
          "name": "msgstr",
          "type": "string"
        },
        {
          "indexed": false,
          "name": "timestamp",
          "type": "uint256"
        }
      ],
      "name": "AddIssuer",
      "type": "event"
    },
    {
      "anonymous": false,
      "inputs": [
        {
          "indexed": false,
          "name": "message",
          "type": "string"
        },
        {
          "indexed": false,
          "name": "logb",
          "type": "address"
        }
      ],
      "name": "loga",
      "type": "event"
    },
    {
      "anonymous": false,
      "inputs": [
        {
          "indexed": false,
          "name": "message",
          "type": "string"
        },
        {
          "indexed": false,
          "name": "logb",
          "type": "string"
        }
      ],
      "name": "log",
      "type": "event"
    }
  ],
  "bytecode": "0x606060405260008054600160a060020a03191633600160a060020a0316179055341561002a57600080fd5b5b7f6c5cfd2de0086551b837a725d5f6a57e13b35c87eb326858461381e854a3a5a13342604051600160a060020a0390921682526040808301919091526060602083018190526005908301527f4d696e6564000000000000000000000000000000000000000000000000000000608083015260a0909101905180910390a15b5b6157bd806100b96000396000f30060606040523615620001475763ffffffff60e060020a600035041663010bd06781146200014c5780630156773914620001b8578063336989ae14620002e557806338a7543e14620004125780633c772eb4146200054f57806343d726d614620005c55780634d93c0c314620005dd578063505a1b31146200068357806356d58ef5146200078e5780636e64f5b714620007b65780637cb30670146200083557806383a2d05014620008a1578063893d20e814620009475780638da5cb5b14620009795780639a80c5ce14620009ab5780639c5a88d41462000a0b578063a4f2c2ce1462000a40578063a6f9dae11462000aac578063aa0a57ab1462000ad0578063af086e4a1462000bd2578063b643e5871462000c8a578063cb949e511462000d9c578063dc1985871462000ea7578063df754f111462000f4d578063fef03da31462000f82575b600080fd5b34156200015857600080fd5b620001626200108d565b60405160208082528190810183818151815260200191508051906020019060200280838360005b83811015620001a45780820151818401525b60200162000189565b505050509050019250505060405180910390f35b3415620001c457600080fd5b620001da600160a060020a0360043516620010fa565b6040516040808252835460026000196101006001841615020190911604908201819052819060208201906060830190869080156200025c5780601f1062000230576101008083540402835291602001916200025c565b820191906000526020600020905b8154815290600101906020018083116200023e57829003601f168201915b5050838103825284546002600019610100600184161502019091160480825260209091019085908015620002d45780601f10620002a857610100808354040283529160200191620002d4565b820191906000526020600020905b815481529060010190602001808311620002b657829003601f168201915b505094505050505060405180910390f35b3415620002f157600080fd5b620001da600160a060020a03600435166200110f565b6040516040808252835460026000196101006001841615020190911604908201819052819060208201906060830190869080156200025c5780601f1062000230576101008083540402835291602001916200025c565b820191906000526020600020905b8154815290600101906020018083116200023e57829003601f168201915b5050838103825284546002600019610100600184161502019091160480825260209091019085908015620002d45780601f10620002a857610100808354040283529160200191620002d4565b820191906000526020600020905b815481529060010190602001808311620002b657829003601f168201915b505094505050505060405180910390f35b34156200041e57600080fd5b62000434600160a060020a036004351662001124565b604051600160a060020a0382166040820152606080825284546002600019610100600184161502019091160490820181905281906020820190608083019087908015620004c55780601f106200049957610100808354040283529160200191620004c5565b820191906000526020600020905b815481529060010190602001808311620004a757829003601f168201915b50508381038252855460026000196101006001841615020190911604808252602090910190869080156200053d5780601f1062000511576101008083540402835291602001916200053d565b820191906000526020600020905b8154815290600101906020018083116200051f57829003601f168201915b50509550505050505060405180910390f35b34156200055b57600080fd5b620005b160048035600160a060020a03169060446024803590810190830135806020601f820181900481020160405190810160405281815292919060208401838380828437509496506200114b95505050505050565b604051901515815260200160405180910390f35b3415620005d157600080fd5b620005db620012b5565b005b3415620005e957600080fd5b620005db60048035600160a060020a03169060446024803590810190830135806020601f8201819004810201604051908101604052818152929190602084018383808284378201915050505050509190803590602001908201803590602001908080601f016020809104026020016040519081016040528181529291906020840183838082843750949650620012e295505050505050565b005b34156200068f57600080fd5b620006a5600160a060020a036004351662001403565b604051808060200180602001838103835285818151815260200191508051906020019080838360005b83811015620006e95780820151818401525b602001620006ce565b50505050905090810190601f168015620007175780820380516001836020036101000a031916815260200191505b50838103825284818151815260200191508051906020019080838360005b83811015620007505780820151818401525b60200162000735565b50505050905090810190601f1680156200077e5780820380516001836020036101000a031916815260200191505b5094505050505060405180910390f35b34156200079a57600080fd5b620007a4620015a8565b60405190815260200160405180910390f35b3415620007c257600080fd5b620005b160048035600160a060020a03169060248035916044359160849060643590810190830135806020601f82018190048102016040519081016040528181529291906020840183838082843750949650620015af95505050505050565b604051901515815260200160405180910390f35b34156200084157600080fd5b62000162620015ba565b60405160208082528190810183818151815260200191508051906020019060200280838360005b83811015620001a45780820151818401525b60200162000189565b505050509050019250505060405180910390f35b3415620008ad57600080fd5b620005db60048035600160a060020a03169060446024803590810190830135806020601f8201819004810201604051908101604052818152929190602084018383808284378201915050505050509190803590602001908201803590602001908080601f0160208091040260200160405190810160405281815292919060208401838380828437509496506200162795505050505050565b005b34156200095357600080fd5b6200095d62001789565b604051600160a060020a03909116815260200160405180910390f35b34156200098557600080fd5b6200095d62001799565b604051600160a060020a03909116815260200160405180910390f35b3415620009b757600080fd5b6200095d600160a060020a036004358116906024358116906044351660643560843560a43560c43560ff60e4351661010435620017a8565b604051600160a060020a03909116815260200160405180910390f35b341562000a1757600080fd5b6200095d60043562001899565b604051600160a060020a03909116815260200160405180910390f35b341562000a4c57600080fd5b62000162620018cc565b60405160208082528190810183818151815260200191508051906020019060200280838360005b83811015620001a45780820151818401525b60200162000189565b505050509050019250505060405180910390f35b341562000ab857600080fd5b620005db600160a060020a036004351662001939565b005b341562000adc57600080fd5b620006a560043562001998565b604051808060200180602001838103835285818151815260200191508051906020019080838360005b83811015620006e95780820151818401525b602001620006ce565b50505050905090810190601f168015620007175780820380516001836020036101000a031916815260200191505b50838103825284818151815260200191508051906020019080838360005b83811015620007505780820151818401525b60200162000735565b50505050905090810190601f1680156200077e5780820380516001836020036101000a031916815260200191505b5094505050505060405180910390f35b341562000bde57600080fd5b620005b160048035600160a060020a03169060446024803590810190830135806020601f8201819004810201604051908101604052818152929190602084018383808284378201915050505050509190803590602001908201803590602001908080601f01602080910402602001604051908101604052818152929190602084018383808284375094965062001b8895505050505050565b604051901515815260200160405180910390f35b341562000c9657600080fd5b62000ca360043562001d61565b604051600160a060020a0382166040820152606080825281906020820190820186818151815260200191508051906020019080838360005b8381101562000cf65780820151818401525b60200162000cdb565b50505050905090810190601f16801562000d245780820380516001836020036101000a031916815260200191505b50838103825285818151815260200191508051906020019080838360005b8381101562000d5d5780820151818401525b60200162000d42565b50505050905090810190601f16801562000d8b5780820380516001836020036101000a031916815260200191505b509550505050505060405180910390f35b341562000da857600080fd5b620006a5600160a060020a036004351662001f6f565b604051808060200180602001838103835285818151815260200191508051906020019080838360005b83811015620006e95780820151818401525b602001620006ce565b50505050905090810190601f168015620007175780820380516001836020036101000a031916815260200191505b50838103825284818151815260200191508051906020019080838360005b83811015620007505780820151818401525b60200162000735565b50505050905090810190601f1680156200077e5780820380516001836020036101000a031916815260200191505b5094505050505060405180910390f35b341562000eb357600080fd5b620005db60048035600160a060020a03169060446024803590810190830135806020601f8201819004810201604051908101604052818152929190602084018383808284378201915050505050509190803590602001908201803590602001908080601f0160208091040260200160405190810160405281815292919060208401838380828437509496506200211495505050505050565b005b341562000f5957600080fd5b6200095d600435620022a9565b604051600160a060020a03909116815260200160405180910390f35b341562000f8e57600080fd5b620006a5600160a060020a0360043516620022dc565b604051808060200180602001838103835285818151815260200191508051906020019080838360005b83811015620006e95780820151818401525b602001620006ce565b50505050905090810190601f168015620007175780820380516001836020036101000a031916815260200191505b50838103825284818151815260200191508051906020019080838360005b83811015620007505780820151818401525b60200162000735565b50505050905090810190601f1680156200077e5780820380516001836020036101000a031916815260200191505b5094505050505060405180910390f35b6200109762002496565b6007805480602002602001604051908101604052809291908181526020018280548015620010ef57602002820191906000526020600020905b8154600160a060020a03168152600190910190602001808311620010d0575b505050505090505b90565b60036020526000908152604090206001810182565b60056020526000908152604090206001810182565b600160208190526000918252604090912060028101549091820190600160a060020a031683565b600082600160a060020a03811663565a2e2c83604051602001526040518163ffffffff1660e060020a028152600401602060405180830381600087803b15156200119457600080fd5b6102c65a03f11515620011a657600080fd5b50505060405180519050600160a060020a031633600160a060020a03161415620001475780600160a060020a0316639733b2b8846000604051602001526040518263ffffffff1660e060020a0281526004018080602001828103825283818151815260200191508051906020019080838360005b83811015620012355780820151818401525b6020016200121a565b50505050905090810190601f168015620012635780820380516001836020036101000a031916815260200191505b5092505050602060405180830381600087803b15156200128257600080fd5b6102c65a03f115156200129457600080fd5b505050604051805190505060019150620012ae565b600080fd5b5092915050565b60005433600160a060020a03908116911614620012d157600080fd5b600054600160a060020a0316ff5b5b565b6000805433600160a060020a03908116911614620012ff57600080fd5b50600160a060020a0383166000908152600560205260409020808380516200132c929160200190620024a8565b506001810182805162001344929160200190620024a8565b507f3cdf985955e499413107b03adc7c7db5433c87ba6fa7a1beec377bb814138b9f338442604051600160a060020a03841681526040810182905260606020820181815290820184818151815260200191508051906020019080838360005b83811015620013be5780820151818401525b602001620013a3565b50505050905090810190601f168015620013ec5780820380516001836020036101000a031916815260200191505b5094505050505060405180910390a15b5b50505050565b6200140d62002496565b6200141762002496565b6200142162002540565b600160a060020a038416600090815260036020526040908190209080519081016040529081600082018054600181600116156101000203166002900480601f016020809104026020016040519081016040528092919081815260200182805460018160011615610100020316600290048015620014e25780601f10620014b657610100808354040283529160200191620014e2565b820191906000526020600020905b815481529060010190602001808311620014c457829003601f168201915b50505050508152602001600182018054600181600116156101000203166002900480601f016020809104026020016040519081016040528092919081815260200182805460018160011615610100020316600290048015620015885780601f106200155c5761010080835404028352916020019162001588565b820191906000526020600020905b8154815290600101906020018083116200156a57829003601f168201915b505050505081525050905080600001519250806020015191505b50915091565b6002545b90565b60015b949350505050565b620015c462002496565b6004805480602002602001604051908101604052809291908181526020018280548015620010ef57602002820191906000526020600020905b8154600160a060020a03168152600190910190602001808311620010d0575b505050505090505b90565b6000805433600160a060020a039081169116146200164457600080fd5b50600160a060020a03831660009081526003602052604090208083805162001671929160200190620024a8565b506001810182805162001689929160200190620024a8565b5060048054600181016200169e838262002569565b916000526020600020900160005b8154600160a060020a038089166101009390930a92830292021916179055507f783e5f858212246618c02751dfbc4e502a48ca372a20f94a46d8e99fe70c998c848442604051600160a060020a03841681526040810182905260606020820181815290820184818151815260200191508051906020019080838360005b83811015620013be5780820151818401525b602001620013a3565b50505050905090810190601f168015620013ec5780820380516001836020036101000a031916815260200191505b5094505050505060405180910390a15b5b50505050565b600054600160a060020a03165b90565b600054600160a060020a031681565b600080308b8b8b8b8b8b8b8b8b620017bf62002596565b600160a060020a03808c1682528a811660208301528981166040830152881660608201526080810187905260a0810186905260c0810185905260e0810184905261010081018360028111156200181157fe5b60ff1681526020018281526020019a5050505050505050505050604051809103906000f08015156200184257600080fd5b9050600680548060010182816200185a919062002569565b916000526020600020900160005b8154600160a060020a038086166101009390930a92830292021916179055509050805b509998505050505050505050565b6006805482908110620018a857fe5b906000526020600020900160005b915054906101000a9004600160a060020a031681565b620018d662002496565b6006805480602002602001604051908101604052809291908181526020018280548015620010ef57602002820191906000526020600020905b8154600160a060020a03168152600190910190602001808311620010d0575b505050505090505b90565b60005433600160a060020a039081169116146200195557600080fd5b600160a060020a03811615156200196b57600080fd5b6000805473ffffffffffffffffffffffffffffffffffffffff1916600160a060020a0383161790555b5b50565b620019a262002496565b620019ac62002496565b620019b662002540565b6004548410620019c557600080fd5b60036000600486815481101515620019d957fe5b906000526020600020900160005b9054906101000a9004600160a060020a0316600160a060020a0316600160a060020a03168152602001908152602001600020604080519081016040529081600082018054600181600116156101000203166002900480601f01602080910402602001604051908101604052809291908181526020018280546001816001161561010002031660029004801562001ac15780601f1062001a955761010080835404028352916020019162001ac1565b820191906000526020600020905b81548152906001019060200180831162001aa357829003601f168201915b50505050508152602001600182018054600181600116156101000203166002900480601f01602080910402602001604051908101604052809291908181526020018280546001816001161561010002031660029004801562001b675780601f1062001b3b5761010080835404028352916020019162001b67565b820191906000526020600020905b81548152906001019060200180831162001b4957829003601f168201915b50505050508152505090508060000151816020015190935091505b50915091565b600083600160a060020a0381166360d704db83604051602001526040518163ffffffff1660e060020a028152600401602060405180830381600087803b151562001bd157600080fd5b6102c65a03f1151562001be357600080fd5b50505060405180519050600160a060020a031633600160a060020a03161415620001475780600160a060020a031663941e9bfb85856000604051602001526040518363ffffffff1660e060020a028152600401808060200180602001838103835285818151815260200191508051906020019080838360005b8381101562001c775780820151818401525b60200162001c5c565b50505050905090810190601f16801562001ca55780820380516001836020036101000a031916815260200191505b50838103825284818151815260200191508051906020019080838360005b8381101562001cde5780820151818401525b60200162001cc3565b50505050905090810190601f16801562001d0c5780820380516001836020036101000a031916815260200191505b50945050505050602060405180830381600087803b151562001d2d57600080fd5b6102c65a03f1151562001d3f57600080fd5b50505060405180519050506001915062001d59565b600080fd5b509392505050565b62001d6b62002496565b62001d7562002496565b600062001d81620025a7565b600254851062001d9057600080fd5b6001600060028781548110151562001da457fe5b906000526020600020900160005b9054906101000a9004600160a060020a0316600160a060020a0316600160a060020a0316815260200190815260200160002060606040519081016040529081600082018054600181600116156101000203166002900480601f01602080910402602001604051908101604052809291908181526020018280546001816001161561010002031660029004801562001e8d5780601f1062001e615761010080835404028352916020019162001e8d565b820191906000526020600020905b81548152906001019060200180831162001e6f57829003601f168201915b50505050508152602001600182018054600181600116156101000203166002900480601f01602080910402602001604051908101604052809291908181526020018280546001816001161561010002031660029004801562001f335780601f1062001f075761010080835404028352916020019162001f33565b820191906000526020600020905b81548152906001019060200180831162001f1557829003601f168201915b505050918352505060029190910154600160a060020a03166020909101529050805181602001518260400151919550935091505b509193909250565b62001f7962002496565b62001f8362002496565b62001f8d62002540565b600160a060020a038416600090815260056020526040908190209080519081016040529081600082018054600181600116156101000203166002900480601f016020809104026020016040519081016040528092919081815260200182805460018160011615610100020316600290048015620014e25780601f10620014b657610100808354040283529160200191620014e2565b820191906000526020600020905b815481529060010190602001808311620014c457829003601f168201915b50505050508152602001600182018054600181600116156101000203166002900480601f016020809104026020016040519081016040528092919081815260200182805460018160011615610100020316600290048015620015885780601f106200155c5761010080835404028352916020019162001588565b820191906000526020600020905b8154815290600101906020018083116200156a57829003601f168201915b505050505081525050905080600001519250806020015191505b50915091565b6000805433600160a060020a039081169116146200213157600080fd5b50600160a060020a0383166000908152600160205260409020808380516200215e929160200190620024a8565b506001810182805162002176929160200190620024a8565b506002818101805473ffffffffffffffffffffffffffffffffffffffff1916600160a060020a038716179055805460018101620021b4838262002569565b916000526020600020900160005b8154600160a060020a038089166101009390930a92830292021916179055507fb3bb6454838f769878c9da3dacefc82660ff82c898c373385ad5e32c9aa4767433858542604051600160a060020a038086168252841660208201526060810182905260806040820181815290820184818151815260200191508051906020019080838360005b83811015620022635780820151818401525b60200162002248565b50505050905090810190601f168015620022915780820380516001836020036101000a031916815260200191505b509550505050505060405180910390a15b5b50505050565b6007805482908110620018a857fe5b906000526020600020900160005b915054906101000a9004600160a060020a031681565b620022e662002496565b620022f062002496565b620022fa620025a7565b600160a060020a0384166000908152600160205260409081902090606090519081016040529081600082018054600181600116156101000203166002900480601f016020809104026020016040519081016040528092919081815260200182805460018160011615610100020316600290048015620023bd5780601f106200239157610100808354040283529160200191620023bd565b820191906000526020600020905b8154815290600101906020018083116200239f57829003601f168201915b50505050508152602001600182018054600181600116156101000203166002900480601f016020809104026020016040519081016040528092919081815260200182805460018160011615610100020316600290048015620024635780601f10620024375761010080835404028352916020019162002463565b820191906000526020600020905b8154815290600101906020018083116200244557829003601f168201915b505050918352505060029190910154600160a060020a031660209091015290508051816020015190935091505b50915091565b60206040519081016040526000815290565b828054600181600116156101000203166002900490600052602060002090601f016020900481019282601f10620024eb57805160ff19168380011785556200251b565b828001600101855582156200251b579182015b828111156200251b578251825591602001919060010190620024fe565b5b506200252a92915062002602565b5090565b60206040519081016040526000815290565b60408051908101604052806200255562002496565b81526020016200256462002496565b905290565b81548183558181151162002590576000838152602090206200259091810190830162002602565b5b505050565b604051613159806200263983390190565b606060405190810160405280620025bd62002496565b8152602001620025cc62002496565b8152600060209091015290565b60408051908101604052806200255562002496565b81526020016200256462002496565b905290565b620010f791905b808211156200252a576000815560010162002609565b5090565b90565b602060405190810160405260008152905600606060405260408051908101604052600481527f312e303000000000000000000000000000000000000000000000000000000000602082015260009080516200004d929160200190620002aa565b5034156200005a57600080fd5b6040516101408062003159833981016040528080519190602001805191906020018051919060200180519190602001805191906020018051919060200180519190602001805191906020018051919060200180519150505b60018054600160a060020a03808d16600160a060020a0319928316178355600480548c8316908416179055600580548d831690841617905560068054918b1691909216179055600787905560088690556009859055600a849055600b8054849260ff19909116908360028111156200012657fe5b0217905550600c819055600f80546000919060ff19166001835b02179055506000601055600160a060020a03808916908a166200017064010000000062000ff2620002a582021704565b600160a060020a03167f664175ac67290bd08de0c5daebd9901c346cd61ad7afa4ab5a23078389dbc6728a8a8a8a8a8a8a42604051600160a060020a03891681526020810188905260408101879052606081018690526080810185905260a08101846002811115620001de57fe5b60ff1681526020018381526020018281526020019850505050505050505060405180910390a46200021c64010000000062000ff2620002a582021704565b601054600f54600160a060020a0392909216917fb1a46393ed5af437d2873216183052bae16cf1b3fe55a659caebd503ecf6f919919060ff16604051808381526020018260098111156200026c57fe5b60ff16815260200180602001828103825260008152602001602001935050505060405180910390a25b5050505050505050505062000354565b305b90565b828054600181600116156101000203166002900490600052602060002090601f016020900481019282601f10620002ed57805160ff19168380011785556200031d565b828001600101855582156200031d579182015b828111156200031d57825182559160200191906001019062000300565b5b506200032c92915062000330565b5090565b620002a791905b808211156200032c576000815560010162000337565b5090565b90565b612df580620003646000396000f300606060405236156200010c5763ffffffff7c01000000000000000000000000000000000000000000000000000000006000350416631c32e7af811462000111578063201c5cc114620001b557806320ba6b63146200021d5780632f13b60c14620002855780634a51c31c14620002af57806354fd4d501462000317578063565a2e2c14620003a85780635d1ca63114620003da57806360d704db146200040c578063650d993b146200043e578063941e9bfb14620004705780639733b2b8146200051a578063a39152f21462000582578063b135648814620005bd578063c3287ea714620005e5578063d99a8dc31462000676578063da0321cd14620006de578063f40bd94a1462000725575b600080fd5b34156200011d57600080fd5b6200012762000792565b604051600160a060020a03808d1682528b811660208301528a81166040830152891660608201526080810188905260a0810187905260c0810186905260e0810185905261010081018460028111156200017c57fe5b60ff1681526020018381526020018260098111156200019757fe5b60ff1681526020019b50505050505050505050505060405180910390f35b3415620001c157600080fd5b6200020960046024813581810190830135806020601f820181900481020160405190810160405281815292919060208401838380828437509496506200080f95505050505050565b604051901515815260200160405180910390f35b34156200022957600080fd5b6200020960046024813581810190830135806020601f8201819004810201604051908101604052818152929190602084018383808284375094965062000af395505050505050565b604051901515815260200160405180910390f35b34156200029157600080fd5b6200020962000c48565b604051901515815260200160405180910390f35b3415620002bb57600080fd5b6200020960046024813581810190830135806020601f8201819004810201604051908101604052818152929190602084018383808284375094965062000c5c95505050505050565b604051901515815260200160405180910390f35b34156200032357600080fd5b6200032d62000f40565b60405160208082528190810183818151815260200191508051906020019080838360005b838110156200036c5780820151818401525b60200162000351565b50505050905090810190601f1680156200039a5780820380516001836020036101000a031916815260200191505b509250505060405180910390f35b3415620003b457600080fd5b620003be62000fe2565b604051600160a060020a03909116815260200160405180910390f35b3415620003e657600080fd5b620003be62000ff2565b604051600160a060020a03909116815260200160405180910390f35b34156200041857600080fd5b620003be62000ff7565b604051600160a060020a03909116815260200160405180910390f35b34156200044a57600080fd5b620003be62001007565b604051600160a060020a03909116815260200160405180910390f35b34156200047c57600080fd5b6200020960046024813581810190830135806020601f8201819004810201604051908101604052818152929190602084018383808284378201915050505050509190803590602001908201803590602001908080601f0160208091040260200160405190810160405281815292919060208401838380828437509496506200101795505050505050565b604051901515815260200160405180910390f35b34156200052657600080fd5b6200020960046024813581810190830135806020601f82018190048102016040519081016040528181529291906020840183838082843750949650620014ee95505050505050565b604051901515815260200160405180910390f35b34156200058e57600080fd5b62000598620018d0565b60405180826009811115620005a957fe5b60ff16815260200191505060405180910390f35b3415620005c957600080fd5b620005d3620018da565b60405190815260200160405180910390f35b3415620005f157600080fd5b6200032d620018e1565b60405160208082528190810183818151815260200191508051906020019080838360005b838110156200036c5780820151818401525b60200162000351565b50505050905090810190601f1680156200039a5780820380516001836020036101000a031916815260200191505b509250505060405180910390f35b34156200068257600080fd5b6200020960046024813581810190830135806020601f820181900481020160405190810160405281815292919060208401838380828437509496506200199095505050505050565b604051901515815260200160405180910390f35b3415620006ea57600080fd5b620006f462001c93565b604051600160a060020a03938416815291831660208301529091166040808301919091526060909101905180910390f35b34156200073157600080fd5b6200020960046024813581810190830135806020601f820181900481020160405190810160405281815292919060208401838380828437509496505050923560ff16925062001cb0915050565b604051901515815260200160405180910390f35b6000806000806000806000806000806000620007ad62000ff2565b9a50620007b962001007565b9950620007c562000ff7565b9850620007d162000fe2565b600754600854600954600a54600b54600c54600f54969e50949c50929a50909850965060ff90811695509093501690505b909192939495969798999a565b60006200081b62000ff7565b600160a060020a031633600160a060020a0316141515620008c25760008051602062002daa83398151915233604051600160a060020a03909116602082015260408082526025818301527f2323234552524f522d6e6f7420706572666f726d642062792042414e4b20616460608301527f6472657373000000000000000000000000000000000000000000000000000000608083015260a0909101905180910390a1600080fd5b60008051602062002daa83398151915233604051600160a060020a03909116602082015260408082526017818301527f23706173732042414e4b20616374696f6e20636865636b00000000000000000060608301526080909101905180910390a160065b600f5460ff1660098111156200093857fe5b14156200094457600080fd5b601080546001908101909155600f805460089260ff1990911690835b021790555033600160a060020a03166200097962000ff2565b600160a060020a03167fda2f632f096bf2ad2f47a8d41586871fec8fb96b5da18022d8bcf542f5851c848460405160208082528190810183818151815260200191508051906020019080838360005b83811015620009e35780820151818401525b602001620009c8565b50505050905090810190601f16801562000a115780820380516001836020036101000a031916815260200191505b509250505060405180910390a362000a2862000ff2565b601054600f54600160a060020a03929092169160008051602062002d8a833981519152919060ff16856040518084815260200183600981111562000a6857fe5b60ff16815260200180602001828103825283818151815260200191508051906020019080838360005b8381101562000aac5780820151818401525b60200162000a91565b50505050905090810190601f16801562000ada5780820380516001836020036101000a031916815260200191505b5094505050505060405180910390a25060015b5b919050565b600062000aff62001007565b600160a060020a031633600160a060020a031614151562000ba65760008051602062002daa83398151915233604051600160a060020a03909116602082015260408082526029818301527f2323234552524f522d6e6f7420706572666f726d6420627920435553544f4d4560608301527f5220616464726573730000000000000000000000000000000000000000000000608083015260a0909101905180910390a1600080fd5b60008051602062002daa83398151915233604051600160a060020a0390911660208201526040808252601b818301527f237061737320435553544f4d455220616374696f6e20636865636b000000000060608301526080909101905180910390a160005b600f5460ff16600981111562000c1c57fe5b1462000c2757600080fd5b600d82805162000c3c92916020019062002040565b50600190505b5b919050565b60004262000c55620018da565b1190505b90565b600062000c6862001007565b600160a060020a031633600160a060020a031614151562000d0f5760008051602062002daa83398151915233604051600160a060020a03909116602082015260408082526029818301527f2323234552524f522d6e6f7420706572666f726d6420627920435553544f4d4560608301527f5220616464726573730000000000000000000000000000000000000000000000608083015260a0909101905180910390a1600080fd5b60008051602062002daa83398151915233604051600160a060020a0390911660208201526040808252601b818301527f237061737320435553544f4d455220616374696f6e20636865636b000000000060608301526080909101905180910390a160065b600f5460ff16600981111562000d8557fe5b141562000d9157600080fd5b601080546001908101909155600f805460059260ff1990911690835b021790555033600160a060020a031662000dc662000ff2565b600160a060020a03167fe2da84e37586f298e21b90158a7c3d1432e48167bd48d3b07bc64554b93e09788460405160208082528190810183818151815260200191508051906020019080838360005b83811015620009e35780820151818401525b602001620009c8565b50505050905090810190601f16801562000a115780820380516001836020036101000a031916815260200191505b509250505060405180910390a362000a2862000ff2565b601054600f54600160a060020a03929092169160008051602062002d8a833981519152919060ff16856040518084815260200183600981111562000a6857fe5b60ff16815260200180602001828103825283818151815260200191508051906020019080838360005b8381101562000aac5780820151818401525b60200162000a91565b50505050905090810190601f16801562000ada5780820380516001836020036101000a031916815260200191505b5094505050505060405180910390a25060015b5b919050565b60008054600181600116156101000203166002900480601f01602080910402602001604051908101604052809291908181526020018280546001816001161561010002031660029004801562000fda5780601f1062000fae5761010080835404028352916020019162000fda565b820191906000526020600020905b81548152906001019060200180831162000fbc57829003601f168201915b505050505081565b600654600160a060020a03165b90565b305b90565b600454600160a060020a03165b90565b600554600160a060020a03165b90565b60006200102362000ff7565b600160a060020a031633600160a060020a0316141515620010ca5760008051602062002daa83398151915233604051600160a060020a03909116602082015260408082526025818301527f2323234552524f522d6e6f7420706572666f726d642062792042414e4b20616460608301527f6472657373000000000000000000000000000000000000000000000000000000608083015260a0909101905180910390a1600080fd5b60008051602062002daa83398151915233604051600160a060020a03909116602082015260408082526017818301527f23706173732042414e4b20616374696f6e20636865636b00000000000000000060608301526080909101905180910390a160015b600f5460ff1660098111156200114057fe5b14806200115f575060025b600f5460ff1660098111156200115d57fe5b145b806200117d575060075b600f5460ff1660098111156200117b57fe5b145b8015620011905750620011908262002022565b5b8015620011a75750600254600160a060020a0316155b1515620011b357600080fd5b601080546001019055600e828051620011d192916020019062002040565b50600f80546006919060ff19166001835b021790555033600160a060020a0316620011fb62000ff2565b600160a060020a03167f6b1486856e2a775b0ef3d5a82b9fe7797ca354730215a91a7a360df52ba4c82685600e604051808060200180602001838103835285818151815260200191508051906020019080838360005b838110156200126c5780820151818401525b60200162001251565b50505050905090810190601f1680156200129a5780820380516001836020036101000a031916815260200191505b50838103825284546002600019610100600184161502019091160480825260209091019085908015620013115780601f10620012e55761010080835404028352916020019162001311565b820191906000526020600020905b815481529060010190602001808311620012f357829003601f168201915b505094505050505060405180910390a36200132b62000ff2565b601054600f54600160a060020a03929092169160008051602062002d8a833981519152919060ff1686604051808481526020018360098111156200136b57fe5b60ff16815260200180602001828103825283818151815260200191508051906020019080838360005b83811015620013af5780820151818401525b60200162001394565b50505050905090810190601f168015620013dd5780820380516001836020036101000a031916815260200191505b5094505050505060405180910390a26001543090600160a060020a0316600e62001406620020c6565b600160a060020a0380851682528316602082015260606040820181815283546002600019610100600184161502019091160491830182905290608083019084908015620014975780601f106200146b5761010080835404028352916020019162001497565b820191906000526020600020905b8154815290600101906020018083116200147957829003601f168201915b5050945050505050604051809103906000f0801515620014b657600080fd5b6002805473ffffffffffffffffffffffffffffffffffffffff1916600160a060020a03929092169190911790555060015b5b92915050565b6000620014fa62000fe2565b600160a060020a031633600160a060020a0316141515620015a15760008051602062002daa83398151915233604051600160a060020a0390911660208201526040808252602c818301527f2323234552524f522d6e6f7420706572666f726d642062792042454e4546494360608301527f4945525920616464726573730000000000000000000000000000000000000000608083015260a0909101905180910390a1600080fd5b60008051602062002daa83398151915233604051600160a060020a0390911660208201526040808252601e818301527f23706173732042454e454649434945525920616374696f6e20636865636b000060608301526080909101905180910390a160065b600f5460ff1660098111156200161757fe5b146200162257600080fd5b601080546001019055600254600160a060020a0316156200172d57600254600160a060020a0316630220a5b4836000604051602001526040518263ffffffff167c01000000000000000000000000000000000000000000000000000000000281526004018080602001828103825283818151815260200191508051906020019080838360005b83811015620016c35780820151818401525b602001620016a8565b50505050905090810190601f168015620016f15780820380516001836020036101000a031916815260200191505b5092505050602060405180830381600087803b15156200171057600080fd5b6102c65a03f115156200172257600080fd5b505050604051805150505b600f80546009919060ff19166001835b021790555033600160a060020a03166200175662000ff2565b600160a060020a03167f513475860be7c4b777aed08e9cea8e93747234fde0591b15491aef3033f5beef8460405160208082528190810183818151815260200191508051906020019080838360005b83811015620009e35780820151818401525b602001620009c8565b50505050905090810190601f16801562000a115780820380516001836020036101000a031916815260200191505b509250505060405180910390a362000a2862000ff2565b601054600f54600160a060020a03929092169160008051602062002d8a833981519152919060ff16856040518084815260200183600981111562000a6857fe5b60ff16815260200180602001828103825283818151815260200191508051906020019080838360005b8381101562000aac5780820151818401525b60200162000a91565b50505050905090810190601f16801562000ada5780820380516001836020036101000a031916815260200191505b5094505050505060405180910390a25060015b5b919050565b600f5460ff165b90565b600a545b90565b620018eb620020d7565b600d8054600181600116156101000203166002900480601f016020809104026020016040519081016040528092919081815260200182805460018160011615610100020316600290048015620019855780601f10620019595761010080835404028352916020019162001985565b820191906000526020600020905b8154815290600101906020018083116200196757829003601f168201915b505050505090505b90565b60006200199c62001007565b600160a060020a031633600160a060020a031614151562001a435760008051602062002daa83398151915233604051600160a060020a03909116602082015260408082526029818301527f2323234552524f522d6e6f7420706572666f726d6420627920435553544f4d4560608301527f5220616464726573730000000000000000000000000000000000000000000000608083015260a0909101905180910390a1600080fd5b60008051602062002daa83398151915233604051600160a060020a0390911660208201526040808252601b818301527f237061737320435553544f4d455220616374696f6e20636865636b000000000060608301526080909101905180910390a160005b600f5460ff16600981111562001ab957fe5b1462001ac457600080fd5b601080546001908101909155600f805460ff191682805b021790555033600160a060020a03167fe77ccb4da3e61d25149366678ffe2065ed7dd8120b89a3b86cb12c0ddd67fe8162001b1562000ff2565b600f54859060ff16604051600160a060020a0384168152602081016040820183600981111562001b4157fe5b60ff168152602001828103825284818151815260200191508051906020019080838360005b8381101562001b815780820151818401525b60200162001b66565b50505050905090810190601f16801562001baf5780820380516001836020036101000a031916815260200191505b5094505050505060405180910390a262000a2862000ff2565b601054600f54600160a060020a03929092169160008051602062002d8a833981519152919060ff16856040518084815260200183600981111562000a6857fe5b60ff16815260200180602001828103825283818151815260200191508051906020019080838360005b8381101562000aac5780820151818401525b60200162000a91565b50505050905090810190601f16801562000ada5780820380516001836020036101000a031916815260200191505b5094505050505060405180910390a25060015b5b919050565b600454600554600654600160a060020a0392831692918216911683565b600062001cbc62000ff7565b600160a060020a031633600160a060020a031614151562001d635760008051602062002daa83398151915233604051600160a060020a03909116602082015260408082526025818301527f2323234552524f522d6e6f7420706572666f726d642062792042414e4b20616460608301527f6472657373000000000000000000000000000000000000000000000000000000608083015260a0909101905180910390a1600080fd5b60008051602062002daa83398151915233604051600160a060020a03909116602082015260408082526017818301527f23706173732042414e4b20616374696f6e20636865636b00000000000000000060608301526080909101905180910390a160015b600f5460ff16600981111562001dd957fe5b148062001df8575060025b600f5460ff16600981111562001df657fe5b145b801562001e43575060025b82600981111562001e1057fe5b148062001e2a575060035b82600981111562001e2857fe5b145b8062001e43575060045b82600981111562001e4157fe5b145b5b151562001e5057600080fd5b601080546001908101909155600f8054849260ff199091169083600981111562001e7657fe5b021790555033600160a060020a031662001e8f62000ff2565b600160a060020a03167f143c3d208c24afb28544f8e77a5a17d950edc91faca57929c3b6da0e120b76ce8585604051808060200183600981111562001ed057fe5b60ff168152602001828103825284818151815260200191508051906020019080838360005b8381101562001f105780820151818401525b60200162001ef5565b50505050905090810190601f16801562001f3e5780820380516001836020036101000a031916815260200191505b50935050505060405180910390a362001f5662000ff2565b601054600f54600160a060020a03929092169160008051602062002d8a833981519152919060ff16866040518084815260200183600981111562001f9657fe5b60ff16815260200180602001828103825283818151815260200191508051906020019080838360005b8381101562001fda5780820151818401525b60200162001fbf565b50505050905090810190601f168015620020085780820380516001836020036101000a031916815260200191505b5094505050505060405180910390a25060015b5b92915050565b60008082511115620020375750600162000aed565b5060005b919050565b828054600181600116156101000203166002900490600052602060002090601f016020900481019282601f106200208357805160ff1916838001178555620020b3565b82800160010185558215620020b3579182015b82811115620020b357825182559160200191906001019062002096565b5b50620020c2929150620020e9565b5090565b604051610c7c806200210e83390190565b60206040519081016040526000815290565b62000c5991905b80821115620020c25760008155600101620020f0565b5090565b9056006060604052341561000f57600080fd5b604051610c7c380380610c7c83398101604052808051919060200180519190602001805190910190505b60008054600160a060020a03808616600160a060020a0319928316179092556001805492851692909116919091179055600281805161007c929160200190610171565b5060018054819060a060020a60ff02191674010000000000000000000000000000000000000000825b02179055507f2a114794accc550a527ef87653abf0f6afacf18842782ec64db725729b83aeb883303384604051600160a060020a03808616825284811660208301528316604082015260806060820181815290820183818151815260200191508051906020019080838360005b8381101561012b5780820151818401525b602001610112565b50505050905090810190601f1680156101585780820380516001836020036101000a031916815260200191505b509550505050505060405180910390a15b505050610211565b828054600181600116156101000203166002900490600052602060002090601f016020900481019282601f106101b257805160ff19168380011785556101df565b828001600101855582156101df579182015b828111156101df5782518255916020019190600101906101c4565b5b506101ec9291506101f0565b5090565b61020e91905b808211156101ec57600081556001016101f6565b5090565b90565b610a5c806102206000396000f3006060604052361561007d5763ffffffff60e060020a6000350416630220a5b481146100825780632f13b60c146100e757806338e537b31461010e5780633a6facad146101b7578063488523bc146101ee578063565a2e2c146102795780635d1ca631146102a8578063b1356488146102d7578063cfd99c5a146102fc575b600080fd5b341561008d57600080fd5b6100d360046024813581810190830135806020601f820181900481020160405190810160405281815292919060208401838380828437509496506103a895505050505050565b604051901515815260200160405180910390f35b34156100f257600080fd5b6100d36104e3565b604051901515815260200160405180910390f35b341561011957600080fd5b6101216104f5565b604051600160a060020a03808e1682528c811660208301528b811660408301528a811660608301528916608082015260a0810188905260c0810187905260e081018690526101008101859052610120810184600281111561017e57fe5b60ff16815260200183815260200182600481111561019857fe5b60ff1681526020019c5050505050505050505050505060405180910390f35b34156101c257600080fd5b6101ca6106e8565b604051808260048111156101da57fe5b60ff16815260200191505060405180910390f35b34156101f957600080fd5b610201610727565b60405160208082528190810183818151815260200191508051906020019080838360005b8381101561023e5780820151818401525b602001610225565b50505050905090810190601f16801561026b5780820380516001836020036101000a031916815260200191505b509250505060405180910390f35b341561028457600080fd5b61028c6107d0565b604051600160a060020a03909116815260200160405180910390f35b34156102b357600080fd5b61028c61083a565b604051600160a060020a03909116815260200160405180910390f35b34156102e257600080fd5b6102ea61083f565b60405190815260200160405180910390f35b341561030757600080fd5b6100d3600480359060446024803590810190830135806020601f8201819004810201604051908101604052818152929190602084018383808284378201915050505050509190803590602001908201803590602001908080601f0160208091040260200160405190810160405281815292919060208401838380828437509496506108a995505050505050565b604051901515815260200160405180910390f35b60006103b26107d0565b600160a060020a031633600160a060020a03161415156103d157600080fd5b6000547ff0879a5fd76e31f1bc558d25b1a3a2a9a0244de093e991cad67476ed37a64b4b90600160a060020a0316303385604051600160a060020a03808616825284811660208301528316604082015260806060820181815290820183818151815260200191508051906020019080838360005b8381101561045e5780820151818401525b602001610445565b50505050905090810190601f16801561048b5780820380516001836020036101000a031916815260200191505b509550505050505060405180910390a1600180546003919074ff0000000000000000000000000000000000000000191674010000000000000000000000000000000000000000835b0217905550600190505b5b919050565b6000426104ee61083f565b1190505b90565b6000805481908190819081908190819081908190819081908190600160a060020a031680631c32e7af8360405161016001526040518163ffffffff1660e060020a02815260040161016060405180830381600087803b151561055657600080fd5b6102c65a03f1151561056757600080fd5b5050506040518051906020018051906020018051906020018051906020018051906020018051906020018051906020018051906020018051906020018051906020018051905090919293949596979899509091929394959697985090919293949596975050809950819a50829b50839c50849d50859e50869f50505050505050506000809054906101000a9004600160a060020a03169b5061060761083a565b9c5080600160a060020a031663650d993b6000604051602001526040518163ffffffff1660e060020a028152600401602060405180830381600087803b151561064f57600080fd5b6102c65a03f1151561066057600080fd5b50505060405180519b5050600160a060020a0381166360d704db6000604051602001526040518163ffffffff1660e060020a028152600401602060405180830381600087803b15156106b157600080fd5b6102c65a03f115156106c257600080fd5b5050506040518051905099506106d66106e8565b91505b50909192939495969798999a9b565b60006106f26104e3565b156106ff575060026104f2565b5060015474010000000000000000000000000000000000000000900460ff166104f2565b5b90565b61072f610a1e565b60028054600181600116156101000203166002900480601f0160208091040260200160405190810160405280929190818152602001828054600181600116156101000203166002900480156107c55780601f1061079a576101008083540402835291602001916107c5565b820191906000526020600020905b8154815290600101906020018083116107a857829003601f168201915b505050505090505b90565b60008054600160a060020a03168063565a2e2c83604051602001526040518163ffffffff1660e060020a028152600401602060405180830381600087803b151561081957600080fd5b6102c65a03f1151561082a57600080fd5b50505060405180519250505b5090565b305b90565b60008054600160a060020a03168063b135648883604051602001526040518163ffffffff1660e060020a028152600401602060405180830381600087803b151561081957600080fd5b6102c65a03f1151561082a57600080fd5b50505060405180519250505b5090565b60006108b36107d0565b600160a060020a031633600160a060020a03161415156108d257600080fd5b6000547faaf064632bc55f6035508b0d1f414c2667ab939abf4a2fd354e94aaf9a5fc35590600160a060020a03163033878787604051600160a060020a0380881682528681166020830152851660408201526060810184905260c0608082018181529060a0830190830185818151815260200191508051906020019080838360005b8381101561096d5780820151818401525b602001610954565b50505050905090810190601f16801561099a5780820380516001836020036101000a031916815260200191505b50838103825284818151815260200191508051906020019080838360005b838110156109d15780820151818401525b6020016109b8565b50505050905090810190601f1680156109fe5780820380516001836020036101000a031916815260200191505b509850505050505050505060405180910390a1600080fd5b5b9392505050565b602060405190810160405260008152905600a165627a7a723058208d4d787fdfd415cca9971ca58ea36cd97d15e30964b8f57f9a5987ba0ed6c0210029b1a46393ed5af437d2873216183052bae16cf1b3fe55a659caebd503ecf6f919236b00348b5f63ad39b5bf19bc802c1ff4b767fb408aa44d42597a4729fa7376a165627a7a72305820af86c857a0403807250e532543d9bc1e002948bdbae7f8dc9315da02a40123cd0029a165627a7a7230582049ec0fac63d141f940ae5f0d1c84c9ca681a2344d1a7f230b20ba59d1d904e600029",
  "source": "pragma solidity ^0.4.13;\n\nimport \"./GuaranteeRequest.sol\";\nimport \"./GuaranteeConst.sol\";\nimport \"./IssuerManager.sol\";\nimport \"./BeneficiaryManager.sol\";\nimport \"./CustomerManager.sol\";\nimport \"./Ownable.sol\";\n//\n////###\n//// general contract for better operations of the system\n////###\n//contract owned {\n//    //owner address for ownership validation\n//    address owner;\n//\n//    //constractor to verify real owner assignment\n//    function owned() {\n//        owner = msg.sender;\n//        log(\"owner=\",owner);\n//    }\n//\n//    //owner check modifier\n//    modifier onlyOwner {\n//        require(msg.sender == owner);\n//        _;\n//    }\n//\n//    //contract distruction by owner only\n//    function close() onlyOwner {\n//        log(\"##contract closed by owner=\",owner);\n//        selfdestruct(owner);\n//    }\n//\n//    //constractor to verify real owner assignment\n//    function getOwner() constant returns (address){\n//        return owner ;\n//    }\n//    //log event for debug purposes\n//    event log(string loga, address logb);\n//}\n\n\ncontract Regulator is Ownable,GuaranteeConst,IssuerManager,BeneficiaryManager,CustomerManager{\n\n    //guarantee request states\n    address [] public  guaranteeRequests;\n    address [] public  guarantees;\n\n\n    event RegulatoryContractDeployed (address msgSender,string msgstr,uint timestamp);\n    function Regulator(){\n//        owner = msg.sender;\n//\n\n//        submitBeneficiary(msg.sender,\"  -\",\"  69  -\");\n//        submitCustomer(msg.sender,\" \",\" 11  \");\n//        submitIssuer(msg.sender,\" \",\" 11  \");\n        RegulatoryContractDeployed(msg.sender,\"Mined\",now);\n    }\n\n\n    function getRequestAddresses() public constant returns (address[])\n    {\n        return guaranteeRequests;\n\n    }\n\n    function getGuaranteeAddresses() public constant returns (address[])\n    {\n        return guarantees;\n\n    }\n\n\n\n\n//    function getRequestsAddressForCustomer() public constant returns (address[])\n//    {\n//        return customers[msg.sender].guaranteeRequests;\n//\n//    }\n//\n//    function getRequestsAddressForIssuer() public constant returns (address[])\n//    {\n//        return issuers[msg.sender].guaranteeRequests;\n//\n//    }\n//\n//  function getGuarantieAddressForBeneficiary() public constant returns (address[])\n//  {\n//    return issuers[msg.sender].guaranteeRequests;\n//\n//  }\n\n\n//    function getActiveGuaranteesAddress() constant returns (string[])\n//    {\n//        string[] memory _guarantees = new string();\n//\n//                for(uint32 i=0; i<guaranteeRequests.length; i++) {\n//                    if(GuaranteeRequestExtender(guaranteeRequests[i]).getRequestState()==RequestState.accepted)\n//                    _guarantees.push(guaranteeRequests[i]);\n//                }\n//                return _guarantees;\n//\n//    }\n\n\n    function createGuaranteeRequest(address _customer ,address _bank ,address _beneficiary ,bytes32 _purpose,\n    uint _amount, uint _startDate,uint _endDate,IndexType _indexType,uint _indexDate)  public returns (address)\n    {\n        GuaranteeRequest greq=new  GuaranteeRequest(this,_customer,_bank ,_beneficiary,_purpose,_amount,_startDate,_endDate,_indexType ,_indexDate);\n        guaranteeRequests.push(address(greq));\n\n        return address(greq);\n    }\n\n\n    function terminateGuarantee(address  _guaranteeRequest,string comment)  returns (bool)\n    {\n        GuaranteeRequestExtender ge=GuaranteeRequestExtender(_guaranteeRequest);\n        if ( msg.sender == ge.getBeneficiary() )\n        {\n            ge.termination(comment) ;\n            return true;\n        }\n\n\n        throw;\n\n\n    }\n\n    function accept(address  _guaranteeRequest,string comment,bytes _guaranteeIPFSHash)  public returns (bool result) //onlyBank\n    {\n        GuaranteeRequestExtender ge=GuaranteeRequestExtender(_guaranteeRequest);\n        if ( msg.sender == ge.getBank() )\n        {\n            ge.accept(comment,_guaranteeIPFSHash) ;\n            return true;\n        }\n\n\n        throw;\n    }\n\n    function changeGuarantee(address  _guaranteeRequest ,uint _newamount, uint _newendDate, string _comment)  returns (bool)  //onlyBeneficiary\n    {\n//        GuaranteeExtender ge=GuaranteeExtender(_guaranteeRequest);\n//        if (ge.getBeneficiary()==msg.sender)\n//        {\n//            ( address _contract_id,address _customer,address _bank, address _beneficiary,\n//            string _purpose,uint _amount,uint _startDate,uint _endDate,IndexType _indexType,\n//            uint _indexDate,RequestState _status) = ge.getGuaranteeRequestData();\n//            if (_status==RequestState.accepted && _amount>=_newamount && _newendDate<=_endDate)\n//            {\n//                address addr=new GuaranteeRequest(this,_customer,_bank ,_beneficiary,_purpose,_amount,_startDate,_endDate,_indexType ,_indexDate);\n//                ge.\n//                guaranteeRequests.push(addr);\n//                return addr;\n//            }\n//\n//        }\n//\n//\n//\n//    .endRequest(_comment)\n//        guaranteeRequests.push(addr);\n//        return addr;\n\n        return true;\n    }\n\n    //\n//    function submit(string comment) onlyCustomer public returns (bool result) ;\n//    function termination(string comment) onlyBeneficiary public returns (bool result);\n//    function reject(string comment) onlyBank public returns (bool result);\n//    function withdrawal(string comment) onlyCustomer public returns (bool result);\n//    function bankStateChange(string comment ,RequestState _newState) onlyBank public returns (bool result);\n\n\n\n\n}\n",
  "sourcePath": "/Users/dmitryshlymovich/workspace/ethereum-garanties/truffle_eth_bnhp/contracts/Regulator.sol",
  "schemaVersion": "1.0.0",
  "updatedAt": "2017-10-02T06:00:50.794Z"
}