{
  "contractName": "Regulator",
  "abi": [
    {
      "constant": true,
      "inputs": [
        {
          "name": "",
          "type": "address"
        }
      ],
      "name": "beneficiaries",
      "outputs": [
        {
          "name": "name",
          "type": "string"
        },
        {
          "name": "localAddress",
          "type": "string"
        }
      ],
      "payable": false,
      "type": "function"
    },
    {
      "constant": false,
      "inputs": [
        {
          "name": "_guarantee",
          "type": "address"
        },
        {
          "name": "_newamount",
          "type": "uint256"
        },
        {
          "name": "_newendDate",
          "type": "uint256"
        }
      ],
      "name": "changeGuarantee",
      "outputs": [
        {
          "name": "",
          "type": "bool"
        }
      ],
      "payable": false,
      "type": "function"
    },
    {
      "constant": false,
      "inputs": [
        {
          "name": "_guaranteeRequest",
          "type": "address"
        },
        {
          "name": "_guaranteeIPFSHash",
          "type": "bytes"
        }
      ],
      "name": "GuaranteeSignComplite",
      "outputs": [
        {
          "name": "",
          "type": "address"
        }
      ],
      "payable": false,
      "type": "function"
    },
    {
      "constant": true,
      "inputs": [
        {
          "name": "",
          "type": "address"
        }
      ],
      "name": "customers",
      "outputs": [
        {
          "name": "name",
          "type": "string"
        },
        {
          "name": "localAddress",
          "type": "string"
        }
      ],
      "payable": false,
      "type": "function"
    },
    {
      "constant": true,
      "inputs": [],
      "name": "getIssuerAddressesList",
      "outputs": [
        {
          "name": "",
          "type": "address[]"
        }
      ],
      "payable": false,
      "type": "function"
    },
    {
      "constant": true,
      "inputs": [
        {
          "name": "",
          "type": "address"
        }
      ],
      "name": "issuers",
      "outputs": [
        {
          "name": "name",
          "type": "string"
        },
        {
          "name": "localAddress",
          "type": "string"
        },
        {
          "name": "addr",
          "type": "address"
        }
      ],
      "payable": false,
      "type": "function"
    },
    {
      "constant": true,
      "inputs": [],
      "name": "getRequestAddressList",
      "outputs": [
        {
          "name": "",
          "type": "address[]"
        }
      ],
      "payable": false,
      "type": "function"
    },
    {
      "constant": false,
      "inputs": [],
      "name": "close",
      "outputs": [],
      "payable": false,
      "type": "function"
    },
    {
      "constant": false,
      "inputs": [
        {
          "name": "_addr",
          "type": "address"
        },
        {
          "name": "_name",
          "type": "string"
        },
        {
          "name": "_localAddres",
          "type": "string"
        }
      ],
      "name": "submitCustomer",
      "outputs": [],
      "payable": false,
      "type": "function"
    },
    {
      "constant": true,
      "inputs": [
        {
          "name": "_addr",
          "type": "address"
        }
      ],
      "name": "getBeneficiary",
      "outputs": [
        {
          "name": "_name",
          "type": "string"
        },
        {
          "name": "_localAddress",
          "type": "string"
        }
      ],
      "payable": false,
      "type": "function"
    },
    {
      "constant": true,
      "inputs": [],
      "name": "getIssuerCounter",
      "outputs": [
        {
          "name": "",
          "type": "uint256"
        }
      ],
      "payable": false,
      "type": "function"
    },
    {
      "constant": false,
      "inputs": [
        {
          "name": "_guaranteeRequest",
          "type": "address"
        }
      ],
      "name": "addGuaranteeRequest",
      "outputs": [],
      "payable": false,
      "type": "function"
    },
    {
      "constant": true,
      "inputs": [],
      "name": "getBeneficiaryAddresses",
      "outputs": [
        {
          "name": "",
          "type": "address[]"
        }
      ],
      "payable": false,
      "type": "function"
    },
    {
      "constant": false,
      "inputs": [
        {
          "name": "_addr",
          "type": "address"
        },
        {
          "name": "_name",
          "type": "string"
        },
        {
          "name": "_localAddres",
          "type": "string"
        }
      ],
      "name": "submitBeneficiary",
      "outputs": [],
      "payable": false,
      "type": "function"
    },
    {
      "constant": true,
      "inputs": [],
      "name": "getOwner",
      "outputs": [
        {
          "name": "",
          "type": "address"
        }
      ],
      "payable": false,
      "type": "function"
    },
    {
      "constant": true,
      "inputs": [],
      "name": "owner",
      "outputs": [
        {
          "name": "",
          "type": "address"
        }
      ],
      "payable": false,
      "type": "function"
    },
    {
      "constant": true,
      "inputs": [
        {
          "name": "",
          "type": "uint256"
        }
      ],
      "name": "guaranteeRequests",
      "outputs": [
        {
          "name": "",
          "type": "address"
        }
      ],
      "payable": false,
      "type": "function"
    },
    {
      "constant": false,
      "inputs": [
        {
          "name": "_newOwner",
          "type": "address"
        }
      ],
      "name": "changeOwner",
      "outputs": [],
      "payable": false,
      "type": "function"
    },
    {
      "constant": true,
      "inputs": [
        {
          "name": "_id",
          "type": "uint256"
        }
      ],
      "name": "getBeneficiaryById",
      "outputs": [
        {
          "name": "_name",
          "type": "string"
        },
        {
          "name": "_localAddress",
          "type": "string"
        }
      ],
      "payable": false,
      "type": "function"
    },
    {
      "constant": false,
      "inputs": [
        {
          "name": "_guaranteeRequest",
          "type": "address"
        }
      ],
      "name": "acceptGuaranteeRequest",
      "outputs": [],
      "payable": false,
      "type": "function"
    },
    {
      "constant": true,
      "inputs": [
        {
          "name": "_id",
          "type": "uint256"
        }
      ],
      "name": "getIssuerById",
      "outputs": [
        {
          "name": "",
          "type": "string"
        },
        {
          "name": "",
          "type": "string"
        },
        {
          "name": "",
          "type": "address"
        }
      ],
      "payable": false,
      "type": "function"
    },
    {
      "constant": true,
      "inputs": [],
      "name": "getGuaranteeAddressesList",
      "outputs": [
        {
          "name": "",
          "type": "address[]"
        }
      ],
      "payable": false,
      "type": "function"
    },
    {
      "constant": true,
      "inputs": [
        {
          "name": "_addr",
          "type": "address"
        }
      ],
      "name": "getCustomer",
      "outputs": [
        {
          "name": "_name",
          "type": "string"
        },
        {
          "name": "_localAddress",
          "type": "string"
        }
      ],
      "payable": false,
      "type": "function"
    },
    {
      "constant": false,
      "inputs": [
        {
          "name": "_addr",
          "type": "address"
        },
        {
          "name": "_name",
          "type": "string"
        },
        {
          "name": "_localAddres",
          "type": "string"
        }
      ],
      "name": "submitIssuer",
      "outputs": [],
      "payable": false,
      "type": "function"
    },
    {
      "constant": true,
      "inputs": [
        {
          "name": "",
          "type": "uint256"
        }
      ],
      "name": "guarantees",
      "outputs": [
        {
          "name": "",
          "type": "address"
        }
      ],
      "payable": false,
      "type": "function"
    },
    {
      "constant": false,
      "inputs": [
        {
          "name": "_guarantee",
          "type": "address"
        }
      ],
      "name": "terminateGuarantee",
      "outputs": [],
      "payable": false,
      "type": "function"
    },
    {
      "constant": true,
      "inputs": [
        {
          "name": "_addr",
          "type": "address"
        }
      ],
      "name": "getIssuer",
      "outputs": [
        {
          "name": "",
          "type": "string"
        },
        {
          "name": "",
          "type": "string"
        }
      ],
      "payable": false,
      "type": "function"
    },
    {
      "inputs": [],
      "payable": false,
      "type": "constructor"
    },
    {
      "anonymous": false,
      "inputs": [
        {
          "indexed": false,
          "name": "msgSender",
          "type": "address"
        },
        {
          "indexed": false,
          "name": "msgstr",
          "type": "string"
        },
        {
          "indexed": false,
          "name": "timestamp",
          "type": "uint256"
        }
      ],
      "name": "RegulatoryContractDeployed",
      "type": "event"
    },
    {
      "anonymous": false,
      "inputs": [
        {
          "indexed": false,
          "name": "length",
          "type": "uint256"
        }
      ],
      "name": "AAA",
      "type": "event"
    },
    {
      "anonymous": false,
      "inputs": [
        {
          "indexed": false,
          "name": "_guaranteeRequest",
          "type": "address"
        }
      ],
      "name": "GuaranteeSign",
      "type": "event"
    },
    {
      "anonymous": false,
      "inputs": [
        {
          "indexed": false,
          "name": "msgSender",
          "type": "address"
        },
        {
          "indexed": false,
          "name": "msgstr",
          "type": "string"
        },
        {
          "indexed": false,
          "name": "timestamp",
          "type": "uint256"
        }
      ],
      "name": "AddCustomer",
      "type": "event"
    },
    {
      "anonymous": false,
      "inputs": [
        {
          "indexed": false,
          "name": "msgSender",
          "type": "address"
        },
        {
          "indexed": false,
          "name": "_name",
          "type": "string"
        },
        {
          "indexed": false,
          "name": "timestamp",
          "type": "uint256"
        }
      ],
      "name": "AddBeneficiary",
      "type": "event"
    },
    {
      "anonymous": false,
      "inputs": [
        {
          "indexed": false,
          "name": "msgSender",
          "type": "address"
        },
        {
          "indexed": false,
          "name": "issuerAdr",
          "type": "address"
        },
        {
          "indexed": false,
          "name": "msgstr",
          "type": "string"
        },
        {
          "indexed": false,
          "name": "timestamp",
          "type": "uint256"
        }
      ],
      "name": "AddIssuer",
      "type": "event"
    }
  ],
  "bytecode": "0x606060405260008054600160a060020a03191633600160a060020a031617905534156200002b57600080fd5b5b620000fe33606060405190810160405280602181526020017fd7a2d799d7a8d799d799d7aa20d7aad79c20d790d791d799d7912dd799d7a4d781526020017f950000000000000000000000000000000000000000000000000000000000000081525060606040519081016040908152602b82527fd790d791d79f20d792d791d799d7a8d795d79c20363920d7aad79c20d790d79160208301527fd799d7912dd799d7a4d7950000000000000000000000000000000000000000009082015264010000000062001989620002ae82021704565b620001a9336040805190810160405280601781526020017fd799d7a9d7a8d790d79c20d799d7a9d7a8d790d79cd79900000000000000000081525060606040519081016040908152602182527fd794d7a8d7a6d79c20313120d7a8d790d7a9d795d79f20d79cd7a6d799d795d760208301527f9f0000000000000000000000000000000000000000000000000000000000000090820152640100000000620014e86200041082021704565b6200022a33604080519081016040908152601582527fd791d7a0d7a720d794d7a4d795d7a2d79cd799d79d000000000000000000000060208301528051908101604052601981527fd794d7a0d792d79120313120d7aad79c20d790d791d799d7910000000000000060208201526401000000006200230a6200053182021704565b7f6c5cfd2de0086551b837a725d5f6a57e13b35c87eb326858461381e854a3a5a13342604051600160a060020a0390921682526040808301919091526060602083018190526005908301527f4d696e6564000000000000000000000000000000000000000000000000000000608083015260a0909101905180910390a15b62000790565b6000805433600160a060020a03908116911614620002cb57600080fd5b50600160a060020a038316600090815260036020526040902080838051620002f8929160200190620006b9565b506001810182805162000310929160200190620006b9565b5060048054600181016200032583826200073f565b916000526020600020900160005b8154600160a060020a038089166101009390930a92830292021916179055507f783e5f858212246618c02751dfbc4e502a48ca372a20f94a46d8e99fe70c998c848442604051600160a060020a03841681526040810182905260606020820181815290820184818151815260200191508051906020019080838360005b83811015620003cb5780820151818401525b602001620003b0565b50505050905090810190601f168015620003f95780820380516001836020036101000a031916815260200191505b5094505050505060405180910390a15b5b50505050565b6000805433600160a060020a039081169116146200042d57600080fd5b50600160a060020a0383166000908152600560205260409020808380516200045a929160200190620006b9565b506001810182805162000472929160200190620006b9565b507f3cdf985955e499413107b03adc7c7db5433c87ba6fa7a1beec377bb814138b9f338442604051600160a060020a03841681526040810182905260606020820181815290820184818151815260200191508051906020019080838360005b83811015620003cb5780820151818401525b602001620003b0565b50505050905090810190601f168015620003f95780820380516001836020036101000a031916815260200191505b5094505050505060405180910390a15b5b50505050565b6000805433600160a060020a039081169116146200054e57600080fd5b50600160a060020a0383166000908152600160205260409020808380516200057b929160200190620006b9565b506001810182805162000593929160200190620006b9565b5060028181018054600160a060020a031916600160a060020a038716179055805460018101620005c483826200073f565b916000526020600020900160005b8154600160a060020a038089166101009390930a92830292021916179055507fb3bb6454838f769878c9da3dacefc82660ff82c898c373385ad5e32c9aa4767433858542604051600160a060020a038086168252841660208201526060810182905260806040820181815290820184818151815260200191508051906020019080838360005b83811015620006735780820151818401525b60200162000658565b50505050905090810190601f168015620006a15780820380516001836020036101000a031916815260200191505b509550505050505060405180910390a15b5b50505050565b828054600181600116156101000203166002900490600052602060002090601f016020900481019282601f10620006fc57805160ff19168380011785556200072c565b828001600101855582156200072c579182015b828111156200072c5782518255916020019190600101906200070f565b5b506200073b9291506200076c565b5090565b8154818355818115116200076657600083815260209020620007669181019083016200076c565b5b505050565b6200078d91905b808211156200073b576000815560010162000773565b5090565b90565b612a4880620007a06000396000f300606060405236156101435763ffffffff60e060020a6000350416630156773981146101485780631116a1821461026a57806323e2e3f9146102a3578063336989ae1461031e578063379f44841461044057806338a7543e146104a75780633dce5fdb146105d957806343d726d6146106405780634d93c0c314610655578063505a1b31146106f857806356d58ef5146107fa578063666d50701461081f5780637cb306701461084057806383a2d050146108a7578063893d20e81461094a5780638da5cb5b146109795780639c5a88d4146109a8578063a6f9dae1146109da578063aa0a57ab146109fb578063b0f6c74a14610af4578063b643e58714610b15578063c1e9278614610c1e578063cb949e5114610c85578063dc19858714610d87578063df754f1114610e2a578063f813bf8c14610e5c578063fef03da314610e7d575b600080fd5b341561015357600080fd5b610167600160a060020a0360043516610f7f565b6040516040808252835460026000196101006001841615020190911604908201819052819060208201906060830190869080156101e55780601f106101ba576101008083540402835291602001916101e5565b820191906000526020600020905b8154815290600101906020018083116101c857829003601f168201915b50508381038252845460026000196101006001841615020190911604808252602090910190859080156102595780601f1061022e57610100808354040283529160200191610259565b820191906000526020600020905b81548152906001019060200180831161023c57829003601f168201915b505094505050505060405180910390f35b341561027557600080fd5b61028f600160a060020a0360043516602435604435610f94565b604051901515815260200160405180910390f35b34156102ae57600080fd5b61030260048035600160a060020a03169060446024803590810190830135806020601f8201819004810201604051908101604052818152929190602084018383808284375094965061118495505050505050565b604051600160a060020a03909116815260200160405180910390f35b341561032957600080fd5b610167600160a060020a03600435166113ae565b6040516040808252835460026000196101006001841615020190911604908201819052819060208201906060830190869080156101e55780601f106101ba576101008083540402835291602001916101e5565b820191906000526020600020905b8154815290600101906020018083116101c857829003601f168201915b50508381038252845460026000196101006001841615020190911604808252602090910190859080156102595780601f1061022e57610100808354040283529160200191610259565b820191906000526020600020905b81548152906001019060200180831161023c57829003601f168201915b505094505050505060405180910390f35b341561044b57600080fd5b6104536113c3565b60405160208082528190810183818151815260200191508051906020019060200280838360005b838110156104935780820151818401525b60200161047a565b505050509050019250505060405180910390f35b34156104b257600080fd5b6104c6600160a060020a036004351661142c565b604051600160a060020a03821660408201526060808252845460026000196101006001841615020190911604908201819052819060208201906080830190879080156105535780601f1061052857610100808354040283529160200191610553565b820191906000526020600020905b81548152906001019060200180831161053657829003601f168201915b50508381038252855460026000196101006001841615020190911604808252602090910190869080156105c75780601f1061059c576101008083540402835291602001916105c7565b820191906000526020600020905b8154815290600101906020018083116105aa57829003601f168201915b50509550505050505060405180910390f35b34156105e457600080fd5b610453611453565b60405160208082528190810183818151815260200191508051906020019060200280838360005b838110156104935780820151818401525b60200161047a565b505050509050019250505060405180910390f35b341561064b57600080fd5b6106536114bc565b005b341561066057600080fd5b61065360048035600160a060020a03169060446024803590810190830135806020601f8201819004810201604051908101604052818152929190602084018383808284378201915050505050509190803590602001908201803590602001908080601f0160208091040260200160405190810160405281815292919060208401838380828437509496506114e895505050505050565b005b341561070357600080fd5b610717600160a060020a0360043516611601565b604051808060200180602001838103835285818151815260200191508051906020019080838360005b838110156107595780820151818401525b602001610740565b50505050905090810190601f1680156107865780820380516001836020036101000a031916815260200191505b50838103825284818151815260200191508051906020019080838360005b838110156107bd5780820151818401525b6020016107a4565b50505050905090810190601f1680156107ea5780820380516001836020036101000a031916815260200191505b5094505050505060405180910390f35b341561080557600080fd5b61080d611798565b60405190815260200160405180910390f35b341561082a57600080fd5b610653600160a060020a036004351661179f565b005b341561084b57600080fd5b610453611920565b60405160208082528190810183818151815260200191508051906020019060200280838360005b838110156104935780820151818401525b60200161047a565b505050509050019250505060405180910390f35b34156108b257600080fd5b61065360048035600160a060020a03169060446024803590810190830135806020601f8201819004810201604051908101604052818152929190602084018383808284378201915050505050509190803590602001908201803590602001908080601f01602080910402602001604051908101604052818152929190602084018383808284375094965061198995505050505050565b005b341561095557600080fd5b610302611ae1565b604051600160a060020a03909116815260200160405180910390f35b341561098457600080fd5b610302611af1565b604051600160a060020a03909116815260200160405180910390f35b34156109b357600080fd5b610302600435611b00565b604051600160a060020a03909116815260200160405180910390f35b34156109e557600080fd5b610653600160a060020a0360043516611b32565b005b3415610a0657600080fd5b610717600435611b8f565b604051808060200180602001838103835285818151815260200191508051906020019080838360005b838110156107595780820151818401525b602001610740565b50505050905090810190601f1680156107865780820380516001836020036101000a031916815260200191505b50838103825284818151815260200191508051906020019080838360005b838110156107bd5780820151818401525b6020016107a4565b50505050905090810190601f1680156107ea5780820380516001836020036101000a031916815260200191505b5094505050505060405180910390f35b3415610aff57600080fd5b610653600160a060020a0360043516611d70565b005b3415610b2057600080fd5b610b2b600435611f0c565b604051600160a060020a0382166040820152606080825281906020820190820186818151815260200191508051906020019080838360005b83811015610b7c5780820151818401525b602001610b63565b50505050905090810190601f168015610ba95780820380516001836020036101000a031916815260200191505b50838103825285818151815260200191508051906020019080838360005b83811015610be05780820151818401525b602001610bc7565b50505050905090810190601f168015610c0d5780820380516001836020036101000a031916815260200191505b509550505050505060405180910390f35b3415610c2957600080fd5b61045361210a565b60405160208082528190810183818151815260200191508051906020019060200280838360005b838110156104935780820151818401525b60200161047a565b505050509050019250505060405180910390f35b3415610c9057600080fd5b610717600160a060020a0360043516612173565b604051808060200180602001838103835285818151815260200191508051906020019080838360005b838110156107595780820151818401525b602001610740565b50505050905090810190601f1680156107865780820380516001836020036101000a031916815260200191505b50838103825284818151815260200191508051906020019080838360005b838110156107bd5780820151818401525b6020016107a4565b50505050905090810190601f1680156107ea5780820380516001836020036101000a031916815260200191505b5094505050505060405180910390f35b3415610d9257600080fd5b61065360048035600160a060020a03169060446024803590810190830135806020601f8201819004810201604051908101604052818152929190602084018383808284378201915050505050509190803590602001908201803590602001908080601f01602080910402602001604051908101604052818152929190602084018383808284375094965061230a95505050505050565b005b3415610e3557600080fd5b610302600435612495565b604051600160a060020a03909116815260200160405180910390f35b3415610e6757600080fd5b610653600160a060020a03600435166124c7565b005b3415610e8857600080fd5b610717600160a060020a03600435166126dc565b604051808060200180602001838103835285818151815260200191508051906020019080838360005b838110156107595780820151818401525b602001610740565b50505050905090810190601f1680156107865780820380516001836020036101000a031916815260200191505b50838103825284818151815260200191508051906020019080838360005b838110156107bd5780820151818401525b6020016107a4565b50505050905090810190601f1680156107ea5780820380516001836020036101000a031916815260200191505b5094505050505060405180910390f35b60036020526000908152604090206001810182565b60008381600160a060020a0382166388a22f7a82604051602001526040518163ffffffff1660e060020a028152600401602060405180830381600087803b1515610fdd57600080fd5b6102c65a03f11515610fee57600080fd5b50505060405180519150600690505b81600160a060020a031663a39152f26000604051602001526040518163ffffffff1660e060020a028152600401602060405180830381600087803b151561104357600080fd5b6102c65a03f1151561105457600080fd5b50505060405180519050600981111561106957fe5b1480156110e7575080600160a060020a031663565a2e2c6000604051602001526040518163ffffffff1660e060020a028152600401602060405180830381600087803b15156110b757600080fd5b6102c65a03f115156110c857600080fd5b50505060405180519050600160a060020a031633600160a060020a0316145b80156110fb5750600160a060020a03861615155b151561110657600080fd5b80600160a060020a0316632beba68b868660006040516020015260405160e060020a63ffffffff851602815260048101929092526024820152604401602060405180830381600087803b151561115b57600080fd5b6102c65a03f1151561116c57600080fd5b50505060405180515060019350505b50509392505050565b6000828160065b82600160a060020a031663a39152f26000604051602001526040518163ffffffff1660e060020a028152600401602060405180830381600087803b15156111d157600080fd5b6102c65a03f115156111e257600080fd5b5050506040518051905060098111156111f757fe5b148015611208575061120884612888565b5b8015611286575081600160a060020a03166360d704db6000604051602001526040518163ffffffff1660e060020a028152600401602060405180830381600087803b151561125657600080fd5b6102c65a03f1151561126757600080fd5b50505060405180519050600160a060020a031633600160a060020a0316145b151561129157600080fd5b81600160a060020a0316632259515b856000604051602001526040518263ffffffff1660e060020a0281526004018080602001828103825283818151815260200191508051906020019080838360005b838110156112fa5780820151818401525b6020016112e1565b50505050905090810190601f1680156113275780820380516001836020036101000a031916815260200191505b5092505050602060405180830381600087803b151561134557600080fd5b6102c65a03f1151561135657600080fd5b50505060405180516007805491935091506001810161137583826128a4565b916000526020600020900160005b8154600160a060020a038086166101009390930a92830292021916179055509150815b505092915050565b60056020526000908152604090206001810182565b6113cb6128ce565b600280548060200260200160405190810160405280929190818152602001828054801561142157602002820191906000526020600020905b8154600160a060020a03168152600190910190602001808311611403575b505050505090505b90565b600160208190526000918252604090912060028101549091820190600160a060020a031683565b61145b6128ce565b600680548060200260200160405190810160405280929190818152602001828054801561142157602002820191906000526020600020905b8154600160a060020a03168152600190910190602001808311611403575b505050505090505b90565b60005433600160a060020a039081169116146114d757600080fd5b600054600160a060020a0316ff5b5b565b6000805433600160a060020a0390811691161461150457600080fd5b50600160a060020a03831660009081526005602052604090208083805161152f9291602001906128e0565b50600181018280516115459291602001906128e0565b507f3cdf985955e499413107b03adc7c7db5433c87ba6fa7a1beec377bb814138b9f338442604051600160a060020a03841681526040810182905260606020820181815290820184818151815260200191508051906020019080838360005b838110156115bd5780820151818401525b6020016115a4565b50505050905090810190601f1680156115ea5780820380516001836020036101000a031916815260200191505b5094505050505060405180910390a15b5b50505050565b6116096128ce565b6116116128ce565b611619612971565b600160a060020a038416600090815260036020526040908190209080519081016040529081600082018054600181600116156101000203166002900480601f0160208091040260200160405190810160405280929190818152602001828054600181600116156101000203166002900480156116d65780601f106116ab576101008083540402835291602001916116d6565b820191906000526020600020905b8154815290600101906020018083116116b957829003601f168201915b50505050508152602001600182018054600181600116156101000203166002900480601f0160208091040260200160405190810160405280929190818152602001828054600181600116156101000203166002900480156117785780601f1061174d57610100808354040283529160200191611778565b820191906000526020600020905b81548152906001019060200180831161175b57829003601f168201915b505050505081525050905080600001519250806020015191505b50915091565b6002545b90565b80600160a060020a03811663650d993b6000604051602001526040518163ffffffff1660e060020a028152600401602060405180830381600087803b15156117e657600080fd5b6102c65a03f115156117f757600080fd5b50505060405180519050600160a060020a031633600160a060020a031614801561187e575080600160a060020a031663bb5d40eb6000604051602001526040518163ffffffff1660e060020a028152600401602060405180830381600087803b151561186257600080fd5b6102c65a03f1151561187357600080fd5b505050604051805190505b151561188957600080fd5b80600160a060020a0316634a0b20aa6040518163ffffffff1660e060020a028152600401600060405180830381600087803b15156118c657600080fd5b6102c65a03f115156118d757600080fd5b505050600680548060010182816118ee91906128a4565b916000526020600020900160005b8154600160a060020a038087166101009390930a92830292021916179055505b5050565b6119286128ce565b600480548060200260200160405190810160405280929190818152602001828054801561142157602002820191906000526020600020905b8154600160a060020a03168152600190910190602001808311611403575b505050505090505b90565b6000805433600160a060020a039081169116146119a557600080fd5b50600160a060020a0383166000908152600360205260409020808380516119d09291602001906128e0565b50600181018280516119e69291602001906128e0565b5060048054600181016119f983826128a4565b916000526020600020900160005b8154600160a060020a038089166101009390930a92830292021916179055507f783e5f858212246618c02751dfbc4e502a48ca372a20f94a46d8e99fe70c998c848442604051600160a060020a03841681526040810182905260606020820181815290820184818151815260200191508051906020019080838360005b838110156115bd5780820151818401525b6020016115a4565b50505050905090810190601f1680156115ea5780820380516001836020036101000a031916815260200191505b5094505050505060405180910390a15b5b50505050565b600054600160a060020a03165b90565b600054600160a060020a031681565b6006805482908110611b0e57fe5b906000526020600020900160005b915054906101000a9004600160a060020a031681565b60005433600160a060020a03908116911614611b4d57600080fd5b600160a060020a0381161515611b6257600080fd5b6000805473ffffffffffffffffffffffffffffffffffffffff1916600160a060020a0383161790555b5b50565b611b976128ce565b611b9f6128ce565b611ba7612971565b600454841115611bb657600080fd5b60036000600486815481101515611bc957fe5b906000526020600020900160005b9054906101000a9004600160a060020a0316600160a060020a0316600160a060020a03168152602001908152602001600020604080519081016040529081600082018054600181600116156101000203166002900480601f016020809104026020016040519081016040528092919081815260200182805460018160011615610100020316600290048015611cad5780601f10611c8257610100808354040283529160200191611cad565b820191906000526020600020905b815481529060010190602001808311611c9057829003601f168201915b50505050508152602001600182018054600181600116156101000203166002900480601f016020809104026020016040519081016040528092919081815260200182805460018160011615610100020316600290048015611d4f5780601f10611d2457610100808354040283529160200191611d4f565b820191906000526020600020905b815481529060010190602001808311611d3257829003601f168201915b50505050508152505090508060000151816020015190935091505b50915091565b80600160a060020a0381166360d704db6000604051602001526040518163ffffffff1660e060020a028152600401602060405180830381600087803b1515611db757600080fd5b6102c65a03f11515611dc857600080fd5b50505060405180519050600160a060020a031633600160a060020a0316148015611e4f575080600160a060020a031663bb5d40eb6000604051602001526040518163ffffffff1660e060020a028152600401602060405180830381600087803b1515611e3357600080fd5b6102c65a03f11515611e4457600080fd5b505050604051805190505b1515611e5a57600080fd5b80600160a060020a0316632852b71c6000604051602001526040518163ffffffff1660e060020a028152600401602060405180830381600087803b1515611ea057600080fd5b6102c65a03f11515611eb157600080fd5b5050506040518051905015610143577f1457a9baaa8780bd74ceb2f0317119ca2bd8fc94db0895f9d641400b8571459082604051600160a060020a03909116815260200160405180910390a161191c565b600080fd5b5b5050565b611f146128ce565b611f1c6128ce565b6000611f26612996565b6002548510611f3457600080fd5b60016000600287815481101515611f4757fe5b906000526020600020900160005b9054906101000a9004600160a060020a0316600160a060020a0316600160a060020a0316815260200190815260200160002060606040519081016040529081600082018054600181600116156101000203166002900480601f01602080910402602001604051908101604052809291908181526020018280546001816001161561010002031660029004801561202c5780601f106120015761010080835404028352916020019161202c565b820191906000526020600020905b81548152906001019060200180831161200f57829003601f168201915b50505050508152602001600182018054600181600116156101000203166002900480601f0160208091040260200160405190810160405280929190818152602001828054600181600116156101000203166002900480156120ce5780601f106120a3576101008083540402835291602001916120ce565b820191906000526020600020905b8154815290600101906020018083116120b157829003601f168201915b505050918352505060029190910154600160a060020a03166020909101529050805181602001518260400151919550935091505b509193909250565b6121126128ce565b600780548060200260200160405190810160405280929190818152602001828054801561142157602002820191906000526020600020905b8154600160a060020a03168152600190910190602001808311611403575b505050505090505b90565b61217b6128ce565b6121836128ce565b61218b612971565b600160a060020a038416600090815260056020526040908190209080519081016040529081600082018054600181600116156101000203166002900480601f0160208091040260200160405190810160405280929190818152602001828054600181600116156101000203166002900480156116d65780601f106116ab576101008083540402835291602001916116d6565b820191906000526020600020905b8154815290600101906020018083116116b957829003601f168201915b50505050508152602001600182018054600181600116156101000203166002900480601f0160208091040260200160405190810160405280929190818152602001828054600181600116156101000203166002900480156117785780601f1061174d57610100808354040283529160200191611778565b820191906000526020600020905b81548152906001019060200180831161175b57829003601f168201915b505050505081525050905080600001519250806020015191505b50915091565b6000805433600160a060020a0390811691161461232657600080fd5b50600160a060020a0383166000908152600160205260409020808380516123519291602001906128e0565b50600181018280516123679291602001906128e0565b506002818101805473ffffffffffffffffffffffffffffffffffffffff1916600160a060020a0387161790558054600181016123a383826128a4565b916000526020600020900160005b8154600160a060020a038089166101009390930a92830292021916179055507fb3bb6454838f769878c9da3dacefc82660ff82c898c373385ad5e32c9aa4767433858542604051600160a060020a038086168252841660208201526060810182905260806040820181815290820184818151815260200191508051906020019080838360005b838110156124505780820151818401525b602001612437565b50505050905090810190601f16801561247d5780820380516001836020036101000a031916815260200191505b509550505050505060405180910390a15b5b50505050565b6007805482908110611b0e57fe5b906000526020600020900160005b915054906101000a9004600160a060020a031681565b806000600160a060020a0382166388a22f7a82604051602001526040518163ffffffff1660e060020a028152600401602060405180830381600087803b151561250f57600080fd5b6102c65a03f1151561252057600080fd5b5050506040518051915050600160a060020a038316158015906125ac57506000600160a060020a038216633f40d18f82604051602001526040518163ffffffff1660e060020a028152600401602060405180830381600087803b151561258557600080fd5b6102c65a03f1151561259657600080fd5b50505060405180519050600160a060020a031614155b8015612629575080600160a060020a031663565a2e2c6000604051602001526040518163ffffffff1660e060020a028152600401602060405180830381600087803b15156125f957600080fd5b6102c65a03f1151561260a57600080fd5b50505060405180519050600160a060020a031633600160a060020a0316145b151561263457600080fd5b81600160a060020a031663c700c70d6040518163ffffffff1660e060020a028152600401600060405180830381600087803b151561267157600080fd5b6102c65a03f1151561268257600080fd5b50505080600160a060020a031663c700c70d6040518163ffffffff1660e060020a028152600401600060405180830381600087803b15156126c257600080fd5b6102c65a03f115156126d357600080fd5b5050505b505050565b6126e46128ce565b6126ec6128ce565b6126f4612996565b600160a060020a0384166000908152600160205260409081902090606090519081016040529081600082018054600181600116156101000203166002900480601f0160208091040260200160405190810160405280929190818152602001828054600181600116156101000203166002900480156127b35780601f10612788576101008083540402835291602001916127b3565b820191906000526020600020905b81548152906001019060200180831161279657829003601f168201915b50505050508152602001600182018054600181600116156101000203166002900480601f0160208091040260200160405190810160405280929190818152602001828054600181600116156101000203166002900480156128555780601f1061282a57610100808354040283529160200191612855565b820191906000526020600020905b81548152906001019060200180831161283857829003601f168201915b505050918352505060029190910154600160a060020a031660209091015290508051816020015190935091505b50915091565b6000808251111561289b5750600161289f565b5060005b919050565b8154818355818115116126d7576000838152602090206126d79181019083016129e9565b5b505050565b60206040519081016040526000815290565b828054600181600116156101000203166002900490600052602060002090601f016020900481019282601f1061292157805160ff191683800117855561294e565b8280016001018555821561294e579182015b8281111561294e578251825591602001919060010190612933565b5b5061295b9291506129e9565b5090565b60206040519081016040526000815290565b60408051908101604052806129846128ce565b81526020016129916128ce565b905290565b6060604051908101604052806129aa6128ce565b81526020016129b76128ce565b8152600060209091015290565b60408051908101604052806129846128ce565b81526020016129916128ce565b905290565b61142991905b8082111561295b57600081556001016129ef565b5090565b90565b602060405190810160405260008152905600a165627a7a723058207cba1a46ca9f8fbef90a45094ba74c288a48dab09b489a8f75f86a26d018a40b0029",
  "source": "pragma solidity ^0.4.13;\n\nimport \"./Ownable.sol\";\nimport \"./GuaranteeConst.sol\";\nimport \"./IssuerManager.sol\";\nimport \"./BeneficiaryManager.sol\";\nimport \"./CustomerManager.sol\";\nimport \"./GuaranteeRequest.sol\";\n\n//\n////###\n//// general contract for better operations of the system\n////###\n//contract owned {\n//    //owner address for ownership validation\n//    address owner;\n//\n//    //constractor to verify real owner assignment\n//    function owned() {\n//        owner = msg.sender;\n//        log(\"owner=\",owner);\n//    }\n//\n//    //owner check modifier\n//    modifier onlyOwner {\n//        require(msg.sender == owner);\n//        _;\n//    }\n//\n//    //contract distruction by owner only\n//    function close() onlyOwner {\n//        log(\"##contract closed by owner=\",owner);\n//        selfdestruct(owner);\n//    }\n//\n//    //constractor to verify real owner assignment\n//    function getOwner() constant returns (address){\n//        return owner ;\n//    }\n//    //log event for debug purposes\n//    event log(string loga, address logb);\n//}\n\n\ncontract Regulator is Ownable,IssuerManager,BeneficiaryManager,CustomerManager,GuaranteeConst{\n\n    //guarantee request states\n    address [] public  guaranteeRequests;\n    address [] public  guarantees;\n\n\n\n\n    event RegulatoryContractDeployed (address msgSender,string msgstr,uint timestamp);\n    function Regulator(){\n//        owner = msg.sender;\n\n\n\n        submitBeneficiary(msg.sender,\"  -\",\"  69  -\");\n        submitCustomer(msg.sender,\" \",\" 11  \");\n        submitIssuer(msg.sender,\" \",\" 11  \");\n        RegulatoryContractDeployed(msg.sender,\"Mined\",now);\n    }\n\n\n    function getRequestAddressList() public constant returns (address[] )\n\n    {\n//         AAA(guaranteeRequests.length);\n        return guaranteeRequests;\n\n\n    }\n\n    function getGuaranteeAddressesList() public constant returns (address[] )\n    {\n\n        return guarantees;\n\n    }\n\n\n\n\n\n    event AAA(uint length);\n\n    function addGuaranteeRequest(address  _guaranteeRequest)  public\n    {\n\n        GuaranteeRequestExtender ge=GuaranteeRequestExtender(_guaranteeRequest);\n        require(msg.sender == ge.getCustomer() && ge.isValid());\n        ge.setRegulator();\n        guaranteeRequests.push(_guaranteeRequest);\n//        AAA(1);\n\n    }\n\n    event GuaranteeSign(address  _guaranteeRequest);\n    function acceptGuaranteeRequest(address  _guaranteeRequest)  public\n    {\n        GuaranteeRequestExtender ge=GuaranteeRequestExtender(_guaranteeRequest);\n        require(msg.sender == ge.getBank() && ge.isValid());\n\n\n\n        if (ge.accept()) {\n            GuaranteeSign(_guaranteeRequest);\n        }\n        else\n            throw;\n    }\n\n    function GuaranteeSignComplite(address  _guaranteeRequest,bytes _guaranteeIPFSHash)  public  returns (address)\n    {\n        GuaranteeRequestExtender ge=GuaranteeRequestExtender(_guaranteeRequest);\n        require( ge.getRequestState()==RequestState.accepted && _checkArray(_guaranteeIPFSHash) && msg.sender == ge.getBank());\n\n\n        address gra=ge.signComplite(_guaranteeIPFSHash);\n        guarantees.push(gra);\n\n        return gra;\n\n    }\n\n\n\n\n\n    function terminateGuarantee(address  _guarantee)  public\n    {\n\n\n\n        GuaranteeExtender ge= GuaranteeExtender(_guarantee);\n        GuaranteeRequestExtender ger=GuaranteeRequestExtender(ge.getGuaranteeRequest());\n        require( _guarantee!= address(0) && ger.getGuaranteeAddress()!= address(0) && msg.sender == ger.getBeneficiary() );\n\n        ge.terminateGuarantee() ;\n        ger.terminateGuarantee();\n\n\n    }\n\n\n\n\n\n\n\n    function changeGuarantee(address  _guarantee ,uint _newamount, uint _newendDate)  returns (bool)  //onlyBeneficiary\n    {\n        GuaranteeExtender ge= GuaranteeExtender(_guarantee);\n        GuaranteeRequestExtender ger=GuaranteeRequestExtender(ge.getGuaranteeRequest());\n        require( ger.getRequestState()==RequestState.accepted && msg.sender == ger.getBeneficiary() && _guarantee!= address(0));\n\n        ger.changeRequested( _newamount,  _newendDate);\n        return true;\n    }\n\n\n\n\n}\n",
  "sourcePath": "/Users/dmitryshlymovich/workspace/ethereum-garanties/truffle_eth_bnhp/contracts/Regulator.sol",
  "schemaVersion": "1.0.0",
  "updatedAt": "2017-10-18T10:15:23.124Z"
}